{
  "abi": [
    {
      "type": "constructor",
      "inputs": [
        {
          "name": "initialComptroller",
          "type": "address",
          "internalType": "address"
        },
        {
          "name": "initialNFTDescriptor",
          "type": "address",
          "internalType": "address"
        }
      ],
      "stateMutability": "nonpayable"
    },
    {
      "type": "function",
      "name": "aggregateAmount",
      "inputs": [
        {
          "name": "token",
          "type": "address",
          "internalType": "contract IERC20"
        }
      ],
      "outputs": [
        {
          "name": "amount",
          "type": "uint256",
          "internalType": "uint256"
        }
      ],
      "stateMutability": "view"
    },
    {
      "type": "function",
      "name": "allowToHook",
      "inputs": [
        {
          "name": "recipient",
          "type": "address",
          "internalType": "address"
        }
      ],
      "outputs": [],
      "stateMutability": "nonpayable"
    },
    {
      "type": "function",
      "name": "approve",
      "inputs": [
        {
          "name": "to",
          "type": "address",
          "internalType": "address"
        },
        {
          "name": "tokenId",
          "type": "uint256",
          "internalType": "uint256"
        }
      ],
      "outputs": [],
      "stateMutability": "nonpayable"
    },
    {
      "type": "function",
      "name": "balanceOf",
      "inputs": [
        {
          "name": "owner",
          "type": "address",
          "internalType": "address"
        }
      ],
      "outputs": [
        {
          "name": "",
          "type": "uint256",
          "internalType": "uint256"
        }
      ],
      "stateMutability": "view"
    },
    {
      "type": "function",
      "name": "batch",
      "inputs": [
        {
          "name": "calls",
          "type": "bytes[]",
          "internalType": "bytes[]"
        }
      ],
      "outputs": [
        {
          "name": "results",
          "type": "bytes[]",
          "internalType": "bytes[]"
        }
      ],
      "stateMutability": "payable"
    },
    {
      "type": "function",
      "name": "burn",
      "inputs": [
        {
          "name": "streamId",
          "type": "uint256",
          "internalType": "uint256"
        }
      ],
      "outputs": [],
      "stateMutability": "payable"
    },
    {
      "type": "function",
      "name": "calculateMinFeeWei",
      "inputs": [
        {
          "name": "streamId",
          "type": "uint256",
          "internalType": "uint256"
        }
      ],
      "outputs": [
        {
          "name": "minFeeWei",
          "type": "uint256",
          "internalType": "uint256"
        }
      ],
      "stateMutability": "view"
    },
    {
      "type": "function",
      "name": "cancel",
      "inputs": [
        {
          "name": "streamId",
          "type": "uint256",
          "internalType": "uint256"
        }
      ],
      "outputs": [
        {
          "name": "refundedAmount",
          "type": "uint128",
          "internalType": "uint128"
        }
      ],
      "stateMutability": "payable"
    },
    {
      "type": "function",
      "name": "cancelMultiple",
      "inputs": [
        {
          "name": "streamIds",
          "type": "uint256[]",
          "internalType": "uint256[]"
        }
      ],
      "outputs": [
        {
          "name": "refundedAmounts",
          "type": "uint128[]",
          "internalType": "uint128[]"
        }
      ],
      "stateMutability": "payable"
    },
    {
      "type": "function",
      "name": "comptroller",
      "inputs": [],
      "outputs": [
        {
          "name": "",
          "type": "address",
          "internalType": "contract ISablierComptroller"
        }
      ],
      "stateMutability": "view"
    },
    {
      "type": "function",
      "name": "createWithDurationsLD",
      "inputs": [
        {
          "name": "params",
          "type": "tuple",
          "internalType": "struct Lockup.CreateWithDurations",
          "components": [
            {
              "name": "sender",
              "type": "address",
              "internalType": "address"
            },
            {
              "name": "recipient",
              "type": "address",
              "internalType": "address"
            },
            {
              "name": "depositAmount",
              "type": "uint128",
              "internalType": "uint128"
            },
            {
              "name": "token",
              "type": "address",
              "internalType": "contract IERC20"
            },
            {
              "name": "cancelable",
              "type": "bool",
              "internalType": "bool"
            },
            {
              "name": "transferable",
              "type": "bool",
              "internalType": "bool"
            },
            {
              "name": "shape",
              "type": "string",
              "internalType": "string"
            }
          ]
        },
        {
          "name": "segmentsWithDuration",
          "type": "tuple[]",
          "internalType": "struct LockupDynamic.SegmentWithDuration[]",
          "components": [
            {
              "name": "amount",
              "type": "uint128",
              "internalType": "uint128"
            },
            {
              "name": "exponent",
              "type": "uint64",
              "internalType": "UD2x18"
            },
            {
              "name": "duration",
              "type": "uint40",
              "internalType": "uint40"
            }
          ]
        }
      ],
      "outputs": [
        {
          "name": "streamId",
          "type": "uint256",
          "internalType": "uint256"
        }
      ],
      "stateMutability": "payable"
    },
    {
      "type": "function",
      "name": "createWithDurationsLL",
      "inputs": [
        {
          "name": "params",
          "type": "tuple",
          "internalType": "struct Lockup.CreateWithDurations",
          "components": [
            {
              "name": "sender",
              "type": "address",
              "internalType": "address"
            },
            {
              "name": "recipient",
              "type": "address",
              "internalType": "address"
            },
            {
              "name": "depositAmount",
              "type": "uint128",
              "internalType": "uint128"
            },
            {
              "name": "token",
              "type": "address",
              "internalType": "contract IERC20"
            },
            {
              "name": "cancelable",
              "type": "bool",
              "internalType": "bool"
            },
            {
              "name": "transferable",
              "type": "bool",
              "internalType": "bool"
            },
            {
              "name": "shape",
              "type": "string",
              "internalType": "string"
            }
          ]
        },
        {
          "name": "unlockAmounts",
          "type": "tuple",
          "internalType": "struct LockupLinear.UnlockAmounts",
          "components": [
            {
              "name": "start",
              "type": "uint128",
              "internalType": "uint128"
            },
            {
              "name": "cliff",
              "type": "uint128",
              "internalType": "uint128"
            }
          ]
        },
        {
          "name": "durations",
          "type": "tuple",
          "internalType": "struct LockupLinear.Durations",
          "components": [
            {
              "name": "cliff",
              "type": "uint40",
              "internalType": "uint40"
            },
            {
              "name": "total",
              "type": "uint40",
              "internalType": "uint40"
            }
          ]
        }
      ],
      "outputs": [
        {
          "name": "streamId",
          "type": "uint256",
          "internalType": "uint256"
        }
      ],
      "stateMutability": "payable"
    },
    {
      "type": "function",
      "name": "createWithDurationsLT",
      "inputs": [
        {
          "name": "params",
          "type": "tuple",
          "internalType": "struct Lockup.CreateWithDurations",
          "components": [
            {
              "name": "sender",
              "type": "address",
              "internalType": "address"
            },
            {
              "name": "recipient",
              "type": "address",
              "internalType": "address"
            },
            {
              "name": "depositAmount",
              "type": "uint128",
              "internalType": "uint128"
            },
            {
              "name": "token",
              "type": "address",
              "internalType": "contract IERC20"
            },
            {
              "name": "cancelable",
              "type": "bool",
              "internalType": "bool"
            },
            {
              "name": "transferable",
              "type": "bool",
              "internalType": "bool"
            },
            {
              "name": "shape",
              "type": "string",
              "internalType": "string"
            }
          ]
        },
        {
          "name": "tranchesWithDuration",
          "type": "tuple[]",
          "internalType": "struct LockupTranched.TrancheWithDuration[]",
          "components": [
            {
              "name": "amount",
              "type": "uint128",
              "internalType": "uint128"
            },
            {
              "name": "duration",
              "type": "uint40",
              "internalType": "uint40"
            }
          ]
        }
      ],
      "outputs": [
        {
          "name": "streamId",
          "type": "uint256",
          "internalType": "uint256"
        }
      ],
      "stateMutability": "payable"
    },
    {
      "type": "function",
      "name": "createWithTimestampsLD",
      "inputs": [
        {
          "name": "params",
          "type": "tuple",
          "internalType": "struct Lockup.CreateWithTimestamps",
          "components": [
            {
              "name": "sender",
              "type": "address",
              "internalType": "address"
            },
            {
              "name": "recipient",
              "type": "address",
              "internalType": "address"
            },
            {
              "name": "depositAmount",
              "type": "uint128",
              "internalType": "uint128"
            },
            {
              "name": "token",
              "type": "address",
              "internalType": "contract IERC20"
            },
            {
              "name": "cancelable",
              "type": "bool",
              "internalType": "bool"
            },
            {
              "name": "transferable",
              "type": "bool",
              "internalType": "bool"
            },
            {
              "name": "timestamps",
              "type": "tuple",
              "internalType": "struct Lockup.Timestamps",
              "components": [
                {
                  "name": "start",
                  "type": "uint40",
                  "internalType": "uint40"
                },
                {
                  "name": "end",
                  "type": "uint40",
                  "internalType": "uint40"
                }
              ]
            },
            {
              "name": "shape",
              "type": "string",
              "internalType": "string"
            }
          ]
        },
        {
          "name": "segments",
          "type": "tuple[]",
          "internalType": "struct LockupDynamic.Segment[]",
          "components": [
            {
              "name": "amount",
              "type": "uint128",
              "internalType": "uint128"
            },
            {
              "name": "exponent",
              "type": "uint64",
              "internalType": "UD2x18"
            },
            {
              "name": "timestamp",
              "type": "uint40",
              "internalType": "uint40"
            }
          ]
        }
      ],
      "outputs": [
        {
          "name": "streamId",
          "type": "uint256",
          "internalType": "uint256"
        }
      ],
      "stateMutability": "payable"
    },
    {
      "type": "function",
      "name": "createWithTimestampsLL",
      "inputs": [
        {
          "name": "params",
          "type": "tuple",
          "internalType": "struct Lockup.CreateWithTimestamps",
          "components": [
            {
              "name": "sender",
              "type": "address",
              "internalType": "address"
            },
            {
              "name": "recipient",
              "type": "address",
              "internalType": "address"
            },
            {
              "name": "depositAmount",
              "type": "uint128",
              "internalType": "uint128"
            },
            {
              "name": "token",
              "type": "address",
              "internalType": "contract IERC20"
            },
            {
              "name": "cancelable",
              "type": "bool",
              "internalType": "bool"
            },
            {
              "name": "transferable",
              "type": "bool",
              "internalType": "bool"
            },
            {
              "name": "timestamps",
              "type": "tuple",
              "internalType": "struct Lockup.Timestamps",
              "components": [
                {
                  "name": "start",
                  "type": "uint40",
                  "internalType": "uint40"
                },
                {
                  "name": "end",
                  "type": "uint40",
                  "internalType": "uint40"
                }
              ]
            },
            {
              "name": "shape",
              "type": "string",
              "internalType": "string"
            }
          ]
        },
        {
          "name": "unlockAmounts",
          "type": "tuple",
          "internalType": "struct LockupLinear.UnlockAmounts",
          "components": [
            {
              "name": "start",
              "type": "uint128",
              "internalType": "uint128"
            },
            {
              "name": "cliff",
              "type": "uint128",
              "internalType": "uint128"
            }
          ]
        },
        {
          "name": "cliffTime",
          "type": "uint40",
          "internalType": "uint40"
        }
      ],
      "outputs": [
        {
          "name": "streamId",
          "type": "uint256",
          "internalType": "uint256"
        }
      ],
      "stateMutability": "payable"
    },
    {
      "type": "function",
      "name": "createWithTimestampsLT",
      "inputs": [
        {
          "name": "params",
          "type": "tuple",
          "internalType": "struct Lockup.CreateWithTimestamps",
          "components": [
            {
              "name": "sender",
              "type": "address",
              "internalType": "address"
            },
            {
              "name": "recipient",
              "type": "address",
              "internalType": "address"
            },
            {
              "name": "depositAmount",
              "type": "uint128",
              "internalType": "uint128"
            },
            {
              "name": "token",
              "type": "address",
              "internalType": "contract IERC20"
            },
            {
              "name": "cancelable",
              "type": "bool",
              "internalType": "bool"
            },
            {
              "name": "transferable",
              "type": "bool",
              "internalType": "bool"
            },
            {
              "name": "timestamps",
              "type": "tuple",
              "internalType": "struct Lockup.Timestamps",
              "components": [
                {
                  "name": "start",
                  "type": "uint40",
                  "internalType": "uint40"
                },
                {
                  "name": "end",
                  "type": "uint40",
                  "internalType": "uint40"
                }
              ]
            },
            {
              "name": "shape",
              "type": "string",
              "internalType": "string"
            }
          ]
        },
        {
          "name": "tranches",
          "type": "tuple[]",
          "internalType": "struct LockupTranched.Tranche[]",
          "components": [
            {
              "name": "amount",
              "type": "uint128",
              "internalType": "uint128"
            },
            {
              "name": "timestamp",
              "type": "uint40",
              "internalType": "uint40"
            }
          ]
        }
      ],
      "outputs": [
        {
          "name": "streamId",
          "type": "uint256",
          "internalType": "uint256"
        }
      ],
      "stateMutability": "payable"
    },
    {
      "type": "function",
      "name": "getApproved",
      "inputs": [
        {
          "name": "tokenId",
          "type": "uint256",
          "internalType": "uint256"
        }
      ],
      "outputs": [
        {
          "name": "",
          "type": "address",
          "internalType": "address"
        }
      ],
      "stateMutability": "view"
    },
    {
      "type": "function",
      "name": "getCliffTime",
      "inputs": [
        {
          "name": "streamId",
          "type": "uint256",
          "internalType": "uint256"
        }
      ],
      "outputs": [
        {
          "name": "cliffTime",
          "type": "uint40",
          "internalType": "uint40"
        }
      ],
      "stateMutability": "view"
    },
    {
      "type": "function",
      "name": "getDepositedAmount",
      "inputs": [
        {
          "name": "streamId",
          "type": "uint256",
          "internalType": "uint256"
        }
      ],
      "outputs": [
        {
          "name": "depositedAmount",
          "type": "uint128",
          "internalType": "uint128"
        }
      ],
      "stateMutability": "view"
    },
    {
      "type": "function",
      "name": "getEndTime",
      "inputs": [
        {
          "name": "streamId",
          "type": "uint256",
          "internalType": "uint256"
        }
      ],
      "outputs": [
        {
          "name": "endTime",
          "type": "uint40",
          "internalType": "uint40"
        }
      ],
      "stateMutability": "view"
    },
    {
      "type": "function",
      "name": "getLockupModel",
      "inputs": [
        {
          "name": "streamId",
          "type": "uint256",
          "internalType": "uint256"
        }
      ],
      "outputs": [
        {
          "name": "lockupModel",
          "type": "uint8",
          "internalType": "enum Lockup.Model"
        }
      ],
      "stateMutability": "view"
    },
    {
      "type": "function",
      "name": "getRecipient",
      "inputs": [
        {
          "name": "streamId",
          "type": "uint256",
          "internalType": "uint256"
        }
      ],
      "outputs": [
        {
          "name": "recipient",
          "type": "address",
          "internalType": "address"
        }
      ],
      "stateMutability": "view"
    },
    {
      "type": "function",
      "name": "getRefundedAmount",
      "inputs": [
        {
          "name": "streamId",
          "type": "uint256",
          "internalType": "uint256"
        }
      ],
      "outputs": [
        {
          "name": "refundedAmount",
          "type": "uint128",
          "internalType": "uint128"
        }
      ],
      "stateMutability": "view"
    },
    {
      "type": "function",
      "name": "getSegments",
      "inputs": [
        {
          "name": "streamId",
          "type": "uint256",
          "internalType": "uint256"
        }
      ],
      "outputs": [
        {
          "name": "segments",
          "type": "tuple[]",
          "internalType": "struct LockupDynamic.Segment[]",
          "components": [
            {
              "name": "amount",
              "type": "uint128",
              "internalType": "uint128"
            },
            {
              "name": "exponent",
              "type": "uint64",
              "internalType": "UD2x18"
            },
            {
              "name": "timestamp",
              "type": "uint40",
              "internalType": "uint40"
            }
          ]
        }
      ],
      "stateMutability": "view"
    },
    {
      "type": "function",
      "name": "getSender",
      "inputs": [
        {
          "name": "streamId",
          "type": "uint256",
          "internalType": "uint256"
        }
      ],
      "outputs": [
        {
          "name": "sender",
          "type": "address",
          "internalType": "address"
        }
      ],
      "stateMutability": "view"
    },
    {
      "type": "function",
      "name": "getStartTime",
      "inputs": [
        {
          "name": "streamId",
          "type": "uint256",
          "internalType": "uint256"
        }
      ],
      "outputs": [
        {
          "name": "startTime",
          "type": "uint40",
          "internalType": "uint40"
        }
      ],
      "stateMutability": "view"
    },
    {
      "type": "function",
      "name": "getTranches",
      "inputs": [
        {
          "name": "streamId",
          "type": "uint256",
          "internalType": "uint256"
        }
      ],
      "outputs": [
        {
          "name": "tranches",
          "type": "tuple[]",
          "internalType": "struct LockupTranched.Tranche[]",
          "components": [
            {
              "name": "amount",
              "type": "uint128",
              "internalType": "uint128"
            },
            {
              "name": "timestamp",
              "type": "uint40",
              "internalType": "uint40"
            }
          ]
        }
      ],
      "stateMutability": "view"
    },
    {
      "type": "function",
      "name": "getUnderlyingToken",
      "inputs": [
        {
          "name": "streamId",
          "type": "uint256",
          "internalType": "uint256"
        }
      ],
      "outputs": [
        {
          "name": "token",
          "type": "address",
          "internalType": "contract IERC20"
        }
      ],
      "stateMutability": "view"
    },
    {
      "type": "function",
      "name": "getUnlockAmounts",
      "inputs": [
        {
          "name": "streamId",
          "type": "uint256",
          "internalType": "uint256"
        }
      ],
      "outputs": [
        {
          "name": "unlockAmounts",
          "type": "tuple",
          "internalType": "struct LockupLinear.UnlockAmounts",
          "components": [
            {
              "name": "start",
              "type": "uint128",
              "internalType": "uint128"
            },
            {
              "name": "cliff",
              "type": "uint128",
              "internalType": "uint128"
            }
          ]
        }
      ],
      "stateMutability": "view"
    },
    {
      "type": "function",
      "name": "getWithdrawnAmount",
      "inputs": [
        {
          "name": "streamId",
          "type": "uint256",
          "internalType": "uint256"
        }
      ],
      "outputs": [
        {
          "name": "withdrawnAmount",
          "type": "uint128",
          "internalType": "uint128"
        }
      ],
      "stateMutability": "view"
    },
    {
      "type": "function",
      "name": "isAllowedToHook",
      "inputs": [
        {
          "name": "recipient",
          "type": "address",
          "internalType": "address"
        }
      ],
      "outputs": [
        {
          "name": "result",
          "type": "bool",
          "internalType": "bool"
        }
      ],
      "stateMutability": "view"
    },
    {
      "type": "function",
      "name": "isApprovedForAll",
      "inputs": [
        {
          "name": "owner",
          "type": "address",
          "internalType": "address"
        },
        {
          "name": "operator",
          "type": "address",
          "internalType": "address"
        }
      ],
      "outputs": [
        {
          "name": "",
          "type": "bool",
          "internalType": "bool"
        }
      ],
      "stateMutability": "view"
    },
    {
      "type": "function",
      "name": "isCancelable",
      "inputs": [
        {
          "name": "streamId",
          "type": "uint256",
          "internalType": "uint256"
        }
      ],
      "outputs": [
        {
          "name": "result",
          "type": "bool",
          "internalType": "bool"
        }
      ],
      "stateMutability": "view"
    },
    {
      "type": "function",
      "name": "isCold",
      "inputs": [
        {
          "name": "streamId",
          "type": "uint256",
          "internalType": "uint256"
        }
      ],
      "outputs": [
        {
          "name": "result",
          "type": "bool",
          "internalType": "bool"
        }
      ],
      "stateMutability": "view"
    },
    {
      "type": "function",
      "name": "isDepleted",
      "inputs": [
        {
          "name": "streamId",
          "type": "uint256",
          "internalType": "uint256"
        }
      ],
      "outputs": [
        {
          "name": "result",
          "type": "bool",
          "internalType": "bool"
        }
      ],
      "stateMutability": "view"
    },
    {
      "type": "function",
      "name": "isStream",
      "inputs": [
        {
          "name": "streamId",
          "type": "uint256",
          "internalType": "uint256"
        }
      ],
      "outputs": [
        {
          "name": "result",
          "type": "bool",
          "internalType": "bool"
        }
      ],
      "stateMutability": "view"
    },
    {
      "type": "function",
      "name": "isTransferable",
      "inputs": [
        {
          "name": "streamId",
          "type": "uint256",
          "internalType": "uint256"
        }
      ],
      "outputs": [
        {
          "name": "result",
          "type": "bool",
          "internalType": "bool"
        }
      ],
      "stateMutability": "view"
    },
    {
      "type": "function",
      "name": "isWarm",
      "inputs": [
        {
          "name": "streamId",
          "type": "uint256",
          "internalType": "uint256"
        }
      ],
      "outputs": [
        {
          "name": "result",
          "type": "bool",
          "internalType": "bool"
        }
      ],
      "stateMutability": "view"
    },
    {
      "type": "function",
      "name": "name",
      "inputs": [],
      "outputs": [
        {
          "name": "",
          "type": "string",
          "internalType": "string"
        }
      ],
      "stateMutability": "view"
    },
    {
      "type": "function",
      "name": "nativeToken",
      "inputs": [],
      "outputs": [
        {
          "name": "",
          "type": "address",
          "internalType": "address"
        }
      ],
      "stateMutability": "view"
    },
    {
      "type": "function",
      "name": "nextStreamId",
      "inputs": [],
      "outputs": [
        {
          "name": "",
          "type": "uint256",
          "internalType": "uint256"
        }
      ],
      "stateMutability": "view"
    },
    {
      "type": "function",
      "name": "nftDescriptor",
      "inputs": [],
      "outputs": [
        {
          "name": "",
          "type": "address",
          "internalType": "contract ILockupNFTDescriptor"
        }
      ],
      "stateMutability": "view"
    },
    {
      "type": "function",
      "name": "ownerOf",
      "inputs": [
        {
          "name": "tokenId",
          "type": "uint256",
          "internalType": "uint256"
        }
      ],
      "outputs": [
        {
          "name": "",
          "type": "address",
          "internalType": "address"
        }
      ],
      "stateMutability": "view"
    },
    {
      "type": "function",
      "name": "recover",
      "inputs": [
        {
          "name": "token",
          "type": "address",
          "internalType": "contract IERC20"
        },
        {
          "name": "to",
          "type": "address",
          "internalType": "address"
        }
      ],
      "outputs": [],
      "stateMutability": "nonpayable"
    },
    {
      "type": "function",
      "name": "refundableAmountOf",
      "inputs": [
        {
          "name": "streamId",
          "type": "uint256",
          "internalType": "uint256"
        }
      ],
      "outputs": [
        {
          "name": "refundableAmount",
          "type": "uint128",
          "internalType": "uint128"
        }
      ],
      "stateMutability": "view"
    },
    {
      "type": "function",
      "name": "renounce",
      "inputs": [
        {
          "name": "streamId",
          "type": "uint256",
          "internalType": "uint256"
        }
      ],
      "outputs": [],
      "stateMutability": "payable"
    },
    {
      "type": "function",
      "name": "safeTransferFrom",
      "inputs": [
        {
          "name": "from",
          "type": "address",
          "internalType": "address"
        },
        {
          "name": "to",
          "type": "address",
          "internalType": "address"
        },
        {
          "name": "tokenId",
          "type": "uint256",
          "internalType": "uint256"
        }
      ],
      "outputs": [],
      "stateMutability": "nonpayable"
    },
    {
      "type": "function",
      "name": "safeTransferFrom",
      "inputs": [
        {
          "name": "from",
          "type": "address",
          "internalType": "address"
        },
        {
          "name": "to",
          "type": "address",
          "internalType": "address"
        },
        {
          "name": "tokenId",
          "type": "uint256",
          "internalType": "uint256"
        },
        {
          "name": "data",
          "type": "bytes",
          "internalType": "bytes"
        }
      ],
      "outputs": [],
      "stateMutability": "nonpayable"
    },
    {
      "type": "function",
      "name": "setApprovalForAll",
      "inputs": [
        {
          "name": "operator",
          "type": "address",
          "internalType": "address"
        },
        {
          "name": "approved",
          "type": "bool",
          "internalType": "bool"
        }
      ],
      "outputs": [],
      "stateMutability": "nonpayable"
    },
    {
      "type": "function",
      "name": "setComptroller",
      "inputs": [
        {
          "name": "newComptroller",
          "type": "address",
          "internalType": "contract ISablierComptroller"
        }
      ],
      "outputs": [],
      "stateMutability": "nonpayable"
    },
    {
      "type": "function",
      "name": "setNFTDescriptor",
      "inputs": [
        {
          "name": "newNFTDescriptor",
          "type": "address",
          "internalType": "contract ILockupNFTDescriptor"
        }
      ],
      "outputs": [],
      "stateMutability": "nonpayable"
    },
    {
      "type": "function",
      "name": "setNativeToken",
      "inputs": [
        {
          "name": "newNativeToken",
          "type": "address",
          "internalType": "address"
        }
      ],
      "outputs": [],
      "stateMutability": "nonpayable"
    },
    {
      "type": "function",
      "name": "statusOf",
      "inputs": [
        {
          "name": "streamId",
          "type": "uint256",
          "internalType": "uint256"
        }
      ],
      "outputs": [
        {
          "name": "status",
          "type": "uint8",
          "internalType": "enum Lockup.Status"
        }
      ],
      "stateMutability": "view"
    },
    {
      "type": "function",
      "name": "streamedAmountOf",
      "inputs": [
        {
          "name": "streamId",
          "type": "uint256",
          "internalType": "uint256"
        }
      ],
      "outputs": [
        {
          "name": "streamedAmount",
          "type": "uint128",
          "internalType": "uint128"
        }
      ],
      "stateMutability": "view"
    },
    {
      "type": "function",
      "name": "supportsInterface",
      "inputs": [
        {
          "name": "interfaceId",
          "type": "bytes4",
          "internalType": "bytes4"
        }
      ],
      "outputs": [
        {
          "name": "",
          "type": "bool",
          "internalType": "bool"
        }
      ],
      "stateMutability": "view"
    },
    {
      "type": "function",
      "name": "symbol",
      "inputs": [],
      "outputs": [
        {
          "name": "",
          "type": "string",
          "internalType": "string"
        }
      ],
      "stateMutability": "view"
    },
    {
      "type": "function",
      "name": "tokenURI",
      "inputs": [
        {
          "name": "streamId",
          "type": "uint256",
          "internalType": "uint256"
        }
      ],
      "outputs": [
        {
          "name": "uri",
          "type": "string",
          "internalType": "string"
        }
      ],
      "stateMutability": "view"
    },
    {
      "type": "function",
      "name": "transferFeesToComptroller",
      "inputs": [],
      "outputs": [],
      "stateMutability": "nonpayable"
    },
    {
      "type": "function",
      "name": "transferFrom",
      "inputs": [
        {
          "name": "from",
          "type": "address",
          "internalType": "address"
        },
        {
          "name": "to",
          "type": "address",
          "internalType": "address"
        },
        {
          "name": "tokenId",
          "type": "uint256",
          "internalType": "uint256"
        }
      ],
      "outputs": [],
      "stateMutability": "nonpayable"
    },
    {
      "type": "function",
      "name": "wasCanceled",
      "inputs": [
        {
          "name": "streamId",
          "type": "uint256",
          "internalType": "uint256"
        }
      ],
      "outputs": [
        {
          "name": "result",
          "type": "bool",
          "internalType": "bool"
        }
      ],
      "stateMutability": "view"
    },
    {
      "type": "function",
      "name": "withdraw",
      "inputs": [
        {
          "name": "streamId",
          "type": "uint256",
          "internalType": "uint256"
        },
        {
          "name": "to",
          "type": "address",
          "internalType": "address"
        },
        {
          "name": "amount",
          "type": "uint128",
          "internalType": "uint128"
        }
      ],
      "outputs": [],
      "stateMutability": "payable"
    },
    {
      "type": "function",
      "name": "withdrawMax",
      "inputs": [
        {
          "name": "streamId",
          "type": "uint256",
          "internalType": "uint256"
        },
        {
          "name": "to",
          "type": "address",
          "internalType": "address"
        }
      ],
      "outputs": [
        {
          "name": "withdrawnAmount",
          "type": "uint128",
          "internalType": "uint128"
        }
      ],
      "stateMutability": "payable"
    },
    {
      "type": "function",
      "name": "withdrawMaxAndTransfer",
      "inputs": [
        {
          "name": "streamId",
          "type": "uint256",
          "internalType": "uint256"
        },
        {
          "name": "newRecipient",
          "type": "address",
          "internalType": "address"
        }
      ],
      "outputs": [
        {
          "name": "withdrawnAmount",
          "type": "uint128",
          "internalType": "uint128"
        }
      ],
      "stateMutability": "payable"
    },
    {
      "type": "function",
      "name": "withdrawMultiple",
      "inputs": [
        {
          "name": "streamIds",
          "type": "uint256[]",
          "internalType": "uint256[]"
        },
        {
          "name": "amounts",
          "type": "uint128[]",
          "internalType": "uint128[]"
        }
      ],
      "outputs": [],
      "stateMutability": "payable"
    },
    {
      "type": "function",
      "name": "withdrawableAmountOf",
      "inputs": [
        {
          "name": "streamId",
          "type": "uint256",
          "internalType": "uint256"
        }
      ],
      "outputs": [
        {
          "name": "withdrawableAmount",
          "type": "uint128",
          "internalType": "uint128"
        }
      ],
      "stateMutability": "view"
    },
    {
      "type": "event",
      "name": "AllowToHook",
      "inputs": [
        {
          "name": "comptroller",
          "type": "address",
          "indexed": true,
          "internalType": "contract ISablierComptroller"
        },
        {
          "name": "recipient",
          "type": "address",
          "indexed": true,
          "internalType": "address"
        }
      ],
      "anonymous": false
    },
    {
      "type": "event",
      "name": "Approval",
      "inputs": [
        {
          "name": "owner",
          "type": "address",
          "indexed": true,
          "internalType": "address"
        },
        {
          "name": "approved",
          "type": "address",
          "indexed": true,
          "internalType": "address"
        },
        {
          "name": "tokenId",
          "type": "uint256",
          "indexed": true,
          "internalType": "uint256"
        }
      ],
      "anonymous": false
    },
    {
      "type": "event",
      "name": "ApprovalForAll",
      "inputs": [
        {
          "name": "owner",
          "type": "address",
          "indexed": true,
          "internalType": "address"
        },
        {
          "name": "operator",
          "type": "address",
          "indexed": true,
          "internalType": "address"
        },
        {
          "name": "approved",
          "type": "bool",
          "indexed": false,
          "internalType": "bool"
        }
      ],
      "anonymous": false
    },
    {
      "type": "event",
      "name": "BatchMetadataUpdate",
      "inputs": [
        {
          "name": "_fromTokenId",
          "type": "uint256",
          "indexed": false,
          "internalType": "uint256"
        },
        {
          "name": "_toTokenId",
          "type": "uint256",
          "indexed": false,
          "internalType": "uint256"
        }
      ],
      "anonymous": false
    },
    {
      "type": "event",
      "name": "CancelLockupStream",
      "inputs": [
        {
          "name": "streamId",
          "type": "uint256",
          "indexed": false,
          "internalType": "uint256"
        },
        {
          "name": "sender",
          "type": "address",
          "indexed": true,
          "internalType": "address"
        },
        {
          "name": "recipient",
          "type": "address",
          "indexed": true,
          "internalType": "address"
        },
        {
          "name": "token",
          "type": "address",
          "indexed": true,
          "internalType": "contract IERC20"
        },
        {
          "name": "senderAmount",
          "type": "uint128",
          "indexed": false,
          "internalType": "uint128"
        },
        {
          "name": "recipientAmount",
          "type": "uint128",
          "indexed": false,
          "internalType": "uint128"
        }
      ],
      "anonymous": false
    },
    {
      "type": "event",
      "name": "CreateLockupDynamicStream",
      "inputs": [
        {
          "name": "streamId",
          "type": "uint256",
          "indexed": true,
          "internalType": "uint256"
        },
        {
          "name": "commonParams",
          "type": "tuple",
          "indexed": false,
          "internalType": "struct Lockup.CreateEventCommon",
          "components": [
            {
              "name": "funder",
              "type": "address",
              "internalType": "address"
            },
            {
              "name": "sender",
              "type": "address",
              "internalType": "address"
            },
            {
              "name": "recipient",
              "type": "address",
              "internalType": "address"
            },
            {
              "name": "depositAmount",
              "type": "uint128",
              "internalType": "uint128"
            },
            {
              "name": "token",
              "type": "address",
              "internalType": "contract IERC20"
            },
            {
              "name": "cancelable",
              "type": "bool",
              "internalType": "bool"
            },
            {
              "name": "transferable",
              "type": "bool",
              "internalType": "bool"
            },
            {
              "name": "timestamps",
              "type": "tuple",
              "internalType": "struct Lockup.Timestamps",
              "components": [
                {
                  "name": "start",
                  "type": "uint40",
                  "internalType": "uint40"
                },
                {
                  "name": "end",
                  "type": "uint40",
                  "internalType": "uint40"
                }
              ]
            },
            {
              "name": "shape",
              "type": "string",
              "internalType": "string"
            }
          ]
        },
        {
          "name": "segments",
          "type": "tuple[]",
          "indexed": false,
          "internalType": "struct LockupDynamic.Segment[]",
          "components": [
            {
              "name": "amount",
              "type": "uint128",
              "internalType": "uint128"
            },
            {
              "name": "exponent",
              "type": "uint64",
              "internalType": "UD2x18"
            },
            {
              "name": "timestamp",
              "type": "uint40",
              "internalType": "uint40"
            }
          ]
        }
      ],
      "anonymous": false
    },
    {
      "type": "event",
      "name": "CreateLockupLinearStream",
      "inputs": [
        {
          "name": "streamId",
          "type": "uint256",
          "indexed": true,
          "internalType": "uint256"
        },
        {
          "name": "commonParams",
          "type": "tuple",
          "indexed": false,
          "internalType": "struct Lockup.CreateEventCommon",
          "components": [
            {
              "name": "funder",
              "type": "address",
              "internalType": "address"
            },
            {
              "name": "sender",
              "type": "address",
              "internalType": "address"
            },
            {
              "name": "recipient",
              "type": "address",
              "internalType": "address"
            },
            {
              "name": "depositAmount",
              "type": "uint128",
              "internalType": "uint128"
            },
            {
              "name": "token",
              "type": "address",
              "internalType": "contract IERC20"
            },
            {
              "name": "cancelable",
              "type": "bool",
              "internalType": "bool"
            },
            {
              "name": "transferable",
              "type": "bool",
              "internalType": "bool"
            },
            {
              "name": "timestamps",
              "type": "tuple",
              "internalType": "struct Lockup.Timestamps",
              "components": [
                {
                  "name": "start",
                  "type": "uint40",
                  "internalType": "uint40"
                },
                {
                  "name": "end",
                  "type": "uint40",
                  "internalType": "uint40"
                }
              ]
            },
            {
              "name": "shape",
              "type": "string",
              "internalType": "string"
            }
          ]
        },
        {
          "name": "cliffTime",
          "type": "uint40",
          "indexed": false,
          "internalType": "uint40"
        },
        {
          "name": "unlockAmounts",
          "type": "tuple",
          "indexed": false,
          "internalType": "struct LockupLinear.UnlockAmounts",
          "components": [
            {
              "name": "start",
              "type": "uint128",
              "internalType": "uint128"
            },
            {
              "name": "cliff",
              "type": "uint128",
              "internalType": "uint128"
            }
          ]
        }
      ],
      "anonymous": false
    },
    {
      "type": "event",
      "name": "CreateLockupTranchedStream",
      "inputs": [
        {
          "name": "streamId",
          "type": "uint256",
          "indexed": true,
          "internalType": "uint256"
        },
        {
          "name": "commonParams",
          "type": "tuple",
          "indexed": false,
          "internalType": "struct Lockup.CreateEventCommon",
          "components": [
            {
              "name": "funder",
              "type": "address",
              "internalType": "address"
            },
            {
              "name": "sender",
              "type": "address",
              "internalType": "address"
            },
            {
              "name": "recipient",
              "type": "address",
              "internalType": "address"
            },
            {
              "name": "depositAmount",
              "type": "uint128",
              "internalType": "uint128"
            },
            {
              "name": "token",
              "type": "address",
              "internalType": "contract IERC20"
            },
            {
              "name": "cancelable",
              "type": "bool",
              "internalType": "bool"
            },
            {
              "name": "transferable",
              "type": "bool",
              "internalType": "bool"
            },
            {
              "name": "timestamps",
              "type": "tuple",
              "internalType": "struct Lockup.Timestamps",
              "components": [
                {
                  "name": "start",
                  "type": "uint40",
                  "internalType": "uint40"
                },
                {
                  "name": "end",
                  "type": "uint40",
                  "internalType": "uint40"
                }
              ]
            },
            {
              "name": "shape",
              "type": "string",
              "internalType": "string"
            }
          ]
        },
        {
          "name": "tranches",
          "type": "tuple[]",
          "indexed": false,
          "internalType": "struct LockupTranched.Tranche[]",
          "components": [
            {
              "name": "amount",
              "type": "uint128",
              "internalType": "uint128"
            },
            {
              "name": "timestamp",
              "type": "uint40",
              "internalType": "uint40"
            }
          ]
        }
      ],
      "anonymous": false
    },
    {
      "type": "event",
      "name": "InvalidStreamInCancelMultiple",
      "inputs": [
        {
          "name": "streamId",
          "type": "uint256",
          "indexed": true,
          "internalType": "uint256"
        },
        {
          "name": "revertData",
          "type": "bytes",
          "indexed": false,
          "internalType": "bytes"
        }
      ],
      "anonymous": false
    },
    {
      "type": "event",
      "name": "InvalidWithdrawalInWithdrawMultiple",
      "inputs": [
        {
          "name": "streamId",
          "type": "uint256",
          "indexed": true,
          "internalType": "uint256"
        },
        {
          "name": "revertData",
          "type": "bytes",
          "indexed": false,
          "internalType": "bytes"
        }
      ],
      "anonymous": false
    },
    {
      "type": "event",
      "name": "MetadataUpdate",
      "inputs": [
        {
          "name": "_tokenId",
          "type": "uint256",
          "indexed": false,
          "internalType": "uint256"
        }
      ],
      "anonymous": false
    },
    {
      "type": "event",
      "name": "RenounceLockupStream",
      "inputs": [
        {
          "name": "streamId",
          "type": "uint256",
          "indexed": true,
          "internalType": "uint256"
        }
      ],
      "anonymous": false
    },
    {
      "type": "event",
      "name": "SetComptroller",
      "inputs": [
        {
          "name": "oldComptroller",
          "type": "address",
          "indexed": false,
          "internalType": "contract ISablierComptroller"
        },
        {
          "name": "newComptroller",
          "type": "address",
          "indexed": false,
          "internalType": "contract ISablierComptroller"
        }
      ],
      "anonymous": false
    },
    {
      "type": "event",
      "name": "SetNFTDescriptor",
      "inputs": [
        {
          "name": "comptroller",
          "type": "address",
          "indexed": true,
          "internalType": "contract ISablierComptroller"
        },
        {
          "name": "oldNFTDescriptor",
          "type": "address",
          "indexed": true,
          "internalType": "contract ILockupNFTDescriptor"
        },
        {
          "name": "newNFTDescriptor",
          "type": "address",
          "indexed": true,
          "internalType": "contract ILockupNFTDescriptor"
        }
      ],
      "anonymous": false
    },
    {
      "type": "event",
      "name": "Transfer",
      "inputs": [
        {
          "name": "from",
          "type": "address",
          "indexed": true,
          "internalType": "address"
        },
        {
          "name": "to",
          "type": "address",
          "indexed": true,
          "internalType": "address"
        },
        {
          "name": "tokenId",
          "type": "uint256",
          "indexed": true,
          "internalType": "uint256"
        }
      ],
      "anonymous": false
    },
    {
      "type": "event",
      "name": "TransferFeesToComptroller",
      "inputs": [
        {
          "name": "comptroller",
          "type": "address",
          "indexed": true,
          "internalType": "contract ISablierComptroller"
        },
        {
          "name": "feeAmount",
          "type": "uint256",
          "indexed": false,
          "internalType": "uint256"
        }
      ],
      "anonymous": false
    },
    {
      "type": "event",
      "name": "WithdrawFromLockupStream",
      "inputs": [
        {
          "name": "streamId",
          "type": "uint256",
          "indexed": true,
          "internalType": "uint256"
        },
        {
          "name": "to",
          "type": "address",
          "indexed": true,
          "internalType": "address"
        },
        {
          "name": "token",
          "type": "address",
          "indexed": true,
          "internalType": "contract IERC20"
        },
        {
          "name": "amount",
          "type": "uint128",
          "indexed": false,
          "internalType": "uint128"
        }
      ],
      "anonymous": false
    },
    {
      "type": "error",
      "name": "Comptrollerable_CallerNotComptroller",
      "inputs": [
        {
          "name": "comptroller",
          "type": "address",
          "internalType": "address"
        },
        {
          "name": "caller",
          "type": "address",
          "internalType": "address"
        }
      ]
    },
    {
      "type": "error",
      "name": "Comptrollerable_UnsupportedInterfaceId",
      "inputs": [
        {
          "name": "previousComptroller",
          "type": "address",
          "internalType": "address"
        },
        {
          "name": "newComptroller",
          "type": "address",
          "internalType": "address"
        },
        {
          "name": "minimalInterfaceId",
          "type": "bytes4",
          "internalType": "bytes4"
        }
      ]
    },
    {
      "type": "error",
      "name": "DelegateCall",
      "inputs": []
    },
    {
      "type": "error",
      "name": "ERC721IncorrectOwner",
      "inputs": [
        {
          "name": "sender",
          "type": "address",
          "internalType": "address"
        },
        {
          "name": "tokenId",
          "type": "uint256",
          "internalType": "uint256"
        },
        {
          "name": "owner",
          "type": "address",
          "internalType": "address"
        }
      ]
    },
    {
      "type": "error",
      "name": "ERC721InsufficientApproval",
      "inputs": [
        {
          "name": "operator",
          "type": "address",
          "internalType": "address"
        },
        {
          "name": "tokenId",
          "type": "uint256",
          "internalType": "uint256"
        }
      ]
    },
    {
      "type": "error",
      "name": "ERC721InvalidApprover",
      "inputs": [
        {
          "name": "approver",
          "type": "address",
          "internalType": "address"
        }
      ]
    },
    {
      "type": "error",
      "name": "ERC721InvalidOperator",
      "inputs": [
        {
          "name": "operator",
          "type": "address",
          "internalType": "address"
        }
      ]
    },
    {
      "type": "error",
      "name": "ERC721InvalidOwner",
      "inputs": [
        {
          "name": "owner",
          "type": "address",
          "internalType": "address"
        }
      ]
    },
    {
      "type": "error",
      "name": "ERC721InvalidReceiver",
      "inputs": [
        {
          "name": "receiver",
          "type": "address",
          "internalType": "address"
        }
      ]
    },
    {
      "type": "error",
      "name": "ERC721InvalidSender",
      "inputs": [
        {
          "name": "sender",
          "type": "address",
          "internalType": "address"
        }
      ]
    },
    {
      "type": "error",
      "name": "ERC721NonexistentToken",
      "inputs": [
        {
          "name": "tokenId",
          "type": "uint256",
          "internalType": "uint256"
        }
      ]
    },
    {
      "type": "error",
      "name": "SablierLockupState_NotExpectedModel",
      "inputs": [
        {
          "name": "actualLockupModel",
          "type": "uint8",
          "internalType": "enum Lockup.Model"
        },
        {
          "name": "expectedLockupModel",
          "type": "uint8",
          "internalType": "enum Lockup.Model"
        }
      ]
    },
    {
      "type": "error",
      "name": "SablierLockupState_Null",
      "inputs": [
        {
          "name": "streamId",
          "type": "uint256",
          "internalType": "uint256"
        }
      ]
    },
    {
      "type": "error",
      "name": "SablierLockup_AllowToHookUnsupportedInterface",
      "inputs": [
        {
          "name": "recipient",
          "type": "address",
          "internalType": "address"
        }
      ]
    },
    {
      "type": "error",
      "name": "SablierLockup_InsufficientFeePayment",
      "inputs": [
        {
          "name": "feePaid",
          "type": "uint256",
          "internalType": "uint256"
        },
        {
          "name": "minFeeWei",
          "type": "uint256",
          "internalType": "uint256"
        }
      ]
    },
    {
      "type": "error",
      "name": "SablierLockup_InvalidHookSelector",
      "inputs": [
        {
          "name": "recipient",
          "type": "address",
          "internalType": "address"
        }
      ]
    },
    {
      "type": "error",
      "name": "SablierLockup_NativeTokenAlreadySet",
      "inputs": [
        {
          "name": "nativeToken",
          "type": "address",
          "internalType": "address"
        }
      ]
    },
    {
      "type": "error",
      "name": "SablierLockup_NotTransferable",
      "inputs": [
        {
          "name": "tokenId",
          "type": "uint256",
          "internalType": "uint256"
        }
      ]
    },
    {
      "type": "error",
      "name": "SablierLockup_Overdraw",
      "inputs": [
        {
          "name": "streamId",
          "type": "uint256",
          "internalType": "uint256"
        },
        {
          "name": "amount",
          "type": "uint128",
          "internalType": "uint128"
        },
        {
          "name": "withdrawableAmount",
          "type": "uint128",
          "internalType": "uint128"
        }
      ]
    },
    {
      "type": "error",
      "name": "SablierLockup_StreamCanceled",
      "inputs": [
        {
          "name": "streamId",
          "type": "uint256",
          "internalType": "uint256"
        }
      ]
    },
    {
      "type": "error",
      "name": "SablierLockup_StreamDepleted",
      "inputs": [
        {
          "name": "streamId",
          "type": "uint256",
          "internalType": "uint256"
        }
      ]
    },
    {
      "type": "error",
      "name": "SablierLockup_StreamNotCancelable",
      "inputs": [
        {
          "name": "streamId",
          "type": "uint256",
          "internalType": "uint256"
        }
      ]
    },
    {
      "type": "error",
      "name": "SablierLockup_StreamNotDepleted",
      "inputs": [
        {
          "name": "streamId",
          "type": "uint256",
          "internalType": "uint256"
        }
      ]
    },
    {
      "type": "error",
      "name": "SablierLockup_StreamSettled",
      "inputs": [
        {
          "name": "streamId",
          "type": "uint256",
          "internalType": "uint256"
        }
      ]
    },
    {
      "type": "error",
      "name": "SablierLockup_Unauthorized",
      "inputs": [
        {
          "name": "streamId",
          "type": "uint256",
          "internalType": "uint256"
        },
        {
          "name": "caller",
          "type": "address",
          "internalType": "address"
        }
      ]
    },
    {
      "type": "error",
      "name": "SablierLockup_WithdrawAmountZero",
      "inputs": [
        {
          "name": "streamId",
          "type": "uint256",
          "internalType": "uint256"
        }
      ]
    },
    {
      "type": "error",
      "name": "SablierLockup_WithdrawArrayCountsNotEqual",
      "inputs": [
        {
          "name": "streamIdsCount",
          "type": "uint256",
          "internalType": "uint256"
        },
        {
          "name": "amountsCount",
          "type": "uint256",
          "internalType": "uint256"
        }
      ]
    },
    {
      "type": "error",
      "name": "SablierLockup_WithdrawToZeroAddress",
      "inputs": [
        {
          "name": "streamId",
          "type": "uint256",
          "internalType": "uint256"
        }
      ]
    },
    {
      "type": "error",
      "name": "SablierLockup_WithdrawalAddressNotRecipient",
      "inputs": [
        {
          "name": "streamId",
          "type": "uint256",
          "internalType": "uint256"
        },
        {
          "name": "caller",
          "type": "address",
          "internalType": "address"
        },
        {
          "name": "to",
          "type": "address",
          "internalType": "address"
        }
      ]
    },
    {
      "type": "error",
      "name": "SafeERC20FailedOperation",
      "inputs": [
        {
          "name": "token",
          "type": "address",
          "internalType": "address"
        }
      ]
    }
  ],
  "bytecode": {
    "object": "0x60a0806040523461044a57604081615f0e803803809161001f8285610461565b83398101031261044a5761003e602061003783610484565b9201610484565b906040519161004e604084610461565b601283527114d8589b1a595c88131bd8dadd5c0813919560721b60208401526040519161007c604084610461565b600a83526905341422d4c4f434b55560b41b602084015260018060a01b03166040516301ffc9a760e01b8152630654439160e41b6004820152602081602481855afa908115610456575f91610417575b50156103f6575f80546001600160a01b031916821781556040805191825260208201929092527ff45d882a72fce9d8d7a7e2e196a338d4d9d4057510b4b9ddf91a7066104d2eaf9190a182516001600160401b03811161030757600154600181811c911680156103ec575b60208210146102e957601f8111610389575b506020601f821160011461032657819293945f9261031b575b50508160011b915f199060031b1c1916176001555b81516001600160401b03811161030757600254600181811c911680156102fd575b60208210146102e957601f8111610286575b50602092601f821160011461022557928192935f9261021a575b50508160011b915f199060031b1c1916176002555b306080526001600955600a80546001600160a01b0319166001600160a01b0392909216919091179055604051615a7590816104998239608051816142820152f35b015190505f806101c4565b601f1982169360025f52805f20915f5b86811061026e5750836001959610610256575b505050811b016002556101d9565b01515f1960f88460031b161c191690555f8080610248565b91926020600181928685015181550194019201610235565b60025f527f405787fa12a823e0f2b7631cc41b3ba8828b3321ca811111fa75cd3aa3bb5ace601f830160051c810191602084106102df575b601f0160051c01905b8181106102d457506101aa565b5f81556001016102c7565b90915081906102be565b634e487b7160e01b5f52602260045260245ffd5b90607f1690610198565b634e487b7160e01b5f52604160045260245ffd5b015190505f80610162565b601f1982169060015f52805f20915f5b81811061037157509583600195969710610359575b505050811b01600155610177565b01515f1960f88460031b161c191690555f808061034b565b9192602060018192868b015181550194019201610336565b60015f527fb10e2d527612073b26eecdfd717e6a320cf44b4afac2b0732d9fcbe2b7fa0cf6601f830160051c810191602084106103e2575b601f0160051c01905b8181106103d75750610149565b5f81556001016103ca565b90915081906103c1565b90607f1690610137565b6364ca3de160e11b5f525f600452602452630654439160e41b60445260645ffd5b90506020813d60201161044e575b8161043260209383610461565b8101031261044a5751801515810361044a575f6100cc565b5f80fd5b3d9150610425565b6040513d5f823e3d90fd5b601f909101601f19168101906001600160401b0382119082101761030757604052565b51906001600160a01b038216820361044a5756fe60806040526004361015610011575f80fd5b5f3560e01c806301ffc9a71461041f57806306fdde031461041a578063081812fc14610415578063095ea7b3146104105780631400ecec1461040b5780631c1cdd4c146104065780631e897afb146104015780631e99d569146103fc57806323b872dd146103f7578063303acc85146103f2578063406887cb146103ed57806340e58ee5146103e8578063425d30dd146103e357806342842e0e146103de57806342966c68146103d957806344267570146103d45780634857501f146103cf5780634869e12d146103ca5780634cc55e11146103c55780635fe3b567146103c05780636352211e146103b6578063648bf774146103bb5780636d0cee75146103b65780636da1e102146103b157806370a08231146103ac57806374d213e5146103a7578063780a82c8146103a257806378f82ce71461039d5780637aab211a146103985780637cad6cd1146103935780637de6b1db1461038e5780637ee44729146103895780637f5799f9146103845780638659c2701461037f5780638bad38dd1461037a5780638f69b993146103755780639067b6771461037057806395d89b411461036b5780639d93ddd314610366578063a22cb46514610361578063a47757721461035c578063a80fc07114610357578063ad35efd414610352578063b25645691461034d578063b637b86514610348578063b8856d8914610343578063b88d4fde1461033e578063b8a3be6614610339578063b971302a14610334578063bc2be1be1461032f578063c156a11d1461032a578063c87b56dd14610325578063c9ad007c14610320578063cca138e51461031b578063d4dbd20b14610316578063d511609f14610311578063d975dfed1461030c578063df2a848c14610307578063e1758bd814610302578063e6c417eb146102fd578063e985e9c5146102f8578063ea5ead19146102f3578063ec01da3b146102ee578063f590c176146102e95763fdd46d60146102e4575f80fd5b6130a8565b61305f565b613023565b612dce565b612d68565b612d23565b612cf3565b612c76565b612c29565b612bf0565b612bb1565b612af7565b61297d565b612898565b6125d2565b612595565b612559565b612524565b6124bd565b612266565b6121cc565b612113565b6120e0565b612083565b612044565b611f8c565b611e33565b611d7e565b611d41565b611cd9565b611b5e565b611a77565b61199b565b6117ab565b611639565b611577565b611402565b61136d565b6112c4565b6111d5565b611140565b6110d9565b610ff1565b611020565b610fcc565b610e52565b610e1a565b610dba565b610d94565b610d0d565b610ce4565b610ca6565b610bb3565b610a91565b610a50565b610a39565b6109f0565b610934565b610822565b610771565b610668565b61061a565b610527565b61043a565b6001600160e01b031981160361043657565b5f80fd5b346104365760203660031901126104365760043561045781610424565b63ffffffff60e01b16632483248360e11b8114908115610480575b506040519015158152602090f35b6380ac58cd60e01b8114915081156104b2575b81156104a1575b505f610472565b6301ffc9a760e01b1490505f61049a565b635b5e139f60e01b81149150610493565b5f91031261043657565b5f5b8381106104de5750505f910152565b81810151838201526020016104cf565b90602091610507815180928185528580860191016104cd565b601f01601f1916010190565b9060206105249281815201906104ee565b90565b34610436575f366003190112610436576040515f6001548060011c9060018116908115610610575b6020831082146105fc5782855260208501919081156105e35750600114610591575b61058d846105818186038261240b565b60405191829182610513565b0390f35b60015f9081529250907fb10e2d527612073b26eecdfd717e6a320cf44b4afac2b0732d9fcbe2b7fa0cf65b8184106105cf5750500161058182610571565b8054848401526020909301926001016105bc565b60ff191682525090151560051b01905061058182610571565b634e487b7160e01b5f52602260045260245ffd5b91607f169161054f565b346104365760203660031901126104365760043561063781613b23565b505f52600560205260206001600160a01b0360405f205416604051908152f35b6001600160a01b0381160361043657565b346104365760403660031901126104365760043561068581610657565b6024359061069282613b23565b3315158061075e575b8061071e575b61070a5782610708936106ed926001600160a01b0380861691167f8c5be1e5ebec7d5bd14f71427d1e84f3dd0314c0f7b2291e5b200ac8c7c3b9255f80a45f52600560205260405f2090565b906001600160a01b03166001600160a01b0319825416179055565b005b63a9fbf51f60e01b5f523360045260245b5ffd5b5060ff61075633610740846001600160a01b03165f52600660205260405f2090565b906001600160a01b03165f5260205260405f2090565b5416156106a1565b50336001600160a01b038216141561069b565b346104365760203660031901126104365761058d60043561079181613b56565b5f90805f52600e60205260ff60405f205460f01c1680610805575b6107cc575b506040516001600160801b0390911681529081906020820190565b6107ff9150805f52600e6020526107f96107f3600260405f2001546001600160801b031690565b91613df4565b906132fa565b5f6107b1565b50805f52600e60205260ff600160405f20015460a01c16156107ac565b346104365760203660031901126104365761084760043561084281613b56565b6140e5565b600581101561087257801590811561086757506040519015158152602090f35b60019150145f610472565b6120c2565b9181601f84011215610436578235916001600160401b038311610436576020808501948460051b01011161043657565b602060031982011261043657600435906001600160401b038211610436576108d191600401610877565b9091565b602081016020825282518091526040820191602060408360051b8301019401925f915b83831061090757505050505090565b9091929394602080610925600193603f1986820301875289516104ee565b970193019301919392906108f8565b61093d366108a7565b906109478261331a565b91610955604051938461240b565b808352601f196109648261331a565b015f5b8181106109df5750505f5b818110610987576040518061058d86826108d5565b5f80610994838587613377565b906109a460405180938193613393565b0390305af46109b16133a0565b90156109d757906001916109c582876133cf565b526109d081866133cf565b5001610972565b805190602001fd5b806060602080938801015201610967565b34610436575f366003190112610436576020600954604051908152f35b606090600319011261043657600435610a2581610657565b90602435610a3281610657565b9060443590565b3461043657610708610a4a36610a0d565b916133e3565b34610436576020366003190112610436576001600160a01b03600435610a7581610657565b165f52600b602052602060ff60405f2054166040519015158152f35b3461043657602036600319011261043657600435610aae81610657565b610ab661424d565b6040516301ffc9a760e01b815263f8ee98d360e01b60048201526001600160a01b0382169190602081602481865afa908115610bae575f91610b7f575b5015610b6457610b17610b24916001600160a01b03165f52600b60205260405f2090565b805460ff19166001179055565b6001600160a01b03610b3d5f546001600160a01b031690565b167fb4378d4e289cb3f40f4f75a99c9cafa76e3df1c4dc31309babc23dc91bd728015f80a3005b63f1dc125d60e01b5f526001600160a01b031660045260245ffd5b610ba1915060203d602011610ba7575b610b99818361240b565b8101906134e2565b5f610af3565b503d610b8f565b6134f7565b602036600319011261043657600435610bca614278565b610bd381613b56565b5f818152600e602052604090206001015460a01c60ff1615610c01576315efa0f360e11b5f5260045260245ffd5b610c1d610c16825f52600e60205260405f2090565b5460f81c90565b610c9457610c52610c46610c39835f52600e60205260405f2090565b546001600160a01b031690565b6001600160a01b031690565b3303610c7e57610c6461058d916142b9565b6040516001600160801b0390911681529081906020820190565b632082501160e01b5f526004523360245260445ffd5b63d0a172b360e01b5f5260045260245ffd5b3461043657602036600319011261043657600435610cc381613b56565b5f52600e602052602060ff600160405f20015460a01c166040519015158152f35b3461043657610708610cf536610a0d565b9060405192610d0560208561240b565b5f84526138bd565b602036600319011261043657600435610d24614278565b610d2d81613b56565b805f52600e60205260ff600160405f20015460a01c1615610d8257805f526003602052610d75610d71610d6b60405f206001600160a01b0390541690565b836145ef565b1590565b610c7e57610708906145fa565b633090f59b60e11b5f5260045260245ffd5b34610436575f3660031901126104365760206001600160a01b03600a5416604051908152f35b3461043657602036600319011261043657600435610dd781613b56565b5f90610de2816140e5565b600581101561087257600203610e0057506040519015158152602090f35b90505f52600e60205260ff60405f205460f01c165f610472565b34610436576020366003190112610436576020610e41600435610e3c81613b56565b613df4565b6001600160801b0360405191168152f35b6040366003190112610436576004356001600160401b03811161043657610e7d903690600401610877565b6024356001600160401b03811161043657610e9c903690600401610877565b9290610ea6614278565b838303610fb3575f5b838110610eb857005b805f80610ec86001948888613502565b35610ef0610ed7858a8a613502565b355f5260036020526001600160a01b0360405f20541690565b610f52610f06610f01878d8b613502565b613512565b6040516307eea36b60e51b6020820190815260248201959095526001600160a01b0390931660448401526001600160801b0316606483015281608481015b03601f19810183528261240b565b5190305af4610f5f6133a0565b9015610f6d575b5001610eaf565b7f36b7a9a3f5bfe69ad6ae04107796a967de5c92c761b4d7a4c34e985670666419610faa610f9c848989613502565b359260405191829182610513565b0390a25f610f66565b6352f6a1f360e11b5f526004839052602484905260445ffd5b34610436575f3660031901126104365760206001600160a01b035f5416604051908152f35b3461043657602036600319011261043657602061100f600435613b23565b6001600160a01b0360405191168152f35b346104365760403660031901126104365760043561103d81610657565b6024359061104a82610657565b61105261424d565b6040516370a0823160e01b81523060048201526001600160a01b0382169290602081602481875afa8015610bae57610708946110a2925f926110a8575b505f52600760205260405f205490613539565b9161468c565b6110cb91925060203d6020116110d2575b6110c3818361240b565b81019061351c565b905f61108f565b503d6110b9565b34610436576020366003190112610436576004356110f681610657565b6110fe61424d565b600854906001600160a01b0382168061112e57506001600160a01b0316906001600160a01b031916176008555f80f35b6373f4d8a760e11b5f5260045260245ffd5b34610436576020366003190112610436576001600160a01b0360043561116581610657565b168015611182575f526004602052602060405f2054604051908152f35b6322718ad960e21b5f525f60045260245ffd5b90816101209103126104365790565b604090602319011261043657602490565b604090606319011261043657606490565b64ffffffffff81160361043657565b6080366003190112610436576004356001600160401b038111610436576112b461120661058d923690600401611195565b61120f366111a4565b9060643561121c816111c6565b611224614278565b60808201359261123384611f82565b60408301359261124284613097565b602081013561125081610657565b81359061125c82610657565b61126a610100840184613345565b9690956112ae6112a661129b6060880135996112858b610657565b60a08901359b6112948d611f82565b3691612487565b9660c036910161355a565b963690613594565b9861486a565b6040519081529081906020820190565b34610436576020366003190112610436576004356112e181613b56565b805f52600e60205260ff600160405f20015460b01c1660038110156108725761133f5761132761131c61058d925f52600c60205260405f2090565b5464ffffffffff1690565b60405164ffffffffff90911681529081906020820190565b5f52600e60205261071b61135e600160405f200160ff905460b01c1690565b63319dec3f60e01b5f526135ca565b34610436575f36600319011261043657475f808080846001600160a01b038254165af1506113996133a0565b507f56dedb874d4fc0f70753f281fa2c25e82085163206086fe826cf834b51701f6c60206001600160a01b035f541692604051908152a2005b9181601f84011215610436578235916001600160401b038311610436576020808501946060850201011161043657565b6040366003190112610436576004356001600160401b0381116104365761142d903690600401611195565b6024356001600160401b0381116104365761144c9036906004016113d2565b91611455614278565b60808101359061146482611f82565b60408101359261147384613097565b60208201359061148282610657565b82359161148e83610657565b61149c610100850185613345565b96906060860135976114ad89610657565b60a0870135996114bc8b611f82565b6114c58161331a565b956114d3604051978861240b565b818752606060208801920281019036821161043657915b818310611520575061058d6112b48d8d8d8d8d8d8d8d61151a61150f8f8f3691612487565b9560c036910161355a565b95614bf9565b60608336031261043657602060609160405161153b816123d0565b853561154681613097565b8152828601356115558161360e565b838201526040860135611567816111c6565b60408201528152019201916114ea565b346104365760203660031901126104365760043561159481610657565b61159c61424d565b6001600160a01b0380600a54921691828219821617600a55166001600160a01b035f54167fa2548bd4b805e907c1558a47b5858324fe8bb4a2e1ddfca647eecbf65610eebc5f80a46009545f1981019081116116345761162f7f6bd5c950a8d8df17f772f5af37cb3655737899cbf903264b9795592da439661c9160405191829182919060206040840193600181520152565b0390a1005b6132e6565b602036600319011261043657600435611650614278565b61165981613b56565b611662816140e5565b61166b816120d6565b60048103611687576315efa0f360e11b5f52600482905260245ffd5b611690816120d6565b600381036116ac5763d0a172b360e01b5f52600482905260245ffd5b806116b86002926120d6565b1461175b576116d5610c46610c39835f52600e60205260405f2090565b3303610c7e576116fd610d716116f3835f52600e60205260405f2090565b5460f01c60ff1690565b61174957611723611716825f52600e60205260405f2090565b805460ff60f01b19169055565b7f0eb069207093cd3e51cd1370d2d369770057fbe29947e577e5fb428c6c6fc78f5f80a2005b635dd950cb60e11b5f5260045260245ffd5b6308aca53f60e21b5f5260045260245ffd5b908160e09103126104365790565b9181601f84011215610436578235916001600160401b038311610436576020808501948460061b01011161043657565b6040366003190112610436576004356001600160401b038111610436576117d690369060040161176d565b6024356001600160401b038111610436576117f590369060040161177b565b906117fe614278565b5f64ffffffffff42169283926118286040519586938493631441207960e01b8552600485016136cd565b038173__$70ac0b9f44f1ad43af70526685fc041161$__5af48015610bae5761058d936112b4935f9261190d575b5081926118aa6118846020611877611871611907975161352b565b886133cf565b51015164ffffffffff1690565b61189c61188f61242c565b64ffffffffff9094168452565b64ffffffffff166020830152565b6118b660808301613546565b6118c260408401613512565b6118ce60208501613550565b6118d785613550565b916118e560c0870187613345565b97906118ff60a06118f860608b01613550565b9901613546565b983691612487565b93614f1a565b611907925061192d903d805f833e611925818361240b565b81019061361f565b91611856565b90602080835192838152019201905f5b8181106119505750505090565b909192602060408261197f600194885164ffffffffff602080926001600160801b038151168552015116910152565b019401929101611943565b906020610524928181520190611933565b34610436576020366003190112610436576004356119b881613b56565b805f52600e60205260ff600160405f20015460b01c16600381101561087257600203611a07576119fb6119f661058d925f52600f60205260405f2090565b613741565b6040519182918261198a565b5f52600e60205261071b611a26600160405f200160ff905460b01c1690565b63319dec3f60e01b5f526135e0565b60206040818301928281528451809452019201905f5b818110611a585750505090565b82516001600160801b0316845260209384019390920191600101611a4b565b611a80366108a7565b90611a89614278565b611a92826137b5565b915f5b818110611aaa576040518061058d8682611a35565b805f80611aba6001948688613502565b6040516340e58ee560e01b6020820190815291356024820152611ae08160448101610f44565b5190305af4611aed6133a0565b90611b2b577f93fea6715d28b8667a24abd06acf5a526d08244c3ba06ce7e896e26199470d6c611b21610f9c848789613502565b0390a25b01611a95565b611b4181602080611b59945183010191016137e7565b611b4b83886133cf565b906001600160801b03169052565b611b25565b3461043657602036600319011261043657600435611b7b81610657565b611b8361424d565b6001600160a01b035f5416906040516361a6f99f60e11b8152602081600481865afa908115610bae575f91611caa575b506040516301ffc9a760e01b81526001600160e01b0319821660048201526001600160a01b03831690602081602481855afa908115610bae575f91611c8b575b5015611c5d577ff45d882a72fce9d8d7a7e2e196a338d4d9d4057510b4b9ddf91a7066104d2eaf8385611c3a826001600160a01b03166001600160a01b03195f5416175f55565b604080516001600160a01b0392831681529290911660208301528190810161162f565b6364ca3de160e11b5f526001600160a01b03808516600452166024526001600160e01b03191660445260645ffd5b611ca4915060203d602011610ba757610b99818361240b565b5f611bf3565b611ccc915060203d602011611cd2575b611cc4818361240b565b8101906137fc565b5f611bb3565b503d611cba565b3461043657602036600319011261043657611cf960043561084281613b56565b60058110156108725760028114908115611d36575b8115611d2257506040519015158152602090f35b60049150611d2f816120d6565b145f610472565b600381149150611d0e565b3461043657602036600319011261043657600435611d5e81613b56565b5f52600e602052602064ffffffffff60405f205460c81c16604051908152f35b34610436575f366003190112610436576040515f6002548060011c9060018116908115611e29575b6020831082146105fc5782855260208501919081156105e35750600114611dd75761058d846105818186038261240b565b60025f9081529250907f405787fa12a823e0f2b7631cc41b3ba8828b3321ca811111fa75cd3aa3bb5ace5b818410611e155750500161058182610571565b805484840152602090930192600101611e02565b91607f1691611da6565b6040366003190112610436576004356001600160401b03811161043657611e5e903690600401611195565b6024356001600160401b03811161043657611e7d90369060040161177b565b611e88929192614278565b608082013590611e9782611f82565b604083013592611ea684613097565b6020810135611eb481610657565b813590611ec082610657565b611ece610100840184613345565b969095611ef561150f606087013598611ee68a610657565b60a08801359a6112948c611f82565b95611eff8161331a565b99611f0d6040519b8c61240b565b818b5260208b019160061b81019036821161043657915b818310611f3f5761058d6112b48d8d8d8d8d8d8d8d8d614f1a565b6040833603126104365760206040918251611f59816123f0565b8535611f6481613097565b815282860135611f73816111c6565b83820152815201920191611f24565b8015150361043657565b3461043657604036600319011261043657600435611fa981610657565b602435611fb581611f82565b6001600160a01b0382169182156120315781611ff061200192335f52600660205260405f20906001600160a01b03165f5260205260405f2090565b9060ff801983541691151516179055565b60405190151581527f17307eab39ab6107e8899845ad3d59bd9653f200f220920489ca2b5937696c3160203392a3005b82630b61174360e31b5f5260045260245ffd5b346104365760203660031901126104365760043561206181613b56565b5f52600e60205260206001600160a01b03600160405f20015416604051908152f35b34610436576020366003190112610436576004356120a081613b56565b5f52600e60205260206001600160801b03600260405f20015416604051908152f35b634e487b7160e01b5f52602160045260245ffd5b6005111561087257565b346104365760203660031901126104365761210060043561084281613b56565b6040516005821015610872576020918152f35b346104365760203660031901126104365760043561213081613b56565b5f52600e602052602060ff600160405f20015460a81c166040519015158152f35b90602080835192838152019201905f5b81811061216e5750505090565b90919260206060826121b0600194885164ffffffffff604080926001600160801b0381511685526001600160401b036020820151166020860152015116910152565b019401929101612161565b906020610524928181520190612151565b34610436576020366003190112610436576004356121e981613b56565b805f52600e60205260ff600160405f20015460b01c166003811015610872576001036122385761222c61222761058d925f52600d60205260405f2090565b613811565b604051918291826121bb565b5f52600e60205261071b612257600160405f200160ff905460b01c1690565b63319dec3f60e01b5f526135f7565b60a0366003190112610436576004356001600160401b038111610436576112b461229761058d92369060040161176d565b6122a0366111a4565b6122a9366111b5565b916122b2614278565b6122ba61242c565b4264ffffffffff16815260208101925f84525f936122e46122da87613897565b64ffffffffff1690565b61238b575b6123219061231661238396976123106020612309885164ffffffffff1690565b9201613897565b906138a1565b64ffffffffff169052565b61232d60808401613546565b9461233a60408501613512565b61234660208601613550565b9061235086613550565b926112ae61236160c0890189613345565b999061237b60a061237460608d01613550565b9b01613546565b9a3691612487565b953690613594565b6123839450612321906123166123b26123a9865164ffffffffff1690565b6123108a613897565b96505090506122e9565b634e487b7160e01b5f52604160045260245ffd5b606081019081106001600160401b038211176123eb57604052565b6123bc565b604081019081106001600160401b038211176123eb57604052565b90601f801991011681019081106001600160401b038211176123eb57604052565b6040519061243b60408361240b565b565b6040519061243b6101408361240b565b6040519061243b6101208361240b565b6040519061243b60608361240b565b6001600160401b0381116123eb57601f01601f191660200190565b9291926124938261246c565b916124a1604051938461240b565b829481845281830111610436578281602093845f960137010152565b34610436576080366003190112610436576004356124da81610657565b602435906124e782610657565b604435606435926001600160401b03841161043657366023850112156104365761251e610708943690602481600401359101612487565b926138bd565b34610436576020366003190112610436576004355f52600e60205260206001600160a01b0360405f2054161515604051908152f35b346104365760203660031901126104365760043561257681613b56565b5f52600e60205260206001600160a01b0360405f205416604051908152f35b34610436576020366003190112610436576004356125b281613b56565b5f52600e602052602064ffffffffff60405f205460a01c16604051908152f35b6040366003190112610436576004356024356125ed81610657565b6125f5614278565b6125fe82613b56565b815f5260036020526001600160a01b0360405f205416906126208333846154b0565b156128815761262e8361509b565b916001600160801b03831680158015612651575b61058d85610c648887876150c1565b612659614278565b61266286613b56565b6126846001612679885f52600e60205260405f2090565b015460a01c60ff1690565b61286d578215612859576126a3610c39875f52600360205260405f2090565b916001600160a01b038316918285141580612845575b6128205761280c576126ca8761509b565b906001600160801b038216106127e657506126e6858488615139565b6040518681525f516020615a205f395f51905f5290602090a180331415806127bb575b15612642576040516392b9102b60e01b8152600481018790523360248201526001600160a01b03841660448201526001600160801b038616606482015290602090829060849082905f905af1908115610bae575f9161279c575b506001600160e01b031916636d46efd560e01b016127815780612642565b636ade251160e01b5f526001600160a01b031660045260245ffd5b6127b5915060203d602011611cd257611cc4818361240b565b5f612763565b506127e16127da836001600160a01b03165f52600b60205260405f2090565b5460ff1690565b612709565b63066920d760e01b5f5260048790526001600160801b038087166024521660445260645ffd5b63b2ae763360e01b5f52600487905260245ffd5b63350b320360e11b5f526004889052336024526001600160a01b03851660445260645ffd5b50612854610d718933876154b0565b6126b9565b632da33e5b60e01b5f52600486905260245ffd5b6315efa0f360e11b5f52600486905260245ffd5b82632082501160e01b5f526004523360245260445ffd5b34610436576020366003190112610436576004356128b581613b23565b505f6001600160a01b03600a54169160446040518094819363e9dc637560e01b835230600484015260248301525afa8015610bae575f90612901575b61058d9060405191829182610513565b503d805f833e612911818361240b565b810190602081830312610436578051906001600160401b03821161043657019080601f83011215610436578151916129488361246c565b91612956604051938461240b565b838352602084830101116104365761058d9261297891602080850191016104cd565b6128f1565b6040366003190112610436576004356001600160401b038111610436576129a890369060040161176d565b6024356001600160401b038111610436576129c79036906004016113d2565b91906129d1614278565b5f64ffffffffff42169384926129fb604051948593849363f0b95e0960e01b855260048501613a6a565b038173__$70ac0b9f44f1ad43af70526685fc041161$__5af4918215610bae5761058d936112b493612acf935f91612ad5575b50612a70612a4a6040611877612a44855161352b565b856133cf565b612a62612a5561242c565b64ffffffffff9095168552565b64ffffffffff166020840152565b612a7c60808401613546565b90612a8960408501613512565b90612a9660208601613550565b612a9f86613550565b92612aad60c0880188613345565b9890612ac760a0612ac060608c01613550565b9a01613546565b993691612487565b94614bf9565b612af191503d805f833e612ae9818361240b565b8101906139a8565b5f612a2e565b3461043657602036600319011261043657612b6c6020600435612b1981613b56565b6001600160a01b035f5416905f52600e82526001600160a01b0360405f20541690604051808095819463419d289d60e01b83526004830191909160206001600160a01b0360408301946002845216910152565b03915afa8015610bae5761058d915f91612b92575b506040519081529081906020820190565b612bab915060203d6020116110d2576110c3818361240b565b5f612b81565b3461043657602036600319011261043657600435612bce81613b56565b5f52600e60205260206001600160801b03600360405f20015416604051908152f35b3461043657602036600319011261043657600435612c0d81613b56565b5f52600e6020526020600260405f20015460801c604051908152f35b34610436576020366003190112610436576020610e41600435612c4b81613b56565b61509b565b61243b9092919260408101936001600160801b0360208092828151168552015116910152565b34610436576020366003190112610436576004355f6020604051612c99816123f0565b8281520152612ca781613b56565b805f52600e60205260ff600160405f20015460b01c1660038110156108725761133f57612ce7612ce261058d925f52601060205260405f2090565b613afe565b60405191829182612c50565b34610436575f3660031901126104365760206001600160a01b0360085416604051908152f35b6003111561087257565b3461043657602036600319011261043657600435612d4081613b56565b5f52600e60205260ff600160405f20015460b01c166040516003821015610872576020918152f35b3461043657604036600319011261043657602060ff612dc2600435612d8c81610657565b6001600160a01b0360243591612da183610657565b165f526006845260405f20906001600160a01b03165f5260205260405f2090565b54166040519015158152f35b604036600319011261043657602435600435612de982610657565b612df28161509b565b91612dfb614278565b612e0482613b56565b612e1b6001612679845f52600e60205260405f2090565b61300f576001600160a01b038116908115612ffb57612e45610c39845f52600360205260405f2090565b926001600160a01b0384168093141580612fe7575b612fc5576001600160801b0385168015612fb157612e778261509b565b906001600160801b03821610612f8a5750612e93858383615139565b6040518181525f516020615a205f395f51905f5290602090a18233141580612f66575b612ecf575b6040516001600160801b0386168152602090f35b6040516392b9102b60e01b815260048101919091523360248201526001600160a01b039190911660448201526001600160801b038416606482015290602090829060849082905f905af1908115610bae575f91612f47575b506001600160e01b031916636d46efd560e01b0161278157808080612ebb565b612f60915060203d602011611cd257611cc4818361240b565b5f612f27565b50612f856127da856001600160a01b03165f52600b60205260405f2090565b612eb6565b63066920d760e01b5f526004919091526001600160801b038086166024521660445260645ffd5b63b2ae763360e01b5f52600482905260245ffd5b63350b320360e11b5f52600452336024526001600160a01b031660445260645ffd5b50612ff6610d718233876154b0565b612e5a565b632da33e5b60e01b5f52600483905260245ffd5b6315efa0f360e11b5f52600482905260245ffd5b34610436576020366003190112610436576001600160a01b0360043561304881610657565b165f526007602052602060405f2054604051908152f35b346104365760203660031901126104365760043561307c81613b56565b5f52600e602052602060405f205460f81c6040519015158152f35b6001600160801b0381160361043657565b6060366003190112610436576004356024356130c381610657565b604435916130d083613097565b6130d8614278565b6130e181613b56565b6130f86001612679835f52600e60205260405f2090565b6132d4576001600160a01b0382169283156132c057613122610c39835f52600360205260405f2090565b936001600160a01b03851680911415806132ac575b613287576001600160801b0382168015613273576131548461509b565b906001600160801b0382161061324d5750613170828585615139565b6040518381525f516020615a205f395f51905f5290602090a18033141580613229575b61319957005b6040516392b9102b60e01b815260048101939093523360248401526001600160a01b039390931660448301526001600160801b0316606482015290602090829060849082905f905af1908115610bae575f9161320a575b506001600160e01b031916636d46efd560e01b0161278157005b613223915060203d602011611cd257611cc4818361240b565b5f6131f0565b506132486127da866001600160a01b03165f52600b60205260405f2090565b613193565b63066920d760e01b5f5260048490526001600160801b038084166024521660445260645ffd5b63b2ae763360e01b5f52600484905260245ffd5b63350b320360e11b5f526004839052336024526001600160a01b03841660445260645ffd5b506132bb610d718433886154b0565b613137565b632da33e5b60e01b5f52600482905260245ffd5b6315efa0f360e11b5f5260045260245ffd5b634e487b7160e01b5f52601160045260245ffd5b906001600160801b03809116911603906001600160801b03821161163457565b6001600160401b0381116123eb5760051b60200190565b634e487b7160e01b5f52603260045260245ffd5b903590601e198136030182121561043657018035906001600160401b0382116104365760200191813603831361043657565b9082101561338e576108d19160051b810190613345565b613331565b908092918237015f815290565b3d156133ca573d906133b18261246c565b916133bf604051938461240b565b82523d5f602084013e565b606090565b805182101561338e5760209160051b010190565b91906001600160a01b038116156134cf57815f5260036020526001600160a01b0360405f2054161515806134c7575b8061349c575b6134885760405182815261344291905f516020615a205f395f51905f5290602090a1823391615384565b916001600160a01b0381166001600160a01b0384160361346157505050565b6364283d7b60e01b5f526001600160a01b039081166004526024919091521660445260645ffd5b634274c8e160e11b5f52600482905260245ffd5b506134c2610d7160016134b7855f52600e60205260405f2090565b015460a81c60ff1690565b613418565b506001613412565b633250574960e11b5f525f60045260245ffd5b90816020910312610436575161052481611f82565b6040513d5f823e3d90fd5b919081101561338e5760051b0190565b3561052481613097565b90816020910312610436575190565b5f1981019190821161163457565b9190820391821161163457565b3561052481611f82565b3561052481610657565b919082604091031261043657604051613572816123f0565b60208082948035613582816111c6565b8452013591613590836111c6565b0152565b9190826040910312610436576040516135ac816123f0565b602080829480356135bc81613097565b845201359161359083613097565b906044916003811015610872576004525f602452565b906044916003811015610872576004526002602452565b906044916003811015610872576004526001602452565b6001600160401b0381160361043657565b602081830312610436578051906001600160401b038211610436570181601f82011215610436578051906136528261331a565b92613660604051948561240b565b82845260208085019360061b8301019181831161043657602001925b82841061368a575050505090565b60408483031261043657602060409182516136a4816123f0565b86516136af81613097565b8152828701516136be816111c6565b8382015281520193019261367c565b91939293806040840160408552526060830191905f5b8181106136fd5750505064ffffffffff6020919416910152565b9091926040806001926001600160801b03873561371981613097565b16815264ffffffffff6020880135613730816111c6565b1660208201520194019291016136e3565b90815461374d8161331a565b9261375b604051948561240b565b81845260208401905f5260205f205f915b8383106137795750505050565b60016020819260405161378b816123f0565b64ffffffffff86546001600160801b038116835260801c168382015281520192019201919061376c565b906137bf8261331a565b6137cc604051918261240b565b82815280926137dd601f199161331a565b0190602036910137565b90816020910312610436575161052481613097565b90816020910312610436575161052481610424565b90815461381d8161331a565b9261382b604051948561240b565b81845260208401905f5260205f205f915b8383106138495750505050565b60016020819260405161385b816123d0565b64ffffffffff86546001600160801b03811683526001600160401b038160801c168584015260c01c16604082015281520192019201919061383c565b35610524816111c6565b9064ffffffffff8091169116019064ffffffffff821161163457565b9092916138cb8185846133e3565b833b6138d8575b50505050565b6020916138fa6040519485938493630a85bd0160e11b8552336004860161506d565b03815f6001600160a01b0387165af15f9181613987575b5061394b575061391f6133a0565b805191908261394457633250574960e11b5f526001600160a01b03821660045260245ffd5b9050602001fd5b6001600160e01b03191663757a42ff60e11b0161396c57505f8080806138d2565b633250574960e11b5f526001600160a01b031660045260245ffd5b6139a191925060203d602011611cd257611cc4818361240b565b905f613911565b602081830312610436578051906001600160401b038211610436570181601f82011215610436578051906139db8261331a565b926139e9604051948561240b565b8284526020606081860194028301019181831161043657602001925b828410613a13575050505090565b606084830312610436576020606091604051613a2e816123d0565b8651613a3981613097565b815282870151613a488161360e565b838201526040870151613a5a816111c6565b6040820152815201930192613a05565b939291806040860160408752526060850191905f5b818110613a9e5750505090602061243b9294019064ffffffffff169052565b9091926060806001926001600160801b038735613aba81613097565b1681526001600160401b036020880135613ad38161360e565b16602082015264ffffffffff6040880135613aed816111c6565b166040820152019401929101613a7f565b90604051613b0b816123f0565b91546001600160801b038116835260801c6020830152565b805f5260036020526001600160a01b0360405f205416908115613b44575090565b637e27328960e01b5f5260045260245ffd5b805f52600e6020526001600160a01b0360405f20541615613b745750565b62763a5b60e91b5f5260045260245ffd5b60038210156108725752565b90604051613b9e816123d0565b60406001600160801b03600183958054838116865260801c6020860152015416910152565b90604051613bd36101408261240b565b610120613cc660028395613c57613c4e8254613c05613bf8826001600160a01b031690565b6001600160a01b03168952565b64ffffffffff60a082901c166020890152613c3460c882901c64ffffffffff165b64ffffffffff1660408a0152565b613c4860f082901c60ff16151560608a0152565b60f81c90565b15156080870152565b613cc0613cb66001830154613c85613c75826001600160a01b031690565b6001600160a01b031660a08a0152565b613c9960a082901c60ff16151560c08a0152565b613cad60a882901c60ff16151560e08a0152565b60b01c60ff1690565b6101008701613b85565b01613b91565b910152565b909264ffffffffff908160a0946001600160801b03608086019716855216602084015216604082015260806060820152835480935201915f5260205f20905f5b818110613d185750505090565b82546001600160801b038116855260801c64ffffffffff16602085015260409093019260019283019201613d0b565b929164ffffffffff90969594966001600160801b0360a086019316855216602084015260a06040840152815480915260c08301915f5260205f20905f5b818110613db25750505064ffffffffff909416606082015261243b9190608001906001600160801b03169052565b82546001600160801b0381168552608081901c6001600160401b0316602086015260c01c64ffffffffff16604085015260609093019260019283019201613d84565b5f90613e10613e0b825f52600e60205260405f2090565b613bc3565b91613e1e60c0840151151590565b15613e3a5750506101200151602001516001600160801b031690565b60808301516140b557610100830160018151613e5581612d19565b613e5e81612d19565b03613f3b5750506020906101208301613ee8613e828251516001600160801b031690565b91613ecc85613ebc81613eaf613ea060408c015164ffffffffff1690565b985f52600d60205260405f2090565b99015164ffffffffff1690565b925101516001600160801b031690565b906040519687958695631efe300360e21b875260048701613d47565b038173__$50c25247757e62846d50a95ffb6bac620d$__5af4908115610bae575f91613f12575090565b610524915060203d602011613f34575b613f2c818361240b565b8101906137e7565b503d613f22565b8051613f4681612d19565b613f4f81612d19565b61402257505080613f6d61131c6020935f52600c60205260405f2090565b613ee8610120850192613f8984516001600160801b0390511690565b93613fc386613ebc613fb482613fa760408d015164ffffffffff1690565b9b015164ffffffffff1690565b945f52601060205260405f2090565b6040516313c015db60e01b815264ffffffffff95861660048201526001600160801b039687166024820152978516604489015293909116606487015254808416608487015260801c60a4860152911660c48401528290819060e4820190565b600290949391945161403381612d19565b61403c81612d19565b14614045575050565b6020919293506140626101208201516001600160801b0390511690565b613ee861409a61408b8561407e604087015164ffffffffff1690565b95015164ffffffffff1690565b955f52600f60205260405f2090565b604051633796f97b60e01b8152958694859460048601613ccb565b50506101206105249101516107f960406140d683516001600160801b031690565b9201516001600160801b031690565b6140fc6001612679835f52600e60205260405f2090565b156141075750600490565b61411c610c16825f52600e60205260405f2090565b6141a8576141466122da614138835f52600e60205260405f2090565b5460a01c64ffffffffff1690565b42106141a3576001600160801b03614191614185600261417761416886613df4565b955f52600e60205260405f2090565b01546001600160801b031690565b6001600160801b031690565b9116101561419e57600190565b600290565b505f90565b50600390565b815f5260036020526001600160a01b0360405f20541615158061423b575b80614218575b61420557610524915f915f516020615a205f395f51905f52604051806141fd85829190602083019252565b0390a1615384565b50634274c8e160e11b5f5260045260245ffd5b5060ff600161422f845f52600e60205260405f2090565b015460a81c16156141d2565b506001600160a01b03811615156141cc565b6001600160a01b035f54168033036142625750565b6353f0a8cf60e11b5f526004523360245260445ffd5b6001600160a01b037f00000000000000000000000000000000000000000000000000000000000000001630036142aa57565b63a1c0d6e560e01b5f5260045ffd5b906142c382613df4565b916142db6002613cc0835f52600e60205260405f2090565b926142f061418585516001600160801b031690565b6001600160801b03821610156145db57614318610d716116f3845f52600e60205260405f2090565b6145c757806107f960206143476143569461433a89516001600160801b031690565b036001600160801b031690565b9601516001600160801b031690565b61438061436b835f52600e60205260405f2090565b80546001600160f81b0316600160f81b179055565b614395611716835f52600e60205260405f2090565b6001600160801b03811615614597575b6143d98460036143bd855f52600e60205260405f2090565b01906001600160801b03166001600160801b0319825416179055565b6143ee610c39835f52600e60205260405f2090565b9184614405610c39835f52600360205260405f2090565b9361442b600161441d855f52600e60205260405f2090565b01546001600160a01b031690565b906144616001600160801b038416614454846001600160a01b03165f52600760205260405f2090565b818154039055828461468c565b604080518581526001600160801b0385811660208301528716918101919091526001600160a01b038781169381169184918416907f5edb27d6c1a327513b90a792050debf074b7194444885e3144d4decc5caaaa5090606090a46040518481525f516020615a205f395f51905f5290602090a16144f26127da876001600160a01b03165f52600b60205260405f2090565b6144ff575b505050505050565b604051630d4af11f60e31b815260048101949094526001600160a01b031660248401526001600160801b0391821660448401529216606482015290602090829060849082905f905af1908115610bae575f91614578575b506001600160e01b0319166312b50ee160e31b016127815780808481806144f7565b614591915060203d602011611cd257611cc4818361240b565b5f614556565b6145c260016145ae845f52600e60205260405f2090565b01805460ff60a01b1916600160a01b179055565b6143a5565b635dd950cb60e11b5f52600482905260245ffd5b6308aca53f60e21b5f52600482905260245ffd5b6105249133906154b0565b805f5260036020526001600160a01b0360405f205416151580614685575b80614667575b614655575f516020615a205f395f51905f526020604051838152a16001600160a01b0361464c5f8381615384565b1615613b445750565b634274c8e160e11b5f5260045260245ffd5b5061467f60016134b7835f52600e60205260405f2090565b1561461e565b505f614618565b61243b926001600160a01b036040519363a9059cbb60e01b60208601521660248401526044830152604482526146c360648361240b565b61554f565b94614740906001600160801b036001600160a01b039664ffffffffff6105249c9b976147158a98896101409e99168d5260208d019064ffffffffff60208092828151168552015116910152565b1660608a015216608088015260a08701906001600160801b0360208092828151168552015116910152565b1660e0840152166101008201528161012082015201906104ee565b634e487b7160e01b5f525f60045260245ffd5b906101406101006105249361478c8482516001600160a01b03169052565b6020818101516001600160a01b0316908501526040818101516001600160a01b0316908501526060818101516001600160801b0316908501526080818101516001600160a01b03169085015260a08181015115159085015260c08181015115159085015261481560e082015160e086019064ffffffffff60208092828151168552015116910152565b0151918161012082015201906104ee565b60409064ffffffffff61484761243b9597969460808452608084019061476e565b9616602082015201906001600160801b0360208092828151168552015116910152565b909592979199989694939473__$70ac0b9f44f1ad43af70526685fc041161$__61489c6008546001600160a01b031690565b90803b1561043657855f916001600160a01b038f6148db8b8f978f988f908b956040519b8c9a8b998a9963f89d584160e01b8b52169460048a016146c8565b03915af48015610bae57614a0d575b506009549a8b99896149048c5f52601060205260405f2090565b9061493a91815160209092015160801b6fffffffffffffffffffffffffffffffff19166001600160801b03909216919091179055565b8a8584888c614951855f52600c60205260405f2090565b9061496d919064ffffffffff1664ffffffffff19825416179055565b61497a938c86888b6157cb565b61498261244d565b338152976001600160a01b031660208901526001600160a01b031660408801526001600160801b031660608701526001600160a01b03166080860152151560a0850152151560c084015260e08301526101008201526040519283926149e79284614826565b037fc79bd540ef5a04a4ac63a943cd4fb703e8a730be1368c34f4c31bb7142bbdb3a91a2565b80614a1b5f614a219361240b565b806104c3565b5f6148ea565b939597969492614a686001600160801b0392936001600160a01b03610100880195168752602087019064ffffffffff60208092828151168552015116910152565b16606084015261010060808401528451809152602061012084019501905f5b818110614acc575050506105249495614aaf614abf9260a08501906001600160a01b03169052565b6001600160a01b031660c0830152565b60e08184039101526104ee565b9091956020606082614b0e6001948b5164ffffffffff604080926001600160801b0381511685526001600160401b036020820151166020860152015116910152565b019701929101614a87565b805482101561338e575f5260205f2001905f90565b8054680100000000000000008110156123eb57614b5091600182018155614b19565b919091614bcf578051825460208301516040909301516001600160801b039092167fffffff00000000000000000000000000000000000000000000000000000000009091161760809290921b77ffffffffffffffff00000000000000000000000000000000169190911760c09190911b64ffffffffff60c01b16179055565b61475b565b9091614beb6105249360408452604084019061476e565b916020818403910152612151565b9296919897939895949573__$70ac0b9f44f1ad43af70526685fc041161$__614c2a6008546001600160a01b031690565b90803b1561043657875f916001600160a01b03878f8d8f97614c67928b996040519a8b998a988998630bce559f60e11b8a52169360048901614a27565b03915af48015610bae57614da4575b5098959493929190600954998a9789515f5b818110614d6157505093614d3084614d2085614d10868e9f9d9b987f0e7eb51bad11fb6392e8e6cfd568e0750bbaf84bca8bf4dceb9bcae5b46a33119f9b614ce460209f9d614d429d8f8e9285614d399f8f98614d00996158fc565b614cec61244d565b3381529e8f01906001600160a01b03169052565b6001600160a01b031660408d0152565b6001600160801b031660608b0152565b6001600160a01b03166080890152565b151560a0870152565b151560c0850152565b60e0830152610100820152614d5c60405192839283614bd4565b0390a2565b614d938c614d8c83614d866001969798999a9b9c9d9e9f5f52600d60205260405f2090565b926133cf565b5190614b2e565b01908c999897969594939291614c88565b80614a1b5f614db29361240b565b5f614c76565b939597969492614df96001600160801b0392936001600160a01b03610100880195168752602087019064ffffffffff60208092828151168552015116910152565b16606084015261010060808401528451809152602061012084019501905f5b818110614e40575050506105249495614aaf614abf9260a08501906001600160a01b03169052565b9091956020604082614e6f6001948b5164ffffffffff602080926001600160801b038151168552015116910152565b019701929101614e18565b8054680100000000000000008110156123eb57614e9c91600182018155614b19565b919091614bcf578051825460209092015174ffffffffffffffffffffffffffffffffffffffffff199092166001600160801b039091161760809190911b74ffffffffff0000000000000000000000000000000016179055565b9091614f0c6105249360408452604084019061476e565b916020818403910152611933565b9298979693959173__$70ac0b9f44f1ad43af70526685fc041161$__614f486008546001600160a01b031690565b90803b1561043657875f916001600160a01b03878f8d8f97614f85928b996040519a8b998a98899863038720af60e21b8a52169360048901614db8565b03915af48015610bae57615059575b5098959493929190600954998a9789515f5b81811061501c57505093614d3084614d2085614d10868e9f9d9b987fb5286ba059f8139658108ff5a9617e2ba55bd80fb2dd93063f9f9bc0e65c4c2a9f9b614ce460209f9d6150029d8f8e9285614d399f8f98614d009961594f565b60e0830152610100820152614d5c60405192839283614ef5565b6150488c61504183614d866001969798999a9b9c9d9e9f5f52600f60205260405f2090565b5190614e7a565b01908c999897969594939291614fa6565b80614a1b5f6150679361240b565b5f614f94565b90926001600160a01b03608093816105249796168452166020830152604082015281606082015201906104ee565b610524906150a881613df4565b905f52600e602052600260405f20015460801c906132fa565b909291926001600160a01b038116156134cf57836150de916141ae565b906001600160a01b038216806151015784637e27328960e01b5f5260045260245ffd5b6001600160a01b038295939495160361346157505050565b906001600160801b03809116911601906001600160801b03821161163457565b91909161519d6020615155610c465f546001600160a01b031690565b61516a610c39855f52600e60205260405f2090565b60405163419d289d60e01b8152600260048201526001600160a01b03909116602482015292839190829081906044820190565b03915afa908115610bae575f91615343575b5080341061532d57506152126151e3836151de60026151d6865f52600e60205260405f2090565b015460801c90565b615119565b60026151f7845f52600e60205260405f2090565b01906001600160801b0382549181199060801b169116179055565b6152296002613cc0835f52600e60205260405f2090565b6001600160801b0361526261418561524b60208501516001600160801b031690565b936107f960406140d683516001600160801b031690565b911610156152fc575b7f40b88e5c41c5a97ffb7b6ef88a0a2d505aa0c634cf8a0275cb236ea7dd87ed4d6001600160a01b036152ab600161441d855f52600e60205260405f2090565b6152e06001600160801b0386166152d3836001600160a01b03165f52600760205260405f2090565b818154039055878361468c565b6040516001600160801b039590951685528116941692602090a4565b61531360016145ae835f52600e60205260405f2090565b615328611716825f52600e60205260405f2090565b61526b565b634fc1eeff60e01b5f523460045260245260445ffd5b61535c915060203d6020116110d2576110c3818361240b565b5f6151af565b615374905f52600560205260405f2090565b80546001600160a01b0319169055565b815f5260036020526001600160a01b0360405f205416926001600160a01b03811661545f575b506001600160a01b0383168061542f575b6153e16001600160a01b0383169283615408575b6106ed855f52600360205260405f2090565b7fddf252ad1be2c89b69c2b068fc378daa952ba7f163c4a11628f55a4df523b3ef5f80a490565b615423816001600160a01b03165f52600460205260405f2090565b600181540190556153cf565b61543883615362565b615453846001600160a01b03165f52600460205260405f2090565b80545f190190556153bb565b61546a8382866154b0565b6153aa5790506001600160a01b0383166154915750637e27328960e01b5f5260045260245ffd5b6001600160a01b039063177e802f60e01b5f521660045260245260445ffd5b916001600160a01b0382169081151593846154cd575b5050505090565b6001600160a01b0316808314945091929091841561551a575b505082156154fa575b50505f8080806154c6565b9091505f5260056020526001600160a01b0360405f205416145f806154ef565b60ff92945090615545915f52600660205260405f20906001600160a01b03165f5260205260405f2090565b5416915f806154e6565b905f602091828151910182855af1156134f7575f513d61559a57506001600160a01b0381163b155b61557e5750565b6001600160a01b0390635274afe760e01b5f521660045260245ffd5b60011415615577565b90600381101561087257815460ff60b01b191660b09190911b60ff60b01b16179055565b600261012061243b936156006155e482516001600160a01b031690565b85546001600160a01b0319166001600160a01b03909116178555565b615637615615602083015164ffffffffff1690565b855464ffffffffff60a01b191660a09190911b64ffffffffff60a01b16178555565b61566e61564c604083015164ffffffffff1690565b855464ffffffffff60c81b191660c89190911b64ffffffffff60c81b16178555565b61569861567e6060830151151590565b855460ff60f01b191690151560f01b60ff60f01b16178555565b6156e06156a86080830151151590565b85546001600160f81b031690151560f81b7fff0000000000000000000000000000000000000000000000000000000000000016178555565b6157836001850161571a6156fe60a08501516001600160a01b031690565b82546001600160a01b0319166001600160a01b03909116178255565b61574461572a60c0850151151590565b825460ff60a01b191690151560a01b60ff60a01b16178255565b61576e61575460e0850151151590565b825460ff60a81b191690151560a81b60ff60a81b16178255565b6101008301519061577e82612d19565b6155a3565b015191018151602083015160801b6fffffffffffffffffffffffffffffffff199081166001600160801b03928316178355604090930151600190920180549093169116179055565b846001936158c56158d0968561589a61243b9d61588b8e6158756001600160801b039f9a9b9e9b61586c6158ca9c613c2661581d6020615810845164ffffffffff1690565b93015164ffffffffff1690565b9161583861582961245d565b6001600160801b03909c168c52565b5f60208c01525f60408c015261585e61584f61243d565b6001600160a01b03909d168d52565b64ffffffffff1660208c0152565b15156060880152565b5f60808701526001600160a01b031660a0860152565b5f60c0850152151560e0840152565b6158a85f6101008401613b85565b6101208201526158c0845f52600e60205260405f2090565b6155c7565b6159a3565b01600955565b16906158ed816001600160a01b03165f52600760205260405f2090565b828154019055309033906159de565b846001936158c56158d0968561594161243b9d61588b8e6158756001600160801b039f9a9b9e9b61586c6158ca9c613c2661581d6020615810845164ffffffffff1690565b6158a8886101008401613b85565b846001936158c56158d0968561599461243b9d61588b8e6158756001600160801b039f9a9b9e9b61586c6158ca9c613c2661581d6020615810845164ffffffffff1690565b6158a860026101008401613b85565b6001600160a01b038116156134cf576001600160a01b03916159c4916141ae565b166159cb57565b6339e3563760e11b5f525f60045260245ffd5b9091926001600160a01b0361243b9481604051956323b872dd60e01b60208801521660248601521660448401526064830152606482526146c360848361240b56fef8e1a15aba9398e019f0b49df1a4fde98ee17ae345cb5f6b5e2c27f5033e8ce7a2646970667358221220ab36e9671a0f83054ef54e738e4be2f0875bb56a9005dea3a0642b3f0c52c8e864736f6c634300081d0033",
    "linkReferences": {
      "src/libraries/Helpers.sol": {
        "Helpers": [
          {
            "start": 7365,
            "length": 20
          },
          {
            "start": 11928,
            "length": 20
          },
          {
            "start": 19728,
            "length": 20
          },
          {
            "start": 20638,
            "length": 20
          },
          {
            "start": 21436,
            "length": 20
          }
        ]
      },
      "src/libraries/LockupMath.sol": {
        "LockupMath": [
          {
            "start": 17285,
            "length": 20
          }
        ]
      }
    }
  },
  "methodIdentifiers": {
    "aggregateAmount(address)": "ec01da3b",
    "allowToHook(address)": "406887cb",
    "approve(address,uint256)": "095ea7b3",
    "balanceOf(address)": "70a08231",
    "batch(bytes[])": "1e897afb",
    "burn(uint256)": "42966c68",
    "calculateMinFeeWei(uint256)": "cca138e5",
    "cancel(uint256)": "40e58ee5",
    "cancelMultiple(uint256[])": "8659c270",
    "comptroller()": "5fe3b567",
    "createWithDurationsLD((address,address,uint128,address,bool,bool,string),(uint128,uint64,uint40)[])": "c9ad007c",
    "createWithDurationsLL((address,address,uint128,address,bool,bool,string),(uint128,uint128),(uint40,uint40))": "b8856d89",
    "createWithDurationsLT((address,address,uint128,address,bool,bool,string),(uint128,uint40)[])": "7ee44729",
    "createWithTimestampsLD((address,address,uint128,address,bool,bool,(uint40,uint40),string),(uint128,uint64,uint40)[])": "7aab211a",
    "createWithTimestampsLL((address,address,uint128,address,bool,bool,(uint40,uint40),string),(uint128,uint128),uint40)": "74d213e5",
    "createWithTimestampsLT((address,address,uint128,address,bool,bool,(uint40,uint40),string),(uint128,uint40)[])": "9d93ddd3",
    "getApproved(uint256)": "081812fc",
    "getCliffTime(uint256)": "780a82c8",
    "getDepositedAmount(uint256)": "a80fc071",
    "getEndTime(uint256)": "9067b677",
    "getLockupModel(uint256)": "e6c417eb",
    "getRecipient(uint256)": "6d0cee75",
    "getRefundedAmount(uint256)": "d4dbd20b",
    "getSegments(uint256)": "b637b865",
    "getSender(uint256)": "b971302a",
    "getStartTime(uint256)": "bc2be1be",
    "getTranches(uint256)": "7f5799f9",
    "getUnderlyingToken(uint256)": "a4775772",
    "getUnlockAmounts(uint256)": "df2a848c",
    "getWithdrawnAmount(uint256)": "d511609f",
    "isAllowedToHook(address)": "303acc85",
    "isApprovedForAll(address,address)": "e985e9c5",
    "isCancelable(uint256)": "4857501f",
    "isCold(uint256)": "8f69b993",
    "isDepleted(uint256)": "425d30dd",
    "isStream(uint256)": "b8a3be66",
    "isTransferable(uint256)": "b2564569",
    "isWarm(uint256)": "1c1cdd4c",
    "name()": "06fdde03",
    "nativeToken()": "e1758bd8",
    "nextStreamId()": "1e99d569",
    "nftDescriptor()": "44267570",
    "ownerOf(uint256)": "6352211e",
    "recover(address,address)": "648bf774",
    "refundableAmountOf(uint256)": "1400ecec",
    "renounce(uint256)": "7de6b1db",
    "safeTransferFrom(address,address,uint256)": "42842e0e",
    "safeTransferFrom(address,address,uint256,bytes)": "b88d4fde",
    "setApprovalForAll(address,bool)": "a22cb465",
    "setComptroller(address)": "8bad38dd",
    "setNFTDescriptor(address)": "7cad6cd1",
    "setNativeToken(address)": "6da1e102",
    "statusOf(uint256)": "ad35efd4",
    "streamedAmountOf(uint256)": "4869e12d",
    "supportsInterface(bytes4)": "01ffc9a7",
    "symbol()": "95d89b41",
    "tokenURI(uint256)": "c87b56dd",
    "transferFeesToComptroller()": "78f82ce7",
    "transferFrom(address,address,uint256)": "23b872dd",
    "wasCanceled(uint256)": "f590c176",
    "withdraw(uint256,address,uint128)": "fdd46d60",
    "withdrawMax(uint256,address)": "ea5ead19",
    "withdrawMaxAndTransfer(uint256,address)": "c156a11d",
    "withdrawMultiple(uint256[],uint128[])": "4cc55e11",
    "withdrawableAmountOf(uint256)": "d975dfed"
  },
  "id": 99
}