{
  "abi": [
    {
      "type": "function",
      "name": "createWithDurationsLD",
      "inputs": [
        {
          "name": "lockup",
          "type": "address",
          "internalType": "contract ISablierLockup"
        },
        {
          "name": "token",
          "type": "address",
          "internalType": "contract IERC20"
        },
        {
          "name": "batch",
          "type": "tuple[]",
          "internalType": "struct BatchLockup.CreateWithDurationsLD[]",
          "components": [
            {
              "name": "sender",
              "type": "address",
              "internalType": "address"
            },
            {
              "name": "recipient",
              "type": "address",
              "internalType": "address"
            },
            {
              "name": "depositAmount",
              "type": "uint128",
              "internalType": "uint128"
            },
            {
              "name": "cancelable",
              "type": "bool",
              "internalType": "bool"
            },
            {
              "name": "transferable",
              "type": "bool",
              "internalType": "bool"
            },
            {
              "name": "segmentsWithDuration",
              "type": "tuple[]",
              "internalType": "struct LockupDynamic.SegmentWithDuration[]",
              "components": [
                {
                  "name": "amount",
                  "type": "uint128",
                  "internalType": "uint128"
                },
                {
                  "name": "exponent",
                  "type": "uint64",
                  "internalType": "UD2x18"
                },
                {
                  "name": "duration",
                  "type": "uint40",
                  "internalType": "uint40"
                }
              ]
            },
            {
              "name": "shape",
              "type": "string",
              "internalType": "string"
            }
          ]
        }
      ],
      "outputs": [
        {
          "name": "streamIds",
          "type": "uint256[]",
          "internalType": "uint256[]"
        }
      ],
      "stateMutability": "nonpayable"
    },
    {
      "type": "function",
      "name": "createWithDurationsLL",
      "inputs": [
        {
          "name": "lockup",
          "type": "address",
          "internalType": "contract ISablierLockup"
        },
        {
          "name": "token",
          "type": "address",
          "internalType": "contract IERC20"
        },
        {
          "name": "batch",
          "type": "tuple[]",
          "internalType": "struct BatchLockup.CreateWithDurationsLL[]",
          "components": [
            {
              "name": "sender",
              "type": "address",
              "internalType": "address"
            },
            {
              "name": "recipient",
              "type": "address",
              "internalType": "address"
            },
            {
              "name": "depositAmount",
              "type": "uint128",
              "internalType": "uint128"
            },
            {
              "name": "cancelable",
              "type": "bool",
              "internalType": "bool"
            },
            {
              "name": "transferable",
              "type": "bool",
              "internalType": "bool"
            },
            {
              "name": "durations",
              "type": "tuple",
              "internalType": "struct LockupLinear.Durations",
              "components": [
                {
                  "name": "cliff",
                  "type": "uint40",
                  "internalType": "uint40"
                },
                {
                  "name": "total",
                  "type": "uint40",
                  "internalType": "uint40"
                }
              ]
            },
            {
              "name": "unlockAmounts",
              "type": "tuple",
              "internalType": "struct LockupLinear.UnlockAmounts",
              "components": [
                {
                  "name": "start",
                  "type": "uint128",
                  "internalType": "uint128"
                },
                {
                  "name": "cliff",
                  "type": "uint128",
                  "internalType": "uint128"
                }
              ]
            },
            {
              "name": "shape",
              "type": "string",
              "internalType": "string"
            }
          ]
        }
      ],
      "outputs": [
        {
          "name": "streamIds",
          "type": "uint256[]",
          "internalType": "uint256[]"
        }
      ],
      "stateMutability": "nonpayable"
    },
    {
      "type": "function",
      "name": "createWithDurationsLT",
      "inputs": [
        {
          "name": "lockup",
          "type": "address",
          "internalType": "contract ISablierLockup"
        },
        {
          "name": "token",
          "type": "address",
          "internalType": "contract IERC20"
        },
        {
          "name": "batch",
          "type": "tuple[]",
          "internalType": "struct BatchLockup.CreateWithDurationsLT[]",
          "components": [
            {
              "name": "sender",
              "type": "address",
              "internalType": "address"
            },
            {
              "name": "recipient",
              "type": "address",
              "internalType": "address"
            },
            {
              "name": "depositAmount",
              "type": "uint128",
              "internalType": "uint128"
            },
            {
              "name": "cancelable",
              "type": "bool",
              "internalType": "bool"
            },
            {
              "name": "transferable",
              "type": "bool",
              "internalType": "bool"
            },
            {
              "name": "tranchesWithDuration",
              "type": "tuple[]",
              "internalType": "struct LockupTranched.TrancheWithDuration[]",
              "components": [
                {
                  "name": "amount",
                  "type": "uint128",
                  "internalType": "uint128"
                },
                {
                  "name": "duration",
                  "type": "uint40",
                  "internalType": "uint40"
                }
              ]
            },
            {
              "name": "shape",
              "type": "string",
              "internalType": "string"
            }
          ]
        }
      ],
      "outputs": [
        {
          "name": "streamIds",
          "type": "uint256[]",
          "internalType": "uint256[]"
        }
      ],
      "stateMutability": "nonpayable"
    },
    {
      "type": "function",
      "name": "createWithTimestampsLD",
      "inputs": [
        {
          "name": "lockup",
          "type": "address",
          "internalType": "contract ISablierLockup"
        },
        {
          "name": "token",
          "type": "address",
          "internalType": "contract IERC20"
        },
        {
          "name": "batch",
          "type": "tuple[]",
          "internalType": "struct BatchLockup.CreateWithTimestampsLD[]",
          "components": [
            {
              "name": "sender",
              "type": "address",
              "internalType": "address"
            },
            {
              "name": "recipient",
              "type": "address",
              "internalType": "address"
            },
            {
              "name": "depositAmount",
              "type": "uint128",
              "internalType": "uint128"
            },
            {
              "name": "cancelable",
              "type": "bool",
              "internalType": "bool"
            },
            {
              "name": "transferable",
              "type": "bool",
              "internalType": "bool"
            },
            {
              "name": "startTime",
              "type": "uint40",
              "internalType": "uint40"
            },
            {
              "name": "segments",
              "type": "tuple[]",
              "internalType": "struct LockupDynamic.Segment[]",
              "components": [
                {
                  "name": "amount",
                  "type": "uint128",
                  "internalType": "uint128"
                },
                {
                  "name": "exponent",
                  "type": "uint64",
                  "internalType": "UD2x18"
                },
                {
                  "name": "timestamp",
                  "type": "uint40",
                  "internalType": "uint40"
                }
              ]
            },
            {
              "name": "shape",
              "type": "string",
              "internalType": "string"
            }
          ]
        }
      ],
      "outputs": [
        {
          "name": "streamIds",
          "type": "uint256[]",
          "internalType": "uint256[]"
        }
      ],
      "stateMutability": "nonpayable"
    },
    {
      "type": "function",
      "name": "createWithTimestampsLL",
      "inputs": [
        {
          "name": "lockup",
          "type": "address",
          "internalType": "contract ISablierLockup"
        },
        {
          "name": "token",
          "type": "address",
          "internalType": "contract IERC20"
        },
        {
          "name": "batch",
          "type": "tuple[]",
          "internalType": "struct BatchLockup.CreateWithTimestampsLL[]",
          "components": [
            {
              "name": "sender",
              "type": "address",
              "internalType": "address"
            },
            {
              "name": "recipient",
              "type": "address",
              "internalType": "address"
            },
            {
              "name": "depositAmount",
              "type": "uint128",
              "internalType": "uint128"
            },
            {
              "name": "cancelable",
              "type": "bool",
              "internalType": "bool"
            },
            {
              "name": "transferable",
              "type": "bool",
              "internalType": "bool"
            },
            {
              "name": "timestamps",
              "type": "tuple",
              "internalType": "struct Lockup.Timestamps",
              "components": [
                {
                  "name": "start",
                  "type": "uint40",
                  "internalType": "uint40"
                },
                {
                  "name": "end",
                  "type": "uint40",
                  "internalType": "uint40"
                }
              ]
            },
            {
              "name": "cliffTime",
              "type": "uint40",
              "internalType": "uint40"
            },
            {
              "name": "unlockAmounts",
              "type": "tuple",
              "internalType": "struct LockupLinear.UnlockAmounts",
              "components": [
                {
                  "name": "start",
                  "type": "uint128",
                  "internalType": "uint128"
                },
                {
                  "name": "cliff",
                  "type": "uint128",
                  "internalType": "uint128"
                }
              ]
            },
            {
              "name": "shape",
              "type": "string",
              "internalType": "string"
            }
          ]
        }
      ],
      "outputs": [
        {
          "name": "streamIds",
          "type": "uint256[]",
          "internalType": "uint256[]"
        }
      ],
      "stateMutability": "nonpayable"
    },
    {
      "type": "function",
      "name": "createWithTimestampsLT",
      "inputs": [
        {
          "name": "lockup",
          "type": "address",
          "internalType": "contract ISablierLockup"
        },
        {
          "name": "token",
          "type": "address",
          "internalType": "contract IERC20"
        },
        {
          "name": "batch",
          "type": "tuple[]",
          "internalType": "struct BatchLockup.CreateWithTimestampsLT[]",
          "components": [
            {
              "name": "sender",
              "type": "address",
              "internalType": "address"
            },
            {
              "name": "recipient",
              "type": "address",
              "internalType": "address"
            },
            {
              "name": "depositAmount",
              "type": "uint128",
              "internalType": "uint128"
            },
            {
              "name": "cancelable",
              "type": "bool",
              "internalType": "bool"
            },
            {
              "name": "transferable",
              "type": "bool",
              "internalType": "bool"
            },
            {
              "name": "startTime",
              "type": "uint40",
              "internalType": "uint40"
            },
            {
              "name": "tranches",
              "type": "tuple[]",
              "internalType": "struct LockupTranched.Tranche[]",
              "components": [
                {
                  "name": "amount",
                  "type": "uint128",
                  "internalType": "uint128"
                },
                {
                  "name": "timestamp",
                  "type": "uint40",
                  "internalType": "uint40"
                }
              ]
            },
            {
              "name": "shape",
              "type": "string",
              "internalType": "string"
            }
          ]
        }
      ],
      "outputs": [
        {
          "name": "streamIds",
          "type": "uint256[]",
          "internalType": "uint256[]"
        }
      ],
      "stateMutability": "nonpayable"
    },
    {
      "type": "event",
      "name": "CreateLockupBatch",
      "inputs": [
        {
          "name": "funder",
          "type": "address",
          "indexed": true,
          "internalType": "address"
        },
        {
          "name": "lockup",
          "type": "address",
          "indexed": true,
          "internalType": "contract ISablierLockup"
        },
        {
          "name": "streamIds",
          "type": "uint256[]",
          "indexed": false,
          "internalType": "uint256[]"
        }
      ],
      "anonymous": false
    },
    {
      "type": "error",
      "name": "SablierBatchLockup_BatchSizeZero",
      "inputs": []
    },
    {
      "type": "error",
      "name": "SafeERC20FailedOperation",
      "inputs": [
        {
          "name": "token",
          "type": "address",
          "internalType": "address"
        }
      ]
    }
  ],
  "bytecode": {
    "object": "0x60808060405234601557611599908161001a8239f35b5f80fdfe60806040526004361015610011575f80fd5b5f3560e01c80630577cd1314610c4b578063380332b8146109e5578063400dacc11461075657806370bc61e81461048c578063ad4ef0c0146102e25763c9b5b2c71461005b575f80fd5b3461026f5761006936610e21565b92909183156102d357925f915f5b8281106102a857506001600160a01b03610094911692858461137d565b61009d81610faf565b926001600160a01b035f9516945b8281106100e8576100e485856040515f5160206115445f395f51905f523391806100d58682610e9d565b0390a360405191829182610e9d565b0390f35b806100ff6100fa6101f993868661135b565b611029565b6101b9610118602061011285898961135b565b01611029565b6001600160a01b0386886001600160801b03610140604061013a8a858761135b565b01610ef8565b61017e6101748a61015d606061015783898b61135b565b0161103d565b9561016e608061015784848c61135b565b9761135b565b60c081019061104a565b959096816040519a61018f8c610f59565b168a521660208901521660408701528c606087015215156080860152151560a0850152369161107d565b60c08201526101d66101cc83878761135b565b60a08101906112e1565b602060405195869463326b401f60e21b8652604060048701526044860190611225565b8481036003190160248601528281520191905f905b80821061028657505050908060209203815f895af1801561027b575f90610245575b6001925061023e82886111ee565b52016100ab565b506020823d8211610273575b8161025e60209383610f75565b8101031261026f5760019151610230565b5f80fd5b3d9150610251565b6040513d5f823e3d90fd5b919350916060808261029a60019488611317565b01940192018593929161020e565b926001906001600160801b036102c7604061013a88888b9c999c61135b565b16019301949194610077565b630d86189d60e21b5f5260045ffd5b3461026f576102f036610e21565b92909183156102d357925f915f5b82811061046157506001600160a01b0361031b911692858461137d565b61032481610faf565b926001600160a01b035f9516945b82811061035c576100e485856040515f5160206115445f395f51905f523391806100d58682610e9d565b8061036e6100fa6103c193868661135b565b610381610118602061011285898961135b565b60c082015261039e61039483878761135b565b60a0810190610fe1565b6020604051958694637ee4472960e01b8652604060048701526044860190611225565b8481036003190160248601528281520191905f905b80821061043f57505050908060209203815f895af1801561027b575f9061040d575b6001925061040682886111ee565b5201610332565b506020823d8211610437575b8161042660209383610f75565b8101031261026f57600191516103f8565b3d9150610419565b9193509160408082610453600194886111c1565b0194019201859392916103d6565b926001906001600160801b03610480604061013a88888b9c999c61135b565b160193019491946102fe565b3461026f5761049a36610e21565b92909183156102d357925f915f5b82811061072b57506001600160a01b036104c5911692858461137d565b6104ce81610faf565b926001600160a01b035f9516945b828110610506576100e485856040515f5160206115445f395f51905f523391806100d58682610e9d565b61051e610514828585610ed6565b60c08101906112e1565b61052f610514848787969596610ed6565b5f190191821015905061071757604061067793606061055093020101611017565b6106416105616100fa848888610ed6565b916001600160a01b036105e961057d6020610112888c8c610ed6565b92886001600160801b038b6106016105f78b61059f604061013a83878a610ed6565b936105b0606061015784848b610ed6565b9664ffffffffff6105c76080610157868686610ed6565b99816105df60a06105d9888888610ed6565b01611017565b6040519d8e610f0c565b168c521660208b0152610ed6565b60e081019061104a565b969097816040519b6106128d610f3c565b168b521660208a01521660408801528d606088015215156080870152151560a086015260c0850152369161107d565b60e0820152610654610514838787610ed6565b6020604051958694633d55908d60e11b8652604060048701526044860190611102565b8481036003190160248601528281520191905f905b8082106106f557505050908060209203815f895af1801561027b575f906106c3575b600192506106bc82886111ee565b52016104dc565b506020823d82116106ed575b816106dc60209383610f75565b8101031261026f57600191516106ae565b3d91506106cf565b919350916060808261070960019488611317565b01940192018593929161068c565b634e487b7160e01b5f52603260045260245ffd5b926001906001600160801b0361074a604061013a88888b9c999c610ed6565b160193019491946104a8565b3461026f5761076436610e21565b9182939193156102d3575f915f5b8481106109c057506001600160a01b0361078f911692828461137d565b61079883610faf565b926001600160a01b035f9216915b8181106107d0576100e485856040515f5160206115445f395f51905f523391806100d58682610e9d565b806107dd839283896112be565b6107e690611029565b6107f182848a6112be565b6020016107fd90611029565b9061080983858b6112be565b60400161081590610ef8565b9061082184868c6112be565b60600161082d9061103d565b61083885878d6112be565b6080016108449061103d565b908b86610852818a846112be565b9861085c926112be565b610140810161086a9161104a565b9490956040519461087a86610f3c565b6001600160a01b031685526001600160a01b031660208501526001600160801b0316604084015288606084015215156080830152151560a0820152609f198536030160401361026f5761090760209361095593610960976108f760c0604051926108e384610f0c565b6108ef60a082016111af565b8452016111af565b8782015260c0850152369161107d565b60e08201528964ffffffffff61093260e06105d9888b61010061092b83838a6112be565b01966112be565b6040516374d213e560e01b81526080600482015297889586956084870190611102565b93602486019061129c565b16606483015203815f895af1801561027b575f9061098e575b6001925061098782886111ee565b52016107a6565b506020823d82116109b8575b816109a760209383610f75565b8101031261026f5760019151610979565b3d915061099a565b926001906001600160801b036109dc604061013a888a8c6112be565b16019301610772565b3461026f576109f336610e21565b92909183156102d357915f915f5b858110610c2157506001600160a01b03610a1e911692848461137d565b610a2784610faf565b926001600160a01b03165f5b858110610a5d576100e485856040515f5160206115445f395f51905f523391806100d58682610e9d565b610a68818785611202565b610a7190611029565b90610a7d818886611202565b602001610a8990611029565b610a94828987611202565b604001610aa090610ef8565b610aab838a88611202565b606001610ab79061103d565b610ac2848b89611202565b608001610ace9061103d565b90610ada858c8a611202565b6101208101610ae89161104a565b93909460405197610af889610f59565b6001600160a01b031688526001600160a01b031660208801526001600160801b0316604087015286606087015215156080860152151560a08501523690610b3e9261107d565b60c083015284610b4f828987611202565b60e00192610b5e838a88611202565b60405163b8856d8960e01b815260a06004820152948592839290610b869060a4850190611225565b9160248401610b949161129c565b610ba060a082016111af565b64ffffffffff16606484015260c001610bb8906111af565b64ffffffffff16608483015203815a6020945f91f1801561027b575f90610bef575b60019250610be882886111ee565b5201610a33565b506020823d8211610c19575b81610c0860209383610f75565b8101031261026f5760019151610bda565b3d9150610bfb565b926001906001600160801b03610c3f604061013a888b899b99611202565b16019301939193610a01565b3461026f57610c5936610e21565b92909183156102d357925f915f5b828110610df657506001600160a01b03610c84911692858461137d565b610c8d81610faf565b926001600160a01b035f9516945b828110610cc5576100e485856040515f5160206115445f395f51905f523391806100d58682610e9d565b610cdd610cd3828585610ed6565b60c0810190610fe1565b610cee610cd3848787969596610ed6565b5f1901918210159050610717576020610d5693610d0f9260061b0101611017565b610d206105616100fa848888610ed6565b60e0820152610d33610cd3838787610ed6565b6020604051958694639d93ddd360e01b8652604060048701526044860190611102565b8481036003190160248601528281520191905f905b808210610dd457505050908060209203815f895af1801561027b575f90610da2575b60019250610d9b82886111ee565b5201610c9b565b506020823d8211610dcc575b81610dbb60209383610f75565b8101031261026f5760019151610d8d565b3d9150610dae565b9193509160408082610de8600194886111c1565b019401920185939291610d6b565b926001906001600160801b03610e15604061013a88888b9c999c610ed6565b16019301949194610c67565b90606060031983011261026f576004356001600160a01b038116810361026f57916024356001600160a01b038116810361026f579160443567ffffffffffffffff811161026f5760040182601f8201121561026f5780359267ffffffffffffffff841161026f576020808301928560051b01011161026f579190565b60206040818301928281528451809452019201905f5b818110610ec05750505090565b8251845260209384019390920191600101610eb3565b91908110156107175760051b8101359060fe198136030182121561026f570190565b356001600160801b038116810361026f5790565b6040810190811067ffffffffffffffff821117610f2857604052565b634e487b7160e01b5f52604160045260245ffd5b610100810190811067ffffffffffffffff821117610f2857604052565b60e0810190811067ffffffffffffffff821117610f2857604052565b90601f8019910116810190811067ffffffffffffffff821117610f2857604052565b67ffffffffffffffff8111610f285760051b60200190565b90610fb982610f97565b610fc66040519182610f75565b8281528092610fd7601f1991610f97565b0190602036910137565b903590601e198136030182121561026f570180359067ffffffffffffffff821161026f57602001918160061b3603831361026f57565b3564ffffffffff8116810361026f5790565b356001600160a01b038116810361026f5790565b35801515810361026f5790565b903590601e198136030182121561026f570180359067ffffffffffffffff821161026f5760200191813603831361026f57565b92919267ffffffffffffffff8211610f2857604051916110a7601f8201601f191660200184610f75565b82948184528183011161026f578281602093845f960137010152565b91908251928382525f5b8481106110ed575050825f602080949584010152601f8019910116010190565b806020809284010151828286010152016110cd565b9061012060e0611198936001600160a01b0381511684526001600160a01b0360208201511660208501526001600160801b0360408201511660408501526001600160a01b03606082015116606085015260808101511515608085015260a0810151151560a085015264ffffffffff602060c08301518281511660c0880152015116828501520151918161010082015201906110c3565b90565b35906001600160801b038216820361026f57565b359064ffffffffff8216820361026f57565b64ffffffffff6111e8602080936001600160801b036111df8261119b565b168652016111af565b16910152565b80518210156107175760209160051b010190565b91908110156107175760051b8101359061013e198136030182121561026f570190565b9060e060c0611198936001600160a01b0381511684526001600160a01b0360208201511660208501526001600160801b0360408201511660408501526001600160a01b03606082015116606085015260808101511515608085015260a0810151151560a08501520151918160c082015201906110c3565b6001600160801b036111e860208093836112b58261119b565b1686520161119b565b91908110156107175760051b8101359061015e198136030182121561026f570190565b903590601e198136030182121561026f570180359067ffffffffffffffff821161026f5760200191606082023603831361026f57565b6001600160801b036113288261119b565b168252602081013567ffffffffffffffff811680910361026f576111e86040809364ffffffffff936020870152016111af565b91908110156107175760051b8101359060de198136030182121561026f570190565b91906113b96040516323b872dd60e01b6020820152336024820152306044820152836064820152606481526113b3608482610f75565b826114ef565b6001600160a01b0381166001600160a01b0360405194636eb1769f60e11b86523060048701521693846024820152602081604481855afa801561027b5784915f916114ba575b501061140c575b50505050565b60205f604051948286019063095ea7b360e01b825287602488015260448701526044865261143b606487610f75565b85519082865af1903d5f51908361149b575b5050501561145c575b80611406565b61148e611493936040519063095ea7b360e01b602083015260248201525f6044820152604481526113b3606482610f75565b6114ef565b5f8080611456565b919250906114b057503b15155b5f808061144d565b60019150146114a8565b9150506020813d6020116114e7575b816114d660209383610f75565b8101031261026f578390515f6113ff565b3d91506114c9565b905f602091828151910182855af11561027b575f513d61153a57506001600160a01b0381163b155b61151e5750565b6001600160a01b0390635274afe760e01b5f521660045260245ffd5b6001141561151756fe730ba4cef0d228f6a65abf3647fb35ee36a79b6189151a2f55696352cf060f77a2646970667358221220539ab6458cb812f85e99d559c8592dfe9a278fe5f0842fede91d0155495709e764736f6c634300081d0033",
    "linkReferences": {}
  },
  "methodIdentifiers": {
    "createWithDurationsLD(address,address,(address,address,uint128,bool,bool,(uint128,uint64,uint40)[],string)[])": "c9b5b2c7",
    "createWithDurationsLL(address,address,(address,address,uint128,bool,bool,(uint40,uint40),(uint128,uint128),string)[])": "380332b8",
    "createWithDurationsLT(address,address,(address,address,uint128,bool,bool,(uint128,uint40)[],string)[])": "ad4ef0c0",
    "createWithTimestampsLD(address,address,(address,address,uint128,bool,bool,uint40,(uint128,uint64,uint40)[],string)[])": "70bc61e8",
    "createWithTimestampsLL(address,address,(address,address,uint128,bool,bool,(uint40,uint40),uint40,(uint128,uint128),string)[])": "400dacc1",
    "createWithTimestampsLT(address,address,(address,address,uint128,bool,bool,uint40,(uint128,uint40)[],string)[])": "0577cd13"
  },
  "id": 98
}