{
  "abi": [
    {
      "type": "function",
      "name": "calculateSegmentTimestamps",
      "inputs": [
        {
          "name": "segmentsWithDuration",
          "type": "tuple[]",
          "internalType": "struct LockupDynamic.SegmentWithDuration[]",
          "components": [
            {
              "name": "amount",
              "type": "uint128",
              "internalType": "uint128"
            },
            {
              "name": "exponent",
              "type": "uint64",
              "internalType": "UD2x18"
            },
            {
              "name": "duration",
              "type": "uint40",
              "internalType": "uint40"
            }
          ]
        },
        {
          "name": "startTime",
          "type": "uint40",
          "internalType": "uint40"
        }
      ],
      "outputs": [
        {
          "name": "segmentsWithTimestamps",
          "type": "tuple[]",
          "internalType": "struct LockupDynamic.Segment[]",
          "components": [
            {
              "name": "amount",
              "type": "uint128",
              "internalType": "uint128"
            },
            {
              "name": "exponent",
              "type": "uint64",
              "internalType": "UD2x18"
            },
            {
              "name": "timestamp",
              "type": "uint40",
              "internalType": "uint40"
            }
          ]
        }
      ],
      "stateMutability": "pure"
    },
    {
      "type": "function",
      "name": "calculateTrancheTimestamps",
      "inputs": [
        {
          "name": "tranchesWithDuration",
          "type": "tuple[]",
          "internalType": "struct LockupTranched.TrancheWithDuration[]",
          "components": [
            {
              "name": "amount",
              "type": "uint128",
              "internalType": "uint128"
            },
            {
              "name": "duration",
              "type": "uint40",
              "internalType": "uint40"
            }
          ]
        },
        {
          "name": "startTime",
          "type": "uint40",
          "internalType": "uint40"
        }
      ],
      "outputs": [
        {
          "name": "tranchesWithTimestamps",
          "type": "tuple[]",
          "internalType": "struct LockupTranched.Tranche[]",
          "components": [
            {
              "name": "amount",
              "type": "uint128",
              "internalType": "uint128"
            },
            {
              "name": "timestamp",
              "type": "uint40",
              "internalType": "uint40"
            }
          ]
        }
      ],
      "stateMutability": "pure"
    },
    {
      "type": "function",
      "name": "checkCreateLD",
      "inputs": [
        {
          "name": "sender",
          "type": "address",
          "internalType": "address"
        },
        {
          "name": "timestamps",
          "type": "tuple",
          "internalType": "struct Lockup.Timestamps",
          "components": [
            {
              "name": "start",
              "type": "uint40",
              "internalType": "uint40"
            },
            {
              "name": "end",
              "type": "uint40",
              "internalType": "uint40"
            }
          ]
        },
        {
          "name": "depositAmount",
          "type": "uint128",
          "internalType": "uint128"
        },
        {
          "name": "segments",
          "type": "tuple[]",
          "internalType": "struct LockupDynamic.Segment[]",
          "components": [
            {
              "name": "amount",
              "type": "uint128",
              "internalType": "uint128"
            },
            {
              "name": "exponent",
              "type": "uint64",
              "internalType": "UD2x18"
            },
            {
              "name": "timestamp",
              "type": "uint40",
              "internalType": "uint40"
            }
          ]
        },
        {
          "name": "token",
          "type": "address",
          "internalType": "address"
        },
        {
          "name": "nativeToken",
          "type": "address",
          "internalType": "address"
        },
        {
          "name": "shape",
          "type": "string",
          "internalType": "string"
        }
      ],
      "outputs": [],
      "stateMutability": "pure"
    },
    {
      "type": "function",
      "name": "checkCreateLL",
      "inputs": [
        {
          "name": "sender",
          "type": "address",
          "internalType": "address"
        },
        {
          "name": "timestamps",
          "type": "tuple",
          "internalType": "struct Lockup.Timestamps",
          "components": [
            {
              "name": "start",
              "type": "uint40",
              "internalType": "uint40"
            },
            {
              "name": "end",
              "type": "uint40",
              "internalType": "uint40"
            }
          ]
        },
        {
          "name": "cliffTime",
          "type": "uint40",
          "internalType": "uint40"
        },
        {
          "name": "depositAmount",
          "type": "uint128",
          "internalType": "uint128"
        },
        {
          "name": "unlockAmounts",
          "type": "tuple",
          "internalType": "struct LockupLinear.UnlockAmounts",
          "components": [
            {
              "name": "start",
              "type": "uint128",
              "internalType": "uint128"
            },
            {
              "name": "cliff",
              "type": "uint128",
              "internalType": "uint128"
            }
          ]
        },
        {
          "name": "token",
          "type": "address",
          "internalType": "address"
        },
        {
          "name": "nativeToken",
          "type": "address",
          "internalType": "address"
        },
        {
          "name": "shape",
          "type": "string",
          "internalType": "string"
        }
      ],
      "outputs": [],
      "stateMutability": "pure"
    },
    {
      "type": "function",
      "name": "checkCreateLT",
      "inputs": [
        {
          "name": "sender",
          "type": "address",
          "internalType": "address"
        },
        {
          "name": "timestamps",
          "type": "tuple",
          "internalType": "struct Lockup.Timestamps",
          "components": [
            {
              "name": "start",
              "type": "uint40",
              "internalType": "uint40"
            },
            {
              "name": "end",
              "type": "uint40",
              "internalType": "uint40"
            }
          ]
        },
        {
          "name": "depositAmount",
          "type": "uint128",
          "internalType": "uint128"
        },
        {
          "name": "tranches",
          "type": "tuple[]",
          "internalType": "struct LockupTranched.Tranche[]",
          "components": [
            {
              "name": "amount",
              "type": "uint128",
              "internalType": "uint128"
            },
            {
              "name": "timestamp",
              "type": "uint40",
              "internalType": "uint40"
            }
          ]
        },
        {
          "name": "token",
          "type": "address",
          "internalType": "address"
        },
        {
          "name": "nativeToken",
          "type": "address",
          "internalType": "address"
        },
        {
          "name": "shape",
          "type": "string",
          "internalType": "string"
        }
      ],
      "outputs": [],
      "stateMutability": "pure"
    },
    {
      "type": "error",
      "name": "SablierHelpers_CliffTimeNotLessThanEndTime",
      "inputs": [
        {
          "name": "cliffTime",
          "type": "uint40",
          "internalType": "uint40"
        },
        {
          "name": "endTime",
          "type": "uint40",
          "internalType": "uint40"
        }
      ]
    },
    {
      "type": "error",
      "name": "SablierHelpers_CliffTimeZeroUnlockAmountNotZero",
      "inputs": [
        {
          "name": "cliffUnlockAmount",
          "type": "uint128",
          "internalType": "uint128"
        }
      ]
    },
    {
      "type": "error",
      "name": "SablierHelpers_CreateNativeToken",
      "inputs": [
        {
          "name": "nativeToken",
          "type": "address",
          "internalType": "address"
        }
      ]
    },
    {
      "type": "error",
      "name": "SablierHelpers_DepositAmountNotEqualToSegmentAmountsSum",
      "inputs": [
        {
          "name": "depositAmount",
          "type": "uint128",
          "internalType": "uint128"
        },
        {
          "name": "segmentAmountsSum",
          "type": "uint128",
          "internalType": "uint128"
        }
      ]
    },
    {
      "type": "error",
      "name": "SablierHelpers_DepositAmountNotEqualToTrancheAmountsSum",
      "inputs": [
        {
          "name": "depositAmount",
          "type": "uint128",
          "internalType": "uint128"
        },
        {
          "name": "trancheAmountsSum",
          "type": "uint128",
          "internalType": "uint128"
        }
      ]
    },
    {
      "type": "error",
      "name": "SablierHelpers_DepositAmountZero",
      "inputs": []
    },
    {
      "type": "error",
      "name": "SablierHelpers_EndTimeNotEqualToLastSegmentTimestamp",
      "inputs": [
        {
          "name": "endTime",
          "type": "uint40",
          "internalType": "uint40"
        },
        {
          "name": "lastSegmentTimestamp",
          "type": "uint40",
          "internalType": "uint40"
        }
      ]
    },
    {
      "type": "error",
      "name": "SablierHelpers_EndTimeNotEqualToLastTrancheTimestamp",
      "inputs": [
        {
          "name": "endTime",
          "type": "uint40",
          "internalType": "uint40"
        },
        {
          "name": "lastTrancheTimestamp",
          "type": "uint40",
          "internalType": "uint40"
        }
      ]
    },
    {
      "type": "error",
      "name": "SablierHelpers_SegmentCountZero",
      "inputs": []
    },
    {
      "type": "error",
      "name": "SablierHelpers_SegmentTimestampsNotOrdered",
      "inputs": [
        {
          "name": "index",
          "type": "uint256",
          "internalType": "uint256"
        },
        {
          "name": "previousTimestamp",
          "type": "uint40",
          "internalType": "uint40"
        },
        {
          "name": "currentTimestamp",
          "type": "uint40",
          "internalType": "uint40"
        }
      ]
    },
    {
      "type": "error",
      "name": "SablierHelpers_SenderZeroAddress",
      "inputs": []
    },
    {
      "type": "error",
      "name": "SablierHelpers_ShapeExceeds32Bytes",
      "inputs": [
        {
          "name": "shapeLength",
          "type": "uint256",
          "internalType": "uint256"
        }
      ]
    },
    {
      "type": "error",
      "name": "SablierHelpers_StartTimeNotLessThanCliffTime",
      "inputs": [
        {
          "name": "startTime",
          "type": "uint40",
          "internalType": "uint40"
        },
        {
          "name": "cliffTime",
          "type": "uint40",
          "internalType": "uint40"
        }
      ]
    },
    {
      "type": "error",
      "name": "SablierHelpers_StartTimeNotLessThanEndTime",
      "inputs": [
        {
          "name": "startTime",
          "type": "uint40",
          "internalType": "uint40"
        },
        {
          "name": "endTime",
          "type": "uint40",
          "internalType": "uint40"
        }
      ]
    },
    {
      "type": "error",
      "name": "SablierHelpers_StartTimeNotLessThanFirstSegmentTimestamp",
      "inputs": [
        {
          "name": "startTime",
          "type": "uint40",
          "internalType": "uint40"
        },
        {
          "name": "firstSegmentTimestamp",
          "type": "uint40",
          "internalType": "uint40"
        }
      ]
    },
    {
      "type": "error",
      "name": "SablierHelpers_StartTimeNotLessThanFirstTrancheTimestamp",
      "inputs": [
        {
          "name": "startTime",
          "type": "uint40",
          "internalType": "uint40"
        },
        {
          "name": "firstTrancheTimestamp",
          "type": "uint40",
          "internalType": "uint40"
        }
      ]
    },
    {
      "type": "error",
      "name": "SablierHelpers_StartTimeZero",
      "inputs": []
    },
    {
      "type": "error",
      "name": "SablierHelpers_TrancheCountZero",
      "inputs": []
    },
    {
      "type": "error",
      "name": "SablierHelpers_TrancheTimestampsNotOrdered",
      "inputs": [
        {
          "name": "index",
          "type": "uint256",
          "internalType": "uint256"
        },
        {
          "name": "previousTimestamp",
          "type": "uint40",
          "internalType": "uint40"
        },
        {
          "name": "currentTimestamp",
          "type": "uint40",
          "internalType": "uint40"
        }
      ]
    },
    {
      "type": "error",
      "name": "SablierHelpers_UnlockAmountsSumTooHigh",
      "inputs": [
        {
          "name": "depositAmount",
          "type": "uint128",
          "internalType": "uint128"
        },
        {
          "name": "startUnlockAmount",
          "type": "uint128",
          "internalType": "uint128"
        },
        {
          "name": "cliffUnlockAmount",
          "type": "uint128",
          "internalType": "uint128"
        }
      ]
    }
  ],
  "bytecode": {
    "object": "0x60808060405234601957610e0c908161001e823930815050f35b5f80fdfe60806040526004361015610011575f80fd5b5f3560e01c80630e1c82bc1461083a578063144120791461067d578063179cab3e14610455578063f0b95e091461023a5763f89d584114610050575f80fd5b61014036600319011261023657610065610a34565b61006e36610b16565b6064359164ffffffffff831680930361023657608435916001600160801b038316938484036102365760403660a3190112610236576100ab610a76565b9260a4356001600160801b038116810361023657845260c435946001600160801b0386168603610236576020850195865260e4356001600160a01b03811681036102365761010435906001600160a01b038216820361023657610124359367ffffffffffffffff851161023657610129610139953690600401610c08565b9364ffffffffff88511691610d1e565b801561020d5764ffffffffff825116818110156101f8575064ffffffffff60208301511690818110156101e35750505b64ffffffffff6020818351169201511690818110156101ce575050826001600160801b0361019e818451168286511690610db6565b16116101a657005b6001600160801b038091511691511691630b4ba30d60e01b5f5260045260245260445260645ffd5b630517114360e01b5f5260045260245260445ffd5b633717194760e21b5f5260045260245260445ffd5b63da94737160e01b5f5260045260245260445ffd5b506001600160801b03835116806102245750610169565b63150ee1a560e21b5f5260045260245ffd5b5f80fd5b60403660031901126102365760043567ffffffffffffffff8111610236573660238201121561023657610277903690602481600401359101610c5a565b61027f610af0565b9080519061029461028f83610b80565b610aca565b82815292601f196102a484610b80565b015f5b8181106104305750506001600160801b036102c183610ce9565b5151169064ffffffffff67ffffffffffffffff60206102df86610ce9565b51015116918160406102f087610ce9565b510151160116906102ff610aaa565b9283526020830152604082015261031584610ce9565b5261031f83610ce9565b5060015b8281106103a057836040518091602082016020835281518091526020604084019201905f5b818110610356575050500390f35b919350916020606060019264ffffffffff604088516001600160801b03815116845267ffffffffffffffff8682015116868501520151166040820152019401910191849392610348565b806001600160801b036103b560019385610d0a565b51511667ffffffffffffffff60206103cd8487610d0a565b5101511664ffffffffff8060406103e75f1987018b610d0a565b510151168160406103f8878a610d0a565b51015116011690610407610aaa565b9283526020830152604082015261041e8287610d0a565b526104298186610d0a565b5001610323565b60209061043b610aaa565b5f81525f838201525f6040820152828289010152016102a7565b6101003660031901126102365761046a610a34565b61047336610b16565b61047b610b56565b9160843567ffffffffffffffff81116102365736602382011215610236576104ad903690602481600401359101610c5a565b906104b6610a4a565b906104bf610a60565b60e4359267ffffffffffffffff8411610236576104e36104f4943690600401610c08565b928764ffffffffff88511691610d1e565b805191821561066e5764ffffffffff81511664ffffffffff604061051785610ce9565b51015116111561063f5760200180515f198401919064ffffffffff1684831161062b5764ffffffffff604061054c8587610d0a565b51015116036105fb57505f9283928392505b81831061059157856001600160801b03808716911681810361057c57005b634b52f2ff60e01b5f5260045260245260445ffd5b909192936105b4906001600160801b036105ab8685610d0a565b51511690610db6565b9364ffffffffff8060406105c88786610d0a565b510151169116808211156105e2575092600101919061055e565b84637d6d1f3360e01b5f5260045260245260445260645ffd5b61061164ffffffffff9283604093511694610d0a565b510151169063474537ff60e11b5f5260045260245260445ffd5b634e487b7160e01b5f52601160045260245ffd5b604061065464ffffffffff8093511693610ce9565b5101511690630f500ccb60e41b5f5260045260245260445ffd5b630c8936c160e31b5f5260045ffd5b60403660031901126102365760043567ffffffffffffffff81116102365736602382011215610236576106ba903690602481600401359101610b98565b6106c2610af0565b908051906106d261028f83610b80565b82815292601f196106e284610b80565b015f5b81811061081b57505064ffffffffff6001600160801b0361070584610ce9565b5151169181602061071586610ce9565b510151160116610723610a76565b918252602082015261073484610ce9565b5261073e83610ce9565b5060015b8281106107aa57836040518091602082016020835281518091526020604084019201905f5b818110610775575050500390f35b825180516001600160801b0316855260209081015164ffffffffff168186015286955060409094019390920191600101610767565b806001600160801b036107bf60019385610d0a565b51511664ffffffffff8060206107d85f1986018a610d0a565b510151168160206107e98689610d0a565b5101511601166107f7610a76565b91825260208201526108098287610d0a565b526108148186610d0a565b5001610742565b602090610826610a76565b5f81525f83820152828289010152016106e5565b6101003660031901126102365761084f610a34565b61085836610b16565b610860610b56565b9160843567ffffffffffffffff8111610236573660238201121561023657610892903690602481600401359101610b98565b9061089b610a4a565b906108a4610a60565b60e4359267ffffffffffffffff8411610236576104e36108c8943690600401610c08565b8051918215610a255764ffffffffff81511664ffffffffff60206108eb85610ce9565b5101511611156109f65760200180515f198401919064ffffffffff1684831161062b5764ffffffffff60206109208587610d0a565b51015116036109c657505f9283928392505b81831061096557856001600160801b03808716911681810361095057005b6359b0e8dd60e01b5f5260045260245260445ffd5b9091929361097f906001600160801b036105ab8685610d0a565b9364ffffffffff8060206109938786610d0a565b510151169116808211156109ad5750926001019190610932565b846373a9cd5f60e01b5f5260045260245260445260645ffd5b6109dc64ffffffffff9283602093511694610d0a565b5101511690632828b1df60e11b5f5260045260245260445ffd5b6020610a0b64ffffffffff8093511693610ce9565b5101511690632719805f60e21b5f5260045260245260445ffd5b63ff743f9160e01b5f5260045ffd5b600435906001600160a01b038216820361023657565b60a435906001600160a01b038216820361023657565b60c435906001600160a01b038216820361023657565b604051906040820182811067ffffffffffffffff821117610a9657604052565b634e487b7160e01b5f52604160045260245ffd5b604051906060820182811067ffffffffffffffff821117610a9657604052565b6040519190601f01601f1916820167ffffffffffffffff811183821017610a9657604052565b6024359064ffffffffff8216820361023657565b359064ffffffffff8216820361023657565b604090602319011261023657610b2a610a76565b9060243564ffffffffff8116810361023657825260443564ffffffffff81168103610236576020830152565b606435906001600160801b038216820361023657565b35906001600160801b038216820361023657565b67ffffffffffffffff8111610a965760051b60200190565b929192610ba761028f83610b80565b93828552602085019260061b82019181831161023657925b828410610bcc5750505050565b604084830312610236576020604091610be3610a76565b610bec87610b6c565b8152610bf9838801610b04565b83820152815201930192610bbf565b81601f820112156102365780359067ffffffffffffffff8211610a9657610c38601f8301601f1916602001610aca565b928284526020838301011161023657815f926020809301838601378301015290565b929192610c6961028f83610b80565b93828552606060208601930282019181831161023657925b828410610c8e5750505050565b60608483031261023657610ca0610aaa565b90610caa85610b6c565b825260208501359067ffffffffffffffff821682036102365782602092836060950152610cd960408801610b04565b6040820152815201930192610c81565b805115610cf65760200190565b634e487b7160e01b5f52603260045260245ffd5b8051821015610cf65760209160051b010190565b6001600160a01b031615610da7576001600160801b031615610d985764ffffffffff1615610d8a576001600160a01b0391821691168114610d7857505160208111610d665750565b631f68a77160e21b5f5260045260245ffd5b635d66c1bb60e11b5f5260045260245ffd5b62fcdef560e71b5f5260045ffd5b6359d1976560e11b5f5260045ffd5b63feb974b360e01b5f5260045ffd5b906001600160801b03809116911601906001600160801b03821161062b5756fea2646970667358221220f03a5488d408a1cdc9b7d44cd370a129774920cf2a8fd9fdcfb3a93e6595d55a64736f6c634300081d0033",
    "linkReferences": {}
  },
  "methodIdentifiers": {
    "calculateSegmentTimestamps(LockupDynamic.SegmentWithDuration[],uint40)": "f0b95e09",
    "calculateTrancheTimestamps(LockupTranched.TrancheWithDuration[],uint40)": "14412079",
    "checkCreateLD(address,Lockup.Timestamps,uint128,LockupDynamic.Segment[],address,address,string)": "179cab3e",
    "checkCreateLL(address,Lockup.Timestamps,uint40,uint128,LockupLinear.UnlockAmounts,address,address,string)": "f89d5841",
    "checkCreateLT(address,Lockup.Timestamps,uint128,LockupTranched.Tranche[],address,address,string)": "0e1c82bc"
  },
  "id": 113
}