{
  "abi": [
    {
      "type": "function",
      "name": "calculateStreamedAmountLD",
      "inputs": [
        {
          "name": "depositedAmount",
          "type": "uint128",
          "internalType": "uint128"
        },
        {
          "name": "endTime",
          "type": "uint40",
          "internalType": "uint40"
        },
        {
          "name": "segments",
          "type": "tuple[]",
          "internalType": "struct LockupDynamic.Segment[]",
          "components": [
            {
              "name": "amount",
              "type": "uint128",
              "internalType": "uint128"
            },
            {
              "name": "exponent",
              "type": "uint64",
              "internalType": "UD2x18"
            },
            {
              "name": "timestamp",
              "type": "uint40",
              "internalType": "uint40"
            }
          ]
        },
        {
          "name": "startTime",
          "type": "uint40",
          "internalType": "uint40"
        },
        {
          "name": "withdrawnAmount",
          "type": "uint128",
          "internalType": "uint128"
        }
      ],
      "outputs": [
        {
          "name": "",
          "type": "uint128",
          "internalType": "uint128"
        }
      ],
      "stateMutability": "view"
    },
    {
      "type": "function",
      "name": "calculateStreamedAmountLL",
      "inputs": [
        {
          "name": "cliffTime",
          "type": "uint40",
          "internalType": "uint40"
        },
        {
          "name": "depositedAmount",
          "type": "uint128",
          "internalType": "uint128"
        },
        {
          "name": "endTime",
          "type": "uint40",
          "internalType": "uint40"
        },
        {
          "name": "startTime",
          "type": "uint40",
          "internalType": "uint40"
        },
        {
          "name": "unlockAmounts",
          "type": "tuple",
          "internalType": "struct LockupLinear.UnlockAmounts",
          "components": [
            {
              "name": "start",
              "type": "uint128",
              "internalType": "uint128"
            },
            {
              "name": "cliff",
              "type": "uint128",
              "internalType": "uint128"
            }
          ]
        },
        {
          "name": "withdrawnAmount",
          "type": "uint128",
          "internalType": "uint128"
        }
      ],
      "outputs": [
        {
          "name": "",
          "type": "uint128",
          "internalType": "uint128"
        }
      ],
      "stateMutability": "view"
    },
    {
      "type": "function",
      "name": "calculateStreamedAmountLT",
      "inputs": [
        {
          "name": "depositedAmount",
          "type": "uint128",
          "internalType": "uint128"
        },
        {
          "name": "endTime",
          "type": "uint40",
          "internalType": "uint40"
        },
        {
          "name": "startTime",
          "type": "uint40",
          "internalType": "uint40"
        },
        {
          "name": "tranches",
          "type": "tuple[]",
          "internalType": "struct LockupTranched.Tranche[]",
          "components": [
            {
              "name": "amount",
              "type": "uint128",
              "internalType": "uint128"
            },
            {
              "name": "timestamp",
              "type": "uint40",
              "internalType": "uint40"
            }
          ]
        }
      ],
      "outputs": [
        {
          "name": "",
          "type": "uint128",
          "internalType": "uint128"
        }
      ],
      "stateMutability": "view"
    },
    {
      "type": "error",
      "name": "PRBMath_MulDiv18_Overflow",
      "inputs": [
        {
          "name": "x",
          "type": "uint256",
          "internalType": "uint256"
        },
        {
          "name": "y",
          "type": "uint256",
          "internalType": "uint256"
        }
      ]
    },
    {
      "type": "error",
      "name": "PRBMath_MulDiv_Overflow",
      "inputs": [
        {
          "name": "x",
          "type": "uint256",
          "internalType": "uint256"
        },
        {
          "name": "y",
          "type": "uint256",
          "internalType": "uint256"
        },
        {
          "name": "denominator",
          "type": "uint256",
          "internalType": "uint256"
        }
      ]
    },
    {
      "type": "error",
      "name": "PRBMath_SD59x18_Div_InputTooSmall",
      "inputs": []
    },
    {
      "type": "error",
      "name": "PRBMath_SD59x18_Div_Overflow",
      "inputs": [
        {
          "name": "x",
          "type": "int256",
          "internalType": "SD59x18"
        },
        {
          "name": "y",
          "type": "int256",
          "internalType": "SD59x18"
        }
      ]
    },
    {
      "type": "error",
      "name": "PRBMath_SD59x18_Exp2_InputTooBig",
      "inputs": [
        {
          "name": "x",
          "type": "int256",
          "internalType": "SD59x18"
        }
      ]
    },
    {
      "type": "error",
      "name": "PRBMath_SD59x18_IntoUint256_Underflow",
      "inputs": [
        {
          "name": "x",
          "type": "int256",
          "internalType": "SD59x18"
        }
      ]
    },
    {
      "type": "error",
      "name": "PRBMath_SD59x18_Log_InputTooSmall",
      "inputs": [
        {
          "name": "x",
          "type": "int256",
          "internalType": "SD59x18"
        }
      ]
    },
    {
      "type": "error",
      "name": "PRBMath_SD59x18_Mul_InputTooSmall",
      "inputs": []
    },
    {
      "type": "error",
      "name": "PRBMath_SD59x18_Mul_Overflow",
      "inputs": [
        {
          "name": "x",
          "type": "int256",
          "internalType": "SD59x18"
        },
        {
          "name": "y",
          "type": "int256",
          "internalType": "SD59x18"
        }
      ]
    },
    {
      "type": "error",
      "name": "PRBMath_UD60x18_IntoUint128_Overflow",
      "inputs": [
        {
          "name": "x",
          "type": "uint256",
          "internalType": "UD60x18"
        }
      ]
    }
  ],
  "bytecode": {
    "object": "0x6080806040523460195761137b908161001e823930815050f35b5f80fdfe60806040526004361015610011575f80fd5b5f3560e01c806313c015db146101515780633796f97b146100da57637bf8c00c1461003a575f80fd5b60a03660031901126100d65761004e6101fa565b6100566101e6565b906044359067ffffffffffffffff82116100d657366023830112156100d657816004013567ffffffffffffffff81116100d65736602460608302850101116100d6576100a06101d2565b90608435926001600160801b03841684036100d65760209560246100c5960191610479565b6001600160801b0360405191168152f35b5f80fd5b60803660031901126100d6576100ee6101fa565b6100f66101e6565b906100ff6101be565b6064359167ffffffffffffffff83116100d657366023840112156100d65782600401359167ffffffffffffffff83116100d6573660248460061b860101116100d65760209460246100c595019261039e565b60e03660031901126100d65760043564ffffffffff811681036100d657602435906001600160801b03821682036100d65761018a6101be565b6101926101d2565b60403660831901126100d65760c435916001600160801b03831683036100d6576020946100c594610224565b6044359064ffffffffff821682036100d657565b6064359064ffffffffff821682036100d657565b6024359064ffffffffff821682036100d657565b600435906001600160801b03821682036100d657565b356001600160801b03811681036100d65790565b9193929364ffffffffff4216948564ffffffffff82161161035e5764ffffffffff841695808711610341578064ffffffffff84161115610337576084356001600160801b03811681036100d65760a4356001600160801b03811681036100d6576001600160801b03910116946001600160801b038516978887101561032b579364ffffffffff6001600160801b039488946102d4946102dd9998155f1461031b57508183910316920316906107a8565b9203169061087b565b6001600160801b03811161030957906001600160801b038092160116918211610304575090565b905090565b63248b56e760e11b5f5260045260245ffd5b80925083910316920316906107a8565b50505050509250505090565b5050509250505090565b505050505050506084356001600160801b03811681036100d65790565b5050505050505f90565b91908110156103785760061b0190565b634e487b7160e01b5f52603260045260245ffd5b3564ffffffffff811681036100d65790565b9064ffffffffff9394928442169485911611610460578215610378578364ffffffffff6103cd6020880161038c565b16116104605764ffffffffff8491161115610459575091906103ee82610210565b926001925b818410610402575b5050505090565b909192938364ffffffffff610423602061041d898888610368565b0161038c565b1611610453576001600160801b03600191610447610442888787610368565b610210565b011694019291906103f3565b936103fb565b9250505090565b50505050505f90565b9190811015610378576060020190565b9594929593919364ffffffffff4216918264ffffffffff8516116106925764ffffffffff839116111561068a57505f938615610378576104bb6040820161038c565b918064ffffffffff5f945b161061064e576001600160801b036104e2610442858b86610469565b169760206104f1858386610469565b01359467ffffffffffffffff86168096036100d65764ffffffffff93849261051f604061041d898486610469565b96806106315750505080925b031692031690600160ff1b81148015610624575b610615575f81121561060c57610563815f035b5f84121561060557835f03906107a8565b916001600160ff1b0383116105ef5792879261058d92610592955f199118135f146105e85761069d565b610713565b9384136105c557505f83126105b2576001600160801b0380929316011690565b82632463f3d560e01b5f5260045260245ffd5b909192506001600160801b0381166001600160801b038316115f14610304575090565b5f0361069d565b9063d49c26b360e01b5f5260045260245260445ffd5b83906107a8565b61056381610552565b6309fe2b4560e41b5f5260045ffd5b50600160ff1b821461053f565b61064793509161041d916040935f190191610469565b809261052b565b91946001600160801b03600191610669610442898c87610469565b01169501918064ffffffffff610685604061041d878d88610469565b6104c6565b955050505050565b505f96505050505050565b806106b757506106b357670de0b6b3a764000090565b5f90565b90670de0b6b3a7640000821461070557806106da575050670de0b6b3a764000090565b670de0b6b3a76400008114610701576106f99061058d6106fe9361092a565b610a68565b90565b5090565b5050670de0b6b3a764000090565b600160ff1b8114801561079b575b61078c575f81121561078357610745815f035b5f84121561077c57835f039061087b565b916001600160ff1b038311610766575f19911813156107615790565b5f0390565b9063120b5b4360e01b5f5260045260245260445ffd5b839061087b565b61074581610734565b63a6070c2560e01b5f5260045ffd5b50600160ff1b8214610721565b5f19670de0b6b3a7640000820991670de0b6b3a764000082029182808510940393808503941461085a578184101561083957670de0b6b3a7640000829109600182190182168092046002816003021880820260020302808202600203028082026002030280820260020302808202600203028091026002030293600183805f03040190848311900302920304170290565b630c740aef60e31b5f52600452670de0b6b3a764000060245260445260645ffd5b5091508115610867570490565b634e487b7160e01b5f52601260045260245ffd5b9091905f19838209838202918280831092039180830392146108ff57670de0b6b3a76400008210156108e8577faccb18165bd6fe31ae1cf318dc5b51eee0e1ba569b88cd74c1773b91fac106699394670de0b6b3a7640000910990828211900360ee1b910360121c170290565b8490635173648d60e01b5f5260045260245260445ffd5b5050670de0b6b3a764000090049150565b8015610867576ec097ce7bc90715b34b9f10000000000590565b805f811315610a5657670de0b6b3a76400008112610a3657506001905b670de0b6b3a764000081056001600160801b03811160071b90811c67ffffffffffffffff811160061b90811c63ffffffff811160051b90811c61ffff811160041b90811c9060ff821160031b91821c92600f841160021b93841c94600160038711811b96871c119617171717171717670de0b6b3a7640000810291811d90670de0b6b3a76400008214610a2357506706f05b59d3b20000905b5f82136109ed5750500290565b80670de0b6b3a764000091020590671bc16d674ec80000821215610a15575b60011d906109e0565b809192019160011d90610a0c565b9050670de0b6b3a7640000929150020290565b5f1991508015610867576ec097ce7bc90715b34b9f100000000005610947565b63059b101b60e01b5f5260045260245ffd5b5f811215610a9a5768033dd1780914b97114198112610a9557610a8c905f03610a68565b6106fe90610910565b505f90565b680a688906bd8affffff811361133457670de0b6b3a76400009060401b05600160bf1b67ff0000000000000082166111ff575b670de0b6b3a76400009066ff00000000000083166110ef575b65ff00000000008316610fe7575b64ff000000008316610ee7575b63ff0000008316610def575b62ff00008316610cff575b61ff008316610c17575b60ff8316610b37575b029060401c60bf031c90565b60808316610c04575b60408316610bf1575b60208316610bde575b60108316610bcb575b60088316610bb8575b60048316610ba5575b60028316610b92575b6001831615610b2b57680100000000000000010260401c610b2b565b680100000000000000010260401c610b76565b680100000000000000030260401c610b6d565b680100000000000000060260401c610b64565b6801000000000000000b0260401c610b5b565b680100000000000000160260401c610b52565b6801000000000000002c0260401c610b49565b680100000000000000590260401c610b40565b6180008316610cec575b6140008316610cd9575b6120008316610cc6575b6110008316610cb3575b6108008316610ca0575b6104008316610c8d575b6102008316610c7a575b610100831615610b2257680100000000000000b10260401c610b22565b680100000000000001630260401c610c5d565b680100000000000002c60260401c610c53565b6801000000000000058c0260401c610c49565b68010000000000000b170260401c610c3f565b6801000000000000162e0260401c610c35565b68010000000000002c5d0260401c610c2b565b680100000000000058b90260401c610c21565b628000008316610ddc575b624000008316610dc9575b622000008316610db6575b621000008316610da3575b620800008316610d90575b620400008316610d7d575b620200008316610d6a575b62010000831615610b18576801000000000000b1720260401c610b18565b680100000000000162e40260401c610d4c565b6801000000000002c5c80260401c610d41565b68010000000000058b910260401c610d36565b680100000000000b17210260401c610d2b565b68010000000000162e430260401c610d20565b680100000000002c5c860260401c610d15565b6801000000000058b90c0260401c610d0a565b63800000008316610ed4575b63400000008316610ec1575b63200000008316610eae575b63100000008316610e9b575b63080000008316610e88575b63040000008316610e75575b63020000008316610e62575b6301000000831615610b0d5768010000000000b172180260401c610b0d565b6801000000000162e4300260401c610e43565b68010000000002c5c8600260401c610e37565b680100000000058b90c00260401c610e2b565b6801000000000b17217f0260401c610e1f565b680100000000162e42ff0260401c610e13565b6801000000002c5c85fe0260401c610e07565b68010000000058b90bfc0260401c610dfb565b6480000000008316610fd4575b6440000000008316610fc1575b6420000000008316610fae575b6410000000008316610f9b575b6408000000008316610f88575b6404000000008316610f75575b6402000000008316610f62575b640100000000831615610b0157680100000000b17217f80260401c610b01565b68010000000162e42ff10260401c610f42565b680100000002c5c85fe30260401c610f35565b6801000000058b90bfce0260401c610f28565b68010000000b17217fbb0260401c610f1b565b6801000000162e42fff00260401c610f0e565b68010000002c5c8601cc0260401c610f01565b680100000058b90c0b490260401c610ef4565b6580000000000083166110dc575b6540000000000083166110c9575b6520000000000083166110b6575b6510000000000083166110a3575b650800000000008316611090575b65040000000000831661107d575b65020000000000831661106a575b65010000000000831615610af4576801000000b1721835510260401c610af4565b680100000162e430e5a20260401c611049565b6801000002c5c863b73f0260401c61103b565b68010000058b90cf1e6e0260401c61102d565b680100000b1721bcfc9a0260401c61101f565b68010000162e43f4f8310260401c611011565b680100002c5c89d5ec6d0260401c611003565b6801000058b91b5bc9ae0260401c610ff5565b668000000000000083166111ec575b664000000000000083166111d9575b662000000000000083166111c6575b661000000000000083166111b3575b660800000000000083166111a0575b6604000000000000831661118d575b6602000000000000831661117a575b6601000000000000831615610ae65768010000b17255775c040260401c610ae6565b6801000162e525ee05470260401c611158565b68010002c5cc37da94920260401c611149565b680100058ba01fb9f96d0260401c61113a565b6801000b175effdc76ba0260401c61112b565b680100162f3904051fa10260401c61111c565b6801002c605e2e8cec500260401c61110d565b68010058c86da1c09ea20260401c6110fe565b6780000000000000008216611315575b670de0b6b3a7640000906740000000000000008316611302575b67200000000000000083166112ef575b67100000000000000083166112dc575b67080000000000000083166112c9575b67040000000000000083166112b6575b67020000000000000083166112a3575b6701000000000000008316611290575b9050610acd565b680100b1afa5abcbed610260401c611289565b68010163da9fb33356d80260401c611279565b680102c9a3e778060ee70260401c611269565b6801059b0d31585743ae0260401c611259565b68010b5586cf9890f62a0260401c611249565b6801172b83c7d517adce0260401c611239565b6801306fe0a31b7152df0260401c611229565b5077b504f333f9de64848000000000000000000000000000000061120f565b626c1a0560e31b5f5260045260245ffdfea2646970667358221220c960038d07ec1d5eab88f698c632899ce23727b7d969e9190e44ff4ec9bb54c964736f6c634300081d0033",
    "linkReferences": {}
  },
  "methodIdentifiers": {
    "calculateStreamedAmountLD(uint128,uint40,LockupDynamic.Segment[],uint40,uint128)": "7bf8c00c",
    "calculateStreamedAmountLL(uint40,uint128,uint40,uint40,LockupLinear.UnlockAmounts,uint128)": "13c015db",
    "calculateStreamedAmountLT(uint128,uint40,uint40,LockupTranched.Tranche[])": "3796f97b"
  },
  "id": 114
}