{
  "abi": [
    {
      "type": "function",
      "name": "calculateSegmentTimestamps",
      "inputs": [
        {
          "name": "segmentsWithDuration",
          "type": "tuple[]",
          "internalType": "struct LockupDynamic.SegmentWithDuration[]",
          "components": [
            {
              "name": "amount",
              "type": "uint128",
              "internalType": "uint128"
            },
            {
              "name": "exponent",
              "type": "uint64",
              "internalType": "UD2x18"
            },
            {
              "name": "duration",
              "type": "uint40",
              "internalType": "uint40"
            }
          ]
        },
        {
          "name": "startTime",
          "type": "uint40",
          "internalType": "uint40"
        }
      ],
      "outputs": [
        {
          "name": "segmentsWithTimestamps",
          "type": "tuple[]",
          "internalType": "struct LockupDynamic.Segment[]",
          "components": [
            {
              "name": "amount",
              "type": "uint128",
              "internalType": "uint128"
            },
            {
              "name": "exponent",
              "type": "uint64",
              "internalType": "UD2x18"
            },
            {
              "name": "timestamp",
              "type": "uint40",
              "internalType": "uint40"
            }
          ]
        }
      ],
      "stateMutability": "pure"
    },
    {
      "type": "function",
      "name": "calculateTrancheTimestamps",
      "inputs": [
        {
          "name": "tranchesWithDuration",
          "type": "tuple[]",
          "internalType": "struct LockupTranched.TrancheWithDuration[]",
          "components": [
            {
              "name": "amount",
              "type": "uint128",
              "internalType": "uint128"
            },
            {
              "name": "duration",
              "type": "uint40",
              "internalType": "uint40"
            }
          ]
        },
        {
          "name": "startTime",
          "type": "uint40",
          "internalType": "uint40"
        }
      ],
      "outputs": [
        {
          "name": "tranchesWithTimestamps",
          "type": "tuple[]",
          "internalType": "struct LockupTranched.Tranche[]",
          "components": [
            {
              "name": "amount",
              "type": "uint128",
              "internalType": "uint128"
            },
            {
              "name": "timestamp",
              "type": "uint40",
              "internalType": "uint40"
            }
          ]
        }
      ],
      "stateMutability": "pure"
    },
    {
      "type": "function",
      "name": "checkCreateLockupDynamic",
      "inputs": [
        {
          "name": "sender",
          "type": "address",
          "internalType": "address"
        },
        {
          "name": "timestamps",
          "type": "tuple",
          "internalType": "struct Lockup.Timestamps",
          "components": [
            {
              "name": "start",
              "type": "uint40",
              "internalType": "uint40"
            },
            {
              "name": "end",
              "type": "uint40",
              "internalType": "uint40"
            }
          ]
        },
        {
          "name": "totalAmount",
          "type": "uint128",
          "internalType": "uint128"
        },
        {
          "name": "segments",
          "type": "tuple[]",
          "internalType": "struct LockupDynamic.Segment[]",
          "components": [
            {
              "name": "amount",
              "type": "uint128",
              "internalType": "uint128"
            },
            {
              "name": "exponent",
              "type": "uint64",
              "internalType": "UD2x18"
            },
            {
              "name": "timestamp",
              "type": "uint40",
              "internalType": "uint40"
            }
          ]
        },
        {
          "name": "maxCount",
          "type": "uint256",
          "internalType": "uint256"
        },
        {
          "name": "brokerFee",
          "type": "uint256",
          "internalType": "UD60x18"
        },
        {
          "name": "shape",
          "type": "string",
          "internalType": "string"
        },
        {
          "name": "maxBrokerFee",
          "type": "uint256",
          "internalType": "UD60x18"
        }
      ],
      "outputs": [
        {
          "name": "createAmounts",
          "type": "tuple",
          "internalType": "struct Lockup.CreateAmounts",
          "components": [
            {
              "name": "deposit",
              "type": "uint128",
              "internalType": "uint128"
            },
            {
              "name": "brokerFee",
              "type": "uint128",
              "internalType": "uint128"
            }
          ]
        }
      ],
      "stateMutability": "pure"
    },
    {
      "type": "function",
      "name": "checkCreateLockupLinear",
      "inputs": [
        {
          "name": "sender",
          "type": "address",
          "internalType": "address"
        },
        {
          "name": "timestamps",
          "type": "tuple",
          "internalType": "struct Lockup.Timestamps",
          "components": [
            {
              "name": "start",
              "type": "uint40",
              "internalType": "uint40"
            },
            {
              "name": "end",
              "type": "uint40",
              "internalType": "uint40"
            }
          ]
        },
        {
          "name": "cliffTime",
          "type": "uint40",
          "internalType": "uint40"
        },
        {
          "name": "totalAmount",
          "type": "uint128",
          "internalType": "uint128"
        },
        {
          "name": "unlockAmounts",
          "type": "tuple",
          "internalType": "struct LockupLinear.UnlockAmounts",
          "components": [
            {
              "name": "start",
              "type": "uint128",
              "internalType": "uint128"
            },
            {
              "name": "cliff",
              "type": "uint128",
              "internalType": "uint128"
            }
          ]
        },
        {
          "name": "brokerFee",
          "type": "uint256",
          "internalType": "UD60x18"
        },
        {
          "name": "shape",
          "type": "string",
          "internalType": "string"
        },
        {
          "name": "maxBrokerFee",
          "type": "uint256",
          "internalType": "UD60x18"
        }
      ],
      "outputs": [
        {
          "name": "createAmounts",
          "type": "tuple",
          "internalType": "struct Lockup.CreateAmounts",
          "components": [
            {
              "name": "deposit",
              "type": "uint128",
              "internalType": "uint128"
            },
            {
              "name": "brokerFee",
              "type": "uint128",
              "internalType": "uint128"
            }
          ]
        }
      ],
      "stateMutability": "pure"
    },
    {
      "type": "function",
      "name": "checkCreateLockupTranched",
      "inputs": [
        {
          "name": "sender",
          "type": "address",
          "internalType": "address"
        },
        {
          "name": "timestamps",
          "type": "tuple",
          "internalType": "struct Lockup.Timestamps",
          "components": [
            {
              "name": "start",
              "type": "uint40",
              "internalType": "uint40"
            },
            {
              "name": "end",
              "type": "uint40",
              "internalType": "uint40"
            }
          ]
        },
        {
          "name": "totalAmount",
          "type": "uint128",
          "internalType": "uint128"
        },
        {
          "name": "tranches",
          "type": "tuple[]",
          "internalType": "struct LockupTranched.Tranche[]",
          "components": [
            {
              "name": "amount",
              "type": "uint128",
              "internalType": "uint128"
            },
            {
              "name": "timestamp",
              "type": "uint40",
              "internalType": "uint40"
            }
          ]
        },
        {
          "name": "maxCount",
          "type": "uint256",
          "internalType": "uint256"
        },
        {
          "name": "brokerFee",
          "type": "uint256",
          "internalType": "UD60x18"
        },
        {
          "name": "shape",
          "type": "string",
          "internalType": "string"
        },
        {
          "name": "maxBrokerFee",
          "type": "uint256",
          "internalType": "UD60x18"
        }
      ],
      "outputs": [
        {
          "name": "createAmounts",
          "type": "tuple",
          "internalType": "struct Lockup.CreateAmounts",
          "components": [
            {
              "name": "deposit",
              "type": "uint128",
              "internalType": "uint128"
            },
            {
              "name": "brokerFee",
              "type": "uint128",
              "internalType": "uint128"
            }
          ]
        }
      ],
      "stateMutability": "pure"
    },
    {
      "type": "error",
      "name": "PRBMath_MulDiv18_Overflow",
      "inputs": [
        {
          "name": "x",
          "type": "uint256",
          "internalType": "uint256"
        },
        {
          "name": "y",
          "type": "uint256",
          "internalType": "uint256"
        }
      ]
    },
    {
      "type": "error",
      "name": "PRBMath_UD60x18_IntoUint128_Overflow",
      "inputs": [
        {
          "name": "x",
          "type": "uint256",
          "internalType": "UD60x18"
        }
      ]
    },
    {
      "type": "error",
      "name": "SablierHelpers_BrokerFeeTooHigh",
      "inputs": [
        {
          "name": "brokerFee",
          "type": "uint256",
          "internalType": "UD60x18"
        },
        {
          "name": "maxBrokerFee",
          "type": "uint256",
          "internalType": "UD60x18"
        }
      ]
    },
    {
      "type": "error",
      "name": "SablierHelpers_CliffTimeNotLessThanEndTime",
      "inputs": [
        {
          "name": "cliffTime",
          "type": "uint40",
          "internalType": "uint40"
        },
        {
          "name": "endTime",
          "type": "uint40",
          "internalType": "uint40"
        }
      ]
    },
    {
      "type": "error",
      "name": "SablierHelpers_CliffTimeZeroUnlockAmountNotZero",
      "inputs": [
        {
          "name": "cliffUnlockAmount",
          "type": "uint128",
          "internalType": "uint128"
        }
      ]
    },
    {
      "type": "error",
      "name": "SablierHelpers_DepositAmountNotEqualToSegmentAmountsSum",
      "inputs": [
        {
          "name": "depositAmount",
          "type": "uint128",
          "internalType": "uint128"
        },
        {
          "name": "segmentAmountsSum",
          "type": "uint128",
          "internalType": "uint128"
        }
      ]
    },
    {
      "type": "error",
      "name": "SablierHelpers_DepositAmountNotEqualToTrancheAmountsSum",
      "inputs": [
        {
          "name": "depositAmount",
          "type": "uint128",
          "internalType": "uint128"
        },
        {
          "name": "trancheAmountsSum",
          "type": "uint128",
          "internalType": "uint128"
        }
      ]
    },
    {
      "type": "error",
      "name": "SablierHelpers_DepositAmountZero",
      "inputs": []
    },
    {
      "type": "error",
      "name": "SablierHelpers_EndTimeNotEqualToLastSegmentTimestamp",
      "inputs": [
        {
          "name": "endTime",
          "type": "uint40",
          "internalType": "uint40"
        },
        {
          "name": "lastSegmentTimestamp",
          "type": "uint40",
          "internalType": "uint40"
        }
      ]
    },
    {
      "type": "error",
      "name": "SablierHelpers_EndTimeNotEqualToLastTrancheTimestamp",
      "inputs": [
        {
          "name": "endTime",
          "type": "uint40",
          "internalType": "uint40"
        },
        {
          "name": "lastTrancheTimestamp",
          "type": "uint40",
          "internalType": "uint40"
        }
      ]
    },
    {
      "type": "error",
      "name": "SablierHelpers_SegmentCountTooHigh",
      "inputs": [
        {
          "name": "count",
          "type": "uint256",
          "internalType": "uint256"
        }
      ]
    },
    {
      "type": "error",
      "name": "SablierHelpers_SegmentCountZero",
      "inputs": []
    },
    {
      "type": "error",
      "name": "SablierHelpers_SegmentTimestampsNotOrdered",
      "inputs": [
        {
          "name": "index",
          "type": "uint256",
          "internalType": "uint256"
        },
        {
          "name": "previousTimestamp",
          "type": "uint40",
          "internalType": "uint40"
        },
        {
          "name": "currentTimestamp",
          "type": "uint40",
          "internalType": "uint40"
        }
      ]
    },
    {
      "type": "error",
      "name": "SablierHelpers_SenderZeroAddress",
      "inputs": []
    },
    {
      "type": "error",
      "name": "SablierHelpers_ShapeExceeds32Bytes",
      "inputs": [
        {
          "name": "shapeLength",
          "type": "uint256",
          "internalType": "uint256"
        }
      ]
    },
    {
      "type": "error",
      "name": "SablierHelpers_StartTimeNotLessThanCliffTime",
      "inputs": [
        {
          "name": "startTime",
          "type": "uint40",
          "internalType": "uint40"
        },
        {
          "name": "cliffTime",
          "type": "uint40",
          "internalType": "uint40"
        }
      ]
    },
    {
      "type": "error",
      "name": "SablierHelpers_StartTimeNotLessThanEndTime",
      "inputs": [
        {
          "name": "startTime",
          "type": "uint40",
          "internalType": "uint40"
        },
        {
          "name": "endTime",
          "type": "uint40",
          "internalType": "uint40"
        }
      ]
    },
    {
      "type": "error",
      "name": "SablierHelpers_StartTimeNotLessThanFirstSegmentTimestamp",
      "inputs": [
        {
          "name": "startTime",
          "type": "uint40",
          "internalType": "uint40"
        },
        {
          "name": "firstSegmentTimestamp",
          "type": "uint40",
          "internalType": "uint40"
        }
      ]
    },
    {
      "type": "error",
      "name": "SablierHelpers_StartTimeNotLessThanFirstTrancheTimestamp",
      "inputs": [
        {
          "name": "startTime",
          "type": "uint40",
          "internalType": "uint40"
        },
        {
          "name": "firstTrancheTimestamp",
          "type": "uint40",
          "internalType": "uint40"
        }
      ]
    },
    {
      "type": "error",
      "name": "SablierHelpers_StartTimeZero",
      "inputs": []
    },
    {
      "type": "error",
      "name": "SablierHelpers_TrancheCountTooHigh",
      "inputs": [
        {
          "name": "count",
          "type": "uint256",
          "internalType": "uint256"
        }
      ]
    },
    {
      "type": "error",
      "name": "SablierHelpers_TrancheCountZero",
      "inputs": []
    },
    {
      "type": "error",
      "name": "SablierHelpers_TrancheTimestampsNotOrdered",
      "inputs": [
        {
          "name": "index",
          "type": "uint256",
          "internalType": "uint256"
        },
        {
          "name": "previousTimestamp",
          "type": "uint40",
          "internalType": "uint40"
        },
        {
          "name": "currentTimestamp",
          "type": "uint40",
          "internalType": "uint40"
        }
      ]
    },
    {
      "type": "error",
      "name": "SablierHelpers_UnlockAmountsSumTooHigh",
      "inputs": [
        {
          "name": "depositAmount",
          "type": "uint128",
          "internalType": "uint128"
        },
        {
          "name": "startUnlockAmount",
          "type": "uint128",
          "internalType": "uint128"
        },
        {
          "name": "cliffUnlockAmount",
          "type": "uint128",
          "internalType": "uint128"
        }
      ]
    }
  ],
  "bytecode": {
    "object": "0x6080806040523460195761100a908161001e823930815050f35b5f80fdfe60806040526004361015610011575f80fd5b5f3560e01c806314412079146109485780636df2695514610713578063cec85a90146104fb578063e68812b41461026f5763f0b95e0914610050575f80fd5b604036600319011261026b5760043567ffffffffffffffff811161026b573660238201121561026b5761008d903690602481600401359101610d0c565b610095610bc1565b908051906100aa6100a583610b7f565b610b59565b82815292601f196100ba84610b7f565b015f5b8181106102465750506001600160801b036100d783610d9b565b5151169064ffffffffff67ffffffffffffffff60206100f586610d9b565b510151169181604061010687610d9b565b51015116011690610115610b39565b9283526020830152604082015261012b84610d9b565b5261013583610d9b565b5060015b8281106101b657836040518091602082016020835281518091526020604084019201905f5b81811061016c575050500390f35b919350916020606060019264ffffffffff604088516001600160801b03815116845267ffffffffffffffff868201511686850152015116604082015201940191019184939261015e565b806001600160801b036101cb60019385610dbc565b51511667ffffffffffffffff60206101e38487610dbc565b5101511664ffffffffff8060406101fd5f1987018b610dbc565b5101511681604061020e878a610dbc565b5101511601169061021d610b39565b928352602083015260408201526102348287610dbc565b5261023f8186610dbc565b5001610139565b602090610251610b39565b5f81525f838201525f6040820152828289010152016100bd565b5f80fd5b61012036600319011261026b57610284610c57565b61028d36610c7a565b90610296610b97565b9160843567ffffffffffffffff811161026b573660238201121561026b576102c8903690602481600401359101610d0c565b9260e4359067ffffffffffffffff821161026b5761030f6102f061032a933690600401610cba565b915f60206102fc610b05565b8281520152610104359060c43590610dd0565b936001600160801b0385511664ffffffffff85511691610ec9565b6001600160801b038251169280519182156104ec5760a43583116104d95764ffffffffff81511664ffffffffff604061036285610d9b565b5101511611156104aa5760200180515f198401919064ffffffffff168483116104965764ffffffffff60406103978587610dbc565b51015116036104665750505f905f925f915b8183106103fc576001600160801b03841686888281036103e5576040805183516001600160801b03908116825260208086015190911690820152f35b9050634b52f2ff60e01b5f5260045260245260445ffd5b90919261041e906001600160801b036104158685610dbc565b51511690610f48565b9364ffffffffff8060406104328786610dbc565b5101511691168082111561044d5750939260010191906103a9565b84637d6d1f3360e01b5f5260045260245260445260645ffd5b61047c64ffffffffff9283604093511694610dbc565b510151169063474537ff60e11b5f5260045260245260445ffd5b634e487b7160e01b5f52601160045260245ffd5b60406104bf64ffffffffff8093511693610d9b565b5101511690630f500ccb60e41b5f5260045260245260445ffd5b82631b87f59b60e11b5f5260045260245ffd5b630c8936c160e31b5f5260045ffd5b61014036600319011261026b57610510610c57565b61051936610c7a565b906064359164ffffffffff831680930361026b57608435906001600160801b038216820361026b5760403660a319011261026b57610555610b05565b9060a4356001600160801b038116810361026b57825260c435926001600160801b038416840361026b5760208301938452610104359067ffffffffffffffff821161026b576105cd6105ae6105e8933690600401610cba565b915f60206105ba610b05565b8281520152610124359060e43590610dd0565b956001600160801b0387511664ffffffffff85511691610ec9565b83516001600160801b03169480156106ea5764ffffffffff825116818110156106d5575064ffffffffff60208301511690818110156106c05750505b64ffffffffff6020818351169201511690818110156106ab575050836001600160801b03610659818451168286511690610f48565b1611610681576040805184516001600160801b03908116825260208087015190911690820152f35b906001600160801b03808593511691511691630b4ba30d60e01b5f5260045260245260445260645ffd5b630517114360e01b5f5260045260245260445ffd5b633717194760e21b5f5260045260245260445ffd5b63da94737160e01b5f5260045260245260445ffd5b506001600160801b03835116806107015750610624565b63150ee1a560e21b5f5260045260245ffd5b61012036600319011261026b57610728610c57565b61073136610c7a565b9061073a610b97565b9160843567ffffffffffffffff811161026b573660238201121561026b5761076c903690602481600401359101610be7565b9260e4359067ffffffffffffffff821161026b5761030f6102f0610794933690600401610cba565b6001600160801b038251169280519182156109395760a43583116109265764ffffffffff81511664ffffffffff60206107cc85610d9b565b5101511611156108f75760200180515f198401919064ffffffffff168483116104965764ffffffffff60206108018587610dbc565b51015116036108c75750505f905f925f915b818310610866576001600160801b038416868882810361084f576040805183516001600160801b03908116825260208086015190911690820152f35b90506359b0e8dd60e01b5f5260045260245260445ffd5b90919261087f906001600160801b036104158685610dbc565b9364ffffffffff8060206108938786610dbc565b510151169116808211156108ae575093926001019190610813565b846373a9cd5f60e01b5f5260045260245260445260645ffd5b6108dd64ffffffffff9283602093511694610dbc565b5101511690632828b1df60e11b5f5260045260245260445ffd5b602061090c64ffffffffff8093511693610d9b565b5101511690632719805f60e21b5f5260045260245260445ffd5b82630c6a5a6160e31b5f5260045260245ffd5b63ff743f9160e01b5f5260045ffd5b604036600319011261026b5760043567ffffffffffffffff811161026b573660238201121561026b57610985903690602481600401359101610be7565b61098d610bc1565b9080519061099d6100a583610b7f565b82815292601f196109ad84610b7f565b015f5b818110610ae657505064ffffffffff6001600160801b036109d084610d9b565b515116918160206109e086610d9b565b5101511601166109ee610b05565b91825260208201526109ff84610d9b565b52610a0983610d9b565b5060015b828110610a7557836040518091602082016020835281518091526020604084019201905f5b818110610a40575050500390f35b825180516001600160801b0316855260209081015164ffffffffff168186015286955060409094019390920191600101610a32565b806001600160801b03610a8a60019385610dbc565b51511664ffffffffff806020610aa35f1986018a610dbc565b51015116816020610ab48689610dbc565b510151160116610ac2610b05565b9182526020820152610ad48287610dbc565b52610adf8186610dbc565b5001610a0d565b602090610af1610b05565b5f81525f83820152828289010152016109b0565b604051906040820182811067ffffffffffffffff821117610b2557604052565b634e487b7160e01b5f52604160045260245ffd5b604051906060820182811067ffffffffffffffff821117610b2557604052565b6040519190601f01601f1916820167ffffffffffffffff811183821017610b2557604052565b67ffffffffffffffff8111610b255760051b60200190565b606435906001600160801b038216820361026b57565b35906001600160801b038216820361026b57565b6024359064ffffffffff8216820361026b57565b359064ffffffffff8216820361026b57565b929192610bf66100a583610b7f565b93828552602085019260061b82019181831161026b57925b828410610c1b5750505050565b60408483031261026b576020604091610c32610b05565b610c3b87610bad565b8152610c48838801610bd5565b83820152815201930192610c0e565b6004359073ffffffffffffffffffffffffffffffffffffffff8216820361026b57565b604090602319011261026b57610c8e610b05565b9060243564ffffffffff8116810361026b57825260443564ffffffffff8116810361026b576020830152565b81601f8201121561026b5780359067ffffffffffffffff8211610b2557610cea601f8301601f1916602001610b59565b928284526020838301011161026b57815f926020809301838601378301015290565b929192610d1b6100a583610b7f565b93828552606060208601930282019181831161026b57925b828410610d405750505050565b60608483031261026b57610d52610b39565b90610d5c85610bad565b825260208501359067ffffffffffffffff8216820361026b5782602092836060950152610d8b60408801610bd5565b6040820152815201930192610d33565b805115610da85760200190565b634e487b7160e01b5f52603260045260245ffd5b8051821015610da85760209160051b010190565b9291906001600160801b03610de3610b05565b5f81525f60208201529416918215610eb0578115610e9757808211610e815750610e0d9082610f68565b6001600160801b038111610e6f576001600160801b03166020840190808252821115610e5b576001600160801b0390511690036001600160801b038111610496576001600160801b03168252565b634e487b7160e01b5f52600160045260245ffd5b63248b56e760e11b5f5260045260245ffd5b90634816cae360e11b5f5260045260245260445ffd5b5050909150610ea4610b05565b9081525f602082015290565b5050509050610ebd610b05565b5f81525f602082015290565b73ffffffffffffffffffffffffffffffffffffffff1615610f39576001600160801b031615610f2a5764ffffffffff1615610f1c575160208111610f0a5750565b631f68a77160e21b5f5260045260245ffd5b62fcdef560e71b5f5260045ffd5b6359d1976560e11b5f5260045ffd5b63feb974b360e01b5f5260045ffd5b906001600160801b03809116911601906001600160801b03821161049657565b9091905f1983820983820291828083109203918083039214610fec57670de0b6b3a7640000821015610fd5577faccb18165bd6fe31ae1cf318dc5b51eee0e1ba569b88cd74c1773b91fac106699394670de0b6b3a7640000910990828211900360ee1b910360121c170290565b8490635173648d60e01b5f5260045260245260445ffd5b5050670de0b6b3a76400009004915056fea164736f6c634300081a000a",
    "linkReferences": {}
  },
  "methodIdentifiers": {
    "calculateSegmentTimestamps(LockupDynamic.SegmentWithDuration[],uint40)": "f0b95e09",
    "calculateTrancheTimestamps(LockupTranched.TrancheWithDuration[],uint40)": "14412079",
    "checkCreateLockupDynamic(address,Lockup.Timestamps,uint128,LockupDynamic.Segment[],uint256,uint256,string,uint256)": "e68812b4",
    "checkCreateLockupLinear(address,Lockup.Timestamps,uint40,uint128,LockupLinear.UnlockAmounts,uint256,string,uint256)": "cec85a90",
    "checkCreateLockupTranched(address,Lockup.Timestamps,uint128,LockupTranched.Tranche[],uint256,uint256,string,uint256)": "6df26955"
  },
  "id": 92
}