{
  "abi": [
    {
      "type": "function",
      "name": "calculateLockupDynamicStreamedAmount",
      "inputs": [
        {
          "name": "depositedAmount",
          "type": "uint128",
          "internalType": "uint128"
        },
        {
          "name": "segments",
          "type": "tuple[]",
          "internalType": "struct LockupDynamic.Segment[]",
          "components": [
            {
              "name": "amount",
              "type": "uint128",
              "internalType": "uint128"
            },
            {
              "name": "exponent",
              "type": "uint64",
              "internalType": "UD2x18"
            },
            {
              "name": "timestamp",
              "type": "uint40",
              "internalType": "uint40"
            }
          ]
        },
        {
          "name": "blockTimestamp",
          "type": "uint40",
          "internalType": "uint40"
        },
        {
          "name": "timestamps",
          "type": "tuple",
          "internalType": "struct Lockup.Timestamps",
          "components": [
            {
              "name": "start",
              "type": "uint40",
              "internalType": "uint40"
            },
            {
              "name": "end",
              "type": "uint40",
              "internalType": "uint40"
            }
          ]
        },
        {
          "name": "withdrawnAmount",
          "type": "uint128",
          "internalType": "uint128"
        }
      ],
      "outputs": [
        {
          "name": "",
          "type": "uint128",
          "internalType": "uint128"
        }
      ],
      "stateMutability": "pure"
    },
    {
      "type": "function",
      "name": "calculateLockupLinearStreamedAmount",
      "inputs": [
        {
          "name": "depositedAmount",
          "type": "uint128",
          "internalType": "uint128"
        },
        {
          "name": "blockTimestamp",
          "type": "uint40",
          "internalType": "uint40"
        },
        {
          "name": "timestamps",
          "type": "tuple",
          "internalType": "struct Lockup.Timestamps",
          "components": [
            {
              "name": "start",
              "type": "uint40",
              "internalType": "uint40"
            },
            {
              "name": "end",
              "type": "uint40",
              "internalType": "uint40"
            }
          ]
        },
        {
          "name": "cliffTime",
          "type": "uint40",
          "internalType": "uint40"
        },
        {
          "name": "unlockAmounts",
          "type": "tuple",
          "internalType": "struct LockupLinear.UnlockAmounts",
          "components": [
            {
              "name": "start",
              "type": "uint128",
              "internalType": "uint128"
            },
            {
              "name": "cliff",
              "type": "uint128",
              "internalType": "uint128"
            }
          ]
        },
        {
          "name": "withdrawnAmount",
          "type": "uint128",
          "internalType": "uint128"
        }
      ],
      "outputs": [
        {
          "name": "",
          "type": "uint128",
          "internalType": "uint128"
        }
      ],
      "stateMutability": "pure"
    },
    {
      "type": "function",
      "name": "calculateLockupTranchedStreamedAmount",
      "inputs": [
        {
          "name": "depositedAmount",
          "type": "uint128",
          "internalType": "uint128"
        },
        {
          "name": "blockTimestamp",
          "type": "uint40",
          "internalType": "uint40"
        },
        {
          "name": "timestamps",
          "type": "tuple",
          "internalType": "struct Lockup.Timestamps",
          "components": [
            {
              "name": "start",
              "type": "uint40",
              "internalType": "uint40"
            },
            {
              "name": "end",
              "type": "uint40",
              "internalType": "uint40"
            }
          ]
        },
        {
          "name": "tranches",
          "type": "tuple[]",
          "internalType": "struct LockupTranched.Tranche[]",
          "components": [
            {
              "name": "amount",
              "type": "uint128",
              "internalType": "uint128"
            },
            {
              "name": "timestamp",
              "type": "uint40",
              "internalType": "uint40"
            }
          ]
        }
      ],
      "outputs": [
        {
          "name": "",
          "type": "uint128",
          "internalType": "uint128"
        }
      ],
      "stateMutability": "pure"
    },
    {
      "type": "error",
      "name": "PRBMath_MulDiv18_Overflow",
      "inputs": [
        {
          "name": "x",
          "type": "uint256",
          "internalType": "uint256"
        },
        {
          "name": "y",
          "type": "uint256",
          "internalType": "uint256"
        }
      ]
    },
    {
      "type": "error",
      "name": "PRBMath_MulDiv_Overflow",
      "inputs": [
        {
          "name": "x",
          "type": "uint256",
          "internalType": "uint256"
        },
        {
          "name": "y",
          "type": "uint256",
          "internalType": "uint256"
        },
        {
          "name": "denominator",
          "type": "uint256",
          "internalType": "uint256"
        }
      ]
    },
    {
      "type": "error",
      "name": "PRBMath_SD59x18_Div_InputTooSmall",
      "inputs": []
    },
    {
      "type": "error",
      "name": "PRBMath_SD59x18_Div_Overflow",
      "inputs": [
        {
          "name": "x",
          "type": "int256",
          "internalType": "SD59x18"
        },
        {
          "name": "y",
          "type": "int256",
          "internalType": "SD59x18"
        }
      ]
    },
    {
      "type": "error",
      "name": "PRBMath_SD59x18_Exp2_InputTooBig",
      "inputs": [
        {
          "name": "x",
          "type": "int256",
          "internalType": "SD59x18"
        }
      ]
    },
    {
      "type": "error",
      "name": "PRBMath_SD59x18_IntoUint256_Underflow",
      "inputs": [
        {
          "name": "x",
          "type": "int256",
          "internalType": "SD59x18"
        }
      ]
    },
    {
      "type": "error",
      "name": "PRBMath_SD59x18_Log_InputTooSmall",
      "inputs": [
        {
          "name": "x",
          "type": "int256",
          "internalType": "SD59x18"
        }
      ]
    },
    {
      "type": "error",
      "name": "PRBMath_SD59x18_Mul_InputTooSmall",
      "inputs": []
    },
    {
      "type": "error",
      "name": "PRBMath_SD59x18_Mul_Overflow",
      "inputs": [
        {
          "name": "x",
          "type": "int256",
          "internalType": "SD59x18"
        },
        {
          "name": "y",
          "type": "int256",
          "internalType": "SD59x18"
        }
      ]
    },
    {
      "type": "error",
      "name": "PRBMath_UD60x18_IntoUint128_Overflow",
      "inputs": [
        {
          "name": "x",
          "type": "uint256",
          "internalType": "UD60x18"
        }
      ]
    }
  ],
  "bytecode": {
    "object": "0x60808060405234601957611507908161001e823930815050f35b5f80fdfe60806040526004361015610011575f80fd5b5f3560e01c8063485c4f5d14610236578063987117a3146101a75763cd82e8d21461003a575f80fd5b60c036600319011261011f5761004e6102fa565b6024359067ffffffffffffffff821161011f573660238301121561011f57816004013561008261007d826103e6565b610380565b92602460606020868581520193028201019036821161011f57602401915b818310610123575050506044359064ffffffffff8216820361011f57604036606319011261011f576100d0610360565b60643564ffffffffff8116810361011f5781526084359264ffffffffff8416840361011f5760209461010e9486840152610108610310565b9361062c565b6001600160801b0360405191168152f35b5f80fd5b60608336031261011f57604051906060820182811067ffffffffffffffff8211176101935760405261015484610326565b825260208401359067ffffffffffffffff8216820361011f57826020928360609501526101836040870161034e565b60408201528152019201916100a0565b634e487b7160e01b5f52604160045260245ffd5b61010036600319011261011f576101bc6102fa565b6101c461033a565b906101ce366103a6565b60843564ffffffffff8116810361011f5760403660a319011261011f576101f3610360565b906101fc610310565b825260c4356001600160801b038116810361011f57602083015260e435926001600160801b038416840361011f5760209561010e95610501565b60a036600319011261011f5761024a6102fa565b61025261033a565b61025b366103a6565b906084359267ffffffffffffffff841161011f573660238501121561011f57836004013561028b61007d826103e6565b946024602087848152019260061b8201019036821161011f57602401915b8183106102be57602061010e88888888610433565b60408336031261011f5760206040916102d5610360565b6102de86610326565b81526102eb83870161034e565b838201528152019201916102a9565b600435906001600160801b038216820361011f57565b60a435906001600160801b038216820361011f57565b35906001600160801b038216820361011f57565b6024359064ffffffffff8216820361011f57565b359064ffffffffff8216820361011f57565b604051906040820182811067ffffffffffffffff82111761019357604052565b6040519190601f01601f1916820167ffffffffffffffff81118382101761019357604052565b604090604319011261011f576103ba610360565b9060443564ffffffffff8116810361011f57825260643564ffffffffff8116810361011f576020830152565b67ffffffffffffffff81116101935760051b60200190565b80511561040b5760200190565b634e487b7160e01b5f52603260045260245ffd5b805182101561040b5760209160051b010190565b909164ffffffffff8082511693168093116104f95764ffffffffff6020849201511611156104f357508064ffffffffff602061046e856103fe565b51015116116104ed576001600160801b03610488836103fe565b515116918051906001925b8284106104a2575b5050505090565b909192938164ffffffffff60206104b9888761041f565b51015116116104e7576001600160801b03600191816104d8888761041f565b51511601169401929190610493565b9361049b565b50505f90565b91505090565b505050505f90565b9194939064ffffffffff8651169064ffffffffff811696878311610620576020015164ffffffffff1692878411156106155764ffffffffff861697881161060057806001600160801b0360208180945116920151160116946001600160801b03851697888710156105f4579364ffffffffff6001600160801b0394889461059d946105a69998155f146105e4575081839103169203169061095d565b92031690610a30565b6001600160801b0381116105d257906001600160801b0380921601169182116105cd575090565b905090565b63248b56e760e11b5f5260045260245ffd5b809250839103169203169061095d565b50505050509250505090565b516001600160801b0316979650505050505050565b505050509250505090565b50505050505050505f90565b949391929464ffffffffff8651169064ffffffffff8516809211610848578164ffffffffff602089015116111561084057505f9364ffffffffff6040610671856103fe565b51015116918064ffffffffff5f945b1610610801575064ffffffffff9081806001600160801b036106a2868861041f565b5151169967ffffffffffffffff60206106bb888a61041f565b51015116968260406106cd898461041f565b5101511696806107e4575050511680925b031692031690600160ff1b811480156107d7575b6107c8575f8112156107bf57610716815f035b5f8412156107b857835f039061095d565b916001600160ff1b0383116107a25792879261074092610745955f199118135f1461079b57610852565b6108c8565b93841361077857505f8312610765576001600160801b0380929316011690565b82632463f3d560e01b5f5260045260245ffd5b909192506001600160801b0381166001600160801b038316115f146105cd575090565b5f03610852565b9063d49c26b360e01b5f5260045260245260445ffd5b839061095d565b61071681610705565b6309fe2b4560e41b5f5260045ffd5b50600160ff1b82146106f2565b60409250906107f6915f19019061041f565b5101511680926106de565b91946001600160801b0360019181610819898861041f565b515116011695019164ffffffffff806040610834868861041f565b51015116908291610680565b955050505050565b505f955050505050565b8061086c575061086857670de0b6b3a764000090565b5f90565b90670de0b6b3a764000082146108ba578061088f575050670de0b6b3a764000090565b670de0b6b3a764000081146108b6576108ae906107406108b393610adf565b610c1d565b90565b5090565b5050670de0b6b3a764000090565b600160ff1b81148015610950575b610941575f811215610938576108fa815f035b5f84121561093157835f0390610a30565b916001600160ff1b03831161091b575f19911813156109165790565b5f0390565b9063120b5b4360e01b5f5260045260245260445ffd5b8390610a30565b6108fa816108e9565b63a6070c2560e01b5f5260045ffd5b50600160ff1b82146108d6565b5f19670de0b6b3a7640000820991670de0b6b3a7640000820291828085109403938085039414610a0f57818410156109ee57670de0b6b3a7640000829109600182190182168092046002816003021880820260020302808202600203028082026002030280820260020302808202600203028091026002030293600183805f03040190848311900302920304170290565b630c740aef60e31b5f52600452670de0b6b3a764000060245260445260645ffd5b5091508115610a1c570490565b634e487b7160e01b5f52601260045260245ffd5b9091905f1983820983820291828083109203918083039214610ab457670de0b6b3a7640000821015610a9d577faccb18165bd6fe31ae1cf318dc5b51eee0e1ba569b88cd74c1773b91fac106699394670de0b6b3a7640000910990828211900360ee1b910360121c170290565b8490635173648d60e01b5f5260045260245260445ffd5b5050670de0b6b3a764000090049150565b8015610a1c576ec097ce7bc90715b34b9f10000000000590565b805f811315610c0b57670de0b6b3a76400008112610beb57506001905b670de0b6b3a764000081056001600160801b03811160071b90811c67ffffffffffffffff811160061b90811c63ffffffff811160051b90811c61ffff811160041b90811c9060ff821160031b91821c92600f841160021b93841c94600160038711811b96871c119617171717171717670de0b6b3a7640000810291811d90670de0b6b3a76400008214610bd857506706f05b59d3b20000905b5f8213610ba25750500290565b80670de0b6b3a764000091020590671bc16d674ec80000821215610bca575b60011d90610b95565b809192019160011d90610bc1565b9050670de0b6b3a7640000929150020290565b5f1991508015610a1c576ec097ce7bc90715b34b9f100000000005610afc565b63059b101b60e01b5f5260045260245ffd5b5f811215610c4f5768033dd1780914b97114198112610c4a57610c41905f03610c1d565b6108b390610ac5565b505f90565b680a688906bd8affffff81136114e957670de0b6b3a76400009060401b05600160bf1b67ff0000000000000082166113b4575b670de0b6b3a76400009066ff00000000000083166112a4575b65ff0000000000831661119c575b64ff00000000831661109c575b63ff0000008316610fa4575b62ff00008316610eb4575b61ff008316610dcc575b60ff8316610cec575b029060401c60bf031c90565b60808316610db9575b60408316610da6575b60208316610d93575b60108316610d80575b60088316610d6d575b60048316610d5a575b60028316610d47575b6001831615610ce057680100000000000000010260401c610ce0565b680100000000000000010260401c610d2b565b680100000000000000030260401c610d22565b680100000000000000060260401c610d19565b6801000000000000000b0260401c610d10565b680100000000000000160260401c610d07565b6801000000000000002c0260401c610cfe565b680100000000000000590260401c610cf5565b6180008316610ea1575b6140008316610e8e575b6120008316610e7b575b6110008316610e68575b6108008316610e55575b6104008316610e42575b6102008316610e2f575b610100831615610cd757680100000000000000b10260401c610cd7565b680100000000000001630260401c610e12565b680100000000000002c60260401c610e08565b6801000000000000058c0260401c610dfe565b68010000000000000b170260401c610df4565b6801000000000000162e0260401c610dea565b68010000000000002c5d0260401c610de0565b680100000000000058b90260401c610dd6565b628000008316610f91575b624000008316610f7e575b622000008316610f6b575b621000008316610f58575b620800008316610f45575b620400008316610f32575b620200008316610f1f575b62010000831615610ccd576801000000000000b1720260401c610ccd565b680100000000000162e40260401c610f01565b6801000000000002c5c80260401c610ef6565b68010000000000058b910260401c610eeb565b680100000000000b17210260401c610ee0565b68010000000000162e430260401c610ed5565b680100000000002c5c860260401c610eca565b6801000000000058b90c0260401c610ebf565b63800000008316611089575b63400000008316611076575b63200000008316611063575b63100000008316611050575b6308000000831661103d575b6304000000831661102a575b63020000008316611017575b6301000000831615610cc25768010000000000b172180260401c610cc2565b6801000000000162e4300260401c610ff8565b68010000000002c5c8600260401c610fec565b680100000000058b90c00260401c610fe0565b6801000000000b17217f0260401c610fd4565b680100000000162e42ff0260401c610fc8565b6801000000002c5c85fe0260401c610fbc565b68010000000058b90bfc0260401c610fb0565b6480000000008316611189575b6440000000008316611176575b6420000000008316611163575b6410000000008316611150575b640800000000831661113d575b640400000000831661112a575b6402000000008316611117575b640100000000831615610cb657680100000000b17217f80260401c610cb6565b68010000000162e42ff10260401c6110f7565b680100000002c5c85fe30260401c6110ea565b6801000000058b90bfce0260401c6110dd565b68010000000b17217fbb0260401c6110d0565b6801000000162e42fff00260401c6110c3565b68010000002c5c8601cc0260401c6110b6565b680100000058b90c0b490260401c6110a9565b658000000000008316611291575b65400000000000831661127e575b65200000000000831661126b575b651000000000008316611258575b650800000000008316611245575b650400000000008316611232575b65020000000000831661121f575b65010000000000831615610ca9576801000000b1721835510260401c610ca9565b680100000162e430e5a20260401c6111fe565b6801000002c5c863b73f0260401c6111f0565b68010000058b90cf1e6e0260401c6111e2565b680100000b1721bcfc9a0260401c6111d4565b68010000162e43f4f8310260401c6111c6565b680100002c5c89d5ec6d0260401c6111b8565b6801000058b91b5bc9ae0260401c6111aa565b668000000000000083166113a1575b6640000000000000831661138e575b6620000000000000831661137b575b66100000000000008316611368575b66080000000000008316611355575b66040000000000008316611342575b6602000000000000831661132f575b6601000000000000831615610c9b5768010000b17255775c040260401c610c9b565b6801000162e525ee05470260401c61130d565b68010002c5cc37da94920260401c6112fe565b680100058ba01fb9f96d0260401c6112ef565b6801000b175effdc76ba0260401c6112e0565b680100162f3904051fa10260401c6112d1565b6801002c605e2e8cec500260401c6112c2565b68010058c86da1c09ea20260401c6112b3565b67800000000000000082166114ca575b670de0b6b3a76400009067400000000000000083166114b7575b67200000000000000083166114a4575b6710000000000000008316611491575b670800000000000000831661147e575b670400000000000000831661146b575b6702000000000000008316611458575b6701000000000000008316611445575b9050610c82565b680100b1afa5abcbed610260401c61143e565b68010163da9fb33356d80260401c61142e565b680102c9a3e778060ee70260401c61141e565b6801059b0d31585743ae0260401c61140e565b68010b5586cf9890f62a0260401c6113fe565b6801172b83c7d517adce0260401c6113ee565b6801306fe0a31b7152df0260401c6113de565b5077b504f333f9de6484800000000000000000000000000000006113c4565b626c1a0560e31b5f5260045260245ffdfea164736f6c634300081a000a",
    "linkReferences": {}
  },
  "methodIdentifiers": {
    "calculateLockupDynamicStreamedAmount(uint128,LockupDynamic.Segment[],uint40,Lockup.Timestamps,uint128)": "cd82e8d2",
    "calculateLockupLinearStreamedAmount(uint128,uint40,Lockup.Timestamps,uint40,LockupLinear.UnlockAmounts,uint128)": "987117a3",
    "calculateLockupTranchedStreamedAmount(uint128,uint40,Lockup.Timestamps,LockupTranched.Tranche[])": "485c4f5d"
  },
  "id": 95
}