{
  "abi": [
    {
      "type": "constructor",
      "inputs": [
        {
          "name": "initialAdmin",
          "type": "address",
          "internalType": "address"
        }
      ],
      "stateMutability": "nonpayable"
    },
    {
      "type": "receive",
      "stateMutability": "payable"
    },
    {
      "type": "function",
      "name": "FEE_COLLECTOR_ROLE",
      "inputs": [],
      "outputs": [
        {
          "name": "",
          "type": "bytes32",
          "internalType": "bytes32"
        }
      ],
      "stateMutability": "view"
    },
    {
      "type": "function",
      "name": "FEE_MANAGEMENT_ROLE",
      "inputs": [],
      "outputs": [
        {
          "name": "",
          "type": "bytes32",
          "internalType": "bytes32"
        }
      ],
      "stateMutability": "view"
    },
    {
      "type": "function",
      "name": "MAX_FEE_USD",
      "inputs": [],
      "outputs": [
        {
          "name": "",
          "type": "uint256",
          "internalType": "uint256"
        }
      ],
      "stateMutability": "view"
    },
    {
      "type": "function",
      "name": "MINIMAL_INTERFACE_ID",
      "inputs": [],
      "outputs": [
        {
          "name": "",
          "type": "bytes4",
          "internalType": "bytes4"
        }
      ],
      "stateMutability": "view"
    },
    {
      "type": "function",
      "name": "UPGRADE_INTERFACE_VERSION",
      "inputs": [],
      "outputs": [
        {
          "name": "",
          "type": "string",
          "internalType": "string"
        }
      ],
      "stateMutability": "view"
    },
    {
      "type": "function",
      "name": "admin",
      "inputs": [],
      "outputs": [
        {
          "name": "",
          "type": "address",
          "internalType": "address"
        }
      ],
      "stateMutability": "view"
    },
    {
      "type": "function",
      "name": "calculateMinFeeWei",
      "inputs": [
        {
          "name": "protocol",
          "type": "uint8",
          "internalType": "enum ISablierComptroller.Protocol"
        }
      ],
      "outputs": [
        {
          "name": "",
          "type": "uint256",
          "internalType": "uint256"
        }
      ],
      "stateMutability": "view"
    },
    {
      "type": "function",
      "name": "calculateMinFeeWeiFor",
      "inputs": [
        {
          "name": "protocol",
          "type": "uint8",
          "internalType": "enum ISablierComptroller.Protocol"
        },
        {
          "name": "user",
          "type": "address",
          "internalType": "address"
        }
      ],
      "outputs": [
        {
          "name": "",
          "type": "uint256",
          "internalType": "uint256"
        }
      ],
      "stateMutability": "view"
    },
    {
      "type": "function",
      "name": "convertUSDFeeToWei",
      "inputs": [
        {
          "name": "feeUSD",
          "type": "uint256",
          "internalType": "uint256"
        }
      ],
      "outputs": [
        {
          "name": "",
          "type": "uint256",
          "internalType": "uint256"
        }
      ],
      "stateMutability": "view"
    },
    {
      "type": "function",
      "name": "disableCustomFeeUSDFor",
      "inputs": [
        {
          "name": "protocol",
          "type": "uint8",
          "internalType": "enum ISablierComptroller.Protocol"
        },
        {
          "name": "user",
          "type": "address",
          "internalType": "address"
        }
      ],
      "outputs": [],
      "stateMutability": "nonpayable"
    },
    {
      "type": "function",
      "name": "execute",
      "inputs": [
        {
          "name": "target",
          "type": "address",
          "internalType": "address"
        },
        {
          "name": "data",
          "type": "bytes",
          "internalType": "bytes"
        }
      ],
      "outputs": [
        {
          "name": "result",
          "type": "bytes",
          "internalType": "bytes"
        }
      ],
      "stateMutability": "nonpayable"
    },
    {
      "type": "function",
      "name": "getMinFeeUSD",
      "inputs": [
        {
          "name": "protocol",
          "type": "uint8",
          "internalType": "enum ISablierComptroller.Protocol"
        }
      ],
      "outputs": [
        {
          "name": "",
          "type": "uint256",
          "internalType": "uint256"
        }
      ],
      "stateMutability": "view"
    },
    {
      "type": "function",
      "name": "getMinFeeUSDFor",
      "inputs": [
        {
          "name": "protocol",
          "type": "uint8",
          "internalType": "enum ISablierComptroller.Protocol"
        },
        {
          "name": "user",
          "type": "address",
          "internalType": "address"
        }
      ],
      "outputs": [
        {
          "name": "",
          "type": "uint256",
          "internalType": "uint256"
        }
      ],
      "stateMutability": "view"
    },
    {
      "type": "function",
      "name": "grantRole",
      "inputs": [
        {
          "name": "role",
          "type": "bytes32",
          "internalType": "bytes32"
        },
        {
          "name": "account",
          "type": "address",
          "internalType": "address"
        }
      ],
      "outputs": [],
      "stateMutability": "nonpayable"
    },
    {
      "type": "function",
      "name": "hasRoleOrIsAdmin",
      "inputs": [
        {
          "name": "role",
          "type": "bytes32",
          "internalType": "bytes32"
        },
        {
          "name": "account",
          "type": "address",
          "internalType": "address"
        }
      ],
      "outputs": [
        {
          "name": "",
          "type": "bool",
          "internalType": "bool"
        }
      ],
      "stateMutability": "view"
    },
    {
      "type": "function",
      "name": "initialize",
      "inputs": [
        {
          "name": "initialAdmin",
          "type": "address",
          "internalType": "address"
        },
        {
          "name": "initialAirdropMinFeeUSD",
          "type": "uint256",
          "internalType": "uint256"
        },
        {
          "name": "initialFlowMinFeeUSD",
          "type": "uint256",
          "internalType": "uint256"
        },
        {
          "name": "initialLockupMinFeeUSD",
          "type": "uint256",
          "internalType": "uint256"
        },
        {
          "name": "initialOracle",
          "type": "address",
          "internalType": "address"
        }
      ],
      "outputs": [],
      "stateMutability": "nonpayable"
    },
    {
      "type": "function",
      "name": "oracle",
      "inputs": [],
      "outputs": [
        {
          "name": "",
          "type": "address",
          "internalType": "address"
        }
      ],
      "stateMutability": "view"
    },
    {
      "type": "function",
      "name": "proxiableUUID",
      "inputs": [],
      "outputs": [
        {
          "name": "",
          "type": "bytes32",
          "internalType": "bytes32"
        }
      ],
      "stateMutability": "view"
    },
    {
      "type": "function",
      "name": "revokeRole",
      "inputs": [
        {
          "name": "role",
          "type": "bytes32",
          "internalType": "bytes32"
        },
        {
          "name": "account",
          "type": "address",
          "internalType": "address"
        }
      ],
      "outputs": [],
      "stateMutability": "nonpayable"
    },
    {
      "type": "function",
      "name": "setCustomFeeUSDFor",
      "inputs": [
        {
          "name": "protocol",
          "type": "uint8",
          "internalType": "enum ISablierComptroller.Protocol"
        },
        {
          "name": "user",
          "type": "address",
          "internalType": "address"
        },
        {
          "name": "customFeeUSD",
          "type": "uint256",
          "internalType": "uint256"
        }
      ],
      "outputs": [],
      "stateMutability": "nonpayable"
    },
    {
      "type": "function",
      "name": "setMinFeeUSD",
      "inputs": [
        {
          "name": "protocol",
          "type": "uint8",
          "internalType": "enum ISablierComptroller.Protocol"
        },
        {
          "name": "newMinFeeUSD",
          "type": "uint256",
          "internalType": "uint256"
        }
      ],
      "outputs": [],
      "stateMutability": "nonpayable"
    },
    {
      "type": "function",
      "name": "setOracle",
      "inputs": [
        {
          "name": "newOracle",
          "type": "address",
          "internalType": "address"
        }
      ],
      "outputs": [],
      "stateMutability": "nonpayable"
    },
    {
      "type": "function",
      "name": "supportsInterface",
      "inputs": [
        {
          "name": "interfaceId",
          "type": "bytes4",
          "internalType": "bytes4"
        }
      ],
      "outputs": [
        {
          "name": "",
          "type": "bool",
          "internalType": "bool"
        }
      ],
      "stateMutability": "view"
    },
    {
      "type": "function",
      "name": "transferAdmin",
      "inputs": [
        {
          "name": "newAdmin",
          "type": "address",
          "internalType": "address"
        }
      ],
      "outputs": [],
      "stateMutability": "nonpayable"
    },
    {
      "type": "function",
      "name": "transferFees",
      "inputs": [
        {
          "name": "protocolAddresses",
          "type": "address[]",
          "internalType": "address[]"
        },
        {
          "name": "feeRecipient",
          "type": "address",
          "internalType": "address"
        }
      ],
      "outputs": [],
      "stateMutability": "nonpayable"
    },
    {
      "type": "function",
      "name": "upgradeToAndCall",
      "inputs": [
        {
          "name": "newImplementation",
          "type": "address",
          "internalType": "address"
        },
        {
          "name": "data",
          "type": "bytes",
          "internalType": "bytes"
        }
      ],
      "outputs": [],
      "stateMutability": "payable"
    },
    {
      "type": "event",
      "name": "DisableCustomFeeUSD",
      "inputs": [
        {
          "name": "protocol",
          "type": "uint8",
          "indexed": true,
          "internalType": "enum ISablierComptroller.Protocol"
        },
        {
          "name": "caller",
          "type": "address",
          "indexed": false,
          "internalType": "address"
        },
        {
          "name": "user",
          "type": "address",
          "indexed": true,
          "internalType": "address"
        },
        {
          "name": "previousMinFeeUSD",
          "type": "uint256",
          "indexed": false,
          "internalType": "uint256"
        },
        {
          "name": "newMinFeeUSD",
          "type": "uint256",
          "indexed": false,
          "internalType": "uint256"
        }
      ],
      "anonymous": false
    },
    {
      "type": "event",
      "name": "Execute",
      "inputs": [
        {
          "name": "target",
          "type": "address",
          "indexed": true,
          "internalType": "address"
        },
        {
          "name": "data",
          "type": "bytes",
          "indexed": false,
          "internalType": "bytes"
        },
        {
          "name": "result",
          "type": "bytes",
          "indexed": false,
          "internalType": "bytes"
        }
      ],
      "anonymous": false
    },
    {
      "type": "event",
      "name": "Initialized",
      "inputs": [
        {
          "name": "version",
          "type": "uint64",
          "indexed": false,
          "internalType": "uint64"
        }
      ],
      "anonymous": false
    },
    {
      "type": "event",
      "name": "RoleGranted",
      "inputs": [
        {
          "name": "admin",
          "type": "address",
          "indexed": true,
          "internalType": "address"
        },
        {
          "name": "account",
          "type": "address",
          "indexed": true,
          "internalType": "address"
        },
        {
          "name": "role",
          "type": "bytes32",
          "indexed": true,
          "internalType": "bytes32"
        }
      ],
      "anonymous": false
    },
    {
      "type": "event",
      "name": "RoleRevoked",
      "inputs": [
        {
          "name": "admin",
          "type": "address",
          "indexed": true,
          "internalType": "address"
        },
        {
          "name": "account",
          "type": "address",
          "indexed": true,
          "internalType": "address"
        },
        {
          "name": "role",
          "type": "bytes32",
          "indexed": true,
          "internalType": "bytes32"
        }
      ],
      "anonymous": false
    },
    {
      "type": "event",
      "name": "SetCustomFeeUSD",
      "inputs": [
        {
          "name": "protocol",
          "type": "uint8",
          "indexed": true,
          "internalType": "enum ISablierComptroller.Protocol"
        },
        {
          "name": "caller",
          "type": "address",
          "indexed": false,
          "internalType": "address"
        },
        {
          "name": "user",
          "type": "address",
          "indexed": true,
          "internalType": "address"
        },
        {
          "name": "previousMinFeeUSD",
          "type": "uint256",
          "indexed": false,
          "internalType": "uint256"
        },
        {
          "name": "newMinFeeUSD",
          "type": "uint256",
          "indexed": false,
          "internalType": "uint256"
        }
      ],
      "anonymous": false
    },
    {
      "type": "event",
      "name": "SetMinFeeUSD",
      "inputs": [
        {
          "name": "protocol",
          "type": "uint8",
          "indexed": true,
          "internalType": "enum ISablierComptroller.Protocol"
        },
        {
          "name": "caller",
          "type": "address",
          "indexed": false,
          "internalType": "address"
        },
        {
          "name": "previousMinFeeUSD",
          "type": "uint256",
          "indexed": false,
          "internalType": "uint256"
        },
        {
          "name": "newMinFeeUSD",
          "type": "uint256",
          "indexed": false,
          "internalType": "uint256"
        }
      ],
      "anonymous": false
    },
    {
      "type": "event",
      "name": "SetOracle",
      "inputs": [
        {
          "name": "admin",
          "type": "address",
          "indexed": true,
          "internalType": "address"
        },
        {
          "name": "previousOracle",
          "type": "address",
          "indexed": false,
          "internalType": "address"
        },
        {
          "name": "newOracle",
          "type": "address",
          "indexed": false,
          "internalType": "address"
        }
      ],
      "anonymous": false
    },
    {
      "type": "event",
      "name": "TransferAdmin",
      "inputs": [
        {
          "name": "oldAdmin",
          "type": "address",
          "indexed": true,
          "internalType": "address"
        },
        {
          "name": "newAdmin",
          "type": "address",
          "indexed": true,
          "internalType": "address"
        }
      ],
      "anonymous": false
    },
    {
      "type": "event",
      "name": "TransferFees",
      "inputs": [
        {
          "name": "feeRecipient",
          "type": "address",
          "indexed": true,
          "internalType": "address"
        },
        {
          "name": "feeAmount",
          "type": "uint256",
          "indexed": false,
          "internalType": "uint256"
        }
      ],
      "anonymous": false
    },
    {
      "type": "event",
      "name": "Upgraded",
      "inputs": [
        {
          "name": "implementation",
          "type": "address",
          "indexed": true,
          "internalType": "address"
        }
      ],
      "anonymous": false
    },
    {
      "type": "error",
      "name": "AccountAlreadyHasRole",
      "inputs": [
        {
          "name": "role",
          "type": "bytes32",
          "internalType": "bytes32"
        },
        {
          "name": "account",
          "type": "address",
          "internalType": "address"
        }
      ]
    },
    {
      "type": "error",
      "name": "AccountDoesNotHaveRole",
      "inputs": [
        {
          "name": "role",
          "type": "bytes32",
          "internalType": "bytes32"
        },
        {
          "name": "account",
          "type": "address",
          "internalType": "address"
        }
      ]
    },
    {
      "type": "error",
      "name": "AddressEmptyCode",
      "inputs": [
        {
          "name": "target",
          "type": "address",
          "internalType": "address"
        }
      ]
    },
    {
      "type": "error",
      "name": "CallerNotAdmin",
      "inputs": [
        {
          "name": "admin",
          "type": "address",
          "internalType": "address"
        },
        {
          "name": "caller",
          "type": "address",
          "internalType": "address"
        }
      ]
    },
    {
      "type": "error",
      "name": "ERC1967InvalidImplementation",
      "inputs": [
        {
          "name": "implementation",
          "type": "address",
          "internalType": "address"
        }
      ]
    },
    {
      "type": "error",
      "name": "ERC1967NonPayable",
      "inputs": []
    },
    {
      "type": "error",
      "name": "FailedCall",
      "inputs": []
    },
    {
      "type": "error",
      "name": "InvalidInitialization",
      "inputs": []
    },
    {
      "type": "error",
      "name": "NotInitializing",
      "inputs": []
    },
    {
      "type": "error",
      "name": "SablierComptroller_ExecutionFailedSilently",
      "inputs": []
    },
    {
      "type": "error",
      "name": "SablierComptroller_FeeRecipientNotAdmin",
      "inputs": [
        {
          "name": "feeRecipient",
          "type": "address",
          "internalType": "address"
        },
        {
          "name": "admin",
          "type": "address",
          "internalType": "address"
        }
      ]
    },
    {
      "type": "error",
      "name": "SablierComptroller_FeeRecipientZero",
      "inputs": []
    },
    {
      "type": "error",
      "name": "SablierComptroller_FeeTransferFailed",
      "inputs": [
        {
          "name": "feeRecipient",
          "type": "address",
          "internalType": "address"
        },
        {
          "name": "feeAmount",
          "type": "uint256",
          "internalType": "uint256"
        }
      ]
    },
    {
      "type": "error",
      "name": "SablierComptroller_MaxFeeUSDExceeded",
      "inputs": [
        {
          "name": "newFeeUSD",
          "type": "uint256",
          "internalType": "uint256"
        },
        {
          "name": "maxFeeUSD",
          "type": "uint256",
          "internalType": "uint256"
        }
      ]
    },
    {
      "type": "error",
      "name": "UUPSUnauthorizedCallContext",
      "inputs": []
    },
    {
      "type": "error",
      "name": "UUPSUnsupportedProxiableUUID",
      "inputs": [
        {
          "name": "slot",
          "type": "bytes32",
          "internalType": "bytes32"
        }
      ]
    },
    {
      "type": "error",
      "name": "UnauthorizedAccess",
      "inputs": [
        {
          "name": "caller",
          "type": "address",
          "internalType": "address"
        },
        {
          "name": "neededRole",
          "type": "bytes32",
          "internalType": "bytes32"
        }
      ]
    }
  ],
  "bytecode": {
    "object": "0x60a03461014357601f61244a38819003918201601f19168301916001600160401b038311848410176101475780849260209460405283398101031261014357516001600160a01b03811690819003610143575f80546001600160a01b0319168217815560405191907fbdd36143ee09de60bdefca70680e0f71189b2ed7acee364b53917ad433fdaf808180a3306080525f51602061242a5f395f51905f525460ff8160401c16610134576002600160401b03196001600160401b038216016100e1575b6040516122ce908161015c82396080518181816108370152611dea0152f35b6001600160401b0319166001600160401b039081175f51602061242a5f395f51905f525581527fc7f505b2f371ae2175ee4913f4499e1f2633a7b5936321eed1cdaeb6115181d290602090a15f806100c2565b63f92ee8a960e01b5f5260045ffd5b5f80fd5b634e487b7160e01b5f52604160045260245ffdfe6080604052600436101561001a575b3615610018575f80fd5b005b5f3560e01c806301ffc9a7146101b95780631cff79cd146101b45780632f2ff15d146101af5780632fa32f4a146101aa578063419d289d146101a55780634f1ef286146101a057806352d1902d1461019b57806362a2a47c146101965780636c28e3491461019157806375829def1461018c57806378ef7aea146101875780637adbf973146101825780637dc0d1d01461017d57806388dc31a8146101785780638afaa8b8146101735780639f4673521461016e578063ad3cb1cc14610169578063b0fa59e814610164578063b9fbe2f81461015f578063baf8f4b91461015a578063c34df33e14610155578063d09e86d914610150578063d547741f1461014b578063e1678c6e14610146578063f2fc84b7146101415763f851a4400361000e57611352565b6112ca565b6112a7565b611179565b61104c565b610ff3565b610fae565b610f64565b610f28565b610eab565b610e07565b610daf565b610d73565b610d22565b610c87565b610c4a565b610ba2565b610907565b6108af565b6107f2565b61074f565b610644565b61051d565b6103de565b61030b565b346102785760207ffffffffffffffffffffffffffffffffffffffffffffffffffffffffffffffffc360112610278576004357fffffffff00000000000000000000000000000000000000000000000000000000811680910361027857807f01ffc9a7000000000000000000000000000000000000000000000000000000006020921490811561024e575b506040519015158152f35b90507f6544391000000000000000000000000000000000000000000000000000000000145f610243565b5f80fd5b73ffffffffffffffffffffffffffffffffffffffff81160361027857565b91908251928382525f5b8481106102e25750507fffffffffffffffffffffffffffffffffffffffffffffffffffffffffffffffe0601f845f6020809697860101520116010190565b806020809284010151828286010152016102a4565b90602061030892818152019061029a565b90565b346102785760407ffffffffffffffffffffffffffffffffffffffffffffffffffffffffffffffffc360112610278576004356103468161027c565b60243567ffffffffffffffff8111610278573660238201121561027857806004013567ffffffffffffffff8111610278573660248284010111610278576103a09260246103949301906113a2565b604051918291826102f7565b0390f35b7ffffffffffffffffffffffffffffffffffffffffffffffffffffffffffffffffc604091011261027857600435906024356103088161027c565b34610278576103ec366103a4565b6103f46119d9565b815f52600160205260ff6104298260405f209073ffffffffffffffffffffffffffffffffffffffff165f5260205260405f2090565b54166104c95773ffffffffffffffffffffffffffffffffffffffff90825f5260016020526104788160405f209073ffffffffffffffffffffffffffffffffffffffff165f5260205260405f2090565b60017fffffffffffffffffffffffffffffffffffffffffffffffffffffffffffffff0082541617905516337f03b5d550f3da9dfe316fa35cbecc4cee6d2febeaeee1432f30504bd9ce3780a85f80a4005b73ffffffffffffffffffffffffffffffffffffffff917fcbb4ac0d000000000000000000000000000000000000000000000000000000005f526004521660245260445ffd5b60043590600482101561027857565b346102785760407ffffffffffffffffffffffffffffffffffffffffffffffffffffffffffffffffc3601126102785761055461050e565b602435906105618261027c565b610569611a2a565b6105738282611aab565b915f60016105a98382610585876114dd565b019073ffffffffffffffffffffffffffffffffffffffff165f5260205260405f2090565b82815501556105b7826114dd565b5460048310156106175760408051338152602081019590955284015273ffffffffffffffffffffffffffffffffffffffff16917ff3a849d17718fabb870877212af757aab86f881d647eec39c6f722119a82be7c9080606081015b0390a3005b7f4e487b71000000000000000000000000000000000000000000000000000000005f52602160045260245ffd5b346102785760407ffffffffffffffffffffffffffffffffffffffffffffffffffffffffffffffffc36011261027857602061069a61069561068361050e565b602435906106908261027c565b611aab565b611c2d565b604051908152f35b7f4e487b71000000000000000000000000000000000000000000000000000000005f52604160045260245ffd5b90601f7fffffffffffffffffffffffffffffffffffffffffffffffffffffffffffffffe0910116810190811067ffffffffffffffff82111761071057604052565b6106a2565b67ffffffffffffffff811161071057601f017fffffffffffffffffffffffffffffffffffffffffffffffffffffffffffffffe01660200190565b60407ffffffffffffffffffffffffffffffffffffffffffffffffffffffffffffffffc360112610278576004356107858161027c565b6024359067ffffffffffffffff82116102785736602383011215610278578160040135906107b282610715565b916107c060405193846106cf565b8083523660248286010111610278576020815f926024610018970183870137840101526114f4565b5f91031261027857565b34610278575f7ffffffffffffffffffffffffffffffffffffffffffffffffffffffffffffffffc3601126102785773ffffffffffffffffffffffffffffffffffffffff7f00000000000000000000000000000000000000000000000000000000000000001630036108875760206040517f360894a13ba1a3210667c828492db98dca3e2076cc3735a920a3ca505d382bbc8152f35b7fe07c8dba000000000000000000000000000000000000000000000000000000005f5260045ffd5b34610278575f7ffffffffffffffffffffffffffffffffffffffffffffffffffffffffffffffffc3601126102785760206040517f2dca0f5ce7e75a4b43fe2b0d6f5d0b7a2bf92ecf89f8f0aa17b8308b670388218152f35b346102785760a07ffffffffffffffffffffffffffffffffffffffffffffffffffffffffffffffffc360112610278576004356109428161027c565b602435906084356064356044356109588361027c565b7ff0c57e16840df040f15088dc2f81fe391c3923bec73e23a9662efc9c229c6a00549467ffffffffffffffff6109a760ff604089901c1615610999565b1590565b9767ffffffffffffffff1690565b1680159081610b9a575b6001149081610b90575b159081610b87575b50610b5f57610a449486610a3b60017fffffffffffffffffffffffffffffffffffffffffffffffff00000000000000007ff0c57e16840df040f15088dc2f81fe391c3923bec73e23a9662efc9c229c6a005416177ff0c57e16840df040f15088dc2f81fe391c3923bec73e23a9662efc9c229c6a0055565b610ae457611633565b610a4a57005b610ab57fffffffffffffffffffffffffffffffffffffffffffffff00ffffffffffffffff7ff0c57e16840df040f15088dc2f81fe391c3923bec73e23a9662efc9c229c6a0054167ff0c57e16840df040f15088dc2f81fe391c3923bec73e23a9662efc9c229c6a0055565b604051600181527fc7f505b2f371ae2175ee4913f4499e1f2633a7b5936321eed1cdaeb6115181d290602090a1005b610b5a680100000000000000007fffffffffffffffffffffffffffffffffffffffffffffff00ffffffffffffffff7ff0c57e16840df040f15088dc2f81fe391c3923bec73e23a9662efc9c229c6a005416177ff0c57e16840df040f15088dc2f81fe391c3923bec73e23a9662efc9c229c6a0055565b611633565b7ff92ee8a9000000000000000000000000000000000000000000000000000000005f5260045ffd5b9050155f6109c3565b303b1591506109bb565b8791506109b1565b346102785760207ffffffffffffffffffffffffffffffffffffffffffffffffffffffffffffffffc3601126102785773ffffffffffffffffffffffffffffffffffffffff600435610bf28161027c565b610bfa6119d9565b16807fffffffffffffffffffffffff00000000000000000000000000000000000000005f5416175f55337fbdd36143ee09de60bdefca70680e0f71189b2ed7acee364b53917ad433fdaf805f80a3005b34610278575f7ffffffffffffffffffffffffffffffffffffffffffffffffffffffffffffffffc3601126102785760206040516402540be4008152f35b346102785760207ffffffffffffffffffffffffffffffffffffffffffffffffffffffffffffffffc36011261027857600435610cc28161027c565b610cca6119d9565b73ffffffffffffffffffffffffffffffffffffffff806002541691610cee81611e5e565b6040519283521660208201527f8a2921926cceeec9c87402055ba6edb6a752234970f3b7b8f99183b622b3e01460403392a2005b34610278575f7ffffffffffffffffffffffffffffffffffffffffffffffffffffffffffffffffc36011261027857602073ffffffffffffffffffffffffffffffffffffffff60025416604051908152f35b346102785760407ffffffffffffffffffffffffffffffffffffffffffffffffffffffffffffffffc36011261027857602061069a61068361050e565b34610278575f7ffffffffffffffffffffffffffffffffffffffffffffffffffffffffffffffffc3601126102785760206040517fdafa4310f27470d00421df39e0238302b93ed6cf97d700cc8956ff2876e7b1e78152f35b346102785760407ffffffffffffffffffffffffffffffffffffffffffffffffffffffffffffffffc36011261027857610e3e61050e565b602435610e49611a2a565b610e5281611f06565b610e5b826114dd565b549080610e67846114dd565b556004831015610617576040805133815260208101939093528201527ff4cb1d2734c9a8fc58614adae67ed933bf35438b252c7f51fbfcb6fff0bab8be90606090a2005b34610278575f7ffffffffffffffffffffffffffffffffffffffffffffffffffffffffffffffffc360112610278576103a0604051610eea6040826106cf565b600581527f352e302e30000000000000000000000000000000000000000000000000000000602082015260405191829160208352602083019061029a565b346102785760207ffffffffffffffffffffffffffffffffffffffffffffffffffffffffffffffffc36011261027857602061069a600435611c2d565b346102785760207ffffffffffffffffffffffffffffffffffffffffffffffffffffffffffffffffc360112610278576020610fa5610fa061050e565b6114dd565b54604051908152f35b346102785760207ffffffffffffffffffffffffffffffffffffffffffffffffffffffffffffffffc36011261027857602061069a610fed610fa061050e565b54611c2d565b34610278575f7ffffffffffffffffffffffffffffffffffffffffffffffffffffffffffffffffc3601126102785760207f6544391000000000000000000000000000000000000000000000000000000000604051908152f35b346102785760607ffffffffffffffffffffffffffffffffffffffffffffffffffffffffffffffffc3601126102785761108361050e565b602435906110908261027c565b7e6bffa34673cf1ad4bba7ad45d3cf9044d62831266d93b96dbc80d8ec491f2773ffffffffffffffffffffffffffffffffffffffff604435936110d1611a2a565b6110da85611f06565b6106126110e78286611aab565b9560ff6110f98460016105858a6114dd565b54161561113c575b80600161111285826105858b6114dd565b015561111d866114d3565b6040805133815260208101989098528701529116939081906060820190565b61114b836001610585896114dd565b60017fffffffffffffffffffffffffffffffffffffffffffffffffffffffffffffff00825416179055611101565b3461027857611187366103a4565b61118f6119d9565b815f52600160205260ff6111c48260405f209073ffffffffffffffffffffffffffffffffffffffff165f5260205260405f2090565b5416156112625773ffffffffffffffffffffffffffffffffffffffff90825f5260016020526112148160405f209073ffffffffffffffffffffffffffffffffffffffff165f5260205260405f2090565b7fffffffffffffffffffffffffffffffffffffffffffffffffffffffffffffff00815416905516337fd1c3e214f7584ab57912c23f3cead20e310547c9823c8bc891ba162e356227345f80a4005b73ffffffffffffffffffffffffffffffffffffffff917f6514a824000000000000000000000000000000000000000000000000000000005f526004521660245260445ffd5b346102785760206112c06112ba366103a4565b90611fdc565b6040519015158152f35b346102785760407ffffffffffffffffffffffffffffffffffffffffffffffffffffffffffffffffc3601126102785760043567ffffffffffffffff811161027857366023820112156102785780600401359067ffffffffffffffff8211610278573660248360051b830101116102785761001891602480359261134c8461027c565b016117b2565b34610278575f7ffffffffffffffffffffffffffffffffffffffffffffffffffffffffffffffffc36011261027857602073ffffffffffffffffffffffffffffffffffffffff5f5416604051908152f35b90916113ac6119d9565b5f806040518386823780848101838152039082865af1926113cb6114a4565b931561146b57907fb24ebe141c5f2a744b103bea65fce6c40e0dc65d7341d092c09b160f4044799091611465606073ffffffffffffffffffffffffffffffffffffffff7fffffffffffffffffffffffffffffffffffffffffffffffffffffffffffffffe0601f86604051978897604089528160408a0152868901375f8582890101520116840196828589030160208601521695018661029a565b0390a290565b835184901561147c57602081519101fd5b7fa25f61e6000000000000000000000000000000000000000000000000000000005f5260045ffd5b3d156114ce573d906114b582610715565b916114c360405193846106cf565b82523d5f602084013e565b606090565b6004111561061757565b6004811015610617575f52600360205260405f2090565b90916114fe611dd3565b6115066119d9565b604051927f52d1902d00000000000000000000000000000000000000000000000000000000845260208460048173ffffffffffffffffffffffffffffffffffffffff87165afa5f94816115ff575b5061159c577f4c9c8ce3000000000000000000000000000000000000000000000000000000005f5273ffffffffffffffffffffffffffffffffffffffff831660045260245b5ffd5b90917f360894a13ba1a3210667c828492db98dca3e2076cc3735a920a3ca505d382bbc84036115d2576115d092935061205f565b565b7faa1d49a4000000000000000000000000000000000000000000000000000000005f52600484905260245ffd5b9094506020813d60201161162b575b8161161b602093836106cf565b810103126102785751935f611554565b3d915061160e565b73ffffffffffffffffffffffffffffffffffffffff90611651611dd3565b611659612190565b611661612190565b16807fffffffffffffffffffffffff00000000000000000000000000000000000000005f5416175f555f7fbdd36143ee09de60bdefca70680e0f71189b2ed7acee364b53917ad433fdaf808180a36116b881611f06565b6116c182611f06565b6116ca83611f06565b60036020527f3617319a054d772f909f7c479a2cebe5066e836a939412e32403c99029b92eff557fa15bc60c955c405d20d9149c709e2460f1c2d9a497496a7f46004d1772c3054c5560025f527fc3a24b0501bd2c13a7e57f2db4369ec4c223447539fc0724a9d55ac4a06ebd4d5573ffffffffffffffffffffffffffffffffffffffff81166117575750565b6115d090611e5e565b91908110156117705760051b0190565b7f4e487b71000000000000000000000000000000000000000000000000000000005f52603260045260245ffd5b356103088161027c565b6040513d5f823e3d90fd5b73ffffffffffffffffffffffffffffffffffffffff8316929183156119b1576117dd61099533611f49565b80611987575b61191e575f5b81811061187e5750505047905f80808085855af16118056114a4565b501561183a57506040519081527f471c95db9ae5c6f902bc9bf9d1b68834d1fd11d37ae3c127387693cb5317f72790602090a2565b7fd54ea680000000000000000000000000000000000000000000000000000000005f5273ffffffffffffffffffffffffffffffffffffffff1660045260245260445ffd5b6118b0611897611897611892848688611760565b61179d565b73ffffffffffffffffffffffffffffffffffffffff1690565b90813b15610278575f80926004604051809581937f78f82ce70000000000000000000000000000000000000000000000000000000083525af1918215611919576001926118ff575b50016117e9565b8061190d5f611913936106cf565b806107e8565b5f6118f8565b6117a7565b611599836119405f5473ffffffffffffffffffffffffffffffffffffffff1690565b7fac045a20000000000000000000000000000000000000000000000000000000005f5273ffffffffffffffffffffffffffffffffffffffff91821660045216602452604490565b506119a96118975f5473ffffffffffffffffffffffffffffffffffffffff1690565b8414156117e3565b7f16650253000000000000000000000000000000000000000000000000000000005f5260045ffd5b73ffffffffffffffffffffffffffffffffffffffff5f54163381036119fb5750565b7fc6cce6a4000000000000000000000000000000000000000000000000000000005f526004523360245260445ffd5b611a54337fdafa4310f27470d00421df39e0238302b93ed6cf97d700cc8956ff2876e7b1e7611fdc565b15611a5b57565b7f6e6c2928000000000000000000000000000000000000000000000000000000005f52336004527fdafa4310f27470d00421df39e0238302b93ed6cf97d700cc8956ff2876e7b1e760245260445ffd5b90611abb906001610585846114dd565b90604051916040830183811067ffffffffffffffff821117610710576040526020600160ff835416151592838652015493019283525f14611afb57505190565b611b0591506114dd565b5490565b519069ffffffffffffffffffff8216820361027857565b908160a091031261027857611b3481611b09565b91602082015191604081015191610308608060608401519301611b09565b90816020910312610278575160ff811681036102785790565b7f4e487b71000000000000000000000000000000000000000000000000000000005f52601160045260245ffd5b60ff16600a019060ff8211611ba957565b611b6b565b60ff16604d8111611ba957600a0a90565b90670de0b6b3a7640000820291808304670de0b6b3a76400001490151715611ba957565b81810292918115918404141715611ba957565b8115611c00570490565b7f4e487b71000000000000000000000000000000000000000000000000000000005f52601260045260245ffd5b60025473ffffffffffffffffffffffffffffffffffffffff168015611dcd578115611dcd57611c719073ffffffffffffffffffffffffffffffffffffffff16611897565b604051907ffeaf968c00000000000000000000000000000000000000000000000000000000825260a082600481845afa91825f915f94611d95575b50611cb957505050505f90565b5f811315611d8d5791804210611d8d576201518090420311611d86576020600491604051928380927f313ce5670000000000000000000000000000000000000000000000000000000082525afa5f9181611d55575b50611d1a575050505f90565b60ff8116600803611d375750611d3261030892611bbf565b611bf6565b61030892611d4f611d4a611d3293611b98565b611bae565b90611be3565b611d7891925060203d602011611d7f575b611d7081836106cf565b810190611b52565b905f611d0e565b503d611d66565b5050505f90565b505050505f90565b909350611dba915060a03d60a011611dc6575b611db281836106cf565b810190611b20565b5092505090925f611cac565b503d611da8565b50505f90565b73ffffffffffffffffffffffffffffffffffffffff7f000000000000000000000000000000000000000000000000000000000000000016803014908115611e1c575b5061088757565b905073ffffffffffffffffffffffffffffffffffffffff7f360894a13ba1a3210667c828492db98dca3e2076cc3735a920a3ca505d382bbc541614155f611e15565b73ffffffffffffffffffffffffffffffffffffffff1680611ea5575b7fffffffffffffffffffffffff00000000000000000000000000000000000000006002541617600255565b6040517ffeaf968c00000000000000000000000000000000000000000000000000000000815260a081600481855afa801561191957611ee5575b50611e7a565b611efd9060a03d60a011611dc657611db281836106cf565b50505050611edf565b6402540be4008111611f155750565b7f330ce9f1000000000000000000000000000000000000000000000000000000005f526004526402540be40060245260445ffd5b73ffffffffffffffffffffffffffffffffffffffff5f541673ffffffffffffffffffffffffffffffffffffffff821614908115611f8f575b50611f8a575f90565b600190565b73ffffffffffffffffffffffffffffffffffffffff165f9081527fee26f1166c4c8567cc04a3db2deb224bdd71a3e5856b681622ab37d6fb0806a2602052604081205460ff169150611f81565b9073ffffffffffffffffffffffffffffffffffffffff5f541673ffffffffffffffffffffffffffffffffffffffff82161491821561201f575b5050611f8a575f90565b60ff925090612056915f52600160205260405f209073ffffffffffffffffffffffffffffffffffffffff165f5260205260405f2090565b54165f80612015565b90813b1561214e5773ffffffffffffffffffffffffffffffffffffffff8216807fffffffffffffffffffffffff00000000000000000000000000000000000000007f360894a13ba1a3210667c828492db98dca3e2076cc3735a920a3ca505d382bbc5416177f360894a13ba1a3210667c828492db98dca3e2076cc3735a920a3ca505d382bbc557fbc7cd75a20ee27fd9adebab32041f755214dbc6bffa90cc0225b39da2e5c2d3b5f80a280511561211d5761211a916121e7565b50565b50503461212657565b7fb398979f000000000000000000000000000000000000000000000000000000005f5260045ffd5b73ffffffffffffffffffffffffffffffffffffffff827f4c9c8ce3000000000000000000000000000000000000000000000000000000005f521660045260245ffd5b60ff7ff0c57e16840df040f15088dc2f81fe391c3923bec73e23a9662efc9c229c6a005460401c16156121bf57565b7fd7e6bcf8000000000000000000000000000000000000000000000000000000005f5260045ffd5b5f8061030893602081519101845af46121fe6114a4565b919061223c575080511561221457805190602001fd5b7fd6bda275000000000000000000000000000000000000000000000000000000005f5260045ffd5b8151158061228f575b61224d575090565b73ffffffffffffffffffffffffffffffffffffffff907f9996b315000000000000000000000000000000000000000000000000000000005f521660045260245ffd5b50803b1561224556fea2646970667358221220bb08d7a5a963de3b49e1650b4c3372ea04a4e1eb929b6a768cb0b34256be9af564736f6c634300081d0033f0c57e16840df040f15088dc2f81fe391c3923bec73e23a9662efc9c229c6a00",
    "linkReferences": {}
  },
  "methodIdentifiers": {
    "FEE_COLLECTOR_ROLE()": "62a2a47c",
    "FEE_MANAGEMENT_ROLE()": "8afaa8b8",
    "MAX_FEE_USD()": "78ef7aea",
    "MINIMAL_INTERFACE_ID()": "c34df33e",
    "UPGRADE_INTERFACE_VERSION()": "ad3cb1cc",
    "admin()": "f851a440",
    "calculateMinFeeWei(uint8)": "baf8f4b9",
    "calculateMinFeeWeiFor(uint8,address)": "419d289d",
    "convertUSDFeeToWei(uint256)": "b0fa59e8",
    "disableCustomFeeUSDFor(uint8,address)": "2fa32f4a",
    "execute(address,bytes)": "1cff79cd",
    "getMinFeeUSD(uint8)": "b9fbe2f8",
    "getMinFeeUSDFor(uint8,address)": "88dc31a8",
    "grantRole(bytes32,address)": "2f2ff15d",
    "hasRoleOrIsAdmin(bytes32,address)": "e1678c6e",
    "initialize(address,uint256,uint256,uint256,address)": "6c28e349",
    "oracle()": "7dc0d1d0",
    "proxiableUUID()": "52d1902d",
    "revokeRole(bytes32,address)": "d547741f",
    "setCustomFeeUSDFor(uint8,address,uint256)": "d09e86d9",
    "setMinFeeUSD(uint8,uint256)": "9f467352",
    "setOracle(address)": "7adbf973",
    "supportsInterface(bytes4)": "01ffc9a7",
    "transferAdmin(address)": "75829def",
    "transferFees(address[],address)": "f2fc84b7",
    "upgradeToAndCall(address,bytes)": "4f1ef286"
  },
  "storageLayout": {
    "storage": [
      {
        "astId": 60296,
        "contract": "src/SablierComptroller.sol:SablierComptroller",
        "label": "admin",
        "offset": 0,
        "slot": "0",
        "type": "t_address"
      },
      {
        "astId": 60711,
        "contract": "src/SablierComptroller.sol:SablierComptroller",
        "label": "_roles",
        "offset": 0,
        "slot": "1",
        "type": "t_mapping(t_bytes32,t_mapping(t_address,t_bool))"
      },
      {
        "astId": 60936,
        "contract": "src/SablierComptroller.sol:SablierComptroller",
        "label": "oracle",
        "offset": 0,
        "slot": "2",
        "type": "t_address"
      },
      {
        "astId": 60943,
        "contract": "src/SablierComptroller.sol:SablierComptroller",
        "label": "_protocolFees",
        "offset": 0,
        "slot": "3",
        "type": "t_mapping(t_enum(Protocol)61938,t_struct(ProtocolFees)61947_storage)"
      },
      {
        "astId": 60948,
        "contract": "src/SablierComptroller.sol:SablierComptroller",
        "label": "__gap",
        "offset": 0,
        "slot": "4",
        "type": "t_array(t_uint256)46_storage"
      }
    ],
    "types": {
      "t_address": {
        "encoding": "inplace",
        "label": "address",
        "numberOfBytes": "20"
      },
      "t_array(t_uint256)46_storage": {
        "encoding": "inplace",
        "label": "uint256[46]",
        "numberOfBytes": "1472",
        "base": "t_uint256"
      },
      "t_bool": {
        "encoding": "inplace",
        "label": "bool",
        "numberOfBytes": "1"
      },
      "t_bytes32": {
        "encoding": "inplace",
        "label": "bytes32",
        "numberOfBytes": "32"
      },
      "t_enum(Protocol)61938": {
        "encoding": "inplace",
        "label": "enum ISablierComptroller.Protocol",
        "numberOfBytes": "1"
      },
      "t_mapping(t_address,t_bool)": {
        "encoding": "mapping",
        "key": "t_address",
        "label": "mapping(address => bool)",
        "numberOfBytes": "32",
        "value": "t_bool"
      },
      "t_mapping(t_address,t_struct(CustomFeeUSD)61932_storage)": {
        "encoding": "mapping",
        "key": "t_address",
        "label": "mapping(address => struct ISablierComptroller.CustomFeeUSD)",
        "numberOfBytes": "32",
        "value": "t_struct(CustomFeeUSD)61932_storage"
      },
      "t_mapping(t_bytes32,t_mapping(t_address,t_bool))": {
        "encoding": "mapping",
        "key": "t_bytes32",
        "label": "mapping(bytes32 => mapping(address => bool))",
        "numberOfBytes": "32",
        "value": "t_mapping(t_address,t_bool)"
      },
      "t_mapping(t_enum(Protocol)61938,t_struct(ProtocolFees)61947_storage)": {
        "encoding": "mapping",
        "key": "t_enum(Protocol)61938",
        "label": "mapping(enum ISablierComptroller.Protocol => struct ISablierComptroller.ProtocolFees)",
        "numberOfBytes": "32",
        "value": "t_struct(ProtocolFees)61947_storage"
      },
      "t_struct(CustomFeeUSD)61932_storage": {
        "encoding": "inplace",
        "label": "struct ISablierComptroller.CustomFeeUSD",
        "numberOfBytes": "64",
        "members": [
          {
            "astId": 61929,
            "contract": "src/SablierComptroller.sol:SablierComptroller",
            "label": "enabled",
            "offset": 0,
            "slot": "0",
            "type": "t_bool"
          },
          {
            "astId": 61931,
            "contract": "src/SablierComptroller.sol:SablierComptroller",
            "label": "fee",
            "offset": 0,
            "slot": "1",
            "type": "t_uint256"
          }
        ]
      },
      "t_struct(ProtocolFees)61947_storage": {
        "encoding": "inplace",
        "label": "struct ISablierComptroller.ProtocolFees",
        "numberOfBytes": "64",
        "members": [
          {
            "astId": 61941,
            "contract": "src/SablierComptroller.sol:SablierComptroller",
            "label": "minFeeUSD",
            "offset": 0,
            "slot": "0",
            "type": "t_uint256"
          },
          {
            "astId": 61946,
            "contract": "src/SablierComptroller.sol:SablierComptroller",
            "label": "customFeesUSD",
            "offset": 0,
            "slot": "1",
            "type": "t_mapping(t_address,t_struct(CustomFeeUSD)61932_storage)"
          }
        ]
      },
      "t_uint256": {
        "encoding": "inplace",
        "label": "uint256",
        "numberOfBytes": "32"
      }
    }
  },
  "id": 59
}