{
  "abi": [
    {
      "type": "function",
      "name": "tokenURI",
      "inputs": [
        {
          "name": "lockup",
          "type": "address",
          "internalType": "contract IERC721Metadata"
        },
        {
          "name": "streamId",
          "type": "uint256",
          "internalType": "uint256"
        }
      ],
      "outputs": [
        {
          "name": "uri",
          "type": "string",
          "internalType": "string"
        }
      ],
      "stateMutability": "view"
    },
    {
      "type": "error",
      "name": "StringsInsufficientHexLength",
      "inputs": [
        {
          "name": "value",
          "type": "uint256",
          "internalType": "uint256"
        },
        {
          "name": "length",
          "type": "uint256",
          "internalType": "uint256"
        }
      ]
    }
  ],
  "bytecode": {
    "object": "0x60808060405234601557615593908161001a8239f35b5f80fdfe6102606040526004361015610012575f80fd5b5f3560e01c63e9dc637514610025575f80fd5b34613e1f576040366003190112613e1f576004356001600160a01b038116808203613e1f57610055610260614384565b5f61026081905260606102808190526102a08281526102c0829052610300829052610320829052610340919091526103609182526102e083905292909161009b906143ff565b610300526102e05160405163a80fc07160e01b81526024803560048301529091602091839182906001600160a01b03165afa8015614265576001600160801b03915f91614344575b501683526102e05160405163523babb960e11b81526024803560048301529091602091839182906001600160a01b03165afa908115614265575f916142fb575b506001600160a01b0361013b91168061026052614520565b610280526102e051604051632b4d7bf560e21b81526024803560048301529091602091839182906001600160a01b03165afa8015614265575f906142be575b61018491506146c8565b610320526102e051604051634869e12d60e01b81526024803560048301529091602091839182906001600160a01b03165afa908115614265575f9161428f575b5083516001600160801b0316906001600160801b031661271002906101e89161478c565b825260405160208101914683526bffffffffffffffffffffffff199060601b1660408201526024356054820152605481526102246074826143a1565b519020918260101c61ffff166101689006928060081c60ff16605090069060ff16604690069363ffffffff1661025990614c7e565b9060140163ffffffff1661026c90614c7e565b93601e0163ffffffff1661027f90614c7e565b60405194859260208401630d0e6d8560e31b9052805190816024860191602001916102a992614363565b830160248101600b60fa1b9052815191826025830191602001916102cc92614363565b016024016001810161094b60f21b9052815191826003830191602001916102f292614363565b016001016002810161252960f01b905203600201601d198101845260020161031a90846143a1565b516001600160801b0316610260516001600160a01b031661033a906147aa565b60ff16610346916148c5565b90610260516001600160a01b031661035d906143ff565b610280516102e051604051635e15f0df60e11b8152602435600482015290819081906001600160a01b03165a92602491602094fa8015614265576024915f91614270575b506102e051604051639067b67760e01b8152833560048201529260209184919082906001600160a01b03165afa80156142655764ffffffffff80916103f0945f91614236575b50169116614b08565b9060a061026001519284519461045e60016104186064610411818b0661502f565b9904614c7e565b602060405199826104328c94518092858088019101614363565b830161044682518093858085019101614363565b0101602560f81b815203601e198101895201876143a1565b519560c06102600151976040516101a05261047b6101a051614384565b6101a0515260206101a051015260406101a051015260606101a051015260806101a051015260a06101a051015260c06101a051015260e06101a05101526101006101a051015260405161016052610160516101c061016051011067ffffffffffffffff6101c061016051011117614222576101c06101605101604052606061016051525f60206101605101525f60406101605101526060806101605101525f6080610160510152606060a06101605101525f60c06101605101525f60e061016051015260606101006101605101525f6101206101605101525f6101406101605101526060610160805101525f6101806101605101525f6101a061016051015260c06101a051015161078261086160046007602760586105a660e06101a05101516101a05151906150f9565b60b76105b15f6153e2565b985f610240526020610240526105d96040516105d061024051826143a1565b5f815284615559565b1561421857601b60909a5b6105ed8c614c7e565b906040519b8c988993661e339034b21e9160c91b61024051860152835161061d8184610240518801980188614363565b8b017f222066696c6c3d2223666666223e000000000000000000000000000000000000838201527f3c726563742077696474683d220000000000000000000000000000000000000060358201526106808251809360428401906102405101614363565b0101917f22206865696768743d22313030222066696c6c2d6f7061636974793d222e3033858401527f222072783d223135222072793d22313522207374726f6b653d22236666662220603b8401527f7374726f6b652d6f7061636974793d222e3122207374726f6b652d7769647468605b840152651e911a11179f60d11b607b8401527f3c7465787420783d2232302220793d2233342220666f6e742d66616d696c793d60818401527f2227436f7572696572204e6577272c417269616c2c6d6f6e6f7370616365222060a18401527f666f6e742d73697a653d2232327078223e00000000000000000000000000000060c184015251809360d2840190614363565b0101661e17ba32bc3a1f60c91b838201527f3c7465787420783d2232302220793d2237322220666f6e742d66616d696c793d60be8201527f2227436f7572696572204e6577272c417269616c2c6d6f6e6f7370616365222060de8201527f666f6e742d73697a653d2232367078223e00000000000000000000000000000060fe82015261081c8251809361010f8401906102405101614363565b0101661e17ba32bc3a1f60c91b8382015261084382518093605f8401906102405101614363565b0101631e17b39f60e11b838201520301601b198101845201826143a1565b6101006101605101526101206101605101526101006101a05101516107826108d5600460076027605860405161089a61024051826143a1565b5f815260b76108a960016153e2565b98601b60286108b78c615495565b6108c0846154f7565b8082111561421157505b019a6105ed8c614c7e565b6101608051015261018061016051015260206101a051015161078261091a600460076027605860405161090b61024051826143a1565b5f815260b76108a960026153e2565b61016051526020610160510152602860806101a051015160405161094161024051826143a1565b5f815261078261098b600460076027605861095c60036153e2565b9660b761096889615495565b6109718b6154f7565b808211156142095750995b601b8c8c019a6105ed8c614c7e565b60a061016051015260c0610160510152602061016051015101016101206101605101510161018061016051015101603081016080610160510152602f19906103e8030160011c8061014061016051015261012061016051015101601081016101a061016051015261018061016051015101610240518101604061016051015260106102405191602061016051015101010160e0610160510152610a4b6101006101605101516101608051015161016051519060a061016051015192614858565b61016051606001526101006101208190526040516101e0819052610a6f91906143a1565b60c76101e051527f3c726563742077696474683d223130302522206865696768743d223130302522610240516101e05101527f2066696c7465723d2275726c28234e6f69736529222f3e3c7265637420783d2260406101e05101527f37302220793d223730222077696474683d2238363022206865696768743d223860606101e05101527f3630222066696c6c3d2223666666222066696c6c2d6f7061636974793d222e3060806101e05101527f33222072783d223435222072793d22343522207374726f6b653d22236666662260a06101e05101527f207374726f6b652d6f7061636974793d222e3122207374726f6b652d7769647460c06101e051015266341e911a11179f60c91b60e06101e05101526101a051516101006101a0510151906060610160510151610140525f6102205260606102205260405161020052610bbe61022051610200516143a1565b603361020051527f3c636972636c652069643d22476c6f772220723d22353030222066696c6c3d22610240516102005101527f75726c282352616469616c476c6f7729222f3e00000000000000000000000000604061020051015261014060405190610c2a81836143a1565b61011c82527f3c66696c7465722069643d224e6f697365223e3c6665466c6f6f6420783d2230610240518301527f2220793d2230222077696474683d223130302522206865696768743d2231303060408301527f252220666c6f6f642d636f6c6f723d2268736c283233302c3231252c31312529610220518301527f2220666c6f6f642d6f7061636974793d22312220726573756c743d22666c6f6f60808301527f6446696c6c222f3e3c666554757262756c656e6365206261736546726571756560a08301527f6e63793d222e3422206e756d4f6374617665733d22332220726573756c743d2260c08301527f4e6f6973652220747970653d226672616374616c4e6f697365222f3e3c66654260e08301527f6c656e6420696e3d224e6f6973652220696e323d22666c6f6f6446696c6c2220610120518301527f6d6f64653d22736f66742d6c69676874222f3e3c2f66696c7465723e000000006101208301525f6101c0526103a06101c0526117ef61176a6073606b60405196610db36101c051896143a1565b61037b88527f3c706174682069643d224c6f676f222066696c6c3d2223666666222066696c6c610240518901527f2d6f7061636974793d222e312220643d226d3133332e3535392c3132342e303360408901527f34632d2e3031332c322e3431322d312e3035392c342e3834382d322e3932332c610220518901527f362e3430322d322e3535382c312e3831392d352e3136382c332e3433392d372e60808901527f3838382c342e3939362d31342e34342c382e3236322d33312e3034372c31322e60a08901527f3536352d34372e3637342c31322e3536392d382e3835382e3033362d31372e3860c08901527f33382d312e3237322d32362e3332382d332e3636332d392e3830362d322e373660e08901527f362d31392e3038372d372e3131332d32372e3536322d31322e3737382d31332e610120518901527f3834322d382e3032352c392e3436382d32382e3630362c31362e3135332d33356101208901527f2e323635683063322e3033352d312e3833382c342e3235322d332e3534362c36868901527f2e3436332d352e323234683063362e3432392d352e3635352c31362e3231382d6101608901527f322e3833352c32302e3335382c342e31372c342e3134332c352e3035372c382e6101808901527f3831362c392e3634392c31332e39322c31332e373334682e30333763352e37336101a08901527f362c362e3436312c31352e3335372d322e3235332c392e33382d382e34382c306101c08901527f2c302d332e3531352d332e3531352d332e3531352d332e3531352d31312e34396101e08901527f2d31312e3437382d35322e3635362d35322e3636342d36342e3833372d36342e6102008901527f3833376c2e3034392d2e303337632d312e3732352d312e3630362d322e3731396102208901527f2d332e3834372d322e3735312d362e3230346830632d2e3034362d322e3337356102408901527f2c312e3036322d342e3538322c322e3732362d362e32323968306c2e3138352d6102608901527f2e3134386830632e3039392d2e3036322c2e3232322d2e3134382c2e33372d2e6102808901527f323539683063322e30362d312e3336322c332e3935312d322e3632312c362e306102a08901527f34342d332e3834324335372e3736332d332e3437332c39372e37362d322e33346102c08901527f312c3132382e3633372c31382e3333326331362e3637312c392e3934362d32366102e08901527f2e3334342c35342e3831332d33382e3635312c34302e3139392d362e3239392d6103008901527f362e3039362d31382e3036332d31372e3734332d31392e3636382d31382e38316103208901527f312d362e3031362d342e3034372d31332e3036312c342e3737362d372e3735326103408901527f2c392e3735316c36382e3235342c36382e33373163312e3732342c312e3630316103608901527f2c322e3731342c332e38342c322e3733382c362e3139325a222f3e00000000006103808901525f6101805260a06101805260405160a0526112186101805160a0516143a1565b607560a051527f3c706174682069643d22466c6f6174696e6754657874222066696c6c3d226e6f6102405160a05101527f6e652220643d224d313235203435683735307338302030203830203830763735604060a05101527f307330203830202d3830203830682d373530732d38302030202d3830202d38306102205160a05101527f762d3735307330202d3830203830202d3830222f3e0000000000000000000000608060a05101526117ea601460226112d16150be565b9360a2604051957f3c72616469616c4772616469656e742069643d2252616469616c476c6f77223e610240518801527f3c73746f70206f66667365743d223025222073746f702d636f6c6f723d22000060408801526114066025603589605e87519561024051890196611347818486018a614363565b83017f222073746f702d6f7061636974793d222e36222f3e0000000000000000000000838201528f7f3c73746f70206f66667365743d2231303025222073746f702d636f6c6f723d22908201526113aa8251809360938401906102405101614363565b01017f222073746f702d6f7061636974793d2230222f3e000000000000000000000000838201527f3c2f72616469616c4772616469656e743e00000000000000000000000000000060498201520301600581018a5201886143a1565b61151d8560236114146150be565b6040519b8c917f3c6c696e6561724772616469656e742069643d2253616e64546f70222078313d610240518401527f223025222079313d223025223e0000000000000000000000000000000000000060408401527f3c73746f70206f66667365743d223025222073746f702d636f6c6f723d220000604d840152885161149d818486018a614363565b83016211179f60e91b838201527f3c73746f70206f66667365743d2231303025222073746f702d636f6c6f723d22606e8201526114e682518093608e8401906102405101614363565b01016211179f60e91b83820152701e17b634b732b0b923b930b234b2b73a1f60791b60268201520301600b1981018b5201896143a1565b6116a76072602361152c6150be565b6040519c8d917f3c6c696e6561724772616469656e742069643d2253616e64426f74746f6d2220610240518401527f78313d2231303025222079313d2231303025223e00000000000000000000000060408401527f3c73746f70206f66667365743d22313025222073746f702d636f6c6f723d220060548401526115bb81518092848601906102405101614363565b82016211179f60e91b828201527f3c73746f70206f66667365743d2231303025222073746f702d636f6c6f723d2260768201528851906115ff82609683018a614363565b01016211179f60e91b838201527f3c616e696d617465206174747269627574654e616d653d22783122206475723d60268201527f2236732220726570656174436f756e743d22696e646566696e6974652220766160468201527f6c7565733d223330253b3630253b313230253b3630253b3330253b222f3e00006066820152701e17b634b732b0b923b930b234b2b73a1f60791b60848201520301605281018c52018a6143a1565b6116af6150be565b906040519a8b947f3c6c696e6561724772616469656e742069643d22486f7572676c617373537472610240518701527f6f6b6522206772616469656e745472616e73666f726d3d22726f74617465283960408701527f302922206772616469656e74556e6974733d227573657253706163654f6e5573610220518701526232911f60e91b60808701527f3c73746f70206f66667365743d22353025222073746f702d636f6c6f723d2200608387015251809285870190614363565b83016211179f60e91b838201527f3c73746f70206f66667365743d22383025222073746f702d636f6c6f723d220060a58201526117b38251809360c48401906102405101614363565b01016211179f60e91b83820152701e17b634b732b0b923b930b234b2b73a1f60791b60258201520301600b198101875201856143a1565b614858565b60e0526118036117fd61467d565b85615559565b9384156141ee575b5060c0610100819052604051919061182390836143a1565b609082527f3c7061746820643d224d2035302c3336302061203330302c333030203020312c610240518301527f31203630302c302061203330302c333030203020312c31202d3630302c30222060408301527f66696c6c3d2223666666222066696c6c2d6f7061636974793d222e3032222073610220518301527f74726f6b653d2275726c2823486f7572676c6173735374726f6b65292220737460808301527f726f6b652d77696474683d2234222f3e00000000000000000000000000000000610180518301526102c060405160c0526119008160c0516143a1565b61029860c051527f3c7061746820643d226d3536362c3136312e323031762d35332e39323463302d6102405160c05101527f31392e3338322d32322e3531332d33372e3536332d36332e3339382d35312e31604060c05101527f39382d34302e3735362d31332e3539322d39342e3934362d32312e3037392d316102205160c05101527f35322e3538372d32312e303739732d3131312e3833382c372e3438372d313532608060c05101527f2e3630322c32312e303739632d34302e3839332c31332e3633362d36332e34316101805160c05101527f332c33312e3831362d36332e3431332c35312e3139387635332e39323463302c6101005160c05101527f31372e3138312c31372e3730342c33332e3432372c35302e3232332c34362e3360e060c05101527f3934763238342e383039632d33322e3531392c31322e39362d35302e3232332c6101205160c05101527f32392e3230362d35302e3232332c34362e3339347635332e39323463302c313961012060c05101527f2e3338322c32322e35322c33372e3536332c36332e3431332c35312e3139382c8260c05101527f34302e3736332c31332e3539322c39342e3935342c32312e3037392c3135322e61016060c05101527f3630322c32312e303739733131312e3833312d372e3438372c3135322e35383761018060c05101527f2d32312e3037396334302e3838362d31332e3633362c36332e3339382d33312e6101a060c05101527f3831362c36332e3339382d35312e313938762d35332e39323463302d31372e316101c060c05101527f39362d31372e3730342d33332e3433352d35302e3232332d34362e34303156326101e060c05101527f30372e3630336333322e3531392d31322e3936372c35302e3232332d32392e3261020060c05101527f30362c35302e3232332d34362e3430315a6d2d3334372e3436322c35372e373961022060c05101527f336c3133302e3935392c3133312e3032372d3133302e3935392c3133312e303161024060c05101527f33563231382e3939345a6d3236322e3932342e303232763236322e3031386c2d61026060c05101527f3133302e3933372d3133312e3030362c3133302e3933372d3133312e3031335a61028060c05101527f222066696c6c3d2223313631383232223e3c2f706174683e00000000000000006102a060c0510152855f14613fd957604051611c7b61024051826143a1565b5f8152955b15613e8657604051611c946101e0826143a1565b6101b181527f3c7061746820643d226d3438312e34362c3438312e35347638312e3031632d32610240518201527f2e33352e37372d342e38322c312e35312d372e33392c322e32332d33302e332c60408201527f382e35342d37342e36352c31332e39322d3132342e30362c31332e39322d3533610220518201527f2e362c302d3130312e32342d362e33332d3133312e34372d31362e3136762d3860808201527f316c34362e332d34362e3331683137302e33336c34362e32392c34362e33315a610180518201527f222066696c6c3d2275726c282353616e64426f74746f6d29222f3e3c70617468610100518201527f20643d226d3433352e31372c3433352e323363302c312e31372d2e34362c322e60e08201527f33322d312e33332c332e34342d372e31312c392e30382d34312e39332c31352e610120518201527f39382d38332e38312c31352e3938732d37362e372d362e392d38332e38322d316101208201527f352e3938632d2e38372d312e31322d312e33332d322e32372d312e33332d332e838201527f3434762d2e30346c382e33342d382e33352e30312d2e30316331332e37322d366101608201527f2e35312c34322e39352d31312e30322c37362e382d31312e30327336322e39376101808201527f2c342e34392c37362e37322c31316c382e34322c382e34325a222066696c6c3d6101a08201527f2275726c282353616e64546f7029222f3e0000000000000000000000000000006101c0820152905b60405192611ecd6107e0856143a1565b6107a7845261024080517f3c672066696c6c3d226e6f6e6522207374726f6b653d2275726c2823486f7572908601527f676c6173735374726f6b652922207374726f6b652d6c696e656361703d22726f60408087019190915261022080517f756e6422207374726f6b652d6d697465726c696d69743d22313022207374726f908801527f6b652d77696474683d2234223e3c7061746820643d226d3536352e3634312c31608088015261018080517f30372e323863302c392e3533372d352e35362c31382e3632392d31352e36373690890152610100517f2c32362e393733682d2e303233632d392e3230342c372e3539362d32322e3139908901527f342c31342e3536322d33382e3139372c32302e3539322d33392e3530342c313460e089015261012080517f2e3933362d39372e3332352c32342e3335352d3136312e3733332c32342e3335908a01527f352d39302e34382c302d3136372e3934382d31382e3538322d3139392e393533908901527f2d34342e393438682d2e303233632d31302e3131352d382e3334342d31352e36948801949094527f37362d31372e3433372d31352e3637362d32362e3937332c302d33392e3733356101608801527f2c39362e3535342d37312e3932312c3231352e3635322d37312e393231733231938701939093527f352e3632392c33322e3138352c3231352e3632392c37312e3932315a222f3e3c6101a08701527f7061746820643d226d3133342e33362c3136312e32303363302c33392e3733356101c0808801919091527f2c39362e3535342c37312e3932312c3231352e3635322c37312e3932317332316101e08801527f352e3632392d33322e3138362c3231352e3632392d37312e393231222f3e3c6c6102008801527f696e652078313d223133342e3336222079313d223136312e323033222078323d938701939093527f223133342e3336222079323d223130372e3238222f3e3c6c696e652078313d22828701527f3536352e3634222079313d223136312e323033222078323d223536352e3634226102608701527f2079323d223130372e3238222f3e3c6c696e652078313d223138342e353834226102808701527f2079313d223230362e383233222078323d223138342e353835222079323d22356102a08701527f33372e353739222f3e3c6c696e652078313d223231382e313831222079313d22938601939093527f3231382e313138222078323d223231382e313831222079323d223536322e35336102e08601527f37222f3e3c6c696e652078313d223438312e383138222079313d223231382e316103008601527f3432222078323d223438312e383139222079323d223536322e343238222f3e3c6103208601527f6c696e652078313d223531352e343135222079313d223230372e3335322220786103408601527f323d223531352e343136222079323d223533372e353739222f3e3c70617468206103608601527f643d226d3138342e35382c3533372e353863302c352e34352c342e32372c313061038086015290517f2e36352c31322e30332c31352e3432682e303263352e35312c332e33392c3132908501527f2e37392c362e35352c32312e35352c392e34322c33302e32312c392e392c37386103c08501527f2e30322c31362e32382c3133312e38332c31362e32382c34392e34312c302c396103e08501527f332e37362d352e33382c3132342e30362d31332e39322c322e372d2e37362c356104008501527f2e32392d312e35342c372e37352d322e33352c382e37372d322e38372c31362e6104208501527f30352d362e30342c32312e35362d392e3433683063372e37362d342e37372c316104408501527f322e30342d392e39372c31322e30342d31352e3432222f3e3c7061746820643d6104608501527f226d3138342e3538322c3439322e363536632d33312e3335342c31322e3438356104808501527f2d35302e3232332c32382e35382d35302e3232332c34362e3134322c302c392e6104a08501527f3533362c352e3536342c31382e3632372c31352e3637372c32362e393639682e6104c08501527f30323263382e3530332c372e3030352c32302e3231332c31332e3436332c33346104e08501527f2e3532342c31392e3135392c392e3939392c332e3939312c32312e3236392c376105008501527f2e3630392c33332e3539372c31302e3738382c33362e34352c392e3430372c386105208501527f322e3138312c31352e3030322c3133312e3833352c31352e3030327339352e336105408501527f36332d352e3539352c3133312e3830372d31352e3030326331302e3834372d326105608501527f2e37392c32302e3836372d352e3932362c32392e3932342d392e3334392c312e6105808501527f3234342d2e3436372c322e3437332d2e3934322c332e3637332d312e3432342c6105a08501527f31342e3332362d352e3639362c32362e3033352d31322e3136312c33342e35326105c08501527f342d31392e313733682e3032326331302e3131342d382e3334322c31352e36376105e08501527f372d31372e3433332c31352e3637372d32362e3936392c302d31372e3536322d6106008501527f31382e3836392d33332e3636352d35302e3232332d34362e3135222f3e3c70616106208501527f746820643d226d3133342e33362c3539322e373263302c33392e3733352c39366106408501527f2e3535342c37312e3932312c3231352e3635322c37312e393231733231352e366106608501527f32392d33322e3138362c3231352e3632392d37312e393231222f3e3c6c696e656106808501527f2078313d223133342e3336222079313d223539322e3732222078323d223133346106a08501527f2e3336222079323d223533382e373937222f3e3c6c696e652078313d223536356106c08501527f2e3634222079313d223539322e3732222078323d223536352e3634222079323d6106e08501527f223533382e373937222f3e3c706f6c796c696e6520706f696e74733d223438316107008501527f2e383232203438312e393031203438312e373938203438312e383737203438316107208501527f2e373735203438312e383534203335302e303135203335302e303236203231386107408501527f2e313835203231382e313239222f3e3c706f6c796c696e6520706f696e74733d6107608501527f223231382e313835203438312e393031203231382e323331203438312e3835346107808501527f203335302e303135203335302e303236203438312e383232203231382e3135326107a08501526611179f1e17b39f60c91b6107c0850152905181517f3c672069643d22486f7572676c617373223e0000000000000000000000000000908201528451915190978895909291612886918391603289019101614363565b840160c051519060328101826102405160c05101916128a492614363565b0160320180825180936102405101916128bc92614363565b0180825180936102405101916128d192614363565b0180825180936102405101916128e692614363565b01631e17b39f60e11b815203601b198101845260040161290690846143a1565b6040516080526102405160805101651e3232b3399f60d11b90526102005151608051602601816102405161020051019161293f92614363565b6080510181519182602683019161024051019161295b92614363565b01602601808251809361024051019161297392614363565b0160a051519080826102405160a051019161298d92614363565b0160e051519080826102405160e05101916129a792614363565b0180825180936102405101916129bc92614363565b016101405151908082610240516101405101916129d892614363565b01661e17b232b3399f60c91b8152608051900360181981016080515260070160805190612a04916143a1565b6101a05160a001516101a051604001516101a05160600151612a2583615328565b906040938451612a3586826143a1565b60058152610240518101642d3130302560d81b90528551938491610240518301761e3a32bc3a2830ba341039ba30b93a27b33339b2ba1e9160491b9052805190816037850191610240510191612a8a92614363565b7f2220687265663d2223466c6f6174696e6754657874222066696c6c3d222366666037918401918201527f662220666f6e742d66616d696c793d2227436f7572696572204e6577272c417260578201527f69616c2c6d6f6e6f7370616365222066696c6c2d6f7061636974793d222e3822607782015271103337b73a16b9b4bd329e91191b383c111f60711b60978201527f3c616e696d6174652061646469746976653d2273756d2220617474726962757460a98201527f654e616d653d2273746172744f66667365742220626567696e3d22307322206460c98201527f75723d22353073222066726f6d3d2230252220726570656174436f756e743d2260e98201527634b73232b334b734ba3291103a379e911898181291179f60491b6101098201528151610240519092612bc891849161012085019101614363565b0160370160e981016a1e17ba32bc3a2830ba341f60a91b90520360e90160141981018452600b01612bf990846143a1565b612c0290615328565b928451612c0f86826143a1565b600281526102405181019461302560f01b86528651958692610240518401761e3a32bc3a2830ba341039ba30b93a27b33339b2ba1e9160491b905251908160378501612c5a92614363565b7f2220687265663d2223466c6f6174696e6754657874222066696c6c3d222366666037918401918201527f662220666f6e742d66616d696c793d2227436f7572696572204e6577272c417260578201527f69616c2c6d6f6e6f7370616365222066696c6c2d6f7061636974793d222e3822607782015271103337b73a16b9b4bd329e91191b383c111f60711b60978201527f3c616e696d6174652061646469746976653d2273756d2220617474726962757460a98201527f654e616d653d2273746172744f66667365742220626567696e3d22307322206460c98201527f75723d22353073222066726f6d3d2230252220726570656174436f756e743d2260e98201527634b73232b334b734ba3291103a379e911898181291179f60491b6101098201528151610240519092612d9891849161012085019101614363565b0160370160e981016a1e17ba32bc3a2830ba341f60a91b90520360e90160141981018552600b01612dc990856143a1565b612dd3828261538c565b918551612de087826143a1565b6004815261024051810193632d35302560e01b85528751948592610240518401761e3a32bc3a2830ba341039ba30b93a27b33339b2ba1e9160491b905251908160378501612e2d92614363565b7f2220687265663d2223466c6f6174696e6754657874222066696c6c3d222366666037918401918201527f662220666f6e742d66616d696c793d2227436f7572696572204e6577272c417260578201527f69616c2c6d6f6e6f7370616365222066696c6c2d6f7061636974793d222e3822607782015271103337b73a16b9b4bd329e91191b383c111f60711b60978201527f3c616e696d6174652061646469746976653d2273756d2220617474726962757460a98201527f654e616d653d2273746172744f66667365742220626567696e3d22307322206460c98201527f75723d22353073222066726f6d3d2230252220726570656174436f756e743d2260e98201527634b73232b334b734ba3291103a379e911898181291179f60491b6101098201528151610240519092612f6b91849161012085019101614363565b0160370160e981016a1e17ba32bc3a2830ba341f60a91b90520360e90160141981018452600b01612f9c90846143a1565b612fa59161538c565b908451612fb286826143a1565b60038152610240518101926235302560e81b84528651938492610240518401761e3a32bc3a2830ba341039ba30b93a27b33339b2ba1e9160491b905251908160378501612ffe92614363565b7f2220687265663d2223466c6f6174696e6754657874222066696c6c3d222366666037918401918201527f662220666f6e742d66616d696c793d2227436f7572696572204e6577272c417260578201527f69616c2c6d6f6e6f7370616365222066696c6c2d6f7061636974793d222e3822607782015271103337b73a16b9b4bd329e91191b383c111f60711b60978201527f3c616e696d6174652061646469746976653d2273756d2220617474726962757460a98201527f654e616d653d2273746172744f66667365742220626567696e3d22307322206460c98201527f75723d22353073222066726f6d3d2230252220726570656174436f756e743d2260e98201527634b73232b334b734ba3291103a379e911898181291179f60491b610109820152815161024051909261313c91849161012085019101614363565b0160370160e981016a1e17ba32bc3a2830ba341f60a91b90520360e90160141981018352600b0161316d90836143a1565b84519384936102405185017f3c7465787420746578742d72656e646572696e673d226f7074696d697a65537090526432b2b2111f60d91b878601528051908160458701916102405101916131c092614363565b84018151918260458301916102405101916131da92614363565b0160450180825180936102405101916131f292614363565b01808251809361024051019161320792614363565b01661e17ba32bc3a1f60c91b8152036018198101825260070161322a90826143a1565b61016051610140015190610160516101a0015161016051604001516101605160e001519361325790614c7e565b9161326190614c7e565b9061326b90614c7e565b9361327590614c7e565b855161024080517f3c75736520687265663d2223476c6f77222066696c6c2d6f7061636974793d2290830190815264171c91179f60d91b838a01527f3c75736520687265663d2223476c6f772220783d22313030302220793d22313060458401527f3030222066696c6c2d6f7061636974793d222e39222f3e00000000000000000060658401527f3c75736520687265663d22234c6f676f2220783d223137302220793d22313730607c8401527f22207472616e73666f726d3d227363616c65282e3629222f3e3c757365206872609c8401527f65663d2223486f7572676c6173732220783d223135302220793d22393022207460bc8401527f72616e73666f726d3d22726f746174652831302922207472616e73666f726d2d60dc8401527f6f726967696e3d2235303020353030222f3e000000000000000000000000000060fc8401527f3c75736520687265663d222350726f67726573732220783d220000000000000061010e84015285519151929790958895919391929161340291839161012789019101614363565b84016a11103c9e911b9c9811179f60a91b61012782015261013281017f3c75736520687265663d22235374617475732220783d2200000000000000000090528151918261014983019161024051019161345a92614363565b01610127016a11103c9e911b9c9811179f60a91b6022820152602d81017f3c75736520687265663d2223416d6f756e742220783d2200000000000000000090528151918260448301916102405101916134b292614363565b016022016a11103c9e911b9c9811179f60a91b6022820152602d81017f3c75736520687265663d22234475726174696f6e2220783d2200000000000000905281519182604683019161024051019161350992614363565b016022016a11103c9e911b9c9811179f60a91b60248201520360240160141981018452600b0161353990846143a1565b83519283926102405184017f3c73766720786d6c6e733d22687474703a2f2f7777772e77332e6f72672f323090528584017f30302f737667222077696474683d223130303022206865696768743d2231303090526102205184017f30222076696577426f783d2230203020313030302031303030223e000000000090526101e05151607b850181610240516101e05101916135d392614363565b84016080515190607b8101826102405160805101916135f192614363565b01607b01808251809361024051019161360992614363565b0191829151809361361992614363565b01651e17b9bb339f60d11b8152036019198101825260060161363b90826143a1565b61034052610280516102e0518251635cb8981560e11b8152602435600482015261024051909182906001600160a01b0316815a91602492fa908115613e7c575f91613e34575b506003602361369261378f936143ff565b938160c061026001518780519788947f5b7b2274726169745f74797065223a22546f6b656e222c2276616c7565223a22610240518701526136de81518092858901906102405101614363565b85017f227d2c7b2274726169745f74797065223a2253656e646572222c2276616c75658382015262111d1160e91b610220518201526137298251809360638401906102405101614363565b01017f227d2c7b2274726169745f74797065223a22537461747573222c2276616c75658382015262111d1160e91b60438201526137728251809360468401906102405101614363565b010162227d5d60e81b838201520301601c198101845201826143a1565b6102805161030051610260519192916137b0906001600160a01b03166143ff565b926137bc602435614c7e565b936001600160a01b03608061026001511686519063b256456960e01b825260243560048301528160248161024051935afa908115613e2a575f91613de6575b5015613d5a576101005186519061381290826143a1565b609b81527fe29aa0efb88f205741524e494e473a205472616e7366657272696e6720746865610240518201527f204e4654206d616b657320746865206e6577206f776e65722074686520726563878201527f697069656e74206f66207468652073747265616d2e205468652066756e647320610220518201527f617265206e6f74206175746f6d61746963616c6c792077697468647261776e2060808201527f666f72207468652070726576696f757320726563697069656e742e000000000061018051820152905b8651958693610240518501957f54686973204e465420726570726573656e747320612073747265616d20696e2087528986017f61205361626c696572204c6f636b757020636f6e74726163742e20546865206f90526102205186017f776e6572206f662074686973204e46542063616e2077697468647261772074689052608086017f652073747265616d656420746f6b656e732c207768696368206172652064656e90526101805186017f6f6d696e6174656420696e2000000000000000000000000000000000000000009052815192610240518301938060ac8901906139c39187614363565b870160ac81017f2e5c6e5c6e2d2053747265616d2049443a20000000000000000000000000000090528151918260be830191610240510191613a0492614363565b0160ac01601281016302e3716960e51b9052601681017f5361626c696572204c6f636b757020416464726573733a200000000000000000905281519182602e830191610240510191613a5592614363565b0160120190601c82016302e3716960e51b9052519182610240518301613a7a92614363565b01601c01600481016901020b2323932b9b99d160b51b905281519182600e830191610240510191613aaa92614363565b01600401600a8101632e372e3760e11b905281519182600e830191610240510191613ad492614363565b01600a0103600401601f1981018452613aed90846143a1565b613af8602435614c7e565b845180610240518101927f5361626c696572204c6f636b75702023000000000000000000000000000000008452805190816030840191610240510191613b3d92614363565b810103603001601f1981018252613b5490826143a1565b61034051613b6190614dd0565b9286519586956102405187017f7b2261747472696275746573223a000000000000000000000000000000000000905280519081602e890191610240510191613ba892614363565b860190602e82017f2c226465736372697074696f6e223a22000000000000000000000000000000009052519182603e8301613be292614363565b01602e0190601082017f222c2265787465726e616c5f75726c223a2268747470733a2f2f7361626c69659052603082017f722e636f6d222c226e616d65223a2200000000000000000000000000000000009052519182603f8301613c4592614363565b01601001602f81017f222c22696d616765223a22646174613a696d6167652f7376672b786d6c3b62619052604f8101641cd94d8d0b60da1b9052815191826054830191610240510191613c9792614363565b01602f0161227d60f01b602582015203602501601d1981018252600201613cbe90826143a1565b6102c0819052613ccd90614dd0565b90805180610240518101937f646174613a6170706c69636174696f6e2f6a736f6e3b6261736536342c000000855280519081603d840191610240510191613d1392614363565b810103603d01601f1981018252613d2a90826143a1565b81519283916102405183525190816102405184015281848401613d4c92614363565b601f01601f19168101030190f35b8551613d676080826143a1565b605b81527fe29d95494e464f3a2054686973204e4654206973206e6f6e2d7472616e736665610240518201527f7261626c652e2049742063616e6e6f7420626520736f6c64206f72207472616e878201527f7366657272656420746f20616e6f74686572206163636f756e742e000000000061022051820152906138db565b9050610240513d6102405111613e23575b613e0181836143a1565b81610240519181010312613e1f57518015158103613e1f575f6137fb565b5f80fd5b503d613df7565b87513d5f823e3d90fd5b9050610240513d6102405111613e75575b613e4f81836143a1565b81610240519181010312613e1f57516001600160a01b0381168103613e1f576003613681565b503d613e45565b83513d5f823e3d90fd5b604051613e95610120826143a1565b60f881527f3c7061746820643d226d3438312e34362c3530342e3130317635382e34343963610240518201527f2d322e33352e37372d342e38322c312e35312d372e33392c322e32332d33302e60408201527f332c382e35342d37342e36352c31332e39322d3132342e30362c31332e39322d610220518201527f35332e362c302d3130312e32342d362e33332d3133312e34372d31362e31367660808201527f2d35382e343339683236322e39325a222066696c6c3d2275726c282353616e64610180518201527f426f74746f6d29222f3e3c656c6c697073652063783d22333530222063793d22610100518201527f3530342e313031222072783d223133312e343632222072793d2232382e31303860e08201527f222066696c6c3d2275726c282353616e64546f7029222f3e00000000000000006101205182015290611ebd565b604051613fe86101c0826143a1565b61019981527f3c706f6c79676f6e20706f696e74733d22333530203335302e30323620343135610240518201527f2e3033203238342e39373820323835203238342e39373820333530203335302e60408201527f303236222066696c6c3d2275726c282353616e64426f74746f6d29222f3e3c70610220518201527f61746820643d226d3431362e3334312c3238312e39373563302c2e3931342d2e60808201527f3335342c312e3830392d312e3033352c322e36382d352e3534322c372e303736610180518201527f2d33322e3636312c31322e34352d36352e32382c31322e34352d33322e363234610100518201527f2c302d35392e3733382d352e3337342d36352e32382d31322e34352d2e36383160e08201527f2d2e3837322d312e3033352d312e3736372d312e3033352d322e36382c302d2e610120518201527f3931342e3335342d312e3830382c312e3033352d322e3637362c352e3534322d6101208201527f372e3037362c33322e3635362d31322e34352c36352e32382d31322e34352c33838201527f322e3631392c302c35392e3733382c352e3337342c36352e32382c31322e34356101608201527f2e3638312e3836372c312e3033352c312e3736322c312e3033352c322e3637366101808201527f5a222066696c6c3d2275726c282353616e64546f7029222f3e000000000000006101a082015295611c80565b6142029194506141fc6146a2565b90615559565b925f61180b565b90509961097c565b90506108ca565b601b60d09a6105e4565b634e487b7160e01b5f52604160045260245ffd5b614258915060203d60201161425e575b61425081836143a1565b8101906143e2565b5f6103e7565b503d614246565b6040513d5f823e3d90fd5b614289915060203d60201161425e5761425081836143a1565b5f6103a1565b6142b1915060203d6020116142b7575b6142a981836143a1565b8101906143c3565b5f6101c4565b503d61429f565b506020813d6020116142f3575b816142d8602093836143a1565b81010312613e1f57516005811015613e1f576101849061017a565b3d91506142cb565b90506020813d60201161433c575b81614316602093836143a1565b81010312613e1f57516001600160a01b0381168103613e1f576001600160a01b03610123565b3d9150614309565b61435d915060203d6020116142b7576142a981836143a1565b5f6100e3565b5f5b8381106143745750505f910152565b8181015183820152602001614365565b610120810190811067ffffffffffffffff82111761422257604052565b90601f8019910116810190811067ffffffffffffffff82111761422257604052565b90816020910312613e1f57516001600160801b0381168103613e1f5790565b90816020910312613e1f575164ffffffffff81168103613e1f5790565b6001600160a01b031680604051916144186060846143a1565b602a83526020830160403682378351156144c157603090538251600110156144c1576078602184015360295b6001811161446c5750614455575090565b63e22e27eb60e01b5f52600452601460245260445ffd5b90600f811660108110156144c1576f181899199a1a9b1b9c1cb0b131b232b360811b901a61449a8386614f3b565b5360041c9080156144ad575f1901614444565b634e487b7160e01b5f52601160045260245ffd5b634e487b7160e01b5f52603260045260245ffd5b67ffffffffffffffff811161422257601f01601f191660200190565b3d1561451b573d90614502826144d5565b9161451060405193846143a1565b82523d5f602084013e565b606090565b5f809160405160208101906395d89b4160e01b8252600481526145446024826143a1565b51915afa6145506144f1565b90158015614671575b61464d578051810190602081818401930312613e1f5760208101519067ffffffffffffffff8211613e1f570181603f82011215613e1f57602081015161459e816144d5565b926145ac60405194856143a1565b81845260408383010111613e1f576145cb916040602085019101614363565b601e8151115f1461460057506040516145e56040826143a1565b600b81526a131bdb99c814de5b589bdb60aa1b602082015290565b61460981614f4c565b156146115790565b506040516146206040826143a1565b601281527f556e737570706f727465642053796d626f6c0000000000000000000000000000602082015290565b5060405161465c6040826143a1565b6005815264045524332360dc1b602082015290565b50604081511115614559565b6040519061468c6040836143a1565b600782526614d95d1d1b195960ca1b6020830152565b604051906146b16040836143a1565b600882526711195c1b195d195960c21b6020830152565b600581101561477857600481036146e557506146e26146a2565b90565b6003810361471457506040516146fc6040826143a1565b600881526710d85b98d95b195960c21b602082015290565b60018103614744575060405161472b6040826143a1565b600981526853747265616d696e6760b81b602082015290565b600203614753576146e261467d565b6040516147616040826143a1565b600781526650656e64696e6760c81b602082015290565b634e487b7160e01b5f52602160045260245ffd5b8115614796570490565b634e487b7160e01b5f52601260045260245ffd5b5f8091604051602081019063313ce56760e01b8252600481526147ce6024826143a1565b51915afa6147da6144f1565b9080614809575b1561480457602081805181010312613e1f576020015160ff81168103613e1f5790565b505f90565b5060208151146147e1565b604051906148236040836143a1565b60048252632667743b60e01b6020830152565b604051906148456040836143a1565b6004825263266c743b60e01b6020830152565b9061488394936148b460206148c3956148a6828096816040519c8d8b83829d51948593019101614363565b890161489782518093858085019101614363565b01019182815194859201614363565b019182815194859201614363565b0103601f1981018452836143a1565b565b908115614ae75780614ad457505b8060018110156149215750506148e7614836565b6146e260026020604051846149058296518092858086019101614363565b810161203160f01b838201520301601d198101845201826143a1565b66038d7ea4c680001115614a8b576040519060a0820182811067ffffffffffffffff8211176142225760405260209160405161495d84826143a1565b5f81528152604091825161497184826143a1565b60018152604b60f81b8582015284830152825161498e84826143a1565b60018152604d60f81b858201528383015282516149ab84826143a1565b60018152602160f91b85820152606083015282516149c984826143a1565b60018152601560fa1b8582015260808301525f905f945b6103e8821015614a71578451946149f781876143a1565b60078652662623383830353b60c81b8287015251945f5b60078110614a5e575050600160fd1b60278601525060088452614a4590614a3f90614a3a6028876143a1565b614c7e565b9161502f565b9160058510156144c1576146e29460051b015192614858565b8181018301518782018401528201614a0e565b9490915060016103e86064600a85040693049101946149e0565b50614a94614814565b6146e26008602060405184614ab28296518092858086019101614363565b810167080e4e4e4b8e4e5560c21b8382015203016017198101845201826143a1565b90614ae291600a0a9061478c565b6148d3565b5050604051614af76040826143a1565b60018152600360fc1b602082015290565b6201518091030480614b5b5750614b1d614836565b6146e26006602060405184614b3b8296518092858086019101614363565b81016520312044617960d01b8382015203016019198101845201826143a1565b61270f8111614c015760018103614bd5576146e2614b97604051614b806040826143a1565b60048152632044617960e01b602082015292614c7e565b60206040519382614bb18694518092858088019101614363565b8301614bc582518093858085019101614363565b010103601f1981018352826143a1565b6146e2614b97604051614be96040826143a1565b6005815264204461797360d81b602082015292614c7e565b50614c0a614814565b6146e2600a602060405184614c288296518092858086019101614363565b8101692039393939204461797360b01b8382015203016015198101845201826143a1565b90614c56826144d5565b614c6360405191826143a1565b8281528092614c74601f19916144d5565b0190602036910137565b805f917a184f03e93ff9f4daa797ed6e38ed64bf6a1f010000000000000000821015614da8575b806d04ee2d6d415b85acef8100000000600a921015614d8d575b662386f26fc10000811015614d79575b6305f5e100811015614d68575b612710811015614d59575b6064811015614d4b575b1015614d40575b600a6021614d0860018501614c4c565b938401015b5f1901916f181899199a1a9b1b9c1cb0b131b232b360811b8282061a8353048015614d3b57600a9091614d0d565b505090565b600190910190614cf8565b606460029104930192614cf1565b61271060049104930192614ce7565b6305f5e10060089104930192614cdc565b662386f26fc1000060109104930192614ccf565b6d04ee2d6d415b85acef810000000060209104930192614cbf565b50604091507a184f03e93ff9f4daa797ed6e38ed64bf6a1f0100000000000000008104614ca5565b90815115614f255760405191614de76060846143a1565b604083527f4142434445464748494a4b4c4d4e4f505152535455565758595a61626364656660208401527f6768696a6b6c6d6e6f707172737475767778797a303132333435363738392b2f60408401528051600281018091116144ad57600390047f3fffffffffffffffffffffffffffffffffffffffffffffffffffffffffffffff811681036144ad57614e7d9060021b614c4c565b90602082019080815182019560208701908151925f83525b888110614ed75750506003939495965052510680600114614ec557600214614ebb575090565b603d905f19015390565b50603d90815f19820153600119015390565b600360049199969901986001603f8b5182828260121c16870101518453828282600c1c16870101518385015382828260061c1687010151600285015316840101516003820153019497614e95565b9050604051614f356020826143a1565b5f815290565b9081518110156144c1570160200190565b8051905f5b828110614f6057505050600190565b6001600160f81b0319614f738284614f3b565b5116600160fd1b811490600360fc1b81101580615021575b604160f81b8210159081615012575b606160f81b8310159283615003575b8415614ff5575b508315614fed575b508215614fe5575b508115614fdd575b5015614fd657600101614f51565b5050505f90565b90505f614fc8565b91505f614fc0565b92505f614fb8565b602d60f81b1493505f614fb0565b603d60f91b8111159350614fa9565b602d60f91b8311159150614f9a565b50603960f81b811115614f8b565b806150435750604051614f356020826143a1565b600a81101561508e5761505590614c7e565b6146e2602260405180936102e360f41b602083015261507d8151809260208686019101614363565b81010301601f1981018352826143a1565b61509790614c7e565b6146e260216040518093601760f91b602083015261507d8151809260208686019101614363565b604051906150cd6040836143a1565b601082527f68736c283233302c3231252c31312529000000000000000000000000000000006020830152565b8015615318576151076150be565b90612710039061271082116144ad57602e60619160506151296146e295614c7e565b60576040519788947f3c672066696c6c3d226e6f6e65223e000000000000000000000000000000000060208701527f3c636972636c652063783d22313636222063793d2235302220723d2232322220602f8701526739ba3937b5b29e9160c11b604f8701526151a1815180926020868a019101614363565b85017f22207374726f6b652d77696474683d223130222f3e0000000000000000000000838201527f3c636972636c652063783d22313636222063793d2235302220706174684c656e606c8201527f6774683d2231303030302220723d22323222207374726f6b653d220000000000608c82015261522882518093602060a785019101614363565b01017f22207374726f6b652d6461736861727261793d22313030303022207374726f6b838201527f652d646173686f66667365743d220000000000000000000000000000000000006070820152615289825180936020607e85019101614363565b01017f22207374726f6b652d6c696e656361703d22726f756e6422207374726f6b652d838201527f77696474683d223522207472616e73666f726d3d22726f74617465282d393029604e8201527f22207472616e73666f726d2d6f726967696e3d22313636203530222f3e000000606e820152631e17b39f60e11b608b820152030160418101845201826143a1565b5050604051614f356020826143a1565b906148c360136020604051856153478297518092858086019101614363565b810164010714051160dd1b838201527f5361626c696572204c6f636b757000000000000000000000000000000000000060258201520301600c198101855201836143a1565b60056148c391939293602060405195826153af8894518092858088019101614363565b830164010714051160dd1b838201526153d18251809385602585019101614363565b01010301601f1981018452836143a1565b6004811015614778578061541757506040516153ff6040826143a1565b600881526750726f677265737360c01b602082015290565b60018103615444575060405161542e6040826143a1565b600681526553746174757360d01b602082015290565b60020361546f576040516154596040826143a1565b6006815265105b5bdd5b9d60d21b602082015290565b60405161547d6040826143a1565b6008815267223ab930ba34b7b760c11b602082015290565b5f9080518015614fd65790600d915f925f925b8284106154bb5750505050600d02900390565b929491929091603b60f81b6001600160f81b03196154d98885614f3b565b5116146154ef575b8201946001019291906154a8565b8594506154e1565b5f9080518015614fd657906010915f925f925b82841061551d575050505060041b900390565b929491929091603b60f81b6001600160f81b031961553b8885614f3b565b511614615551575b82019460010192919061550a565b859450615543565b9081518151908181149384615570575b5050505090565b602092939450820120920120145f80808061556956fea164736f6c634300081a000a",
    "linkReferences": {}
  },
  "methodIdentifiers": {
    "tokenURI(address,uint256)": "e9dc6375"
  },
  "id": 77
}