{
  "abi": [
    {
      "type": "function",
      "name": "createWithDurationsLD",
      "inputs": [
        {
          "name": "lockup",
          "type": "address",
          "internalType": "contract ISablierLockup"
        },
        {
          "name": "token",
          "type": "address",
          "internalType": "contract IERC20"
        },
        {
          "name": "batch",
          "type": "tuple[]",
          "internalType": "struct BatchLockup.CreateWithDurationsLD[]",
          "components": [
            {
              "name": "sender",
              "type": "address",
              "internalType": "address"
            },
            {
              "name": "recipient",
              "type": "address",
              "internalType": "address"
            },
            {
              "name": "totalAmount",
              "type": "uint128",
              "internalType": "uint128"
            },
            {
              "name": "cancelable",
              "type": "bool",
              "internalType": "bool"
            },
            {
              "name": "transferable",
              "type": "bool",
              "internalType": "bool"
            },
            {
              "name": "segmentsWithDuration",
              "type": "tuple[]",
              "internalType": "struct LockupDynamic.SegmentWithDuration[]",
              "components": [
                {
                  "name": "amount",
                  "type": "uint128",
                  "internalType": "uint128"
                },
                {
                  "name": "exponent",
                  "type": "uint64",
                  "internalType": "UD2x18"
                },
                {
                  "name": "duration",
                  "type": "uint40",
                  "internalType": "uint40"
                }
              ]
            },
            {
              "name": "shape",
              "type": "string",
              "internalType": "string"
            },
            {
              "name": "broker",
              "type": "tuple",
              "internalType": "struct Broker",
              "components": [
                {
                  "name": "account",
                  "type": "address",
                  "internalType": "address"
                },
                {
                  "name": "fee",
                  "type": "uint256",
                  "internalType": "UD60x18"
                }
              ]
            }
          ]
        }
      ],
      "outputs": [
        {
          "name": "streamIds",
          "type": "uint256[]",
          "internalType": "uint256[]"
        }
      ],
      "stateMutability": "nonpayable"
    },
    {
      "type": "function",
      "name": "createWithDurationsLL",
      "inputs": [
        {
          "name": "lockup",
          "type": "address",
          "internalType": "contract ISablierLockup"
        },
        {
          "name": "token",
          "type": "address",
          "internalType": "contract IERC20"
        },
        {
          "name": "batch",
          "type": "tuple[]",
          "internalType": "struct BatchLockup.CreateWithDurationsLL[]",
          "components": [
            {
              "name": "sender",
              "type": "address",
              "internalType": "address"
            },
            {
              "name": "recipient",
              "type": "address",
              "internalType": "address"
            },
            {
              "name": "totalAmount",
              "type": "uint128",
              "internalType": "uint128"
            },
            {
              "name": "cancelable",
              "type": "bool",
              "internalType": "bool"
            },
            {
              "name": "transferable",
              "type": "bool",
              "internalType": "bool"
            },
            {
              "name": "durations",
              "type": "tuple",
              "internalType": "struct LockupLinear.Durations",
              "components": [
                {
                  "name": "cliff",
                  "type": "uint40",
                  "internalType": "uint40"
                },
                {
                  "name": "total",
                  "type": "uint40",
                  "internalType": "uint40"
                }
              ]
            },
            {
              "name": "unlockAmounts",
              "type": "tuple",
              "internalType": "struct LockupLinear.UnlockAmounts",
              "components": [
                {
                  "name": "start",
                  "type": "uint128",
                  "internalType": "uint128"
                },
                {
                  "name": "cliff",
                  "type": "uint128",
                  "internalType": "uint128"
                }
              ]
            },
            {
              "name": "shape",
              "type": "string",
              "internalType": "string"
            },
            {
              "name": "broker",
              "type": "tuple",
              "internalType": "struct Broker",
              "components": [
                {
                  "name": "account",
                  "type": "address",
                  "internalType": "address"
                },
                {
                  "name": "fee",
                  "type": "uint256",
                  "internalType": "UD60x18"
                }
              ]
            }
          ]
        }
      ],
      "outputs": [
        {
          "name": "streamIds",
          "type": "uint256[]",
          "internalType": "uint256[]"
        }
      ],
      "stateMutability": "nonpayable"
    },
    {
      "type": "function",
      "name": "createWithDurationsLT",
      "inputs": [
        {
          "name": "lockup",
          "type": "address",
          "internalType": "contract ISablierLockup"
        },
        {
          "name": "token",
          "type": "address",
          "internalType": "contract IERC20"
        },
        {
          "name": "batch",
          "type": "tuple[]",
          "internalType": "struct BatchLockup.CreateWithDurationsLT[]",
          "components": [
            {
              "name": "sender",
              "type": "address",
              "internalType": "address"
            },
            {
              "name": "recipient",
              "type": "address",
              "internalType": "address"
            },
            {
              "name": "totalAmount",
              "type": "uint128",
              "internalType": "uint128"
            },
            {
              "name": "cancelable",
              "type": "bool",
              "internalType": "bool"
            },
            {
              "name": "transferable",
              "type": "bool",
              "internalType": "bool"
            },
            {
              "name": "tranchesWithDuration",
              "type": "tuple[]",
              "internalType": "struct LockupTranched.TrancheWithDuration[]",
              "components": [
                {
                  "name": "amount",
                  "type": "uint128",
                  "internalType": "uint128"
                },
                {
                  "name": "duration",
                  "type": "uint40",
                  "internalType": "uint40"
                }
              ]
            },
            {
              "name": "shape",
              "type": "string",
              "internalType": "string"
            },
            {
              "name": "broker",
              "type": "tuple",
              "internalType": "struct Broker",
              "components": [
                {
                  "name": "account",
                  "type": "address",
                  "internalType": "address"
                },
                {
                  "name": "fee",
                  "type": "uint256",
                  "internalType": "UD60x18"
                }
              ]
            }
          ]
        }
      ],
      "outputs": [
        {
          "name": "streamIds",
          "type": "uint256[]",
          "internalType": "uint256[]"
        }
      ],
      "stateMutability": "nonpayable"
    },
    {
      "type": "function",
      "name": "createWithTimestampsLD",
      "inputs": [
        {
          "name": "lockup",
          "type": "address",
          "internalType": "contract ISablierLockup"
        },
        {
          "name": "token",
          "type": "address",
          "internalType": "contract IERC20"
        },
        {
          "name": "batch",
          "type": "tuple[]",
          "internalType": "struct BatchLockup.CreateWithTimestampsLD[]",
          "components": [
            {
              "name": "sender",
              "type": "address",
              "internalType": "address"
            },
            {
              "name": "recipient",
              "type": "address",
              "internalType": "address"
            },
            {
              "name": "totalAmount",
              "type": "uint128",
              "internalType": "uint128"
            },
            {
              "name": "cancelable",
              "type": "bool",
              "internalType": "bool"
            },
            {
              "name": "transferable",
              "type": "bool",
              "internalType": "bool"
            },
            {
              "name": "startTime",
              "type": "uint40",
              "internalType": "uint40"
            },
            {
              "name": "segments",
              "type": "tuple[]",
              "internalType": "struct LockupDynamic.Segment[]",
              "components": [
                {
                  "name": "amount",
                  "type": "uint128",
                  "internalType": "uint128"
                },
                {
                  "name": "exponent",
                  "type": "uint64",
                  "internalType": "UD2x18"
                },
                {
                  "name": "timestamp",
                  "type": "uint40",
                  "internalType": "uint40"
                }
              ]
            },
            {
              "name": "shape",
              "type": "string",
              "internalType": "string"
            },
            {
              "name": "broker",
              "type": "tuple",
              "internalType": "struct Broker",
              "components": [
                {
                  "name": "account",
                  "type": "address",
                  "internalType": "address"
                },
                {
                  "name": "fee",
                  "type": "uint256",
                  "internalType": "UD60x18"
                }
              ]
            }
          ]
        }
      ],
      "outputs": [
        {
          "name": "streamIds",
          "type": "uint256[]",
          "internalType": "uint256[]"
        }
      ],
      "stateMutability": "nonpayable"
    },
    {
      "type": "function",
      "name": "createWithTimestampsLL",
      "inputs": [
        {
          "name": "lockup",
          "type": "address",
          "internalType": "contract ISablierLockup"
        },
        {
          "name": "token",
          "type": "address",
          "internalType": "contract IERC20"
        },
        {
          "name": "batch",
          "type": "tuple[]",
          "internalType": "struct BatchLockup.CreateWithTimestampsLL[]",
          "components": [
            {
              "name": "sender",
              "type": "address",
              "internalType": "address"
            },
            {
              "name": "recipient",
              "type": "address",
              "internalType": "address"
            },
            {
              "name": "totalAmount",
              "type": "uint128",
              "internalType": "uint128"
            },
            {
              "name": "cancelable",
              "type": "bool",
              "internalType": "bool"
            },
            {
              "name": "transferable",
              "type": "bool",
              "internalType": "bool"
            },
            {
              "name": "timestamps",
              "type": "tuple",
              "internalType": "struct Lockup.Timestamps",
              "components": [
                {
                  "name": "start",
                  "type": "uint40",
                  "internalType": "uint40"
                },
                {
                  "name": "end",
                  "type": "uint40",
                  "internalType": "uint40"
                }
              ]
            },
            {
              "name": "cliffTime",
              "type": "uint40",
              "internalType": "uint40"
            },
            {
              "name": "unlockAmounts",
              "type": "tuple",
              "internalType": "struct LockupLinear.UnlockAmounts",
              "components": [
                {
                  "name": "start",
                  "type": "uint128",
                  "internalType": "uint128"
                },
                {
                  "name": "cliff",
                  "type": "uint128",
                  "internalType": "uint128"
                }
              ]
            },
            {
              "name": "shape",
              "type": "string",
              "internalType": "string"
            },
            {
              "name": "broker",
              "type": "tuple",
              "internalType": "struct Broker",
              "components": [
                {
                  "name": "account",
                  "type": "address",
                  "internalType": "address"
                },
                {
                  "name": "fee",
                  "type": "uint256",
                  "internalType": "UD60x18"
                }
              ]
            }
          ]
        }
      ],
      "outputs": [
        {
          "name": "streamIds",
          "type": "uint256[]",
          "internalType": "uint256[]"
        }
      ],
      "stateMutability": "nonpayable"
    },
    {
      "type": "function",
      "name": "createWithTimestampsLT",
      "inputs": [
        {
          "name": "lockup",
          "type": "address",
          "internalType": "contract ISablierLockup"
        },
        {
          "name": "token",
          "type": "address",
          "internalType": "contract IERC20"
        },
        {
          "name": "batch",
          "type": "tuple[]",
          "internalType": "struct BatchLockup.CreateWithTimestampsLT[]",
          "components": [
            {
              "name": "sender",
              "type": "address",
              "internalType": "address"
            },
            {
              "name": "recipient",
              "type": "address",
              "internalType": "address"
            },
            {
              "name": "totalAmount",
              "type": "uint128",
              "internalType": "uint128"
            },
            {
              "name": "cancelable",
              "type": "bool",
              "internalType": "bool"
            },
            {
              "name": "transferable",
              "type": "bool",
              "internalType": "bool"
            },
            {
              "name": "startTime",
              "type": "uint40",
              "internalType": "uint40"
            },
            {
              "name": "tranches",
              "type": "tuple[]",
              "internalType": "struct LockupTranched.Tranche[]",
              "components": [
                {
                  "name": "amount",
                  "type": "uint128",
                  "internalType": "uint128"
                },
                {
                  "name": "timestamp",
                  "type": "uint40",
                  "internalType": "uint40"
                }
              ]
            },
            {
              "name": "shape",
              "type": "string",
              "internalType": "string"
            },
            {
              "name": "broker",
              "type": "tuple",
              "internalType": "struct Broker",
              "components": [
                {
                  "name": "account",
                  "type": "address",
                  "internalType": "address"
                },
                {
                  "name": "fee",
                  "type": "uint256",
                  "internalType": "UD60x18"
                }
              ]
            }
          ]
        }
      ],
      "outputs": [
        {
          "name": "streamIds",
          "type": "uint256[]",
          "internalType": "uint256[]"
        }
      ],
      "stateMutability": "nonpayable"
    },
    {
      "type": "error",
      "name": "AddressEmptyCode",
      "inputs": [
        {
          "name": "target",
          "type": "address",
          "internalType": "address"
        }
      ]
    },
    {
      "type": "error",
      "name": "AddressInsufficientBalance",
      "inputs": [
        {
          "name": "account",
          "type": "address",
          "internalType": "address"
        }
      ]
    },
    {
      "type": "error",
      "name": "FailedInnerCall",
      "inputs": []
    },
    {
      "type": "error",
      "name": "SablierBatchLockup_BatchSizeZero",
      "inputs": []
    },
    {
      "type": "error",
      "name": "SafeERC20FailedOperation",
      "inputs": [
        {
          "name": "token",
          "type": "address",
          "internalType": "address"
        }
      ]
    }
  ],
  "bytecode": {
    "object": "0x60808060405234601557611922908161001a8239f35b5f80fdfe60806040526004361015610011575f80fd5b5f3560e01c806320462ba514610e225780634739fa8d14610b255780635e449ca814610813578063848c706c1461056c5780638f331574146102f95763bf4bb0dd1461005b575f80fd5b346102805761006936611098565b9283929192156102ea579092905f90815b8381106102b957506001600160a01b03610097911691858361166f565b6100a082611228565b926001600160a01b035f9516945b8381106100c757604051806100c38782611114565b0390f35b6100d281858461114d565b6100db9061125a565b906100e781868561114d565b6020016100f39061125a565b6100fe82878661114d565b60400161010a90611170565b61011583888761114d565b6060016101219061126e565b61012c84898861114d565b6080016101389061126e565b610143858a8961114d565b60c081016101509161127b565b92909361015e878c8b61114d565b60e001956040519861016f8a611184565b6001600160a01b031689526001600160a01b031660208901526001600160801b031660408801528b606088015215156080870152151560a086015236906101b5926112ca565b60c0840152366101c491611300565b60e08301526101d481868561114d565b60a081016101e1916114da565b9290604051938492630aef443360e01b8452600484016040905260448401610208916113ae565b83810360031901602485015281815260200191905f905b80821061029757505050908060209203815f885af1801561028c575f90610256575b6001925061024f82886114a3565b52016100ae565b506020823d8211610284575b8161026f602093836111ee565b810103126102805760019151610241565b5f80fd5b3d9150610262565b6040513d5f823e3d90fd5b91935091606080826102ab600194886115c3565b01940192018593929161021f565b916001906001600160801b036102de60406102d887898b9c9a9c61114d565b01611170565b1601920194929461007a565b630d86189d60e21b5f5260045ffd5b346102805761030736611098565b9283929192156102ea579091905f90815b85811061054257506001600160a01b03610335911691848361166f565b61033e84611228565b926001600160a01b03165f5b85811061035f57604051806100c38782611114565b61036a81878661164c565b6103739061125a565b9061037f81888761164c565b60200161038b9061125a565b61039682898861164c565b6040016103a290611170565b906103ae838a8961164c565b6060016103ba9061126e565b916103c6848b8a61164c565b6080016103d29061126e565b6103dd858c8b61164c565b61014001936103ed868d8c61164c565b61012081016103fb9161127b565b9390946040519861040b8a611184565b6001600160a01b031689526001600160a01b031660208901526001600160801b0316604088015287606088015215156080870152151560a08601523690610451926112ca565b60c08401523661046091611300565b60e08301528361047182898861164c565b60e00192610480838a8961164c565b604051626dd14360e11b815260a060048201529485928392906104a79060a48501906113ae565b91602484016104b59161162a565b6104c160a08201611464565b64ffffffffff16606484015260c0016104d990611464565b64ffffffffff16608483015203815a6020945f91f1801561028c575f90610510575b6001925061050982886114a3565b520161034a565b506020823d821161053a575b81610529602093836111ee565b8101031261028057600191516104fb565b3d915061051c565b916001906001600160801b0361056060406102d8878b8a9b9a61164c565b16019201939293610318565b346102805761057a36611098565b80929192156102ea57905f935f5b8381106107e857506001600160a01b036105a5911694828661166f565b6105ae82611228565b936001600160a01b035f9216915b8381106105d157604051806100c38882611114565b6105dc818587611607565b6105e59061125a565b906105f1818688611607565b6020016105fd9061125a565b918661060a838883611607565b60400161061690611170565b9187610623858285611607565b60600161062f9061126e565b61063a868386611607565b6080016106469061126e565b90610652878487611607565b958761065f818689611607565b610140810161066d9161127b565b95610679929198611607565b61016001986040519561068b876111d1565b6001600160a01b031686526001600160a01b031660208601526001600160801b0316604085015289606085015215156080840152151560a0830152609f1984360301604013610280576107889561071c61077d946107289360209761070c60c0604051926106f8846111b5565b61070460a08201611464565b845201611464565b8982015260c087015236916112ca565b60e08401523690611300565b6101008201528864ffffffffff61075a60e0610754888d61010061074d83838a611607565b0196611607565b01611510565b604051637a69584160e01b81526080600482015297889586956084870190611522565b93602486019061162a565b16606483015203815f875af1801561028c575f906107b6575b600192506107af82896114a3565b52016105bc565b506020823d82116107e0575b816107cf602093836111ee565b8101031261028057600191516107a1565b3d91506107c2565b946001906001600160801b0361080760406102d88a898b9a999a611607565b16019501929192610588565b346102805761082136611098565b9283929192156102ea579092905f90815b838110610afa57506001600160a01b0361084f911691858361166f565b61085882611228565b926001600160a01b035f9516945b83811061087b57604051806100c38782611114565b6108936108898286856114b7565b60c0810190611339565b6108a16108898488876114b7565b5f1901918210159050610ae65760061b016020016108be90611510565b906108ca8186856114b7565b6108d39061125a565b916108df8287866114b7565b6020016108eb9061125a565b906108f78388876114b7565b60400161090390611170565b9061090f8489886114b7565b60600161091b9061126e565b90610927858a896114b7565b6080016109339061126e565b61093e868b8a6114b7565b60a00161094a90611510565b9160405192610958846111b5565b64ffffffffff16835264ffffffffff166020830152610978868b8a6114b7565b60e081016109859161127b565b939094610993888d8c6114b7565b6101000196604051996109a58b6111d1565b6001600160a01b03168a526001600160a01b031660208a01526001600160801b031660408901528c606089015215156080880152151560a087015260c086015236906109f0926112ca565b60e0840152366109ff91611300565b610100830152610a108186856114b7565b60c08101610a1d91611339565b9290604051938492637ee2139160e01b8452600484016040905260448401610a4491611522565b83810360031901602485015281815260200191905f905b808210610ac457505050908060209203815f885af1801561028c575f90610a92575b60019250610a8b82886114a3565b5201610866565b506020823d8211610abc575b81610aab602093836111ee565b810103126102805760019151610a7d565b3d9150610a9e565b9193509160408082610ad860019488611476565b019401920185939291610a5b565b634e487b7160e01b5f52603260045260245ffd5b916001906001600160801b03610b1960406102d887898b9c9a9c6114b7565b16019201949294610832565b3461028057610b3336611098565b9283929192156102ea579092905f90815b838110610df757506001600160a01b03610b61911691858361166f565b610b6a82611228565b926001600160a01b035f9516945b838110610b8d57604051806100c38782611114565b610ba5610b9b8286856114b7565b60c08101906114da565b610bb3610b9b8488876114b7565b5f1901918210159050610ae65760600201604001610bd090611510565b90610bdc8186856114b7565b610be59061125a565b91610bf18287866114b7565b602001610bfd9061125a565b90610c098388876114b7565b604001610c1590611170565b90610c218489886114b7565b606001610c2d9061126e565b90610c39858a896114b7565b608001610c459061126e565b610c50868b8a6114b7565b60a001610c5c90611510565b9160405192610c6a846111b5565b64ffffffffff16835264ffffffffff166020830152610c8a868b8a6114b7565b60e08101610c979161127b565b939094610ca5888d8c6114b7565b610100019660405199610cb78b6111d1565b6001600160a01b03168a526001600160a01b031660208a01526001600160801b031660408901528c606089015215156080880152151560a087015260c08601523690610d02926112ca565b60e084015236610d1191611300565b610100830152610d228186856114b7565b60c08101610d2f916114da565b92906040519384926245781560e71b8452600484016040905260448401610d5591611522565b83810360031901602485015281815260200191905f905b808210610dd557505050908060209203815f885af1801561028c575f90610da3575b60019250610d9c82886114a3565b5201610b78565b506020823d8211610dcd575b81610dbc602093836111ee565b810103126102805760019151610d8e565b3d9150610daf565b9193509160608082610de9600194886115c3565b019401920185939291610d6c565b916001906001600160801b03610e1660406102d887898b9c9a9c6114b7565b16019201949294610b44565b3461028057610e3036611098565b9283929192156102ea579092905f90815b83811061106d57506001600160a01b03610e5e911691858361166f565b610e6782611228565b926001600160a01b035f9516945b838110610e8a57604051806100c38782611114565b610e9581858461114d565b610e9e9061125a565b90610eaa81868561114d565b602001610eb69061125a565b610ec182878661114d565b604001610ecd90611170565b610ed883888761114d565b606001610ee49061126e565b610eef84898861114d565b608001610efb9061126e565b610f06858a8961114d565b60c08101610f139161127b565b929093610f21878c8b61114d565b60e0019560405198610f328a611184565b6001600160a01b031689526001600160a01b031660208901526001600160801b031660408801528b606088015215156080870152151560a08601523690610f78926112ca565b60c084015236610f8791611300565b60e0830152610f9781868561114d565b60a08101610fa491611339565b929060405193849263deecd64f60e01b8452600484016040905260448401610fcb916113ae565b83810360031901602485015281815260200191905f905b80821061104b57505050908060209203815f885af1801561028c575f90611019575b6001925061101282886114a3565b5201610e75565b506020823d8211611043575b81611032602093836111ee565b810103126102805760019151611004565b3d9150611025565b919350916040808261105f60019488611476565b019401920185939291610fe2565b916001906001600160801b0361108c60406102d887898b9c9a9c61114d565b16019201949294610e41565b906060600319830112610280576004356001600160a01b038116810361028057916024356001600160a01b0381168103610280579160443567ffffffffffffffff81116102805760040182601f820112156102805780359267ffffffffffffffff8411610280576020808301928560051b010111610280579190565b60206040818301928281528451809452019201905f5b8181106111375750505090565b825184526020938401939092019160010161112a565b9190811015610ae65760051b8101359061011e1981360301821215610280570190565b356001600160801b03811681036102805790565b610100810190811067ffffffffffffffff8211176111a157604052565b634e487b7160e01b5f52604160045260245ffd5b6040810190811067ffffffffffffffff8211176111a157604052565b610120810190811067ffffffffffffffff8211176111a157604052565b90601f8019910116810190811067ffffffffffffffff8211176111a157604052565b67ffffffffffffffff81116111a15760051b60200190565b9061123282611210565b61123f60405191826111ee565b8281528092611250601f1991611210565b0190602036910137565b356001600160a01b03811681036102805790565b3580151581036102805790565b903590601e1981360301821215610280570180359067ffffffffffffffff82116102805760200191813603831361028057565b67ffffffffffffffff81116111a157601f01601f191660200190565b9291926112d6826112ae565b916112e460405193846111ee565b829481845281830111610280578281602093845f960137010152565b919082604091031261028057604051611318816111b5565b809280356001600160a01b0381168103610280578252602090810135910152565b903590601e1981360301821215610280570180359067ffffffffffffffff821161028057602001918160061b3603831361028057565b91908251928382525f5b848110611399575050825f602080949584010152601f8019910116010190565b80602080928401015182828601015201611379565b9061144d906001600160a01b0383511681526001600160a01b0360208401511660208201526001600160801b0360408401511660408201526001600160a01b03606084015116606082015260808301511515608082015260a0830151151560a082015260e08061142f60c086015161012060c086015261012085019061136f565b940151910190602080916001600160a01b0381511684520151910152565b90565b35906001600160801b038216820361028057565b359064ffffffffff8216820361028057565b64ffffffffff61149d602080936001600160801b0361149482611450565b16865201611464565b16910152565b8051821015610ae65760209160051b010190565b9190811015610ae65760051b8101359061013e1981360301821215610280570190565b903590601e1981360301821215610280570180359067ffffffffffffffff82116102805760200191606082023603831361028057565b3564ffffffffff811681036102805790565b9061144d906001600160a01b0383511681526001600160a01b0360208401511660208201526001600160801b0360408401511660408201526001600160a01b03606084015116606082015260808301511515608082015260a0830151151560a082015264ffffffffff602060c08501518281511660c085015201511660e082015261012061010061142f60e08601516101608386015261016085019061136f565b6001600160801b036115d482611450565b168252602081013567ffffffffffffffff81168091036102805761149d6040809364ffffffffff93602087015201611464565b9190811015610ae65760051b8101359061019e1981360301821215610280570190565b6001600160801b0361149d602080938361164382611450565b16865201611450565b9190811015610ae65760051b8101359061017e1981360301821215610280570190565b91906116ab6040516323b872dd60e01b6020820152336024820152306044820152836064820152606481526116a56084826111ee565b82611820565b6001600160a01b0381166001600160a01b0360405194636eb1769f60e11b86523060048701521693846024820152602081604481855afa801561028c5784915f916117d3575b50106116fe575b50505050565b5f8060405194602086019063095ea7b360e01b825287602488015260448701526044865261172d6064876111ee565b85519082855af19061173d61188c565b826117a1575b5081611796575b5015611757575b806116f8565b61178961178e936040519063095ea7b360e01b602083015260248201525f6044820152604481526116a56064826111ee565b611820565b5f8080611751565b90503b15155f61174a565b805191925081159182156117b9575b5050905f611743565b6117cc9250602080918301019101611808565b5f806117b0565b9150506020813d602011611800575b816117ef602093836111ee565b81010312610280578390515f6116f1565b3d91506117e2565b90816020910312610280575180151581036102805790565b5f806001600160a01b0361184993169360208151910182865af161184261188c565b90836118bb565b8051908115159182611871575b505061185f5750565b635274afe760e01b5f5260045260245ffd5b6118849250602080918301019101611808565b155f80611856565b3d156118b6573d9061189d826112ae565b916118ab60405193846111ee565b82523d5f602084013e565b606090565b906118df57508051156118d057805190602001fd5b630a12f52160e11b5f5260045ffd5b8151158061190c575b6118f0575090565b6001600160a01b0390639996b31560e01b5f521660045260245ffd5b50803b156118e856fea164736f6c634300081a000a",
    "linkReferences": {}
  },
  "methodIdentifiers": {
    "createWithDurationsLD(address,address,(address,address,uint128,bool,bool,(uint128,uint64,uint40)[],string,(address,uint256))[])": "bf4bb0dd",
    "createWithDurationsLL(address,address,(address,address,uint128,bool,bool,(uint40,uint40),(uint128,uint128),string,(address,uint256))[])": "8f331574",
    "createWithDurationsLT(address,address,(address,address,uint128,bool,bool,(uint128,uint40)[],string,(address,uint256))[])": "20462ba5",
    "createWithTimestampsLD(address,address,(address,address,uint128,bool,bool,uint40,(uint128,uint64,uint40)[],string,(address,uint256))[])": "4739fa8d",
    "createWithTimestampsLL(address,address,(address,address,uint128,bool,bool,(uint40,uint40),uint40,(uint128,uint128),string,(address,uint256))[])": "848c706c",
    "createWithTimestampsLT(address,address,(address,address,uint128,bool,bool,uint40,(uint128,uint40)[],string,(address,uint256))[])": "5e449ca8"
  },
  "id": 78
}