{
  "abi": [
    {
      "type": "constructor",
      "inputs": [
        {
          "name": "initialAdmin",
          "type": "address",
          "internalType": "address"
        },
        {
          "name": "initialNFTDescriptor",
          "type": "address",
          "internalType": "contract ILockupNFTDescriptor"
        },
        {
          "name": "maxCount",
          "type": "uint256",
          "internalType": "uint256"
        }
      ],
      "stateMutability": "nonpayable"
    },
    {
      "type": "function",
      "name": "MAX_BROKER_FEE",
      "inputs": [],
      "outputs": [
        {
          "name": "",
          "type": "uint256",
          "internalType": "UD60x18"
        }
      ],
      "stateMutability": "view"
    },
    {
      "type": "function",
      "name": "MAX_COUNT",
      "inputs": [],
      "outputs": [
        {
          "name": "",
          "type": "uint256",
          "internalType": "uint256"
        }
      ],
      "stateMutability": "view"
    },
    {
      "type": "function",
      "name": "admin",
      "inputs": [],
      "outputs": [
        {
          "name": "",
          "type": "address",
          "internalType": "address"
        }
      ],
      "stateMutability": "view"
    },
    {
      "type": "function",
      "name": "allowToHook",
      "inputs": [
        {
          "name": "recipient",
          "type": "address",
          "internalType": "address"
        }
      ],
      "outputs": [],
      "stateMutability": "nonpayable"
    },
    {
      "type": "function",
      "name": "approve",
      "inputs": [
        {
          "name": "to",
          "type": "address",
          "internalType": "address"
        },
        {
          "name": "tokenId",
          "type": "uint256",
          "internalType": "uint256"
        }
      ],
      "outputs": [],
      "stateMutability": "nonpayable"
    },
    {
      "type": "function",
      "name": "balanceOf",
      "inputs": [
        {
          "name": "owner",
          "type": "address",
          "internalType": "address"
        }
      ],
      "outputs": [
        {
          "name": "",
          "type": "uint256",
          "internalType": "uint256"
        }
      ],
      "stateMutability": "view"
    },
    {
      "type": "function",
      "name": "batch",
      "inputs": [
        {
          "name": "calls",
          "type": "bytes[]",
          "internalType": "bytes[]"
        }
      ],
      "outputs": [
        {
          "name": "results",
          "type": "bytes[]",
          "internalType": "bytes[]"
        }
      ],
      "stateMutability": "payable"
    },
    {
      "type": "function",
      "name": "burn",
      "inputs": [
        {
          "name": "streamId",
          "type": "uint256",
          "internalType": "uint256"
        }
      ],
      "outputs": [],
      "stateMutability": "payable"
    },
    {
      "type": "function",
      "name": "cancel",
      "inputs": [
        {
          "name": "streamId",
          "type": "uint256",
          "internalType": "uint256"
        }
      ],
      "outputs": [],
      "stateMutability": "payable"
    },
    {
      "type": "function",
      "name": "cancelMultiple",
      "inputs": [
        {
          "name": "streamIds",
          "type": "uint256[]",
          "internalType": "uint256[]"
        }
      ],
      "outputs": [],
      "stateMutability": "payable"
    },
    {
      "type": "function",
      "name": "collectFees",
      "inputs": [],
      "outputs": [],
      "stateMutability": "nonpayable"
    },
    {
      "type": "function",
      "name": "createWithDurationsLD",
      "inputs": [
        {
          "name": "params",
          "type": "tuple",
          "internalType": "struct Lockup.CreateWithDurations",
          "components": [
            {
              "name": "sender",
              "type": "address",
              "internalType": "address"
            },
            {
              "name": "recipient",
              "type": "address",
              "internalType": "address"
            },
            {
              "name": "totalAmount",
              "type": "uint128",
              "internalType": "uint128"
            },
            {
              "name": "token",
              "type": "address",
              "internalType": "contract IERC20"
            },
            {
              "name": "cancelable",
              "type": "bool",
              "internalType": "bool"
            },
            {
              "name": "transferable",
              "type": "bool",
              "internalType": "bool"
            },
            {
              "name": "shape",
              "type": "string",
              "internalType": "string"
            },
            {
              "name": "broker",
              "type": "tuple",
              "internalType": "struct Broker",
              "components": [
                {
                  "name": "account",
                  "type": "address",
                  "internalType": "address"
                },
                {
                  "name": "fee",
                  "type": "uint256",
                  "internalType": "UD60x18"
                }
              ]
            }
          ]
        },
        {
          "name": "segmentsWithDuration",
          "type": "tuple[]",
          "internalType": "struct LockupDynamic.SegmentWithDuration[]",
          "components": [
            {
              "name": "amount",
              "type": "uint128",
              "internalType": "uint128"
            },
            {
              "name": "exponent",
              "type": "uint64",
              "internalType": "UD2x18"
            },
            {
              "name": "duration",
              "type": "uint40",
              "internalType": "uint40"
            }
          ]
        }
      ],
      "outputs": [
        {
          "name": "streamId",
          "type": "uint256",
          "internalType": "uint256"
        }
      ],
      "stateMutability": "payable"
    },
    {
      "type": "function",
      "name": "createWithDurationsLL",
      "inputs": [
        {
          "name": "params",
          "type": "tuple",
          "internalType": "struct Lockup.CreateWithDurations",
          "components": [
            {
              "name": "sender",
              "type": "address",
              "internalType": "address"
            },
            {
              "name": "recipient",
              "type": "address",
              "internalType": "address"
            },
            {
              "name": "totalAmount",
              "type": "uint128",
              "internalType": "uint128"
            },
            {
              "name": "token",
              "type": "address",
              "internalType": "contract IERC20"
            },
            {
              "name": "cancelable",
              "type": "bool",
              "internalType": "bool"
            },
            {
              "name": "transferable",
              "type": "bool",
              "internalType": "bool"
            },
            {
              "name": "shape",
              "type": "string",
              "internalType": "string"
            },
            {
              "name": "broker",
              "type": "tuple",
              "internalType": "struct Broker",
              "components": [
                {
                  "name": "account",
                  "type": "address",
                  "internalType": "address"
                },
                {
                  "name": "fee",
                  "type": "uint256",
                  "internalType": "UD60x18"
                }
              ]
            }
          ]
        },
        {
          "name": "unlockAmounts",
          "type": "tuple",
          "internalType": "struct LockupLinear.UnlockAmounts",
          "components": [
            {
              "name": "start",
              "type": "uint128",
              "internalType": "uint128"
            },
            {
              "name": "cliff",
              "type": "uint128",
              "internalType": "uint128"
            }
          ]
        },
        {
          "name": "durations",
          "type": "tuple",
          "internalType": "struct LockupLinear.Durations",
          "components": [
            {
              "name": "cliff",
              "type": "uint40",
              "internalType": "uint40"
            },
            {
              "name": "total",
              "type": "uint40",
              "internalType": "uint40"
            }
          ]
        }
      ],
      "outputs": [
        {
          "name": "streamId",
          "type": "uint256",
          "internalType": "uint256"
        }
      ],
      "stateMutability": "payable"
    },
    {
      "type": "function",
      "name": "createWithDurationsLT",
      "inputs": [
        {
          "name": "params",
          "type": "tuple",
          "internalType": "struct Lockup.CreateWithDurations",
          "components": [
            {
              "name": "sender",
              "type": "address",
              "internalType": "address"
            },
            {
              "name": "recipient",
              "type": "address",
              "internalType": "address"
            },
            {
              "name": "totalAmount",
              "type": "uint128",
              "internalType": "uint128"
            },
            {
              "name": "token",
              "type": "address",
              "internalType": "contract IERC20"
            },
            {
              "name": "cancelable",
              "type": "bool",
              "internalType": "bool"
            },
            {
              "name": "transferable",
              "type": "bool",
              "internalType": "bool"
            },
            {
              "name": "shape",
              "type": "string",
              "internalType": "string"
            },
            {
              "name": "broker",
              "type": "tuple",
              "internalType": "struct Broker",
              "components": [
                {
                  "name": "account",
                  "type": "address",
                  "internalType": "address"
                },
                {
                  "name": "fee",
                  "type": "uint256",
                  "internalType": "UD60x18"
                }
              ]
            }
          ]
        },
        {
          "name": "tranchesWithDuration",
          "type": "tuple[]",
          "internalType": "struct LockupTranched.TrancheWithDuration[]",
          "components": [
            {
              "name": "amount",
              "type": "uint128",
              "internalType": "uint128"
            },
            {
              "name": "duration",
              "type": "uint40",
              "internalType": "uint40"
            }
          ]
        }
      ],
      "outputs": [
        {
          "name": "streamId",
          "type": "uint256",
          "internalType": "uint256"
        }
      ],
      "stateMutability": "payable"
    },
    {
      "type": "function",
      "name": "createWithTimestampsLD",
      "inputs": [
        {
          "name": "params",
          "type": "tuple",
          "internalType": "struct Lockup.CreateWithTimestamps",
          "components": [
            {
              "name": "sender",
              "type": "address",
              "internalType": "address"
            },
            {
              "name": "recipient",
              "type": "address",
              "internalType": "address"
            },
            {
              "name": "totalAmount",
              "type": "uint128",
              "internalType": "uint128"
            },
            {
              "name": "token",
              "type": "address",
              "internalType": "contract IERC20"
            },
            {
              "name": "cancelable",
              "type": "bool",
              "internalType": "bool"
            },
            {
              "name": "transferable",
              "type": "bool",
              "internalType": "bool"
            },
            {
              "name": "timestamps",
              "type": "tuple",
              "internalType": "struct Lockup.Timestamps",
              "components": [
                {
                  "name": "start",
                  "type": "uint40",
                  "internalType": "uint40"
                },
                {
                  "name": "end",
                  "type": "uint40",
                  "internalType": "uint40"
                }
              ]
            },
            {
              "name": "shape",
              "type": "string",
              "internalType": "string"
            },
            {
              "name": "broker",
              "type": "tuple",
              "internalType": "struct Broker",
              "components": [
                {
                  "name": "account",
                  "type": "address",
                  "internalType": "address"
                },
                {
                  "name": "fee",
                  "type": "uint256",
                  "internalType": "UD60x18"
                }
              ]
            }
          ]
        },
        {
          "name": "segments",
          "type": "tuple[]",
          "internalType": "struct LockupDynamic.Segment[]",
          "components": [
            {
              "name": "amount",
              "type": "uint128",
              "internalType": "uint128"
            },
            {
              "name": "exponent",
              "type": "uint64",
              "internalType": "UD2x18"
            },
            {
              "name": "timestamp",
              "type": "uint40",
              "internalType": "uint40"
            }
          ]
        }
      ],
      "outputs": [
        {
          "name": "streamId",
          "type": "uint256",
          "internalType": "uint256"
        }
      ],
      "stateMutability": "payable"
    },
    {
      "type": "function",
      "name": "createWithTimestampsLL",
      "inputs": [
        {
          "name": "params",
          "type": "tuple",
          "internalType": "struct Lockup.CreateWithTimestamps",
          "components": [
            {
              "name": "sender",
              "type": "address",
              "internalType": "address"
            },
            {
              "name": "recipient",
              "type": "address",
              "internalType": "address"
            },
            {
              "name": "totalAmount",
              "type": "uint128",
              "internalType": "uint128"
            },
            {
              "name": "token",
              "type": "address",
              "internalType": "contract IERC20"
            },
            {
              "name": "cancelable",
              "type": "bool",
              "internalType": "bool"
            },
            {
              "name": "transferable",
              "type": "bool",
              "internalType": "bool"
            },
            {
              "name": "timestamps",
              "type": "tuple",
              "internalType": "struct Lockup.Timestamps",
              "components": [
                {
                  "name": "start",
                  "type": "uint40",
                  "internalType": "uint40"
                },
                {
                  "name": "end",
                  "type": "uint40",
                  "internalType": "uint40"
                }
              ]
            },
            {
              "name": "shape",
              "type": "string",
              "internalType": "string"
            },
            {
              "name": "broker",
              "type": "tuple",
              "internalType": "struct Broker",
              "components": [
                {
                  "name": "account",
                  "type": "address",
                  "internalType": "address"
                },
                {
                  "name": "fee",
                  "type": "uint256",
                  "internalType": "UD60x18"
                }
              ]
            }
          ]
        },
        {
          "name": "unlockAmounts",
          "type": "tuple",
          "internalType": "struct LockupLinear.UnlockAmounts",
          "components": [
            {
              "name": "start",
              "type": "uint128",
              "internalType": "uint128"
            },
            {
              "name": "cliff",
              "type": "uint128",
              "internalType": "uint128"
            }
          ]
        },
        {
          "name": "cliffTime",
          "type": "uint40",
          "internalType": "uint40"
        }
      ],
      "outputs": [
        {
          "name": "streamId",
          "type": "uint256",
          "internalType": "uint256"
        }
      ],
      "stateMutability": "payable"
    },
    {
      "type": "function",
      "name": "createWithTimestampsLT",
      "inputs": [
        {
          "name": "params",
          "type": "tuple",
          "internalType": "struct Lockup.CreateWithTimestamps",
          "components": [
            {
              "name": "sender",
              "type": "address",
              "internalType": "address"
            },
            {
              "name": "recipient",
              "type": "address",
              "internalType": "address"
            },
            {
              "name": "totalAmount",
              "type": "uint128",
              "internalType": "uint128"
            },
            {
              "name": "token",
              "type": "address",
              "internalType": "contract IERC20"
            },
            {
              "name": "cancelable",
              "type": "bool",
              "internalType": "bool"
            },
            {
              "name": "transferable",
              "type": "bool",
              "internalType": "bool"
            },
            {
              "name": "timestamps",
              "type": "tuple",
              "internalType": "struct Lockup.Timestamps",
              "components": [
                {
                  "name": "start",
                  "type": "uint40",
                  "internalType": "uint40"
                },
                {
                  "name": "end",
                  "type": "uint40",
                  "internalType": "uint40"
                }
              ]
            },
            {
              "name": "shape",
              "type": "string",
              "internalType": "string"
            },
            {
              "name": "broker",
              "type": "tuple",
              "internalType": "struct Broker",
              "components": [
                {
                  "name": "account",
                  "type": "address",
                  "internalType": "address"
                },
                {
                  "name": "fee",
                  "type": "uint256",
                  "internalType": "UD60x18"
                }
              ]
            }
          ]
        },
        {
          "name": "tranches",
          "type": "tuple[]",
          "internalType": "struct LockupTranched.Tranche[]",
          "components": [
            {
              "name": "amount",
              "type": "uint128",
              "internalType": "uint128"
            },
            {
              "name": "timestamp",
              "type": "uint40",
              "internalType": "uint40"
            }
          ]
        }
      ],
      "outputs": [
        {
          "name": "streamId",
          "type": "uint256",
          "internalType": "uint256"
        }
      ],
      "stateMutability": "payable"
    },
    {
      "type": "function",
      "name": "getApproved",
      "inputs": [
        {
          "name": "tokenId",
          "type": "uint256",
          "internalType": "uint256"
        }
      ],
      "outputs": [
        {
          "name": "",
          "type": "address",
          "internalType": "address"
        }
      ],
      "stateMutability": "view"
    },
    {
      "type": "function",
      "name": "getCliffTime",
      "inputs": [
        {
          "name": "streamId",
          "type": "uint256",
          "internalType": "uint256"
        }
      ],
      "outputs": [
        {
          "name": "cliffTime",
          "type": "uint40",
          "internalType": "uint40"
        }
      ],
      "stateMutability": "view"
    },
    {
      "type": "function",
      "name": "getDepositedAmount",
      "inputs": [
        {
          "name": "streamId",
          "type": "uint256",
          "internalType": "uint256"
        }
      ],
      "outputs": [
        {
          "name": "depositedAmount",
          "type": "uint128",
          "internalType": "uint128"
        }
      ],
      "stateMutability": "view"
    },
    {
      "type": "function",
      "name": "getEndTime",
      "inputs": [
        {
          "name": "streamId",
          "type": "uint256",
          "internalType": "uint256"
        }
      ],
      "outputs": [
        {
          "name": "endTime",
          "type": "uint40",
          "internalType": "uint40"
        }
      ],
      "stateMutability": "view"
    },
    {
      "type": "function",
      "name": "getLockupModel",
      "inputs": [
        {
          "name": "streamId",
          "type": "uint256",
          "internalType": "uint256"
        }
      ],
      "outputs": [
        {
          "name": "lockupModel",
          "type": "uint8",
          "internalType": "enum Lockup.Model"
        }
      ],
      "stateMutability": "view"
    },
    {
      "type": "function",
      "name": "getRecipient",
      "inputs": [
        {
          "name": "streamId",
          "type": "uint256",
          "internalType": "uint256"
        }
      ],
      "outputs": [
        {
          "name": "recipient",
          "type": "address",
          "internalType": "address"
        }
      ],
      "stateMutability": "view"
    },
    {
      "type": "function",
      "name": "getRefundedAmount",
      "inputs": [
        {
          "name": "streamId",
          "type": "uint256",
          "internalType": "uint256"
        }
      ],
      "outputs": [
        {
          "name": "refundedAmount",
          "type": "uint128",
          "internalType": "uint128"
        }
      ],
      "stateMutability": "view"
    },
    {
      "type": "function",
      "name": "getSegments",
      "inputs": [
        {
          "name": "streamId",
          "type": "uint256",
          "internalType": "uint256"
        }
      ],
      "outputs": [
        {
          "name": "segments",
          "type": "tuple[]",
          "internalType": "struct LockupDynamic.Segment[]",
          "components": [
            {
              "name": "amount",
              "type": "uint128",
              "internalType": "uint128"
            },
            {
              "name": "exponent",
              "type": "uint64",
              "internalType": "UD2x18"
            },
            {
              "name": "timestamp",
              "type": "uint40",
              "internalType": "uint40"
            }
          ]
        }
      ],
      "stateMutability": "view"
    },
    {
      "type": "function",
      "name": "getSender",
      "inputs": [
        {
          "name": "streamId",
          "type": "uint256",
          "internalType": "uint256"
        }
      ],
      "outputs": [
        {
          "name": "sender",
          "type": "address",
          "internalType": "address"
        }
      ],
      "stateMutability": "view"
    },
    {
      "type": "function",
      "name": "getStartTime",
      "inputs": [
        {
          "name": "streamId",
          "type": "uint256",
          "internalType": "uint256"
        }
      ],
      "outputs": [
        {
          "name": "startTime",
          "type": "uint40",
          "internalType": "uint40"
        }
      ],
      "stateMutability": "view"
    },
    {
      "type": "function",
      "name": "getTranches",
      "inputs": [
        {
          "name": "streamId",
          "type": "uint256",
          "internalType": "uint256"
        }
      ],
      "outputs": [
        {
          "name": "tranches",
          "type": "tuple[]",
          "internalType": "struct LockupTranched.Tranche[]",
          "components": [
            {
              "name": "amount",
              "type": "uint128",
              "internalType": "uint128"
            },
            {
              "name": "timestamp",
              "type": "uint40",
              "internalType": "uint40"
            }
          ]
        }
      ],
      "stateMutability": "view"
    },
    {
      "type": "function",
      "name": "getUnderlyingToken",
      "inputs": [
        {
          "name": "streamId",
          "type": "uint256",
          "internalType": "uint256"
        }
      ],
      "outputs": [
        {
          "name": "token",
          "type": "address",
          "internalType": "contract IERC20"
        }
      ],
      "stateMutability": "view"
    },
    {
      "type": "function",
      "name": "getUnlockAmounts",
      "inputs": [
        {
          "name": "streamId",
          "type": "uint256",
          "internalType": "uint256"
        }
      ],
      "outputs": [
        {
          "name": "unlockAmounts",
          "type": "tuple",
          "internalType": "struct LockupLinear.UnlockAmounts",
          "components": [
            {
              "name": "start",
              "type": "uint128",
              "internalType": "uint128"
            },
            {
              "name": "cliff",
              "type": "uint128",
              "internalType": "uint128"
            }
          ]
        }
      ],
      "stateMutability": "view"
    },
    {
      "type": "function",
      "name": "getWithdrawnAmount",
      "inputs": [
        {
          "name": "streamId",
          "type": "uint256",
          "internalType": "uint256"
        }
      ],
      "outputs": [
        {
          "name": "withdrawnAmount",
          "type": "uint128",
          "internalType": "uint128"
        }
      ],
      "stateMutability": "view"
    },
    {
      "type": "function",
      "name": "isAllowedToHook",
      "inputs": [
        {
          "name": "recipient",
          "type": "address",
          "internalType": "address"
        }
      ],
      "outputs": [
        {
          "name": "result",
          "type": "bool",
          "internalType": "bool"
        }
      ],
      "stateMutability": "view"
    },
    {
      "type": "function",
      "name": "isApprovedForAll",
      "inputs": [
        {
          "name": "owner",
          "type": "address",
          "internalType": "address"
        },
        {
          "name": "operator",
          "type": "address",
          "internalType": "address"
        }
      ],
      "outputs": [
        {
          "name": "",
          "type": "bool",
          "internalType": "bool"
        }
      ],
      "stateMutability": "view"
    },
    {
      "type": "function",
      "name": "isCancelable",
      "inputs": [
        {
          "name": "streamId",
          "type": "uint256",
          "internalType": "uint256"
        }
      ],
      "outputs": [
        {
          "name": "result",
          "type": "bool",
          "internalType": "bool"
        }
      ],
      "stateMutability": "view"
    },
    {
      "type": "function",
      "name": "isCold",
      "inputs": [
        {
          "name": "streamId",
          "type": "uint256",
          "internalType": "uint256"
        }
      ],
      "outputs": [
        {
          "name": "result",
          "type": "bool",
          "internalType": "bool"
        }
      ],
      "stateMutability": "view"
    },
    {
      "type": "function",
      "name": "isDepleted",
      "inputs": [
        {
          "name": "streamId",
          "type": "uint256",
          "internalType": "uint256"
        }
      ],
      "outputs": [
        {
          "name": "result",
          "type": "bool",
          "internalType": "bool"
        }
      ],
      "stateMutability": "view"
    },
    {
      "type": "function",
      "name": "isStream",
      "inputs": [
        {
          "name": "streamId",
          "type": "uint256",
          "internalType": "uint256"
        }
      ],
      "outputs": [
        {
          "name": "result",
          "type": "bool",
          "internalType": "bool"
        }
      ],
      "stateMutability": "view"
    },
    {
      "type": "function",
      "name": "isTransferable",
      "inputs": [
        {
          "name": "streamId",
          "type": "uint256",
          "internalType": "uint256"
        }
      ],
      "outputs": [
        {
          "name": "result",
          "type": "bool",
          "internalType": "bool"
        }
      ],
      "stateMutability": "view"
    },
    {
      "type": "function",
      "name": "isWarm",
      "inputs": [
        {
          "name": "streamId",
          "type": "uint256",
          "internalType": "uint256"
        }
      ],
      "outputs": [
        {
          "name": "result",
          "type": "bool",
          "internalType": "bool"
        }
      ],
      "stateMutability": "view"
    },
    {
      "type": "function",
      "name": "name",
      "inputs": [],
      "outputs": [
        {
          "name": "",
          "type": "string",
          "internalType": "string"
        }
      ],
      "stateMutability": "view"
    },
    {
      "type": "function",
      "name": "nextStreamId",
      "inputs": [],
      "outputs": [
        {
          "name": "",
          "type": "uint256",
          "internalType": "uint256"
        }
      ],
      "stateMutability": "view"
    },
    {
      "type": "function",
      "name": "nftDescriptor",
      "inputs": [],
      "outputs": [
        {
          "name": "",
          "type": "address",
          "internalType": "contract ILockupNFTDescriptor"
        }
      ],
      "stateMutability": "view"
    },
    {
      "type": "function",
      "name": "ownerOf",
      "inputs": [
        {
          "name": "tokenId",
          "type": "uint256",
          "internalType": "uint256"
        }
      ],
      "outputs": [
        {
          "name": "",
          "type": "address",
          "internalType": "address"
        }
      ],
      "stateMutability": "view"
    },
    {
      "type": "function",
      "name": "refundableAmountOf",
      "inputs": [
        {
          "name": "streamId",
          "type": "uint256",
          "internalType": "uint256"
        }
      ],
      "outputs": [
        {
          "name": "refundableAmount",
          "type": "uint128",
          "internalType": "uint128"
        }
      ],
      "stateMutability": "view"
    },
    {
      "type": "function",
      "name": "renounce",
      "inputs": [
        {
          "name": "streamId",
          "type": "uint256",
          "internalType": "uint256"
        }
      ],
      "outputs": [],
      "stateMutability": "payable"
    },
    {
      "type": "function",
      "name": "renounceMultiple",
      "inputs": [
        {
          "name": "streamIds",
          "type": "uint256[]",
          "internalType": "uint256[]"
        }
      ],
      "outputs": [],
      "stateMutability": "payable"
    },
    {
      "type": "function",
      "name": "safeTransferFrom",
      "inputs": [
        {
          "name": "from",
          "type": "address",
          "internalType": "address"
        },
        {
          "name": "to",
          "type": "address",
          "internalType": "address"
        },
        {
          "name": "tokenId",
          "type": "uint256",
          "internalType": "uint256"
        }
      ],
      "outputs": [],
      "stateMutability": "nonpayable"
    },
    {
      "type": "function",
      "name": "safeTransferFrom",
      "inputs": [
        {
          "name": "from",
          "type": "address",
          "internalType": "address"
        },
        {
          "name": "to",
          "type": "address",
          "internalType": "address"
        },
        {
          "name": "tokenId",
          "type": "uint256",
          "internalType": "uint256"
        },
        {
          "name": "data",
          "type": "bytes",
          "internalType": "bytes"
        }
      ],
      "outputs": [],
      "stateMutability": "nonpayable"
    },
    {
      "type": "function",
      "name": "setApprovalForAll",
      "inputs": [
        {
          "name": "operator",
          "type": "address",
          "internalType": "address"
        },
        {
          "name": "approved",
          "type": "bool",
          "internalType": "bool"
        }
      ],
      "outputs": [],
      "stateMutability": "nonpayable"
    },
    {
      "type": "function",
      "name": "setNFTDescriptor",
      "inputs": [
        {
          "name": "newNFTDescriptor",
          "type": "address",
          "internalType": "contract ILockupNFTDescriptor"
        }
      ],
      "outputs": [],
      "stateMutability": "nonpayable"
    },
    {
      "type": "function",
      "name": "statusOf",
      "inputs": [
        {
          "name": "streamId",
          "type": "uint256",
          "internalType": "uint256"
        }
      ],
      "outputs": [
        {
          "name": "status",
          "type": "uint8",
          "internalType": "enum Lockup.Status"
        }
      ],
      "stateMutability": "view"
    },
    {
      "type": "function",
      "name": "streamedAmountOf",
      "inputs": [
        {
          "name": "streamId",
          "type": "uint256",
          "internalType": "uint256"
        }
      ],
      "outputs": [
        {
          "name": "streamedAmount",
          "type": "uint128",
          "internalType": "uint128"
        }
      ],
      "stateMutability": "view"
    },
    {
      "type": "function",
      "name": "supportsInterface",
      "inputs": [
        {
          "name": "interfaceId",
          "type": "bytes4",
          "internalType": "bytes4"
        }
      ],
      "outputs": [
        {
          "name": "",
          "type": "bool",
          "internalType": "bool"
        }
      ],
      "stateMutability": "view"
    },
    {
      "type": "function",
      "name": "symbol",
      "inputs": [],
      "outputs": [
        {
          "name": "",
          "type": "string",
          "internalType": "string"
        }
      ],
      "stateMutability": "view"
    },
    {
      "type": "function",
      "name": "tokenURI",
      "inputs": [
        {
          "name": "streamId",
          "type": "uint256",
          "internalType": "uint256"
        }
      ],
      "outputs": [
        {
          "name": "uri",
          "type": "string",
          "internalType": "string"
        }
      ],
      "stateMutability": "view"
    },
    {
      "type": "function",
      "name": "transferAdmin",
      "inputs": [
        {
          "name": "newAdmin",
          "type": "address",
          "internalType": "address"
        }
      ],
      "outputs": [],
      "stateMutability": "nonpayable"
    },
    {
      "type": "function",
      "name": "transferFrom",
      "inputs": [
        {
          "name": "from",
          "type": "address",
          "internalType": "address"
        },
        {
          "name": "to",
          "type": "address",
          "internalType": "address"
        },
        {
          "name": "tokenId",
          "type": "uint256",
          "internalType": "uint256"
        }
      ],
      "outputs": [],
      "stateMutability": "nonpayable"
    },
    {
      "type": "function",
      "name": "wasCanceled",
      "inputs": [
        {
          "name": "streamId",
          "type": "uint256",
          "internalType": "uint256"
        }
      ],
      "outputs": [
        {
          "name": "result",
          "type": "bool",
          "internalType": "bool"
        }
      ],
      "stateMutability": "view"
    },
    {
      "type": "function",
      "name": "withdraw",
      "inputs": [
        {
          "name": "streamId",
          "type": "uint256",
          "internalType": "uint256"
        },
        {
          "name": "to",
          "type": "address",
          "internalType": "address"
        },
        {
          "name": "amount",
          "type": "uint128",
          "internalType": "uint128"
        }
      ],
      "outputs": [],
      "stateMutability": "payable"
    },
    {
      "type": "function",
      "name": "withdrawMax",
      "inputs": [
        {
          "name": "streamId",
          "type": "uint256",
          "internalType": "uint256"
        },
        {
          "name": "to",
          "type": "address",
          "internalType": "address"
        }
      ],
      "outputs": [
        {
          "name": "withdrawnAmount",
          "type": "uint128",
          "internalType": "uint128"
        }
      ],
      "stateMutability": "payable"
    },
    {
      "type": "function",
      "name": "withdrawMaxAndTransfer",
      "inputs": [
        {
          "name": "streamId",
          "type": "uint256",
          "internalType": "uint256"
        },
        {
          "name": "newRecipient",
          "type": "address",
          "internalType": "address"
        }
      ],
      "outputs": [
        {
          "name": "withdrawnAmount",
          "type": "uint128",
          "internalType": "uint128"
        }
      ],
      "stateMutability": "payable"
    },
    {
      "type": "function",
      "name": "withdrawMultiple",
      "inputs": [
        {
          "name": "streamIds",
          "type": "uint256[]",
          "internalType": "uint256[]"
        },
        {
          "name": "amounts",
          "type": "uint128[]",
          "internalType": "uint128[]"
        }
      ],
      "outputs": [],
      "stateMutability": "payable"
    },
    {
      "type": "function",
      "name": "withdrawableAmountOf",
      "inputs": [
        {
          "name": "streamId",
          "type": "uint256",
          "internalType": "uint256"
        }
      ],
      "outputs": [
        {
          "name": "withdrawableAmount",
          "type": "uint128",
          "internalType": "uint128"
        }
      ],
      "stateMutability": "view"
    },
    {
      "type": "event",
      "name": "AllowToHook",
      "inputs": [
        {
          "name": "admin",
          "type": "address",
          "indexed": true,
          "internalType": "address"
        },
        {
          "name": "recipient",
          "type": "address",
          "indexed": false,
          "internalType": "address"
        }
      ],
      "anonymous": false
    },
    {
      "type": "event",
      "name": "Approval",
      "inputs": [
        {
          "name": "owner",
          "type": "address",
          "indexed": true,
          "internalType": "address"
        },
        {
          "name": "approved",
          "type": "address",
          "indexed": true,
          "internalType": "address"
        },
        {
          "name": "tokenId",
          "type": "uint256",
          "indexed": true,
          "internalType": "uint256"
        }
      ],
      "anonymous": false
    },
    {
      "type": "event",
      "name": "ApprovalForAll",
      "inputs": [
        {
          "name": "owner",
          "type": "address",
          "indexed": true,
          "internalType": "address"
        },
        {
          "name": "operator",
          "type": "address",
          "indexed": true,
          "internalType": "address"
        },
        {
          "name": "approved",
          "type": "bool",
          "indexed": false,
          "internalType": "bool"
        }
      ],
      "anonymous": false
    },
    {
      "type": "event",
      "name": "BatchMetadataUpdate",
      "inputs": [
        {
          "name": "_fromTokenId",
          "type": "uint256",
          "indexed": false,
          "internalType": "uint256"
        },
        {
          "name": "_toTokenId",
          "type": "uint256",
          "indexed": false,
          "internalType": "uint256"
        }
      ],
      "anonymous": false
    },
    {
      "type": "event",
      "name": "CancelLockupStream",
      "inputs": [
        {
          "name": "streamId",
          "type": "uint256",
          "indexed": false,
          "internalType": "uint256"
        },
        {
          "name": "sender",
          "type": "address",
          "indexed": true,
          "internalType": "address"
        },
        {
          "name": "recipient",
          "type": "address",
          "indexed": true,
          "internalType": "address"
        },
        {
          "name": "token",
          "type": "address",
          "indexed": true,
          "internalType": "contract IERC20"
        },
        {
          "name": "senderAmount",
          "type": "uint128",
          "indexed": false,
          "internalType": "uint128"
        },
        {
          "name": "recipientAmount",
          "type": "uint128",
          "indexed": false,
          "internalType": "uint128"
        }
      ],
      "anonymous": false
    },
    {
      "type": "event",
      "name": "CollectFees",
      "inputs": [
        {
          "name": "admin",
          "type": "address",
          "indexed": true,
          "internalType": "address"
        },
        {
          "name": "feeAmount",
          "type": "uint256",
          "indexed": true,
          "internalType": "uint256"
        }
      ],
      "anonymous": false
    },
    {
      "type": "event",
      "name": "CreateLockupDynamicStream",
      "inputs": [
        {
          "name": "streamId",
          "type": "uint256",
          "indexed": true,
          "internalType": "uint256"
        },
        {
          "name": "commonParams",
          "type": "tuple",
          "indexed": false,
          "internalType": "struct Lockup.CreateEventCommon",
          "components": [
            {
              "name": "funder",
              "type": "address",
              "internalType": "address"
            },
            {
              "name": "sender",
              "type": "address",
              "internalType": "address"
            },
            {
              "name": "recipient",
              "type": "address",
              "internalType": "address"
            },
            {
              "name": "amounts",
              "type": "tuple",
              "internalType": "struct Lockup.CreateAmounts",
              "components": [
                {
                  "name": "deposit",
                  "type": "uint128",
                  "internalType": "uint128"
                },
                {
                  "name": "brokerFee",
                  "type": "uint128",
                  "internalType": "uint128"
                }
              ]
            },
            {
              "name": "token",
              "type": "address",
              "internalType": "contract IERC20"
            },
            {
              "name": "cancelable",
              "type": "bool",
              "internalType": "bool"
            },
            {
              "name": "transferable",
              "type": "bool",
              "internalType": "bool"
            },
            {
              "name": "timestamps",
              "type": "tuple",
              "internalType": "struct Lockup.Timestamps",
              "components": [
                {
                  "name": "start",
                  "type": "uint40",
                  "internalType": "uint40"
                },
                {
                  "name": "end",
                  "type": "uint40",
                  "internalType": "uint40"
                }
              ]
            },
            {
              "name": "shape",
              "type": "string",
              "internalType": "string"
            },
            {
              "name": "broker",
              "type": "address",
              "internalType": "address"
            }
          ]
        },
        {
          "name": "segments",
          "type": "tuple[]",
          "indexed": false,
          "internalType": "struct LockupDynamic.Segment[]",
          "components": [
            {
              "name": "amount",
              "type": "uint128",
              "internalType": "uint128"
            },
            {
              "name": "exponent",
              "type": "uint64",
              "internalType": "UD2x18"
            },
            {
              "name": "timestamp",
              "type": "uint40",
              "internalType": "uint40"
            }
          ]
        }
      ],
      "anonymous": false
    },
    {
      "type": "event",
      "name": "CreateLockupLinearStream",
      "inputs": [
        {
          "name": "streamId",
          "type": "uint256",
          "indexed": true,
          "internalType": "uint256"
        },
        {
          "name": "commonParams",
          "type": "tuple",
          "indexed": false,
          "internalType": "struct Lockup.CreateEventCommon",
          "components": [
            {
              "name": "funder",
              "type": "address",
              "internalType": "address"
            },
            {
              "name": "sender",
              "type": "address",
              "internalType": "address"
            },
            {
              "name": "recipient",
              "type": "address",
              "internalType": "address"
            },
            {
              "name": "amounts",
              "type": "tuple",
              "internalType": "struct Lockup.CreateAmounts",
              "components": [
                {
                  "name": "deposit",
                  "type": "uint128",
                  "internalType": "uint128"
                },
                {
                  "name": "brokerFee",
                  "type": "uint128",
                  "internalType": "uint128"
                }
              ]
            },
            {
              "name": "token",
              "type": "address",
              "internalType": "contract IERC20"
            },
            {
              "name": "cancelable",
              "type": "bool",
              "internalType": "bool"
            },
            {
              "name": "transferable",
              "type": "bool",
              "internalType": "bool"
            },
            {
              "name": "timestamps",
              "type": "tuple",
              "internalType": "struct Lockup.Timestamps",
              "components": [
                {
                  "name": "start",
                  "type": "uint40",
                  "internalType": "uint40"
                },
                {
                  "name": "end",
                  "type": "uint40",
                  "internalType": "uint40"
                }
              ]
            },
            {
              "name": "shape",
              "type": "string",
              "internalType": "string"
            },
            {
              "name": "broker",
              "type": "address",
              "internalType": "address"
            }
          ]
        },
        {
          "name": "cliffTime",
          "type": "uint40",
          "indexed": false,
          "internalType": "uint40"
        },
        {
          "name": "unlockAmounts",
          "type": "tuple",
          "indexed": false,
          "internalType": "struct LockupLinear.UnlockAmounts",
          "components": [
            {
              "name": "start",
              "type": "uint128",
              "internalType": "uint128"
            },
            {
              "name": "cliff",
              "type": "uint128",
              "internalType": "uint128"
            }
          ]
        }
      ],
      "anonymous": false
    },
    {
      "type": "event",
      "name": "CreateLockupTranchedStream",
      "inputs": [
        {
          "name": "streamId",
          "type": "uint256",
          "indexed": true,
          "internalType": "uint256"
        },
        {
          "name": "commonParams",
          "type": "tuple",
          "indexed": false,
          "internalType": "struct Lockup.CreateEventCommon",
          "components": [
            {
              "name": "funder",
              "type": "address",
              "internalType": "address"
            },
            {
              "name": "sender",
              "type": "address",
              "internalType": "address"
            },
            {
              "name": "recipient",
              "type": "address",
              "internalType": "address"
            },
            {
              "name": "amounts",
              "type": "tuple",
              "internalType": "struct Lockup.CreateAmounts",
              "components": [
                {
                  "name": "deposit",
                  "type": "uint128",
                  "internalType": "uint128"
                },
                {
                  "name": "brokerFee",
                  "type": "uint128",
                  "internalType": "uint128"
                }
              ]
            },
            {
              "name": "token",
              "type": "address",
              "internalType": "contract IERC20"
            },
            {
              "name": "cancelable",
              "type": "bool",
              "internalType": "bool"
            },
            {
              "name": "transferable",
              "type": "bool",
              "internalType": "bool"
            },
            {
              "name": "timestamps",
              "type": "tuple",
              "internalType": "struct Lockup.Timestamps",
              "components": [
                {
                  "name": "start",
                  "type": "uint40",
                  "internalType": "uint40"
                },
                {
                  "name": "end",
                  "type": "uint40",
                  "internalType": "uint40"
                }
              ]
            },
            {
              "name": "shape",
              "type": "string",
              "internalType": "string"
            },
            {
              "name": "broker",
              "type": "address",
              "internalType": "address"
            }
          ]
        },
        {
          "name": "tranches",
          "type": "tuple[]",
          "indexed": false,
          "internalType": "struct LockupTranched.Tranche[]",
          "components": [
            {
              "name": "amount",
              "type": "uint128",
              "internalType": "uint128"
            },
            {
              "name": "timestamp",
              "type": "uint40",
              "internalType": "uint40"
            }
          ]
        }
      ],
      "anonymous": false
    },
    {
      "type": "event",
      "name": "InvalidWithdrawalInWithdrawMultiple",
      "inputs": [
        {
          "name": "streamId",
          "type": "uint256",
          "indexed": false,
          "internalType": "uint256"
        },
        {
          "name": "revertData",
          "type": "bytes",
          "indexed": false,
          "internalType": "bytes"
        }
      ],
      "anonymous": false
    },
    {
      "type": "event",
      "name": "MetadataUpdate",
      "inputs": [
        {
          "name": "_tokenId",
          "type": "uint256",
          "indexed": false,
          "internalType": "uint256"
        }
      ],
      "anonymous": false
    },
    {
      "type": "event",
      "name": "RenounceLockupStream",
      "inputs": [
        {
          "name": "streamId",
          "type": "uint256",
          "indexed": true,
          "internalType": "uint256"
        }
      ],
      "anonymous": false
    },
    {
      "type": "event",
      "name": "SetNFTDescriptor",
      "inputs": [
        {
          "name": "admin",
          "type": "address",
          "indexed": true,
          "internalType": "address"
        },
        {
          "name": "oldNFTDescriptor",
          "type": "address",
          "indexed": false,
          "internalType": "contract ILockupNFTDescriptor"
        },
        {
          "name": "newNFTDescriptor",
          "type": "address",
          "indexed": false,
          "internalType": "contract ILockupNFTDescriptor"
        }
      ],
      "anonymous": false
    },
    {
      "type": "event",
      "name": "Transfer",
      "inputs": [
        {
          "name": "from",
          "type": "address",
          "indexed": true,
          "internalType": "address"
        },
        {
          "name": "to",
          "type": "address",
          "indexed": true,
          "internalType": "address"
        },
        {
          "name": "tokenId",
          "type": "uint256",
          "indexed": true,
          "internalType": "uint256"
        }
      ],
      "anonymous": false
    },
    {
      "type": "event",
      "name": "TransferAdmin",
      "inputs": [
        {
          "name": "oldAdmin",
          "type": "address",
          "indexed": true,
          "internalType": "address"
        },
        {
          "name": "newAdmin",
          "type": "address",
          "indexed": true,
          "internalType": "address"
        }
      ],
      "anonymous": false
    },
    {
      "type": "event",
      "name": "WithdrawFromLockupStream",
      "inputs": [
        {
          "name": "streamId",
          "type": "uint256",
          "indexed": true,
          "internalType": "uint256"
        },
        {
          "name": "to",
          "type": "address",
          "indexed": true,
          "internalType": "address"
        },
        {
          "name": "token",
          "type": "address",
          "indexed": true,
          "internalType": "contract IERC20"
        },
        {
          "name": "amount",
          "type": "uint128",
          "indexed": false,
          "internalType": "uint128"
        }
      ],
      "anonymous": false
    },
    {
      "type": "error",
      "name": "AddressEmptyCode",
      "inputs": [
        {
          "name": "target",
          "type": "address",
          "internalType": "address"
        }
      ]
    },
    {
      "type": "error",
      "name": "AddressInsufficientBalance",
      "inputs": [
        {
          "name": "account",
          "type": "address",
          "internalType": "address"
        }
      ]
    },
    {
      "type": "error",
      "name": "CallerNotAdmin",
      "inputs": [
        {
          "name": "admin",
          "type": "address",
          "internalType": "address"
        },
        {
          "name": "caller",
          "type": "address",
          "internalType": "address"
        }
      ]
    },
    {
      "type": "error",
      "name": "DelegateCall",
      "inputs": []
    },
    {
      "type": "error",
      "name": "ERC721IncorrectOwner",
      "inputs": [
        {
          "name": "sender",
          "type": "address",
          "internalType": "address"
        },
        {
          "name": "tokenId",
          "type": "uint256",
          "internalType": "uint256"
        },
        {
          "name": "owner",
          "type": "address",
          "internalType": "address"
        }
      ]
    },
    {
      "type": "error",
      "name": "ERC721InsufficientApproval",
      "inputs": [
        {
          "name": "operator",
          "type": "address",
          "internalType": "address"
        },
        {
          "name": "tokenId",
          "type": "uint256",
          "internalType": "uint256"
        }
      ]
    },
    {
      "type": "error",
      "name": "ERC721InvalidApprover",
      "inputs": [
        {
          "name": "approver",
          "type": "address",
          "internalType": "address"
        }
      ]
    },
    {
      "type": "error",
      "name": "ERC721InvalidOperator",
      "inputs": [
        {
          "name": "operator",
          "type": "address",
          "internalType": "address"
        }
      ]
    },
    {
      "type": "error",
      "name": "ERC721InvalidOwner",
      "inputs": [
        {
          "name": "owner",
          "type": "address",
          "internalType": "address"
        }
      ]
    },
    {
      "type": "error",
      "name": "ERC721InvalidReceiver",
      "inputs": [
        {
          "name": "receiver",
          "type": "address",
          "internalType": "address"
        }
      ]
    },
    {
      "type": "error",
      "name": "ERC721InvalidSender",
      "inputs": [
        {
          "name": "sender",
          "type": "address",
          "internalType": "address"
        }
      ]
    },
    {
      "type": "error",
      "name": "ERC721NonexistentToken",
      "inputs": [
        {
          "name": "tokenId",
          "type": "uint256",
          "internalType": "uint256"
        }
      ]
    },
    {
      "type": "error",
      "name": "FailedInnerCall",
      "inputs": []
    },
    {
      "type": "error",
      "name": "SablierLockupBase_AllowToHookUnsupportedInterface",
      "inputs": [
        {
          "name": "recipient",
          "type": "address",
          "internalType": "address"
        }
      ]
    },
    {
      "type": "error",
      "name": "SablierLockupBase_AllowToHookZeroCodeSize",
      "inputs": [
        {
          "name": "recipient",
          "type": "address",
          "internalType": "address"
        }
      ]
    },
    {
      "type": "error",
      "name": "SablierLockupBase_FeeTransferFail",
      "inputs": [
        {
          "name": "admin",
          "type": "address",
          "internalType": "address"
        },
        {
          "name": "feeAmount",
          "type": "uint256",
          "internalType": "uint256"
        }
      ]
    },
    {
      "type": "error",
      "name": "SablierLockupBase_InvalidHookSelector",
      "inputs": [
        {
          "name": "recipient",
          "type": "address",
          "internalType": "address"
        }
      ]
    },
    {
      "type": "error",
      "name": "SablierLockupBase_NotTransferable",
      "inputs": [
        {
          "name": "tokenId",
          "type": "uint256",
          "internalType": "uint256"
        }
      ]
    },
    {
      "type": "error",
      "name": "SablierLockupBase_Null",
      "inputs": [
        {
          "name": "streamId",
          "type": "uint256",
          "internalType": "uint256"
        }
      ]
    },
    {
      "type": "error",
      "name": "SablierLockupBase_Overdraw",
      "inputs": [
        {
          "name": "streamId",
          "type": "uint256",
          "internalType": "uint256"
        },
        {
          "name": "amount",
          "type": "uint128",
          "internalType": "uint128"
        },
        {
          "name": "withdrawableAmount",
          "type": "uint128",
          "internalType": "uint128"
        }
      ]
    },
    {
      "type": "error",
      "name": "SablierLockupBase_StreamCanceled",
      "inputs": [
        {
          "name": "streamId",
          "type": "uint256",
          "internalType": "uint256"
        }
      ]
    },
    {
      "type": "error",
      "name": "SablierLockupBase_StreamDepleted",
      "inputs": [
        {
          "name": "streamId",
          "type": "uint256",
          "internalType": "uint256"
        }
      ]
    },
    {
      "type": "error",
      "name": "SablierLockupBase_StreamNotCancelable",
      "inputs": [
        {
          "name": "streamId",
          "type": "uint256",
          "internalType": "uint256"
        }
      ]
    },
    {
      "type": "error",
      "name": "SablierLockupBase_StreamNotDepleted",
      "inputs": [
        {
          "name": "streamId",
          "type": "uint256",
          "internalType": "uint256"
        }
      ]
    },
    {
      "type": "error",
      "name": "SablierLockupBase_StreamSettled",
      "inputs": [
        {
          "name": "streamId",
          "type": "uint256",
          "internalType": "uint256"
        }
      ]
    },
    {
      "type": "error",
      "name": "SablierLockupBase_Unauthorized",
      "inputs": [
        {
          "name": "streamId",
          "type": "uint256",
          "internalType": "uint256"
        },
        {
          "name": "caller",
          "type": "address",
          "internalType": "address"
        }
      ]
    },
    {
      "type": "error",
      "name": "SablierLockupBase_WithdrawAmountZero",
      "inputs": [
        {
          "name": "streamId",
          "type": "uint256",
          "internalType": "uint256"
        }
      ]
    },
    {
      "type": "error",
      "name": "SablierLockupBase_WithdrawArrayCountsNotEqual",
      "inputs": [
        {
          "name": "streamIdsCount",
          "type": "uint256",
          "internalType": "uint256"
        },
        {
          "name": "amountsCount",
          "type": "uint256",
          "internalType": "uint256"
        }
      ]
    },
    {
      "type": "error",
      "name": "SablierLockupBase_WithdrawToZeroAddress",
      "inputs": [
        {
          "name": "streamId",
          "type": "uint256",
          "internalType": "uint256"
        }
      ]
    },
    {
      "type": "error",
      "name": "SablierLockupBase_WithdrawalAddressNotRecipient",
      "inputs": [
        {
          "name": "streamId",
          "type": "uint256",
          "internalType": "uint256"
        },
        {
          "name": "caller",
          "type": "address",
          "internalType": "address"
        },
        {
          "name": "to",
          "type": "address",
          "internalType": "address"
        }
      ]
    },
    {
      "type": "error",
      "name": "SablierLockup_NotExpectedModel",
      "inputs": [
        {
          "name": "actualLockupModel",
          "type": "uint8",
          "internalType": "enum Lockup.Model"
        },
        {
          "name": "expectedLockupModel",
          "type": "uint8",
          "internalType": "enum Lockup.Model"
        }
      ]
    },
    {
      "type": "error",
      "name": "SafeERC20FailedOperation",
      "inputs": [
        {
          "name": "token",
          "type": "address",
          "internalType": "address"
        }
      ]
    }
  ],
  "bytecode": {
    "object": "0x60c0604052346103ce576163b26060813803918261001c816103d2565b9384928339810103126103ce5780516001600160a01b038116908190036103ce5760208201516001600160a01b03811692908390036103ce576040015161006360406103d2565b92601284527114d8589b1a595c88131bd8dadd5c0813919560721b602085015261008d60406103d2565b600a81526905341422d4c4f434b55560b41b6020820152306080525f80546001600160a01b031916851781559093907fbdd36143ee09de60bdefca70680e0f71189b2ed7acee364b53917ad433fdaf808180a383516001600160401b0381116102df57600154600181811c911680156103c4575b60208210146102c157601f8111610361575b50602094601f82116001146102fe579481929394955f926102f3575b50508160011b915f199060031b1c1916176001555b82516001600160401b0381116102df57600254600181811c911680156102d5575b60208210146102c157601f811161025e575b506020601f82116001146101fb57819293945f926101f0575b50508160011b915f199060031b1c1916176002555b600880546001600160a01b03191691909117905560a0526001600755604051615fba90816103f8823960805181613d17015260a0518181816117cc015281816143b0015261515d0152f35b015190505f80610190565b601f1982169060025f52805f20915f5b8181106102465750958360019596971061022e575b505050811b016002556101a5565b01515f1960f88460031b161c191690555f8080610220565b9192602060018192868b01518155019401920161020b565b60025f527f405787fa12a823e0f2b7631cc41b3ba8828b3321ca811111fa75cd3aa3bb5ace601f830160051c810191602084106102b7575b601f0160051c01905b8181106102ac5750610177565b5f815560010161029f565b9091508190610296565b634e487b7160e01b5f52602260045260245ffd5b90607f1690610165565b634e487b7160e01b5f52604160045260245ffd5b015190505f8061012f565b601f1982169560015f52805f20915f5b88811061034957508360019596979810610331575b505050811b01600155610144565b01515f1960f88460031b161c191690555f8080610323565b9192602060018192868501518155019401920161030e565b60015f527fb10e2d527612073b26eecdfd717e6a320cf44b4afac2b0732d9fcbe2b7fa0cf6601f830160051c810191602084106103ba575b601f0160051c01905b8181106103af5750610113565b5f81556001016103a2565b9091508190610399565b90607f1690610101565b5f80fd5b6040519190601f01601f191682016001600160401b038111838210176102df5760405256fe60806040526004361015610011575f80fd5b5f3560e01c8062dba286146103fe57806301ffc9a7146103f9578063027b6744146103f457806306fdde03146103ef578063081812fc146103ea578063095ea7b3146103e55780630aef4433146103e05780631400ecec146103db5780631c1cdd4c146103d65780631e897afb146103d15780631e99d569146103cc57806322bc0a80146103c757806323b872dd146103c2578063303acc85146103bd578063406887cb146103b857806340e58ee5146103b3578063425d30dd146103ae57806342842e0e146103a957806342966c68146103a4578063442675701461039f5780634857501f1461039a5780634869e12d146103955780634cc55e11146103905780636352211e1461038b5780636d0cee751461038b57806370a0823114610386578063727b3b0a1461038157806375829def1461037c57806377163c1d14610377578063780a82c8146103725780637a6958411461036d5780637cad6cd1146103685780637de6b1db146103635780637ee213911461035e5780637f5799f9146103595780638659c270146103545780638f69b9931461034f5780639067b6771461034a57806395d89b4114610345578063a22cb46514610340578063a47757721461033b578063a80fc07114610336578063ad35efd414610331578063b25645691461032c578063b637b86514610327578063b88d4fde14610322578063b8a3be661461031d578063b971302a14610318578063bc2be1be14610313578063c156a11d1461030e578063c879657214610309578063c87b56dd14610304578063d4dbd20b146102ff578063d511609f146102fa578063d975dfed146102f5578063deecd64f146102f0578063df2a848c146102eb578063e6c417eb146102e6578063e985e9c5146102e1578063ea5ead19146102dc578063f590c176146102d7578063f851a440146102d25763fdd46d60146102cd575f80fd5b613178565b613137565b6130e1565b612e7c565b612e16565b612dc3565b612d22565b612b18565b612ae0565b612a80565b612a1a565b612934565b6128b0565b61256c565b61250a565b6124a7565b612472565b61240a565b61224b565b612173565b612122565b61209e565b612038565b611f80565b611eb6565b611e54565b611dcb565b611cfb565b611c4f565b611b12565b6119f7565b611924565b6118b9565b6117ef565b6117b5565b611744565b61160d565b6115b8565b61159a565b611420565b6113d3565b611361565b61133b565b6112a6565b61127d565b611221565b611147565b610fef565b610fae565b610f97565b610e60565b610e34565b610d78565b610c47565b610b71565b610988565b61084c565b6107ff565b610710565b610694565b61060b565b610438565b90816101209103126104125790565b5f80fd5b604090602319011261041257602490565b604090606319011261041257606490565b60a03660031901126104125760043567ffffffffffffffff811161041257610464903690600401610403565b61046d36610416565b61047636610427565b9061047f613d0d565b61048761236a565b4264ffffffffff16815292602084015f81525f936104b16104a7826133c6565b64ffffffffff1690565b6105d0575b855164ffffffffff16906020016104cc906133c6565b6104d5916133e4565b64ffffffffff1690526104e781613405565b936104f460208301613405565b906105016040840161340f565b9061050e60608501613405565b61051a60808601613419565b61052660a08701613419565b9161053460c0880188613423565b95909661053f612379565b6001600160a01b03909c168c526001600160a01b031660208c01526001600160801b031660408b01526001600160a01b031660608a015215156080890152151560a088015260c08701523690610594926123d4565b60e0850152369060e001906105a891613456565b610100840152366105b891613487565b6105c192613f4d565b604051908152602090f35b0390f35b93506105f36105e4865164ffffffffff1690565b6105ed866133c6565b906133e4565b936104b6565b6001600160e01b031981160361041257565b3461041257602036600319011261041257600435610628816105f9565b63ffffffff60e01b16632483248360e11b8114908115610651575b506040519015158152602090f35b6380ac58cd60e01b811491508115610683575b8115610672575b505f610643565b6301ffc9a760e01b1490505f61066b565b635b5e139f60e01b81149150610664565b34610412575f36600319011261041257602060405167016345785d8a00008152f35b5f5b8381106106c75750505f910152565b81810151838201526020016106b8565b906020916106f0815180928185528580860191016106b6565b601f01601f1916010190565b90602061070d9281815201906106d7565b90565b34610412575f366003190112610412576040515f6001548060011c90600181169081156107f5575b6020831082146107e15782855260208501919081156107c85750600114610776575b6105cc8461076a81860382612348565b604051918291826106fc565b60015f9081529250907fb10e2d527612073b26eecdfd717e6a320cf44b4afac2b0732d9fcbe2b7fa0cf65b8184106107b45750500161076a8261075a565b8054848401526020909301926001016107a1565b60ff191682525090151560051b01905061076a8261075a565b634e487b7160e01b5f52602260045260245ffd5b91607f1691610738565b3461041257602036600319011261041257602061081d6004356134c1565b6001600160a01b0360405191168152f35b6001600160a01b0381160361041257565b359061084a8261082e565b565b34610412576040366003190112610412576004356108698161082e565b6024359061087682614152565b33151580610944575b80610904575b6108ee57826108ec936108d1926001600160a01b0380861691167f8c5be1e5ebec7d5bd14f71427d1e84f3dd0314c0f7b2291e5b200ac8c7c3b9255f80a45f52600560205260405f2090565b906001600160a01b03166001600160a01b0319825416179055565b005b63a9fbf51f60e01b5f523360045260245ffd5b5ffd5b5060ff61093c33610926846001600160a01b03165f52600660205260405f2090565b906001600160a01b03165f5260205260405f2090565b541615610885565b50336001600160a01b038216141561087f565b9181601f840112156104125782359167ffffffffffffffff8311610412576020808501946060850201011161041257565b60403660031901126104125760043567ffffffffffffffff8111610412576109b4903690600401610403565b60243567ffffffffffffffff8111610412576109d4903690600401610957565b916109dd613d0d565b5f64ffffffffff4216938493610a07604051958693849363f0b95e0960e01b8552600485016135d0565b038173__$70ac0b9f44f1ad43af70526685fc041161$__5af4918215610b6c575f92610b48575b508151610a3a90613670565b610a449083613692565b516040015164ffffffffff16610a5861236a565b64ffffffffff909416845264ffffffffff166020840152610a7881613405565b92610a8560208301613405565b90610a926040840161340f565b90610a9f60608501613405565b610aab60808601613419565b610ab760a08701613419565b91610ac560c0880188613423565b959096610ad0612379565b6001600160a01b03909b168b526001600160a01b031660208b01526001600160801b031660408a01526001600160a01b0316606089015215156080880152151560a087015260c08601523690610b25926123d4565b60e0840152369060e00190610b3991613456565b6101008301526105c19161435b565b610b659192503d805f833e610b5d8183612348565b81019061350d565b905f610a2e565b613665565b3461041257602036600319011261041257600435805f52600a60205260ff600160405f20015460a81c1615610c35576105cc905f90805f52600a60205260ff60405f205460f01c1680610c18575b610bdf575b506040516001600160801b0390911681529081906020820190565b610c129150805f52600a602052610c0c610c06600260405f2001546001600160801b031690565b91614671565b906136ab565b5f610bc4565b50805f52600a60205260ff600160405f20015460a01c1615610bbf565b631643770160e21b5f5260045260245ffd5b3461041257602036600319011261041257600435805f52600a60205260ff600160405f20015460a81c1615610c3557610c7f90614903565b6005811015610cb457806105cc9115908115610ca9575b5060405190151581529081906020820190565b60019150145f610c96565b612104565b9181601f840112156104125782359167ffffffffffffffff8311610412576020808501948460051b01011161041257565b6020600319820112610412576004359067ffffffffffffffff821161041257610d1591600401610cb9565b9091565b602081016020825282518091526040820191602060408360051b8301019401925f915b838310610d4b57505050505090565b9091929394602080610d69600193603f1986820301875289516106d7565b97019301930191939290610d3c565b610d8136610cea565b90610d8b826134e3565b91610d996040519384612348565b808352601f19610da8826134e3565b015f5b818110610e235750505f5b818110610dcb57604051806105cc8682610d19565b5f80610dd88385876136cb565b90610de8604051809381936136e2565b0390305af4610df56136ef565b9015610e1b5790600191610e098287613692565b52610e148186613692565b5001610db6565b805190602001fd5b806060602080938801015201610dab565b34610412575f366003190112610412576020600754604051908152f35b90816101609103126104125790565b60403660031901126104125760043567ffffffffffffffff811161041257610e8c903690600401610e51565b60243567ffffffffffffffff811161041257610eaf610ec1913690600401610957565b919092610eba613d0d565b369061376f565b90610ecb816134e3565b92610ed96040519485612348565b818452606060208501920281019036821161041257915b818310610f14576105cc610f04868661435b565b6040519081529081906020820190565b606083360312610412576020606091604051610f2f8161230b565b8535610f3a8161315c565b815282860135610f49816134fb565b838201526040860135610f5b816118aa565b6040820152815201920191610ef0565b606090600319011261041257600435610f838161082e565b90602435610f908161082e565b9060443590565b34610412576108ec610fa836610f6b565b91613833565b34610412576020366003190112610412576001600160a01b03600435610fd38161082e565b165f526009602052602060ff60405f2054166040519015158152f35b346104125760203660031901126104125760043561100c8161082e565b6001600160a01b035f54163381036111315750803b15611116576040516301ffc9a760e01b815263f8ee98d360e01b60048201526020816024816001600160a01b0386165afa908115610b6c575f916110e7575b50156110cc57611091611084826001600160a01b03165f52600960205260405f2090565b805460ff19166001179055565b6040516001600160a01b0391909116815233907fb4378d4e289cb3f40f4f75a99c9cafa76e3df1c4dc31309babc23dc91bd7280190602090a2005b6325db035960e21b5f526001600160a01b031660045260245ffd5b611109915060203d60201161110f575b6111018183612348565b810190613932565b5f611060565b503d6110f7565b6365453b0d60e01b5f526001600160a01b031660045260245ffd5b6331b339a960e21b5f526004523360245260445ffd5b60203660031901126104125760043561115e613d0d565b805f52600a60205260ff600160405f20015460a81c1615610c3557805f52600a60205260ff600160405f20015460a01c165f146111a75763449491f560e11b5f5260045260245ffd5b6111c36111bc825f52600a60205260405f2090565b5460f81c90565b61120f576111ec6111e8825f52600a6020526001600160a01b0360405f205416331490565b1590565b6111f9576108ec90614a81565b634dda2c3960e11b5f526004523360245260445ffd5b63e707ae4f60e01b5f5260045260245ffd5b3461041257602036600319011261041257600435805f52600a60205260ff600160405f20015460a81c1615610c35575f52600a6020526105cc60ff600160405f20015460a01c1660405191829182919091602081019215159052565b34610412576108ec61128e36610f6b565b906040519261129e602085612348565b5f8452613aad565b6020366003190112610412576004356112bd613d0d565b805f52600a60205260ff600160405f20015460a81c1615610c3557805f52600a60205260ff600160405f20015460a01c161561132957805f52600360205261131c6111e861131660405f206001600160a01b0390541690565b83614dc3565b6111f9576108ec90614e30565b63535d196d60e11b5f5260045260245ffd5b34610412575f3660031901126104125760206001600160a01b0360085416604051908152f35b3461041257602036600319011261041257600435805f52600a60205260ff600160405f20015460a81c1615610c35575f61139a82614903565b6005811015610cb4576002036113b8575b6040519015158152602090f35b505f52600a6020526105cc60ff60405f205460f01c166113ab565b3461041257602036600319011261041257600435805f52600a60205260ff600160405f20015460a81c1615610c355761140b90614ec2565b6040516001600160801b039091168152602090f35b60403660031901126104125760043567ffffffffffffffff81116104125761144c903690600401610cb9565b60243567ffffffffffffffff81116104125761146c903690600401610cb9565b919092611477613d0d565b828203611581575f5b82811061148957005b805f8084886115206114d96114d4878c6114ce6114b5838f6114ae60019f828d613947565b359a613947565b355f5260036020526001600160a01b0360405f20541690565b95613947565b61340f565b6040516307eea36b60e51b6020820190815260248201959095526001600160a01b039390931660448401526001600160801b03166064808401919091528252608482612348565b5190305af461152d6136ef565b901561153b575b5001611480565b7f36b7a9a3f5bfe69ad6ae04107796a967de5c92c761b4d7a4c34e98567066641990611568838787613947565b3561157860405192839283613957565b0390a15f611534565b636050d1ad60e11b5f526004829052602483905260445ffd5b3461041257602036600319011261041257602061081d600435614152565b34610412576020366003190112610412576001600160a01b036004356115dd8161082e565b1680156115fa575f526004602052602060405f2054604051908152f35b6322718ad960e21b5f525f60045260245ffd5b61161636610cea565b61161e613d0d565b5f905b80821061162a57005b611635828285613947565b359161163f613d0d565b825f52600a60205260ff600160405f20015460a81c16156117315761166383614903565b61166c81612118565b600481036116885763449491f560e11b5f52600484905260245ffd5b61169181612118565b600381036116ad5763e707ae4f60e01b5f52600484905260245ffd5b806116bd60029295939495612118565b1461171f576116e36111e8825f52600a6020526001600160a01b0360405f205416331490565b6111f95790816116f4600193614f55565b7f0eb069207093cd3e51cd1370d2d369770057fbe29947e577e5fb428c6c6fc78f5f80a20190611621565b63fa36c71760e01b5f5260045260245ffd5b82631643770160e21b5f5260045260245ffd5b34610412576020366003190112610412576004356117618161082e565b5f54906001600160a01b03821633810361113157506001600160a01b031680916001600160a01b031916175f55337fbdd36143ee09de60bdefca70680e0f71189b2ed7acee364b53917ad433fdaf805f80a3005b34610412575f3660031901126104125760206040517f00000000000000000000000000000000000000000000000000000000000000008152f35b3461041257602036600319011261041257600435805f52600a60205260ff600160405f20015460a81c1615610c3557805f52600a60205260ff600160405f20015460b81c166003811015610cb45761187c576118646118596105cc925f52600b60205260405f2090565b5464ffffffffff1690565b60405164ffffffffff90911681529081906020820190565b5f52600a60205261090161189b600160405f200160ff905460b81c1690565b637382cd8b60e01b5f5261396e565b64ffffffffff81160361041257565b60803660031901126104125760043567ffffffffffffffff81116104125761191c6118ea6020923690600401610e51565b6118f336610416565b61191661190e60643593611906856118aa565b610eba613d0d565b913690613487565b90613f4d565b604051908152f35b34610412576020366003190112610412576004356119418161082e565b6001600160a01b035f541633810361113157506001600160a01b036008549116806001600160a01b03198316176008556001600160a01b036040519216825260208201527fa2548bd4b805e907c1558a47b5858324fe8bb4a2e1ddfca647eecbf65610eebc60403392a27f6bd5c950a8d8df17f772f5af37cb3655737899cbf903264b9795592da439661c6119f26119da600754613670565b60405191829182919060206040840193600181520152565b0390a1005b602036600319011261041257600435611a0e613d0d565b805f52600a60205260ff600160405f20015460a81c1615610c3557611a3281614903565b611a3b81612118565b60048103611a575763449491f560e11b5f52600482905260245ffd5b611a6081612118565b60038103611a7c5763e707ae4f60e01b5f52600482905260245ffd5b80611a88600292612118565b1461171f57611aae6111e8825f52600a6020526001600160a01b0360405f205416331490565b6111f957611abb81614f55565b7f0eb069207093cd3e51cd1370d2d369770057fbe29947e577e5fb428c6c6fc78f5f80a2005b9181601f840112156104125782359167ffffffffffffffff8311610412576020808501948460061b01011161041257565b60403660031901126104125760043567ffffffffffffffff811161041257611b3e903690600401610e51565b60243567ffffffffffffffff811161041257610eaf611b61913690600401611ae1565b90611b6b816134e3565b92611b796040519485612348565b818452602084019160061b81019036821161041257915b818310611ba4576105cc610f048686615108565b6040833603126104125760206040918251611bbe8161232c565b8535611bc98161315c565b815282860135611bd8816118aa565b83820152815201920191611b90565b90602080835192838152019201905f5b818110611c045750505090565b9091926020604082611c33600194885164ffffffffff602080926001600160801b038151168552015116910152565b019401929101611bf7565b90602061070d928181520190611be7565b3461041257602036600319011261041257600435805f52600a60205260ff600160405f20015460a81c1615610c3557805f52600a60205260ff600160405f20015460b81c166003811015610cb457600203611ccd57611cc1611cbc6105cc925f52600d60205260405f2090565b6139b2565b60405191829182611c3e565b5f52600a602052610901611cec600160405f200160ff905460b81c1690565b637382cd8b60e01b5f52613984565b611d0436610cea565b611d0c613d0d565b5f905b808210611d1857005b611d23828285613947565b3591611d2d613d0d565b825f52600a60205260ff600160405f20015460a81c161561173157825f52600a60205260ff600160405f20015460a01c165f14611d785763449491f560e11b5f52600483905260245ffd5b9091611d8f6111bc825f52600a60205260405f2090565b61120f57611db46111e8825f52600a6020526001600160a01b0360405f205416331490565b6111f95790611dc4600192614a81565b0190611d0f565b3461041257602036600319011261041257600435805f52600a60205260ff600160405f20015460a81c1615610c3557611e0390614903565b6005811015610cb4578060026105cc9214908115611e49575b8115611e35575060405190151581529081906020820190565b60049150611e4281612118565b145f610c96565b600381149150611e1c565b3461041257602036600319011261041257600435805f52600a60205260ff600160405f20015460a81c1615610c35575f52600a6020526105cc64ffffffffff60405f205460c81c166040519182918291909164ffffffffff6020820193169052565b34610412575f366003190112610412576040515f6002548060011c9060018116908115611f61575b6020831082146107e15782855260208501919081156107c85750600114611f0f576105cc8461076a81860382612348565b60025f9081529250907f405787fa12a823e0f2b7631cc41b3ba8828b3321ca811111fa75cd3aa3bb5ace5b818410611f4d5750500161076a8261075a565b805484840152602090930192600101611f3a565b91607f1691611ede565b8015150361041257565b359061084a82611f6b565b3461041257604036600319011261041257600435611f9d8161082e565b602435611fa981611f6b565b6001600160a01b0382169182156120255781611fe4611ff592335f52600660205260405f20906001600160a01b03165f5260205260405f2090565b9060ff801983541691151516179055565b60405190151581527f17307eab39ab6107e8899845ad3d59bd9653f200f220920489ca2b5937696c3160203392a3005b82630b61174360e31b5f5260045260245ffd5b3461041257602036600319011261041257600435805f52600a60205260ff600160405f20015460a81c1615610c35575f52600a6020526105cc6001600160a01b03600160405f20015416604051918291829190916001600160a01b036020820193169052565b3461041257602036600319011261041257600435805f52600a60205260ff600160405f20015460a81c1615610c35575f52600a6020526105cc6001600160801b03600260405f20015416604051918291829190916001600160801b036020820193169052565b634e487b7160e01b5f52602160045260245ffd5b60051115610cb457565b3461041257602036600319011261041257600435805f52600a60205260ff600160405f20015460a81c1615610c355761215a90614903565b60405190602082016005821015610cb457829182520390f35b3461041257602036600319011261041257600435805f52600a60205260ff600160405f20015460a81c1615610c35575f52600a6020526105cc60ff600160405f20015460b01c1660405191829182919091602081019215159052565b90602080835192838152019201905f5b8181106121ec5750505090565b909192602060608261222f600194885164ffffffffff604080926001600160801b03815116855267ffffffffffffffff6020820151166020860152015116910152565b0194019291016121df565b90602061070d9281815201906121cf565b3461041257602036600319011261041257600435805f52600a60205260ff600160405f20015460a81c1615610c3557805f52600a60205260ff600160405f20015460b81c166003811015610cb4576001036122c9576122bd6122b86105cc925f52600c60205260405f2090565b613a26565b6040519182918261223a565b5f52600a6020526109016122e8600160405f200160ff905460b81c1690565b637382cd8b60e01b5f5261399b565b634e487b7160e01b5f52604160045260245ffd5b6060810190811067ffffffffffffffff82111761232757604052565b6122f7565b6040810190811067ffffffffffffffff82111761232757604052565b90601f8019910116810190811067ffffffffffffffff82111761232757604052565b6040519061084a604083612348565b6040519061084a61012083612348565b6040519061084a606083612348565b6040519061084a61016083612348565b6040519061084a61014083612348565b67ffffffffffffffff811161232757601f01601f191660200190565b9291926123e0826123b8565b916123ee6040519384612348565b829481845281830111610412578281602093845f960137010152565b34610412576080366003190112610412576004356124278161082e565b602435906124348261082e565b6044356064359267ffffffffffffffff841161041257366023850112156104125761246c6108ec9436906024816004013591016123d4565b92613aad565b34610412576020366003190112610412576004355f52600a602052602060ff600160405f20015460a81c166040519015158152f35b3461041257602036600319011261041257600435805f52600a60205260ff600160405f20015460a81c1615610c35575f52600a6020526105cc6001600160a01b0360405f205416604051918291829190916001600160a01b036020820193169052565b3461041257602036600319011261041257600435805f52600a60205260ff600160405f20015460a81c1615610c35575f52600a6020526105cc64ffffffffff60405f205460a01c166040519182918291909164ffffffffff6020820193169052565b6040366003190112610412576004356024356125878161082e565b61258f613d0d565b815f52600a60205260ff600160405f20015460a81c161561289d57815f5260036020526001600160a01b0360405f205416906125cb8284614dc3565b15612886576125d983615284565b916001600160801b03831680158015612616575b6105cc856125fc8887876152aa565b6040516001600160801b0390911681529081906020820190565b61261e613d0d565b855f52600a60205260ff600160405f20015460a81c16156128735761265b6001612650885f52600a60205260405f2090565b015460a01c60ff1690565b61285f57821561284b5761268761267a875f52600360205260405f2090565b546001600160a01b031690565b916001600160a01b038316918285141580612838575b61281457612800576126ae87615284565b906001600160801b038216106127da57506126ca858488615322565b6040518681525f80516020615f8e83398151915290602090a180331415806127af575b156125ed576040516392b9102b60e01b8152600481018790523360248201526001600160a01b03841660448201526001600160801b038616606482015290602090829060849082905f905af1908115610b6c575f91612780575b506001600160e01b031916636d46efd560e01b0161276557806125ed565b635f3a039d60e01b5f526001600160a01b031660045260245ffd5b6127a2915060203d6020116127a8575b61279a8183612348565b810190613cf8565b5f612747565b503d612790565b506127d56127ce836001600160a01b03165f52600960205260405f2090565b5460ff1690565b6126ed565b632176546160e01b5f5260048790526001600160801b038087166024521660445260645ffd5b633dd1eadf60e21b5f52600487905260245ffd5b6297d0a360e61b5f526004889052336024526001600160a01b03851660445260645ffd5b506128466111e8858a614dc3565b61269d565b6316c90d2760e21b5f52600486905260245ffd5b63449491f560e11b5f52600486905260245ffd5b85631643770160e21b5f5260045260245ffd5b82634dda2c3960e11b5f526004523360245260445ffd5b50631643770160e21b5f5260045260245ffd5b34610412575f36600319011261041257475f808080846001600160a01b038254165af16128db6136ef565b5015612914576001600160a01b03805f5416167fc9a0214d4c5fed6341233260a7bc0c9ac1d712cc5882165fa985bb71d4f207ae5f80a3005b6001600160a01b035f541663df68418d60e01b5f5260045260245260445ffd5b346104125760203660031901126104125760043561295181614152565b505f6001600160a01b03600854169160446040518094819363e9dc637560e01b835230600484015260248301525afa8015610b6c575f9061299d575b6105cc90604051918291826106fc565b503d805f833e6129ad8183612348565b8101906020818303126104125780519067ffffffffffffffff821161041257019080601f83011215610412578151916129e5836123b8565b916129f36040519384612348565b83835260208483010111610412576105cc92612a1591602080850191016106b6565b61298d565b3461041257602036600319011261041257600435805f52600a60205260ff600160405f20015460a81c1615610c35575f52600a6020526105cc6001600160801b03600360405f20015416604051918291829190916001600160801b036020820193169052565b3461041257602036600319011261041257600435805f52600a60205260ff600160405f20015460a81c1615610c35575f52600a6020526105cc600260405f20015460801c604051918291829190916001600160801b036020820193169052565b3461041257602036600319011261041257600435805f52600a60205260ff600160405f20015460a81c1615610c355761140b90615284565b60403660031901126104125760043567ffffffffffffffff811161041257612b44903690600401610403565b60243567ffffffffffffffff811161041257612b64903690600401611ae1565b91612b6d613d0d565b5f64ffffffffff4216938493612b976040519586938493631441207960e01b855260048501613c47565b038173__$70ac0b9f44f1ad43af70526685fc041161$__5af4918215610b6c575f92612cd8575b508151612bca90613670565b612bd49083613692565b516020015164ffffffffff16612be861236a565b64ffffffffff909416845264ffffffffff166020840152612c0881613405565b92612c1560208301613405565b90612c226040840161340f565b90612c2f60608501613405565b612c3b60808601613419565b612c4760a08701613419565b91612c5560c0880188613423565b959096612c60612379565b6001600160a01b03909b168b526001600160a01b031660208b01526001600160801b031660408a01526001600160a01b0316606089015215156080880152151560a087015260c08601523690612cb5926123d4565b60e0840152369060e00190612cc991613456565b6101008301526105c191615108565b612cf59192503d805f833e612ced8183612348565b810190613b98565b905f612bbe565b61084a9092919260408101936001600160801b0360208092828151168552015116910152565b3461041257602036600319011261041257600435612d3e613cbb565b50805f52600a60205260ff600160405f20015460a81c1615610c3557805f52600a60205260ff600160405f20015460b81c166003811015610cb45761187c57612d9a612d956105cc925f52600e60205260405f2090565b613cd3565b60405191829182612cfc565b60031115610cb457565b919060208301926003821015610cb45752565b3461041257602036600319011261041257600435805f52600a60205260ff600160405f20015460a81c1615610c35575f52600a6020526105cc60ff600160405f20015460b81c1660405191829182612db0565b3461041257604036600319011261041257602060ff612e70600435612e3a8161082e565b6001600160a01b0360243591612e4f8361082e565b165f526006845260405f20906001600160a01b03165f5260205260405f2090565b54166040519015158152f35b604036600319011261041257602435600435612e978261082e565b612ea081615284565b91612ea9613d0d565b815f52600a60205260ff600160405f20015460a81c161561289d57612edb6001612650845f52600a60205260405f2090565b6130cd576001600160a01b0381169081156130b957612f0561267a845f52600360205260405f2090565b926001600160a01b03841680931415806130a6575b613085576001600160801b038516801561307157612f3782615284565b906001600160801b0382161061304a5750612f53858383615322565b6040518181525f80516020615f8e83398151915290602090a18233141580613026575b612f8f575b6040516001600160801b0386168152602090f35b6040516392b9102b60e01b815260048101919091523360248201526001600160a01b039190911660448201526001600160801b038416606482015290602090829060849082905f905af1908115610b6c575f91613007575b506001600160e01b031916636d46efd560e01b0161276557808080612f7b565b613020915060203d6020116127a85761279a8183612348565b5f612fe7565b506130456127ce856001600160a01b03165f52600960205260405f2090565b612f76565b632176546160e01b5f526004919091526001600160801b038086166024521660445260645ffd5b633dd1eadf60e21b5f52600482905260245ffd5b6297d0a360e61b5f52600452336024526001600160a01b031660445260645ffd5b506130b46111e88583614dc3565b612f1a565b6316c90d2760e21b5f52600483905260245ffd5b63449491f560e11b5f52600482905260245ffd5b3461041257602036600319011261041257600435805f52600a60205260ff600160405f20015460a81c1615610c35575f52600a6020526105cc60405f205460f81c60405191829182919091602081019215159052565b34610412575f3660031901126104125760206001600160a01b035f5416604051908152f35b6001600160801b0381160361041257565b359061084a8261315c565b6060366003190112610412576004356024356131938161082e565b604435916131a08361315c565b6131a8613d0d565b805f52600a60205260ff600160405f20015460a81c1615610c35576131da6001612650835f52600a60205260405f2090565b6133b4576001600160a01b0382169283156133a05761320461267a835f52600360205260405f2090565b936001600160a01b038516809114158061338d575b613369576001600160801b03821680156133555761323684615284565b906001600160801b0382161061332f5750613252828585615322565b6040518381525f80516020615f8e83398151915290602090a1803314158061330b575b61327b57005b6040516392b9102b60e01b815260048101939093523360248401526001600160a01b039390931660448301526001600160801b0316606482015290602090829060849082905f905af1908115610b6c575f916132ec575b506001600160e01b031916636d46efd560e01b0161276557005b613305915060203d6020116127a85761279a8183612348565b5f6132d2565b5061332a6127ce866001600160a01b03165f52600960205260405f2090565b613275565b632176546160e01b5f5260048490526001600160801b038084166024521660445260645ffd5b633dd1eadf60e21b5f52600484905260245ffd5b6297d0a360e61b5f526004839052336024526001600160a01b03841660445260645ffd5b5061339b6111e88685614dc3565b613219565b6316c90d2760e21b5f52600482905260245ffd5b63449491f560e11b5f5260045260245ffd5b3561070d816118aa565b634e487b7160e01b5f52601160045260245ffd5b9064ffffffffff8091169116019064ffffffffff821161340057565b6133d0565b3561070d8161082e565b3561070d8161315c565b3561070d81611f6b565b903590601e1981360301821215610412570180359067ffffffffffffffff82116104125760200191813603831361041257565b91908260409103126104125760405161346e8161232c565b6020808294803561347e8161082e565b84520135910152565b91908260409103126104125760405161349f8161232c565b602080829480356134af8161315c565b84520135916134bd8361315c565b0152565b6134ca81614152565b505f5260056020526001600160a01b0360405f20541690565b67ffffffffffffffff81116123275760051b60200190565b67ffffffffffffffff81160361041257565b6020818303126104125780519067ffffffffffffffff8211610412570181601f8201121561041257805190613541826134e3565b9261354f6040519485612348565b8284526020606081860194028301019181831161041257602001925b828410613579575050505090565b6060848303126104125760206060916040516135948161230b565b865161359f8161315c565b8152828701516135ae816134fb565b8382015260408701516135c0816118aa565b604082015281520193019261356b565b939291806040860160408752526060850191905f5b8181106136045750505090602061084a9294019064ffffffffff169052565b9091926060806001926001600160801b0387356136208161315c565b16815267ffffffffffffffff602088013561363a816134fb565b16602082015264ffffffffff6040880135613654816118aa565b1660408201520194019291016135e5565b6040513d5f823e3d90fd5b5f1981019190821161340057565b634e487b7160e01b5f52603260045260245ffd5b80518210156136a65760209160051b010190565b61367e565b906001600160801b03809116911603906001600160801b03821161340057565b908210156136a657610d159160051b810190613423565b908092918237015f815290565b3d15613719573d90613700826123b8565b9161370e6040519384612348565b82523d5f602084013e565b606090565b9190826040910312610412576040516137368161232c565b60208082948035613746816118aa565b84520135916134bd836118aa565b9080601f830112156104125781602061070d933591016123d4565b9190916101608184031261041257613785612379565b9261378f8261083f565b845261379d6020830161083f565b60208501526137ae6040830161316d565b60408501526137bf6060830161083f565b60608501526137d060808301611f75565b60808501526137e160a08301611f75565b60a08501526137f38160c0840161371e565b60c085015261010082013567ffffffffffffffff81116104125782613820836101209361382b9601613754565b60e087015201613456565b610100830152565b91906001600160a01b0381161561391f57815f5260036020526001600160a01b0360405f205416151580613917575b806138ec575b6138d85760405182815261389291905f80516020615f8e83398151915290602090a1823391615c57565b916001600160a01b0381166001600160a01b038416036138b157505050565b6364283d7b60e01b5f526001600160a01b039081166004526024919091521660445260645ffd5b6349d74b1160e11b5f52600482905260245ffd5b506139126111e86001613907855f52600a60205260405f2090565b015460b01c60ff1690565b613868565b506001613862565b633250574960e11b5f525f60045260245ffd5b90816020910312610412575161070d81611f6b565b91908110156136a65760051b0190565b60409061070d9392815281602082015201906106d7565b906044916003811015610cb4576004525f602452565b906044916003811015610cb4576004526002602452565b906044916003811015610cb4576004526001602452565b9081546139be816134e3565b926139cc6040519485612348565b81845260208401905f5260205f205f915b8383106139ea5750505050565b6001602081926040516139fc8161232c565b64ffffffffff86546001600160801b038116835260801c16838201528152019201920191906139dd565b908154613a32816134e3565b92613a406040519485612348565b81845260208401905f5260205f205f915b838310613a5e5750505050565b600160208192604051613a708161230b565b64ffffffffff86546001600160801b038116835267ffffffffffffffff8160801c168584015260c01c166040820152815201920192019190613a51565b909291613abb818584613833565b833b613ac8575b50505050565b602091613aea6040519485938493630a85bd0160e11b85523360048601615256565b03815f6001600160a01b0387165af15f9181613b77575b50613b3b5750613b0f6136ef565b8051919082613b3457633250574960e11b5f526001600160a01b03821660045260245ffd5b9050602001fd5b6001600160e01b03191663757a42ff60e11b01613b5c57505f808080613ac2565b633250574960e11b5f526001600160a01b031660045260245ffd5b613b9191925060203d6020116127a85761279a8183612348565b905f613b01565b6020818303126104125780519067ffffffffffffffff8211610412570181601f8201121561041257805190613bcc826134e3565b92613bda6040519485612348565b82845260208085019360061b8301019181831161041257602001925b828410613c04575050505090565b6040848303126104125760206040918251613c1e8161232c565b8651613c298161315c565b815282870151613c38816118aa565b83820152815201930192613bf6565b91939293806040840160408552526060830191905f5b818110613c775750505064ffffffffff6020919416910152565b9091926040806001926001600160801b038735613c938161315c565b16815264ffffffffff6020880135613caa816118aa565b166020820152019401929101613c5d565b60405190613cc88261232c565b5f6020838281520152565b90604051613ce08161232c565b91546001600160801b038116835260801c6020830152565b90816020910312610412575161070d816105f9565b6001600160a01b037f0000000000000000000000000000000000000000000000000000000000000000163003613d3f57565b63a1c0d6e560e01b5f5260045ffd5b9081604091031261041257602060405191613d688361232c565b8051613d738161315c565b83520151613d808161315c565b602082015290565b979692946001600160801b03613e209564ffffffffff61012098613ddc67016345785d8a00009b9760208f6001600160a01b03613e079a168152019064ffffffffff60208092828151168552015116910152565b1660608c01521660808a015260a08901906001600160801b0360208092828151168552015116910152565b60e08701526101406101008701526101408601906106d7565b930152565b80516001600160a01b031682529061070d906020838101516001600160a01b0316908201526040838101516001600160a01b031690820152613e84606084015160608301906001600160801b0360208092828151168552015116910152565b60808301516001600160a01b031660a082015260a0830151151560c082015260c0830151151560e0820152613ed560e084015161010083019064ffffffffff60208092828151168552015116910152565b610160610120613ef86101008601516101806101408601526101808501906106d7565b9401516001600160a01b0316910152565b60409064ffffffffff613f2a61084a95979694608084526080840190613e25565b9616602082015201906001600160801b0360208092828151168552015116910152565b90918093926040613f6584516001600160a01b031690565b60c085015190613fac613f81848801516001600160801b031690565b602061010089015101518660e08a01519287519c8d978897630cec85a960e41b895260048901613d88565b038173__$70ac0b9f44f1ad43af70526685fc041161$__5af4948515610b6c575f956140fd575b50907fcf6da1cdefbf0f0870377128cab020f3b9895ce9613b14b933bbd193d764a92e9161404461403760075497889661401485516001600160801b031690565b6001600160801b0381166140c6575b5064ffffffffff8616614049575b8761578b565b9160405193849384613f09565b0390a2565b6140768661405f8a5f52600b60205260405f2090565b9064ffffffffff1664ffffffffff19825416179055565b60208501516001600160801b031680614090575b50614031565b6140c0906140a68a5f52600e60205260405f2090565b906001600160801b0382549181199060801b169116179055565b5f61408a565b6140f7906140dc8a5f52600e60205260405f2090565b906001600160801b03166001600160801b0319825416179055565b5f614023565b7fcf6da1cdefbf0f0870377128cab020f3b9895ce9613b14b933bbd193d764a92e929195506141439060403d60401161414b575b61413b8183612348565b810190613d4e565b949091613fd3565b503d614131565b805f5260036020526001600160a01b0360405f205416908115614173575090565b637e27328960e01b5f5260045260245ffd5b979694926141c76001600160801b0392939795976001600160a01b036101208c0195168b5260208b019064ffffffffff60208092828151168552015116910152565b16606088015261012060808801528451809152602061014088019501905f5b81811061421a575050509261010092613e209267016345785d8a00009560a089015260c088015286820360e08801526106d7565b909195602060608261425d6001948b5164ffffffffff604080926001600160801b03815116855267ffffffffffffffff6020820151166020860152015116910152565b0197019291016141e6565b80548210156136a6575f5260205f2001905f90565b634e487b7160e01b5f525f60045260245ffd5b805468010000000000000000811015612327576142b291600182018155614268565b919091614331578051825460208301516040909301516001600160801b039092167fffffff00000000000000000000000000000000000000000000000000000000009091161760809290921b77ffffffffffffffff00000000000000000000000000000000169190911760c09190911b64ffffffffff60c01b16179055565b61427d565b909161434d61070d93604084526040840190613e25565b9160208184039101526121cf565b919080604061437185516001600160a01b031690565b60c08601516143d961438c848901516001600160801b031690565b9260206101008a0151015160e08a015191865197889687966339a204ad60e21b88527f00000000000000000000000000000000000000000000000000000000000000009360048901614185565b038173__$70ac0b9f44f1ad43af70526685fc041161$__5af4908115610b6c575f9161448a575b50929060075493849282515f5b8181106144525750507f7cb83640a329cb238b531daa26ffca31b59dd7c51020184cb4394ac43a11278c92916144439185615a0b565b61404460405192839283614336565b61447e61446d600193949596975f52600c60205260405f2090565b6144778389613692565b5190614290565b0190869493929161440d565b6144a3915060403d60401161414b5761413b8183612348565b5f614400565b90816020910312610412575161070d8161315c565b90926145009064ffffffffff60c0946001600160801b0360a0860197168552166020840152604083019064ffffffffff60208092828151168552015116910152565b60a06080820152835480935201915f5260205f20905f5b8181106145245750505090565b82546001600160801b038116855260801c64ffffffffff16602085015260409093019260019283019201614517565b949096959160e09461459c6001600160801b039564ffffffffff8094886101008c019d168b521660208a0152604089019064ffffffffff60208092828151168552015116910152565b1660808601525482811660a086015260801c60c085015216910152565b9295949391906001600160801b0360c085019116845260c06020850152815480915260e08401915f5260205f20905f5b81811061462e5750505064ffffffffff9586166040840152815186166060840152602090910151909416608082015261084a919060a001906001600160801b03169052565b82546001600160801b0381168552608081901c67ffffffffffffffff16602086015260c01c64ffffffffff166040850152606090930192600192830192016145e9565b64ffffffffff421661469e6002614690845f52600a60205260405f2090565b01546001600160801b031690565b916146c160016146b6835f52600a60205260405f2090565b015460b81c60ff1690565b925f6146e66146d8845f52600a60205260405f2090565b5460a01c64ffffffffff1690565b9461473361470d6146ff865f52600a60205260405f2090565b5460c81c64ffffffffff1690565b61472561471861236a565b64ffffffffff9099168952565b64ffffffffff166020880152565b61473c81612da6565b600181036147ed57505061479a6020939461477e6002614776614767875f52600c60205260405f2090565b965f52600a60205260405f2090565b015460801c90565b9060405196879586956366c1746960e11b8752600487016145b9565b038173__$a5f83f921acff269341ef3c300f67f6dd4$__5af4908115610b6c575f916147c4575090565b61070d915060203d6020116147e6575b6147de8183612348565b8101906144a9565b503d6147d4565b6147fb819695949296612da6565b80614865575060209394508061481f61185961479a935f52600b60205260405f2090565b90614849600261477661483a845f52600e60205260405f2090565b935f52600a60205260405f2090565b91604051978896879663987117a360e01b885260048801614553565b80614871600292612da6565b1461487e575b5050505090565b60209394506148986148b3915f52600d60205260405f2090565b60405163485c4f5d60e01b81529586948594600486016144be565b038173__$a5f83f921acff269341ef3c300f67f6dd4$__5af4908115610b6c575f916148e4575b505f808080614877565b6148fd915060203d6020116147e6576147de8183612348565b5f6148da565b61491a6001612650835f52600a60205260405f2090565b156149255750600490565b61493a6111bc825f52600a60205260405f2090565b6149aa576149566104a76146d8835f52600a60205260405f2090565b42106149a5576001600160801b03614993614987600261469061497886614671565b955f52600a60205260405f2090565b6001600160801b031690565b911610156149a057600190565b600290565b505f90565b50600390565b815f5260036020526001600160a01b0360405f205416151580614a3d575b80614a1a575b614a075761070d915f915f80516020615f8e833981519152604051806149ff85829190602083019252565b0390a1615c57565b506349d74b1160e11b5f5260045260245ffd5b5060ff6001614a31845f52600a60205260405f2090565b015460b01c16156149d4565b506001600160a01b03811615156149ce565b90604051614a5c8161230b565b60406001600160801b03600183958054838116865260801c6020860152015416910152565b614a8a81614671565b90614aa86002614aa2835f52600a60205260405f2090565b01614a4f565b91614abd61498784516001600160801b031690565b6001600160801b0382161015614daf57614aef6111e8614ae5845f52600a60205260405f2090565b5460f01c60ff1690565b614d9b5780610c0c6020614b1e614b2d94614b1188516001600160801b031690565b036001600160801b031690565b9501516001600160801b031690565b90614b58614b43825f52600a60205260405f2090565b80546001600160f81b0316600160f81b179055565b614b7a614b6d825f52600a60205260405f2090565b805460ff60f01b19169055565b6001600160801b03821615614d5a575b614bbe836003614ba2845f52600a60205260405f2090565b01906001600160801b03166001600160801b0319825416179055565b614bd361267a825f52600a60205260405f2090565b92614be961267a835f52600360205260405f2090565b93614c0f6001614c01855f52600a60205260405f2090565b01546001600160a01b031690565b90614c246001600160801b0384168284615e05565b604080518581526001600160801b0385811660208301528716918101919091526001600160a01b038781169381169184918416907f5edb27d6c1a327513b90a792050debf074b7194444885e3144d4decc5caaaa5090606090a46040518481525f80516020615f8e83398151915290602090a1614cb56127ce876001600160a01b03165f52600960205260405f2090565b614cc2575b505050505050565b604051630d4af11f60e31b815260048101949094526001600160a01b031660248401526001600160801b0391821660448401529216606482015290602090829060849082905f905af1908115610b6c575f91614d3b575b506001600160e01b0319166312b50ee160e31b01612765578080808080614cba565b614d54915060203d6020116127a85761279a8183612348565b5f614d19565b614d966001614d71835f52600a60205260405f2090565b01805460ff60a01b191674010000000000000000000000000000000000000000179055565b614b8a565b635c7470b760e01b5f52600482905260245ffd5b63fa36c71760e01b5f52600482905260245ffd5b906001600160a01b031690813314918215614dfd575b508115614de4575090565b90506001600160a01b03614df833926134c1565b161490565b9091505f52600660205260ff614e273360405f20906001600160a01b03165f5260205260405f2090565b5416905f614dd9565b805f5260036020526001600160a01b0360405f205416151580614ebb575b80614e9d575b614e8b575f80516020615f8e8339815191526020604051838152a16001600160a01b03614e825f8381615c57565b16156141735750565b6349d74b1160e11b5f5260045260245ffd5b50614eb56001613907835f52600a60205260405f2090565b15614e54565b505f614e4e565b805f52600a602052614ed9600260405f2001614a4f565b90805f52600a60205260ff600160405f20015460a01c165f14614f075750602001516001600160801b031690565b90614f1d6111bc835f52600a60205260405f2090565b614f2b575061070d90614671565b61070d9150610c0c6040614f4683516001600160801b031690565b9201516001600160801b031690565b805f52600a60205260ff60405f205460f01c1615614f87575f908152600a60205260409020805460ff60f01b19169055565b635c7470b760e01b5f5260045260245ffd5b97969492614fdb6001600160801b0392939795976001600160a01b036101208c0195168b5260208b019064ffffffffff60208092828151168552015116910152565b16606088015261012060808801528451809152602061014088019501905f5b81811061502e575050509261010092613e209267016345785d8a00009560a089015260c088015286820360e08801526106d7565b909195602060408261505d6001948b5164ffffffffff602080926001600160801b038151168552015116910152565b019701929101614ffa565b8054680100000000000000008110156123275761508a91600182018155614268565b919091614331578051825460209092015174ffffffffffffffffffffffffffffffffffffffffff199092166001600160801b039091161760809190911b74ffffffffff0000000000000000000000000000000016179055565b90916150fa61070d93604084526040840190613e25565b916020818403910152611be7565b919080604061511e85516001600160a01b031690565b60c0860151615186615139848901516001600160801b031690565b9260206101008a0151015160e08a01519186519788968796636df2695560e01b88527f00000000000000000000000000000000000000000000000000000000000000009360048901614f99565b038173__$70ac0b9f44f1ad43af70526685fc041161$__5af4908115610b6c575f91615237575b50929060075493849282515f5b8181106151ff5750507f1cb15a39f12b6a349f8d1d45499b7b9df63464a79fa2e294a7237107e62c384f92916151f09185615b20565b614044604051928392836150e3565b61522b61521a600193949596975f52600d60205260405f2090565b6152248389613692565b5190615068565b019086949392916151ba565b615250915060403d60401161414b5761413b8183612348565b5f6151ad565b90926001600160a01b036080938161070d9796168452166020830152604082015281606082015201906106d7565b61070d9061529181614ec2565b905f52600a602052600260405f20015460801c906136ab565b909291926001600160a01b0381161561391f57836152c7916149b0565b906001600160a01b038216806152ea5784637e27328960e01b5f5260045260245ffd5b6001600160a01b03829593949516036138b157505050565b906001600160801b03809116911601906001600160801b03821161340057565b919091615377615348836153436002614776865f52600a60205260405f2090565b615302565b600261535c845f52600a60205260405f2090565b01906001600160801b0382549181199060801b169116179055565b61538e6002614aa2835f52600a60205260405f2090565b6001600160801b036153c76149876153b060208501516001600160801b031690565b93610c0c6040614f4683516001600160801b031690565b91161015615440575b7f40b88e5c41c5a97ffb7b6ef88a0a2d505aa0c634cf8a0275cb236ea7dd87ed4d6001600160a01b036154106001614c01855f52600a60205260405f2090565b6154246001600160801b0386168783615e05565b6040516001600160801b039590951685528116941692602090a4565b6154576001614d71835f52600a60205260405f2090565b61546c614b6d825f52600a60205260405f2090565b6153d0565b60405190610140820182811067ffffffffffffffff821117612327576040525f610120838281528260208201528260408201526154ac613cbb565b60608201528260808201528260a08201528260c08201526154cb613cbb565b60e082015260606101008201520152565b6003821015610cb45752565b906003811015610cb457815460ff60b81b191660b89190911b60ff60b81b16179055565b600261014061084a9361554561552982516001600160a01b031690565b85546001600160a01b0319166001600160a01b03909116178555565b6155a461555a602083015164ffffffffff1690565b85547fffffffffffffff0000000000ffffffffffffffffffffffffffffffffffffffff1660a09190911b78ffffffffff000000000000000000000000000000000000000016178555565b6155f26155b9604083015164ffffffffff1690565b85547fffff0000000000ffffffffffffffffffffffffffffffffffffffffffffffffff1660c89190911b64ffffffffff60c81b16178555565b61561c6156026060830151151590565b855460ff60f01b191690151560f01b60ff60f01b16178555565b61566461562c6080830151151590565b85546001600160f81b031690151560f81b7fff0000000000000000000000000000000000000000000000000000000000000016178555565b6157436001850161569e61568260a08501516001600160a01b031690565b82546001600160a01b0319166001600160a01b03909116178255565b6156d96156ae60c0850151151590565b825460ff60a01b191690151560a01b74ff000000000000000000000000000000000000000016178255565b6157036156e960e0850151151590565b825460ff60a81b191690151560a81b60ff60a81b16178255565b61572e615714610100850151151590565b825460ff60b01b191690151560b01b60ff60b01b16178255565b6101208301519061573e82612da6565b6154e8565b015191018151602083015160801b6fffffffffffffffffffffffffffffffff199081166001600160801b03928316178355604090930151600190920180549093169116179055565b9190615795615471565b5080516001600160a01b03169160c08201805180516157b89064ffffffffff1690565b60209091015164ffffffffff1694608085019081516157d690151590565b92606087019788516157ee906001600160a01b031690565b60a089019586516157fe90151590565b928951615811906001600160801b031690565b9461581a612389565b6001600160801b0390961686525f60208701819052604087015261583c612398565b6001600160a01b03909716875264ffffffffff16602087015264ffffffffff166040860152151560608501525f60808501526001600160a01b031660a08401525f60c0840152600160e0840152151561010083015261589f5f61012084016154dc565b6101408201526158b7885f52600a60205260405f2090565b906158c19161550c565b60208501968088516158d9906001600160a01b031690565b906158e391615e41565b60010160075585516001600160a01b031684516001600160801b03166001600160801b0316303361591393615e7c565b60208401516001600160801b0316806159d8575b5084516001600160a01b031696516001600160a01b031695516001600160a01b0316905115159151151592519360e0860151956101000151615971906001600160a01b0390511690565b9661597a6123a8565b338152986001600160a01b031660208a01526001600160a01b0316604089015260608801526001600160a01b03166080870152151560a0860152151560c085015260e08401526101008301526001600160a01b031661012082015290565b615a05906159ed88516001600160a01b031690565b610100880151516001600160a01b0316903390615e7c565b5f615927565b9190615a15615471565b5080516001600160a01b03169160c0820180518051615a389064ffffffffff1690565b60209091015164ffffffffff169460808501908151615a5690151590565b9260608701978851615a6e906001600160a01b031690565b60a08901958651615a7e90151590565b928951615a91906001600160801b031690565b94615a9a612389565b6001600160801b0390961686525f602087018190526040870152615abc612398565b6001600160a01b03909716875264ffffffffff16602087015264ffffffffff166040860152151560608501525f60808501526001600160a01b031660a08401525f60c0840152600160e0840152151561010083015261589f600161012084016154dc565b9190615b2a615471565b5080516001600160a01b03169160c0820180518051615b4d9064ffffffffff1690565b60209091015164ffffffffff169460808501908151615b6b90151590565b9260608701978851615b83906001600160a01b031690565b60a08901958651615b9390151590565b928951615ba6906001600160801b031690565b94615baf612389565b6001600160801b0390961686525f602087018190526040870152615bd1612398565b6001600160a01b03909716875264ffffffffff16602087015264ffffffffff166040860152151560608501525f60808501526001600160a01b031660a08401525f60c0840152600160e0840152151561010083015261589f600261012084016154dc565b615c47905f52600560205260405f2090565b80546001600160a01b0319169055565b815f5260036020526001600160a01b0360405f205416926001600160a01b038116615d32575b506001600160a01b03831680615d02575b615cb46001600160a01b0383169283615cdb575b6108d1855f52600360205260405f2090565b7fddf252ad1be2c89b69c2b068fc378daa952ba7f163c4a11628f55a4df523b3ef5f80a490565b615cf6816001600160a01b03165f52600460205260405f2090565b60018154019055615ca2565b615d0b83615c35565b615d26846001600160a01b03165f52600460205260405f2090565b80545f19019055615c8e565b615d4d6001600160a01b0382168015159081615d9357501590565b15615c7d57826001600160a01b038516615d7357637e27328960e01b5f5260045260245ffd5b63177e802f60e01b5f526001600160a01b0390911660045260245260445ffd5b6001600160a01b03871680821492508215615dd2575b508115615db557501590565b9050845f5260056020526001600160a01b0360405f205416141590565b9091505f52600660205260ff615dfc8460405f20906001600160a01b03165f5260205260405f2090565b5416905f615da9565b61084a926001600160a01b036040519363a9059cbb60e01b6020860152166024840152604483015260448252615e3c606483612348565b615ebd565b6001600160a01b0381161561391f576001600160a01b0391615e62916149b0565b16615e6957565b6339e3563760e11b5f525f60045260245ffd5b9091926001600160a01b0361084a9481604051956323b872dd60e01b6020880152166024860152166044840152606483015260648252615e3c608483612348565b5f806001600160a01b03615ee693169360208151910182865af1615edf6136ef565b9083615f33565b8051908115159182615f18575b5050615efc5750565b6001600160a01b0390635274afe760e01b5f521660045260245ffd5b615f2b9250602080918301019101613932565b155f80615ef3565b90615f575750805115615f4857805190602001fd5b630a12f52160e11b5f5260045ffd5b81511580615f84575b615f68575090565b6001600160a01b0390639996b31560e01b5f521660045260245ffd5b50803b15615f6056fef8e1a15aba9398e019f0b49df1a4fde98ee17ae345cb5f6b5e2c27f5033e8ce7a164736f6c634300081a000a",
    "linkReferences": {
      "src/libraries/Helpers.sol": {
        "Helpers": [
          {
            "start": 3587,
            "length": 20
          },
          {
            "start": 12179,
            "length": 20
          },
          {
            "start": 17320,
            "length": 20
          },
          {
            "start": 18389,
            "length": 20
          },
          {
            "start": 21890,
            "length": 20
          }
        ]
      },
      "src/libraries/VestingMath.sol": {
        "VestingMath": [
          {
            "start": 19350,
            "length": 20
          },
          {
            "start": 19631,
            "length": 20
          }
        ]
      }
    }
  },
  "methodIdentifiers": {
    "MAX_BROKER_FEE()": "027b6744",
    "MAX_COUNT()": "77163c1d",
    "admin()": "f851a440",
    "allowToHook(address)": "406887cb",
    "approve(address,uint256)": "095ea7b3",
    "balanceOf(address)": "70a08231",
    "batch(bytes[])": "1e897afb",
    "burn(uint256)": "42966c68",
    "cancel(uint256)": "40e58ee5",
    "cancelMultiple(uint256[])": "8659c270",
    "collectFees()": "c8796572",
    "createWithDurationsLD((address,address,uint128,address,bool,bool,string,(address,uint256)),(uint128,uint64,uint40)[])": "0aef4433",
    "createWithDurationsLL((address,address,uint128,address,bool,bool,string,(address,uint256)),(uint128,uint128),(uint40,uint40))": "00dba286",
    "createWithDurationsLT((address,address,uint128,address,bool,bool,string,(address,uint256)),(uint128,uint40)[])": "deecd64f",
    "createWithTimestampsLD((address,address,uint128,address,bool,bool,(uint40,uint40),string,(address,uint256)),(uint128,uint64,uint40)[])": "22bc0a80",
    "createWithTimestampsLL((address,address,uint128,address,bool,bool,(uint40,uint40),string,(address,uint256)),(uint128,uint128),uint40)": "7a695841",
    "createWithTimestampsLT((address,address,uint128,address,bool,bool,(uint40,uint40),string,(address,uint256)),(uint128,uint40)[])": "7ee21391",
    "getApproved(uint256)": "081812fc",
    "getCliffTime(uint256)": "780a82c8",
    "getDepositedAmount(uint256)": "a80fc071",
    "getEndTime(uint256)": "9067b677",
    "getLockupModel(uint256)": "e6c417eb",
    "getRecipient(uint256)": "6d0cee75",
    "getRefundedAmount(uint256)": "d4dbd20b",
    "getSegments(uint256)": "b637b865",
    "getSender(uint256)": "b971302a",
    "getStartTime(uint256)": "bc2be1be",
    "getTranches(uint256)": "7f5799f9",
    "getUnderlyingToken(uint256)": "a4775772",
    "getUnlockAmounts(uint256)": "df2a848c",
    "getWithdrawnAmount(uint256)": "d511609f",
    "isAllowedToHook(address)": "303acc85",
    "isApprovedForAll(address,address)": "e985e9c5",
    "isCancelable(uint256)": "4857501f",
    "isCold(uint256)": "8f69b993",
    "isDepleted(uint256)": "425d30dd",
    "isStream(uint256)": "b8a3be66",
    "isTransferable(uint256)": "b2564569",
    "isWarm(uint256)": "1c1cdd4c",
    "name()": "06fdde03",
    "nextStreamId()": "1e99d569",
    "nftDescriptor()": "44267570",
    "ownerOf(uint256)": "6352211e",
    "refundableAmountOf(uint256)": "1400ecec",
    "renounce(uint256)": "7de6b1db",
    "renounceMultiple(uint256[])": "727b3b0a",
    "safeTransferFrom(address,address,uint256)": "42842e0e",
    "safeTransferFrom(address,address,uint256,bytes)": "b88d4fde",
    "setApprovalForAll(address,bool)": "a22cb465",
    "setNFTDescriptor(address)": "7cad6cd1",
    "statusOf(uint256)": "ad35efd4",
    "streamedAmountOf(uint256)": "4869e12d",
    "supportsInterface(bytes4)": "01ffc9a7",
    "symbol()": "95d89b41",
    "tokenURI(uint256)": "c87b56dd",
    "transferAdmin(address)": "75829def",
    "transferFrom(address,address,uint256)": "23b872dd",
    "wasCanceled(uint256)": "f590c176",
    "withdraw(uint256,address,uint128)": "fdd46d60",
    "withdrawMax(uint256,address)": "ea5ead19",
    "withdrawMaxAndTransfer(uint256,address)": "c156a11d",
    "withdrawMultiple(uint256[],uint128[])": "4cc55e11",
    "withdrawableAmountOf(uint256)": "d975dfed"
  },
  "id": 79
}