{
  "abi": [
    {
      "type": "constructor",
      "inputs": [
        {
          "name": "initialComptroller",
          "type": "address",
          "internalType": "address"
        }
      ],
      "stateMutability": "nonpayable"
    },
    {
      "type": "function",
      "name": "comptroller",
      "inputs": [],
      "outputs": [
        {
          "name": "",
          "type": "address",
          "internalType": "contract ISablierComptroller"
        }
      ],
      "stateMutability": "view"
    },
    {
      "type": "function",
      "name": "computeMerkleLT",
      "inputs": [
        {
          "name": "campaignCreator",
          "type": "address",
          "internalType": "address"
        },
        {
          "name": "params",
          "type": "tuple",
          "internalType": "struct MerkleLT.ConstructorParams",
          "components": [
            {
              "name": "campaignName",
              "type": "string",
              "internalType": "string"
            },
            {
              "name": "campaignStartTime",
              "type": "uint40",
              "internalType": "uint40"
            },
            {
              "name": "cancelable",
              "type": "bool",
              "internalType": "bool"
            },
            {
              "name": "expiration",
              "type": "uint40",
              "internalType": "uint40"
            },
            {
              "name": "initialAdmin",
              "type": "address",
              "internalType": "address"
            },
            {
              "name": "ipfsCID",
              "type": "string",
              "internalType": "string"
            },
            {
              "name": "lockup",
              "type": "address",
              "internalType": "contract ISablierLockup"
            },
            {
              "name": "merkleRoot",
              "type": "bytes32",
              "internalType": "bytes32"
            },
            {
              "name": "shape",
              "type": "string",
              "internalType": "string"
            },
            {
              "name": "token",
              "type": "address",
              "internalType": "contract IERC20"
            },
            {
              "name": "tranchesWithPercentages",
              "type": "tuple[]",
              "internalType": "struct MerkleLT.TrancheWithPercentage[]",
              "components": [
                {
                  "name": "unlockPercentage",
                  "type": "uint64",
                  "internalType": "UD2x18"
                },
                {
                  "name": "duration",
                  "type": "uint40",
                  "internalType": "uint40"
                }
              ]
            },
            {
              "name": "transferable",
              "type": "bool",
              "internalType": "bool"
            },
            {
              "name": "vestingStartTime",
              "type": "uint40",
              "internalType": "uint40"
            }
          ]
        }
      ],
      "outputs": [
        {
          "name": "merkleLT",
          "type": "address",
          "internalType": "address"
        }
      ],
      "stateMutability": "view"
    },
    {
      "type": "function",
      "name": "createMerkleLT",
      "inputs": [
        {
          "name": "params",
          "type": "tuple",
          "internalType": "struct MerkleLT.ConstructorParams",
          "components": [
            {
              "name": "campaignName",
              "type": "string",
              "internalType": "string"
            },
            {
              "name": "campaignStartTime",
              "type": "uint40",
              "internalType": "uint40"
            },
            {
              "name": "cancelable",
              "type": "bool",
              "internalType": "bool"
            },
            {
              "name": "expiration",
              "type": "uint40",
              "internalType": "uint40"
            },
            {
              "name": "initialAdmin",
              "type": "address",
              "internalType": "address"
            },
            {
              "name": "ipfsCID",
              "type": "string",
              "internalType": "string"
            },
            {
              "name": "lockup",
              "type": "address",
              "internalType": "contract ISablierLockup"
            },
            {
              "name": "merkleRoot",
              "type": "bytes32",
              "internalType": "bytes32"
            },
            {
              "name": "shape",
              "type": "string",
              "internalType": "string"
            },
            {
              "name": "token",
              "type": "address",
              "internalType": "contract IERC20"
            },
            {
              "name": "tranchesWithPercentages",
              "type": "tuple[]",
              "internalType": "struct MerkleLT.TrancheWithPercentage[]",
              "components": [
                {
                  "name": "unlockPercentage",
                  "type": "uint64",
                  "internalType": "UD2x18"
                },
                {
                  "name": "duration",
                  "type": "uint40",
                  "internalType": "uint40"
                }
              ]
            },
            {
              "name": "transferable",
              "type": "bool",
              "internalType": "bool"
            },
            {
              "name": "vestingStartTime",
              "type": "uint40",
              "internalType": "uint40"
            }
          ]
        },
        {
          "name": "aggregateAmount",
          "type": "uint256",
          "internalType": "uint256"
        },
        {
          "name": "recipientCount",
          "type": "uint256",
          "internalType": "uint256"
        }
      ],
      "outputs": [
        {
          "name": "merkleLT",
          "type": "address",
          "internalType": "contract ISablierMerkleLT"
        }
      ],
      "stateMutability": "nonpayable"
    },
    {
      "type": "function",
      "name": "isPercentagesSum100",
      "inputs": [
        {
          "name": "tranches",
          "type": "tuple[]",
          "internalType": "struct MerkleLT.TrancheWithPercentage[]",
          "components": [
            {
              "name": "unlockPercentage",
              "type": "uint64",
              "internalType": "UD2x18"
            },
            {
              "name": "duration",
              "type": "uint40",
              "internalType": "uint40"
            }
          ]
        }
      ],
      "outputs": [
        {
          "name": "result",
          "type": "bool",
          "internalType": "bool"
        }
      ],
      "stateMutability": "pure"
    },
    {
      "type": "function",
      "name": "nativeToken",
      "inputs": [],
      "outputs": [
        {
          "name": "",
          "type": "address",
          "internalType": "address"
        }
      ],
      "stateMutability": "view"
    },
    {
      "type": "function",
      "name": "setComptroller",
      "inputs": [
        {
          "name": "newComptroller",
          "type": "address",
          "internalType": "contract ISablierComptroller"
        }
      ],
      "outputs": [],
      "stateMutability": "nonpayable"
    },
    {
      "type": "function",
      "name": "setNativeToken",
      "inputs": [
        {
          "name": "newNativeToken",
          "type": "address",
          "internalType": "address"
        }
      ],
      "outputs": [],
      "stateMutability": "nonpayable"
    },
    {
      "type": "function",
      "name": "transferFeesToComptroller",
      "inputs": [],
      "outputs": [],
      "stateMutability": "nonpayable"
    },
    {
      "type": "event",
      "name": "CreateMerkleLT",
      "inputs": [
        {
          "name": "merkleLT",
          "type": "address",
          "indexed": true,
          "internalType": "contract ISablierMerkleLT"
        },
        {
          "name": "params",
          "type": "tuple",
          "indexed": false,
          "internalType": "struct MerkleLT.ConstructorParams",
          "components": [
            {
              "name": "campaignName",
              "type": "string",
              "internalType": "string"
            },
            {
              "name": "campaignStartTime",
              "type": "uint40",
              "internalType": "uint40"
            },
            {
              "name": "cancelable",
              "type": "bool",
              "internalType": "bool"
            },
            {
              "name": "expiration",
              "type": "uint40",
              "internalType": "uint40"
            },
            {
              "name": "initialAdmin",
              "type": "address",
              "internalType": "address"
            },
            {
              "name": "ipfsCID",
              "type": "string",
              "internalType": "string"
            },
            {
              "name": "lockup",
              "type": "address",
              "internalType": "contract ISablierLockup"
            },
            {
              "name": "merkleRoot",
              "type": "bytes32",
              "internalType": "bytes32"
            },
            {
              "name": "shape",
              "type": "string",
              "internalType": "string"
            },
            {
              "name": "token",
              "type": "address",
              "internalType": "contract IERC20"
            },
            {
              "name": "tranchesWithPercentages",
              "type": "tuple[]",
              "internalType": "struct MerkleLT.TrancheWithPercentage[]",
              "components": [
                {
                  "name": "unlockPercentage",
                  "type": "uint64",
                  "internalType": "UD2x18"
                },
                {
                  "name": "duration",
                  "type": "uint40",
                  "internalType": "uint40"
                }
              ]
            },
            {
              "name": "transferable",
              "type": "bool",
              "internalType": "bool"
            },
            {
              "name": "vestingStartTime",
              "type": "uint40",
              "internalType": "uint40"
            }
          ]
        },
        {
          "name": "aggregateAmount",
          "type": "uint256",
          "indexed": false,
          "internalType": "uint256"
        },
        {
          "name": "totalDuration",
          "type": "uint256",
          "indexed": false,
          "internalType": "uint256"
        },
        {
          "name": "recipientCount",
          "type": "uint256",
          "indexed": false,
          "internalType": "uint256"
        },
        {
          "name": "comptroller",
          "type": "address",
          "indexed": false,
          "internalType": "address"
        },
        {
          "name": "minFeeUSD",
          "type": "uint256",
          "indexed": false,
          "internalType": "uint256"
        }
      ],
      "anonymous": false
    },
    {
      "type": "event",
      "name": "SetComptroller",
      "inputs": [
        {
          "name": "oldComptroller",
          "type": "address",
          "indexed": false,
          "internalType": "contract ISablierComptroller"
        },
        {
          "name": "newComptroller",
          "type": "address",
          "indexed": false,
          "internalType": "contract ISablierComptroller"
        }
      ],
      "anonymous": false
    },
    {
      "type": "event",
      "name": "SetNativeToken",
      "inputs": [
        {
          "name": "comptroller",
          "type": "address",
          "indexed": true,
          "internalType": "address"
        },
        {
          "name": "nativeToken",
          "type": "address",
          "indexed": false,
          "internalType": "address"
        }
      ],
      "anonymous": false
    },
    {
      "type": "event",
      "name": "TransferFeesToComptroller",
      "inputs": [
        {
          "name": "comptroller",
          "type": "address",
          "indexed": true,
          "internalType": "contract ISablierComptroller"
        },
        {
          "name": "feeAmount",
          "type": "uint256",
          "indexed": false,
          "internalType": "uint256"
        }
      ],
      "anonymous": false
    },
    {
      "type": "error",
      "name": "Comptrollerable_CallerNotComptroller",
      "inputs": [
        {
          "name": "comptroller",
          "type": "address",
          "internalType": "address"
        },
        {
          "name": "caller",
          "type": "address",
          "internalType": "address"
        }
      ]
    },
    {
      "type": "error",
      "name": "Comptrollerable_UnsupportedInterfaceId",
      "inputs": [
        {
          "name": "previousComptroller",
          "type": "address",
          "internalType": "address"
        },
        {
          "name": "newComptroller",
          "type": "address",
          "internalType": "address"
        },
        {
          "name": "minimalInterfaceId",
          "type": "bytes4",
          "internalType": "bytes4"
        }
      ]
    },
    {
      "type": "error",
      "name": "SablierFactoryMerkleBase_ForbidNativeToken",
      "inputs": [
        {
          "name": "nativeToken",
          "type": "address",
          "internalType": "address"
        }
      ]
    },
    {
      "type": "error",
      "name": "SablierFactoryMerkleBase_NativeTokenAlreadySet",
      "inputs": [
        {
          "name": "nativeToken",
          "type": "address",
          "internalType": "address"
        }
      ]
    },
    {
      "type": "error",
      "name": "SablierFactoryMerkleBase_NativeTokenZeroAddress",
      "inputs": []
    },
    {
      "type": "error",
      "name": "SablierFactoryMerkleLT_TotalPercentageNotOneHundred",
      "inputs": [
        {
          "name": "totalPercentage",
          "type": "uint64",
          "internalType": "uint64"
        }
      ]
    }
  ],
  "bytecode": {
    "object": "0x6080806040523461011a57602081615346803803809161001f8285610131565b83398101031261011a57516001600160a01b0381169081900361011a576040516301ffc9a760e01b8152630654439160e41b6004820152602081602481855afa908115610126575f916100e7575b50156100c6575f80546001600160a01b031916821781556040805191825260208201929092527ff45d882a72fce9d8d7a7e2e196a338d4d9d4057510b4b9ddf91a7066104d2eaf9190a16040516151dd90816101698239f35b6364ca3de160e11b5f525f600452602452630654439160e41b60445260645ffd5b90506020813d60201161011e575b8161010260209383610131565b8101031261011a5751801515810361011a575f61006d565b5f80fd5b3d91506100f5565b6040513d5f823e3d90fd5b601f909101601f19168101906001600160401b0382119082101761015457604052565b634e487b7160e01b5f52604160045260245ffdfe60806040526004361015610011575f80fd5b5f3560e01c8063263ad2d6146108205780634d7c0f111461077e5780635fe3b5671461072e5780636da1e1021461060a57806378f82ce7146104ee5780638bad38dd146102a3578063c17dddd7146100c65763e1758bd814610071575f80fd5b346100c2575f7ffffffffffffffffffffffffffffffffffffffffffffffffffffffffffffffffc3601126100c257602073ffffffffffffffffffffffffffffffffffffffff60015416604051908152f35b5f80fd5b346100c25760407ffffffffffffffffffffffffffffffffffffffffffffffffffffffffffffffffc3601126100c2576100fd610a6e565b60243567ffffffffffffffff81116100c257806004016101a07ffffffffffffffffffffffffffffffffffffffffffffffffffffffffffffffffc83360301126100c2576020926101928373ffffffffffffffffffffffffffffffffffffffff61018c61012461018361017e610177610144869b018a610a91565b3691610b4d565b610f9a565b94905001610bea565b1661102e565b6101b9610247845f54169261022e60405188808201526101e5816101b9604082018a610ca6565b037fffffffffffffffffffffffffffffffffffffffffffffffffffffffffffffffe08101835282610ae5565b6040516101fb816101b98c8201948a8887610edb565b519020956101b961409296604051976102168c82018a610ae5565b8089526111168c8a01396040519485938c8501610f1e565b6040519283916102418984018097610eb2565b90610eb2565b51902060405190848201927fff0000000000000000000000000000000000000000000000000000000000000084523060601b60218401526035830152605582015260558152610297607582610ae5565b51902016604051908152f35b346100c25760207ffffffffffffffffffffffffffffffffffffffffffffffffffffffffffffffffc3601126100c25760043573ffffffffffffffffffffffffffffffffffffffff81168091036100c2576102fb6110c4565b5f549073ffffffffffffffffffffffffffffffffffffffff8216916040517fc34df33e000000000000000000000000000000000000000000000000000000008152602081600481875afa908115610488575f91610493575b507fffffffff00000000000000000000000000000000000000000000000000000000604051917f01ffc9a70000000000000000000000000000000000000000000000000000000083521690816004820152602081602481875afa908115610488575f9161044d575b501561041a577ff45d882a72fce9d8d7a7e2e196a338d4d9d4057510b4b9ddf91a7066104d2eaf60408585807fffffffffffffffffffffffff00000000000000000000000000000000000000008716175f5582519182526020820152a1005b82847fc9947bc2000000000000000000000000000000000000000000000000000000005f5260045260245260445260645ffd5b90506020813d602011610480575b8161046860209383610ae5565b810103126100c2575180151581036100c257856103bb565b3d915061045b565b6040513d5f823e3d90fd5b90506020813d6020116104e6575b816104ae60209383610ae5565b810103126100c257517fffffffff00000000000000000000000000000000000000000000000000000000811681036100c25784610353565b3d91506104a1565b346100c2575f7ffffffffffffffffffffffffffffffffffffffffffffffffffffffffffffffffc3601126100c257475f8080808473ffffffffffffffffffffffffffffffffffffffff8254165af1503d15610605573d67ffffffffffffffff81116105d8576040519061058960207fffffffffffffffffffffffffffffffffffffffffffffffffffffffffffffffe0601f8401160183610ae5565b81525f60203d92013e5b7f56dedb874d4fc0f70753f281fa2c25e82085163206086fe826cf834b51701f6c602073ffffffffffffffffffffffffffffffffffffffff5f541692604051908152a2005b7f4e487b71000000000000000000000000000000000000000000000000000000005f52604160045260245ffd5b610593565b346100c25760207ffffffffffffffffffffffffffffffffffffffffffffffffffffffffffffffffc3601126100c25773ffffffffffffffffffffffffffffffffffffffff610656610a6e565b61065e6110c4565b1680156107065760015473ffffffffffffffffffffffffffffffffffffffff8116806106db57507fffffffffffffffffffffffff0000000000000000000000000000000000000000829116176001556040519081527f7b0a5ae0a2e8f0dc2ec7555098e00dd4af1418ee3fd1bcf9bb14f6990c10fa9260203392a2005b7f6d9f7c38000000000000000000000000000000000000000000000000000000005f5260045260245ffd5b7f2f70e6c7000000000000000000000000000000000000000000000000000000005f5260045ffd5b346100c2575f7ffffffffffffffffffffffffffffffffffffffffffffffffffffffffffffffffc3601126100c257602073ffffffffffffffffffffffffffffffffffffffff5f5416604051908152f35b346100c25760207ffffffffffffffffffffffffffffffffffffffffffffffffffffffffffffffffc3601126100c25760043567ffffffffffffffff81116100c257366023820112156100c25780600401359067ffffffffffffffff82116100c2573660248360061b830101116100c25761017e610802916020936024369201610b4d565b9050670de0b6b3a764000067ffffffffffffffff6040519216148152f35b346100c25760607ffffffffffffffffffffffffffffffffffffffffffffffffffffffffffffffffc3601126100c25760043567ffffffffffffffff81116100c25780600401906101a07ffffffffffffffffffffffffffffffffffffffffffffffffffffffffffffffffc82360301126100c2576108ce61012473ffffffffffffffffffffffffffffffffffffffff61018c6108c561017e610177610144880189610a91565b93909501610bea565b73ffffffffffffffffffffffffffffffffffffffff5f5416604051602080820152610900816101b96040820187610ca6565b604051610917816101b96020820194863387610edb565b51902090604051906140928083019183831067ffffffffffffffff8411176105d857839261094c926111168539873391610f1e565b03905ff580156104885773ffffffffffffffffffffffffffffffffffffffff169073ffffffffffffffffffffffffffffffffffffffff5f5416604051907f88dc31a80000000000000000000000000000000000000000000000000000000082525f6004830152336024830152602082604481845afa918215610488575f92610a39575b5060209484937f0c408fd73cea6c12a3e5be1a93116bd15b295b198e17b0afd409990e6fedef2293610a0f9360405194859460c0865260c0860190610ca6565b926024358a86015260408501526044356060850152608084015260a08301520390a2604051908152f35b9091506020813d602011610a66575b81610a5560209383610ae5565b810103126100c257519060206109cf565b3d9150610a48565b6004359073ffffffffffffffffffffffffffffffffffffffff821682036100c257565b9035907fffffffffffffffffffffffffffffffffffffffffffffffffffffffffffffffe1813603018212156100c2570180359067ffffffffffffffff82116100c257602001918160061b360383136100c257565b90601f7fffffffffffffffffffffffffffffffffffffffffffffffffffffffffffffffe0910116810190811067ffffffffffffffff8211176105d857604052565b359067ffffffffffffffff821682036100c257565b359064ffffffffff821682036100c257565b92919267ffffffffffffffff82116105d85760405193610b7360208460051b0186610ae5565b602085848152019260061b8201918183116100c257925b828410610b975750505050565b6040848303126100c25760405190604082019082821067ffffffffffffffff8311176105d8576040926020928452610bce87610b26565b8152610bdb838801610b3b565b83820152815201930192610b8a565b3573ffffffffffffffffffffffffffffffffffffffff811681036100c25790565b90357fffffffffffffffffffffffffffffffffffffffffffffffffffffffffffffffe1823603018112156100c257016020813591019167ffffffffffffffff82116100c25781360383136100c257565b601f82602094937fffffffffffffffffffffffffffffffffffffffffffffffffffffffffffffffe093818652868601375f8582860101520116010190565b359081151582036100c257565b90610cc4610cb48380610c0b565b6101a084526101a0840191610c5b565b64ffffffffff610cd660208501610b3b565b166020830152610ce860408401610c99565b1515604083015264ffffffffff610d0160608501610b3b565b16606083015260808301359073ffffffffffffffffffffffffffffffffffffffff82168092036100c257610d4f916080840152610d4160a0850185610c0b565b9084830360a0860152610c5b565b60c08301359073ffffffffffffffffffffffffffffffffffffffff82168092036100c257610da39160c084015260e084013560e0840152610d94610100850185610c0b565b90848303610100860152610c5b565b9161012081013573ffffffffffffffffffffffffffffffffffffffff81168091036100c2576101208301526101408101357fffffffffffffffffffffffffffffffffffffffffffffffffffffffffffffffe1823603018112156100c25781016020813591019367ffffffffffffffff82116100c2578160061b360385136100c25783810361014085015281815260200193905f5b818110610e715750505064ffffffffff610e6a61018083610e5c610160839601610c99565b151561016087015201610b3b565b1691015290565b90919460408060019267ffffffffffffffff610e8c8a610b26565b16815264ffffffffff610ea160208b01610b3b565b166020820152019601929101610e37565b908151915f5b838110610ec8575050015f815290565b8060208092840101518185015201610eb8565b7fffffffffffffffffffffffffffffffffffffffff000000000000000000000000610f1b94938160289460601b16835260601b1660148201520190610eb2565b90565b91939273ffffffffffffffffffffffffffffffffffffffff9081610f4c604094606087526060870190610ca6565b9616602085015216910152565b8051821015610f6d5760209160051b010190565b7f4e487b71000000000000000000000000000000000000000000000000000000005f52603260045260245ffd5b5f915f918051905f915b808310610fb057505050565b9091949367ffffffffffffffff80610fc88886610f59565b51511691160167ffffffffffffffff8111611001576001909464ffffffffff6020610ff38987610f59565b510151160195019190610fa4565b7f4e487b71000000000000000000000000000000000000000000000000000000005f52601160045260245ffd5b73ffffffffffffffffffffffffffffffffffffffff80600154169116908114611099575067ffffffffffffffff16670de0b6b3a7640000810361106e5750565b7f3e0fc68d000000000000000000000000000000000000000000000000000000005f5260045260245ffd5b7fb1c99895000000000000000000000000000000000000000000000000000000005f5260045260245ffd5b73ffffffffffffffffffffffffffffffffffffffff5f54168033036110e65750565b7fa7e1519e000000000000000000000000000000000000000000000000000000005f526004523360245260445ffdfe6101e0806040523461087c57614092803803809161001d8285610ac1565b8339810160608282031261087c5781516001600160401b03811161087c578201916101a08383031261087c57604051926101a084016001600160401b038111858210176106e55760405280516001600160401b03811161087c5783610083918301610ae4565b845261009160208201610b51565b602085019081526100a460408301610b63565b92604086019384526100b860608401610b51565b90606087019182526100cc60808501610b70565b6080880190815260a08501516001600160401b03811161087c57876100f2918701610ae4565b60a0890190815260c086015194906001600160a01b038616860361087c5760c08a0195865260e087810151908b019081526101008801519093906001600160401b03811161087c578a610146918a01610ae4565b6101008c019081526101208901519b9091906001600160a01b038d168d0361087c5761012081019c8d526101408a01516001600160401b03811161087c578a018c601f8201121561087c578051906001600160401b0382116106e5576040519d8e8360051b6020016101b89082610ac1565b8381526020019260061b82016020019181831161087c57602001925b828410610a65575050505061014081019b8c526102086101806101fa6101608d01610b63565b9b8c61016085015201610b51565b9a61018082019b8c5264ffffffffff80610230604061022960208d01610b70565b9b01610b70565b9351975192519b519a5194519651985195519f515f80546001600160a01b0319166001600160a01b03998a1690811782556040519e15159e9d8a169d92909916989390961695919093169291907fbdd36143ee09de60bdefca70680e0f71189b2ed7acee364b53917ad433fdaf808180a34660805260208101907f8cad95687ba82c2ce50e74f7b754645e5117c3a5bec8151c0726d5857980a86682527f13cd784591b49af6fc220be53013eaddf1dc15399ca43850d206ea319aca082160408201524660608201523060808201526080815261030e60a082610ac1565b51902060a05260c05260e0526101005261012052610140528051906001600160401b0382116106e55760015490600182811c92168015610a5b575b60208310146108345781601f8493116109ed575b50602090601f8311600114610987575f9261097c575b50508160011b915f199060031b1c1916176001555b8051906001600160401b0382116106e55760035490600182811c92168015610972575b60208310146108345781601f849311610904575b50602090601f831160011461089e575f92610893575b50508160011b915f199060031b1c1916176003555b60e05160405163111b863560e31b81525f60048201526001600160a01b0392831660248201529160209183916044918391165afa908115610888575f91610852575b50600455610160528451946001600160401b0386116106e557600654600181811c91168015610848575b602082101461083457601f81116107d1575b50602090601f87116001146107655795809164ffffffffff96975f9261075a575b50508160011b915f199060031b1c1916176006555b6101805215156101a05260018060a01b03610140511660018060a01b036101605116906040519060205f81840163095ea7b360e01b815285602486015281196044860152604485526104f1606486610ac1565b84519082855af15f513d8261073e575b5050156106f9575b50505051166101c052805151905f5b828110610655576040516134b59081610bdd823960805181613087015260a051816130ad015260c0518181816105f20152612b3b015260e0518181816104290152818161087b015281816113520152612b7101526101005181818161039c01528181611e5301528181612a4b0152612edc0152610120518181816108d40152612d1101526101405181818161059301528181610d2101528181610ded015281816117b20152818161186901528181611db8015281816120d5015261219d01526101605181818161022b01528181610fd801528181611a5401526123880152610180518181816102e201528181610e2a015281816118a601526121da01526101a05181818161033c01528181610e54015281816118d0015261220401526101c05181818161080d01528181610b5a0152818161160c0152611f140152f35b815180518210156106d1576020908260051b0101519060085491680100000000000000008310156106e55760018301806008558310156106d15760019260085f5260205f200190838060401b038151166cffffffffff00000000000000006020845493015160401b1691858060681b0319161717905501610518565b634e487b7160e01b5f52603260045260245ffd5b634e487b7160e01b5f52604160045260245ffd5b610731610736936040519063095ea7b360e01b602083015260248201525f60448201526044815261072b606482610ac1565b82610b84565b610b84565b5f8080610509565b9091506107525750803b15155b5f80610501565b60011461074b565b015190505f80610489565b90601f1987169160065f52815f20925f5b8181106107b9575091600193918964ffffffffff999a94106107a1575b505050811b0160065561049e565b01515f1960f88460031b161c191690555f8080610793565b92936020600181928786015181550195019301610776565b60065f527ff652222313e28459528d920b65115c16c04f3efc82aaedc97be59f3f377c0d3f601f880160051c8101916020891061082a575b601f0160051c01905b81811061081f5750610468565b5f8155600101610812565b9091508190610809565b634e487b7160e01b5f52602260045260245ffd5b90607f1690610456565b90506020813d602011610880575b8161086d60209383610ac1565b8101031261087c57515f61042c565b5f80fd5b3d9150610860565b6040513d5f823e3d90fd5b015190505f806103d5565b60035f9081528281209350601f198516905b8181106108ec57509084600195949392106108d4575b505050811b016003556103ea565b01515f1960f88460031b161c191690555f80806108c6565b929360206001819287860151815501950193016108b0565b60035f529091507fc2575a0e9e593c00f959f8c92f12db2869c3395a3b0502d05e2516446f71f85b601f840160051c81019160208510610968575b90601f859493920160051c01905b81811061095a57506103bf565b5f815584935060010161094d565b909150819061093f565b91607f16916103ab565b015190505f80610373565b60015f9081528281209350601f198516905b8181106109d557509084600195949392106109bd575b505050811b01600155610388565b01515f1960f88460031b161c191690555f80806109af565b92936020600181928786015181550195019301610999565b60015f529091507fb10e2d527612073b26eecdfd717e6a320cf44b4afac2b0732d9fcbe2b7fa0cf6601f840160051c81019160208510610a51575b90601f859493920160051c01905b818110610a43575061035d565b5f8155849350600101610a36565b9091508190610a28565b91607f1691610349565b60408483031261087c5760408051919082016001600160401b038111838210176106e5576040528451906001600160401b038216820361087c578260209260409452610ab2838801610b51565b838201528152019301926101d4565b601f909101601f19168101906001600160401b038211908210176106e557604052565b81601f8201121561087c578051906001600160401b0382116106e55760405192610b18601f8401601f191660200185610ac1565b8284526020838301011161087c575f5b828110610b3c57505060205f918301015290565b80602080928401015182828701015201610b28565b519064ffffffffff8216820361087c57565b5190811515820361087c57565b51906001600160a01b038216820361087c57565b905f602091828151910182855af115610888575f513d610bd357506001600160a01b0381163b155b610bb35750565b635274afe760e01b5f9081526001600160a01b0391909116600452602490fd5b60011415610bac56fe60806040526004361015610011575f80fd5b5f3560e01c80630724fda9146126175780630854a79c14611edb5780631686c90914611d3657806320743583146113f857806323e53367146113bf5780633a12a5bc146112d85780633f31ae3f14610b2a578063496500a814610a9357806349fc73dd146109325780634e0bb8cc146108f757806351e75e8b1461089f5780635f82c67e146108315780636c0b1e8c146107d25780637423649b1461079957806375829def146106f557806376c30a95146106165780637ca3944d146105b757806382bfefc81461054957806382d72f7f146105075780638ec68869146103f857806390e64d13146103c0578063bb4b573414610361578063bf44497a14610307578063cbe9e5ef146102ad578063ce5165071461024f578063f3ffe13f146101e1578063f698da25146101a15763f851a4401461014d575f80fd5b3461019d575f7ffffffffffffffffffffffffffffffffffffffffffffffffffffffffffffffffc36011261019d57602073ffffffffffffffffffffffffffffffffffffffff5f5416604051908152f35b5f80fd5b3461019d575f7ffffffffffffffffffffffffffffffffffffffffffffffffffffffffffffffffc36011261019d5760206101d9613084565b604051908152f35b3461019d575f7ffffffffffffffffffffffffffffffffffffffffffffffffffffffffffffffffc36011261019d57602060405173ffffffffffffffffffffffffffffffffffffffff7f0000000000000000000000000000000000000000000000000000000000000000168152f35b3461019d5760207ffffffffffffffffffffffffffffffffffffffffffffffffffffffffffffffffc36011261019d5760206102a360043560ff6001918060081c5f526005602052161b60405f205416151590565b6040519015158152f35b3461019d575f7ffffffffffffffffffffffffffffffffffffffffffffffffffffffffffffffffc36011261019d5760206040517f000000000000000000000000000000000000000000000000000000000000000015158152f35b3461019d575f7ffffffffffffffffffffffffffffffffffffffffffffffffffffffffffffffffc36011261019d5760206040517f000000000000000000000000000000000000000000000000000000000000000015158152f35b3461019d575f7ffffffffffffffffffffffffffffffffffffffffffffffffffffffffffffffffc36011261019d57602060405164ffffffffff7f0000000000000000000000000000000000000000000000000000000000000000168152f35b3461019d575f7ffffffffffffffffffffffffffffffffffffffffffffffffffffffffffffffffc36011261019d5760206102a3612a43565b3461019d5760207ffffffffffffffffffffffffffffffffffffffffffffffffffffffffffffffffc36011261019d577f000000000000000000000000000000000000000000000000000000000000000073ffffffffffffffffffffffffffffffffffffffff166004353382036104d757600454808210156104a957816040917fcafa56d109bc30839f1bad76f9d17abcbd6c936490d4ec0fbc6d331bf89f92af9360045582519182526020820152a2005b7f173c9c82000000000000000000000000000000000000000000000000000000005f5260045260245260445ffd5b507fead08252000000000000000000000000000000000000000000000000000000005f526004523360245260445ffd5b3461019d575f7ffffffffffffffffffffffffffffffffffffffffffffffffffffffffffffffffc36011261019d57602064ffffffffff60025416604051908152f35b3461019d575f7ffffffffffffffffffffffffffffffffffffffffffffffffffffffffffffffffc36011261019d57602060405173ffffffffffffffffffffffffffffffffffffffff7f0000000000000000000000000000000000000000000000000000000000000000168152f35b3461019d575f7ffffffffffffffffffffffffffffffffffffffffffffffffffffffffffffffffc36011261019d57602060405164ffffffffff7f0000000000000000000000000000000000000000000000000000000000000000168152f35b3461019d5760207ffffffffffffffffffffffffffffffffffffffffffffffffffffffffffffffffc36011261019d5773ffffffffffffffffffffffffffffffffffffffff6106626128b3565b165f52600760205260405f20604051806020835491828152019081935f5260205f20905f5b8181106106df575050508161069d910382612729565b604051918291602083019060208452518091526040830191905f5b8181106106c6575050500390f35b82518452859450602093840193909201916001016106b8565b8254845260209093019260019283019201610687565b3461019d5760207ffffffffffffffffffffffffffffffffffffffffffffffffffffffffffffffffc36011261019d5773ffffffffffffffffffffffffffffffffffffffff6107416128b3565b610749612f54565b16807fffffffffffffffffffffffff00000000000000000000000000000000000000005f5416175f55337fbdd36143ee09de60bdefca70680e0f71189b2ed7acee364b53917ad433fdaf805f80a3005b3461019d575f7ffffffffffffffffffffffffffffffffffffffffffffffffffffffffffffffffc36011261019d57602060405160018152f35b3461019d575f7ffffffffffffffffffffffffffffffffffffffffffffffffffffffffffffffffc36011261019d57602060405164ffffffffff7f0000000000000000000000000000000000000000000000000000000000000000168152f35b3461019d575f7ffffffffffffffffffffffffffffffffffffffffffffffffffffffffffffffffc36011261019d57602060405173ffffffffffffffffffffffffffffffffffffffff7f0000000000000000000000000000000000000000000000000000000000000000168152f35b3461019d575f7ffffffffffffffffffffffffffffffffffffffffffffffffffffffffffffffffc36011261019d5760206040517f00000000000000000000000000000000000000000000000000000000000000008152f35b3461019d575f7ffffffffffffffffffffffffffffffffffffffffffffffffffffffffffffffffc36011261019d576020600454604051908152f35b3461019d575f7ffffffffffffffffffffffffffffffffffffffffffffffffffffffffffffffffc36011261019d576040515f6003548060011c90600181168015610a89575b602083108114610a5c57828552908115610a1a57506001146109bc575b6109b8836109a481850382612729565b604051918291602083526020830190612856565b0390f35b60035f9081527fc2575a0e9e593c00f959f8c92f12db2869c3395a3b0502d05e2516446f71f85b939250905b808210610a00575090915081016020016109a4610994565b9192600181602092548385880101520191019092916109e8565b7fffffffffffffffffffffffffffffffffffffffffffffffffffffffffffffff001660208086019190915291151560051b840190910191506109a49050610994565b7f4e487b71000000000000000000000000000000000000000000000000000000005f52602260045260245ffd5b91607f1691610977565b3461019d575f7ffffffffffffffffffffffffffffffffffffffffffffffffffffffffffffffffc36011261019d57610ac96129af565b6040518091602082016020835281518091526020604084019201905f5b818110610af4575050500390f35b8251805167ffffffffffffffff16855260209081015164ffffffffff168186015286955060409094019390920191600101610ae6565b610b42610b3636612907565b90828486979497612b2e565b60405192610b4f846126f0565b5f80855260208501527f000000000000000000000000000000000000000000000000000000000000000064ffffffffff81166112d2575064ffffffffff4216935b610b986129af565b6fffffffffffffffffffffffffffffffff831695815191610bb883612997565b92610bc66040519485612729565b8084527fffffffffffffffffffffffffffffffffffffffffffffffffffffffffffffffe0610bf382612997565b015f5b8181106112af5750506fffffffffffffffffffffffffffffffff610c36610c3167ffffffffffffffff610c2886612f33565b5151168c613323565b613292565b169164ffffffffff806020610c4a84612f33565b5101511685011660405190610c5e826126f0565b8482526020820152610c6f86612f33565b52610c7985612f33565b5060015b8a8382106111e5579050839291506fffffffffffffffffffffffffffffffff64ffffffffff95941610611193575b505016825264ffffffffff6020610ce57fffffffffffffffffffffffffffffffffffffffffffffffffffffffffffffffff84510184612f40565b51015116602083018190524210610d95575050610d457ff46684b730cdfda57162147f36e667c94ecc144aa37e949cffe699e2f7c7f38d9394837f0000000000000000000000000000000000000000000000000000000000000000612fa5565b604080519485526fffffffffffffffffffffffffffffffff909116602085015273ffffffffffffffffffffffffffffffffffffffff9091169083018190525f60608401529180608081015b0390a2005b5f9491945473ffffffffffffffffffffffffffffffffffffffff169060405191610dbe8361270c565b8252602082019673ffffffffffffffffffffffffffffffffffffffff86169687895260408401918252606084017f000000000000000000000000000000000000000000000000000000000000000073ffffffffffffffffffffffffffffffffffffffff168152608085017f00000000000000000000000000000000000000000000000000000000000000001515815260a08601917f00000000000000000000000000000000000000000000000000000000000000001515835260c08701938452610e8661276a565b9460e088019586526040519c8d987f9d93ddd3000000000000000000000000000000000000000000000000000000008a5260048a01604090525173ffffffffffffffffffffffffffffffffffffffff1660448a01525173ffffffffffffffffffffffffffffffffffffffff166064890152516fffffffffffffffffffffffffffffffff1660848801525173ffffffffffffffffffffffffffffffffffffffff1660a487015251151560c486015251151560e485015251805164ffffffffff166101048501526020015164ffffffffff1661012484015251610144830161012090526101648301610f7591612856565b8281037ffffffffffffffffffffffffffffffffffffffffffffffffffffffffffffffffc01602484015281519081815260200191602001905f5b81811061115557505050908060209203815f73ffffffffffffffffffffffffffffffffffffffff7f0000000000000000000000000000000000000000000000000000000000000000165af194851561114a575f95611116575b50835f52600760205260405f208054680100000000000000008110156110e957600181018083558110156110bc577fc1a996f3693566bf333b8f07ae109766a59a6660dc05dadd5f419487f797f70b94875f926110b7948452602084200155604051948594859273ffffffffffffffffffffffffffffffffffffffff906fffffffffffffffffffffffffffffffff60609497969397608087019887521660208601521660408401521515910152565b0390a3005b7f4e487b71000000000000000000000000000000000000000000000000000000005f52603260045260245ffd5b7f4e487b71000000000000000000000000000000000000000000000000000000005f52604160045260245ffd5b9094506020813d602011611142575b8161113260209383612729565b8101031261019d57519385611008565b3d9150611125565b6040513d5f823e3d90fd5b825180516fffffffffffffffffffffffffffffffff16855260209081015164ffffffffff16818601528a955060409094019390920191600101610faf565b6fffffffffffffffffffffffffffffffff6111d17fffffffffffffffffffffffffffffffffffffffffffffffffffffffffffffffff82930187612f40565b519288031681835116011690528880610cab565b906fffffffffffffffffffffffffffffffff61121c610c3160019467ffffffffffffffff6112138689612f40565b51511690613323565b809601169464ffffffffff8060206112567fffffffffffffffffffffffffffffffffffffffffffffffffffffffffffffffff86018c612f40565b510151168160206112678689612f40565b5101511601166fffffffffffffffffffffffffffffffff6040519261128b846126f0565b168252602082015261129d8289612f40565b526112a88188612f40565b5001610c7d565b6020906040516112be816126f0565b5f81525f8382015282828901015201610bf6565b93610b90565b3461019d575f7ffffffffffffffffffffffffffffffffffffffffffffffffffffffffffffffffc36011261019d57600454604051907fb0fa59e8000000000000000000000000000000000000000000000000000000008252600482015260208160248173ffffffffffffffffffffffffffffffffffffffff7f0000000000000000000000000000000000000000000000000000000000000000165afa801561114a575f9061138c575b602090604051908152f35b506020813d6020116113b7575b816113a660209383612729565b8101031261019d5760209051611381565b3d9150611399565b3461019d575f7ffffffffffffffffffffffffffffffffffffffffffffffffffffffffffffffffc36011261019d576109b86109a461276a565b60e07ffffffffffffffffffffffffffffffffffffffffffffffffffffffffffffffffc36011261019d5760043560243573ffffffffffffffffffffffffffffffffffffffff81169081810361019d576044359273ffffffffffffffffffffffffffffffffffffffff84169384810361019d57606435926fffffffffffffffffffffffffffffffff84169586850361019d576084359164ffffffffff831680930361019d5760a43567ffffffffffffffff811161019d576114bc9036906004016128d6565b9160c43567ffffffffffffffff811161019d573660238201121561019d5780600401359067ffffffffffffffff821161019d57366024838301011161019d576115d1915f602060428f8f8e916115118f612a80565b60405191858301937fb0f12a3a6931229a836eaab08aeb1ebe2ddebad3bfd83f30d39f6c4a3b0f4f818552604084015260608301528c608083015260a08201528c60c082015260c0815261156660e082612729565b519020611571613084565b90604051917f190100000000000000000000000000000000000000000000000000000000000083526002830152602282015220928060246115b182612ac5565b966115bf6040519889612729565b82885201838701378401015283613141565b15611d0e5764ffffffffff421694858111611cde575090876115f4939288612b2e565b60405191611601836126f0565b5f80845260208401527f000000000000000000000000000000000000000000000000000000000000000064ffffffffff8116611cd65750915b6116426129af565b9283519361164f85612997565b9461165d6040519687612729565b8086527fffffffffffffffffffffffffffffffffffffffffffffffffffffffffffffffe061168a82612997565b015f5b818110611cb35750506fffffffffffffffffffffffffffffffff6116c0610c318d67ffffffffffffffff61121387612f33565b169164ffffffffff8060206116d484612f33565b51015116850116604051906116e8826126f0565b84825260208201526116f988612f33565b5261170387612f33565b5060015b8c838210611bf2579050839291506fffffffffffffffffffffffffffffffff64ffffffffff95941610611ba0575b505016815264ffffffffff602061176f7fffffffffffffffffffffffffffffffffffffffffffffffffffffffffffffffff86510186612f40565b51015116602082018190524210611826575050506001816117d67ff46684b730cdfda57162147f36e667c94ecc144aa37e949cffe699e2f7c7f38d9697610d90947f0000000000000000000000000000000000000000000000000000000000000000612fa5565b604051948594859273ffffffffffffffffffffffffffffffffffffffff906fffffffffffffffffffffffffffffffff60609497969397608087019887521660208601521660408401521515910152565b9190965f959493955473ffffffffffffffffffffffffffffffffffffffff1692604051936118538561270c565b84526020840198895260408401918252606084017f000000000000000000000000000000000000000000000000000000000000000073ffffffffffffffffffffffffffffffffffffffff168152608085017f00000000000000000000000000000000000000000000000000000000000000001515815260a08601917f00000000000000000000000000000000000000000000000000000000000000001515835260c0870193845261190261276a565b9460e088019586526040519c8d987f9d93ddd3000000000000000000000000000000000000000000000000000000008a5260048a01604090525173ffffffffffffffffffffffffffffffffffffffff1660448a01525173ffffffffffffffffffffffffffffffffffffffff166064890152516fffffffffffffffffffffffffffffffff1660848801525173ffffffffffffffffffffffffffffffffffffffff1660a487015251151560c486015251151560e485015251805164ffffffffff166101048501526020015164ffffffffff16610124840152516101448301610120905261016483016119f191612856565b8281037ffffffffffffffffffffffffffffffffffffffffffffffffffffffffffffffffc01602484015281519081815260200191602001905f5b818110611b6257505050908060209203815f73ffffffffffffffffffffffffffffffffffffffff7f0000000000000000000000000000000000000000000000000000000000000000165af194851561114a575f95611b2e575b50835f52600760205260405f208054680100000000000000008110156110e957600181018083558110156110bc575f91825260209182902001869055604080519283526fffffffffffffffffffffffffffffffff9093169082015273ffffffffffffffffffffffffffffffffffffffff90921690820152600160608201527fc1a996f3693566bf333b8f07ae109766a59a6660dc05dadd5f419487f797f70b9080608081016110b7565b9094506020813d602011611b5a575b81611b4a60209383612729565b8101031261019d57519385611a84565b3d9150611b3d565b825180516fffffffffffffffffffffffffffffffff16855260209081015164ffffffffff16818601528a955060409094019390920191600101611a2b565b6fffffffffffffffffffffffffffffffff611bde7fffffffffffffffffffffffffffffffffffffffffffffffffffffffffffffffff82930189612f40565b51928b031681835116011690528a80611735565b906fffffffffffffffffffffffffffffffff611c20610c3160019467ffffffffffffffff6112138689612f40565b958601169464ffffffffff806020611c5a7fffffffffffffffffffffffffffffffffffffffffffffffffffffffffffffffff86018e612f40565b51015116816020611c6b8689612f40565b5101511601166fffffffffffffffffffffffffffffffff60405192611c8f846126f0565b1682526020820152611ca1828b612f40565b52611cac818a612f40565b5001611707565b602090604051611cc2816126f0565b5f81525f8382015282828b0101520161168d565b90509161163a565b85907f875f3291000000000000000000000000000000000000000000000000000000005f5260045260245260445ffd5b7f9a943b04000000000000000000000000000000000000000000000000000000005f5260045ffd5b3461019d5760407ffffffffffffffffffffffffffffffffffffffffffffffffffffffffffffffffc36011261019d57611d6d6128b3565b602435906fffffffffffffffffffffffffffffffff821680920361019d57611d93612f54565b64ffffffffff6002541680151580611e8d575b80611e7e575b611e245750611ddc82827f0000000000000000000000000000000000000000000000000000000000000000612fa5565b7f2e9d425ba8b27655048400b366d7b6a1f7180ebdb088e06bb7389704860ffe1f602073ffffffffffffffffffffffffffffffffffffffff805f5416936040519586521693a3005b7fe2e40a0c000000000000000000000000000000000000000000000000000000005f524260045264ffffffffff7f00000000000000000000000000000000000000000000000000000000000000001660245260445260645ffd5b50611e87612a43565b15611dac565b5062093a80810164ffffffffff8111611eae5764ffffffffff164211611da6565b7f4e487b71000000000000000000000000000000000000000000000000000000005f52601160045260245ffd5b611efd611ee736612907565b90611ef58495969394612a80565b833387612b2e565b604051611f09816126f0565b5f80825260208201527f000000000000000000000000000000000000000000000000000000000000000064ffffffffff8116612611575064ffffffffff4216905b611f526129af565b6fffffffffffffffffffffffffffffffff841692815191611f7283612997565b92611f806040519485612729565b8084527fffffffffffffffffffffffffffffffffffffffffffffffffffffffffffffffe0611fad82612997565b015f5b8181106125ee5750506fffffffffffffffffffffffffffffffff611feb610c3167ffffffffffffffff611fe286612f33565b51511689613323565b169164ffffffffff806020611fff84612f33565b5101511685011660405190612013826126f0565b848252602082015261202486612f33565b5261202e85612f33565b5060015b82811061252e5750509064ffffffffff9291866fffffffffffffffffffffffffffffffff8316106124dc575b505016825264ffffffffff60206120987fffffffffffffffffffffffffffffffffffffffffffffffffffffffffffffffff84510184612f40565b51015116602083018190524210612147575050906120f983927ff46684b730cdfda57162147f36e667c94ecc144aa37e949cffe699e2f7c7f38d947f0000000000000000000000000000000000000000000000000000000000000000612fa5565b604080519485526fffffffffffffffffffffffffffffffff909116602085015273ffffffffffffffffffffffffffffffffffffffff909116908301525f606083015233918060808101610d90565b5f54604051929695939073ffffffffffffffffffffffffffffffffffffffff166121708461270c565b8352602083019673ffffffffffffffffffffffffffffffffffffffff8516885260408401918252606084017f000000000000000000000000000000000000000000000000000000000000000073ffffffffffffffffffffffffffffffffffffffff168152608085017f00000000000000000000000000000000000000000000000000000000000000001515815260a08601917f00000000000000000000000000000000000000000000000000000000000000001515835260c0870193845261223661276a565b9460e088019586526040519b8c987f9d93ddd3000000000000000000000000000000000000000000000000000000008a5260048a01604090525173ffffffffffffffffffffffffffffffffffffffff1660448a01525173ffffffffffffffffffffffffffffffffffffffff166064890152516fffffffffffffffffffffffffffffffff1660848801525173ffffffffffffffffffffffffffffffffffffffff1660a487015251151560c486015251151560e485015251805164ffffffffff166101048501526020015164ffffffffff166101248401525161014483016101209052610164830161232591612856565b8281037ffffffffffffffffffffffffffffffffffffffffffffffffffffffffffffffffc01602484015281519081815260200191602001905f5b81811061249e57505050908060209203815f73ffffffffffffffffffffffffffffffffffffffff7f0000000000000000000000000000000000000000000000000000000000000000165af193841561114a575f9461246a575b50335f52600760205260405f2091825492680100000000000000008410156110e957600184018082558410156110bc577fc1a996f3693566bf333b8f07ae109766a59a6660dc05dadd5f419487f797f70b9386915f5260205f2001556110b75f6040519384933397859273ffffffffffffffffffffffffffffffffffffffff906fffffffffffffffffffffffffffffffff60609497969397608087019887521660208601521660408401521515910152565b9093506020813d602011612496575b8161248660209383612729565b8101031261019d575192846123b8565b3d9150612479565b825180516fffffffffffffffffffffffffffffffff16855260209081015164ffffffffff16818601528995506040909401939092019160010161235f565b6fffffffffffffffffffffffffffffffff61251a7fffffffffffffffffffffffffffffffffffffffffffffffffffffffffffffffff82930187612f40565b51928903168183511601169052888061205e565b806fffffffffffffffffffffffffffffffff61255b610c3167ffffffffffffffff610c2860019688612f40565b809601169464ffffffffff8060206125957fffffffffffffffffffffffffffffffffffffffffffffffffffffffffffffffff86018c612f40565b510151168160206125a68689612f40565b5101511601166fffffffffffffffffffffffffffffffff604051926125ca846126f0565b16825260208201526125dc8289612f40565b526125e78188612f40565b5001612032565b6020906040516125fd816126f0565b5f81525f8382015282828901015201611fb0565b90611f4a565b3461019d575f7ffffffffffffffffffffffffffffffffffffffffffffffffffffffffffffffffc36011261019d576040515f6001548060011c906001811680156126e6575b602083108114610a5c57828552908115610a1a5750600114612688576109b8836109a481850382612729565b60015f9081527fb10e2d527612073b26eecdfd717e6a320cf44b4afac2b0732d9fcbe2b7fa0cf6939250905b8082106126cc575090915081016020016109a4610994565b9192600181602092548385880101520191019092916126b4565b91607f169161265c565b6040810190811067ffffffffffffffff8211176110e957604052565b610100810190811067ffffffffffffffff8211176110e957604052565b90601f7fffffffffffffffffffffffffffffffffffffffffffffffffffffffffffffffe0910116810190811067ffffffffffffffff8211176110e957604052565b604051905f6006548060011c916001821691821561284c575b602084108314610a5c57838652859290811561280f57506001146127b0575b6127ae92500383612729565b565b5060065f90815290917ff652222313e28459528d920b65115c16c04f3efc82aaedc97be59f3f377c0d3f5b8183106127f35750509060206127ae928201016127a2565b60209193508060019154838589010152019101909184926127db565b602092506127ae9491507fffffffffffffffffffffffffffffffffffffffffffffffffffffffffffffff001682840152151560051b8201016127a2565b92607f1692612783565b91908251928382525f5b84811061289e5750507fffffffffffffffffffffffffffffffffffffffffffffffffffffffffffffffe0601f845f6020809697860101520116010190565b80602080928401015182828601015201612860565b6004359073ffffffffffffffffffffffffffffffffffffffff8216820361019d57565b9181601f8401121561019d5782359167ffffffffffffffff831161019d576020808501948460051b01011161019d57565b9060807ffffffffffffffffffffffffffffffffffffffffffffffffffffffffffffffffc83011261019d576004359160243573ffffffffffffffffffffffffffffffffffffffff8116810361019d57916044356fffffffffffffffffffffffffffffffff8116810361019d57916064359067ffffffffffffffff821161019d57612993916004016128d6565b9091565b67ffffffffffffffff81116110e95760051b60200190565b600854906129bc82612997565b916129ca6040519384612729565b80835260085f9081527ff3f7a9fe364faab93b216da50a3214154f22a0a2b415b23a84c8169e8b636ee3602085015b838310612a065750505050565b600160208192604051612a18816126f0565b64ffffffffff865467ffffffffffffffff8116835260401c16838201528152019201920191906129f9565b64ffffffffff7f0000000000000000000000000000000000000000000000000000000000000000168015159081612a78575090565b905042101590565b73ffffffffffffffffffffffffffffffffffffffff1615612a9d57565b7f036fcd52000000000000000000000000000000000000000000000000000000005f5260045ffd5b67ffffffffffffffff81116110e957601f017fffffffffffffffffffffffffffffffffffffffffffffffffffffffffffffffe01660200190565b3d15612b29573d90612b1082612ac5565b91612b1e6040519384612729565b82523d5f602084013e565b606090565b939491909264ffffffffff7f000000000000000000000000000000000000000000000000000000000000000016428111612f045750612b6b612a43565b612ead577f00000000000000000000000000000000000000000000000000000000000000009373ffffffffffffffffffffffffffffffffffffffff851692600454604051907fb0fa59e80000000000000000000000000000000000000000000000000000000082526004820152602081602481885afa90811561114a575f91612e7b575b50803410612e4c5750612c198760ff6001918060081c5f526005602052161b60405f205416151590565b612e20576fffffffffffffffffffffffffffffffff6040519173ffffffffffffffffffffffffffffffffffffffff60208401948a865216604084015216606082015260608152612c6a608082612729565b5190206040516020810191825260208152612c86604082612729565b51902090612c9387612997565b96612ca16040519889612729565b808852602088019060051b82019136831161019d57905b828210612e1057505050925f935b8651851015612d0857612cd98588612f40565b519081811015612cf7575f52602052600160405f205b940193612cc6565b905f52602052600160405f20612cef565b919492955092507f000000000000000000000000000000000000000000000000000000000000000003612de85760025464ffffffffff811615612db4575b508060081c5f526005602052600160ff60405f2092161b815417905534612d6b575050565b5f8080809334905af1612d7c612aff565b5015612d855750565b7fe57d366c000000000000000000000000000000000000000000000000000000005f526004523460245260445ffd5b7fffffffffffffffffffffffffffffffffffffffffffffffffffffff0000000000164264ffffffffff16176002555f612d46565b7fb4f06787000000000000000000000000000000000000000000000000000000005f5260045ffd5b8135815260209182019101612cb8565b867f02bf1aba000000000000000000000000000000000000000000000000000000005f5260045260245ffd5b7fa164c6b4000000000000000000000000000000000000000000000000000000005f523460045260245260445ffd5b90506020813d602011612ea5575b81612e9660209383612729565b8101031261019d57515f612bef565b3d9150612e89565b7fdf4bae05000000000000000000000000000000000000000000000000000000005f524260045264ffffffffff7f00000000000000000000000000000000000000000000000000000000000000001660245260445ffd5b7f14659648000000000000000000000000000000000000000000000000000000005f524260045260245260445ffd5b8051156110bc5760200190565b80518210156110bc5760209160051b010190565b73ffffffffffffffffffffffffffffffffffffffff5f5416338103612f765750565b7fc6cce6a4000000000000000000000000000000000000000000000000000000005f526004523360245260445ffd5b916020915f916040519073ffffffffffffffffffffffffffffffffffffffff858301937fa9059cbb000000000000000000000000000000000000000000000000000000008552166024830152604482015260448152613005606482612729565b519082855af11561114a575f513d61307b575073ffffffffffffffffffffffffffffffffffffffff81163b155b6130395750565b73ffffffffffffffffffffffffffffffffffffffff907f5274afe7000000000000000000000000000000000000000000000000000000005f521660045260245ffd5b60011415613032565b467f0000000000000000000000000000000000000000000000000000000000000000036130cf577f000000000000000000000000000000000000000000000000000000000000000090565b60405160208101907f8cad95687ba82c2ce50e74f7b754645e5117c3a5bec8151c0726d5857980a86682527f13cd784591b49af6fc220be53013eaddf1dc15399ca43850d206ea319aca082160408201524660608201523060808201526080815261313b60a082612729565b51902090565b9190823b6131b65790613153916132e9565b5060048110156131895715918261316957505090565b73ffffffffffffffffffffffffffffffffffffffff919250811691161490565b7f4e487b71000000000000000000000000000000000000000000000000000000005f52602160045260245ffd5b915f92613205613231859460405192839160208301957f1626ba7e0000000000000000000000000000000000000000000000000000000087526024840152604060448401526064830190612856565b037fffffffffffffffffffffffffffffffffffffffffffffffffffffffffffffffe08101835282612729565b51915afa61323d612aff565b81613284575b8161324c575090565b905060208180518101031261019d57602001517f1626ba7e000000000000000000000000000000000000000000000000000000001490565b905060208151101590613243565b6fffffffffffffffffffffffffffffffff81116132be576fffffffffffffffffffffffffffffffff1690565b7f4916adce000000000000000000000000000000000000000000000000000000005f5260045260245ffd5b8151919060418303613319576133129250602082015190606060408401519301515f1a906133f0565b9192909190565b50505f9160029190565b9190917fffffffffffffffffffffffffffffffffffffffffffffffffffffffffffffffff838209838202918280831092039180830392146133df57670de0b6b3a76400008210156133af577faccb18165bd6fe31ae1cf318dc5b51eee0e1ba569b88cd74c1773b91fac106699394670de0b6b3a7640000910990828211900360ee1b910360121c170290565b84907f5173648d000000000000000000000000000000000000000000000000000000005f5260045260245260445ffd5b5050670de0b6b3a764000090049150565b91907f7fffffffffffffffffffffffffffffff5d576e7357a4501ddfe92f46681b20a08411613474579160209360809260ff5f9560405194855216868401526040830152606082015282805260015afa1561114a575f5173ffffffffffffffffffffffffffffffffffffffff81161561346a57905f905f90565b505f906001905f90565b5050505f916003919056fea264697066735822122053aca83e281c1cee0b38888e4dd0230563d2225a2cd9494cb8bf0f6550e585bc64736f6c634300081d0033a26469706673582212204ca20423539cc477597ff99739f3675aa625ac1aa85d3dc29ce38447c5afbe7364736f6c634300081d0033",
    "linkReferences": {}
  },
  "methodIdentifiers": {
    "comptroller()": "5fe3b567",
    "computeMerkleLT(address,(string,uint40,bool,uint40,address,string,address,bytes32,string,address,(uint64,uint40)[],bool,uint40))": "c17dddd7",
    "createMerkleLT((string,uint40,bool,uint40,address,string,address,bytes32,string,address,(uint64,uint40)[],bool,uint40),uint256,uint256)": "263ad2d6",
    "isPercentagesSum100((uint64,uint40)[])": "4d7c0f11",
    "nativeToken()": "e1758bd8",
    "setComptroller(address)": "8bad38dd",
    "setNativeToken(address)": "6da1e102",
    "transferFeesToComptroller()": "78f82ce7"
  },
  "id": 100
}