{
  "abi": [
    {
      "type": "constructor",
      "inputs": [
        {
          "name": "initialComptroller",
          "type": "address",
          "internalType": "address"
        }
      ],
      "stateMutability": "nonpayable"
    },
    {
      "type": "function",
      "name": "comptroller",
      "inputs": [],
      "outputs": [
        {
          "name": "",
          "type": "address",
          "internalType": "contract ISablierComptroller"
        }
      ],
      "stateMutability": "view"
    },
    {
      "type": "function",
      "name": "computeMerkleVCA",
      "inputs": [
        {
          "name": "campaignCreator",
          "type": "address",
          "internalType": "address"
        },
        {
          "name": "params",
          "type": "tuple",
          "internalType": "struct MerkleVCA.ConstructorParams",
          "components": [
            {
              "name": "campaignName",
              "type": "string",
              "internalType": "string"
            },
            {
              "name": "campaignStartTime",
              "type": "uint40",
              "internalType": "uint40"
            },
            {
              "name": "expiration",
              "type": "uint40",
              "internalType": "uint40"
            },
            {
              "name": "initialAdmin",
              "type": "address",
              "internalType": "address"
            },
            {
              "name": "ipfsCID",
              "type": "string",
              "internalType": "string"
            },
            {
              "name": "merkleRoot",
              "type": "bytes32",
              "internalType": "bytes32"
            },
            {
              "name": "token",
              "type": "address",
              "internalType": "contract IERC20"
            },
            {
              "name": "unlockPercentage",
              "type": "uint256",
              "internalType": "UD60x18"
            },
            {
              "name": "vestingEndTime",
              "type": "uint40",
              "internalType": "uint40"
            },
            {
              "name": "vestingStartTime",
              "type": "uint40",
              "internalType": "uint40"
            }
          ]
        }
      ],
      "outputs": [
        {
          "name": "merkleVCA",
          "type": "address",
          "internalType": "address"
        }
      ],
      "stateMutability": "view"
    },
    {
      "type": "function",
      "name": "createMerkleVCA",
      "inputs": [
        {
          "name": "params",
          "type": "tuple",
          "internalType": "struct MerkleVCA.ConstructorParams",
          "components": [
            {
              "name": "campaignName",
              "type": "string",
              "internalType": "string"
            },
            {
              "name": "campaignStartTime",
              "type": "uint40",
              "internalType": "uint40"
            },
            {
              "name": "expiration",
              "type": "uint40",
              "internalType": "uint40"
            },
            {
              "name": "initialAdmin",
              "type": "address",
              "internalType": "address"
            },
            {
              "name": "ipfsCID",
              "type": "string",
              "internalType": "string"
            },
            {
              "name": "merkleRoot",
              "type": "bytes32",
              "internalType": "bytes32"
            },
            {
              "name": "token",
              "type": "address",
              "internalType": "contract IERC20"
            },
            {
              "name": "unlockPercentage",
              "type": "uint256",
              "internalType": "UD60x18"
            },
            {
              "name": "vestingEndTime",
              "type": "uint40",
              "internalType": "uint40"
            },
            {
              "name": "vestingStartTime",
              "type": "uint40",
              "internalType": "uint40"
            }
          ]
        },
        {
          "name": "aggregateAmount",
          "type": "uint256",
          "internalType": "uint256"
        },
        {
          "name": "recipientCount",
          "type": "uint256",
          "internalType": "uint256"
        }
      ],
      "outputs": [
        {
          "name": "merkleVCA",
          "type": "address",
          "internalType": "contract ISablierMerkleVCA"
        }
      ],
      "stateMutability": "nonpayable"
    },
    {
      "type": "function",
      "name": "nativeToken",
      "inputs": [],
      "outputs": [
        {
          "name": "",
          "type": "address",
          "internalType": "address"
        }
      ],
      "stateMutability": "view"
    },
    {
      "type": "function",
      "name": "setComptroller",
      "inputs": [
        {
          "name": "newComptroller",
          "type": "address",
          "internalType": "contract ISablierComptroller"
        }
      ],
      "outputs": [],
      "stateMutability": "nonpayable"
    },
    {
      "type": "function",
      "name": "setNativeToken",
      "inputs": [
        {
          "name": "newNativeToken",
          "type": "address",
          "internalType": "address"
        }
      ],
      "outputs": [],
      "stateMutability": "nonpayable"
    },
    {
      "type": "function",
      "name": "transferFeesToComptroller",
      "inputs": [],
      "outputs": [],
      "stateMutability": "nonpayable"
    },
    {
      "type": "event",
      "name": "CreateMerkleVCA",
      "inputs": [
        {
          "name": "merkleVCA",
          "type": "address",
          "indexed": true,
          "internalType": "contract ISablierMerkleVCA"
        },
        {
          "name": "params",
          "type": "tuple",
          "indexed": false,
          "internalType": "struct MerkleVCA.ConstructorParams",
          "components": [
            {
              "name": "campaignName",
              "type": "string",
              "internalType": "string"
            },
            {
              "name": "campaignStartTime",
              "type": "uint40",
              "internalType": "uint40"
            },
            {
              "name": "expiration",
              "type": "uint40",
              "internalType": "uint40"
            },
            {
              "name": "initialAdmin",
              "type": "address",
              "internalType": "address"
            },
            {
              "name": "ipfsCID",
              "type": "string",
              "internalType": "string"
            },
            {
              "name": "merkleRoot",
              "type": "bytes32",
              "internalType": "bytes32"
            },
            {
              "name": "token",
              "type": "address",
              "internalType": "contract IERC20"
            },
            {
              "name": "unlockPercentage",
              "type": "uint256",
              "internalType": "UD60x18"
            },
            {
              "name": "vestingEndTime",
              "type": "uint40",
              "internalType": "uint40"
            },
            {
              "name": "vestingStartTime",
              "type": "uint40",
              "internalType": "uint40"
            }
          ]
        },
        {
          "name": "aggregateAmount",
          "type": "uint256",
          "indexed": false,
          "internalType": "uint256"
        },
        {
          "name": "recipientCount",
          "type": "uint256",
          "indexed": false,
          "internalType": "uint256"
        },
        {
          "name": "comptroller",
          "type": "address",
          "indexed": false,
          "internalType": "address"
        },
        {
          "name": "minFeeUSD",
          "type": "uint256",
          "indexed": false,
          "internalType": "uint256"
        }
      ],
      "anonymous": false
    },
    {
      "type": "event",
      "name": "SetComptroller",
      "inputs": [
        {
          "name": "oldComptroller",
          "type": "address",
          "indexed": false,
          "internalType": "contract ISablierComptroller"
        },
        {
          "name": "newComptroller",
          "type": "address",
          "indexed": false,
          "internalType": "contract ISablierComptroller"
        }
      ],
      "anonymous": false
    },
    {
      "type": "event",
      "name": "SetNativeToken",
      "inputs": [
        {
          "name": "comptroller",
          "type": "address",
          "indexed": true,
          "internalType": "address"
        },
        {
          "name": "nativeToken",
          "type": "address",
          "indexed": false,
          "internalType": "address"
        }
      ],
      "anonymous": false
    },
    {
      "type": "event",
      "name": "TransferFeesToComptroller",
      "inputs": [
        {
          "name": "comptroller",
          "type": "address",
          "indexed": true,
          "internalType": "contract ISablierComptroller"
        },
        {
          "name": "feeAmount",
          "type": "uint256",
          "indexed": false,
          "internalType": "uint256"
        }
      ],
      "anonymous": false
    },
    {
      "type": "error",
      "name": "Comptrollerable_CallerNotComptroller",
      "inputs": [
        {
          "name": "comptroller",
          "type": "address",
          "internalType": "address"
        },
        {
          "name": "caller",
          "type": "address",
          "internalType": "address"
        }
      ]
    },
    {
      "type": "error",
      "name": "Comptrollerable_UnsupportedInterfaceId",
      "inputs": [
        {
          "name": "previousComptroller",
          "type": "address",
          "internalType": "address"
        },
        {
          "name": "newComptroller",
          "type": "address",
          "internalType": "address"
        },
        {
          "name": "minimalInterfaceId",
          "type": "bytes4",
          "internalType": "bytes4"
        }
      ]
    },
    {
      "type": "error",
      "name": "SablierFactoryMerkleBase_ForbidNativeToken",
      "inputs": [
        {
          "name": "nativeToken",
          "type": "address",
          "internalType": "address"
        }
      ]
    },
    {
      "type": "error",
      "name": "SablierFactoryMerkleBase_NativeTokenAlreadySet",
      "inputs": [
        {
          "name": "nativeToken",
          "type": "address",
          "internalType": "address"
        }
      ]
    },
    {
      "type": "error",
      "name": "SablierFactoryMerkleBase_NativeTokenZeroAddress",
      "inputs": []
    },
    {
      "type": "error",
      "name": "SablierFactoryMerkleVCA_ExpirationTimeZero",
      "inputs": []
    },
    {
      "type": "error",
      "name": "SablierFactoryMerkleVCA_ExpirationTooEarly",
      "inputs": [
        {
          "name": "vestingEndTime",
          "type": "uint40",
          "internalType": "uint40"
        },
        {
          "name": "expiration",
          "type": "uint40",
          "internalType": "uint40"
        }
      ]
    },
    {
      "type": "error",
      "name": "SablierFactoryMerkleVCA_StartTimeZero",
      "inputs": []
    },
    {
      "type": "error",
      "name": "SablierFactoryMerkleVCA_UnlockPercentageTooHigh",
      "inputs": [
        {
          "name": "unlockPercentage",
          "type": "uint256",
          "internalType": "UD60x18"
        }
      ]
    },
    {
      "type": "error",
      "name": "SablierFactoryMerkleVCA_VestingEndTimeNotGreaterThanVestingStartTime",
      "inputs": [
        {
          "name": "vestingStartTime",
          "type": "uint40",
          "internalType": "uint40"
        },
        {
          "name": "vestingEndTime",
          "type": "uint40",
          "internalType": "uint40"
        }
      ]
    }
  ],
  "bytecode": {
    "object": "0x6080806040523461011a57602081613860803803809161001f8285610131565b83398101031261011a57516001600160a01b0381169081900361011a576040516301ffc9a760e01b8152630654439160e41b6004820152602081602481855afa908115610126575f916100e7575b50156100c6575f80546001600160a01b031916821781556040805191825260208201929092527ff45d882a72fce9d8d7a7e2e196a338d4d9d4057510b4b9ddf91a7066104d2eaf9190a16040516136f790816101698239f35b6364ca3de160e11b5f525f600452602452630654439160e41b60445260645ffd5b90506020813d60201161011e575b8161010260209383610131565b8101031261011a5751801515810361011a575f61006d565b5f80fd5b3d91506100f5565b6040513d5f823e3d90fd5b601f909101601f19168101906001600160401b0382119082101761015457604052565b634e487b7160e01b5f52604160045260245ffdfe60806040526004361015610011575f80fd5b5f3560e01c80631ecaa95b146108295780635fe3b567146107d95780636da1e102146106b557806378f82ce7146105c65780638bad38dd14610386578063e1758bd8146103355763e7cf121214610066575f80fd5b346102f15760607ffffffffffffffffffffffffffffffffffffffffffffffffffffffffffffffffc3601126102f15760043567ffffffffffffffff81116102f15780600401906101407ffffffffffffffffffffffffffffffffffffffffffffffffffffffffffffffffc82360301126102f1578073ffffffffffffffffffffffffffffffffffffffff6100fe60c461013294016109d4565b169061010d61012482016109f5565b61011a61010483016109f5565b9060e4610129604485016109f5565b93013593610c93565b73ffffffffffffffffffffffffffffffffffffffff5f5416604051602080820152610190816101646040820186610aa7565b037fffffffffffffffffffffffffffffffffffffffffffffffffffffffffffffffe08101835282610bab565b6040516101a7816101646020820194863387610c15565b51902090604051906128258083019183831067ffffffffffffffff8411176103085783926101dc92610e9d8539863391610c58565b03905ff580156102fd5773ffffffffffffffffffffffffffffffffffffffff1673ffffffffffffffffffffffffffffffffffffffff5f541691604051927f88dc31a80000000000000000000000000000000000000000000000000000000084525f6004850152336024850152602084604481845afa9384156102fd575f946102c3575b5061029e83927f526cb4961b63b809a86a9ebd8f50be477beced1609e0f8f83ee55be27f7f8d509260209660405193849360a0855260a0850190610aa7565b91602435898501526044356040850152606084015260808301520390a2604051908152f35b93506020843d6020116102f5575b816102de60209383610bab565b810103126102f15792519261029e61025f565b5f80fd5b3d91506102d1565b6040513d5f823e3d90fd5b7f4e487b71000000000000000000000000000000000000000000000000000000005f52604160045260245ffd5b346102f1575f7ffffffffffffffffffffffffffffffffffffffffffffffffffffffffffffffffc3601126102f157602073ffffffffffffffffffffffffffffffffffffffff60015416604051908152f35b346102f15760207ffffffffffffffffffffffffffffffffffffffffffffffffffffffffffffffffc3601126102f15760043573ffffffffffffffffffffffffffffffffffffffff81168091036102f1576103de610e4b565b5f549073ffffffffffffffffffffffffffffffffffffffff8216916040517fc34df33e000000000000000000000000000000000000000000000000000000008152602081600481875afa9081156102fd575f9161056b575b507fffffffff00000000000000000000000000000000000000000000000000000000604051917f01ffc9a70000000000000000000000000000000000000000000000000000000083521690816004820152602081602481875afa9081156102fd575f91610530575b50156104fd577ff45d882a72fce9d8d7a7e2e196a338d4d9d4057510b4b9ddf91a7066104d2eaf60408585807fffffffffffffffffffffffff00000000000000000000000000000000000000008716175f5582519182526020820152a1005b82847fc9947bc2000000000000000000000000000000000000000000000000000000005f5260045260245260445260645ffd5b90506020813d602011610563575b8161054b60209383610bab565b810103126102f1575180151581036102f1578561049e565b3d915061053e565b90506020813d6020116105be575b8161058660209383610bab565b810103126102f157517fffffffff00000000000000000000000000000000000000000000000000000000811681036102f15784610436565b3d9150610579565b346102f1575f7ffffffffffffffffffffffffffffffffffffffffffffffffffffffffffffffffc3601126102f157475f8080808473ffffffffffffffffffffffffffffffffffffffff8254165af1503d156106b0573d67ffffffffffffffff8111610308576040519061066160207fffffffffffffffffffffffffffffffffffffffffffffffffffffffffffffffe0601f8401160183610bab565b81525f60203d92013e5b7f56dedb874d4fc0f70753f281fa2c25e82085163206086fe826cf834b51701f6c602073ffffffffffffffffffffffffffffffffffffffff5f541692604051908152a2005b61066b565b346102f15760207ffffffffffffffffffffffffffffffffffffffffffffffffffffffffffffffffc3601126102f15773ffffffffffffffffffffffffffffffffffffffff6107016109b1565b610709610e4b565b1680156107b15760015473ffffffffffffffffffffffffffffffffffffffff81168061078657507fffffffffffffffffffffffff0000000000000000000000000000000000000000829116176001556040519081527f7b0a5ae0a2e8f0dc2ec7555098e00dd4af1418ee3fd1bcf9bb14f6990c10fa9260203392a2005b7f6d9f7c38000000000000000000000000000000000000000000000000000000005f5260045260245ffd5b7f2f70e6c7000000000000000000000000000000000000000000000000000000005f5260045ffd5b346102f1575f7ffffffffffffffffffffffffffffffffffffffffffffffffffffffffffffffffc3601126102f157602073ffffffffffffffffffffffffffffffffffffffff5f5416604051908152f35b346102f15760407ffffffffffffffffffffffffffffffffffffffffffffffffffffffffffffffffc3601126102f1576108606109b1565b60243567ffffffffffffffff81116102f157806004016101407ffffffffffffffffffffffffffffffffffffffffffffffffffffffffffffffffc83360301126102f1576020926108cc8373ffffffffffffffffffffffffffffffffffffffff6100fe60c48297016109d4565b610164610955845f54169261093c60405188808201526108f381610164604082018a610aa7565b604051610909816101648c8201948a8887610c15565b5190209561016461282596604051976109248c82018a610bab565b808952610e9d8c8a01396040519485938c8501610c58565b60405192839161094f8984018097610bec565b90610bec565b51902060405190848201927fff0000000000000000000000000000000000000000000000000000000000000084523060601b602184015260358301526055820152605581526109a5607582610bab565b51902016604051908152f35b6004359073ffffffffffffffffffffffffffffffffffffffff821682036102f157565b3573ffffffffffffffffffffffffffffffffffffffff811681036102f15790565b3564ffffffffff811681036102f15790565b90357fffffffffffffffffffffffffffffffffffffffffffffffffffffffffffffffe1823603018112156102f157016020813591019167ffffffffffffffff82116102f15781360383136102f157565b601f82602094937fffffffffffffffffffffffffffffffffffffffffffffffffffffffffffffffe093818652868601375f8582860101520116010190565b359064ffffffffff821682036102f157565b90610ac5610ab58380610a07565b6101408452610140840191610a57565b64ffffffffff610ad760208501610a95565b16602083015264ffffffffff610aef60408501610a95565b16604083015260608301359073ffffffffffffffffffffffffffffffffffffffff82168092036102f157610b3d916060840152610b2f6080850185610a07565b908483036080860152610a57565b9160a081013560a083015260c081013573ffffffffffffffffffffffffffffffffffffffff81168091036102f157610ba4610120809364ffffffffff9360c087015260e081013560e087015283610b976101008301610a95565b1661010087015201610a95565b1691015290565b90601f7fffffffffffffffffffffffffffffffffffffffffffffffffffffffffffffffe0910116810190811067ffffffffffffffff82111761030857604052565b908151915f5b838110610c02575050015f815290565b8060208092840101518185015201610bf2565b7fffffffffffffffffffffffffffffffffffffffff000000000000000000000000610c5594938160289460601b16835260601b1660148201520190610bec565b90565b91939273ffffffffffffffffffffffffffffffffffffffff9081610c86604094606087526060870190610aa7565b9616602085015216910152565b92919273ffffffffffffffffffffffffffffffffffffffff80600154169116908114610e20575064ffffffffff16918215610df85764ffffffffff169180831115610dc8575064ffffffffff16908115610da05762093a80810164ffffffffff8111610d735764ffffffffff168210610d45575050670de0b6b3a76400008111610d1a5750565b7f9a53f2ad000000000000000000000000000000000000000000000000000000005f5260045260245ffd5b7f10d4ab61000000000000000000000000000000000000000000000000000000005f5260045260245260445ffd5b7f4e487b71000000000000000000000000000000000000000000000000000000005f52601160045260245ffd5b7f2da40fae000000000000000000000000000000000000000000000000000000005f5260045ffd5b90507f8dfe12f3000000000000000000000000000000000000000000000000000000005f5260045260245260445ffd5b7fdf677890000000000000000000000000000000000000000000000000000000005f5260045ffd5b7fb1c99895000000000000000000000000000000000000000000000000000000005f5260045260245ffd5b73ffffffffffffffffffffffffffffffffffffffff5f5416803303610e6d5750565b7fa7e1519e000000000000000000000000000000000000000000000000000000005f526004523360245260445ffdfe6101c0806040523461046557612825803803809161001d8285610676565b833981016060828203126104655781516001600160401b03811161046557820161014081830312610465576040519261014084016001600160401b038111858210176105795760405281516001600160401b0381116104655783610082918401610699565b845261009060208301610706565b92602085019384526100a460408401610706565b93604086019485526100b860608501610718565b60608701908152608085015190926001600160401b038211610465576100df918601610699565b6080870181905260a08581015190880181905260c086015191936001600160a01b038316928381036104655760c08a015260e08701519860e08101998a5261013f6101206101306101008b01610706565b9961010084019a8b5201610706565b986101208201998a5264ffffffffff80610167604061016060208d01610718565b9b01610718565b93519751169151169260018060a01b039051168060018060a01b03195f5416175f55604051905f7fbdd36143ee09de60bdefca70680e0f71189b2ed7acee364b53917ad433fdaf808180a34660805260208101907f8cad95687ba82c2ce50e74f7b754645e5117c3a5bec8151c0726d5857980a86682527f13cd784591b49af6fc220be53013eaddf1dc15399ca43850d206ea319aca082160408201524660608201523060808201526080815261021f60a082610676565b51902060a05260c05260e0526101005261012052610140528051906001600160401b0382116105795760015490600182811c9216801561066c575b602083101461055b5781601f8493116105fe575b50602090601f8311600114610598575f9261058d575b50508160011b915f199060031b1c1916176001555b8051906001600160401b0382116105795760035490600182811c9216801561056f575b602083101461055b5781601f8493116104ed575b50602090601f8311600114610487575f9261047c575b50508160011b915f199060031b1c1916176003555b60e05160405163111b863560e31b81525f60048201526001600160a01b0392831660248201529160209183916044918391165afa908115610471575f91610434575b509064ffffffffff938492600455516101605251166101805251166101a0526040516120f8908161072d823960805181611d21015260a05181611d47015260c0518181816106610152611653015260e0518181816104980152818161084601528181610ad801526116890152610100518181816103ac0152818161102a0152818161153101526119fd01526101205181818161089f015261183201526101405181818161060201528181610dca01528181610f8f015261120f01526101605181818161034e0152611acc01526101805181818161040b0152611a9001526101a05181818161027e0152818161079d0152611a570152f35b9190506020823d602011610469575b8161045060209383610676565b8101031261046557905164ffffffffff61033d565b5f80fd5b3d9150610443565b6040513d5f823e3d90fd5b015190505f806102e6565b60035f9081528281209350601f198516905b8181106104d557509084600195949392106104bd575b505050811b016003556102fb565b01515f1960f88460031b161c191690555f80806104af565b92936020600181928786015181550195019301610499565b60035f529091507fc2575a0e9e593c00f959f8c92f12db2869c3395a3b0502d05e2516446f71f85b601f840160051c81019160208510610551575b90601f859493920160051c01905b81811061054357506102d0565b5f8155849350600101610536565b9091508190610528565b634e487b7160e01b5f52602260045260245ffd5b91607f16916102bc565b634e487b7160e01b5f52604160045260245ffd5b015190505f80610284565b60015f9081528281209350601f198516905b8181106105e657509084600195949392106105ce575b505050811b01600155610299565b01515f1960f88460031b161c191690555f80806105c0565b929360206001819287860151815501950193016105aa565b60015f529091507fb10e2d527612073b26eecdfd717e6a320cf44b4afac2b0732d9fcbe2b7fa0cf6601f840160051c81019160208510610662575b90601f859493920160051c01905b818110610654575061026e565b5f8155849350600101610647565b9091508190610639565b91607f169161025a565b601f909101601f19168101906001600160401b0382119082101761057957604052565b81601f82011215610465578051906001600160401b03821161057957604051926106cd601f8401601f191660200185610676565b82845260208383010111610465575f5b8281106106f157505060205f918301015290565b806020809284010151828287010152016106dd565b519064ffffffffff8216820361046557565b51906001600160a01b03821682036104655756fe60806040526004361015610011575f80fd5b5f3560e01c80630724fda9146112db5780630854a79c14611112578063106a0fee146110b25780631686c90914610f0d5780632074358314610b505780633a12a5bc14610a5e57806349fc73dd146108fd5780634e0bb8cc146108c257806351e75e8b1461086a5780635f82c67e146107fc5780635faaa89a146107c15780636c0b1e8c146107625780637423649b1461072957806375829def146106855780637ca3944d1461062657806382bfefc8146105b857806382d72f7f146105765780638ec688691461046757806390e64d131461042f578063ae1a43a5146103d0578063bb4b573414610371578063be2ccd2b14610319578063caece53814610229578063ce516507146101cb578063f698da251461018b5763f851a44014610137575f80fd5b34610187575f7ffffffffffffffffffffffffffffffffffffffffffffffffffffffffffffffffc36011261018757602073ffffffffffffffffffffffffffffffffffffffff5f5416604051908152f35b5f80fd5b34610187575f7ffffffffffffffffffffffffffffffffffffffffffffffffffffffffffffffffc3601126101875760206101c3611d1e565b604051908152f35b346101875760207ffffffffffffffffffffffffffffffffffffffffffffffffffffffffffffffffc36011261018757602061021f60043560ff6001918060081c5f526005602052161b60405f205416151590565b6040519015158152f35b346101875760407ffffffffffffffffffffffffffffffffffffffffffffffffffffffffffffffffc360112610187576102606114c5565b610268611515565b64ffffffffff81161561030b575b64ffffffffff7f00000000000000000000000000000000000000000000000000000000000000001664ffffffffff82168181106102dd5760206102c3856102bd8682611a54565b90611566565b6fffffffffffffffffffffffffffffffff60405191168152f35b7f44cbf014000000000000000000000000000000000000000000000000000000005f5260045260245260445ffd5b5064ffffffffff4216610276565b34610187575f7ffffffffffffffffffffffffffffffffffffffffffffffffffffffffffffffffc3601126101875760206040517f00000000000000000000000000000000000000000000000000000000000000008152f35b34610187575f7ffffffffffffffffffffffffffffffffffffffffffffffffffffffffffffffffc36011261018757602060405164ffffffffff7f0000000000000000000000000000000000000000000000000000000000000000168152f35b34610187575f7ffffffffffffffffffffffffffffffffffffffffffffffffffffffffffffffffc36011261018757602060405164ffffffffff7f0000000000000000000000000000000000000000000000000000000000000000168152f35b34610187575f7ffffffffffffffffffffffffffffffffffffffffffffffffffffffffffffffffc36011261018757602061021f611529565b346101875760207ffffffffffffffffffffffffffffffffffffffffffffffffffffffffffffffffc360112610187577f000000000000000000000000000000000000000000000000000000000000000073ffffffffffffffffffffffffffffffffffffffff16600435338203610546576004548082101561051857816040917fcafa56d109bc30839f1bad76f9d17abcbd6c936490d4ec0fbc6d331bf89f92af9360045582519182526020820152a2005b7f173c9c82000000000000000000000000000000000000000000000000000000005f5260045260245260445ffd5b507fead08252000000000000000000000000000000000000000000000000000000005f526004523360245260445ffd5b34610187575f7ffffffffffffffffffffffffffffffffffffffffffffffffffffffffffffffffc36011261018757602064ffffffffff60025416604051908152f35b34610187575f7ffffffffffffffffffffffffffffffffffffffffffffffffffffffffffffffffc36011261018757602060405173ffffffffffffffffffffffffffffffffffffffff7f0000000000000000000000000000000000000000000000000000000000000000168152f35b34610187575f7ffffffffffffffffffffffffffffffffffffffffffffffffffffffffffffffffc36011261018757602060405164ffffffffff7f0000000000000000000000000000000000000000000000000000000000000000168152f35b346101875760207ffffffffffffffffffffffffffffffffffffffffffffffffffffffffffffffffc3601126101875773ffffffffffffffffffffffffffffffffffffffff6106d16114a2565b6106d9611bee565b16807fffffffffffffffffffffffff00000000000000000000000000000000000000005f5416175f55337fbdd36143ee09de60bdefca70680e0f71189b2ed7acee364b53917ad433fdaf805f80a3005b34610187575f7ffffffffffffffffffffffffffffffffffffffffffffffffffffffffffffffffc36011261018757602060405160018152f35b34610187575f7ffffffffffffffffffffffffffffffffffffffffffffffffffffffffffffffffc36011261018757602060405164ffffffffff7f0000000000000000000000000000000000000000000000000000000000000000168152f35b34610187575f7ffffffffffffffffffffffffffffffffffffffffffffffffffffffffffffffffc360112610187576020600654604051908152f35b34610187575f7ffffffffffffffffffffffffffffffffffffffffffffffffffffffffffffffffc36011261018757602060405173ffffffffffffffffffffffffffffffffffffffff7f0000000000000000000000000000000000000000000000000000000000000000168152f35b34610187575f7ffffffffffffffffffffffffffffffffffffffffffffffffffffffffffffffffc3601126101875760206040517f00000000000000000000000000000000000000000000000000000000000000008152f35b34610187575f7ffffffffffffffffffffffffffffffffffffffffffffffffffffffffffffffffc360112610187576020600454604051908152f35b34610187575f7ffffffffffffffffffffffffffffffffffffffffffffffffffffffffffffffffc360112610187576040515f6003548060011c90600181168015610a54575b602083108114610a27578285529081156109e55750600114610987575b6109838361096f818503826113b4565b604051918291602083526020830190611422565b0390f35b60035f9081527fc2575a0e9e593c00f959f8c92f12db2869c3395a3b0502d05e2516446f71f85b939250905b8082106109cb5750909150810160200161096f61095f565b9192600181602092548385880101520191019092916109b3565b7fffffffffffffffffffffffffffffffffffffffffffffffffffffffffffffff001660208086019190915291151560051b8401909101915061096f905061095f565b7f4e487b71000000000000000000000000000000000000000000000000000000005f52602260045260245ffd5b91607f1691610942565b34610187575f7ffffffffffffffffffffffffffffffffffffffffffffffffffffffffffffffffc36011261018757600454604051907fb0fa59e8000000000000000000000000000000000000000000000000000000008252600482015260208160248173ffffffffffffffffffffffffffffffffffffffff7f0000000000000000000000000000000000000000000000000000000000000000165afa8015610b45575f90610b12575b602090604051908152f35b506020813d602011610b3d575b81610b2c602093836113b4565b810103126101875760209051610b07565b3d9150610b1f565b6040513d5f823e3d90fd5b60e07ffffffffffffffffffffffffffffffffffffffffffffffffffffffffffffffffc36011261018757600435610b8561147f565b906044359073ffffffffffffffffffffffffffffffffffffffff821691828103610187576064356fffffffffffffffffffffffffffffffff8116908181036101875760843564ffffffffff81168091036101875760a43567ffffffffffffffff811161018757610bf99036906004016114e4565b9060c4359867ffffffffffffffff8a11610187573660238b01121561018757896004013567ffffffffffffffff811161018757366024828d01011161018757610c4188611598565b6040519a60208c018a8d7fb0f12a3a6931229a836eaab08aeb1ebe2ddebad3bfd83f30d39f6c4a3b0f4f8183526040015273ffffffffffffffffffffffffffffffffffffffff84169c8d60608201528c60808201528960a08201528760c082015260c08152610cb160e0826113b4565b519020610cbc611d1e565b90604051917f1901000000000000000000000000000000000000000000000000000000000000835260028301526022820152604290209180610cfd816115dd565b9260405193610d0c90856113b4565b818452602401602084013781016020015f9052610d299183611ddb565b15610ee55764ffffffffff421693848111610eb5575091610d509185610d5695948a611646565b82611a54565b906fffffffffffffffffffffffffffffffff8216928315610e89575f9080851015610e0e5750509282610dee7f7329b93011fef25a837e2ee061e6b301fe7b9dbcc042ab8914bd67cf52f38fa897946fffffffffffffffffffffffffffffffff809560a0999803169384600654016006555b7f0000000000000000000000000000000000000000000000000000000000000000611c3f565b6040519485526020850152166040830152606082015260016080820152a2005b91509592809594925003610e5c577f7329b93011fef25a837e2ee061e6b301fe7b9dbcc042ab8914bd67cf52f38fa89484610dee60a0966fffffffffffffffffffffffffffffffff94610dc8565b7f4e487b71000000000000000000000000000000000000000000000000000000005f52600160045260245ffd5b877f94dee01d000000000000000000000000000000000000000000000000000000005f5260045260245ffd5b84907f875f3291000000000000000000000000000000000000000000000000000000005f5260045260245260445ffd5b7f9a943b04000000000000000000000000000000000000000000000000000000005f5260045ffd5b346101875760407ffffffffffffffffffffffffffffffffffffffffffffffffffffffffffffffffc36011261018757610f446114a2565b602435906fffffffffffffffffffffffffffffffff821680920361018757610f6a611bee565b64ffffffffff6002541680151580611064575b80611055575b610ffb5750610fb382827f0000000000000000000000000000000000000000000000000000000000000000611c3f565b7f2e9d425ba8b27655048400b366d7b6a1f7180ebdb088e06bb7389704860ffe1f602073ffffffffffffffffffffffffffffffffffffffff805f5416936040519586521693a3005b7fe2e40a0c000000000000000000000000000000000000000000000000000000005f524260045264ffffffffff7f00000000000000000000000000000000000000000000000000000000000000001660245260445260645ffd5b5061105e611529565b15610f83565b5062093a80810164ffffffffff81116110855764ffffffffff164211610f7d565b7f4e487b71000000000000000000000000000000000000000000000000000000005f52601160045260245ffd5b346101875760407ffffffffffffffffffffffffffffffffffffffffffffffffffffffffffffffffc3601126101875760206102c36110ee6114c5565b6110f6611515565b9064ffffffffff8216611a54574264ffffffffff169150611a54565b60807ffffffffffffffffffffffffffffffffffffffffffffffffffffffffffffffffc3601126101875760043561114761147f565b604435906fffffffffffffffffffffffffffffffff82168083036101875760643567ffffffffffffffff81116101875761118861119a9136906004016114e4565b9061119285611598565b853388611646565b6111ab64ffffffffff421684611a54565b926fffffffffffffffffffffffffffffffff84169182156112af575f9080841015611278575050906fffffffffffffffffffffffffffffffff73ffffffffffffffffffffffffffffffffffffffff94819303169081600654016006555b61123381857f0000000000000000000000000000000000000000000000000000000000000000611c3f565b60405195865260208601521660408401521660608201525f60808201527f7329b93011fef25a837e2ee061e6b301fe7b9dbcc042ab8914bd67cf52f38fa860a03392a2005b915093508103610e5c5773ffffffffffffffffffffffffffffffffffffffff926fffffffffffffffffffffffffffffffff91611208565b7f94dee01d000000000000000000000000000000000000000000000000000000005f523360045260245ffd5b34610187575f7ffffffffffffffffffffffffffffffffffffffffffffffffffffffffffffffffc360112610187576040515f6001548060011c906001811680156113aa575b602083108114610a27578285529081156109e5575060011461134c576109838361096f818503826113b4565b60015f9081527fb10e2d527612073b26eecdfd717e6a320cf44b4afac2b0732d9fcbe2b7fa0cf6939250905b8082106113905750909150810160200161096f61095f565b919260018160209254838588010152019101909291611378565b91607f1691611320565b90601f7fffffffffffffffffffffffffffffffffffffffffffffffffffffffffffffffe0910116810190811067ffffffffffffffff8211176113f557604052565b7f4e487b71000000000000000000000000000000000000000000000000000000005f52604160045260245ffd5b91908251928382525f5b84811061146a5750507fffffffffffffffffffffffffffffffffffffffffffffffffffffffffffffffe0601f845f6020809697860101520116010190565b8060208092840101518282860101520161142c565b6024359073ffffffffffffffffffffffffffffffffffffffff8216820361018757565b6004359073ffffffffffffffffffffffffffffffffffffffff8216820361018757565b600435906fffffffffffffffffffffffffffffffff8216820361018757565b9181601f840112156101875782359167ffffffffffffffff8311610187576020808501948460051b01011161018757565b6024359064ffffffffff8216820361018757565b64ffffffffff7f000000000000000000000000000000000000000000000000000000000000000016801515908161155e575090565b905042101590565b906fffffffffffffffffffffffffffffffff809116911603906fffffffffffffffffffffffffffffffff821161108557565b73ffffffffffffffffffffffffffffffffffffffff16156115b557565b7f036fcd52000000000000000000000000000000000000000000000000000000005f5260045ffd5b67ffffffffffffffff81116113f557601f017fffffffffffffffffffffffffffffffffffffffffffffffffffffffffffffffe01660200190565b3d15611641573d90611628826115dd565b9161163660405193846113b4565b82523d5f602084013e565b606090565b939491909264ffffffffff7f000000000000000000000000000000000000000000000000000000000000000016428111611a255750611683611529565b6119ce577f00000000000000000000000000000000000000000000000000000000000000009373ffffffffffffffffffffffffffffffffffffffff851692600454604051907fb0fa59e80000000000000000000000000000000000000000000000000000000082526004820152602081602481885afa908115610b45575f9161199c575b5080341061196d57506117318760ff6001918060081c5f526005602052161b60405f205416151590565b611941576fffffffffffffffffffffffffffffffff6040519173ffffffffffffffffffffffffffffffffffffffff60208401948a8652166040840152166060820152606081526117826080826113b4565b519020604051602081019182526020815261179e6040826113b4565b5190209067ffffffffffffffff87116113f5578660051b604051976117c6602083018a6113b4565b8852602088019082019136831161018757905b82821061193157505050925f935b86518510156118295760208560051b88010151908181105f14611818575f52602052600160405f205b9401936117e7565b905f52602052600160405f20611810565b919492955092507f0000000000000000000000000000000000000000000000000000000000000000036119095760025464ffffffffff8116156118d5575b508060081c5f526005602052600160ff60405f2092161b81541790553461188c575050565b5f8080809334905af161189d611617565b50156118a65750565b7fe57d366c000000000000000000000000000000000000000000000000000000005f526004523460245260445ffd5b7fffffffffffffffffffffffffffffffffffffffffffffffffffffff0000000000164264ffffffffff16176002555f611867565b7fb4f06787000000000000000000000000000000000000000000000000000000005f5260045ffd5b81358152602091820191016117d9565b867f02bf1aba000000000000000000000000000000000000000000000000000000005f5260045260245ffd5b7fa164c6b4000000000000000000000000000000000000000000000000000000005f523460045260245260445ffd5b90506020813d6020116119c6575b816119b7602093836113b4565b8101031261018757515f611707565b3d91506119aa565b7fdf4bae05000000000000000000000000000000000000000000000000000000005f524260045264ffffffffff7f00000000000000000000000000000000000000000000000000000000000000001660245260445ffd5b7f14659648000000000000000000000000000000000000000000000000000000005f524260045260245260445ffd5b907f00000000000000000000000000000000000000000000000000000000000000009064ffffffffff81169064ffffffffff83168210611be6577f00000000000000000000000000000000000000000000000000000000000000009164ffffffffff831611611ac35750505090565b611b03939192937f00000000000000000000000000000000000000000000000000000000000000006fffffffffffffffffffffffffffffffff8416611f2c565b6fffffffffffffffffffffffffffffffff8111611bbb576fffffffffffffffffffffffffffffffff9164ffffffffff868185611b489516988994031696031693611566565b16828102928184041490151715611085578015611b8e576fffffffffffffffffffffffffffffffff910416016fffffffffffffffffffffffffffffffff81116110855790565b7f4e487b71000000000000000000000000000000000000000000000000000000005f52601260045260245ffd5b7f4916adce000000000000000000000000000000000000000000000000000000005f5260045260245ffd5b505050505f90565b73ffffffffffffffffffffffffffffffffffffffff5f5416338103611c105750565b7fc6cce6a4000000000000000000000000000000000000000000000000000000005f526004523360245260445ffd5b916020915f916040519073ffffffffffffffffffffffffffffffffffffffff858301937fa9059cbb000000000000000000000000000000000000000000000000000000008552166024830152604482015260448152611c9f6064826113b4565b519082855af115610b45575f513d611d15575073ffffffffffffffffffffffffffffffffffffffff81163b155b611cd35750565b73ffffffffffffffffffffffffffffffffffffffff907f5274afe7000000000000000000000000000000000000000000000000000000005f521660045260245ffd5b60011415611ccc565b467f000000000000000000000000000000000000000000000000000000000000000003611d69577f000000000000000000000000000000000000000000000000000000000000000090565b60405160208101907f8cad95687ba82c2ce50e74f7b754645e5117c3a5bec8151c0726d5857980a86682527f13cd784591b49af6fc220be53013eaddf1dc15399ca43850d206ea319aca0821604082015246606082015230608082015260808152611dd560a0826113b4565b51902090565b9190823b611e505790611ded91611ff9565b506004811015611e2357159182611e0357505090565b73ffffffffffffffffffffffffffffffffffffffff919250811691161490565b7f4e487b71000000000000000000000000000000000000000000000000000000005f52602160045260245ffd5b915f92611e9f611ecb859460405192839160208301957f1626ba7e0000000000000000000000000000000000000000000000000000000087526024840152604060448401526064830190611422565b037fffffffffffffffffffffffffffffffffffffffffffffffffffffffffffffffe081018352826113b4565b51915afa611ed7611617565b81611f1e575b81611ee6575090565b905060208180518101031261018757602001517f1626ba7e000000000000000000000000000000000000000000000000000000001490565b905060208151101590611edd565b9190917fffffffffffffffffffffffffffffffffffffffffffffffffffffffffffffffff83820983820291828083109203918083039214611fe857670de0b6b3a7640000821015611fb8577faccb18165bd6fe31ae1cf318dc5b51eee0e1ba569b88cd74c1773b91fac106699394670de0b6b3a7640000910990828211900360ee1b910360121c170290565b84907f5173648d000000000000000000000000000000000000000000000000000000005f5260045260245260445ffd5b5050670de0b6b3a764000090049150565b8151919060418303612029576120229250602082015190606060408401519301515f1a90612033565b9192909190565b50505f9160029190565b91907f7fffffffffffffffffffffffffffffff5d576e7357a4501ddfe92f46681b20a084116120b7579160209360809260ff5f9560405194855216868401526040830152606082015282805260015afa15610b45575f5173ffffffffffffffffffffffffffffffffffffffff8116156120ad57905f905f90565b505f906001905f90565b5050505f916003919056fea2646970667358221220db29eb595ea538da2bc2edd1a206ade06f58f265600c642742f5fb0f3ab5145764736f6c634300081d0033a26469706673582212207dd269f9a73916176faa2001d19e0a1ea19819ef2613b86d586ae69254d7c09264736f6c634300081d0033",
    "linkReferences": {}
  },
  "methodIdentifiers": {
    "comptroller()": "5fe3b567",
    "computeMerkleVCA(address,(string,uint40,uint40,address,string,bytes32,address,uint256,uint40,uint40))": "1ecaa95b",
    "createMerkleVCA((string,uint40,uint40,address,string,bytes32,address,uint256,uint40,uint40),uint256,uint256)": "e7cf1212",
    "nativeToken()": "e1758bd8",
    "setComptroller(address)": "8bad38dd",
    "setNativeToken(address)": "6da1e102",
    "transferFeesToComptroller()": "78f82ce7"
  },
  "id": 96
}