{
  "abi": [
    {
      "type": "constructor",
      "inputs": [
        {
          "name": "initialComptroller",
          "type": "address",
          "internalType": "address"
        }
      ],
      "stateMutability": "nonpayable"
    },
    {
      "type": "function",
      "name": "comptroller",
      "inputs": [],
      "outputs": [
        {
          "name": "",
          "type": "address",
          "internalType": "contract ISablierComptroller"
        }
      ],
      "stateMutability": "view"
    },
    {
      "type": "function",
      "name": "computeMerkleInstant",
      "inputs": [
        {
          "name": "campaignCreator",
          "type": "address",
          "internalType": "address"
        },
        {
          "name": "params",
          "type": "tuple",
          "internalType": "struct MerkleInstant.ConstructorParams",
          "components": [
            {
              "name": "campaignName",
              "type": "string",
              "internalType": "string"
            },
            {
              "name": "campaignStartTime",
              "type": "uint40",
              "internalType": "uint40"
            },
            {
              "name": "expiration",
              "type": "uint40",
              "internalType": "uint40"
            },
            {
              "name": "initialAdmin",
              "type": "address",
              "internalType": "address"
            },
            {
              "name": "ipfsCID",
              "type": "string",
              "internalType": "string"
            },
            {
              "name": "merkleRoot",
              "type": "bytes32",
              "internalType": "bytes32"
            },
            {
              "name": "token",
              "type": "address",
              "internalType": "contract IERC20"
            }
          ]
        }
      ],
      "outputs": [
        {
          "name": "merkleInstant",
          "type": "address",
          "internalType": "address"
        }
      ],
      "stateMutability": "view"
    },
    {
      "type": "function",
      "name": "createMerkleInstant",
      "inputs": [
        {
          "name": "params",
          "type": "tuple",
          "internalType": "struct MerkleInstant.ConstructorParams",
          "components": [
            {
              "name": "campaignName",
              "type": "string",
              "internalType": "string"
            },
            {
              "name": "campaignStartTime",
              "type": "uint40",
              "internalType": "uint40"
            },
            {
              "name": "expiration",
              "type": "uint40",
              "internalType": "uint40"
            },
            {
              "name": "initialAdmin",
              "type": "address",
              "internalType": "address"
            },
            {
              "name": "ipfsCID",
              "type": "string",
              "internalType": "string"
            },
            {
              "name": "merkleRoot",
              "type": "bytes32",
              "internalType": "bytes32"
            },
            {
              "name": "token",
              "type": "address",
              "internalType": "contract IERC20"
            }
          ]
        },
        {
          "name": "aggregateAmount",
          "type": "uint256",
          "internalType": "uint256"
        },
        {
          "name": "recipientCount",
          "type": "uint256",
          "internalType": "uint256"
        }
      ],
      "outputs": [
        {
          "name": "merkleInstant",
          "type": "address",
          "internalType": "contract ISablierMerkleInstant"
        }
      ],
      "stateMutability": "nonpayable"
    },
    {
      "type": "function",
      "name": "nativeToken",
      "inputs": [],
      "outputs": [
        {
          "name": "",
          "type": "address",
          "internalType": "address"
        }
      ],
      "stateMutability": "view"
    },
    {
      "type": "function",
      "name": "setComptroller",
      "inputs": [
        {
          "name": "newComptroller",
          "type": "address",
          "internalType": "contract ISablierComptroller"
        }
      ],
      "outputs": [],
      "stateMutability": "nonpayable"
    },
    {
      "type": "function",
      "name": "setNativeToken",
      "inputs": [
        {
          "name": "newNativeToken",
          "type": "address",
          "internalType": "address"
        }
      ],
      "outputs": [],
      "stateMutability": "nonpayable"
    },
    {
      "type": "function",
      "name": "transferFeesToComptroller",
      "inputs": [],
      "outputs": [],
      "stateMutability": "nonpayable"
    },
    {
      "type": "event",
      "name": "CreateMerkleInstant",
      "inputs": [
        {
          "name": "merkleInstant",
          "type": "address",
          "indexed": true,
          "internalType": "contract ISablierMerkleInstant"
        },
        {
          "name": "params",
          "type": "tuple",
          "indexed": false,
          "internalType": "struct MerkleInstant.ConstructorParams",
          "components": [
            {
              "name": "campaignName",
              "type": "string",
              "internalType": "string"
            },
            {
              "name": "campaignStartTime",
              "type": "uint40",
              "internalType": "uint40"
            },
            {
              "name": "expiration",
              "type": "uint40",
              "internalType": "uint40"
            },
            {
              "name": "initialAdmin",
              "type": "address",
              "internalType": "address"
            },
            {
              "name": "ipfsCID",
              "type": "string",
              "internalType": "string"
            },
            {
              "name": "merkleRoot",
              "type": "bytes32",
              "internalType": "bytes32"
            },
            {
              "name": "token",
              "type": "address",
              "internalType": "contract IERC20"
            }
          ]
        },
        {
          "name": "aggregateAmount",
          "type": "uint256",
          "indexed": false,
          "internalType": "uint256"
        },
        {
          "name": "recipientCount",
          "type": "uint256",
          "indexed": false,
          "internalType": "uint256"
        },
        {
          "name": "comptroller",
          "type": "address",
          "indexed": false,
          "internalType": "address"
        },
        {
          "name": "minFeeUSD",
          "type": "uint256",
          "indexed": false,
          "internalType": "uint256"
        }
      ],
      "anonymous": false
    },
    {
      "type": "event",
      "name": "SetComptroller",
      "inputs": [
        {
          "name": "oldComptroller",
          "type": "address",
          "indexed": false,
          "internalType": "contract ISablierComptroller"
        },
        {
          "name": "newComptroller",
          "type": "address",
          "indexed": false,
          "internalType": "contract ISablierComptroller"
        }
      ],
      "anonymous": false
    },
    {
      "type": "event",
      "name": "SetNativeToken",
      "inputs": [
        {
          "name": "comptroller",
          "type": "address",
          "indexed": true,
          "internalType": "address"
        },
        {
          "name": "nativeToken",
          "type": "address",
          "indexed": false,
          "internalType": "address"
        }
      ],
      "anonymous": false
    },
    {
      "type": "event",
      "name": "TransferFeesToComptroller",
      "inputs": [
        {
          "name": "comptroller",
          "type": "address",
          "indexed": true,
          "internalType": "contract ISablierComptroller"
        },
        {
          "name": "feeAmount",
          "type": "uint256",
          "indexed": false,
          "internalType": "uint256"
        }
      ],
      "anonymous": false
    },
    {
      "type": "error",
      "name": "Comptrollerable_CallerNotComptroller",
      "inputs": [
        {
          "name": "comptroller",
          "type": "address",
          "internalType": "address"
        },
        {
          "name": "caller",
          "type": "address",
          "internalType": "address"
        }
      ]
    },
    {
      "type": "error",
      "name": "Comptrollerable_UnsupportedInterfaceId",
      "inputs": [
        {
          "name": "previousComptroller",
          "type": "address",
          "internalType": "address"
        },
        {
          "name": "newComptroller",
          "type": "address",
          "internalType": "address"
        },
        {
          "name": "minimalInterfaceId",
          "type": "bytes4",
          "internalType": "bytes4"
        }
      ]
    },
    {
      "type": "error",
      "name": "SablierFactoryMerkleBase_ForbidNativeToken",
      "inputs": [
        {
          "name": "nativeToken",
          "type": "address",
          "internalType": "address"
        }
      ]
    },
    {
      "type": "error",
      "name": "SablierFactoryMerkleBase_NativeTokenAlreadySet",
      "inputs": [
        {
          "name": "nativeToken",
          "type": "address",
          "internalType": "address"
        }
      ]
    },
    {
      "type": "error",
      "name": "SablierFactoryMerkleBase_NativeTokenZeroAddress",
      "inputs": []
    }
  ],
  "bytecode": {
    "object": "0x6080806040523461011a57602081612eae803803809161001f8285610131565b83398101031261011a57516001600160a01b0381169081900361011a576040516301ffc9a760e01b8152630654439160e41b6004820152602081602481855afa908115610126575f916100e7575b50156100c6575f80546001600160a01b031916821781556040805191825260208201929092527ff45d882a72fce9d8d7a7e2e196a338d4d9d4057510b4b9ddf91a7066104d2eaf9190a1604051612d4590816101698239f35b6364ca3de160e11b5f525f600452602452630654439160e41b60445260645ffd5b90506020813d60201161011e575b8161010260209383610131565b8101031261011a5751801515810361011a575f61006d565b5f80fd5b3d91506100f5565b6040513d5f823e3d90fd5b601f909101601f19168101906001600160401b0382119082101761015457604052565b634e487b7160e01b5f52604160045260245ffdfe6080806040526004361015610012575f80fd5b5f3560e01c9081635fe3b56714610932575080636da1e1021461080e57806377816725146105dd57806378f82ce7146104c15780638bad38dd14610276578063a47dd95f146100be5763e1758bd814610069575f80fd5b346100ba575f7ffffffffffffffffffffffffffffffffffffffffffffffffffffffffffffffffc3601126100ba57602073ffffffffffffffffffffffffffffffffffffffff60015416604051908152f35b5f80fd5b346100ba5760407ffffffffffffffffffffffffffffffffffffffffffffffffffffffffffffffffc3601126100ba576100f561097f565b60243567ffffffffffffffff81116100ba578060040160e07ffffffffffffffffffffffffffffffffffffffffffffffffffffffffffffffffc83360301126100ba5760209261016573ffffffffffffffffffffffffffffffffffffffff61015f60c48296016109a2565b16610c65565b61018c61021a845f54169261020160405188808201526101b88161018c604082018a610a63565b037fffffffffffffffffffffffffffffffffffffffffffffffffffffffffffffffe08101835282610b2c565b6040516101ce8161018c8c8201948a8887610b96565b5190209561018c61205996604051976101e98c82018a610b2c565b808952610cb78c8a01396040519485938c8501610bd9565b6040519283916102148984018097610b6d565b90610b6d565b51902060405190848201927fff0000000000000000000000000000000000000000000000000000000000000084523060601b6021840152603583015260558201526055815261026a607582610b2c565b51902016604051908152f35b346100ba5760207ffffffffffffffffffffffffffffffffffffffffffffffffffffffffffffffffc3601126100ba5760043573ffffffffffffffffffffffffffffffffffffffff81168091036100ba576102ce610c14565b5f549073ffffffffffffffffffffffffffffffffffffffff8216916040517fc34df33e000000000000000000000000000000000000000000000000000000008152602081600481875afa90811561045b575f91610466575b507fffffffff00000000000000000000000000000000000000000000000000000000604051917f01ffc9a70000000000000000000000000000000000000000000000000000000083521690816004820152602081602481875afa90811561045b575f91610420575b50156103ed577ff45d882a72fce9d8d7a7e2e196a338d4d9d4057510b4b9ddf91a7066104d2eaf60408585807fffffffffffffffffffffffff00000000000000000000000000000000000000008716175f5582519182526020820152a1005b82847fc9947bc2000000000000000000000000000000000000000000000000000000005f5260045260245260445260645ffd5b90506020813d602011610453575b8161043b60209383610b2c565b810103126100ba575180151581036100ba578561038e565b3d915061042e565b6040513d5f823e3d90fd5b90506020813d6020116104b9575b8161048160209383610b2c565b810103126100ba57517fffffffff00000000000000000000000000000000000000000000000000000000811681036100ba5784610326565b3d9150610474565b346100ba575f7ffffffffffffffffffffffffffffffffffffffffffffffffffffffffffffffffc3601126100ba57475f8080808473ffffffffffffffffffffffffffffffffffffffff8254165af1503d156105d8573d67ffffffffffffffff81116105ab576040519061055c60207fffffffffffffffffffffffffffffffffffffffffffffffffffffffffffffffe0601f8401160183610b2c565b81525f60203d92013e5b7f56dedb874d4fc0f70753f281fa2c25e82085163206086fe826cf834b51701f6c602073ffffffffffffffffffffffffffffffffffffffff5f541692604051908152a2005b7f4e487b71000000000000000000000000000000000000000000000000000000005f52604160045260245ffd5b610566565b346100ba5760607ffffffffffffffffffffffffffffffffffffffffffffffffffffffffffffffffc3601126100ba5760043567ffffffffffffffff81116100ba57806004019060e07ffffffffffffffffffffffffffffffffffffffffffffffffffffffffffffffffc82360301126100ba5773ffffffffffffffffffffffffffffffffffffffff61015f60c461067393016109a2565b73ffffffffffffffffffffffffffffffffffffffff5f54166040516020808201526106a58161018c6040820186610a63565b6040516106bc8161018c6020820194863387610b96565b51902090604051906120598083019183831067ffffffffffffffff8411176105ab5783926106f192610cb78539863391610bd9565b03905ff5801561045b5773ffffffffffffffffffffffffffffffffffffffff1673ffffffffffffffffffffffffffffffffffffffff5f541691604051927f88dc31a80000000000000000000000000000000000000000000000000000000084525f6004850152336024850152602084604481845afa93841561045b575f946107d8575b506107b383927fd5c40d1c712a6f9179a45598a38cb77b2464aa4fe0883a699c584c9c9d73106e9260209660405193849360a0855260a0850190610a63565b91602435898501526044356040850152606084015260808301520390a2604051908152f35b93506020843d602011610806575b816107f360209383610b2c565b810103126100ba579251926107b3610774565b3d91506107e6565b346100ba5760207ffffffffffffffffffffffffffffffffffffffffffffffffffffffffffffffffc3601126100ba5773ffffffffffffffffffffffffffffffffffffffff61085a61097f565b610862610c14565b16801561090a5760015473ffffffffffffffffffffffffffffffffffffffff8116806108df57507fffffffffffffffffffffffff0000000000000000000000000000000000000000829116176001556040519081527f7b0a5ae0a2e8f0dc2ec7555098e00dd4af1418ee3fd1bcf9bb14f6990c10fa9260203392a2005b7f6d9f7c38000000000000000000000000000000000000000000000000000000005f5260045260245ffd5b7f2f70e6c7000000000000000000000000000000000000000000000000000000005f5260045ffd5b346100ba575f7ffffffffffffffffffffffffffffffffffffffffffffffffffffffffffffffffc3601126100ba5760209073ffffffffffffffffffffffffffffffffffffffff5f54168152f35b6004359073ffffffffffffffffffffffffffffffffffffffff821682036100ba57565b3573ffffffffffffffffffffffffffffffffffffffff811681036100ba5790565b90357fffffffffffffffffffffffffffffffffffffffffffffffffffffffffffffffe1823603018112156100ba57016020813591019167ffffffffffffffff82116100ba5781360383136100ba57565b601f82602094937fffffffffffffffffffffffffffffffffffffffffffffffffffffffffffffffe093818652868601375f8582860101520116010190565b359064ffffffffff821682036100ba57565b90610a7f610a7183806109c3565b60e0845260e0840191610a13565b64ffffffffff610a9160208501610a51565b16602083015264ffffffffff610aa960408501610a51565b166040830152606083013573ffffffffffffffffffffffffffffffffffffffff81168091036100ba5760c091610af9916060850152610aeb60808601866109c3565b908583036080870152610a13565b9260a081013560a084015201359073ffffffffffffffffffffffffffffffffffffffff82168092036100ba5760c0015290565b90601f7fffffffffffffffffffffffffffffffffffffffffffffffffffffffffffffffe0910116810190811067ffffffffffffffff8211176105ab57604052565b908151915f5b838110610b83575050015f815290565b8060208092840101518185015201610b73565b7fffffffffffffffffffffffffffffffffffffffff000000000000000000000000610bd694938160289460601b16835260601b1660148201520190610b6d565b90565b91939273ffffffffffffffffffffffffffffffffffffffff9081610c07604094606087526060870190610a63565b9616602085015216910152565b73ffffffffffffffffffffffffffffffffffffffff5f5416803303610c365750565b7fa7e1519e000000000000000000000000000000000000000000000000000000005f526004523360245260445ffd5b73ffffffffffffffffffffffffffffffffffffffff80600154169116908114610c8b5750565b7fb1c99895000000000000000000000000000000000000000000000000000000005f5260045260245ffdfe61016080604052346103cc57612059803803809161001d82856105bf565b833981016060828203126103cc5781516001600160401b0381116103cc5782019160e0838303126103cc576040519160e083016001600160401b038111848210176104d05760405283516001600160401b0381116103cc57816100819186016105e2565b835261008f6020850161064f565b93602084019485526100a36040820161064f565b91604085019283526100b760608301610661565b60608601908152608083015190916001600160401b0382116103cc576100de9184016105e2565b9485608082015260c060a0840151938460a084015201519360018060a01b038516948581036103cc5760c083015264ffffffffff8061012b604061012460208b01610661565b9901610661565b93519951169151169260018060a01b039051168060018060a01b03195f5416175f55604051905f7fbdd36143ee09de60bdefca70680e0f71189b2ed7acee364b53917ad433fdaf808180a34660805260208101907f8cad95687ba82c2ce50e74f7b754645e5117c3a5bec8151c0726d5857980a86682527f13cd784591b49af6fc220be53013eaddf1dc15399ca43850d206ea319aca08216040820152466060820152306080820152608081526101e360a0826105bf565b51902060a05260c05260e05261010052610120526101405282516001600160401b0381116104d057600154600181811c911680156105b5575b60208210146104b257601f8111610552575b506020601f82116001146104ef57819293945f926104e4575b50508160011b915f199060031b1c1916176001555b81516001600160401b0381116104d057600354600181811c911680156104c6575b60208210146104b257601f811161044f575b50602092601f82116001146103ee57928192935f926103e3575b50508160011b915f199060031b1c1916176003555b60e05160405163111b863560e31b81525f60048201526001600160a01b0392831660248201529160209183916044918391165afa9081156103d8575f916103a2575b506004556040516119e390816106768239608051816116d9015260a051816116ff015260c051818181610483015261110f015260e0518181816102ba015281816105ce01528181610883015261114501526101005181818161022d01528181610cda0152818161101f01526114b901526101205181818161062701526112ee01526101405181818161042401528181610b2901528181610c3f01526115660152f35b90506020813d6020116103d0575b816103bd602093836105bf565b810103126103cc57515f610300565b5f80fd5b3d91506103b0565b6040513d5f823e3d90fd5b015190505f806102a9565b601f1982169360035f52805f20915f5b868110610437575083600195961061041f575b505050811b016003556102be565b01515f1960f88460031b161c191690555f8080610411565b919260206001819286850151815501940192016103fe565b60035f527fc2575a0e9e593c00f959f8c92f12db2869c3395a3b0502d05e2516446f71f85b601f830160051c810191602084106104a8575b601f0160051c01905b81811061049d575061028f565b5f8155600101610490565b9091508190610487565b634e487b7160e01b5f52602260045260245ffd5b90607f169061027d565b634e487b7160e01b5f52604160045260245ffd5b015190505f80610247565b601f1982169060015f52805f20915f5b81811061053a57509583600195969710610522575b505050811b0160015561025c565b01515f1960f88460031b161c191690555f8080610514565b9192602060018192868b0151815501940192016104ff565b60015f527fb10e2d527612073b26eecdfd717e6a320cf44b4afac2b0732d9fcbe2b7fa0cf6601f830160051c810191602084106105ab575b601f0160051c01905b8181106105a0575061022e565b5f8155600101610593565b909150819061058a565b90607f169061021c565b601f909101601f19168101906001600160401b038211908210176104d057604052565b81601f820112156103cc578051906001600160401b0382116104d05760405192610616601f8401601f1916602001856105bf565b828452602083830101116103cc575f5b82811061063a57505060205f918301015290565b80602080928401015182828701015201610626565b519064ffffffffff821682036103cc57565b51906001600160a01b03821682036103cc5756fe60806040526004361015610011575f80fd5b5f3560e01c80630724fda914610d8f5780630854a79c14610d625780631686c90914610bbd57806320743583146108fb5780633a12a5bc146108095780633f31ae3f146107e657806349fc73dd146106855780634e0bb8cc1461064a57806351e75e8b146105f25780635f82c67e146105845780637423649b1461054b57806375829def146104a75780637ca3944d1461044857806382bfefc8146103da57806382d72f7f146103985780638ec688691461028957806390e64d1314610251578063bb4b5734146101f2578063ce51650714610194578063f698da25146101545763f851a44014610100575f80fd5b34610150575f7ffffffffffffffffffffffffffffffffffffffffffffffffffffffffffffffffc36011261015057602073ffffffffffffffffffffffffffffffffffffffff5f5416604051908152f35b5f80fd5b34610150575f7ffffffffffffffffffffffffffffffffffffffffffffffffffffffffffffffffc36011261015057602061018c6116d6565b604051908152f35b346101505760207ffffffffffffffffffffffffffffffffffffffffffffffffffffffffffffffffc3601126101505760206101e860043560ff6001918060081c5f526005602052161b60405f205416151590565b6040519015158152f35b34610150575f7ffffffffffffffffffffffffffffffffffffffffffffffffffffffffffffffffc36011261015057602060405164ffffffffff7f0000000000000000000000000000000000000000000000000000000000000000168152f35b34610150575f7ffffffffffffffffffffffffffffffffffffffffffffffffffffffffffffffffc3601126101505760206101e8611017565b346101505760207ffffffffffffffffffffffffffffffffffffffffffffffffffffffffffffffffc360112610150577f000000000000000000000000000000000000000000000000000000000000000073ffffffffffffffffffffffffffffffffffffffff16600435338203610368576004548082101561033a57816040917fcafa56d109bc30839f1bad76f9d17abcbd6c936490d4ec0fbc6d331bf89f92af9360045582519182526020820152a2005b7f173c9c82000000000000000000000000000000000000000000000000000000005f5260045260245260445ffd5b507fead08252000000000000000000000000000000000000000000000000000000005f526004523360245260445ffd5b34610150575f7ffffffffffffffffffffffffffffffffffffffffffffffffffffffffffffffffc36011261015057602064ffffffffff60025416604051908152f35b34610150575f7ffffffffffffffffffffffffffffffffffffffffffffffffffffffffffffffffc36011261015057602060405173ffffffffffffffffffffffffffffffffffffffff7f0000000000000000000000000000000000000000000000000000000000000000168152f35b34610150575f7ffffffffffffffffffffffffffffffffffffffffffffffffffffffffffffffffc36011261015057602060405164ffffffffff7f0000000000000000000000000000000000000000000000000000000000000000168152f35b346101505760207ffffffffffffffffffffffffffffffffffffffffffffffffffffffffffffffffc3601126101505773ffffffffffffffffffffffffffffffffffffffff6104f3610f33565b6104fb6115a6565b16807fffffffffffffffffffffffff00000000000000000000000000000000000000005f5416175f55337fbdd36143ee09de60bdefca70680e0f71189b2ed7acee364b53917ad433fdaf805f80a3005b34610150575f7ffffffffffffffffffffffffffffffffffffffffffffffffffffffffffffffffc36011261015057602060405160018152f35b34610150575f7ffffffffffffffffffffffffffffffffffffffffffffffffffffffffffffffffc36011261015057602060405173ffffffffffffffffffffffffffffffffffffffff7f0000000000000000000000000000000000000000000000000000000000000000168152f35b34610150575f7ffffffffffffffffffffffffffffffffffffffffffffffffffffffffffffffffc3601126101505760206040517f00000000000000000000000000000000000000000000000000000000000000008152f35b34610150575f7ffffffffffffffffffffffffffffffffffffffffffffffffffffffffffffffffc360112610150576020600454604051908152f35b34610150575f7ffffffffffffffffffffffffffffffffffffffffffffffffffffffffffffffffc360112610150576040515f6003548060011c906001811680156107dc575b6020831081146107af5782855290811561076d575060011461070f575b61070b836106f781850382610e68565b604051918291602083526020830190610ed6565b0390f35b60035f9081527fc2575a0e9e593c00f959f8c92f12db2869c3395a3b0502d05e2516446f71f85b939250905b808210610753575090915081016020016106f76106e7565b91926001816020925483858801015201910190929161073b565b7fffffffffffffffffffffffffffffffffffffffffffffffffffffffffffffff001660208086019190915291151560051b840190910191506106f790506106e7565b7f4e487b71000000000000000000000000000000000000000000000000000000005f52602260045260245ffd5b91607f16916106ca565b6108076108026107f536610f87565b8295918593858097611102565b611510565b005b34610150575f7ffffffffffffffffffffffffffffffffffffffffffffffffffffffffffffffffc36011261015057600454604051907fb0fa59e8000000000000000000000000000000000000000000000000000000008252600482015260208160248173ffffffffffffffffffffffffffffffffffffffff7f0000000000000000000000000000000000000000000000000000000000000000165afa80156108f0575f906108bd575b602090604051908152f35b506020813d6020116108e8575b816108d760209383610e68565b8101031261015057602090516108b2565b3d91506108ca565b6040513d5f823e3d90fd5b60e07ffffffffffffffffffffffffffffffffffffffffffffffffffffffffffffffffc360112610150576004356024359073ffffffffffffffffffffffffffffffffffffffff821691828103610150576044359073ffffffffffffffffffffffffffffffffffffffff82169182810361015057606435916fffffffffffffffffffffffffffffffff831692838103610150576084359064ffffffffff82168092036101505760a43567ffffffffffffffff8111610150576109c0903690600401610f56565b93909260c43567ffffffffffffffff811161015057366023820112156101505780600401359067ffffffffffffffff821161015057366024838301011161015057610ad9915f602060428f8f908f8f908f610a1a90611054565b60405192868401947fb0f12a3a6931229a836eaab08aeb1ebe2ddebad3bfd83f30d39f6c4a3b0f4f81865260408501526060840152608083015260a08201528860c082015260c08152610a6e60e082610e68565b519020610a796116d6565b90604051917f19010000000000000000000000000000000000000000000000000000000000008352600283015260228201522092806024610ab982611099565b96610ac76040519889610e68565b82885201838701378401015284611793565b15610b955764ffffffffff421690818111610b67578a7f2fb6e76f6c88eb31f43c986c9c81d4bb10dc0a4c3e9b3fe6e8664124fa32698060808c8c8c610b4d818e610b278f8f8f8f8a611102565b7f00000000000000000000000000000000000000000000000000000000000000006115f7565b6040519283526020830152604082015260016060820152a2005b7f875f3291000000000000000000000000000000000000000000000000000000005f5260045260245260445ffd5b7f9a943b04000000000000000000000000000000000000000000000000000000005f5260045ffd5b346101505760407ffffffffffffffffffffffffffffffffffffffffffffffffffffffffffffffffc36011261015057610bf4610f33565b602435906fffffffffffffffffffffffffffffffff821680920361015057610c1a6115a6565b64ffffffffff6002541680151580610d14575b80610d05575b610cab5750610c6382827f00000000000000000000000000000000000000000000000000000000000000006115f7565b7f2e9d425ba8b27655048400b366d7b6a1f7180ebdb088e06bb7389704860ffe1f602073ffffffffffffffffffffffffffffffffffffffff805f5416936040519586521693a3005b7fe2e40a0c000000000000000000000000000000000000000000000000000000005f524260045264ffffffffff7f00000000000000000000000000000000000000000000000000000000000000001660245260445260645ffd5b50610d0e611017565b15610c33565b5062093a80810164ffffffffff8111610d355764ffffffffff164211610c2d565b7f4e487b71000000000000000000000000000000000000000000000000000000005f52601160045260245ffd5b610807610d88610d7136610f87565b90610d80849594969396611054565b853385611102565b3390611510565b34610150575f7ffffffffffffffffffffffffffffffffffffffffffffffffffffffffffffffffc360112610150576040515f6001548060011c90600181168015610e5e575b6020831081146107af5782855290811561076d5750600114610e005761070b836106f781850382610e68565b60015f9081527fb10e2d527612073b26eecdfd717e6a320cf44b4afac2b0732d9fcbe2b7fa0cf6939250905b808210610e44575090915081016020016106f76106e7565b919260018160209254838588010152019101909291610e2c565b91607f1691610dd4565b90601f7fffffffffffffffffffffffffffffffffffffffffffffffffffffffffffffffe0910116810190811067ffffffffffffffff821117610ea957604052565b7f4e487b71000000000000000000000000000000000000000000000000000000005f52604160045260245ffd5b91908251928382525f5b848110610f1e5750507fffffffffffffffffffffffffffffffffffffffffffffffffffffffffffffffe0601f845f6020809697860101520116010190565b80602080928401015182828601015201610ee0565b6004359073ffffffffffffffffffffffffffffffffffffffff8216820361015057565b9181601f840112156101505782359167ffffffffffffffff8311610150576020808501948460051b01011161015057565b9060807ffffffffffffffffffffffffffffffffffffffffffffffffffffffffffffffffc830112610150576004359160243573ffffffffffffffffffffffffffffffffffffffff8116810361015057916044356fffffffffffffffffffffffffffffffff8116810361015057916064359067ffffffffffffffff82116101505761101391600401610f56565b9091565b64ffffffffff7f000000000000000000000000000000000000000000000000000000000000000016801515908161104c575090565b905042101590565b73ffffffffffffffffffffffffffffffffffffffff161561107157565b7f036fcd52000000000000000000000000000000000000000000000000000000005f5260045ffd5b67ffffffffffffffff8111610ea957601f017fffffffffffffffffffffffffffffffffffffffffffffffffffffffffffffffe01660200190565b3d156110fd573d906110e482611099565b916110f26040519384610e68565b82523d5f602084013e565b606090565b939491909264ffffffffff7f0000000000000000000000000000000000000000000000000000000000000000164281116114e1575061113f611017565b61148a577f00000000000000000000000000000000000000000000000000000000000000009373ffffffffffffffffffffffffffffffffffffffff851692600454604051907fb0fa59e80000000000000000000000000000000000000000000000000000000082526004820152602081602481885afa9081156108f0575f91611458575b5080341061142957506111ed8760ff6001918060081c5f526005602052161b60405f205416151590565b6113fd576fffffffffffffffffffffffffffffffff6040519173ffffffffffffffffffffffffffffffffffffffff60208401948a86521660408401521660608201526060815261123e608082610e68565b519020604051602081019182526020815261125a604082610e68565b5190209067ffffffffffffffff8711610ea9578660051b60405197611282602083018a610e68565b8852602088019082019136831161015057905b8282106113ed57505050925f935b86518510156112e55760208560051b88010151908181105f146112d4575f52602052600160405f205b9401936112a3565b905f52602052600160405f206112cc565b919492955092507f0000000000000000000000000000000000000000000000000000000000000000036113c55760025464ffffffffff811615611391575b508060081c5f526005602052600160ff60405f2092161b815417905534611348575050565b5f8080809334905af16113596110d3565b50156113625750565b7fe57d366c000000000000000000000000000000000000000000000000000000005f526004523460245260445ffd5b7fffffffffffffffffffffffffffffffffffffffffffffffffffffff0000000000164264ffffffffff16176002555f611323565b7fb4f06787000000000000000000000000000000000000000000000000000000005f5260045ffd5b8135815260209182019101611295565b867f02bf1aba000000000000000000000000000000000000000000000000000000005f5260045260245ffd5b7fa164c6b4000000000000000000000000000000000000000000000000000000005f523460045260245260445ffd5b90506020813d602011611482575b8161147360209383610e68565b8101031261015057515f6111c3565b3d9150611466565b7fdf4bae05000000000000000000000000000000000000000000000000000000005f524260045264ffffffffff7f00000000000000000000000000000000000000000000000000000000000000001660245260445ffd5b7f14659648000000000000000000000000000000000000000000000000000000005f524260045260245260445ffd5b9260809173ffffffffffffffffffffffffffffffffffffffff7f2fb6e76f6c88eb31f43c986c9c81d4bb10dc0a4c3e9b3fe6e8664124fa326980946fffffffffffffffffffffffffffffffff82941661158a81837f00000000000000000000000000000000000000000000000000000000000000006115f7565b60405197885260208801521660408601525f60608601521692a2565b73ffffffffffffffffffffffffffffffffffffffff5f54163381036115c85750565b7fc6cce6a4000000000000000000000000000000000000000000000000000000005f526004523360245260445ffd5b916020915f916040519073ffffffffffffffffffffffffffffffffffffffff858301937fa9059cbb000000000000000000000000000000000000000000000000000000008552166024830152604482015260448152611657606482610e68565b519082855af1156108f0575f513d6116cd575073ffffffffffffffffffffffffffffffffffffffff81163b155b61168b5750565b73ffffffffffffffffffffffffffffffffffffffff907f5274afe7000000000000000000000000000000000000000000000000000000005f521660045260245ffd5b60011415611684565b467f000000000000000000000000000000000000000000000000000000000000000003611721577f000000000000000000000000000000000000000000000000000000000000000090565b60405160208101907f8cad95687ba82c2ce50e74f7b754645e5117c3a5bec8151c0726d5857980a86682527f13cd784591b49af6fc220be53013eaddf1dc15399ca43850d206ea319aca082160408201524660608201523060808201526080815261178d60a082610e68565b51902090565b9190823b61180857906117a5916118e4565b5060048110156117db571591826117bb57505090565b73ffffffffffffffffffffffffffffffffffffffff919250811691161490565b7f4e487b71000000000000000000000000000000000000000000000000000000005f52602160045260245ffd5b915f92611857611883859460405192839160208301957f1626ba7e0000000000000000000000000000000000000000000000000000000087526024840152604060448401526064830190610ed6565b037fffffffffffffffffffffffffffffffffffffffffffffffffffffffffffffffe08101835282610e68565b51915afa61188f6110d3565b816118d6575b8161189e575090565b905060208180518101031261015057602001517f1626ba7e000000000000000000000000000000000000000000000000000000001490565b905060208151101590611895565b81519190604183036119145761190d9250602082015190606060408401519301515f1a9061191e565b9192909190565b50505f9160029190565b91907f7fffffffffffffffffffffffffffffff5d576e7357a4501ddfe92f46681b20a084116119a2579160209360809260ff5f9560405194855216868401526040830152606082015282805260015afa156108f0575f5173ffffffffffffffffffffffffffffffffffffffff81161561199857905f905f90565b505f906001905f90565b5050505f916003919056fea2646970667358221220e1a5796c5d39081e445e6cb7bffef0de7d7178735d085d0c9fa36d890174830664736f6c634300081d0033a26469706673582212201dcef19641b52e95b7b6af8a183e6d252e34f6c79a22a63565a4033f825f728e64736f6c634300081d0033",
    "linkReferences": {}
  },
  "methodIdentifiers": {
    "comptroller()": "5fe3b567",
    "computeMerkleInstant(address,(string,uint40,uint40,address,string,bytes32,address))": "a47dd95f",
    "createMerkleInstant((string,uint40,uint40,address,string,bytes32,address),uint256,uint256)": "77816725",
    "nativeToken()": "e1758bd8",
    "setComptroller(address)": "8bad38dd",
    "setNativeToken(address)": "6da1e102",
    "transferFeesToComptroller()": "78f82ce7"
  },
  "id": 93
}