{
  "abi": [
    {
      "type": "constructor",
      "inputs": [
        {
          "name": "params",
          "type": "tuple",
          "internalType": "struct MerkleLL.ConstructorParams",
          "components": [
            {
              "name": "campaignName",
              "type": "string",
              "internalType": "string"
            },
            {
              "name": "campaignStartTime",
              "type": "uint40",
              "internalType": "uint40"
            },
            {
              "name": "cancelable",
              "type": "bool",
              "internalType": "bool"
            },
            {
              "name": "cliffDuration",
              "type": "uint40",
              "internalType": "uint40"
            },
            {
              "name": "cliffUnlockPercentage",
              "type": "uint256",
              "internalType": "UD60x18"
            },
            {
              "name": "expiration",
              "type": "uint40",
              "internalType": "uint40"
            },
            {
              "name": "initialAdmin",
              "type": "address",
              "internalType": "address"
            },
            {
              "name": "ipfsCID",
              "type": "string",
              "internalType": "string"
            },
            {
              "name": "lockup",
              "type": "address",
              "internalType": "contract ISablierLockup"
            },
            {
              "name": "merkleRoot",
              "type": "bytes32",
              "internalType": "bytes32"
            },
            {
              "name": "shape",
              "type": "string",
              "internalType": "string"
            },
            {
              "name": "startUnlockPercentage",
              "type": "uint256",
              "internalType": "UD60x18"
            },
            {
              "name": "token",
              "type": "address",
              "internalType": "contract IERC20"
            },
            {
              "name": "totalDuration",
              "type": "uint40",
              "internalType": "uint40"
            },
            {
              "name": "transferable",
              "type": "bool",
              "internalType": "bool"
            },
            {
              "name": "vestingStartTime",
              "type": "uint40",
              "internalType": "uint40"
            }
          ]
        },
        {
          "name": "campaignCreator",
          "type": "address",
          "internalType": "address"
        },
        {
          "name": "comptroller",
          "type": "address",
          "internalType": "address"
        }
      ],
      "stateMutability": "nonpayable"
    },
    {
      "type": "function",
      "name": "CAMPAIGN_START_TIME",
      "inputs": [],
      "outputs": [
        {
          "name": "",
          "type": "uint40",
          "internalType": "uint40"
        }
      ],
      "stateMutability": "view"
    },
    {
      "type": "function",
      "name": "COMPTROLLER",
      "inputs": [],
      "outputs": [
        {
          "name": "",
          "type": "address",
          "internalType": "address"
        }
      ],
      "stateMutability": "view"
    },
    {
      "type": "function",
      "name": "EXPIRATION",
      "inputs": [],
      "outputs": [
        {
          "name": "",
          "type": "uint40",
          "internalType": "uint40"
        }
      ],
      "stateMutability": "view"
    },
    {
      "type": "function",
      "name": "IS_SABLIER_MERKLE",
      "inputs": [],
      "outputs": [
        {
          "name": "",
          "type": "bool",
          "internalType": "bool"
        }
      ],
      "stateMutability": "view"
    },
    {
      "type": "function",
      "name": "MERKLE_ROOT",
      "inputs": [],
      "outputs": [
        {
          "name": "",
          "type": "bytes32",
          "internalType": "bytes32"
        }
      ],
      "stateMutability": "view"
    },
    {
      "type": "function",
      "name": "SABLIER_LOCKUP",
      "inputs": [],
      "outputs": [
        {
          "name": "",
          "type": "address",
          "internalType": "contract ISablierLockup"
        }
      ],
      "stateMutability": "view"
    },
    {
      "type": "function",
      "name": "STREAM_CANCELABLE",
      "inputs": [],
      "outputs": [
        {
          "name": "",
          "type": "bool",
          "internalType": "bool"
        }
      ],
      "stateMutability": "view"
    },
    {
      "type": "function",
      "name": "STREAM_TRANSFERABLE",
      "inputs": [],
      "outputs": [
        {
          "name": "",
          "type": "bool",
          "internalType": "bool"
        }
      ],
      "stateMutability": "view"
    },
    {
      "type": "function",
      "name": "TOKEN",
      "inputs": [],
      "outputs": [
        {
          "name": "",
          "type": "address",
          "internalType": "contract IERC20"
        }
      ],
      "stateMutability": "view"
    },
    {
      "type": "function",
      "name": "VESTING_CLIFF_DURATION",
      "inputs": [],
      "outputs": [
        {
          "name": "",
          "type": "uint40",
          "internalType": "uint40"
        }
      ],
      "stateMutability": "view"
    },
    {
      "type": "function",
      "name": "VESTING_CLIFF_UNLOCK_PERCENTAGE",
      "inputs": [],
      "outputs": [
        {
          "name": "",
          "type": "uint256",
          "internalType": "UD60x18"
        }
      ],
      "stateMutability": "view"
    },
    {
      "type": "function",
      "name": "VESTING_START_TIME",
      "inputs": [],
      "outputs": [
        {
          "name": "",
          "type": "uint40",
          "internalType": "uint40"
        }
      ],
      "stateMutability": "view"
    },
    {
      "type": "function",
      "name": "VESTING_START_UNLOCK_PERCENTAGE",
      "inputs": [],
      "outputs": [
        {
          "name": "",
          "type": "uint256",
          "internalType": "UD60x18"
        }
      ],
      "stateMutability": "view"
    },
    {
      "type": "function",
      "name": "VESTING_TOTAL_DURATION",
      "inputs": [],
      "outputs": [
        {
          "name": "",
          "type": "uint40",
          "internalType": "uint40"
        }
      ],
      "stateMutability": "view"
    },
    {
      "type": "function",
      "name": "admin",
      "inputs": [],
      "outputs": [
        {
          "name": "",
          "type": "address",
          "internalType": "address"
        }
      ],
      "stateMutability": "view"
    },
    {
      "type": "function",
      "name": "calculateMinFeeWei",
      "inputs": [],
      "outputs": [
        {
          "name": "",
          "type": "uint256",
          "internalType": "uint256"
        }
      ],
      "stateMutability": "view"
    },
    {
      "type": "function",
      "name": "campaignName",
      "inputs": [],
      "outputs": [
        {
          "name": "",
          "type": "string",
          "internalType": "string"
        }
      ],
      "stateMutability": "view"
    },
    {
      "type": "function",
      "name": "claim",
      "inputs": [
        {
          "name": "index",
          "type": "uint256",
          "internalType": "uint256"
        },
        {
          "name": "recipient",
          "type": "address",
          "internalType": "address"
        },
        {
          "name": "amount",
          "type": "uint128",
          "internalType": "uint128"
        },
        {
          "name": "merkleProof",
          "type": "bytes32[]",
          "internalType": "bytes32[]"
        }
      ],
      "outputs": [],
      "stateMutability": "payable"
    },
    {
      "type": "function",
      "name": "claimTo",
      "inputs": [
        {
          "name": "index",
          "type": "uint256",
          "internalType": "uint256"
        },
        {
          "name": "to",
          "type": "address",
          "internalType": "address"
        },
        {
          "name": "amount",
          "type": "uint128",
          "internalType": "uint128"
        },
        {
          "name": "merkleProof",
          "type": "bytes32[]",
          "internalType": "bytes32[]"
        }
      ],
      "outputs": [],
      "stateMutability": "payable"
    },
    {
      "type": "function",
      "name": "claimViaSig",
      "inputs": [
        {
          "name": "index",
          "type": "uint256",
          "internalType": "uint256"
        },
        {
          "name": "recipient",
          "type": "address",
          "internalType": "address"
        },
        {
          "name": "to",
          "type": "address",
          "internalType": "address"
        },
        {
          "name": "amount",
          "type": "uint128",
          "internalType": "uint128"
        },
        {
          "name": "validFrom",
          "type": "uint40",
          "internalType": "uint40"
        },
        {
          "name": "merkleProof",
          "type": "bytes32[]",
          "internalType": "bytes32[]"
        },
        {
          "name": "signature",
          "type": "bytes",
          "internalType": "bytes"
        }
      ],
      "outputs": [],
      "stateMutability": "payable"
    },
    {
      "type": "function",
      "name": "claimedStreams",
      "inputs": [
        {
          "name": "recipient",
          "type": "address",
          "internalType": "address"
        }
      ],
      "outputs": [
        {
          "name": "",
          "type": "uint256[]",
          "internalType": "uint256[]"
        }
      ],
      "stateMutability": "view"
    },
    {
      "type": "function",
      "name": "clawback",
      "inputs": [
        {
          "name": "to",
          "type": "address",
          "internalType": "address"
        },
        {
          "name": "amount",
          "type": "uint128",
          "internalType": "uint128"
        }
      ],
      "outputs": [],
      "stateMutability": "nonpayable"
    },
    {
      "type": "function",
      "name": "domainSeparator",
      "inputs": [],
      "outputs": [
        {
          "name": "",
          "type": "bytes32",
          "internalType": "bytes32"
        }
      ],
      "stateMutability": "view"
    },
    {
      "type": "function",
      "name": "firstClaimTime",
      "inputs": [],
      "outputs": [
        {
          "name": "",
          "type": "uint40",
          "internalType": "uint40"
        }
      ],
      "stateMutability": "view"
    },
    {
      "type": "function",
      "name": "hasClaimed",
      "inputs": [
        {
          "name": "index",
          "type": "uint256",
          "internalType": "uint256"
        }
      ],
      "outputs": [
        {
          "name": "",
          "type": "bool",
          "internalType": "bool"
        }
      ],
      "stateMutability": "view"
    },
    {
      "type": "function",
      "name": "hasExpired",
      "inputs": [],
      "outputs": [
        {
          "name": "",
          "type": "bool",
          "internalType": "bool"
        }
      ],
      "stateMutability": "view"
    },
    {
      "type": "function",
      "name": "ipfsCID",
      "inputs": [],
      "outputs": [
        {
          "name": "",
          "type": "string",
          "internalType": "string"
        }
      ],
      "stateMutability": "view"
    },
    {
      "type": "function",
      "name": "lowerMinFeeUSD",
      "inputs": [
        {
          "name": "newMinFeeUSD",
          "type": "uint256",
          "internalType": "uint256"
        }
      ],
      "outputs": [],
      "stateMutability": "nonpayable"
    },
    {
      "type": "function",
      "name": "minFeeUSD",
      "inputs": [],
      "outputs": [
        {
          "name": "",
          "type": "uint256",
          "internalType": "uint256"
        }
      ],
      "stateMutability": "view"
    },
    {
      "type": "function",
      "name": "streamShape",
      "inputs": [],
      "outputs": [
        {
          "name": "",
          "type": "string",
          "internalType": "string"
        }
      ],
      "stateMutability": "view"
    },
    {
      "type": "function",
      "name": "transferAdmin",
      "inputs": [
        {
          "name": "newAdmin",
          "type": "address",
          "internalType": "address"
        }
      ],
      "outputs": [],
      "stateMutability": "nonpayable"
    },
    {
      "type": "event",
      "name": "ClaimLLWithTransfer",
      "inputs": [
        {
          "name": "index",
          "type": "uint256",
          "indexed": false,
          "internalType": "uint256"
        },
        {
          "name": "recipient",
          "type": "address",
          "indexed": true,
          "internalType": "address"
        },
        {
          "name": "amount",
          "type": "uint128",
          "indexed": false,
          "internalType": "uint128"
        },
        {
          "name": "to",
          "type": "address",
          "indexed": false,
          "internalType": "address"
        },
        {
          "name": "viaSig",
          "type": "bool",
          "indexed": false,
          "internalType": "bool"
        }
      ],
      "anonymous": false
    },
    {
      "type": "event",
      "name": "ClaimLLWithVesting",
      "inputs": [
        {
          "name": "index",
          "type": "uint256",
          "indexed": false,
          "internalType": "uint256"
        },
        {
          "name": "recipient",
          "type": "address",
          "indexed": true,
          "internalType": "address"
        },
        {
          "name": "amount",
          "type": "uint128",
          "indexed": false,
          "internalType": "uint128"
        },
        {
          "name": "streamId",
          "type": "uint256",
          "indexed": true,
          "internalType": "uint256"
        },
        {
          "name": "to",
          "type": "address",
          "indexed": false,
          "internalType": "address"
        },
        {
          "name": "viaSig",
          "type": "bool",
          "indexed": false,
          "internalType": "bool"
        }
      ],
      "anonymous": false
    },
    {
      "type": "event",
      "name": "Clawback",
      "inputs": [
        {
          "name": "admin",
          "type": "address",
          "indexed": true,
          "internalType": "address"
        },
        {
          "name": "to",
          "type": "address",
          "indexed": true,
          "internalType": "address"
        },
        {
          "name": "amount",
          "type": "uint128",
          "indexed": false,
          "internalType": "uint128"
        }
      ],
      "anonymous": false
    },
    {
      "type": "event",
      "name": "LowerMinFeeUSD",
      "inputs": [
        {
          "name": "comptroller",
          "type": "address",
          "indexed": true,
          "internalType": "address"
        },
        {
          "name": "newMinFeeUSD",
          "type": "uint256",
          "indexed": false,
          "internalType": "uint256"
        },
        {
          "name": "previousMinFeeUSD",
          "type": "uint256",
          "indexed": false,
          "internalType": "uint256"
        }
      ],
      "anonymous": false
    },
    {
      "type": "event",
      "name": "TransferAdmin",
      "inputs": [
        {
          "name": "oldAdmin",
          "type": "address",
          "indexed": true,
          "internalType": "address"
        },
        {
          "name": "newAdmin",
          "type": "address",
          "indexed": true,
          "internalType": "address"
        }
      ],
      "anonymous": false
    },
    {
      "type": "error",
      "name": "CallerNotAdmin",
      "inputs": [
        {
          "name": "admin",
          "type": "address",
          "internalType": "address"
        },
        {
          "name": "caller",
          "type": "address",
          "internalType": "address"
        }
      ]
    },
    {
      "type": "error",
      "name": "PRBMath_MulDiv18_Overflow",
      "inputs": [
        {
          "name": "x",
          "type": "uint256",
          "internalType": "uint256"
        },
        {
          "name": "y",
          "type": "uint256",
          "internalType": "uint256"
        }
      ]
    },
    {
      "type": "error",
      "name": "PRBMath_UD60x18_IntoUint128_Overflow",
      "inputs": [
        {
          "name": "x",
          "type": "uint256",
          "internalType": "UD60x18"
        }
      ]
    },
    {
      "type": "error",
      "name": "SablierMerkleBase_CallerNotComptroller",
      "inputs": [
        {
          "name": "comptroller",
          "type": "address",
          "internalType": "address"
        },
        {
          "name": "caller",
          "type": "address",
          "internalType": "address"
        }
      ]
    },
    {
      "type": "error",
      "name": "SablierMerkleBase_CampaignExpired",
      "inputs": [
        {
          "name": "blockTimestamp",
          "type": "uint256",
          "internalType": "uint256"
        },
        {
          "name": "expiration",
          "type": "uint40",
          "internalType": "uint40"
        }
      ]
    },
    {
      "type": "error",
      "name": "SablierMerkleBase_CampaignNotStarted",
      "inputs": [
        {
          "name": "blockTimestamp",
          "type": "uint256",
          "internalType": "uint256"
        },
        {
          "name": "campaignStartTime",
          "type": "uint40",
          "internalType": "uint40"
        }
      ]
    },
    {
      "type": "error",
      "name": "SablierMerkleBase_ClawbackNotAllowed",
      "inputs": [
        {
          "name": "blockTimestamp",
          "type": "uint256",
          "internalType": "uint256"
        },
        {
          "name": "expiration",
          "type": "uint40",
          "internalType": "uint40"
        },
        {
          "name": "firstClaimTime",
          "type": "uint40",
          "internalType": "uint40"
        }
      ]
    },
    {
      "type": "error",
      "name": "SablierMerkleBase_FeeTransferFailed",
      "inputs": [
        {
          "name": "feeRecipient",
          "type": "address",
          "internalType": "address"
        },
        {
          "name": "feeAmount",
          "type": "uint256",
          "internalType": "uint256"
        }
      ]
    },
    {
      "type": "error",
      "name": "SablierMerkleBase_IndexClaimed",
      "inputs": [
        {
          "name": "index",
          "type": "uint256",
          "internalType": "uint256"
        }
      ]
    },
    {
      "type": "error",
      "name": "SablierMerkleBase_InsufficientFeePayment",
      "inputs": [
        {
          "name": "feePaid",
          "type": "uint256",
          "internalType": "uint256"
        },
        {
          "name": "minFeeWei",
          "type": "uint256",
          "internalType": "uint256"
        }
      ]
    },
    {
      "type": "error",
      "name": "SablierMerkleBase_InvalidProof",
      "inputs": []
    },
    {
      "type": "error",
      "name": "SablierMerkleBase_InvalidSignature",
      "inputs": []
    },
    {
      "type": "error",
      "name": "SablierMerkleBase_NewMinFeeUSDNotLower",
      "inputs": [
        {
          "name": "currentMinFeeUSD",
          "type": "uint256",
          "internalType": "uint256"
        },
        {
          "name": "newMinFeeUSD",
          "type": "uint256",
          "internalType": "uint256"
        }
      ]
    },
    {
      "type": "error",
      "name": "SablierMerkleBase_SignatureNotYetValid",
      "inputs": [
        {
          "name": "validFrom",
          "type": "uint40",
          "internalType": "uint40"
        },
        {
          "name": "blockTimestamp",
          "type": "uint40",
          "internalType": "uint40"
        }
      ]
    },
    {
      "type": "error",
      "name": "SablierMerkleBase_ToZeroAddress",
      "inputs": []
    },
    {
      "type": "error",
      "name": "SafeERC20FailedOperation",
      "inputs": [
        {
          "name": "token",
          "type": "address",
          "internalType": "address"
        }
      ]
    }
  ],
  "bytecode": {
    "object": "0x61026080604052346107f35761360a803803809161001d82856109dc565b833981016060828203126107f35781516001600160401b0381116107f357820190610200828203126107f3576040519161020083016001600160401b038111848210176107b55760405280516001600160401b0381116107f357826100839183016109ff565b835261009160208201610a6c565b602084019081526100a460408301610a7e565b91604085019283526100b860608201610a6c565b9060608601918252608081015192608087019384526100d960a08301610a6c565b60a088019081526100ec60c08401610a8b565b60c0890190815260e08401519099906001600160401b0381116107f357886101159186016109ff565b60e08a01908152610100850151909890936001600160a01b03851685036107f3576101008b0194855261012086810151908c0190815261014087015190926001600160401b0382116107f35761016c9188016109ff565b9b8c6101408d01526101608701519a6101608d019b8c526101808801519160018060a01b038316928381036107f3576101808f01526101ae6101a08a01610a6c565b9d6101a081019e8f526101d86101e06101ca6101c08d01610a7e565b9b8c6101c085015201610a6c565b9c6101e082019d8e5264ffffffffff8061020060406101f960208d01610a8b565b9b01610a8b565b9351975116915115159a60018060a01b039051169951169260018060a01b0390511693519651938060018060a01b03195f5416175f55604051905f7fbdd36143ee09de60bdefca70680e0f71189b2ed7acee364b53917ad433fdaf808180a34660805260208101907f8cad95687ba82c2ce50e74f7b754645e5117c3a5bec8151c0726d5857980a86682527f13cd784591b49af6fc220be53013eaddf1dc15399ca43850d206ea319aca08216040820152466060820152306080820152608081526102cc60a0826109dc565b51902060a05260c05260e0526101005261012052610140528051906001600160401b0382116107b55760015490600182811c921680156109d2575b60208310146107975781601f849311610964575b50602090601f83116001146108fe575f926108f3575b50508160011b915f199060031b1c1916176001555b8051906001600160401b0382116107b55760035490600182811c921680156108e9575b60208310146107975781601f84931161087b575b50602090601f8311600114610815575f9261080a575b50508160011b915f199060031b1c1916176003555b60e05160405163111b863560e31b81525f60048201526001600160a01b0392831660248201529160209183916044918391165afa9081156107ff575f916107c9575b506004556101605287516001600160401b0381116107b557600654600181811c911680156107ab575b602082101461079757601f8111610734575b506020601f82116001146106c357918164ffffffffff9a928b989796948996945f926106b8575b50508160011b915f199060031b1c1916176006555b6101805215156101a05260018060a01b03610140511660018060a01b036101605116906040519060205f81840163095ea7b360e01b815285602486015281196044860152604485526104b46064866109dc565b84519082855af15f513d8261069c575b505015610657575b50505051166101c052516101e0525116610200525161022052511661024052604051612b129081610af88239608051816126e4015260a0518161270a015260c0518181816106ca0152611b94015260e0518181816105010152818161095301528181610cbf0152611bca0152610100518181816104740152818161168301528181611aa40152611f3e015261012051818181610a040152611d7301526101405181818161066b01528181611019015281816111a0015281816115e8015281816120b801526122670152610160518181816102ab0152818161136b0152612432015261018051818181610362015281816111dd01526122a401526101a0518181816104140152818161120701526122ce01526101c0518181816101a90152818161109a015261213801526101e0518181816109ac0152818161111c01526121cd0152610200518181816108e501528181610f770152611fe80152610220518181816103bc015281816110d50152612186015261024051818181610c2101528181610fb5015261202e0152f35b61068f610694936040519063095ea7b360e01b602083015260248201525f6044820152604481526106896064826109dc565b82610a9f565b610a9f565b5f80806104cc565b9091506106b05750803b15155b5f806104c4565b6001146106a9565b015190505f8061044c565b601f1982169960065f52815f209a5f5b81811061071c57509264ffffffffff9b8c9998979593600193838c999710610704575b505050811b01600655610461565b01515f1960f88460031b161c191690555f80806106f6565b929b6020600181928f8601518155019d0193016106d3565b60065f527ff652222313e28459528d920b65115c16c04f3efc82aaedc97be59f3f377c0d3f601f830160051c8101916020841061078d575b601f0160051c01905b8181106107825750610425565b5f8155600101610775565b909150819061076c565b634e487b7160e01b5f52602260045260245ffd5b90607f1690610413565b634e487b7160e01b5f52604160045260245ffd5b90506020813d6020116107f7575b816107e4602093836109dc565b810103126107f357515f6103ea565b5f80fd5b3d91506107d7565b6040513d5f823e3d90fd5b015190505f80610393565b60035f9081528281209350601f198516905b818110610863575090846001959493921061084b575b505050811b016003556103a8565b01515f1960f88460031b161c191690555f808061083d565b92936020600181928786015181550195019301610827565b60035f529091507fc2575a0e9e593c00f959f8c92f12db2869c3395a3b0502d05e2516446f71f85b601f840160051c810191602085106108df575b90601f859493920160051c01905b8181106108d1575061037d565b5f81558493506001016108c4565b90915081906108b6565b91607f1691610369565b015190505f80610331565b60015f9081528281209350601f198516905b81811061094c5750908460019594939210610934575b505050811b01600155610346565b01515f1960f88460031b161c191690555f8080610926565b92936020600181928786015181550195019301610910565b60015f529091507fb10e2d527612073b26eecdfd717e6a320cf44b4afac2b0732d9fcbe2b7fa0cf6601f840160051c810191602085106109c8575b90601f859493920160051c01905b8181106109ba575061031b565b5f81558493506001016109ad565b909150819061099f565b91607f1691610307565b601f909101601f19168101906001600160401b038211908210176107b557604052565b81601f820112156107f3578051906001600160401b0382116107b55760405192610a33601f8401601f1916602001856109dc565b828452602083830101116107f3575f5b828110610a5757505060205f918301015290565b80602080928401015182828701015201610a43565b519064ffffffffff821682036107f357565b519081151582036107f357565b51906001600160a01b03821682036107f357565b905f602091828151910182855af1156107ff575f513d610aee57506001600160a01b0381163b155b610ace5750565b635274afe760e01b5f9081526001600160a01b0391909116600452602490fd5b60011415610ac756fe60806040526004361015610011575f80fd5b5f3560e01c80630724fda9146117385780630854a79c1461170b5780631686c909146115665780632074358314610d7057806323e5336714610d375780633a12a5bc14610c455780633b8d3fc514610be65780633f31ae3f14610bc357806349fc73dd14610a625780634e0bb8cc14610a2757806351e75e8b146109cf578063536378c3146109775780635f82c67e146109095780636c0b1e8c146108aa5780637423649b1461087157806375829def146107cd57806376c30a95146106ee5780637ca3944d1461068f57806382bfefc81461062157806382d72f7f146105df5780638ec68869146104d057806390e64d1314610498578063bb4b573414610439578063bf44497a146103df578063c947611f14610387578063cbe9e5ef1461032d578063ce516507146102cf578063f3ffe13f14610261578063f698da2514610221578063f851a440146101d15763fe19f4951461016e575f80fd5b346101cd575f7ffffffffffffffffffffffffffffffffffffffffffffffffffffffffffffffffc3601126101cd57602060405164ffffffffff7f0000000000000000000000000000000000000000000000000000000000000000168152f35b5f80fd5b346101cd575f7ffffffffffffffffffffffffffffffffffffffffffffffffffffffffffffffffc3601126101cd57602073ffffffffffffffffffffffffffffffffffffffff5f5416604051908152f35b346101cd575f7ffffffffffffffffffffffffffffffffffffffffffffffffffffffffffffffffc3601126101cd5760206102596126e1565b604051908152f35b346101cd575f7ffffffffffffffffffffffffffffffffffffffffffffffffffffffffffffffffc3601126101cd57602060405173ffffffffffffffffffffffffffffffffffffffff7f0000000000000000000000000000000000000000000000000000000000000000168152f35b346101cd5760207ffffffffffffffffffffffffffffffffffffffffffffffffffffffffffffffffc3601126101cd57602061032360043560ff6001918060081c5f526005602052161b60405f205416151590565b6040519015158152f35b346101cd575f7ffffffffffffffffffffffffffffffffffffffffffffffffffffffffffffffffc3601126101cd5760206040517f000000000000000000000000000000000000000000000000000000000000000015158152f35b346101cd575f7ffffffffffffffffffffffffffffffffffffffffffffffffffffffffffffffffc3601126101cd5760206040517f00000000000000000000000000000000000000000000000000000000000000008152f35b346101cd575f7ffffffffffffffffffffffffffffffffffffffffffffffffffffffffffffffffc3601126101cd5760206040517f000000000000000000000000000000000000000000000000000000000000000015158152f35b346101cd575f7ffffffffffffffffffffffffffffffffffffffffffffffffffffffffffffffffc3601126101cd57602060405164ffffffffff7f0000000000000000000000000000000000000000000000000000000000000000168152f35b346101cd575f7ffffffffffffffffffffffffffffffffffffffffffffffffffffffffffffffffc3601126101cd576020610323611a9c565b346101cd5760207ffffffffffffffffffffffffffffffffffffffffffffffffffffffffffffffffc3601126101cd577f000000000000000000000000000000000000000000000000000000000000000073ffffffffffffffffffffffffffffffffffffffff166004353382036105af576004548082101561058157816040917fcafa56d109bc30839f1bad76f9d17abcbd6c936490d4ec0fbc6d331bf89f92af9360045582519182526020820152a2005b7f173c9c82000000000000000000000000000000000000000000000000000000005f5260045260245260445ffd5b507fead08252000000000000000000000000000000000000000000000000000000005f526004523360245260445ffd5b346101cd575f7ffffffffffffffffffffffffffffffffffffffffffffffffffffffffffffffffc3601126101cd57602064ffffffffff60025416604051908152f35b346101cd575f7ffffffffffffffffffffffffffffffffffffffffffffffffffffffffffffffffc3601126101cd57602060405173ffffffffffffffffffffffffffffffffffffffff7f0000000000000000000000000000000000000000000000000000000000000000168152f35b346101cd575f7ffffffffffffffffffffffffffffffffffffffffffffffffffffffffffffffffc3601126101cd57602060405164ffffffffff7f0000000000000000000000000000000000000000000000000000000000000000168152f35b346101cd5760207ffffffffffffffffffffffffffffffffffffffffffffffffffffffffffffffffc3601126101cd5773ffffffffffffffffffffffffffffffffffffffff61073a6119b8565b165f52600760205260405f20604051806020835491828152019081935f5260205f20905f5b8181106107b7575050508161077591038261182e565b604051918291602083019060208452518091526040830191905f5b81811061079e575050500390f35b8251845285945060209384019390920191600101610790565b825484526020909301926001928301920161075f565b346101cd5760207ffffffffffffffffffffffffffffffffffffffffffffffffffffffffffffffffc3601126101cd5773ffffffffffffffffffffffffffffffffffffffff6108196119b8565b6108216125b1565b16807fffffffffffffffffffffffff00000000000000000000000000000000000000005f5416175f55337fbdd36143ee09de60bdefca70680e0f71189b2ed7acee364b53917ad433fdaf805f80a3005b346101cd575f7ffffffffffffffffffffffffffffffffffffffffffffffffffffffffffffffffc3601126101cd57602060405160018152f35b346101cd575f7ffffffffffffffffffffffffffffffffffffffffffffffffffffffffffffffffc3601126101cd57602060405164ffffffffff7f0000000000000000000000000000000000000000000000000000000000000000168152f35b346101cd575f7ffffffffffffffffffffffffffffffffffffffffffffffffffffffffffffffffc3601126101cd57602060405173ffffffffffffffffffffffffffffffffffffffff7f0000000000000000000000000000000000000000000000000000000000000000168152f35b346101cd575f7ffffffffffffffffffffffffffffffffffffffffffffffffffffffffffffffffc3601126101cd5760206040517f00000000000000000000000000000000000000000000000000000000000000008152f35b346101cd575f7ffffffffffffffffffffffffffffffffffffffffffffffffffffffffffffffffc3601126101cd5760206040517f00000000000000000000000000000000000000000000000000000000000000008152f35b346101cd575f7ffffffffffffffffffffffffffffffffffffffffffffffffffffffffffffffffc3601126101cd576020600454604051908152f35b346101cd575f7ffffffffffffffffffffffffffffffffffffffffffffffffffffffffffffffffc3601126101cd576040515f6003548060011c90600181168015610bb9575b602083108114610b8c57828552908115610b4a5750600114610aec575b610ae883610ad48185038261182e565b60405191829160208352602083019061195b565b0390f35b60035f9081527fc2575a0e9e593c00f959f8c92f12db2869c3395a3b0502d05e2516446f71f85b939250905b808210610b3057509091508101602001610ad4610ac4565b919260018160209254838588010152019101909291610b18565b7fffffffffffffffffffffffffffffffffffffffffffffffffffffffffffffff001660208086019190915291151560051b84019091019150610ad49050610ac4565b7f4e487b71000000000000000000000000000000000000000000000000000000005f52602260045260245ffd5b91607f1691610aa7565b610be4610bdf610bd236611a0c565b8295918593858097611b87565b611fda565b005b346101cd575f7ffffffffffffffffffffffffffffffffffffffffffffffffffffffffffffffffc3601126101cd57602060405164ffffffffff7f0000000000000000000000000000000000000000000000000000000000000000168152f35b346101cd575f7ffffffffffffffffffffffffffffffffffffffffffffffffffffffffffffffffc3601126101cd57600454604051907fb0fa59e8000000000000000000000000000000000000000000000000000000008252600482015260208160248173ffffffffffffffffffffffffffffffffffffffff7f0000000000000000000000000000000000000000000000000000000000000000165afa8015610d2c575f90610cf9575b602090604051908152f35b506020813d602011610d24575b81610d136020938361182e565b810103126101cd5760209051610cee565b3d9150610d06565b6040513d5f823e3d90fd5b346101cd575f7ffffffffffffffffffffffffffffffffffffffffffffffffffffffffffffffffc3601126101cd57610ae8610ad461186f565b60e07ffffffffffffffffffffffffffffffffffffffffffffffffffffffffffffffffc3601126101cd5760043560243573ffffffffffffffffffffffffffffffffffffffff8116908181036101cd576044359273ffffffffffffffffffffffffffffffffffffffff8416918285036101cd57606435926fffffffffffffffffffffffffffffffff8416918285036101cd576084359064ffffffffff82168092036101cd5760a43567ffffffffffffffff81116101cd57610e349036906004016119db565b9160c43567ffffffffffffffff81116101cd57366023820112156101cd5780600401359067ffffffffffffffff82116101cd5736602483830101116101cd57610f49915f602060428f8f610e888f92611ad9565b60405190848201927fb0f12a3a6931229a836eaab08aeb1ebe2ddebad3bfd83f30d39f6c4a3b0f4f818452604083015260608201528c60808201528d60a08201528b60c082015260c08152610ede60e08261182e565b519020610ee96126e1565b90604051917f19010000000000000000000000000000000000000000000000000000000000008352600283015260228201522092806024610f2982611b1e565b96610f37604051988961182e565b828852018387013784010152836127f5565b1561153e5764ffffffffff42169384811161150e57509087610f6c939288611b87565b610f74611f95565b907f000000000000000000000000000000000000000000000000000000000000000064ffffffffff1680611506575081525b64ffffffffff610fda818351167f000000000000000000000000000000000000000000000000000000000000000090611fbe565b1660208201819052421061109257505060018561103d61108d937fb0e61d06868c2b844ea5ce4c42d43866e18f6d8131ca2e2ce1af2ccc10e8d0ad97987f0000000000000000000000000000000000000000000000000000000000000000612602565b604051948594859273ffffffffffffffffffffffffffffffffffffffff906fffffffffffffffffffffffffffffffff60609497969397608087019887521660208601521660408401521515910152565b0390a2005b90959392915f7f000000000000000000000000000000000000000000000000000000000000000064ffffffffff81166114ed575b506110cf611f95565b916110fa7f000000000000000000000000000000000000000000000000000000000000000082612946565b6111039061279e565b6fffffffffffffffffffffffffffffffff1683526111417f000000000000000000000000000000000000000000000000000000000000000082612946565b61114a9061279e565b9060208401916fffffffffffffffffffffffffffffffff1682525f5473ffffffffffffffffffffffffffffffffffffffff16946040519561118a87611811565b8652602086019a8b5260408601918252606086017f000000000000000000000000000000000000000000000000000000000000000073ffffffffffffffffffffffffffffffffffffffff168152608087017f00000000000000000000000000000000000000000000000000000000000000001515815260a08801917f00000000000000000000000000000000000000000000000000000000000000001515835260c0890193845261123961186f565b9460e08a019586526040519e8f9a7f74d213e5000000000000000000000000000000000000000000000000000000008c5260048c01608090525173ffffffffffffffffffffffffffffffffffffffff1660848c01525173ffffffffffffffffffffffffffffffffffffffff1660a48b0152516fffffffffffffffffffffffffffffffff1660c48a01525173ffffffffffffffffffffffffffffffffffffffff1660e489015251151561010488015251151561012487015251805164ffffffffff166101448701526020015164ffffffffff1661016486015251610184850161012090526101a4850161132a9161195b565b92516fffffffffffffffffffffffffffffffff166024850152516fffffffffffffffffffffffffffffffff16604484015264ffffffffff16606483015203857f000000000000000000000000000000000000000000000000000000000000000073ffffffffffffffffffffffffffffffffffffffff1691815a6020945f91f1948515610d2c575f956114b9575b50835f52600760205260405f2080546801000000000000000081101561148c576001810180835581101561145f575f91825260209182902001869055604080519283526fffffffffffffffffffffffffffffffff939093169082015273ffffffffffffffffffffffffffffffffffffffff9290921690820152600160608201527f6edacaef45d4eeb1d0fb82b2a0bbac8709e930057f116753d65da770427aad4690608090a3005b7f4e487b71000000000000000000000000000000000000000000000000000000005f52603260045260245ffd5b7f4e487b71000000000000000000000000000000000000000000000000000000005f52604160045260245ffd5b9094506020813d6020116114e5575b816114d56020938361182e565b810103126101cd575193856113b7565b3d91506114c8565b611500915064ffffffffff845116611fbe565b886110c6565b825250610fa6565b84907f875f3291000000000000000000000000000000000000000000000000000000005f5260045260245260445ffd5b7f9a943b04000000000000000000000000000000000000000000000000000000005f5260045ffd5b346101cd5760407ffffffffffffffffffffffffffffffffffffffffffffffffffffffffffffffffc3601126101cd5761159d6119b8565b602435906fffffffffffffffffffffffffffffffff82168092036101cd576115c36125b1565b64ffffffffff60025416801515806116bd575b806116ae575b611654575061160c82827f0000000000000000000000000000000000000000000000000000000000000000612602565b7f2e9d425ba8b27655048400b366d7b6a1f7180ebdb088e06bb7389704860ffe1f602073ffffffffffffffffffffffffffffffffffffffff805f5416936040519586521693a3005b7fe2e40a0c000000000000000000000000000000000000000000000000000000005f524260045264ffffffffff7f00000000000000000000000000000000000000000000000000000000000000001660245260445260645ffd5b506116b7611a9c565b156115dc565b5062093a80810164ffffffffff81116116de5764ffffffffff1642116115d6565b7f4e487b71000000000000000000000000000000000000000000000000000000005f52601160045260245ffd5b610be461173161171a36611a0c565b90611729849594969396611ad9565b853385611b87565b3390611fda565b346101cd575f7ffffffffffffffffffffffffffffffffffffffffffffffffffffffffffffffffc3601126101cd576040515f6001548060011c90600181168015611807575b602083108114610b8c57828552908115610b4a57506001146117a957610ae883610ad48185038261182e565b60015f9081527fb10e2d527612073b26eecdfd717e6a320cf44b4afac2b0732d9fcbe2b7fa0cf6939250905b8082106117ed57509091508101602001610ad4610ac4565b9192600181602092548385880101520191019092916117d5565b91607f169161177d565b610100810190811067ffffffffffffffff82111761148c57604052565b90601f7fffffffffffffffffffffffffffffffffffffffffffffffffffffffffffffffe0910116810190811067ffffffffffffffff82111761148c57604052565b604051905f6006548060011c9160018216918215611951575b602084108314610b8c57838652859290811561191457506001146118b5575b6118b39250038361182e565b565b5060065f90815290917ff652222313e28459528d920b65115c16c04f3efc82aaedc97be59f3f377c0d3f5b8183106118f85750509060206118b3928201016118a7565b60209193508060019154838589010152019101909184926118e0565b602092506118b39491507fffffffffffffffffffffffffffffffffffffffffffffffffffffffffffffff001682840152151560051b8201016118a7565b92607f1692611888565b91908251928382525f5b8481106119a35750507fffffffffffffffffffffffffffffffffffffffffffffffffffffffffffffffe0601f845f6020809697860101520116010190565b80602080928401015182828601015201611965565b6004359073ffffffffffffffffffffffffffffffffffffffff821682036101cd57565b9181601f840112156101cd5782359167ffffffffffffffff83116101cd576020808501948460051b0101116101cd57565b9060807ffffffffffffffffffffffffffffffffffffffffffffffffffffffffffffffffc8301126101cd576004359160243573ffffffffffffffffffffffffffffffffffffffff811681036101cd57916044356fffffffffffffffffffffffffffffffff811681036101cd57916064359067ffffffffffffffff82116101cd57611a98916004016119db565b9091565b64ffffffffff7f0000000000000000000000000000000000000000000000000000000000000000168015159081611ad1575090565b905042101590565b73ffffffffffffffffffffffffffffffffffffffff1615611af657565b7f036fcd52000000000000000000000000000000000000000000000000000000005f5260045ffd5b67ffffffffffffffff811161148c57601f017fffffffffffffffffffffffffffffffffffffffffffffffffffffffffffffffe01660200190565b3d15611b82573d90611b6982611b1e565b91611b77604051938461182e565b82523d5f602084013e565b606090565b939491909264ffffffffff7f000000000000000000000000000000000000000000000000000000000000000016428111611f665750611bc4611a9c565b611f0f577f00000000000000000000000000000000000000000000000000000000000000009373ffffffffffffffffffffffffffffffffffffffff851692600454604051907fb0fa59e80000000000000000000000000000000000000000000000000000000082526004820152602081602481885afa908115610d2c575f91611edd575b50803410611eae5750611c728760ff6001918060081c5f526005602052161b60405f205416151590565b611e82576fffffffffffffffffffffffffffffffff6040519173ffffffffffffffffffffffffffffffffffffffff60208401948a865216604084015216606082015260608152611cc360808261182e565b5190206040516020810191825260208152611cdf60408261182e565b5190209067ffffffffffffffff871161148c578660051b60405197611d07602083018a61182e565b885260208801908201913683116101cd57905b828210611e7257505050925f935b8651851015611d6a5760208560051b88010151908181105f14611d59575f52602052600160405f205b940193611d28565b905f52602052600160405f20611d51565b919492955092507f000000000000000000000000000000000000000000000000000000000000000003611e4a5760025464ffffffffff811615611e16575b508060081c5f526005602052600160ff60405f2092161b815417905534611dcd575050565b5f8080809334905af1611dde611b58565b5015611de75750565b7fe57d366c000000000000000000000000000000000000000000000000000000005f526004523460245260445ffd5b7fffffffffffffffffffffffffffffffffffffffffffffffffffffff0000000000164264ffffffffff16176002555f611da8565b7fb4f06787000000000000000000000000000000000000000000000000000000005f5260045ffd5b8135815260209182019101611d1a565b867f02bf1aba000000000000000000000000000000000000000000000000000000005f5260045260245ffd5b7fa164c6b4000000000000000000000000000000000000000000000000000000005f523460045260245260445ffd5b90506020813d602011611f07575b81611ef86020938361182e565b810103126101cd57515f611c48565b3d9150611eeb565b7fdf4bae05000000000000000000000000000000000000000000000000000000005f524260045264ffffffffff7f00000000000000000000000000000000000000000000000000000000000000001660245260445ffd5b7f14659648000000000000000000000000000000000000000000000000000000005f524260045260245260445ffd5b604051906040820182811067ffffffffffffffff82111761148c576040525f6020838281520152565b9064ffffffffff8091169116019064ffffffffff82116116de57565b92919091611fe6611f95565b7f000000000000000000000000000000000000000000000000000000000000000064ffffffffff16806125aa575064ffffffffff421681525b64ffffffffff612053818351167f000000000000000000000000000000000000000000000000000000000000000090611fbe565b1660208201819052421061213357509161212e5f73ffffffffffffffffffffffffffffffffffffffff93856120dc6fffffffffffffffffffffffffffffffff7fb0e61d06868c2b844ea5ce4c42d43866e18f6d8131ca2e2ce1af2ccc10e8d0ad9816837f0000000000000000000000000000000000000000000000000000000000000000612602565b6040519586951697859273ffffffffffffffffffffffffffffffffffffffff906fffffffffffffffffffffffffffffffff60609497969397608087019887521660208601521660408401521515910152565b0390a2565b93925f7f000000000000000000000000000000000000000000000000000000000000000064ffffffffff8116612591575b5061216d611f95565b6fffffffffffffffffffffffffffffffff8416916121ab7f000000000000000000000000000000000000000000000000000000000000000084612946565b6121b49061279e565b6fffffffffffffffffffffffffffffffff1682526121f27f000000000000000000000000000000000000000000000000000000000000000084612946565b6121fb9061279e565b60208301906fffffffffffffffffffffffffffffffff1681525f5473ffffffffffffffffffffffffffffffffffffffff16936040519461223a86611811565b8552602085019973ffffffffffffffffffffffffffffffffffffffff89168b5260408601918252606086017f000000000000000000000000000000000000000000000000000000000000000073ffffffffffffffffffffffffffffffffffffffff168152608087017f00000000000000000000000000000000000000000000000000000000000000001515815260a08801917f00000000000000000000000000000000000000000000000000000000000000001515835260c0890193845261230061186f565b9460e08a019586526040519e8f9a7f74d213e5000000000000000000000000000000000000000000000000000000008c5260048c01608090525173ffffffffffffffffffffffffffffffffffffffff1660848c01525173ffffffffffffffffffffffffffffffffffffffff1660a48b0152516fffffffffffffffffffffffffffffffff1660c48a01525173ffffffffffffffffffffffffffffffffffffffff1660e489015251151561010488015251151561012487015251805164ffffffffff166101448701526020015164ffffffffff1661016486015251610184850161012090526101a485016123f19161195b565b92516fffffffffffffffffffffffffffffffff166024850152516fffffffffffffffffffffffffffffffff16604484015264ffffffffff16606483015203857f000000000000000000000000000000000000000000000000000000000000000073ffffffffffffffffffffffffffffffffffffffff1691815a6020945f91f1948515610d2c575f95612549575b5073ffffffffffffffffffffffffffffffffffffffff1692835f52600760205260405f2080546801000000000000000081101561148c576001810180835581101561145f577f6edacaef45d4eeb1d0fb82b2a0bbac8709e930057f116753d65da770427aad4694875f92612544948452602084200155604051948594859273ffffffffffffffffffffffffffffffffffffffff906fffffffffffffffffffffffffffffffff60609497969397608087019887521660208601521660408401521515910152565b0390a3565b9094506020813d602011612589575b816125656020938361182e565b810103126101cd57519373ffffffffffffffffffffffffffffffffffffffff61247e565b3d9150612558565b6125a4915064ffffffffff875116611fbe565b5f612164565b815261201f565b73ffffffffffffffffffffffffffffffffffffffff5f54163381036125d35750565b7fc6cce6a4000000000000000000000000000000000000000000000000000000005f526004523360245260445ffd5b916020915f916040519073ffffffffffffffffffffffffffffffffffffffff858301937fa9059cbb00000000000000000000000000000000000000000000000000000000855216602483015260448201526044815261266260648261182e565b519082855af115610d2c575f513d6126d8575073ffffffffffffffffffffffffffffffffffffffff81163b155b6126965750565b73ffffffffffffffffffffffffffffffffffffffff907f5274afe7000000000000000000000000000000000000000000000000000000005f521660045260245ffd5b6001141561268f565b467f00000000000000000000000000000000000000000000000000000000000000000361272c577f000000000000000000000000000000000000000000000000000000000000000090565b60405160208101907f8cad95687ba82c2ce50e74f7b754645e5117c3a5bec8151c0726d5857980a86682527f13cd784591b49af6fc220be53013eaddf1dc15399ca43850d206ea319aca082160408201524660608201523060808201526080815261279860a08261182e565b51902090565b6fffffffffffffffffffffffffffffffff81116127ca576fffffffffffffffffffffffffffffffff1690565b7f4916adce000000000000000000000000000000000000000000000000000000005f5260045260245ffd5b9190823b61286a579061280791612a13565b50600481101561283d5715918261281d57505090565b73ffffffffffffffffffffffffffffffffffffffff919250811691161490565b7f4e487b71000000000000000000000000000000000000000000000000000000005f52602160045260245ffd5b915f926128b96128e5859460405192839160208301957f1626ba7e000000000000000000000000000000000000000000000000000000008752602484015260406044840152606483019061195b565b037fffffffffffffffffffffffffffffffffffffffffffffffffffffffffffffffe0810183528261182e565b51915afa6128f1611b58565b81612938575b81612900575090565b90506020818051810103126101cd57602001517f1626ba7e000000000000000000000000000000000000000000000000000000001490565b9050602081511015906128f7565b9190917fffffffffffffffffffffffffffffffffffffffffffffffffffffffffffffffff83820983820291828083109203918083039214612a0257670de0b6b3a76400008210156129d2577faccb18165bd6fe31ae1cf318dc5b51eee0e1ba569b88cd74c1773b91fac106699394670de0b6b3a7640000910990828211900360ee1b910360121c170290565b84907f5173648d000000000000000000000000000000000000000000000000000000005f5260045260245260445ffd5b5050670de0b6b3a764000090049150565b8151919060418303612a4357612a3c9250602082015190606060408401519301515f1a90612a4d565b9192909190565b50505f9160029190565b91907f7fffffffffffffffffffffffffffffff5d576e7357a4501ddfe92f46681b20a08411612ad1579160209360809260ff5f9560405194855216868401526040830152606082015282805260015afa15610d2c575f5173ffffffffffffffffffffffffffffffffffffffff811615612ac757905f905f90565b505f906001905f90565b5050505f916003919056fea26469706673582212201f04677e289c1edbed088148c9704d4856bf34b6664d04977825ef626ad2541b64736f6c634300081d0033",
    "linkReferences": {}
  },
  "methodIdentifiers": {
    "CAMPAIGN_START_TIME()": "7ca3944d",
    "COMPTROLLER()": "5f82c67e",
    "EXPIRATION()": "bb4b5734",
    "IS_SABLIER_MERKLE()": "7423649b",
    "MERKLE_ROOT()": "51e75e8b",
    "SABLIER_LOCKUP()": "f3ffe13f",
    "STREAM_CANCELABLE()": "cbe9e5ef",
    "STREAM_TRANSFERABLE()": "bf44497a",
    "TOKEN()": "82bfefc8",
    "VESTING_CLIFF_DURATION()": "fe19f495",
    "VESTING_CLIFF_UNLOCK_PERCENTAGE()": "536378c3",
    "VESTING_START_TIME()": "6c0b1e8c",
    "VESTING_START_UNLOCK_PERCENTAGE()": "c947611f",
    "VESTING_TOTAL_DURATION()": "3b8d3fc5",
    "admin()": "f851a440",
    "calculateMinFeeWei()": "3a12a5bc",
    "campaignName()": "0724fda9",
    "claim(uint256,address,uint128,bytes32[])": "3f31ae3f",
    "claimTo(uint256,address,uint128,bytes32[])": "0854a79c",
    "claimViaSig(uint256,address,address,uint128,uint40,bytes32[],bytes)": "20743583",
    "claimedStreams(address)": "76c30a95",
    "clawback(address,uint128)": "1686c909",
    "domainSeparator()": "f698da25",
    "firstClaimTime()": "82d72f7f",
    "hasClaimed(uint256)": "ce516507",
    "hasExpired()": "90e64d13",
    "ipfsCID()": "49fc73dd",
    "lowerMinFeeUSD(uint256)": "8ec68869",
    "minFeeUSD()": "4e0bb8cc",
    "streamShape()": "23e53367",
    "transferAdmin(address)": "75829def"
  },
  "id": 103
}