{
  "abi": [
    {
      "type": "constructor",
      "inputs": [
        {
          "name": "params",
          "type": "tuple",
          "internalType": "struct MerkleInstant.ConstructorParams",
          "components": [
            {
              "name": "campaignName",
              "type": "string",
              "internalType": "string"
            },
            {
              "name": "campaignStartTime",
              "type": "uint40",
              "internalType": "uint40"
            },
            {
              "name": "expiration",
              "type": "uint40",
              "internalType": "uint40"
            },
            {
              "name": "initialAdmin",
              "type": "address",
              "internalType": "address"
            },
            {
              "name": "ipfsCID",
              "type": "string",
              "internalType": "string"
            },
            {
              "name": "merkleRoot",
              "type": "bytes32",
              "internalType": "bytes32"
            },
            {
              "name": "token",
              "type": "address",
              "internalType": "contract IERC20"
            }
          ]
        },
        {
          "name": "campaignCreator",
          "type": "address",
          "internalType": "address"
        },
        {
          "name": "comptroller",
          "type": "address",
          "internalType": "address"
        }
      ],
      "stateMutability": "nonpayable"
    },
    {
      "type": "function",
      "name": "CAMPAIGN_START_TIME",
      "inputs": [],
      "outputs": [
        {
          "name": "",
          "type": "uint40",
          "internalType": "uint40"
        }
      ],
      "stateMutability": "view"
    },
    {
      "type": "function",
      "name": "COMPTROLLER",
      "inputs": [],
      "outputs": [
        {
          "name": "",
          "type": "address",
          "internalType": "address"
        }
      ],
      "stateMutability": "view"
    },
    {
      "type": "function",
      "name": "EXPIRATION",
      "inputs": [],
      "outputs": [
        {
          "name": "",
          "type": "uint40",
          "internalType": "uint40"
        }
      ],
      "stateMutability": "view"
    },
    {
      "type": "function",
      "name": "IS_SABLIER_MERKLE",
      "inputs": [],
      "outputs": [
        {
          "name": "",
          "type": "bool",
          "internalType": "bool"
        }
      ],
      "stateMutability": "view"
    },
    {
      "type": "function",
      "name": "MERKLE_ROOT",
      "inputs": [],
      "outputs": [
        {
          "name": "",
          "type": "bytes32",
          "internalType": "bytes32"
        }
      ],
      "stateMutability": "view"
    },
    {
      "type": "function",
      "name": "TOKEN",
      "inputs": [],
      "outputs": [
        {
          "name": "",
          "type": "address",
          "internalType": "contract IERC20"
        }
      ],
      "stateMutability": "view"
    },
    {
      "type": "function",
      "name": "admin",
      "inputs": [],
      "outputs": [
        {
          "name": "",
          "type": "address",
          "internalType": "address"
        }
      ],
      "stateMutability": "view"
    },
    {
      "type": "function",
      "name": "calculateMinFeeWei",
      "inputs": [],
      "outputs": [
        {
          "name": "",
          "type": "uint256",
          "internalType": "uint256"
        }
      ],
      "stateMutability": "view"
    },
    {
      "type": "function",
      "name": "campaignName",
      "inputs": [],
      "outputs": [
        {
          "name": "",
          "type": "string",
          "internalType": "string"
        }
      ],
      "stateMutability": "view"
    },
    {
      "type": "function",
      "name": "claim",
      "inputs": [
        {
          "name": "index",
          "type": "uint256",
          "internalType": "uint256"
        },
        {
          "name": "recipient",
          "type": "address",
          "internalType": "address"
        },
        {
          "name": "amount",
          "type": "uint128",
          "internalType": "uint128"
        },
        {
          "name": "merkleProof",
          "type": "bytes32[]",
          "internalType": "bytes32[]"
        }
      ],
      "outputs": [],
      "stateMutability": "payable"
    },
    {
      "type": "function",
      "name": "claimTo",
      "inputs": [
        {
          "name": "index",
          "type": "uint256",
          "internalType": "uint256"
        },
        {
          "name": "to",
          "type": "address",
          "internalType": "address"
        },
        {
          "name": "amount",
          "type": "uint128",
          "internalType": "uint128"
        },
        {
          "name": "merkleProof",
          "type": "bytes32[]",
          "internalType": "bytes32[]"
        }
      ],
      "outputs": [],
      "stateMutability": "payable"
    },
    {
      "type": "function",
      "name": "claimViaSig",
      "inputs": [
        {
          "name": "index",
          "type": "uint256",
          "internalType": "uint256"
        },
        {
          "name": "recipient",
          "type": "address",
          "internalType": "address"
        },
        {
          "name": "to",
          "type": "address",
          "internalType": "address"
        },
        {
          "name": "amount",
          "type": "uint128",
          "internalType": "uint128"
        },
        {
          "name": "validFrom",
          "type": "uint40",
          "internalType": "uint40"
        },
        {
          "name": "merkleProof",
          "type": "bytes32[]",
          "internalType": "bytes32[]"
        },
        {
          "name": "signature",
          "type": "bytes",
          "internalType": "bytes"
        }
      ],
      "outputs": [],
      "stateMutability": "payable"
    },
    {
      "type": "function",
      "name": "clawback",
      "inputs": [
        {
          "name": "to",
          "type": "address",
          "internalType": "address"
        },
        {
          "name": "amount",
          "type": "uint128",
          "internalType": "uint128"
        }
      ],
      "outputs": [],
      "stateMutability": "nonpayable"
    },
    {
      "type": "function",
      "name": "domainSeparator",
      "inputs": [],
      "outputs": [
        {
          "name": "",
          "type": "bytes32",
          "internalType": "bytes32"
        }
      ],
      "stateMutability": "view"
    },
    {
      "type": "function",
      "name": "firstClaimTime",
      "inputs": [],
      "outputs": [
        {
          "name": "",
          "type": "uint40",
          "internalType": "uint40"
        }
      ],
      "stateMutability": "view"
    },
    {
      "type": "function",
      "name": "hasClaimed",
      "inputs": [
        {
          "name": "index",
          "type": "uint256",
          "internalType": "uint256"
        }
      ],
      "outputs": [
        {
          "name": "",
          "type": "bool",
          "internalType": "bool"
        }
      ],
      "stateMutability": "view"
    },
    {
      "type": "function",
      "name": "hasExpired",
      "inputs": [],
      "outputs": [
        {
          "name": "",
          "type": "bool",
          "internalType": "bool"
        }
      ],
      "stateMutability": "view"
    },
    {
      "type": "function",
      "name": "ipfsCID",
      "inputs": [],
      "outputs": [
        {
          "name": "",
          "type": "string",
          "internalType": "string"
        }
      ],
      "stateMutability": "view"
    },
    {
      "type": "function",
      "name": "lowerMinFeeUSD",
      "inputs": [
        {
          "name": "newMinFeeUSD",
          "type": "uint256",
          "internalType": "uint256"
        }
      ],
      "outputs": [],
      "stateMutability": "nonpayable"
    },
    {
      "type": "function",
      "name": "minFeeUSD",
      "inputs": [],
      "outputs": [
        {
          "name": "",
          "type": "uint256",
          "internalType": "uint256"
        }
      ],
      "stateMutability": "view"
    },
    {
      "type": "function",
      "name": "transferAdmin",
      "inputs": [
        {
          "name": "newAdmin",
          "type": "address",
          "internalType": "address"
        }
      ],
      "outputs": [],
      "stateMutability": "nonpayable"
    },
    {
      "type": "event",
      "name": "ClaimInstant",
      "inputs": [
        {
          "name": "index",
          "type": "uint256",
          "indexed": false,
          "internalType": "uint256"
        },
        {
          "name": "recipient",
          "type": "address",
          "indexed": true,
          "internalType": "address"
        },
        {
          "name": "amount",
          "type": "uint128",
          "indexed": false,
          "internalType": "uint128"
        },
        {
          "name": "to",
          "type": "address",
          "indexed": false,
          "internalType": "address"
        },
        {
          "name": "viaSig",
          "type": "bool",
          "indexed": false,
          "internalType": "bool"
        }
      ],
      "anonymous": false
    },
    {
      "type": "event",
      "name": "Clawback",
      "inputs": [
        {
          "name": "admin",
          "type": "address",
          "indexed": true,
          "internalType": "address"
        },
        {
          "name": "to",
          "type": "address",
          "indexed": true,
          "internalType": "address"
        },
        {
          "name": "amount",
          "type": "uint128",
          "indexed": false,
          "internalType": "uint128"
        }
      ],
      "anonymous": false
    },
    {
      "type": "event",
      "name": "LowerMinFeeUSD",
      "inputs": [
        {
          "name": "comptroller",
          "type": "address",
          "indexed": true,
          "internalType": "address"
        },
        {
          "name": "newMinFeeUSD",
          "type": "uint256",
          "indexed": false,
          "internalType": "uint256"
        },
        {
          "name": "previousMinFeeUSD",
          "type": "uint256",
          "indexed": false,
          "internalType": "uint256"
        }
      ],
      "anonymous": false
    },
    {
      "type": "event",
      "name": "TransferAdmin",
      "inputs": [
        {
          "name": "oldAdmin",
          "type": "address",
          "indexed": true,
          "internalType": "address"
        },
        {
          "name": "newAdmin",
          "type": "address",
          "indexed": true,
          "internalType": "address"
        }
      ],
      "anonymous": false
    },
    {
      "type": "error",
      "name": "CallerNotAdmin",
      "inputs": [
        {
          "name": "admin",
          "type": "address",
          "internalType": "address"
        },
        {
          "name": "caller",
          "type": "address",
          "internalType": "address"
        }
      ]
    },
    {
      "type": "error",
      "name": "SablierMerkleBase_CallerNotComptroller",
      "inputs": [
        {
          "name": "comptroller",
          "type": "address",
          "internalType": "address"
        },
        {
          "name": "caller",
          "type": "address",
          "internalType": "address"
        }
      ]
    },
    {
      "type": "error",
      "name": "SablierMerkleBase_CampaignExpired",
      "inputs": [
        {
          "name": "blockTimestamp",
          "type": "uint256",
          "internalType": "uint256"
        },
        {
          "name": "expiration",
          "type": "uint40",
          "internalType": "uint40"
        }
      ]
    },
    {
      "type": "error",
      "name": "SablierMerkleBase_CampaignNotStarted",
      "inputs": [
        {
          "name": "blockTimestamp",
          "type": "uint256",
          "internalType": "uint256"
        },
        {
          "name": "campaignStartTime",
          "type": "uint40",
          "internalType": "uint40"
        }
      ]
    },
    {
      "type": "error",
      "name": "SablierMerkleBase_ClawbackNotAllowed",
      "inputs": [
        {
          "name": "blockTimestamp",
          "type": "uint256",
          "internalType": "uint256"
        },
        {
          "name": "expiration",
          "type": "uint40",
          "internalType": "uint40"
        },
        {
          "name": "firstClaimTime",
          "type": "uint40",
          "internalType": "uint40"
        }
      ]
    },
    {
      "type": "error",
      "name": "SablierMerkleBase_FeeTransferFailed",
      "inputs": [
        {
          "name": "feeRecipient",
          "type": "address",
          "internalType": "address"
        },
        {
          "name": "feeAmount",
          "type": "uint256",
          "internalType": "uint256"
        }
      ]
    },
    {
      "type": "error",
      "name": "SablierMerkleBase_IndexClaimed",
      "inputs": [
        {
          "name": "index",
          "type": "uint256",
          "internalType": "uint256"
        }
      ]
    },
    {
      "type": "error",
      "name": "SablierMerkleBase_InsufficientFeePayment",
      "inputs": [
        {
          "name": "feePaid",
          "type": "uint256",
          "internalType": "uint256"
        },
        {
          "name": "minFeeWei",
          "type": "uint256",
          "internalType": "uint256"
        }
      ]
    },
    {
      "type": "error",
      "name": "SablierMerkleBase_InvalidProof",
      "inputs": []
    },
    {
      "type": "error",
      "name": "SablierMerkleBase_InvalidSignature",
      "inputs": []
    },
    {
      "type": "error",
      "name": "SablierMerkleBase_NewMinFeeUSDNotLower",
      "inputs": [
        {
          "name": "currentMinFeeUSD",
          "type": "uint256",
          "internalType": "uint256"
        },
        {
          "name": "newMinFeeUSD",
          "type": "uint256",
          "internalType": "uint256"
        }
      ]
    },
    {
      "type": "error",
      "name": "SablierMerkleBase_SignatureNotYetValid",
      "inputs": [
        {
          "name": "validFrom",
          "type": "uint40",
          "internalType": "uint40"
        },
        {
          "name": "blockTimestamp",
          "type": "uint40",
          "internalType": "uint40"
        }
      ]
    },
    {
      "type": "error",
      "name": "SablierMerkleBase_ToZeroAddress",
      "inputs": []
    },
    {
      "type": "error",
      "name": "SafeERC20FailedOperation",
      "inputs": [
        {
          "name": "token",
          "type": "address",
          "internalType": "address"
        }
      ]
    }
  ],
  "bytecode": {
    "object": "0x61016080604052346103cc57612059803803809161001d82856105bf565b833981016060828203126103cc5781516001600160401b0381116103cc5782019160e0838303126103cc576040519160e083016001600160401b038111848210176104d05760405283516001600160401b0381116103cc57816100819186016105e2565b835261008f6020850161064f565b93602084019485526100a36040820161064f565b91604085019283526100b760608301610661565b60608601908152608083015190916001600160401b0382116103cc576100de9184016105e2565b9485608082015260c060a0840151938460a084015201519360018060a01b038516948581036103cc5760c083015264ffffffffff8061012b604061012460208b01610661565b9901610661565b93519951169151169260018060a01b039051168060018060a01b03195f5416175f55604051905f7fbdd36143ee09de60bdefca70680e0f71189b2ed7acee364b53917ad433fdaf808180a34660805260208101907f8cad95687ba82c2ce50e74f7b754645e5117c3a5bec8151c0726d5857980a86682527f13cd784591b49af6fc220be53013eaddf1dc15399ca43850d206ea319aca08216040820152466060820152306080820152608081526101e360a0826105bf565b51902060a05260c05260e05261010052610120526101405282516001600160401b0381116104d057600154600181811c911680156105b5575b60208210146104b257601f8111610552575b506020601f82116001146104ef57819293945f926104e4575b50508160011b915f199060031b1c1916176001555b81516001600160401b0381116104d057600354600181811c911680156104c6575b60208210146104b257601f811161044f575b50602092601f82116001146103ee57928192935f926103e3575b50508160011b915f199060031b1c1916176003555b60e05160405163111b863560e31b81525f60048201526001600160a01b0392831660248201529160209183916044918391165afa9081156103d8575f916103a2575b506004556040516119e390816106768239608051816116d9015260a051816116ff015260c051818181610483015261110f015260e0518181816102ba015281816105ce01528181610883015261114501526101005181818161022d01528181610cda0152818161101f01526114b901526101205181818161062701526112ee01526101405181818161042401528181610b2901528181610c3f01526115660152f35b90506020813d6020116103d0575b816103bd602093836105bf565b810103126103cc57515f610300565b5f80fd5b3d91506103b0565b6040513d5f823e3d90fd5b015190505f806102a9565b601f1982169360035f52805f20915f5b868110610437575083600195961061041f575b505050811b016003556102be565b01515f1960f88460031b161c191690555f8080610411565b919260206001819286850151815501940192016103fe565b60035f527fc2575a0e9e593c00f959f8c92f12db2869c3395a3b0502d05e2516446f71f85b601f830160051c810191602084106104a8575b601f0160051c01905b81811061049d575061028f565b5f8155600101610490565b9091508190610487565b634e487b7160e01b5f52602260045260245ffd5b90607f169061027d565b634e487b7160e01b5f52604160045260245ffd5b015190505f80610247565b601f1982169060015f52805f20915f5b81811061053a57509583600195969710610522575b505050811b0160015561025c565b01515f1960f88460031b161c191690555f8080610514565b9192602060018192868b0151815501940192016104ff565b60015f527fb10e2d527612073b26eecdfd717e6a320cf44b4afac2b0732d9fcbe2b7fa0cf6601f830160051c810191602084106105ab575b601f0160051c01905b8181106105a0575061022e565b5f8155600101610593565b909150819061058a565b90607f169061021c565b601f909101601f19168101906001600160401b038211908210176104d057604052565b81601f820112156103cc578051906001600160401b0382116104d05760405192610616601f8401601f1916602001856105bf565b828452602083830101116103cc575f5b82811061063a57505060205f918301015290565b80602080928401015182828701015201610626565b519064ffffffffff821682036103cc57565b51906001600160a01b03821682036103cc5756fe60806040526004361015610011575f80fd5b5f3560e01c80630724fda914610d8f5780630854a79c14610d625780631686c90914610bbd57806320743583146108fb5780633a12a5bc146108095780633f31ae3f146107e657806349fc73dd146106855780634e0bb8cc1461064a57806351e75e8b146105f25780635f82c67e146105845780637423649b1461054b57806375829def146104a75780637ca3944d1461044857806382bfefc8146103da57806382d72f7f146103985780638ec688691461028957806390e64d1314610251578063bb4b5734146101f2578063ce51650714610194578063f698da25146101545763f851a44014610100575f80fd5b34610150575f7ffffffffffffffffffffffffffffffffffffffffffffffffffffffffffffffffc36011261015057602073ffffffffffffffffffffffffffffffffffffffff5f5416604051908152f35b5f80fd5b34610150575f7ffffffffffffffffffffffffffffffffffffffffffffffffffffffffffffffffc36011261015057602061018c6116d6565b604051908152f35b346101505760207ffffffffffffffffffffffffffffffffffffffffffffffffffffffffffffffffc3601126101505760206101e860043560ff6001918060081c5f526005602052161b60405f205416151590565b6040519015158152f35b34610150575f7ffffffffffffffffffffffffffffffffffffffffffffffffffffffffffffffffc36011261015057602060405164ffffffffff7f0000000000000000000000000000000000000000000000000000000000000000168152f35b34610150575f7ffffffffffffffffffffffffffffffffffffffffffffffffffffffffffffffffc3601126101505760206101e8611017565b346101505760207ffffffffffffffffffffffffffffffffffffffffffffffffffffffffffffffffc360112610150577f000000000000000000000000000000000000000000000000000000000000000073ffffffffffffffffffffffffffffffffffffffff16600435338203610368576004548082101561033a57816040917fcafa56d109bc30839f1bad76f9d17abcbd6c936490d4ec0fbc6d331bf89f92af9360045582519182526020820152a2005b7f173c9c82000000000000000000000000000000000000000000000000000000005f5260045260245260445ffd5b507fead08252000000000000000000000000000000000000000000000000000000005f526004523360245260445ffd5b34610150575f7ffffffffffffffffffffffffffffffffffffffffffffffffffffffffffffffffc36011261015057602064ffffffffff60025416604051908152f35b34610150575f7ffffffffffffffffffffffffffffffffffffffffffffffffffffffffffffffffc36011261015057602060405173ffffffffffffffffffffffffffffffffffffffff7f0000000000000000000000000000000000000000000000000000000000000000168152f35b34610150575f7ffffffffffffffffffffffffffffffffffffffffffffffffffffffffffffffffc36011261015057602060405164ffffffffff7f0000000000000000000000000000000000000000000000000000000000000000168152f35b346101505760207ffffffffffffffffffffffffffffffffffffffffffffffffffffffffffffffffc3601126101505773ffffffffffffffffffffffffffffffffffffffff6104f3610f33565b6104fb6115a6565b16807fffffffffffffffffffffffff00000000000000000000000000000000000000005f5416175f55337fbdd36143ee09de60bdefca70680e0f71189b2ed7acee364b53917ad433fdaf805f80a3005b34610150575f7ffffffffffffffffffffffffffffffffffffffffffffffffffffffffffffffffc36011261015057602060405160018152f35b34610150575f7ffffffffffffffffffffffffffffffffffffffffffffffffffffffffffffffffc36011261015057602060405173ffffffffffffffffffffffffffffffffffffffff7f0000000000000000000000000000000000000000000000000000000000000000168152f35b34610150575f7ffffffffffffffffffffffffffffffffffffffffffffffffffffffffffffffffc3601126101505760206040517f00000000000000000000000000000000000000000000000000000000000000008152f35b34610150575f7ffffffffffffffffffffffffffffffffffffffffffffffffffffffffffffffffc360112610150576020600454604051908152f35b34610150575f7ffffffffffffffffffffffffffffffffffffffffffffffffffffffffffffffffc360112610150576040515f6003548060011c906001811680156107dc575b6020831081146107af5782855290811561076d575060011461070f575b61070b836106f781850382610e68565b604051918291602083526020830190610ed6565b0390f35b60035f9081527fc2575a0e9e593c00f959f8c92f12db2869c3395a3b0502d05e2516446f71f85b939250905b808210610753575090915081016020016106f76106e7565b91926001816020925483858801015201910190929161073b565b7fffffffffffffffffffffffffffffffffffffffffffffffffffffffffffffff001660208086019190915291151560051b840190910191506106f790506106e7565b7f4e487b71000000000000000000000000000000000000000000000000000000005f52602260045260245ffd5b91607f16916106ca565b6108076108026107f536610f87565b8295918593858097611102565b611510565b005b34610150575f7ffffffffffffffffffffffffffffffffffffffffffffffffffffffffffffffffc36011261015057600454604051907fb0fa59e8000000000000000000000000000000000000000000000000000000008252600482015260208160248173ffffffffffffffffffffffffffffffffffffffff7f0000000000000000000000000000000000000000000000000000000000000000165afa80156108f0575f906108bd575b602090604051908152f35b506020813d6020116108e8575b816108d760209383610e68565b8101031261015057602090516108b2565b3d91506108ca565b6040513d5f823e3d90fd5b60e07ffffffffffffffffffffffffffffffffffffffffffffffffffffffffffffffffc360112610150576004356024359073ffffffffffffffffffffffffffffffffffffffff821691828103610150576044359073ffffffffffffffffffffffffffffffffffffffff82169182810361015057606435916fffffffffffffffffffffffffffffffff831692838103610150576084359064ffffffffff82168092036101505760a43567ffffffffffffffff8111610150576109c0903690600401610f56565b93909260c43567ffffffffffffffff811161015057366023820112156101505780600401359067ffffffffffffffff821161015057366024838301011161015057610ad9915f602060428f8f908f8f908f610a1a90611054565b60405192868401947fb0f12a3a6931229a836eaab08aeb1ebe2ddebad3bfd83f30d39f6c4a3b0f4f81865260408501526060840152608083015260a08201528860c082015260c08152610a6e60e082610e68565b519020610a796116d6565b90604051917f19010000000000000000000000000000000000000000000000000000000000008352600283015260228201522092806024610ab982611099565b96610ac76040519889610e68565b82885201838701378401015284611793565b15610b955764ffffffffff421690818111610b67578a7f2fb6e76f6c88eb31f43c986c9c81d4bb10dc0a4c3e9b3fe6e8664124fa32698060808c8c8c610b4d818e610b278f8f8f8f8a611102565b7f00000000000000000000000000000000000000000000000000000000000000006115f7565b6040519283526020830152604082015260016060820152a2005b7f875f3291000000000000000000000000000000000000000000000000000000005f5260045260245260445ffd5b7f9a943b04000000000000000000000000000000000000000000000000000000005f5260045ffd5b346101505760407ffffffffffffffffffffffffffffffffffffffffffffffffffffffffffffffffc36011261015057610bf4610f33565b602435906fffffffffffffffffffffffffffffffff821680920361015057610c1a6115a6565b64ffffffffff6002541680151580610d14575b80610d05575b610cab5750610c6382827f00000000000000000000000000000000000000000000000000000000000000006115f7565b7f2e9d425ba8b27655048400b366d7b6a1f7180ebdb088e06bb7389704860ffe1f602073ffffffffffffffffffffffffffffffffffffffff805f5416936040519586521693a3005b7fe2e40a0c000000000000000000000000000000000000000000000000000000005f524260045264ffffffffff7f00000000000000000000000000000000000000000000000000000000000000001660245260445260645ffd5b50610d0e611017565b15610c33565b5062093a80810164ffffffffff8111610d355764ffffffffff164211610c2d565b7f4e487b71000000000000000000000000000000000000000000000000000000005f52601160045260245ffd5b610807610d88610d7136610f87565b90610d80849594969396611054565b853385611102565b3390611510565b34610150575f7ffffffffffffffffffffffffffffffffffffffffffffffffffffffffffffffffc360112610150576040515f6001548060011c90600181168015610e5e575b6020831081146107af5782855290811561076d5750600114610e005761070b836106f781850382610e68565b60015f9081527fb10e2d527612073b26eecdfd717e6a320cf44b4afac2b0732d9fcbe2b7fa0cf6939250905b808210610e44575090915081016020016106f76106e7565b919260018160209254838588010152019101909291610e2c565b91607f1691610dd4565b90601f7fffffffffffffffffffffffffffffffffffffffffffffffffffffffffffffffe0910116810190811067ffffffffffffffff821117610ea957604052565b7f4e487b71000000000000000000000000000000000000000000000000000000005f52604160045260245ffd5b91908251928382525f5b848110610f1e5750507fffffffffffffffffffffffffffffffffffffffffffffffffffffffffffffffe0601f845f6020809697860101520116010190565b80602080928401015182828601015201610ee0565b6004359073ffffffffffffffffffffffffffffffffffffffff8216820361015057565b9181601f840112156101505782359167ffffffffffffffff8311610150576020808501948460051b01011161015057565b9060807ffffffffffffffffffffffffffffffffffffffffffffffffffffffffffffffffc830112610150576004359160243573ffffffffffffffffffffffffffffffffffffffff8116810361015057916044356fffffffffffffffffffffffffffffffff8116810361015057916064359067ffffffffffffffff82116101505761101391600401610f56565b9091565b64ffffffffff7f000000000000000000000000000000000000000000000000000000000000000016801515908161104c575090565b905042101590565b73ffffffffffffffffffffffffffffffffffffffff161561107157565b7f036fcd52000000000000000000000000000000000000000000000000000000005f5260045ffd5b67ffffffffffffffff8111610ea957601f017fffffffffffffffffffffffffffffffffffffffffffffffffffffffffffffffe01660200190565b3d156110fd573d906110e482611099565b916110f26040519384610e68565b82523d5f602084013e565b606090565b939491909264ffffffffff7f0000000000000000000000000000000000000000000000000000000000000000164281116114e1575061113f611017565b61148a577f00000000000000000000000000000000000000000000000000000000000000009373ffffffffffffffffffffffffffffffffffffffff851692600454604051907fb0fa59e80000000000000000000000000000000000000000000000000000000082526004820152602081602481885afa9081156108f0575f91611458575b5080341061142957506111ed8760ff6001918060081c5f526005602052161b60405f205416151590565b6113fd576fffffffffffffffffffffffffffffffff6040519173ffffffffffffffffffffffffffffffffffffffff60208401948a86521660408401521660608201526060815261123e608082610e68565b519020604051602081019182526020815261125a604082610e68565b5190209067ffffffffffffffff8711610ea9578660051b60405197611282602083018a610e68565b8852602088019082019136831161015057905b8282106113ed57505050925f935b86518510156112e55760208560051b88010151908181105f146112d4575f52602052600160405f205b9401936112a3565b905f52602052600160405f206112cc565b919492955092507f0000000000000000000000000000000000000000000000000000000000000000036113c55760025464ffffffffff811615611391575b508060081c5f526005602052600160ff60405f2092161b815417905534611348575050565b5f8080809334905af16113596110d3565b50156113625750565b7fe57d366c000000000000000000000000000000000000000000000000000000005f526004523460245260445ffd5b7fffffffffffffffffffffffffffffffffffffffffffffffffffffff0000000000164264ffffffffff16176002555f611323565b7fb4f06787000000000000000000000000000000000000000000000000000000005f5260045ffd5b8135815260209182019101611295565b867f02bf1aba000000000000000000000000000000000000000000000000000000005f5260045260245ffd5b7fa164c6b4000000000000000000000000000000000000000000000000000000005f523460045260245260445ffd5b90506020813d602011611482575b8161147360209383610e68565b8101031261015057515f6111c3565b3d9150611466565b7fdf4bae05000000000000000000000000000000000000000000000000000000005f524260045264ffffffffff7f00000000000000000000000000000000000000000000000000000000000000001660245260445ffd5b7f14659648000000000000000000000000000000000000000000000000000000005f524260045260245260445ffd5b9260809173ffffffffffffffffffffffffffffffffffffffff7f2fb6e76f6c88eb31f43c986c9c81d4bb10dc0a4c3e9b3fe6e8664124fa326980946fffffffffffffffffffffffffffffffff82941661158a81837f00000000000000000000000000000000000000000000000000000000000000006115f7565b60405197885260208801521660408601525f60608601521692a2565b73ffffffffffffffffffffffffffffffffffffffff5f54163381036115c85750565b7fc6cce6a4000000000000000000000000000000000000000000000000000000005f526004523360245260445ffd5b916020915f916040519073ffffffffffffffffffffffffffffffffffffffff858301937fa9059cbb000000000000000000000000000000000000000000000000000000008552166024830152604482015260448152611657606482610e68565b519082855af1156108f0575f513d6116cd575073ffffffffffffffffffffffffffffffffffffffff81163b155b61168b5750565b73ffffffffffffffffffffffffffffffffffffffff907f5274afe7000000000000000000000000000000000000000000000000000000005f521660045260245ffd5b60011415611684565b467f000000000000000000000000000000000000000000000000000000000000000003611721577f000000000000000000000000000000000000000000000000000000000000000090565b60405160208101907f8cad95687ba82c2ce50e74f7b754645e5117c3a5bec8151c0726d5857980a86682527f13cd784591b49af6fc220be53013eaddf1dc15399ca43850d206ea319aca082160408201524660608201523060808201526080815261178d60a082610e68565b51902090565b9190823b61180857906117a5916118e4565b5060048110156117db571591826117bb57505090565b73ffffffffffffffffffffffffffffffffffffffff919250811691161490565b7f4e487b71000000000000000000000000000000000000000000000000000000005f52602160045260245ffd5b915f92611857611883859460405192839160208301957f1626ba7e0000000000000000000000000000000000000000000000000000000087526024840152604060448401526064830190610ed6565b037fffffffffffffffffffffffffffffffffffffffffffffffffffffffffffffffe08101835282610e68565b51915afa61188f6110d3565b816118d6575b8161189e575090565b905060208180518101031261015057602001517f1626ba7e000000000000000000000000000000000000000000000000000000001490565b905060208151101590611895565b81519190604183036119145761190d9250602082015190606060408401519301515f1a9061191e565b9192909190565b50505f9160029190565b91907f7fffffffffffffffffffffffffffffff5d576e7357a4501ddfe92f46681b20a084116119a2579160209360809260ff5f9560405194855216868401526040830152606082015282805260015afa156108f0575f5173ffffffffffffffffffffffffffffffffffffffff81161561199857905f905f90565b505f906001905f90565b5050505f916003919056fea2646970667358221220e1a5796c5d39081e445e6cb7bffef0de7d7178735d085d0c9fa36d890174830664736f6c634300081d0033",
    "linkReferences": {}
  },
  "methodIdentifiers": {
    "CAMPAIGN_START_TIME()": "7ca3944d",
    "COMPTROLLER()": "5f82c67e",
    "EXPIRATION()": "bb4b5734",
    "IS_SABLIER_MERKLE()": "7423649b",
    "MERKLE_ROOT()": "51e75e8b",
    "TOKEN()": "82bfefc8",
    "admin()": "f851a440",
    "calculateMinFeeWei()": "3a12a5bc",
    "campaignName()": "0724fda9",
    "claim(uint256,address,uint128,bytes32[])": "3f31ae3f",
    "claimTo(uint256,address,uint128,bytes32[])": "0854a79c",
    "claimViaSig(uint256,address,address,uint128,uint40,bytes32[],bytes)": "20743583",
    "clawback(address,uint128)": "1686c909",
    "domainSeparator()": "f698da25",
    "firstClaimTime()": "82d72f7f",
    "hasClaimed(uint256)": "ce516507",
    "hasExpired()": "90e64d13",
    "ipfsCID()": "49fc73dd",
    "lowerMinFeeUSD(uint256)": "8ec68869",
    "minFeeUSD()": "4e0bb8cc",
    "transferAdmin(address)": "75829def"
  },
  "id": 97
}