{
  "abi": [
    {
      "type": "function",
      "name": "CLAIM_TYPEHASH",
      "inputs": [],
      "outputs": [
        {
          "name": "",
          "type": "bytes32",
          "internalType": "bytes32"
        }
      ],
      "stateMutability": "view"
    },
    {
      "type": "function",
      "name": "DOMAIN_TYPEHASH",
      "inputs": [],
      "outputs": [
        {
          "name": "",
          "type": "bytes32",
          "internalType": "bytes32"
        }
      ],
      "stateMutability": "view"
    },
    {
      "type": "function",
      "name": "PROTOCOL_NAME",
      "inputs": [],
      "outputs": [
        {
          "name": "",
          "type": "bytes32",
          "internalType": "bytes32"
        }
      ],
      "stateMutability": "view"
    }
  ],
  "bytecode": {
    "object": "0x6080806040523460195761016e908161001e823930815050f35b5f80fdfe6080806040526004361015610012575f80fd5b5f3560e01c90816320606b70146100e7575080632860ff751461009457636b0509b11461003d575f80fd5b5f7ffffffffffffffffffffffffffffffffffffffffffffffffffffffffffffffffc3601126100905760206040517fb0f12a3a6931229a836eaab08aeb1ebe2ddebad3bfd83f30d39f6c4a3b0f4f818152f35b5f80fd5b5f7ffffffffffffffffffffffffffffffffffffffffffffffffffffffffffffffffc3601126100905760206040517f13cd784591b49af6fc220be53013eaddf1dc15399ca43850d206ea319aca08218152f35b5f7ffffffffffffffffffffffffffffffffffffffffffffffffffffffffffffffffc36011261009057807f8cad95687ba82c2ce50e74f7b754645e5117c3a5bec8151c0726d5857980a86660209252f3fea2646970667358221220478f0e25dd4e7f28e5a71eacfc1c1d7551589c2c69e6c17ff087c34b1b0e86f164736f6c634300081d0033",
    "linkReferences": {}
  },
  "methodIdentifiers": {
    "CLAIM_TYPEHASH()": "6b0509b1",
    "DOMAIN_TYPEHASH()": "20606b70",
    "PROTOCOL_NAME()": "2860ff75"
  },
  "id": 121
}