{
  "abi": [
    {
      "type": "function",
      "name": "calculateStreamedAmountLD",
      "inputs": [
        {
          "name": "depositedAmount",
          "type": "uint128",
          "internalType": "uint128"
        },
        {
          "name": "endTime",
          "type": "uint40",
          "internalType": "uint40"
        },
        {
          "name": "segments",
          "type": "tuple[]",
          "internalType": "struct LockupDynamic.Segment[]",
          "components": [
            {
              "name": "amount",
              "type": "uint128",
              "internalType": "uint128"
            },
            {
              "name": "exponent",
              "type": "uint64",
              "internalType": "UD2x18"
            },
            {
              "name": "timestamp",
              "type": "uint40",
              "internalType": "uint40"
            }
          ]
        },
        {
          "name": "startTime",
          "type": "uint40",
          "internalType": "uint40"
        },
        {
          "name": "withdrawnAmount",
          "type": "uint128",
          "internalType": "uint128"
        }
      ],
      "outputs": [
        {
          "name": "",
          "type": "uint128",
          "internalType": "uint128"
        }
      ],
      "stateMutability": "view"
    },
    {
      "type": "function",
      "name": "calculateStreamedAmountLL",
      "inputs": [
        {
          "name": "cliffTime",
          "type": "uint40",
          "internalType": "uint40"
        },
        {
          "name": "depositedAmount",
          "type": "uint128",
          "internalType": "uint128"
        },
        {
          "name": "endTime",
          "type": "uint40",
          "internalType": "uint40"
        },
        {
          "name": "granularity",
          "type": "uint40",
          "internalType": "uint40"
        },
        {
          "name": "startTime",
          "type": "uint40",
          "internalType": "uint40"
        },
        {
          "name": "unlockAmounts",
          "type": "tuple",
          "internalType": "struct LockupLinear.UnlockAmounts",
          "components": [
            {
              "name": "start",
              "type": "uint128",
              "internalType": "uint128"
            },
            {
              "name": "cliff",
              "type": "uint128",
              "internalType": "uint128"
            }
          ]
        },
        {
          "name": "withdrawnAmount",
          "type": "uint128",
          "internalType": "uint128"
        }
      ],
      "outputs": [
        {
          "name": "",
          "type": "uint128",
          "internalType": "uint128"
        }
      ],
      "stateMutability": "view"
    },
    {
      "type": "function",
      "name": "calculateStreamedAmountLPG",
      "inputs": [
        {
          "name": "deposited",
          "type": "uint128",
          "internalType": "uint128"
        },
        {
          "name": "endTime",
          "type": "uint40",
          "internalType": "uint40"
        },
        {
          "name": "unlockParams",
          "type": "tuple",
          "internalType": "struct LockupPriceGated.UnlockParams",
          "components": [
            {
              "name": "oracle",
              "type": "AggregatorV3Interface",
              "internalType": "contract AggregatorV3Interface"
            },
            {
              "name": "targetPrice",
              "type": "uint128",
              "internalType": "uint128"
            }
          ]
        }
      ],
      "outputs": [
        {
          "name": "",
          "type": "uint128",
          "internalType": "uint128"
        }
      ],
      "stateMutability": "view"
    },
    {
      "type": "function",
      "name": "calculateStreamedAmountLT",
      "inputs": [
        {
          "name": "depositedAmount",
          "type": "uint128",
          "internalType": "uint128"
        },
        {
          "name": "endTime",
          "type": "uint40",
          "internalType": "uint40"
        },
        {
          "name": "startTime",
          "type": "uint40",
          "internalType": "uint40"
        },
        {
          "name": "tranches",
          "type": "tuple[]",
          "internalType": "struct LockupTranched.Tranche[]",
          "components": [
            {
              "name": "amount",
              "type": "uint128",
              "internalType": "uint128"
            },
            {
              "name": "timestamp",
              "type": "uint40",
              "internalType": "uint40"
            }
          ]
        }
      ],
      "outputs": [
        {
          "name": "",
          "type": "uint128",
          "internalType": "uint128"
        }
      ],
      "stateMutability": "view"
    },
    {
      "type": "error",
      "name": "PRBMath_MulDiv18_Overflow",
      "inputs": [
        {
          "name": "x",
          "type": "uint256",
          "internalType": "uint256"
        },
        {
          "name": "y",
          "type": "uint256",
          "internalType": "uint256"
        }
      ]
    },
    {
      "type": "error",
      "name": "PRBMath_MulDiv_Overflow",
      "inputs": [
        {
          "name": "x",
          "type": "uint256",
          "internalType": "uint256"
        },
        {
          "name": "y",
          "type": "uint256",
          "internalType": "uint256"
        },
        {
          "name": "denominator",
          "type": "uint256",
          "internalType": "uint256"
        }
      ]
    },
    {
      "type": "error",
      "name": "PRBMath_SD59x18_Div_InputTooSmall",
      "inputs": []
    },
    {
      "type": "error",
      "name": "PRBMath_SD59x18_Div_Overflow",
      "inputs": [
        {
          "name": "x",
          "type": "int256",
          "internalType": "SD59x18"
        },
        {
          "name": "y",
          "type": "int256",
          "internalType": "SD59x18"
        }
      ]
    },
    {
      "type": "error",
      "name": "PRBMath_SD59x18_Exp2_InputTooBig",
      "inputs": [
        {
          "name": "x",
          "type": "int256",
          "internalType": "SD59x18"
        }
      ]
    },
    {
      "type": "error",
      "name": "PRBMath_SD59x18_IntoUint256_Underflow",
      "inputs": [
        {
          "name": "x",
          "type": "int256",
          "internalType": "SD59x18"
        }
      ]
    },
    {
      "type": "error",
      "name": "PRBMath_SD59x18_Log_InputTooSmall",
      "inputs": [
        {
          "name": "x",
          "type": "int256",
          "internalType": "SD59x18"
        }
      ]
    },
    {
      "type": "error",
      "name": "PRBMath_SD59x18_Mul_InputTooSmall",
      "inputs": []
    },
    {
      "type": "error",
      "name": "PRBMath_SD59x18_Mul_Overflow",
      "inputs": [
        {
          "name": "x",
          "type": "int256",
          "internalType": "SD59x18"
        },
        {
          "name": "y",
          "type": "int256",
          "internalType": "SD59x18"
        }
      ]
    }
  ],
  "bytecode": {
    "object": "0x608080604052346019576116b3908161001e823930815050f35b5f80fdfe60806040526004361015610011575f80fd5b5f3560e01c806321d4831d146101ec5780633796f97b14610177578063740e1680146100e657637bf8c00c14610045575f80fd5b60a03660031901126100e2576100596102a8565b610061610294565b90604435906001600160401b0382116100e257366023830112156100e25781600401356001600160401b0381116100e25736602460608302850101116100e2576100a9610280565b608435929091906001600160801b03841684036100e25760209560246100d09601916105db565b6040516001600160801b039091168152f35b5f80fd5b60803660031901126100e2576100fa6102a8565b610102610294565b60403660431901126100e257604051604081018181106001600160401b03821117610163576040526044356001600160a01b03811681036100e2578152606435916001600160801b03831683036100e2576020936100d09385840152610568565b634e487b7160e01b5f52604160045260245ffd5b60803660031901126100e25761018b6102a8565b610193610294565b9061019c61026c565b606435916001600160401b0383116100e257366023840112156100e2578260040135916001600160401b0383116100e2573660248460061b860101116100e25760209460246100d095019261049b565b6101003660031901126100e25760043564ffffffffff811681036100e257602435906001600160801b03821682036100e25761022661026c565b61022e610280565b6084359064ffffffffff821682036100e25760403660a31901126100e25760e435926001600160801b03841684036100e2576020956100d09561032b565b6044359064ffffffffff821682036100e257565b6064359064ffffffffff821682036100e257565b6024359064ffffffffff821682036100e257565b600435906001600160801b03821682036100e257565b90601f801991011681019081106001600160401b0382111761016357604052565b356001600160801b03811681036100e25790565b9064ffffffffff1690811561030d5764ffffffffff160490565b634e487b7160e01b5f52601260045260245ffd5b811561030d570490565b91929094939464ffffffffff4216958664ffffffffff82161161045a5764ffffffffff841696808811610439578064ffffffffff8716111561042e5760a4356001600160801b03811681036100e25760c4356001600160801b03811681036100e2576001600160801b038581169a92909101169590898710156104215764ffffffffff926103f39594928792155f146104065750839182846103ce9303166102f3565b16960316905b6001600160801b0395869464ffffffffff169186900385160202610321565b160116918211610401575090565b905090565b9250839182846104179303166102f3565b16960316906103d4565b5050505094505050505090565b505094505050505090565b505060a435955050506001600160801b038416840392506100e29150505790565b505050505050505f90565b91908110156104755760061b0190565b634e487b7160e01b5f52603260045260245ffd5b3564ffffffffff811681036100e25790565b9064ffffffffff92949394834216938491161161055f578315610475578264ffffffffff6104cb60208801610489565b161161055f5764ffffffffff8391161115610558575091906104ec826102df565b926001925b828410610500575b5050505090565b909192938264ffffffffff610521602061051b898988610465565b01610489565b1611610552576001906001600160801b0390610546610541888887610465565b6102df565b011694019291906104f1565b936104f9565b9250505090565b50505050505f90565b919064ffffffffff164210156105c757805161058c906001600160a01b0316610802565b50506001600160801b031680151591826105af575b50506105ac57505f90565b90565b602001516001600160801b0316111590505f806105a1565b5090565b9190811015610475576060020190565b94929493919364ffffffffff4216918264ffffffffff85161161045a5764ffffffffff83911611156107e257505f9385156104755761061c60408201610489565b918064ffffffffff5f945b16106107a5576001600160801b03610643610541858a866105cb565b169660206106528583866105cb565b0135946001600160401b0386168096036100e25764ffffffffff93849261067f604061051b8984866105cb565b96806107885750505080925b031692031690600160ff1b8114801561077b575b61076c575f811215610763576106c3815f035b5f84121561075c57835f0390610b25565b916001600160ff1b038311610746579286926106ed926106f2955f199118135f1461073f5761099d565b610a0c565b92831361072457505f8212610711576001600160801b03918216011690565b50632463f3d560e01b5f5260045260245ffd5b9091506001600160801b038082169083161115610401575090565b5f0361099d565b9063d49c26b360e01b5f5260045260245260445ffd5b8390610b25565b6106c3816106b2565b6309fe2b4560e41b5f5260045ffd5b50600160ff1b821461069f565b61079e93509161051b916040935f1901916105cb565b809261068b565b91946001906001600160801b03906107c1610541898b876105cb565b01169501918064ffffffffff6107dd604061051b878c886105cb565b610627565b94505050505090565b519069ffffffffffffffffffff821682036100e257565b6001600160a01b031680156109945760405163313ce56760e01b8152602081600481855afa5f9181610956575b5061083e5750505f905f905f90565b60ff81166024811190811561094d575b506109435760a06004919260405192838092633fabe5a360e21b82525afa91825f925f946108ed575b50610887575050505f905f905f90565b5f8213156108e5578242106108e5576001600160801b0382116108e55781600860ff8316036108c3575b50506001600160801b03169160089190565b819250906108d091610ac6565b906001600160801b0382116108e557806108b1565b5f9390929150565b9250925060a0823d60a01161093b575b8161090a60a093836102be565b810103126100e25761091b826107eb565b5060208201516109326080606085015194016107eb565b5091925f610877565b3d91506108fd565b50505f905f905f90565b9050155f61084e565b9091506020813d60201161098c575b81610972602093836102be565b810103126100e2575160ff811681036100e257905f61082f565b3d9150610965565b505f905f905f90565b806109b757506109b357670de0b6b3a764000090565b5f90565b90670de0b6b3a764000082146109fe57806109da575050670de0b6b3a764000090565b670de0b6b3a764000081146105c7576109f9906106ed6105ac93610bfd565b610d39565b5050670de0b6b3a764000090565b600160ff1b81148015610a94575b610a85575f811215610a7c57610a3e815f035b5f841215610a7557835f03906115e8565b916001600160ff1b038311610a5f575f1991181315610a5a5790565b5f0390565b9063120b5b4360e01b5f5260045260245260445ffd5b83906115e8565b610a3e81610a2d565b63a6070c2560e01b5f5260045ffd5b50600160ff1b8214610a1a565b60ff16604d8111610ab257600a0a90565b634e487b7160e01b5f52601160045260245ffd5b9060ff1660088111610b065760088110610ade575090565b60080360ff8111610ab257610af290610aa1565b90818102918183041490151715610ab25790565b600719019060ff8211610ab257610b1f6105ac92610aa1565b90610321565b5f19670de0b6b3a7640000820991670de0b6b3a7640000820291828085109403938085039414610bd75781841015610bb657670de0b6b3a7640000829109600182190182168092046002816003021880820260020302808202600203028082026002030280820260020302808202600203028091026002030293600183805f03040190848311900302920304170290565b630c740aef60e31b5f52600452670de0b6b3a764000060245260445260645ffd5b50906105ac9250610321565b801561030d576ec097ce7bc90715b34b9f10000000000590565b805f811315610d2757670de0b6b3a76400008112610d0757506001905b670de0b6b3a7640000810560018060801b03811160071b90811c6001600160401b03811160061b90811c63ffffffff811160051b90811c61ffff811160041b90811c9060ff821160031b91821c92600f841160021b93841c94600160038711811b96871c119617171717171717670de0b6b3a7640000810291811d90670de0b6b3a76400008214610cf457506706f05b59d3b20000905b5f8213610cbe5750500290565b80670de0b6b3a764000091020590671bc16d674ec80000821215610ce6575b60011d90610cb1565b809192019160011d90610cdd565b9050670de0b6b3a7640000929150020290565b5f199150801561030d576ec097ce7bc90715b34b9f100000000005610c1a565b63059b101b60e01b5f5260045260245ffd5b5f811215610d6b5768033dd1780914b97114198112610d6657610d5d905f03610d39565b6105ac90610be3565b505f90565b680a688906bd8affffff81136115d757670de0b6b3a764000060409190911b05600160bf1b60ff60381b82166114ce575b670de0b6b3a76400009066ff00000000000083166113be575b65ff000000000083166112b6575b64ff0000000083166111b6575b63ff00000083166110be575b62ff00008316610fce575b61ff008316610ee6575b60ff8316610e06575b029060401c60bf031c90565b60808316610ed3575b60408316610ec0575b60208316610ead575b60108316610e9a575b60088316610e87575b60048316610e74575b60028316610e61575b6001831615610dfa57680100000000000000010260401c610dfa565b680100000000000000010260401c610e45565b680100000000000000030260401c610e3c565b680100000000000000060260401c610e33565b6801000000000000000b0260401c610e2a565b680100000000000000160260401c610e21565b6801000000000000002c0260401c610e18565b680100000000000000590260401c610e0f565b6180008316610fbb575b6140008316610fa8575b6120008316610f95575b6110008316610f82575b6108008316610f6f575b6104008316610f5c575b6102008316610f49575b610100831615610df157680100000000000000b10260401c610df1565b680100000000000001630260401c610f2c565b680100000000000002c60260401c610f22565b6801000000000000058c0260401c610f18565b68010000000000000b170260401c610f0e565b6801000000000000162e0260401c610f04565b68010000000000002c5d0260401c610efa565b680100000000000058b90260401c610ef0565b6280000083166110ab575b624000008316611098575b622000008316611085575b621000008316611072575b62080000831661105f575b62040000831661104c575b620200008316611039575b62010000831615610de7576801000000000000b1720260401c610de7565b680100000000000162e40260401c61101b565b6801000000000002c5c80260401c611010565b68010000000000058b910260401c611005565b680100000000000b17210260401c610ffa565b68010000000000162e430260401c610fef565b680100000000002c5c860260401c610fe4565b6801000000000058b90c0260401c610fd9565b638000000083166111a3575b63400000008316611190575b6320000000831661117d575b6310000000831661116a575b63080000008316611157575b63040000008316611144575b63020000008316611131575b6301000000831615610ddc5768010000000000b172180260401c610ddc565b6801000000000162e4300260401c611112565b68010000000002c5c8600260401c611106565b680100000000058b90c00260401c6110fa565b6801000000000b17217f0260401c6110ee565b680100000000162e42ff0260401c6110e2565b6801000000002c5c85fe0260401c6110d6565b68010000000058b90bfc0260401c6110ca565b64800000000083166112a3575b6440000000008316611290575b642000000000831661127d575b641000000000831661126a575b6408000000008316611257575b6404000000008316611244575b6402000000008316611231575b640100000000831615610dd057680100000000b17217f80260401c610dd0565b68010000000162e42ff10260401c611211565b680100000002c5c85fe30260401c611204565b6801000000058b90bfce0260401c6111f7565b68010000000b17217fbb0260401c6111ea565b6801000000162e42fff00260401c6111dd565b68010000002c5c8601cc0260401c6111d0565b680100000058b90c0b490260401c6111c3565b6580000000000083166113ab575b654000000000008316611398575b652000000000008316611385575b651000000000008316611372575b65080000000000831661135f575b65040000000000831661134c575b650200000000008316611339575b65010000000000831615610dc3576801000000b1721835510260401c610dc3565b680100000162e430e5a20260401c611318565b6801000002c5c863b73f0260401c61130a565b68010000058b90cf1e6e0260401c6112fc565b680100000b1721bcfc9a0260401c6112ee565b68010000162e43f4f8310260401c6112e0565b680100002c5c89d5ec6d0260401c6112d2565b6801000058b91b5bc9ae0260401c6112c4565b668000000000000083166114bb575b664000000000000083166114a8575b66200000000000008316611495575b66100000000000008316611482575b6608000000000000831661146f575b6604000000000000831661145c575b66020000000000008316611449575b6601000000000000831615610db55768010000b17255775c040260401c610db5565b6801000162e525ee05470260401c611427565b68010002c5cc37da94920260401c611418565b680100058ba01fb9f96d0260401c611409565b6801000b175effdc76ba0260401c6113fa565b680100162f3904051fa10260401c6113eb565b6801002c605e2e8cec500260401c6113dc565b68010058c86da1c09ea20260401c6113cd565b6001603f1b82166115c4575b670de0b6b3a7640000906001603e1b83166115b1575b6001603d1b831661159e575b6001603c1b831661158b575b6001603b1b8316611578575b6001603a1b8316611565575b600160391b8316611552575b600160381b831661153f575b9050610d9c565b680100b1afa5abcbed610260401c611538565b68010163da9fb33356d80260401c61152c565b680102c9a3e778060ee70260401c611520565b6801059b0d31585743ae0260401c611514565b68010b5586cf9890f62a0260401c611508565b6801172b83c7d517adce0260401c6114fc565b6801306fe0a31b7152df0260401c6114f0565b5068016a09e667f3bcc909607f1b6114da565b626c1a0560e31b5f5260045260245ffd5b9091905f198382098382029182808310920391808303921461166c57670de0b6b3a7640000821015611655577faccb18165bd6fe31ae1cf318dc5b51eee0e1ba569b88cd74c1773b91fac106699394670de0b6b3a7640000910990828211900360ee1b910360121c170290565b8490635173648d60e01b5f5260045260245260445ffd5b5050670de0b6b3a76400009004915056fea2646970667358221220cb3f72631ec1ffdf5394cfbef5b6177ed01973daa7e0af2786f53203d86c484864736f6c634300081d0033",
    "linkReferences": {}
  },
  "methodIdentifiers": {
    "calculateStreamedAmountLD(uint128,uint40,LockupDynamic.Segment[],uint40,uint128)": "7bf8c00c",
    "calculateStreamedAmountLL(uint40,uint128,uint40,uint40,uint40,LockupLinear.UnlockAmounts,uint128)": "21d4831d",
    "calculateStreamedAmountLPG(uint128,uint40,LockupPriceGated.UnlockParams)": "740e1680",
    "calculateStreamedAmountLT(uint128,uint40,uint40,LockupTranched.Tranche[])": "3796f97b"
  },
  "id": 108
}