{
  "abi": [
    {
      "type": "function",
      "name": "calculateSegmentTimestamps",
      "inputs": [
        {
          "name": "segmentsWithDuration",
          "type": "tuple[]",
          "internalType": "struct LockupDynamic.SegmentWithDuration[]",
          "components": [
            {
              "name": "amount",
              "type": "uint128",
              "internalType": "uint128"
            },
            {
              "name": "exponent",
              "type": "uint64",
              "internalType": "UD2x18"
            },
            {
              "name": "duration",
              "type": "uint40",
              "internalType": "uint40"
            }
          ]
        },
        {
          "name": "startTime",
          "type": "uint40",
          "internalType": "uint40"
        }
      ],
      "outputs": [
        {
          "name": "segmentsWithTimestamps",
          "type": "tuple[]",
          "internalType": "struct LockupDynamic.Segment[]",
          "components": [
            {
              "name": "amount",
              "type": "uint128",
              "internalType": "uint128"
            },
            {
              "name": "exponent",
              "type": "uint64",
              "internalType": "UD2x18"
            },
            {
              "name": "timestamp",
              "type": "uint40",
              "internalType": "uint40"
            }
          ]
        }
      ],
      "stateMutability": "pure"
    },
    {
      "type": "function",
      "name": "calculateTrancheTimestamps",
      "inputs": [
        {
          "name": "tranchesWithDuration",
          "type": "tuple[]",
          "internalType": "struct LockupTranched.TrancheWithDuration[]",
          "components": [
            {
              "name": "amount",
              "type": "uint128",
              "internalType": "uint128"
            },
            {
              "name": "duration",
              "type": "uint40",
              "internalType": "uint40"
            }
          ]
        },
        {
          "name": "startTime",
          "type": "uint40",
          "internalType": "uint40"
        }
      ],
      "outputs": [
        {
          "name": "tranchesWithTimestamps",
          "type": "tuple[]",
          "internalType": "struct LockupTranched.Tranche[]",
          "components": [
            {
              "name": "amount",
              "type": "uint128",
              "internalType": "uint128"
            },
            {
              "name": "timestamp",
              "type": "uint40",
              "internalType": "uint40"
            }
          ]
        }
      ],
      "stateMutability": "pure"
    },
    {
      "type": "function",
      "name": "checkCreateLD",
      "inputs": [
        {
          "name": "sender",
          "type": "address",
          "internalType": "address"
        },
        {
          "name": "timestamps",
          "type": "tuple",
          "internalType": "struct Lockup.Timestamps",
          "components": [
            {
              "name": "start",
              "type": "uint40",
              "internalType": "uint40"
            },
            {
              "name": "end",
              "type": "uint40",
              "internalType": "uint40"
            }
          ]
        },
        {
          "name": "depositAmount",
          "type": "uint128",
          "internalType": "uint128"
        },
        {
          "name": "segments",
          "type": "tuple[]",
          "internalType": "struct LockupDynamic.Segment[]",
          "components": [
            {
              "name": "amount",
              "type": "uint128",
              "internalType": "uint128"
            },
            {
              "name": "exponent",
              "type": "uint64",
              "internalType": "UD2x18"
            },
            {
              "name": "timestamp",
              "type": "uint40",
              "internalType": "uint40"
            }
          ]
        },
        {
          "name": "token",
          "type": "address",
          "internalType": "address"
        },
        {
          "name": "nativeToken",
          "type": "address",
          "internalType": "address"
        },
        {
          "name": "shape",
          "type": "string",
          "internalType": "string"
        }
      ],
      "outputs": [],
      "stateMutability": "pure"
    },
    {
      "type": "function",
      "name": "checkCreateLL",
      "inputs": [
        {
          "name": "cliffTime",
          "type": "uint40",
          "internalType": "uint40"
        },
        {
          "name": "depositAmount",
          "type": "uint128",
          "internalType": "uint128"
        },
        {
          "name": "granularity",
          "type": "uint40",
          "internalType": "uint40"
        },
        {
          "name": "nativeToken",
          "type": "address",
          "internalType": "address"
        },
        {
          "name": "sender",
          "type": "address",
          "internalType": "address"
        },
        {
          "name": "shape",
          "type": "string",
          "internalType": "string"
        },
        {
          "name": "timestamps",
          "type": "tuple",
          "internalType": "struct Lockup.Timestamps",
          "components": [
            {
              "name": "start",
              "type": "uint40",
              "internalType": "uint40"
            },
            {
              "name": "end",
              "type": "uint40",
              "internalType": "uint40"
            }
          ]
        },
        {
          "name": "token",
          "type": "address",
          "internalType": "address"
        },
        {
          "name": "unlockAmounts",
          "type": "tuple",
          "internalType": "struct LockupLinear.UnlockAmounts",
          "components": [
            {
              "name": "start",
              "type": "uint128",
              "internalType": "uint128"
            },
            {
              "name": "cliff",
              "type": "uint128",
              "internalType": "uint128"
            }
          ]
        }
      ],
      "outputs": [],
      "stateMutability": "pure"
    },
    {
      "type": "function",
      "name": "checkCreateLPG",
      "inputs": [
        {
          "name": "sender",
          "type": "address",
          "internalType": "address"
        },
        {
          "name": "timestamps",
          "type": "tuple",
          "internalType": "struct Lockup.Timestamps",
          "components": [
            {
              "name": "start",
              "type": "uint40",
              "internalType": "uint40"
            },
            {
              "name": "end",
              "type": "uint40",
              "internalType": "uint40"
            }
          ]
        },
        {
          "name": "depositAmount",
          "type": "uint128",
          "internalType": "uint128"
        },
        {
          "name": "token",
          "type": "address",
          "internalType": "address"
        },
        {
          "name": "nativeToken",
          "type": "address",
          "internalType": "address"
        },
        {
          "name": "shape",
          "type": "string",
          "internalType": "string"
        },
        {
          "name": "unlockParams",
          "type": "tuple",
          "internalType": "struct LockupPriceGated.UnlockParams",
          "components": [
            {
              "name": "oracle",
              "type": "AggregatorV3Interface",
              "internalType": "contract AggregatorV3Interface"
            },
            {
              "name": "targetPrice",
              "type": "uint128",
              "internalType": "uint128"
            }
          ]
        }
      ],
      "outputs": [],
      "stateMutability": "view"
    },
    {
      "type": "function",
      "name": "checkCreateLT",
      "inputs": [
        {
          "name": "sender",
          "type": "address",
          "internalType": "address"
        },
        {
          "name": "timestamps",
          "type": "tuple",
          "internalType": "struct Lockup.Timestamps",
          "components": [
            {
              "name": "start",
              "type": "uint40",
              "internalType": "uint40"
            },
            {
              "name": "end",
              "type": "uint40",
              "internalType": "uint40"
            }
          ]
        },
        {
          "name": "depositAmount",
          "type": "uint128",
          "internalType": "uint128"
        },
        {
          "name": "tranches",
          "type": "tuple[]",
          "internalType": "struct LockupTranched.Tranche[]",
          "components": [
            {
              "name": "amount",
              "type": "uint128",
              "internalType": "uint128"
            },
            {
              "name": "timestamp",
              "type": "uint40",
              "internalType": "uint40"
            }
          ]
        },
        {
          "name": "token",
          "type": "address",
          "internalType": "address"
        },
        {
          "name": "nativeToken",
          "type": "address",
          "internalType": "address"
        },
        {
          "name": "shape",
          "type": "string",
          "internalType": "string"
        }
      ],
      "outputs": [],
      "stateMutability": "pure"
    },
    {
      "type": "error",
      "name": "SablierLockupHelpers_CliffTimeNotLessThanEndTime",
      "inputs": [
        {
          "name": "cliffTime",
          "type": "uint40",
          "internalType": "uint40"
        },
        {
          "name": "endTime",
          "type": "uint40",
          "internalType": "uint40"
        }
      ]
    },
    {
      "type": "error",
      "name": "SablierLockupHelpers_CliffTimeZeroUnlockAmountNotZero",
      "inputs": [
        {
          "name": "cliffUnlockAmount",
          "type": "uint128",
          "internalType": "uint128"
        }
      ]
    },
    {
      "type": "error",
      "name": "SablierLockupHelpers_CreateNativeToken",
      "inputs": [
        {
          "name": "nativeToken",
          "type": "address",
          "internalType": "address"
        }
      ]
    },
    {
      "type": "error",
      "name": "SablierLockupHelpers_DepositAmountNotEqualToSegmentAmountsSum",
      "inputs": [
        {
          "name": "depositAmount",
          "type": "uint128",
          "internalType": "uint128"
        },
        {
          "name": "segmentAmountsSum",
          "type": "uint128",
          "internalType": "uint128"
        }
      ]
    },
    {
      "type": "error",
      "name": "SablierLockupHelpers_DepositAmountNotEqualToTrancheAmountsSum",
      "inputs": [
        {
          "name": "depositAmount",
          "type": "uint128",
          "internalType": "uint128"
        },
        {
          "name": "trancheAmountsSum",
          "type": "uint128",
          "internalType": "uint128"
        }
      ]
    },
    {
      "type": "error",
      "name": "SablierLockupHelpers_DepositAmountZero",
      "inputs": []
    },
    {
      "type": "error",
      "name": "SablierLockupHelpers_EndTimeNotEqualToLastSegmentTimestamp",
      "inputs": [
        {
          "name": "endTime",
          "type": "uint40",
          "internalType": "uint40"
        },
        {
          "name": "lastSegmentTimestamp",
          "type": "uint40",
          "internalType": "uint40"
        }
      ]
    },
    {
      "type": "error",
      "name": "SablierLockupHelpers_EndTimeNotEqualToLastTrancheTimestamp",
      "inputs": [
        {
          "name": "endTime",
          "type": "uint40",
          "internalType": "uint40"
        },
        {
          "name": "lastTrancheTimestamp",
          "type": "uint40",
          "internalType": "uint40"
        }
      ]
    },
    {
      "type": "error",
      "name": "SablierLockupHelpers_GranularityTooHigh",
      "inputs": [
        {
          "name": "granularity",
          "type": "uint40",
          "internalType": "uint40"
        },
        {
          "name": "streamableRange",
          "type": "uint40",
          "internalType": "uint40"
        }
      ]
    },
    {
      "type": "error",
      "name": "SablierLockupHelpers_SegmentCountZero",
      "inputs": []
    },
    {
      "type": "error",
      "name": "SablierLockupHelpers_SegmentTimestampsNotOrdered",
      "inputs": [
        {
          "name": "index",
          "type": "uint256",
          "internalType": "uint256"
        },
        {
          "name": "previousTimestamp",
          "type": "uint40",
          "internalType": "uint40"
        },
        {
          "name": "currentTimestamp",
          "type": "uint40",
          "internalType": "uint40"
        }
      ]
    },
    {
      "type": "error",
      "name": "SablierLockupHelpers_SenderZeroAddress",
      "inputs": []
    },
    {
      "type": "error",
      "name": "SablierLockupHelpers_ShapeExceeds32Bytes",
      "inputs": [
        {
          "name": "shapeLength",
          "type": "uint256",
          "internalType": "uint256"
        }
      ]
    },
    {
      "type": "error",
      "name": "SablierLockupHelpers_StartTimeNotLessThanCliffTime",
      "inputs": [
        {
          "name": "startTime",
          "type": "uint40",
          "internalType": "uint40"
        },
        {
          "name": "cliffTime",
          "type": "uint40",
          "internalType": "uint40"
        }
      ]
    },
    {
      "type": "error",
      "name": "SablierLockupHelpers_StartTimeNotLessThanEndTime",
      "inputs": [
        {
          "name": "startTime",
          "type": "uint40",
          "internalType": "uint40"
        },
        {
          "name": "endTime",
          "type": "uint40",
          "internalType": "uint40"
        }
      ]
    },
    {
      "type": "error",
      "name": "SablierLockupHelpers_StartTimeNotLessThanFirstSegmentTimestamp",
      "inputs": [
        {
          "name": "startTime",
          "type": "uint40",
          "internalType": "uint40"
        },
        {
          "name": "firstSegmentTimestamp",
          "type": "uint40",
          "internalType": "uint40"
        }
      ]
    },
    {
      "type": "error",
      "name": "SablierLockupHelpers_StartTimeNotLessThanFirstTrancheTimestamp",
      "inputs": [
        {
          "name": "startTime",
          "type": "uint40",
          "internalType": "uint40"
        },
        {
          "name": "firstTrancheTimestamp",
          "type": "uint40",
          "internalType": "uint40"
        }
      ]
    },
    {
      "type": "error",
      "name": "SablierLockupHelpers_StartTimeZero",
      "inputs": []
    },
    {
      "type": "error",
      "name": "SablierLockupHelpers_TrancheCountZero",
      "inputs": []
    },
    {
      "type": "error",
      "name": "SablierLockupHelpers_TrancheTimestampsNotOrdered",
      "inputs": [
        {
          "name": "index",
          "type": "uint256",
          "internalType": "uint256"
        },
        {
          "name": "previousTimestamp",
          "type": "uint40",
          "internalType": "uint40"
        },
        {
          "name": "currentTimestamp",
          "type": "uint40",
          "internalType": "uint40"
        }
      ]
    },
    {
      "type": "error",
      "name": "SablierLockupHelpers_UnlockAmountsSumTooHigh",
      "inputs": [
        {
          "name": "depositAmount",
          "type": "uint128",
          "internalType": "uint128"
        },
        {
          "name": "startUnlockAmount",
          "type": "uint128",
          "internalType": "uint128"
        },
        {
          "name": "cliffUnlockAmount",
          "type": "uint128",
          "internalType": "uint128"
        }
      ]
    },
    {
      "type": "error",
      "name": "SablierLockup_TargetPriceTooLow",
      "inputs": [
        {
          "name": "targetPrice",
          "type": "uint128",
          "internalType": "uint128"
        },
        {
          "name": "latestPrice",
          "type": "uint128",
          "internalType": "uint128"
        }
      ]
    },
    {
      "type": "error",
      "name": "SafeCastOverflowedUintDowncast",
      "inputs": [
        {
          "name": "bits",
          "type": "uint8",
          "internalType": "uint8"
        },
        {
          "name": "value",
          "type": "uint256",
          "internalType": "uint256"
        }
      ]
    },
    {
      "type": "error",
      "name": "SafeOracle_DecimalsTooHigh",
      "inputs": [
        {
          "name": "oracle",
          "type": "address",
          "internalType": "address"
        },
        {
          "name": "decimals",
          "type": "uint8",
          "internalType": "uint8"
        }
      ]
    },
    {
      "type": "error",
      "name": "SafeOracle_DecimalsZero",
      "inputs": [
        {
          "name": "oracle",
          "type": "address",
          "internalType": "address"
        }
      ]
    },
    {
      "type": "error",
      "name": "SafeOracle_MissesInterface",
      "inputs": [
        {
          "name": "oracle",
          "type": "address",
          "internalType": "address"
        }
      ]
    },
    {
      "type": "error",
      "name": "SafeOracle_NotPositivePrice",
      "inputs": [
        {
          "name": "oracle",
          "type": "address",
          "internalType": "address"
        }
      ]
    }
  ],
  "bytecode": {
    "object": "0x60808060405234601957611249908161001e823930815050f35b5f80fdfe60806040526004361015610011575f80fd5b5f3560e01c80630e1c82bc14610bc657806314412079146109de578063179cab3e146107c5578063b9a939cd14610524578063f0b95e09146102e45763f9193aa51461005b575f80fd5b6101603660031901126102e05760043564ffffffffff81168082036102e0576024356001600160801b038116928382036102e0576044359064ffffffffff82168092036102e057606435926001600160a01b03841684036102e0576100be610df2565b9460a4356001600160401b0381116102e0576100de903690600401610f9c565b9160403660c31901126102e057604051906100f882610e08565b60c43564ffffffffff811681036102e057825260e4359364ffffffffff851685036102e0576020830194855261010435976001600160a01b03891689036102e0576040366101231901126102e057604051986101538a610e08565b610124356001600160801b03811681036102e0578a52610144359a6001600160801b038c168c036102e0576101989460208c019c8d5264ffffffffff875116916110c2565b811561026e575164ffffffffff1681811015610259575064ffffffffff825116908181101561024457505064ffffffffff91828092511603165b169081811161022f5750508051825184916001600160801b03916101fb9190831690831661115e565b161161020357005b51905163410ce15d60e11b5f9081526004939093526001600160801b0391821660245216604452606490fd5b63f8129db560e01b5f5260045260245260445ffd5b636a048d9b60e01b5f5260045260245260445ffd5b6369d10fdd60e11b5f5260045260245260445ffd5b86519093506001600160801b03169050806102ce575064ffffffffff82511664ffffffffff82511690818110156102b957505064ffffffffff918280809351169151169003166101d2565b63283ff64960e21b5f5260045260245260445ffd5b63bfc65be160e01b5f5260045260245ffd5b5f80fd5b60403660031901126102e0576004356001600160401b0381116102e057366023820112156102e057610320903690602481600401359101610ff1565b610328610e73565b9080519081156105155761033b82610f08565b926103496040519485610e52565b828452601f1961035884610f08565b015f5b8181106104ec57506001600160801b0390506103768361108d565b5151169064ffffffffff6001600160401b0360206103938661108d565b51015116918160406103a48761108d565b51015116011690604051926103b884610e37565b8352602083015260408201526103cd8461108d565b526103d78361108d565b5060015b82811061045957836040518091602082016020835281518091526020604084019201905f5b81811061040e575050500390f35b825180516001600160801b031685526020818101516001600160401b03168187015260409182015164ffffffffff169186019190915286955060609094019390920191600101610400565b6001906001600160801b0361046e82856110ae565b5151166001600160401b03602061048584876110ae565b5101511664ffffffffff80604061049f5f1987018b6110ae565b510151168160406104b0878a6110ae565b51015116011690604051926104c484610e37565b8352602083015260408201526104da82876110ae565b526104e581866110ae565b50016103db565b6020906040516104fb81610e37565b5f81525f838201525f60408201528282890101520161035b565b63747c32c960e01b5f5260045ffd5b6101203660031901126102e057610539610db0565b61054236610e99565b61054a610ede565b90610553610df2565b9161055c610dc6565b60c4356001600160401b0381116102e05761057b903690600401610f9c565b9060403660e31901126102e0576040519461059586610e08565b60e4356001600160a01b03811681036102e057865261010435966001600160801b03881688036102e0576105d9946020880198895264ffffffffff875116916110c2565b64ffffffffff6020818351169201511690818110156102b9575050516001600160a01b03169081156107b25760405163313ce56760e01b8152602081600481865afa5f9181610774575b5061063b57826351df7c5d60e11b5f5260045260245ffd5b60ff81168015610761576024811161074b5750604051633fabe5a360e21b815260a081600481875afa5f91816106fc575b5061068457836351df7c5d60e11b5f5260045260245ffd5b5f8113156106e957906106969161119f565b6001600160801b0381116106d25790516001600160801b039182169116818111156106bd57005b630fcdff5b60e01b5f5260045260245260445ffd5b6306dfcc6560e41b5f52608060045260245260445ffd5b83633e873c4d60e11b5f5260045260245ffd5b90915060a0813d60a011610743575b8161071860a09383610e52565b810103126102e05761072981611177565b5061073b608060208301519201611177565b50908561066c565b3d915061070b565b8363ab5a00c160e01b5f5260045260245260445ffd5b8363a3195fc960e01b5f5260045260245ffd5b9091506020813d6020116107aa575b8161079060209383610e52565b810103126102e0575160ff811681036102e0579084610623565b3d9150610783565b506351df7c5d60e11b5f5260045260245ffd5b6101003660031901126102e0576107da610db0565b6107e336610e99565b6107eb610ede565b916084356001600160401b0381116102e057366023820112156102e05761081c903690602481600401359101610ff1565b90610825610dc6565b9061082e610ddc565b60e435926001600160401b0384116102e057610851610862943690600401610f9c565b928764ffffffffff885116916110c2565b80519182156105155764ffffffffff81511664ffffffffff60406108858561108d565b5101511611156109af5760200180515f198401919064ffffffffff1684831161099b5764ffffffffff60406108ba85876110ae565b510151160361096b57505f9283928392505b8183106108ff576001600160801b038086169087168181036108ea57005b63b4505a1b60e01b5f5260045260245260445ffd5b929391929091610924906001600160801b0361091b86856110ae565b5151169061115e565b9364ffffffffff80604061093887866110ae565b5101511691168082111561095257509260010191906108cc565b846337e6fe1d60e11b5f5260045260245260445260645ffd5b61098164ffffffffff92836040935116946110ae565b5101511690631905eb6960e31b5f5260045260245260445ffd5b634e487b7160e01b5f52601160045260245ffd5b60406109c464ffffffffff809351169361108d565b5101511690630af82ff760e01b5f5260045260245260445ffd5b60403660031901126102e0576004356001600160401b0381116102e057366023820112156102e057610a1a903690602481600401359101610f1f565b610a22610e73565b908051908115610bb757610a3582610f08565b92610a436040519485610e52565b828452601f19610a5284610f08565b015f5b818110610b94575064ffffffffff90506001600160801b03610a768461108d565b51511691816020610a868661108d565b51015116011660405191610a9983610e08565b82526020820152610aa98461108d565b52610ab38361108d565b5060015b828110610b1f57836040518091602082016020835281518091526020604084019201905f5b818110610aea575050500390f35b825180516001600160801b0316855260209081015164ffffffffff168186015286955060409094019390920191600101610adc565b6001906001600160801b03610b3482856110ae565b51511664ffffffffff806020610b4d5f1986018a6110ae565b51015116816020610b5e86896110ae565b51015116011660405191610b7183610e08565b82526020820152610b8282876110ae565b52610b8d81866110ae565b5001610ab7565b602090604051610ba381610e08565b5f81525f8382015282828901015201610a55565b6304a40e1160e31b5f5260045ffd5b6101003660031901126102e057610bdb610db0565b610be436610e99565b610bec610ede565b916084356001600160401b0381116102e057366023820112156102e057610c1d903690602481600401359101610f1f565b90610c26610dc6565b90610c2f610ddc565b60e435926001600160401b0384116102e057610851610c52943690600401610f9c565b8051918215610bb75764ffffffffff81511664ffffffffff6020610c758561108d565b510151161115610d815760200180515f198401919064ffffffffff1684831161099b5764ffffffffff6020610caa85876110ae565b5101511603610d5257505f9283928392505b818310610cef576001600160801b03808616908716818103610cda57005b6364cb9b1560e01b5f5260045260245260445ffd5b929391929091610d0b906001600160801b0361091b86856110ae565b9364ffffffffff806020610d1f87866110ae565b51015116911680821115610d395750926001019190610cbc565b84634bc9fa1b60e01b5f5260045260245260445260645ffd5b610d6864ffffffffff92836020935116946110ae565b510151169062c0548560e61b5f5260045260245260445ffd5b6020610d9664ffffffffff809351169361108d565b5101511690631bb1eb7d60e21b5f5260045260245260445ffd5b600435906001600160a01b03821682036102e057565b60a435906001600160a01b03821682036102e057565b60c435906001600160a01b03821682036102e057565b608435906001600160a01b03821682036102e057565b604081019081106001600160401b03821117610e2357604052565b634e487b7160e01b5f52604160045260245ffd5b606081019081106001600160401b03821117610e2357604052565b90601f801991011681019081106001600160401b03821117610e2357604052565b6024359064ffffffffff821682036102e057565b359064ffffffffff821682036102e057565b60409060231901126102e05760405190610eb282610e08565b8160243564ffffffffff811681036102e05781526044359064ffffffffff821682036102e05760200152565b606435906001600160801b03821682036102e057565b35906001600160801b03821682036102e057565b6001600160401b038111610e235760051b60200190565b929192610f2b82610f08565b93610f396040519586610e52565b602085848152019260061b8201918183116102e057925b828410610f5d5750505050565b6040848303126102e05760206040918251610f7781610e08565b610f8087610ef4565b8152610f8d838801610e87565b83820152815201930192610f50565b81601f820112156102e0578035906001600160401b038211610e235760405192610fd0601f8401601f191660200185610e52565b828452602083830101116102e057815f926020809301838601378301015290565b929192610ffd82610f08565b9361100b6040519586610e52565b60606020868581520193028201918183116102e057925b82841061102f5750505050565b6060848303126102e0576040519061104682610e37565b61104f85610ef4565b82526020850135906001600160401b03821682036102e0578260209283606095015261107d60408801610e87565b6040820152815201930192611022565b80511561109a5760200190565b634e487b7160e01b5f52603260045260245ffd5b805182101561109a5760209160051b010190565b9293926001600160a01b03161561114f576001600160801b0316156111405764ffffffffff1615611131576001600160a01b039081169116811461111f5750516020811161110d5750565b636c82b56760e11b5f5260045260245ffd5b6327215f8d60e21b5f5260045260245ffd5b6347b008fb60e11b5f5260045ffd5b631ae0d57760e01b5f5260045ffd5b63406681bb60e01b5f5260045ffd5b6001600160801b03918216908216019190821161099b57565b519069ffffffffffffffffffff821682036102e057565b60ff16604d811161099b57600a0a90565b9060ff16600881116111df57600881106111b7575090565b60080360ff811161099b576111cb9061118e565b9081810291818304149015171561099b5790565b6007190160ff811161099b576111f49061118e565b9081156111ff570490565b634e487b7160e01b5f52601260045260245ffdfea26469706673582212206b27354836e3aabc8645172d3e058f9fc5ee283a12f5ba36c392960fc3ff23d564736f6c634300081d0033",
    "linkReferences": {}
  },
  "methodIdentifiers": {
    "calculateSegmentTimestamps(LockupDynamic.SegmentWithDuration[],uint40)": "f0b95e09",
    "calculateTrancheTimestamps(LockupTranched.TrancheWithDuration[],uint40)": "14412079",
    "checkCreateLD(address,Lockup.Timestamps,uint128,LockupDynamic.Segment[],address,address,string)": "179cab3e",
    "checkCreateLL(uint40,uint128,uint40,address,address,string,Lockup.Timestamps,address,LockupLinear.UnlockAmounts)": "f9193aa5",
    "checkCreateLPG(address,Lockup.Timestamps,uint128,address,address,string,LockupPriceGated.UnlockParams)": "b9a939cd",
    "checkCreateLT(address,Lockup.Timestamps,uint128,LockupTranched.Tranche[],address,address,string)": "0e1c82bc"
  },
  "id": 107
}