{
  "abi": [
    {
      "type": "constructor",
      "inputs": [
        {
          "name": "initialComptroller",
          "type": "address",
          "internalType": "address"
        }
      ],
      "stateMutability": "nonpayable"
    },
    {
      "type": "function",
      "name": "comptroller",
      "inputs": [],
      "outputs": [
        {
          "name": "",
          "type": "address",
          "internalType": "contract ISablierComptroller"
        }
      ],
      "stateMutability": "view"
    },
    {
      "type": "function",
      "name": "computeMerkleExecute",
      "inputs": [
        {
          "name": "campaignCreator",
          "type": "address",
          "internalType": "address"
        },
        {
          "name": "campaignParams",
          "type": "tuple",
          "internalType": "struct MerkleExecute.ConstructorParams",
          "components": [
            {
              "name": "campaignName",
              "type": "string",
              "internalType": "string"
            },
            {
              "name": "campaignStartTime",
              "type": "uint40",
              "internalType": "uint40"
            },
            {
              "name": "expiration",
              "type": "uint40",
              "internalType": "uint40"
            },
            {
              "name": "initialAdmin",
              "type": "address",
              "internalType": "address"
            },
            {
              "name": "ipfsCID",
              "type": "string",
              "internalType": "string"
            },
            {
              "name": "merkleRoot",
              "type": "bytes32",
              "internalType": "bytes32"
            },
            {
              "name": "selector",
              "type": "bytes4",
              "internalType": "bytes4"
            },
            {
              "name": "target",
              "type": "address",
              "internalType": "address"
            },
            {
              "name": "token",
              "type": "address",
              "internalType": "contract IERC20"
            }
          ]
        }
      ],
      "outputs": [
        {
          "name": "merkleExecute",
          "type": "address",
          "internalType": "address"
        }
      ],
      "stateMutability": "view"
    },
    {
      "type": "function",
      "name": "createMerkleExecute",
      "inputs": [
        {
          "name": "campaignParams",
          "type": "tuple",
          "internalType": "struct MerkleExecute.ConstructorParams",
          "components": [
            {
              "name": "campaignName",
              "type": "string",
              "internalType": "string"
            },
            {
              "name": "campaignStartTime",
              "type": "uint40",
              "internalType": "uint40"
            },
            {
              "name": "expiration",
              "type": "uint40",
              "internalType": "uint40"
            },
            {
              "name": "initialAdmin",
              "type": "address",
              "internalType": "address"
            },
            {
              "name": "ipfsCID",
              "type": "string",
              "internalType": "string"
            },
            {
              "name": "merkleRoot",
              "type": "bytes32",
              "internalType": "bytes32"
            },
            {
              "name": "selector",
              "type": "bytes4",
              "internalType": "bytes4"
            },
            {
              "name": "target",
              "type": "address",
              "internalType": "address"
            },
            {
              "name": "token",
              "type": "address",
              "internalType": "contract IERC20"
            }
          ]
        },
        {
          "name": "aggregateAmount",
          "type": "uint256",
          "internalType": "uint256"
        },
        {
          "name": "recipientCount",
          "type": "uint256",
          "internalType": "uint256"
        }
      ],
      "outputs": [
        {
          "name": "merkleExecute",
          "type": "address",
          "internalType": "contract ISablierMerkleExecute"
        }
      ],
      "stateMutability": "nonpayable"
    },
    {
      "type": "function",
      "name": "nativeToken",
      "inputs": [],
      "outputs": [
        {
          "name": "",
          "type": "address",
          "internalType": "address"
        }
      ],
      "stateMutability": "view"
    },
    {
      "type": "function",
      "name": "setComptroller",
      "inputs": [
        {
          "name": "newComptroller",
          "type": "address",
          "internalType": "contract ISablierComptroller"
        }
      ],
      "outputs": [],
      "stateMutability": "nonpayable"
    },
    {
      "type": "function",
      "name": "setNativeToken",
      "inputs": [
        {
          "name": "newNativeToken",
          "type": "address",
          "internalType": "address"
        }
      ],
      "outputs": [],
      "stateMutability": "nonpayable"
    },
    {
      "type": "function",
      "name": "transferFeesToComptroller",
      "inputs": [],
      "outputs": [],
      "stateMutability": "nonpayable"
    },
    {
      "type": "event",
      "name": "CreateMerkleExecute",
      "inputs": [
        {
          "name": "merkleExecute",
          "type": "address",
          "indexed": true,
          "internalType": "contract ISablierMerkleExecute"
        },
        {
          "name": "campaignParams",
          "type": "tuple",
          "indexed": false,
          "internalType": "struct MerkleExecute.ConstructorParams",
          "components": [
            {
              "name": "campaignName",
              "type": "string",
              "internalType": "string"
            },
            {
              "name": "campaignStartTime",
              "type": "uint40",
              "internalType": "uint40"
            },
            {
              "name": "expiration",
              "type": "uint40",
              "internalType": "uint40"
            },
            {
              "name": "initialAdmin",
              "type": "address",
              "internalType": "address"
            },
            {
              "name": "ipfsCID",
              "type": "string",
              "internalType": "string"
            },
            {
              "name": "merkleRoot",
              "type": "bytes32",
              "internalType": "bytes32"
            },
            {
              "name": "selector",
              "type": "bytes4",
              "internalType": "bytes4"
            },
            {
              "name": "target",
              "type": "address",
              "internalType": "address"
            },
            {
              "name": "token",
              "type": "address",
              "internalType": "contract IERC20"
            }
          ]
        },
        {
          "name": "aggregateAmount",
          "type": "uint256",
          "indexed": false,
          "internalType": "uint256"
        },
        {
          "name": "recipientCount",
          "type": "uint256",
          "indexed": false,
          "internalType": "uint256"
        },
        {
          "name": "comptroller",
          "type": "address",
          "indexed": false,
          "internalType": "address"
        },
        {
          "name": "minFeeUSD",
          "type": "uint256",
          "indexed": false,
          "internalType": "uint256"
        }
      ],
      "anonymous": false
    },
    {
      "type": "event",
      "name": "SetComptroller",
      "inputs": [
        {
          "name": "oldComptroller",
          "type": "address",
          "indexed": false,
          "internalType": "contract ISablierComptroller"
        },
        {
          "name": "newComptroller",
          "type": "address",
          "indexed": false,
          "internalType": "contract ISablierComptroller"
        }
      ],
      "anonymous": false
    },
    {
      "type": "event",
      "name": "SetNativeToken",
      "inputs": [
        {
          "name": "comptroller",
          "type": "address",
          "indexed": true,
          "internalType": "address"
        },
        {
          "name": "nativeToken",
          "type": "address",
          "indexed": false,
          "internalType": "address"
        }
      ],
      "anonymous": false
    },
    {
      "type": "event",
      "name": "TransferFeesToComptroller",
      "inputs": [
        {
          "name": "comptroller",
          "type": "address",
          "indexed": true,
          "internalType": "address"
        },
        {
          "name": "feeAmount",
          "type": "uint256",
          "indexed": false,
          "internalType": "uint256"
        }
      ],
      "anonymous": false
    },
    {
      "type": "error",
      "name": "Comptrollerable_CallerNotComptroller",
      "inputs": [
        {
          "name": "comptroller",
          "type": "address",
          "internalType": "address"
        },
        {
          "name": "caller",
          "type": "address",
          "internalType": "address"
        }
      ]
    },
    {
      "type": "error",
      "name": "Comptrollerable_UnsupportedInterfaceId",
      "inputs": [
        {
          "name": "previousComptroller",
          "type": "address",
          "internalType": "address"
        },
        {
          "name": "newComptroller",
          "type": "address",
          "internalType": "address"
        },
        {
          "name": "minimalInterfaceId",
          "type": "bytes4",
          "internalType": "bytes4"
        }
      ]
    },
    {
      "type": "error",
      "name": "SablierFactoryMerkleBase_ForbidNativeToken",
      "inputs": [
        {
          "name": "nativeToken",
          "type": "address",
          "internalType": "address"
        }
      ]
    },
    {
      "type": "error",
      "name": "SablierFactoryMerkleBase_NativeTokenAlreadySet",
      "inputs": [
        {
          "name": "nativeToken",
          "type": "address",
          "internalType": "address"
        }
      ]
    },
    {
      "type": "error",
      "name": "SablierFactoryMerkleBase_NativeTokenZeroAddress",
      "inputs": []
    },
    {
      "type": "error",
      "name": "SablierFactoryMerkleExecute_TargetNotContract",
      "inputs": [
        {
          "name": "target",
          "type": "address",
          "internalType": "address"
        }
      ]
    }
  ],
  "bytecode": {
    "object": "0x6080806040523461011a576020816132a7803803809161001f8285610131565b83398101031261011a57516001600160a01b0381169081900361011a576040516301ffc9a760e01b8152630654439160e41b6004820152602081602481855afa908115610126575f916100e7575b50156100c6575f80546001600160a01b031916821781556040805191825260208201929092527ff45d882a72fce9d8d7a7e2e196a338d4d9d4057510b4b9ddf91a7066104d2eaf9190a160405161313e90816101698239f35b6364ca3de160e11b5f525f600452602452630654439160e41b60445260645ffd5b90506020813d60201161011e575b8161010260209383610131565b8101031261011a5751801515810361011a575f61006d565b5f80fd5b3d91506100f5565b6040513d5f823e3d90fd5b601f909101601f19168101906001600160401b0382119082101761015457604052565b634e487b7160e01b5f52604160045260245ffdfe6080806040526004361015610012575f80fd5b5f3560e01c9081635fe3b56714610956575080636da1e1021461083257806378f82ce7146107375780638bad38dd146104f7578063c050adbf14610369578063e1758bd8146103185763ec6b295614610069575f80fd5b346102d45760607ffffffffffffffffffffffffffffffffffffffffffffffffffffffffffffffffc3601126102d45760043567ffffffffffffffff81116102d45780600401906101207ffffffffffffffffffffffffffffffffffffffffffffffffffffffffffffffffc82360301126102d4578061010f60e473ffffffffffffffffffffffffffffffffffffffff6101076101046101159601610a28565b169201610a28565b90610d08565b73ffffffffffffffffffffffffffffffffffffffff5f5416604051602080820152610173816101476040820186610ae9565b037fffffffffffffffffffffffffffffffffffffffffffffffffffffffffffffffe081018352826109e7565b60405161018a816101476020820194863387610c39565b51902090604051906123658083019183831067ffffffffffffffff8411176102eb5783926101bf92610da48539863391610c7c565b03905ff580156102e05773ffffffffffffffffffffffffffffffffffffffff1673ffffffffffffffffffffffffffffffffffffffff5f541691604051927f88dc31a80000000000000000000000000000000000000000000000000000000084525f6004850152336024850152602084604481845afa9384156102e0575f946102a6575b5061028183927ffa5193b99da360788f96727f202ba864f6b5f6dddb56819edee3645b8cd7f7de9260209660405193849360a0855260a0850190610ae9565b91602435898501526044356040850152606084015260808301520390a2604051908152f35b93506020843d6020116102d8575b816102c1602093836109e7565b810103126102d457925192610281610242565b5f80fd5b3d91506102b4565b6040513d5f823e3d90fd5b7f4e487b71000000000000000000000000000000000000000000000000000000005f52604160045260245ffd5b346102d4575f7ffffffffffffffffffffffffffffffffffffffffffffffffffffffffffffffffc3601126102d457602073ffffffffffffffffffffffffffffffffffffffff60015416604051908152f35b346102d45760407ffffffffffffffffffffffffffffffffffffffffffffffffffffffffffffffffc3601126102d4576103a06109a3565b60243567ffffffffffffffff81116102d457806004016101207ffffffffffffffffffffffffffffffffffffffffffffffffffffffffffffffffc83360301126102d4576020926104128361010f60e473ffffffffffffffffffffffffffffffffffffffff610107610104829901610a28565b61014761049b845f541692610482604051888082015261043981610147604082018a610ae9565b60405161044f816101478c8201948a8887610c39565b51902095610147612365966040519761046a8c82018a6109e7565b808952610da48c8a01396040519485938c8501610c7c565b6040519283916104958984018097610c10565b90610c10565b51902060405190848201927fff0000000000000000000000000000000000000000000000000000000000000084523060601b602184015260358301526055820152605581526104eb6075826109e7565b51902016604051908152f35b346102d45760207ffffffffffffffffffffffffffffffffffffffffffffffffffffffffffffffffc3601126102d45760043573ffffffffffffffffffffffffffffffffffffffff81168091036102d45761054f610cb7565b5f549073ffffffffffffffffffffffffffffffffffffffff8216916040517fc34df33e000000000000000000000000000000000000000000000000000000008152602081600481875afa9081156102e0575f916106dc575b507fffffffff00000000000000000000000000000000000000000000000000000000604051917f01ffc9a70000000000000000000000000000000000000000000000000000000083521690816004820152602081602481875afa9081156102e0575f916106a1575b501561066e577ff45d882a72fce9d8d7a7e2e196a338d4d9d4057510b4b9ddf91a7066104d2eaf60408585807fffffffffffffffffffffffff00000000000000000000000000000000000000008716175f5582519182526020820152a1005b82847fc9947bc2000000000000000000000000000000000000000000000000000000005f5260045260245260445260645ffd5b90506020813d6020116106d4575b816106bc602093836109e7565b810103126102d4575180151581036102d4578561060f565b3d91506106af565b90506020813d60201161072f575b816106f7602093836109e7565b810103126102d457517fffffffff00000000000000000000000000000000000000000000000000000000811681036102d457846105a7565b3d91506106ea565b346102d4575f7ffffffffffffffffffffffffffffffffffffffffffffffffffffffffffffffffc3601126102d45773ffffffffffffffffffffffffffffffffffffffff5f5416475f80808084865af1503d15610809573d67ffffffffffffffff81116102eb577f56dedb874d4fc0f70753f281fa2c25e82085163206086fe826cf834b51701f6c91602091604051906107f7847fffffffffffffffffffffffffffffffffffffffffffffffffffffffffffffffe0601f84011601836109e7565b81525f833d92013e5b604051908152a2005b60207f56dedb874d4fc0f70753f281fa2c25e82085163206086fe826cf834b51701f6c91610800565b346102d45760207ffffffffffffffffffffffffffffffffffffffffffffffffffffffffffffffffc3601126102d45773ffffffffffffffffffffffffffffffffffffffff61087e6109a3565b610886610cb7565b16801561092e5760015473ffffffffffffffffffffffffffffffffffffffff81168061090357507fffffffffffffffffffffffff0000000000000000000000000000000000000000829116176001556040519081527f7b0a5ae0a2e8f0dc2ec7555098e00dd4af1418ee3fd1bcf9bb14f6990c10fa9260203392a2005b7f6d9f7c38000000000000000000000000000000000000000000000000000000005f5260045260245ffd5b7f2f70e6c7000000000000000000000000000000000000000000000000000000005f5260045ffd5b346102d4575f7ffffffffffffffffffffffffffffffffffffffffffffffffffffffffffffffffc3601126102d45760209073ffffffffffffffffffffffffffffffffffffffff5f54168152f35b6004359073ffffffffffffffffffffffffffffffffffffffff821682036102d457565b359073ffffffffffffffffffffffffffffffffffffffff821682036102d457565b90601f7fffffffffffffffffffffffffffffffffffffffffffffffffffffffffffffffe0910116810190811067ffffffffffffffff8211176102eb57604052565b3573ffffffffffffffffffffffffffffffffffffffff811681036102d45790565b90357fffffffffffffffffffffffffffffffffffffffffffffffffffffffffffffffe1823603018112156102d457016020813591019167ffffffffffffffff82116102d45781360383136102d457565b601f82602094937fffffffffffffffffffffffffffffffffffffffffffffffffffffffffffffffe093818652868601375f8582860101520116010190565b359064ffffffffff821682036102d457565b90610b7c610b0a610afa8480610a49565b6101208552610120850191610a99565b64ffffffffff610b1c60208601610ad7565b16602084015264ffffffffff610b3460408601610ad7565b16604084015273ffffffffffffffffffffffffffffffffffffffff610b5b606086016109c6565b166060840152610b6e6080850185610a49565b908483036080860152610a99565b9160a081013560a083015260c0810135907fffffffff0000000000000000000000000000000000000000000000000000000082168092036102d4576101009160c084015273ffffffffffffffffffffffffffffffffffffffff610be160e083016109c6565b1660e084015201359073ffffffffffffffffffffffffffffffffffffffff82168092036102d457610100015290565b908151915f5b838110610c26575050015f815290565b8060208092840101518185015201610c16565b7fffffffffffffffffffffffffffffffffffffffff000000000000000000000000610c7994938160289460601b16835260601b1660148201520190610c10565b90565b91939273ffffffffffffffffffffffffffffffffffffffff9081610caa604094606087526060870190610ae9565b9616602085015216910152565b73ffffffffffffffffffffffffffffffffffffffff5f5416803303610cd95750565b7fa7e1519e000000000000000000000000000000000000000000000000000000005f526004523360245260445ffd5b73ffffffffffffffffffffffffffffffffffffffff80600154169116908114610d785750803b15610d365750565b73ffffffffffffffffffffffffffffffffffffffff907f5314bebf000000000000000000000000000000000000000000000000000000005f521660045260245ffd5b7fb1c99895000000000000000000000000000000000000000000000000000000005f5260045260245ffdfe610180806040523461047057612365803803809161001d828561068c565b833981016060828203126104705781516001600160401b03811161047057820191610120838303126104705760405161012081016001600160401b0381118282101761057b5760405283516001600160401b03811161047057836100829186016106af565b81526100906020850161071c565b91602082019283526100a46040860161071c565b92604083019384526100b86060870161072e565b60608401908152608087015190956001600160401b038211610470576100df9188016106af565b9182608085015260a08701518060a086015260c08801519663ffffffff60e01b881688036104705760c0860197885261010061011d60e08b0161072e565b60e088019081529901516001600160a01b03811693908481036104705761010088015264ffffffffff8061015f60406101586020860161072e565b940161072e565b98519651995193516040519a92909416936001600160a01b0316926101408b019291909116906001600160401b0383118b84101761057b5764ffffffffff9260405260018060a01b03168a5260208a0196875260408a0190815260608a01926002845260808b019960018060a01b03168a5260a08b019485528060c08c015260e08b019889526101008b019586526101208b0196875260015f558060018060a01b031960015416176001555f7fbdd36143ee09de60bdefca70680e0f71189b2ed7acee364b53917ad433fdaf808180a35116608052519060038210156106785760a09190915285516001600160a01b0390811660c052905164ffffffffff1660e05290516101005290511661012052518051906001600160401b03821161057b5760025490600182811c9216801561066e575b602083101461055d5781601f849311610600575b50602090601f831160011461059a575f9261058f575b50508160011b915f199060031b1c1916176002555b518051906001600160401b03821161057b57600454600181811c91168015610571575b602082101461055d57601f81116104fa575b50602090601f83116001146104925760209392915f9183610487575b50508160011b915f199060031b1c1916176004555b51915160405163111b863560e31b81525f60048201526001600160a01b0391821660248201529283916044918391165afa90811561047c575f91610446575b50600555516001600160e01b03191661014052516001600160a01b031661016052604051611c2290816107438239608051818181610b8501526115b5015260a05181610fdc015260c05181818161081b01528181610a4301528181610c8a0152611622015260e0518181816105a101528181610def015281816110ae01526119060152610100518181816109d601526117130152610120518181816104d601528181610bf301526111300152610140518181816101ca01526111d7015261016051818181610e5d01526111850152f35b90506020813d602011610474575b816104616020938361068c565b8101031261047057515f610376565b5f80fd5b3d9150610454565b6040513d5f823e3d90fd5b015190505f80610322565b90601f1983169160045f52815f20925f5b8181106104e257509160019391856020979694106104ca575b505050811b01600455610337565b01515f1960f88460031b161c191690555f80806104bc565b929360206001819287860151815501950193016104a3565b60045f527f8a35acfbc15ff81a39ae7d344fd709f28e8600b4aa8c65c6b64bfe7fe36bd19b601f840160051c81019160208510610553575b601f0160051c01905b8181106105485750610306565b5f815560010161053b565b9091508190610532565b634e487b7160e01b5f52602260045260245ffd5b90607f16906102f4565b634e487b7160e01b5f52604160045260245ffd5b015190505f806102bc565b60025f9081528281209350601f198516905b8181106105e857509084600195949392106105d0575b505050811b016002556102d1565b01515f1960f88460031b161c191690555f80806105c2565b929360206001819287860151815501950193016105ac565b60025f529091507f405787fa12a823e0f2b7631cc41b3ba8828b3321ca811111fa75cd3aa3bb5ace601f840160051c81019160208510610664575b90601f859493920160051c01905b81811061065657506102a6565b5f8155849350600101610649565b909150819061063b565b91607f1691610292565b634e487b7160e01b5f52602160045260245ffd5b601f909101601f19168101906001600160401b0382119082101761057b57604052565b81601f82011215610470578051906001600160401b03821161057b57604051926106e3601f8401601f19166020018561068c565b82845260208383010111610470575f5b82811061070757505060205f918301015290565b806020809284010151828287010152016106f3565b519064ffffffffff8216820361047057565b51906001600160a01b03821682036104705756fe60806040526004361015610011575f80fd5b5f3560e01c8063053c238d146101745780630724fda91461016f5780631686c9091461016a5780632481a13a146101655780633a12a5bc1461016057806349fc73dd1461015b5780634e0bb8cc1461015657806351e75e8b146101515780635f82c67e1461014c5780637423649b1461014757806375829def146101425780637ca3944d1461013d57806382bfefc81461013857806382d72f7f146101335780638ec688691461012e57806390e64d1314610129578063bb4b573414610124578063cc1f2afa1461011f578063ce5165071461011a578063d6df6ea014610115578063eb8cd775146101105763f851a4401461010b575f80fd5b61103b565b610fac565b610f03565b610e81565b610e13565b610db4565b610d72565b610c59565b610c17565b610ba9565b610b4a565b610aa0565b610a67565b6109f9565b6109a1565b610966565b610893565b6107a1565b610611565b610450565b6102cb565b346101ee575f7ffffffffffffffffffffffffffffffffffffffffffffffffffffffffffffffffc3601126101ee5760206040517fffffffff000000000000000000000000000000000000000000000000000000007f0000000000000000000000000000000000000000000000000000000000000000168152f35b5f80fd5b7f4e487b71000000000000000000000000000000000000000000000000000000005f52604160045260245ffd5b90601f7fffffffffffffffffffffffffffffffffffffffffffffffffffffffffffffffe0910116810190811067ffffffffffffffff82111761026057604052565b6101f2565b919091602081528251928360208301525f5b8481106102b55750507fffffffffffffffffffffffffffffffffffffffffffffffffffffffffffffffe0601f845f6040809697860101520116010190565b8060208092840101516040828601015201610277565b346101ee575f7ffffffffffffffffffffffffffffffffffffffffffffffffffffffffffffffffc3601126101ee576040515f6002548060011c9060018116908115610409575b6020831082146103dc5782855260208501919081156103a55750600114610353575b61034f846103438186038261021f565b60405191829182610265565b0390f35b60025f9081529250907f405787fa12a823e0f2b7631cc41b3ba8828b3321ca811111fa75cd3aa3bb5ace5b8184106103915750500161034382610333565b80548484015260209093019260010161037e565b7fffffffffffffffffffffffffffffffffffffffffffffffffffffffffffffff001682525090151560051b01905061034382610333565b7f4e487b71000000000000000000000000000000000000000000000000000000005f52602260045260245ffd5b91607f1691610311565b73ffffffffffffffffffffffffffffffffffffffff8116036101ee57565b602435906fffffffffffffffffffffffffffffffff821682036101ee57565b346101ee5760407ffffffffffffffffffffffffffffffffffffffffffffffffffffffffffffffffc3601126101ee5760043561048b81610413565b610493610431565b9061049c611487565b60035464ffffffffff811680151590816105ea575b50806105d5575b61057857506104fa6fffffffffffffffffffffffffffffffff8316827f00000000000000000000000000000000000000000000000000000000000000006114d9565b7f2e9d425ba8b27655048400b366d7b6a1f7180ebdb088e06bb7389704860ffe1f73ffffffffffffffffffffffffffffffffffffffff8061055060015473ffffffffffffffffffffffffffffffffffffffff1690565b6040516fffffffffffffffffffffffffffffffff9690961686529390911693921691602090a3005b7fe2e40a0c000000000000000000000000000000000000000000000000000000005f52426004527f000000000000000000000000000000000000000000000000000000000000000064ffffffffff9081166024521660445260645ffd5b506105e56105e16110a6565b1590565b6104b8565b62093a8091500164ffffffffff811161060c5764ffffffffff1642115f6104b1565b61144d565b346101ee5760607ffffffffffffffffffffffffffffffffffffffffffffffffffffffffffffffffc3601126101ee5760043561064c81610413565b610654610431565b9073ffffffffffffffffffffffffffffffffffffffff60443561067681610413565b16918215610779576fffffffffffffffffffffffffffffffff81168015610751576106eb90604051907f23b872dd0000000000000000000000000000000000000000000000000000000060208301523360248301528560448301526064820152606481526106e560848261021f565b83611b14565b7f5c3fcf40f5e26ff8e74068a6d3b372d00de14949e859fa20fb3616b2c7128b9b73ffffffffffffffffffffffffffffffffffffffff6040519316928061074c3394829190916fffffffffffffffffffffffffffffffff6020820193169052565b0390a4005b7f642ef277000000000000000000000000000000000000000000000000000000005f5260045ffd5b7f036fcd52000000000000000000000000000000000000000000000000000000005f5260045ffd5b346101ee575f7ffffffffffffffffffffffffffffffffffffffffffffffffffffffffffffffffc3601126101ee57600554604051907fb0fa59e8000000000000000000000000000000000000000000000000000000008252600482015260208160248173ffffffffffffffffffffffffffffffffffffffff7f0000000000000000000000000000000000000000000000000000000000000000165afa801561088e5761034f915f9161085f575b506040519081529081906020820190565b610881915060203d602011610887575b610879818361021f565b81019061108c565b5f61084e565b503d61086f565b61109b565b346101ee575f7ffffffffffffffffffffffffffffffffffffffffffffffffffffffffffffffffc3601126101ee576040515f6004548060011c906001811690811561095c575b6020831082146103dc5782855260208501919081156103a5575060011461090a5761034f846103438186038261021f565b60045f9081529250907f8a35acfbc15ff81a39ae7d344fd709f28e8600b4aa8c65c6b64bfe7fe36bd19b5b8184106109485750500161034382610333565b805484840152602090930192600101610935565b91607f16916108d9565b346101ee575f7ffffffffffffffffffffffffffffffffffffffffffffffffffffffffffffffffc3601126101ee576020600554604051908152f35b346101ee575f7ffffffffffffffffffffffffffffffffffffffffffffffffffffffffffffffffc3601126101ee5760206040517f00000000000000000000000000000000000000000000000000000000000000008152f35b346101ee575f7ffffffffffffffffffffffffffffffffffffffffffffffffffffffffffffffffc3601126101ee57602060405173ffffffffffffffffffffffffffffffffffffffff7f0000000000000000000000000000000000000000000000000000000000000000168152f35b346101ee575f7ffffffffffffffffffffffffffffffffffffffffffffffffffffffffffffffffc3601126101ee57602060405160018152f35b346101ee5760207ffffffffffffffffffffffffffffffffffffffffffffffffffffffffffffffffc3601126101ee5773ffffffffffffffffffffffffffffffffffffffff600435610af081610413565b610af8611487565b16807fffffffffffffffffffffffff00000000000000000000000000000000000000006001541617600155337fbdd36143ee09de60bdefca70680e0f71189b2ed7acee364b53917ad433fdaf805f80a3005b346101ee575f7ffffffffffffffffffffffffffffffffffffffffffffffffffffffffffffffffc3601126101ee57602060405164ffffffffff7f0000000000000000000000000000000000000000000000000000000000000000168152f35b346101ee575f7ffffffffffffffffffffffffffffffffffffffffffffffffffffffffffffffffc3601126101ee57602060405173ffffffffffffffffffffffffffffffffffffffff7f0000000000000000000000000000000000000000000000000000000000000000168152f35b346101ee575f7ffffffffffffffffffffffffffffffffffffffffffffffffffffffffffffffffc3601126101ee57602064ffffffffff60035416604051908152f35b346101ee5760207ffffffffffffffffffffffffffffffffffffffffffffffffffffffffffffffffc3601126101ee577f000000000000000000000000000000000000000000000000000000000000000073ffffffffffffffffffffffffffffffffffffffff16600435338203610d42576005549081811015610d13579081610d017fcafa56d109bc30839f1bad76f9d17abcbd6c936490d4ec0fbc6d331bf89f92af93600555565b604080519182526020820192909252a2005b907f173c9c82000000000000000000000000000000000000000000000000000000005f5260045260245260445ffd5b507fead08252000000000000000000000000000000000000000000000000000000005f526004523360245260445ffd5b346101ee575f7ffffffffffffffffffffffffffffffffffffffffffffffffffffffffffffffffc3601126101ee576020610daa6110a6565b6040519015158152f35b346101ee575f7ffffffffffffffffffffffffffffffffffffffffffffffffffffffffffffffffc3601126101ee57602060405164ffffffffff7f0000000000000000000000000000000000000000000000000000000000000000168152f35b346101ee575f7ffffffffffffffffffffffffffffffffffffffffffffffffffffffffffffffffc3601126101ee57602060405173ffffffffffffffffffffffffffffffffffffffff7f0000000000000000000000000000000000000000000000000000000000000000168152f35b346101ee5760207ffffffffffffffffffffffffffffffffffffffffffffffffffffffffffffffffc3601126101ee576020610daa60043560ff6001918060081c5f526006602052161b60405f205416151590565b9181601f840112156101ee5782359167ffffffffffffffff83116101ee57602083818601950101116101ee57565b60807ffffffffffffffffffffffffffffffffffffffffffffffffffffffffffffffffc3601126101ee57600435610f38610431565b9060443567ffffffffffffffff81116101ee57366023820112156101ee57806004013567ffffffffffffffff81116101ee573660248260051b840101116101ee576064359267ffffffffffffffff84116101ee57610faa94610fa06024953690600401610ed5565b95909401916110e3565b005b346101ee575f7ffffffffffffffffffffffffffffffffffffffffffffffffffffffffffffffffc3601126101ee577f0000000000000000000000000000000000000000000000000000000000000000604051600382101561100e576020918152f35b7f4e487b71000000000000000000000000000000000000000000000000000000005f52602160045260245ffd5b346101ee575f7ffffffffffffffffffffffffffffffffffffffffffffffffffffffffffffffffc3601126101ee57602073ffffffffffffffffffffffffffffffffffffffff60015416604051908152f35b908160209103126101ee575190565b6040513d5f823e3d90fd5b64ffffffffff7f00000000000000000000000000000000000000000000000000000000000000001680151590816110db575090565b905042101590565b93929491909460025f5414611391576111029160025f558633876115af565b6040517f70a082310000000000000000000000000000000000000000000000000000000081523060048201527f0000000000000000000000000000000000000000000000000000000000000000919073ffffffffffffffffffffffffffffffffffffffff831690602081602481855afa90811561088e575f91611372575b505f807f0000000000000000000000000000000000000000000000000000000000000000966111fc6112286fffffffffffffffffffffffffffffffff8c16976111ca898c8c611ab1565b60405192839160208301957f0000000000000000000000000000000000000000000000000000000000000000876113b9565b037fffffffffffffffffffffffffffffffffffffffffffffffffffffffffffffffe0810183528261021f565b519082895af16112366113f0565b901561136a57506040517f70a0823100000000000000000000000000000000000000000000000000000000815230600482015291602090839060249082905afa90811561088e5761128e925f92611349575b5061147a565b9081036113085750816112d77f18e40f70b522507ce410bb2616ee314c0dfb996abb5c4532f6fa007c8eec3b4c9373ffffffffffffffffffffffffffffffffffffffff93611964565b604080519485526fffffffffffffffffffffffffffffffff95909516602085015216923392a361130660015f55565b565b7f9c50ae93000000000000000000000000000000000000000000000000000000005f526004526fffffffffffffffffffffffffffffffff841660245260445ffd5b61136391925060203d60201161088757610879818361021f565b905f611288565b805190602001fd5b61138b915060203d60201161088757610879818361021f565b5f611180565b7f3ee5aeb5000000000000000000000000000000000000000000000000000000005f5260045ffd5b909280927fffffffff000000000000000000000000000000000000000000000000000000006004951683528483013701015f815290565b3d15611448573d9067ffffffffffffffff8211610260576040519161143d60207fffffffffffffffffffffffffffffffffffffffffffffffffffffffffffffffe0601f840116018461021f565b82523d5f602084013e565b606090565b7f4e487b71000000000000000000000000000000000000000000000000000000005f52601160045260245ffd5b9190820391821161060c57565b73ffffffffffffffffffffffffffffffffffffffff600154163381036114aa5750565b7fc6cce6a4000000000000000000000000000000000000000000000000000000005f526004523360245260445ffd5b6040517fa9059cbb00000000000000000000000000000000000000000000000000000000602082015273ffffffffffffffffffffffffffffffffffffffff9290921660248301526044808301939093529181526113069161153b60648361021f565b611b14565b906040519160208301526020825261130660408361021f565b9291909267ffffffffffffffff8411610260578360051b9060206040516115828285018261021f565b80968152019181019283116101ee57905b82821061159f57505050565b8135815260209182019101611593565b929193907f00000000000000000000000000000000000000000000000000000000000000004264ffffffffff82161161192e57506115eb6110a6565b6118d7576005546040517fb0fa59e800000000000000000000000000000000000000000000000000000000815260048101919091527f0000000000000000000000000000000000000000000000000000000000000000959060208160248173ffffffffffffffffffffffffffffffffffffffff8b165afa90811561088e575f916118b8575b50803410611889575061169a8560ff6001918060081c5f526006602052161b60405f205416151590565b61185c579161173a61170961173f95936111fc6117016105e19760405192839160208301958d8791604091949373ffffffffffffffffffffffffffffffffffffffff6fffffffffffffffffffffffffffffffff926060860197865216602085015216910152565b519020611540565b60208151910120927f0000000000000000000000000000000000000000000000000000000000000000923691611559565b611b9b565b611834576117809064ffffffffff61175d60035464ffffffffff1690565b16156117e6578060081c5f526006602052600160ff60405f2092161b8154179055565b346117885750565b5f80808034855af16117986113f0565b50156117a15750565b7fe57d366c000000000000000000000000000000000000000000000000000000005f5273ffffffffffffffffffffffffffffffffffffffff166004523460245260445ffd5b600380547fffffffffffffffffffffffffffffffffffffffffffffffffffffff0000000000164264ffffffffff161790558060081c5f526006602052600160ff60405f2092161b8154179055565b7fb4f06787000000000000000000000000000000000000000000000000000000005f5260045ffd5b7f02bf1aba000000000000000000000000000000000000000000000000000000005f52600485905260245ffd5b7fa164c6b4000000000000000000000000000000000000000000000000000000005f523460045260245260445ffd5b6118d1915060203d60201161088757610879818361021f565b5f611670565b7fdf4bae05000000000000000000000000000000000000000000000000000000005f524260045264ffffffffff7f00000000000000000000000000000000000000000000000000000000000000001660245260445ffd5b7f14659648000000000000000000000000000000000000000000000000000000005f524260045264ffffffffff1660245260445ffd5b6040519060205f8184017f095ea7b30000000000000000000000000000000000000000000000000000000081526119f2856119c68489602484016020909392919373ffffffffffffffffffffffffffffffffffffffff60408201951681520152565b037fffffffffffffffffffffffffffffffffffffffffffffffffffffffffffffffe0810187528661021f565b84519082855af15f51903d81611a78575b501590505b611a1157505050565b6040517f095ea7b300000000000000000000000000000000000000000000000000000000602082015273ffffffffffffffffffffffffffffffffffffffff90931660248401525f60448401526113069261153b90611a7281606481016111fc565b82611b14565b15159050611aa55750611a0873ffffffffffffffffffffffffffffffffffffffff82163b15155b5f611a03565b6001611a089114611a9f565b6040517f095ea7b300000000000000000000000000000000000000000000000000000000602082810191825273ffffffffffffffffffffffffffffffffffffffff851660248401526044830195909552929390925f906119f285606481016119c6565b905f602091828151910182855af11561109b575f513d611b92575073ffffffffffffffffffffffffffffffffffffffff81163b155b611b505750565b73ffffffffffffffffffffffffffffffffffffffff907f5274afe7000000000000000000000000000000000000000000000000000000005f521660045260245ffd5b60011415611b49565b929091905f915b8451831015611be45760208360051b86010151908181105f14611bd3575f52602052600160405f205b920191611ba2565b905f52602052600160405f20611bcb565b91509250149056fea2646970667358221220e3e5834098ef96028c5bbe91b12ff4fd4042f0b53e73caab72d1edfb2220495864736f6c634300081d0033a264697066735822122095123f873ca03ad13af8ac95c571914d6926da63dc1b4acd01f4a5c1c9d1700164736f6c634300081d0033",
    "linkReferences": {}
  },
  "methodIdentifiers": {
    "comptroller()": "5fe3b567",
    "computeMerkleExecute(address,(string,uint40,uint40,address,string,bytes32,bytes4,address,address))": "c050adbf",
    "createMerkleExecute((string,uint40,uint40,address,string,bytes32,bytes4,address,address),uint256,uint256)": "ec6b2956",
    "nativeToken()": "e1758bd8",
    "setComptroller(address)": "8bad38dd",
    "setNativeToken(address)": "6da1e102",
    "transferFeesToComptroller()": "78f82ce7"
  },
  "id": 95
}