{
  "abi": [
    {
      "type": "constructor",
      "inputs": [
        {
          "name": "campaignParams",
          "type": "tuple",
          "internalType": "struct MerkleInstant.ConstructorParams",
          "components": [
            {
              "name": "campaignName",
              "type": "string",
              "internalType": "string"
            },
            {
              "name": "campaignStartTime",
              "type": "uint40",
              "internalType": "uint40"
            },
            {
              "name": "claimType",
              "type": "uint8",
              "internalType": "enum ClaimType"
            },
            {
              "name": "expiration",
              "type": "uint40",
              "internalType": "uint40"
            },
            {
              "name": "initialAdmin",
              "type": "address",
              "internalType": "address"
            },
            {
              "name": "ipfsCID",
              "type": "string",
              "internalType": "string"
            },
            {
              "name": "merkleRoot",
              "type": "bytes32",
              "internalType": "bytes32"
            },
            {
              "name": "token",
              "type": "address",
              "internalType": "contract IERC20"
            }
          ]
        },
        {
          "name": "campaignCreator",
          "type": "address",
          "internalType": "address"
        },
        {
          "name": "comptroller",
          "type": "address",
          "internalType": "address"
        }
      ],
      "stateMutability": "nonpayable"
    },
    {
      "type": "function",
      "name": "CAMPAIGN_START_TIME",
      "inputs": [],
      "outputs": [
        {
          "name": "",
          "type": "uint40",
          "internalType": "uint40"
        }
      ],
      "stateMutability": "view"
    },
    {
      "type": "function",
      "name": "CLAIM_TYPE",
      "inputs": [],
      "outputs": [
        {
          "name": "",
          "type": "uint8",
          "internalType": "enum ClaimType"
        }
      ],
      "stateMutability": "view"
    },
    {
      "type": "function",
      "name": "COMPTROLLER",
      "inputs": [],
      "outputs": [
        {
          "name": "",
          "type": "address",
          "internalType": "address"
        }
      ],
      "stateMutability": "view"
    },
    {
      "type": "function",
      "name": "EXPIRATION",
      "inputs": [],
      "outputs": [
        {
          "name": "",
          "type": "uint40",
          "internalType": "uint40"
        }
      ],
      "stateMutability": "view"
    },
    {
      "type": "function",
      "name": "IS_SABLIER_MERKLE",
      "inputs": [],
      "outputs": [
        {
          "name": "",
          "type": "bool",
          "internalType": "bool"
        }
      ],
      "stateMutability": "view"
    },
    {
      "type": "function",
      "name": "MERKLE_ROOT",
      "inputs": [],
      "outputs": [
        {
          "name": "",
          "type": "bytes32",
          "internalType": "bytes32"
        }
      ],
      "stateMutability": "view"
    },
    {
      "type": "function",
      "name": "TOKEN",
      "inputs": [],
      "outputs": [
        {
          "name": "",
          "type": "address",
          "internalType": "contract IERC20"
        }
      ],
      "stateMutability": "view"
    },
    {
      "type": "function",
      "name": "admin",
      "inputs": [],
      "outputs": [
        {
          "name": "",
          "type": "address",
          "internalType": "address"
        }
      ],
      "stateMutability": "view"
    },
    {
      "type": "function",
      "name": "attestor",
      "inputs": [],
      "outputs": [
        {
          "name": "",
          "type": "address",
          "internalType": "address"
        }
      ],
      "stateMutability": "view"
    },
    {
      "type": "function",
      "name": "calculateMinFeeWei",
      "inputs": [],
      "outputs": [
        {
          "name": "",
          "type": "uint256",
          "internalType": "uint256"
        }
      ],
      "stateMutability": "view"
    },
    {
      "type": "function",
      "name": "campaignName",
      "inputs": [],
      "outputs": [
        {
          "name": "",
          "type": "string",
          "internalType": "string"
        }
      ],
      "stateMutability": "view"
    },
    {
      "type": "function",
      "name": "claim",
      "inputs": [
        {
          "name": "index",
          "type": "uint256",
          "internalType": "uint256"
        },
        {
          "name": "recipient",
          "type": "address",
          "internalType": "address"
        },
        {
          "name": "amount",
          "type": "uint128",
          "internalType": "uint128"
        },
        {
          "name": "merkleProof",
          "type": "bytes32[]",
          "internalType": "bytes32[]"
        }
      ],
      "outputs": [],
      "stateMutability": "payable"
    },
    {
      "type": "function",
      "name": "claimTo",
      "inputs": [
        {
          "name": "index",
          "type": "uint256",
          "internalType": "uint256"
        },
        {
          "name": "to",
          "type": "address",
          "internalType": "address"
        },
        {
          "name": "amount",
          "type": "uint128",
          "internalType": "uint128"
        },
        {
          "name": "merkleProof",
          "type": "bytes32[]",
          "internalType": "bytes32[]"
        }
      ],
      "outputs": [],
      "stateMutability": "payable"
    },
    {
      "type": "function",
      "name": "claimViaAttestation",
      "inputs": [
        {
          "name": "index",
          "type": "uint256",
          "internalType": "uint256"
        },
        {
          "name": "to",
          "type": "address",
          "internalType": "address"
        },
        {
          "name": "amount",
          "type": "uint128",
          "internalType": "uint128"
        },
        {
          "name": "expireAt",
          "type": "uint40",
          "internalType": "uint40"
        },
        {
          "name": "merkleProof",
          "type": "bytes32[]",
          "internalType": "bytes32[]"
        },
        {
          "name": "attestation",
          "type": "bytes",
          "internalType": "bytes"
        }
      ],
      "outputs": [],
      "stateMutability": "payable"
    },
    {
      "type": "function",
      "name": "claimViaSig",
      "inputs": [
        {
          "name": "index",
          "type": "uint256",
          "internalType": "uint256"
        },
        {
          "name": "recipient",
          "type": "address",
          "internalType": "address"
        },
        {
          "name": "to",
          "type": "address",
          "internalType": "address"
        },
        {
          "name": "amount",
          "type": "uint128",
          "internalType": "uint128"
        },
        {
          "name": "validFrom",
          "type": "uint40",
          "internalType": "uint40"
        },
        {
          "name": "merkleProof",
          "type": "bytes32[]",
          "internalType": "bytes32[]"
        },
        {
          "name": "signature",
          "type": "bytes",
          "internalType": "bytes"
        }
      ],
      "outputs": [],
      "stateMutability": "payable"
    },
    {
      "type": "function",
      "name": "clawback",
      "inputs": [
        {
          "name": "to",
          "type": "address",
          "internalType": "address"
        },
        {
          "name": "amount",
          "type": "uint128",
          "internalType": "uint128"
        }
      ],
      "outputs": [],
      "stateMutability": "nonpayable"
    },
    {
      "type": "function",
      "name": "domainSeparator",
      "inputs": [],
      "outputs": [
        {
          "name": "",
          "type": "bytes32",
          "internalType": "bytes32"
        }
      ],
      "stateMutability": "view"
    },
    {
      "type": "function",
      "name": "firstClaimTime",
      "inputs": [],
      "outputs": [
        {
          "name": "",
          "type": "uint40",
          "internalType": "uint40"
        }
      ],
      "stateMutability": "view"
    },
    {
      "type": "function",
      "name": "hasClaimed",
      "inputs": [
        {
          "name": "index",
          "type": "uint256",
          "internalType": "uint256"
        }
      ],
      "outputs": [
        {
          "name": "",
          "type": "bool",
          "internalType": "bool"
        }
      ],
      "stateMutability": "view"
    },
    {
      "type": "function",
      "name": "hasExpired",
      "inputs": [],
      "outputs": [
        {
          "name": "",
          "type": "bool",
          "internalType": "bool"
        }
      ],
      "stateMutability": "view"
    },
    {
      "type": "function",
      "name": "ipfsCID",
      "inputs": [],
      "outputs": [
        {
          "name": "",
          "type": "string",
          "internalType": "string"
        }
      ],
      "stateMutability": "view"
    },
    {
      "type": "function",
      "name": "lowerMinFeeUSD",
      "inputs": [
        {
          "name": "newMinFeeUSD",
          "type": "uint256",
          "internalType": "uint256"
        }
      ],
      "outputs": [],
      "stateMutability": "nonpayable"
    },
    {
      "type": "function",
      "name": "minFeeUSD",
      "inputs": [],
      "outputs": [
        {
          "name": "",
          "type": "uint256",
          "internalType": "uint256"
        }
      ],
      "stateMutability": "view"
    },
    {
      "type": "function",
      "name": "setAttestor",
      "inputs": [
        {
          "name": "newAttestor",
          "type": "address",
          "internalType": "address"
        }
      ],
      "outputs": [],
      "stateMutability": "nonpayable"
    },
    {
      "type": "function",
      "name": "sponsor",
      "inputs": [
        {
          "name": "token",
          "type": "address",
          "internalType": "contract IERC20"
        },
        {
          "name": "amount",
          "type": "uint128",
          "internalType": "uint128"
        },
        {
          "name": "biller",
          "type": "address",
          "internalType": "address"
        }
      ],
      "outputs": [],
      "stateMutability": "nonpayable"
    },
    {
      "type": "function",
      "name": "transferAdmin",
      "inputs": [
        {
          "name": "newAdmin",
          "type": "address",
          "internalType": "address"
        }
      ],
      "outputs": [],
      "stateMutability": "nonpayable"
    },
    {
      "type": "event",
      "name": "ClaimInstant",
      "inputs": [
        {
          "name": "index",
          "type": "uint256",
          "indexed": false,
          "internalType": "uint256"
        },
        {
          "name": "recipient",
          "type": "address",
          "indexed": true,
          "internalType": "address"
        },
        {
          "name": "amount",
          "type": "uint128",
          "indexed": false,
          "internalType": "uint128"
        },
        {
          "name": "to",
          "type": "address",
          "indexed": false,
          "internalType": "address"
        },
        {
          "name": "viaSig",
          "type": "bool",
          "indexed": false,
          "internalType": "bool"
        }
      ],
      "anonymous": false
    },
    {
      "type": "event",
      "name": "Clawback",
      "inputs": [
        {
          "name": "admin",
          "type": "address",
          "indexed": true,
          "internalType": "address"
        },
        {
          "name": "to",
          "type": "address",
          "indexed": true,
          "internalType": "address"
        },
        {
          "name": "amount",
          "type": "uint128",
          "indexed": false,
          "internalType": "uint128"
        }
      ],
      "anonymous": false
    },
    {
      "type": "event",
      "name": "LowerMinFeeUSD",
      "inputs": [
        {
          "name": "comptroller",
          "type": "address",
          "indexed": true,
          "internalType": "address"
        },
        {
          "name": "newMinFeeUSD",
          "type": "uint256",
          "indexed": false,
          "internalType": "uint256"
        },
        {
          "name": "previousMinFeeUSD",
          "type": "uint256",
          "indexed": false,
          "internalType": "uint256"
        }
      ],
      "anonymous": false
    },
    {
      "type": "event",
      "name": "SetAttestor",
      "inputs": [
        {
          "name": "caller",
          "type": "address",
          "indexed": true,
          "internalType": "address"
        },
        {
          "name": "previousAttestor",
          "type": "address",
          "indexed": true,
          "internalType": "address"
        },
        {
          "name": "newAttestor",
          "type": "address",
          "indexed": true,
          "internalType": "address"
        }
      ],
      "anonymous": false
    },
    {
      "type": "event",
      "name": "Sponsor",
      "inputs": [
        {
          "name": "caller",
          "type": "address",
          "indexed": true,
          "internalType": "address"
        },
        {
          "name": "token",
          "type": "address",
          "indexed": true,
          "internalType": "contract IERC20"
        },
        {
          "name": "amount",
          "type": "uint128",
          "indexed": false,
          "internalType": "uint128"
        },
        {
          "name": "biller",
          "type": "address",
          "indexed": true,
          "internalType": "address"
        }
      ],
      "anonymous": false
    },
    {
      "type": "event",
      "name": "TransferAdmin",
      "inputs": [
        {
          "name": "oldAdmin",
          "type": "address",
          "indexed": true,
          "internalType": "address"
        },
        {
          "name": "newAdmin",
          "type": "address",
          "indexed": true,
          "internalType": "address"
        }
      ],
      "anonymous": false
    },
    {
      "type": "error",
      "name": "CallerNotAdmin",
      "inputs": [
        {
          "name": "admin",
          "type": "address",
          "internalType": "address"
        },
        {
          "name": "caller",
          "type": "address",
          "internalType": "address"
        }
      ]
    },
    {
      "type": "error",
      "name": "SablierMerkleBase_CallerNotComptroller",
      "inputs": [
        {
          "name": "comptroller",
          "type": "address",
          "internalType": "address"
        },
        {
          "name": "caller",
          "type": "address",
          "internalType": "address"
        }
      ]
    },
    {
      "type": "error",
      "name": "SablierMerkleBase_CampaignExpired",
      "inputs": [
        {
          "name": "blockTimestamp",
          "type": "uint256",
          "internalType": "uint256"
        },
        {
          "name": "expiration",
          "type": "uint40",
          "internalType": "uint40"
        }
      ]
    },
    {
      "type": "error",
      "name": "SablierMerkleBase_CampaignNotStarted",
      "inputs": [
        {
          "name": "blockTimestamp",
          "type": "uint256",
          "internalType": "uint256"
        },
        {
          "name": "campaignStartTime",
          "type": "uint40",
          "internalType": "uint40"
        }
      ]
    },
    {
      "type": "error",
      "name": "SablierMerkleBase_ClawbackNotAllowed",
      "inputs": [
        {
          "name": "blockTimestamp",
          "type": "uint256",
          "internalType": "uint256"
        },
        {
          "name": "expiration",
          "type": "uint40",
          "internalType": "uint40"
        },
        {
          "name": "firstClaimTime",
          "type": "uint40",
          "internalType": "uint40"
        }
      ]
    },
    {
      "type": "error",
      "name": "SablierMerkleBase_FeeTransferFailed",
      "inputs": [
        {
          "name": "feeRecipient",
          "type": "address",
          "internalType": "address"
        },
        {
          "name": "feeAmount",
          "type": "uint256",
          "internalType": "uint256"
        }
      ]
    },
    {
      "type": "error",
      "name": "SablierMerkleBase_IndexClaimed",
      "inputs": [
        {
          "name": "index",
          "type": "uint256",
          "internalType": "uint256"
        }
      ]
    },
    {
      "type": "error",
      "name": "SablierMerkleBase_InsufficientFeePayment",
      "inputs": [
        {
          "name": "feePaid",
          "type": "uint256",
          "internalType": "uint256"
        },
        {
          "name": "minFeeWei",
          "type": "uint256",
          "internalType": "uint256"
        }
      ]
    },
    {
      "type": "error",
      "name": "SablierMerkleBase_InvalidProof",
      "inputs": []
    },
    {
      "type": "error",
      "name": "SablierMerkleBase_NewMinFeeUSDNotLower",
      "inputs": [
        {
          "name": "currentMinFeeUSD",
          "type": "uint256",
          "internalType": "uint256"
        },
        {
          "name": "newMinFeeUSD",
          "type": "uint256",
          "internalType": "uint256"
        }
      ]
    },
    {
      "type": "error",
      "name": "SablierMerkleBase_SponsorAmountZero",
      "inputs": []
    },
    {
      "type": "error",
      "name": "SablierMerkleBase_ToZeroAddress",
      "inputs": []
    },
    {
      "type": "error",
      "name": "SablierMerkleBase_UnsupportedClaimType",
      "inputs": [
        {
          "name": "claimTypeRequired",
          "type": "uint8",
          "internalType": "enum ClaimType"
        },
        {
          "name": "claimTypeSupported",
          "type": "uint8",
          "internalType": "enum ClaimType"
        }
      ]
    },
    {
      "type": "error",
      "name": "SablierMerkleSignature_AttestationExpired",
      "inputs": [
        {
          "name": "expireAt",
          "type": "uint256",
          "internalType": "uint256"
        },
        {
          "name": "blockTimestamp",
          "type": "uint256",
          "internalType": "uint256"
        }
      ]
    },
    {
      "type": "error",
      "name": "SablierMerkleSignature_AttestorNotSet",
      "inputs": []
    },
    {
      "type": "error",
      "name": "SablierMerkleSignature_CallerNotAuthorized",
      "inputs": [
        {
          "name": "caller",
          "type": "address",
          "internalType": "address"
        },
        {
          "name": "campaignAdmin",
          "type": "address",
          "internalType": "address"
        },
        {
          "name": "comptroller",
          "type": "address",
          "internalType": "address"
        }
      ]
    },
    {
      "type": "error",
      "name": "SablierMerkleSignature_InvalidSignature",
      "inputs": []
    },
    {
      "type": "error",
      "name": "SablierMerkleSignature_SignatureNotYetValid",
      "inputs": [
        {
          "name": "validFrom",
          "type": "uint40",
          "internalType": "uint40"
        },
        {
          "name": "blockTimestamp",
          "type": "uint40",
          "internalType": "uint40"
        }
      ]
    },
    {
      "type": "error",
      "name": "SafeERC20FailedOperation",
      "inputs": [
        {
          "name": "token",
          "type": "address",
          "internalType": "address"
        }
      ]
    }
  ],
  "bytecode": {
    "object": "0x61018080604052346104f657612990803803809161001d8285610704565b833981016060828203126104f65781516001600160401b0381116104f657820191610100838303126104f6576040519061010082016001600160401b038111838210176106015760405283516001600160401b0381116104f65783610083918601610727565b825261009160208501610794565b906020830191825260408501519060038210156104f657604084019182526100bb60608701610794565b94606085019586526100cf608088016107a6565b6080860190815260a088015190916001600160401b0382116104f6576100f6918901610727565b9560a0860196875260e060c08901519860c08801998a5201519260018060a01b03841684036104f65760e0870193845264ffffffffff610144604061013d602085016107a6565b93016107a6565b975196511694519160038310156106f057519251975198519351604051986001600160a01b039182169664ffffffffff909516946101408b01939092909116908a84106001600160401b038511176106015760409384526001600160a01b039081168b5260208b01988952928a0191825260608a01938452979091166080890190815260a0890193845260c0890188905260e08901998a52610100890194855261012089019586525f80546001600160a01b03191689178155909764ffffffffff92917fbdd36143ee09de60bdefca70680e0f71189b2ed7acee364b53917ad433fdaf808180a35116608052519060038210156106f05760a09190915284516001600160a01b0390811660c052905164ffffffffff1660e052905161010052905116610120525180519093906001600160401b03811161060157600154600181811c911680156106e6575b60208210146105e357601f8111610683575b50602094601f8211600114610620579481929394955f92610615575b50508160011b915f199060031b1c1916176001555b518051906001600160401b03821161060157600354600181811c911680156105f7575b60208210146105e357601f8111610580575b50602090601f83116001146105185760209392915f918361050d575b50508160011b915f199060031b1c1916176003555b51915160405163111b863560e31b81525f60048201526001600160a01b0391821660248201529283916044918391165afa908115610502575f916104cc575b50600455466101405260405160208101907f8cad95687ba82c2ce50e74f7b754645e5117c3a5bec8151c0726d5857980a86682527f13cd784591b49af6fc220be53013eaddf1dc15399ca43850d206ea319aca08216040820152466060820152306080820152608081526103ec60a082610704565b519020610160526040516121d590816107bb823960805181818161095e0152611798015260a0518181816103750152818161047d01528181610cd00152818161102f0152611362015260c0518181816102dd0152818161031d0152818161079501528181610aa901528181610dbf015281816117ce0152611d41015260e051818181610708015281816112ca015281816116ed0152611b42015261010051818181610b0201526119770152610120518181816108ff015281816111440152818161122f0152611bef01526101405181611dc601526101605181611dec0152f35b90506020813d6020116104fa575b816104e760209383610704565b810103126104f657515f610377565b5f80fd5b3d91506104da565b6040513d5f823e3d90fd5b015190505f80610323565b90601f1983169160035f52815f20925f5b8181106105685750916001939185602097969410610550575b505050811b01600355610338565b01515f1960f88460031b161c191690555f8080610542565b92936020600181928786015181550195019301610529565b60035f527fc2575a0e9e593c00f959f8c92f12db2869c3395a3b0502d05e2516446f71f85b601f840160051c810191602085106105d9575b601f0160051c01905b8181106105ce5750610307565b5f81556001016105c1565b90915081906105b8565b634e487b7160e01b5f52602260045260245ffd5b90607f16906102f5565b634e487b7160e01b5f52604160045260245ffd5b015190505f806102bd565b601f1982169560015f52805f20915f5b88811061066b57508360019596979810610653575b505050811b016001556102d2565b01515f1960f88460031b161c191690555f8080610645565b91926020600181928685015181550194019201610630565b60015f527fb10e2d527612073b26eecdfd717e6a320cf44b4afac2b0732d9fcbe2b7fa0cf6601f830160051c810191602084106106dc575b601f0160051c01905b8181106106d157506102a1565b5f81556001016106c4565b90915081906106bb565b90607f169061028f565b634e487b7160e01b5f52602160045260245ffd5b601f909101601f19168101906001600160401b0382119082101761060157604052565b81601f820112156104f6578051906001600160401b038211610601576040519261075b601f8401601f191660200185610704565b828452602083830101116104f6575f5b82811061077f57505060205f918301015290565b8060208092840101518282870101520161076b565b519064ffffffffff821682036104f657565b51906001600160a01b03821682036104f65756fe60806040526004361015610011575f80fd5b5f3560e01c80630724fda9146113bc5780630854a79c146113525780631686c909146111b05780632074358314610f785780632481a13a14610e375780633a12a5bc14610d455780633f31ae3f14610cc157806349fc73dd14610b605780634e0bb8cc14610b2557806351e75e8b14610acd5780635f82c67e14610a5f5780637423649b14610a2657806375829def146109825780637ca3944d1461092357806382bfefc8146108b557806382d72f7f146108735780638ec688691461076457806390e64d131461072c578063bb4b5734146106cd578063cada25c214610677578063ce51650714610619578063e74f822d146103d4578063eb8cd77514610345578063f5770b1f146101cb578063f698da251461018b5763f851a44014610137575f80fd5b34610187575f7ffffffffffffffffffffffffffffffffffffffffffffffffffffffffffffffffc36011261018757602073ffffffffffffffffffffffffffffffffffffffff5f5416604051908152f35b5f80fd5b34610187575f7ffffffffffffffffffffffffffffffffffffffffffffffffffffffffffffffffc3601126101875760206101c3611dc3565b604051908152f35b346101875760207ffffffffffffffffffffffffffffffffffffffffffffffffffffffffffffffffc36011261018757610202611560565b73ffffffffffffffffffffffffffffffffffffffff5f54168033141580610305575b61029c575073ffffffffffffffffffffffffffffffffffffffff80610247611cdf565b921691827fffffffffffffffffffffffff0000000000000000000000000000000000000000600654161760065516337fe12891ebe30d5f5d47856103adbbd7804332e875271e2903e5dd759badf2f42d5f80a4005b7f153cfb83000000000000000000000000000000000000000000000000000000005f523360045260245273ffffffffffffffffffffffffffffffffffffffff7f00000000000000000000000000000000000000000000000000000000000000001660445260645ffd5b5073ffffffffffffffffffffffffffffffffffffffff7f000000000000000000000000000000000000000000000000000000000000000016331415610224565b34610187575f7ffffffffffffffffffffffffffffffffffffffffffffffffffffffffffffffffc360112610187577f000000000000000000000000000000000000000000000000000000000000000060405160038210156103a7576020918152f35b7f4e487b71000000000000000000000000000000000000000000000000000000005f52602160045260245ffd5b60c07ffffffffffffffffffffffffffffffffffffffffffffffffffffffffffffffffc36011261018757600435610409611583565b604435906fffffffffffffffffffffffffffffffff82168203610187576064359264ffffffffff84168094036101875760843567ffffffffffffffff8111610187576104599036906004016115e8565b9060a43567ffffffffffffffff81116101875761047a9036906004016116a9565b907f000000000000000000000000000000000000000000000000000000000000000060038110156103a757600181036105e3575073ffffffffffffffffffffffffffffffffffffffff8616156105bb576104d2611cdf565b73ffffffffffffffffffffffffffffffffffffffff8116156105935742891061056357916105529161055a9594936105619a60405160208101917f219f32e1e2ac61bb8bf48019aeabd1a04366f69f4d9a4e73b315e56deb50c0438352336040830152606082015260608152610549608082611495565b51902090611f07565b85338561178b565b3390611b99565b005b887f820dbdf9000000000000000000000000000000000000000000000000000000005f526004524260245260445ffd5b7f91cce831000000000000000000000000000000000000000000000000000000005f5260045ffd5b7f036fcd52000000000000000000000000000000000000000000000000000000005f5260045ffd5b610614907fcb0b66a3000000000000000000000000000000000000000000000000000000005f5260016004526116d7565b60445ffd5b346101875760207ffffffffffffffffffffffffffffffffffffffffffffffffffffffffffffffffc36011261018757602061066d60043560ff6001918060081c5f526005602052161b60405f205416151590565b6040519015158152f35b34610187575f7ffffffffffffffffffffffffffffffffffffffffffffffffffffffffffffffffc3601126101875760206106af611cdf565b73ffffffffffffffffffffffffffffffffffffffff60405191168152f35b34610187575f7ffffffffffffffffffffffffffffffffffffffffffffffffffffffffffffffffc36011261018757602060405164ffffffffff7f0000000000000000000000000000000000000000000000000000000000000000168152f35b34610187575f7ffffffffffffffffffffffffffffffffffffffffffffffffffffffffffffffffc36011261018757602061066d6116e5565b346101875760207ffffffffffffffffffffffffffffffffffffffffffffffffffffffffffffffffc360112610187577f000000000000000000000000000000000000000000000000000000000000000073ffffffffffffffffffffffffffffffffffffffff16600435338203610843576004548082101561081557816040917fcafa56d109bc30839f1bad76f9d17abcbd6c936490d4ec0fbc6d331bf89f92af9360045582519182526020820152a2005b7f173c9c82000000000000000000000000000000000000000000000000000000005f5260045260245260445ffd5b507fead08252000000000000000000000000000000000000000000000000000000005f526004523360245260445ffd5b34610187575f7ffffffffffffffffffffffffffffffffffffffffffffffffffffffffffffffffc36011261018757602064ffffffffff60025416604051908152f35b34610187575f7ffffffffffffffffffffffffffffffffffffffffffffffffffffffffffffffffc36011261018757602060405173ffffffffffffffffffffffffffffffffffffffff7f0000000000000000000000000000000000000000000000000000000000000000168152f35b34610187575f7ffffffffffffffffffffffffffffffffffffffffffffffffffffffffffffffffc36011261018757602060405164ffffffffff7f0000000000000000000000000000000000000000000000000000000000000000168152f35b346101875760207ffffffffffffffffffffffffffffffffffffffffffffffffffffffffffffffffc3601126101875773ffffffffffffffffffffffffffffffffffffffff6109ce611560565b6109d6611c2f565b16807fffffffffffffffffffffffff00000000000000000000000000000000000000005f5416175f55337fbdd36143ee09de60bdefca70680e0f71189b2ed7acee364b53917ad433fdaf805f80a3005b34610187575f7ffffffffffffffffffffffffffffffffffffffffffffffffffffffffffffffffc36011261018757602060405160018152f35b34610187575f7ffffffffffffffffffffffffffffffffffffffffffffffffffffffffffffffffc36011261018757602060405173ffffffffffffffffffffffffffffffffffffffff7f0000000000000000000000000000000000000000000000000000000000000000168152f35b34610187575f7ffffffffffffffffffffffffffffffffffffffffffffffffffffffffffffffffc3601126101875760206040517f00000000000000000000000000000000000000000000000000000000000000008152f35b34610187575f7ffffffffffffffffffffffffffffffffffffffffffffffffffffffffffffffffc360112610187576020600454604051908152f35b34610187575f7ffffffffffffffffffffffffffffffffffffffffffffffffffffffffffffffffc360112610187576040515f6003548060011c90600181168015610cb7575b602083108114610c8a57828552908115610c485750600114610bea575b610be683610bd281850382611495565b604051918291602083526020830190611503565b0390f35b60035f9081527fc2575a0e9e593c00f959f8c92f12db2869c3395a3b0502d05e2516446f71f85b939250905b808210610c2e57509091508101602001610bd2610bc2565b919260018160209254838588010152019101909291610c16565b7fffffffffffffffffffffffffffffffffffffffffffffffffffffffffffffff001660208086019190915291151560051b84019091019150610bd29050610bc2565b7f4e487b71000000000000000000000000000000000000000000000000000000005f52602260045260245ffd5b91607f1691610ba5565b610cca36611619565b909291927f000000000000000000000000000000000000000000000000000000000000000060038110156103a75780610d15575093610d1083926105619686858561178b565b611b99565b610614907fcb0b66a3000000000000000000000000000000000000000000000000000000005f525f6004526116d7565b34610187575f7ffffffffffffffffffffffffffffffffffffffffffffffffffffffffffffffffc36011261018757600454604051907fb0fa59e8000000000000000000000000000000000000000000000000000000008252600482015260208160248173ffffffffffffffffffffffffffffffffffffffff7f0000000000000000000000000000000000000000000000000000000000000000165afa8015610e2c575f90610df9575b602090604051908152f35b506020813d602011610e24575b81610e1360209383611495565b810103126101875760209051610dee565b3d9150610e06565b6040513d5f823e3d90fd5b346101875760607ffffffffffffffffffffffffffffffffffffffffffffffffffffffffffffffffc3601126101875760043573ffffffffffffffffffffffffffffffffffffffff811680820361018757610e8f6115c9565b9173ffffffffffffffffffffffffffffffffffffffff610ead6115a6565b169283156105bb576fffffffffffffffffffffffffffffffff16908115610f5057610f2290604051907f23b872dd00000000000000000000000000000000000000000000000000000000602083015233602483015285604483015283606483015260648252610f1d608483611495565b611e80565b6040519081527f5c3fcf40f5e26ff8e74068a6d3b372d00de14949e859fa20fb3616b2c7128b9b60203392a4005b7f642ef277000000000000000000000000000000000000000000000000000000005f5260045ffd5b60e07ffffffffffffffffffffffffffffffffffffffffffffffffffffffffffffffffc36011261018757600435610fad611583565b90610fb66115a6565b91606435926fffffffffffffffffffffffffffffffff841690818503610187576084359464ffffffffff86168096036101875760a43567ffffffffffffffff8111610187576110099036906004016115e8565b9160c43567ffffffffffffffff81116101875761102a9036906004016116a9565b9690987f000000000000000000000000000000000000000000000000000000000000000060038110156103a75780610d15575073ffffffffffffffffffffffffffffffffffffffff86169788156105bb576110f9906040519b8c8c604060208301927fb0f12a3a6931229a836eaab08aeb1ebe2ddebad3bfd83f30d39f6c4a3b0f4f818452015273ffffffffffffffffffffffffffffffffffffffff86169d8e60608201528c60808201528b60a08201528560c082015260c081526110f060e082611495565b51902085611f07565b64ffffffffff421690818111611182578a7f2fb6e76f6c88eb31f43c986c9c81d4bb10dc0a4c3e9b3fe6e8664124fa32698060808c8c8c611168818e6111428f8f8f8f8a61178b565b7f0000000000000000000000000000000000000000000000000000000000000000611c80565b6040519283526020830152604082015260016060820152a2005b7f663ab84b000000000000000000000000000000000000000000000000000000005f5260045260245260445ffd5b346101875760407ffffffffffffffffffffffffffffffffffffffffffffffffffffffffffffffffc360112610187576111e7611560565b6111ef6115c9565b6111f7611c2f565b64ffffffffff6002541680151580611304575b806112f5575b61129b57506fffffffffffffffffffffffffffffffff169061125382827f0000000000000000000000000000000000000000000000000000000000000000611c80565b7f2e9d425ba8b27655048400b366d7b6a1f7180ebdb088e06bb7389704860ffe1f602073ffffffffffffffffffffffffffffffffffffffff805f5416936040519586521693a3005b7fe2e40a0c000000000000000000000000000000000000000000000000000000005f524260045264ffffffffff7f00000000000000000000000000000000000000000000000000000000000000001660245260445260645ffd5b506112fe6116e5565b15611210565b5062093a80810164ffffffffff81116113255764ffffffffff16421161120a565b7f4e487b71000000000000000000000000000000000000000000000000000000005f52601160045260245ffd5b61135b36611619565b93909291927f000000000000000000000000000000000000000000000000000000000000000060038110156103a75780610d15575073ffffffffffffffffffffffffffffffffffffffff8316156105bb576105619461055a9185338561178b565b34610187575f7ffffffffffffffffffffffffffffffffffffffffffffffffffffffffffffffffc360112610187576040515f6001548060011c9060018116801561148b575b602083108114610c8a57828552908115610c48575060011461142d57610be683610bd281850382611495565b60015f9081527fb10e2d527612073b26eecdfd717e6a320cf44b4afac2b0732d9fcbe2b7fa0cf6939250905b80821061147157509091508101602001610bd2610bc2565b919260018160209254838588010152019101909291611459565b91607f1691611401565b90601f7fffffffffffffffffffffffffffffffffffffffffffffffffffffffffffffffe0910116810190811067ffffffffffffffff8211176114d657604052565b7f4e487b71000000000000000000000000000000000000000000000000000000005f52604160045260245ffd5b91908251928382525f5b84811061154b5750507fffffffffffffffffffffffffffffffffffffffffffffffffffffffffffffffe0601f845f6020809697860101520116010190565b8060208092840101518282860101520161150d565b6004359073ffffffffffffffffffffffffffffffffffffffff8216820361018757565b6024359073ffffffffffffffffffffffffffffffffffffffff8216820361018757565b6044359073ffffffffffffffffffffffffffffffffffffffff8216820361018757565b602435906fffffffffffffffffffffffffffffffff8216820361018757565b9181601f840112156101875782359167ffffffffffffffff8311610187576020808501948460051b01011161018757565b9060807ffffffffffffffffffffffffffffffffffffffffffffffffffffffffffffffffc830112610187576004359160243573ffffffffffffffffffffffffffffffffffffffff8116810361018757916044356fffffffffffffffffffffffffffffffff8116810361018757916064359067ffffffffffffffff8211610187576116a5916004016115e8565b9091565b9181601f840112156101875782359167ffffffffffffffff8311610187576020838186019501011161018757565b60038110156103a757602452565b64ffffffffff7f000000000000000000000000000000000000000000000000000000000000000016801515908161171a575090565b905042101590565b67ffffffffffffffff81116114d657601f017fffffffffffffffffffffffffffffffffffffffffffffffffffffffffffffffe01660200190565b3d15611786573d9061176d82611722565b9161177b6040519384611495565b82523d5f602084013e565b606090565b939491909264ffffffffff7f000000000000000000000000000000000000000000000000000000000000000016428111611b6a57506117c86116e5565b611b13577f00000000000000000000000000000000000000000000000000000000000000009373ffffffffffffffffffffffffffffffffffffffff851692600454604051907fb0fa59e80000000000000000000000000000000000000000000000000000000082526004820152602081602481885afa908115610e2c575f91611ae1575b50803410611ab257506118768760ff6001918060081c5f526005602052161b60405f205416151590565b611a86576fffffffffffffffffffffffffffffffff6040519173ffffffffffffffffffffffffffffffffffffffff60208401948a8652166040840152166060820152606081526118c7608082611495565b51902060405160208101918252602081526118e3604082611495565b5190209067ffffffffffffffff87116114d6578660051b6040519761190b602083018a611495565b8852602088019082019136831161018757905b828210611a7657505050925f935b865185101561196e5760208560051b88010151908181105f1461195d575f52602052600160405f205b94019361192c565b905f52602052600160405f20611955565b919492955092507f000000000000000000000000000000000000000000000000000000000000000003611a4e5760025464ffffffffff811615611a1a575b508060081c5f526005602052600160ff60405f2092161b8154179055346119d1575050565b5f8080809334905af16119e261175c565b50156119eb5750565b7fe57d366c000000000000000000000000000000000000000000000000000000005f526004523460245260445ffd5b7fffffffffffffffffffffffffffffffffffffffffffffffffffffff0000000000164264ffffffffff16176002555f6119ac565b7fb4f06787000000000000000000000000000000000000000000000000000000005f5260045ffd5b813581526020918201910161191e565b867f02bf1aba000000000000000000000000000000000000000000000000000000005f5260045260245ffd5b7fa164c6b4000000000000000000000000000000000000000000000000000000005f523460045260245260445ffd5b90506020813d602011611b0b575b81611afc60209383611495565b8101031261018757515f61184c565b3d9150611aef565b7fdf4bae05000000000000000000000000000000000000000000000000000000005f524260045264ffffffffff7f00000000000000000000000000000000000000000000000000000000000000001660245260445ffd5b7f14659648000000000000000000000000000000000000000000000000000000005f524260045260245260445ffd5b9260809173ffffffffffffffffffffffffffffffffffffffff7f2fb6e76f6c88eb31f43c986c9c81d4bb10dc0a4c3e9b3fe6e8664124fa326980946fffffffffffffffffffffffffffffffff829416611c1381837f0000000000000000000000000000000000000000000000000000000000000000611c80565b60405197885260208801521660408601525f60608601521692a2565b73ffffffffffffffffffffffffffffffffffffffff5f5416338103611c515750565b7fc6cce6a4000000000000000000000000000000000000000000000000000000005f526004523360245260445ffd5b611cdd9273ffffffffffffffffffffffffffffffffffffffff604051937fa9059cbb000000000000000000000000000000000000000000000000000000006020860152166024840152604483015260448252610f1d606483611495565b565b73ffffffffffffffffffffffffffffffffffffffff6006541680611dc057506040517fcada25c200000000000000000000000000000000000000000000000000000000815260208160048173ffffffffffffffffffffffffffffffffffffffff7f0000000000000000000000000000000000000000000000000000000000000000165afa908115610e2c575f91611d74575090565b90506020813d602011611db8575b81611d8f60209383611495565b81010312610187575173ffffffffffffffffffffffffffffffffffffffff811681036101875790565b3d9150611d82565b90565b467f000000000000000000000000000000000000000000000000000000000000000003611e0e577f000000000000000000000000000000000000000000000000000000000000000090565b60405160208101907f8cad95687ba82c2ce50e74f7b754645e5117c3a5bec8151c0726d5857980a86682527f13cd784591b49af6fc220be53013eaddf1dc15399ca43850d206ea319aca0821604082015246606082015230608082015260808152611e7a60a082611495565b51902090565b905f602091828151910182855af115610e2c575f513d611efe575073ffffffffffffffffffffffffffffffffffffffff81163b155b611ebc5750565b73ffffffffffffffffffffffffffffffffffffffff907f5274afe7000000000000000000000000000000000000000000000000000000005f521660045260245ffd5b60011415611eb5565b90604290939293611f16611dc3565b90604051917f19010000000000000000000000000000000000000000000000000000000000008352600283015260228201522090611f5383611722565b92611f616040519485611495565b8084523681860111610187576020815f92611f83978388013785010152611fb2565b15611f8a57565b7f45aa7fec000000000000000000000000000000000000000000000000000000005f5260045ffd5b9190823b611ffa5790611fc4916120d6565b5060048110156103a757159182611fda57505090565b73ffffffffffffffffffffffffffffffffffffffff919250811691161490565b915f92612049612075859460405192839160208301957f1626ba7e0000000000000000000000000000000000000000000000000000000087526024840152604060448401526064830190611503565b037fffffffffffffffffffffffffffffffffffffffffffffffffffffffffffffffe08101835282611495565b51915afa61208161175c565b816120c8575b81612090575090565b905060208180518101031261018757602001517f1626ba7e000000000000000000000000000000000000000000000000000000001490565b905060208151101590612087565b8151919060418303612106576120ff9250602082015190606060408401519301515f1a90612110565b9192909190565b50505f9160029190565b91907f7fffffffffffffffffffffffffffffff5d576e7357a4501ddfe92f46681b20a08411612194579160209360809260ff5f9560405194855216868401526040830152606082015282805260015afa15610e2c575f5173ffffffffffffffffffffffffffffffffffffffff81161561218a57905f905f90565b505f906001905f90565b5050505f916003919056fea2646970667358221220e2f6c3650991707689dbeb1f73f2e8dbbd9e3e46f4f2938fda8f228cce7660d764736f6c634300081d0033",
    "linkReferences": {}
  },
  "methodIdentifiers": {
    "CAMPAIGN_START_TIME()": "7ca3944d",
    "CLAIM_TYPE()": "eb8cd775",
    "COMPTROLLER()": "5f82c67e",
    "EXPIRATION()": "bb4b5734",
    "IS_SABLIER_MERKLE()": "7423649b",
    "MERKLE_ROOT()": "51e75e8b",
    "TOKEN()": "82bfefc8",
    "admin()": "f851a440",
    "attestor()": "cada25c2",
    "calculateMinFeeWei()": "3a12a5bc",
    "campaignName()": "0724fda9",
    "claim(uint256,address,uint128,bytes32[])": "3f31ae3f",
    "claimTo(uint256,address,uint128,bytes32[])": "0854a79c",
    "claimViaAttestation(uint256,address,uint128,uint40,bytes32[],bytes)": "e74f822d",
    "claimViaSig(uint256,address,address,uint128,uint40,bytes32[],bytes)": "20743583",
    "clawback(address,uint128)": "1686c909",
    "domainSeparator()": "f698da25",
    "firstClaimTime()": "82d72f7f",
    "hasClaimed(uint256)": "ce516507",
    "hasExpired()": "90e64d13",
    "ipfsCID()": "49fc73dd",
    "lowerMinFeeUSD(uint256)": "8ec68869",
    "minFeeUSD()": "4e0bb8cc",
    "setAttestor(address)": "f5770b1f",
    "sponsor(address,uint128,address)": "2481a13a",
    "transferAdmin(address)": "75829def"
  },
  "id": 101
}