{
  "abi": [
    {
      "type": "constructor",
      "inputs": [
        {
          "name": "campaignParams",
          "type": "tuple",
          "internalType": "struct MerkleExecute.ConstructorParams",
          "components": [
            {
              "name": "campaignName",
              "type": "string",
              "internalType": "string"
            },
            {
              "name": "campaignStartTime",
              "type": "uint40",
              "internalType": "uint40"
            },
            {
              "name": "expiration",
              "type": "uint40",
              "internalType": "uint40"
            },
            {
              "name": "initialAdmin",
              "type": "address",
              "internalType": "address"
            },
            {
              "name": "ipfsCID",
              "type": "string",
              "internalType": "string"
            },
            {
              "name": "merkleRoot",
              "type": "bytes32",
              "internalType": "bytes32"
            },
            {
              "name": "selector",
              "type": "bytes4",
              "internalType": "bytes4"
            },
            {
              "name": "target",
              "type": "address",
              "internalType": "address"
            },
            {
              "name": "token",
              "type": "address",
              "internalType": "contract IERC20"
            }
          ]
        },
        {
          "name": "campaignCreator",
          "type": "address",
          "internalType": "address"
        },
        {
          "name": "comptroller",
          "type": "address",
          "internalType": "address"
        }
      ],
      "stateMutability": "nonpayable"
    },
    {
      "type": "function",
      "name": "CAMPAIGN_START_TIME",
      "inputs": [],
      "outputs": [
        {
          "name": "",
          "type": "uint40",
          "internalType": "uint40"
        }
      ],
      "stateMutability": "view"
    },
    {
      "type": "function",
      "name": "CLAIM_TYPE",
      "inputs": [],
      "outputs": [
        {
          "name": "",
          "type": "uint8",
          "internalType": "enum ClaimType"
        }
      ],
      "stateMutability": "view"
    },
    {
      "type": "function",
      "name": "COMPTROLLER",
      "inputs": [],
      "outputs": [
        {
          "name": "",
          "type": "address",
          "internalType": "address"
        }
      ],
      "stateMutability": "view"
    },
    {
      "type": "function",
      "name": "EXPIRATION",
      "inputs": [],
      "outputs": [
        {
          "name": "",
          "type": "uint40",
          "internalType": "uint40"
        }
      ],
      "stateMutability": "view"
    },
    {
      "type": "function",
      "name": "IS_SABLIER_MERKLE",
      "inputs": [],
      "outputs": [
        {
          "name": "",
          "type": "bool",
          "internalType": "bool"
        }
      ],
      "stateMutability": "view"
    },
    {
      "type": "function",
      "name": "MERKLE_ROOT",
      "inputs": [],
      "outputs": [
        {
          "name": "",
          "type": "bytes32",
          "internalType": "bytes32"
        }
      ],
      "stateMutability": "view"
    },
    {
      "type": "function",
      "name": "SELECTOR",
      "inputs": [],
      "outputs": [
        {
          "name": "",
          "type": "bytes4",
          "internalType": "bytes4"
        }
      ],
      "stateMutability": "view"
    },
    {
      "type": "function",
      "name": "TARGET",
      "inputs": [],
      "outputs": [
        {
          "name": "",
          "type": "address",
          "internalType": "address"
        }
      ],
      "stateMutability": "view"
    },
    {
      "type": "function",
      "name": "TOKEN",
      "inputs": [],
      "outputs": [
        {
          "name": "",
          "type": "address",
          "internalType": "contract IERC20"
        }
      ],
      "stateMutability": "view"
    },
    {
      "type": "function",
      "name": "admin",
      "inputs": [],
      "outputs": [
        {
          "name": "",
          "type": "address",
          "internalType": "address"
        }
      ],
      "stateMutability": "view"
    },
    {
      "type": "function",
      "name": "calculateMinFeeWei",
      "inputs": [],
      "outputs": [
        {
          "name": "",
          "type": "uint256",
          "internalType": "uint256"
        }
      ],
      "stateMutability": "view"
    },
    {
      "type": "function",
      "name": "campaignName",
      "inputs": [],
      "outputs": [
        {
          "name": "",
          "type": "string",
          "internalType": "string"
        }
      ],
      "stateMutability": "view"
    },
    {
      "type": "function",
      "name": "claimAndExecute",
      "inputs": [
        {
          "name": "index",
          "type": "uint256",
          "internalType": "uint256"
        },
        {
          "name": "amount",
          "type": "uint128",
          "internalType": "uint128"
        },
        {
          "name": "merkleProof",
          "type": "bytes32[]",
          "internalType": "bytes32[]"
        },
        {
          "name": "selectorArguments",
          "type": "bytes",
          "internalType": "bytes"
        }
      ],
      "outputs": [],
      "stateMutability": "payable"
    },
    {
      "type": "function",
      "name": "clawback",
      "inputs": [
        {
          "name": "to",
          "type": "address",
          "internalType": "address"
        },
        {
          "name": "amount",
          "type": "uint128",
          "internalType": "uint128"
        }
      ],
      "outputs": [],
      "stateMutability": "nonpayable"
    },
    {
      "type": "function",
      "name": "firstClaimTime",
      "inputs": [],
      "outputs": [
        {
          "name": "",
          "type": "uint40",
          "internalType": "uint40"
        }
      ],
      "stateMutability": "view"
    },
    {
      "type": "function",
      "name": "hasClaimed",
      "inputs": [
        {
          "name": "index",
          "type": "uint256",
          "internalType": "uint256"
        }
      ],
      "outputs": [
        {
          "name": "",
          "type": "bool",
          "internalType": "bool"
        }
      ],
      "stateMutability": "view"
    },
    {
      "type": "function",
      "name": "hasExpired",
      "inputs": [],
      "outputs": [
        {
          "name": "",
          "type": "bool",
          "internalType": "bool"
        }
      ],
      "stateMutability": "view"
    },
    {
      "type": "function",
      "name": "ipfsCID",
      "inputs": [],
      "outputs": [
        {
          "name": "",
          "type": "string",
          "internalType": "string"
        }
      ],
      "stateMutability": "view"
    },
    {
      "type": "function",
      "name": "lowerMinFeeUSD",
      "inputs": [
        {
          "name": "newMinFeeUSD",
          "type": "uint256",
          "internalType": "uint256"
        }
      ],
      "outputs": [],
      "stateMutability": "nonpayable"
    },
    {
      "type": "function",
      "name": "minFeeUSD",
      "inputs": [],
      "outputs": [
        {
          "name": "",
          "type": "uint256",
          "internalType": "uint256"
        }
      ],
      "stateMutability": "view"
    },
    {
      "type": "function",
      "name": "sponsor",
      "inputs": [
        {
          "name": "token",
          "type": "address",
          "internalType": "contract IERC20"
        },
        {
          "name": "amount",
          "type": "uint128",
          "internalType": "uint128"
        },
        {
          "name": "biller",
          "type": "address",
          "internalType": "address"
        }
      ],
      "outputs": [],
      "stateMutability": "nonpayable"
    },
    {
      "type": "function",
      "name": "transferAdmin",
      "inputs": [
        {
          "name": "newAdmin",
          "type": "address",
          "internalType": "address"
        }
      ],
      "outputs": [],
      "stateMutability": "nonpayable"
    },
    {
      "type": "event",
      "name": "ClaimExecute",
      "inputs": [
        {
          "name": "index",
          "type": "uint256",
          "indexed": false,
          "internalType": "uint256"
        },
        {
          "name": "recipient",
          "type": "address",
          "indexed": true,
          "internalType": "address"
        },
        {
          "name": "amount",
          "type": "uint128",
          "indexed": false,
          "internalType": "uint128"
        },
        {
          "name": "target",
          "type": "address",
          "indexed": true,
          "internalType": "address"
        }
      ],
      "anonymous": false
    },
    {
      "type": "event",
      "name": "Clawback",
      "inputs": [
        {
          "name": "admin",
          "type": "address",
          "indexed": true,
          "internalType": "address"
        },
        {
          "name": "to",
          "type": "address",
          "indexed": true,
          "internalType": "address"
        },
        {
          "name": "amount",
          "type": "uint128",
          "indexed": false,
          "internalType": "uint128"
        }
      ],
      "anonymous": false
    },
    {
      "type": "event",
      "name": "LowerMinFeeUSD",
      "inputs": [
        {
          "name": "comptroller",
          "type": "address",
          "indexed": true,
          "internalType": "address"
        },
        {
          "name": "newMinFeeUSD",
          "type": "uint256",
          "indexed": false,
          "internalType": "uint256"
        },
        {
          "name": "previousMinFeeUSD",
          "type": "uint256",
          "indexed": false,
          "internalType": "uint256"
        }
      ],
      "anonymous": false
    },
    {
      "type": "event",
      "name": "Sponsor",
      "inputs": [
        {
          "name": "caller",
          "type": "address",
          "indexed": true,
          "internalType": "address"
        },
        {
          "name": "token",
          "type": "address",
          "indexed": true,
          "internalType": "contract IERC20"
        },
        {
          "name": "amount",
          "type": "uint128",
          "indexed": false,
          "internalType": "uint128"
        },
        {
          "name": "biller",
          "type": "address",
          "indexed": true,
          "internalType": "address"
        }
      ],
      "anonymous": false
    },
    {
      "type": "event",
      "name": "TransferAdmin",
      "inputs": [
        {
          "name": "oldAdmin",
          "type": "address",
          "indexed": true,
          "internalType": "address"
        },
        {
          "name": "newAdmin",
          "type": "address",
          "indexed": true,
          "internalType": "address"
        }
      ],
      "anonymous": false
    },
    {
      "type": "error",
      "name": "CallerNotAdmin",
      "inputs": [
        {
          "name": "admin",
          "type": "address",
          "internalType": "address"
        },
        {
          "name": "caller",
          "type": "address",
          "internalType": "address"
        }
      ]
    },
    {
      "type": "error",
      "name": "ReentrancyGuardReentrantCall",
      "inputs": []
    },
    {
      "type": "error",
      "name": "SablierMerkleBase_CallerNotComptroller",
      "inputs": [
        {
          "name": "comptroller",
          "type": "address",
          "internalType": "address"
        },
        {
          "name": "caller",
          "type": "address",
          "internalType": "address"
        }
      ]
    },
    {
      "type": "error",
      "name": "SablierMerkleBase_CampaignExpired",
      "inputs": [
        {
          "name": "blockTimestamp",
          "type": "uint256",
          "internalType": "uint256"
        },
        {
          "name": "expiration",
          "type": "uint40",
          "internalType": "uint40"
        }
      ]
    },
    {
      "type": "error",
      "name": "SablierMerkleBase_CampaignNotStarted",
      "inputs": [
        {
          "name": "blockTimestamp",
          "type": "uint256",
          "internalType": "uint256"
        },
        {
          "name": "campaignStartTime",
          "type": "uint40",
          "internalType": "uint40"
        }
      ]
    },
    {
      "type": "error",
      "name": "SablierMerkleBase_ClawbackNotAllowed",
      "inputs": [
        {
          "name": "blockTimestamp",
          "type": "uint256",
          "internalType": "uint256"
        },
        {
          "name": "expiration",
          "type": "uint40",
          "internalType": "uint40"
        },
        {
          "name": "firstClaimTime",
          "type": "uint40",
          "internalType": "uint40"
        }
      ]
    },
    {
      "type": "error",
      "name": "SablierMerkleBase_FeeTransferFailed",
      "inputs": [
        {
          "name": "feeRecipient",
          "type": "address",
          "internalType": "address"
        },
        {
          "name": "feeAmount",
          "type": "uint256",
          "internalType": "uint256"
        }
      ]
    },
    {
      "type": "error",
      "name": "SablierMerkleBase_IndexClaimed",
      "inputs": [
        {
          "name": "index",
          "type": "uint256",
          "internalType": "uint256"
        }
      ]
    },
    {
      "type": "error",
      "name": "SablierMerkleBase_InsufficientFeePayment",
      "inputs": [
        {
          "name": "feePaid",
          "type": "uint256",
          "internalType": "uint256"
        },
        {
          "name": "minFeeWei",
          "type": "uint256",
          "internalType": "uint256"
        }
      ]
    },
    {
      "type": "error",
      "name": "SablierMerkleBase_InvalidProof",
      "inputs": []
    },
    {
      "type": "error",
      "name": "SablierMerkleBase_NewMinFeeUSDNotLower",
      "inputs": [
        {
          "name": "currentMinFeeUSD",
          "type": "uint256",
          "internalType": "uint256"
        },
        {
          "name": "newMinFeeUSD",
          "type": "uint256",
          "internalType": "uint256"
        }
      ]
    },
    {
      "type": "error",
      "name": "SablierMerkleBase_SponsorAmountZero",
      "inputs": []
    },
    {
      "type": "error",
      "name": "SablierMerkleBase_ToZeroAddress",
      "inputs": []
    },
    {
      "type": "error",
      "name": "SablierMerkleExecute_NotFullAmountTransferred",
      "inputs": [
        {
          "name": "amountTransferred",
          "type": "uint256",
          "internalType": "uint256"
        },
        {
          "name": "claimAmount",
          "type": "uint256",
          "internalType": "uint256"
        }
      ]
    },
    {
      "type": "error",
      "name": "SafeERC20FailedOperation",
      "inputs": [
        {
          "name": "token",
          "type": "address",
          "internalType": "address"
        }
      ]
    }
  ],
  "bytecode": {
    "object": "0x610180806040523461047057612365803803809161001d828561068c565b833981016060828203126104705781516001600160401b03811161047057820191610120838303126104705760405161012081016001600160401b0381118282101761057b5760405283516001600160401b03811161047057836100829186016106af565b81526100906020850161071c565b91602082019283526100a46040860161071c565b92604083019384526100b86060870161072e565b60608401908152608087015190956001600160401b038211610470576100df9188016106af565b9182608085015260a08701518060a086015260c08801519663ffffffff60e01b881688036104705760c0860197885261010061011d60e08b0161072e565b60e088019081529901516001600160a01b03811693908481036104705761010088015264ffffffffff8061015f60406101586020860161072e565b940161072e565b98519651995193516040519a92909416936001600160a01b0316926101408b019291909116906001600160401b0383118b84101761057b5764ffffffffff9260405260018060a01b03168a5260208a0196875260408a0190815260608a01926002845260808b019960018060a01b03168a5260a08b019485528060c08c015260e08b019889526101008b019586526101208b0196875260015f558060018060a01b031960015416176001555f7fbdd36143ee09de60bdefca70680e0f71189b2ed7acee364b53917ad433fdaf808180a35116608052519060038210156106785760a09190915285516001600160a01b0390811660c052905164ffffffffff1660e05290516101005290511661012052518051906001600160401b03821161057b5760025490600182811c9216801561066e575b602083101461055d5781601f849311610600575b50602090601f831160011461059a575f9261058f575b50508160011b915f199060031b1c1916176002555b518051906001600160401b03821161057b57600454600181811c91168015610571575b602082101461055d57601f81116104fa575b50602090601f83116001146104925760209392915f9183610487575b50508160011b915f199060031b1c1916176004555b51915160405163111b863560e31b81525f60048201526001600160a01b0391821660248201529283916044918391165afa90811561047c575f91610446575b50600555516001600160e01b03191661014052516001600160a01b031661016052604051611c2290816107438239608051818181610b8501526115b5015260a05181610fdc015260c05181818161081b01528181610a4301528181610c8a0152611622015260e0518181816105a101528181610def015281816110ae01526119060152610100518181816109d601526117130152610120518181816104d601528181610bf301526111300152610140518181816101ca01526111d7015261016051818181610e5d01526111850152f35b90506020813d602011610474575b816104616020938361068c565b8101031261047057515f610376565b5f80fd5b3d9150610454565b6040513d5f823e3d90fd5b015190505f80610322565b90601f1983169160045f52815f20925f5b8181106104e257509160019391856020979694106104ca575b505050811b01600455610337565b01515f1960f88460031b161c191690555f80806104bc565b929360206001819287860151815501950193016104a3565b60045f527f8a35acfbc15ff81a39ae7d344fd709f28e8600b4aa8c65c6b64bfe7fe36bd19b601f840160051c81019160208510610553575b601f0160051c01905b8181106105485750610306565b5f815560010161053b565b9091508190610532565b634e487b7160e01b5f52602260045260245ffd5b90607f16906102f4565b634e487b7160e01b5f52604160045260245ffd5b015190505f806102bc565b60025f9081528281209350601f198516905b8181106105e857509084600195949392106105d0575b505050811b016002556102d1565b01515f1960f88460031b161c191690555f80806105c2565b929360206001819287860151815501950193016105ac565b60025f529091507f405787fa12a823e0f2b7631cc41b3ba8828b3321ca811111fa75cd3aa3bb5ace601f840160051c81019160208510610664575b90601f859493920160051c01905b81811061065657506102a6565b5f8155849350600101610649565b909150819061063b565b91607f1691610292565b634e487b7160e01b5f52602160045260245ffd5b601f909101601f19168101906001600160401b0382119082101761057b57604052565b81601f82011215610470578051906001600160401b03821161057b57604051926106e3601f8401601f19166020018561068c565b82845260208383010111610470575f5b82811061070757505060205f918301015290565b806020809284010151828287010152016106f3565b519064ffffffffff8216820361047057565b51906001600160a01b03821682036104705756fe60806040526004361015610011575f80fd5b5f3560e01c8063053c238d146101745780630724fda91461016f5780631686c9091461016a5780632481a13a146101655780633a12a5bc1461016057806349fc73dd1461015b5780634e0bb8cc1461015657806351e75e8b146101515780635f82c67e1461014c5780637423649b1461014757806375829def146101425780637ca3944d1461013d57806382bfefc81461013857806382d72f7f146101335780638ec688691461012e57806390e64d1314610129578063bb4b573414610124578063cc1f2afa1461011f578063ce5165071461011a578063d6df6ea014610115578063eb8cd775146101105763f851a4401461010b575f80fd5b61103b565b610fac565b610f03565b610e81565b610e13565b610db4565b610d72565b610c59565b610c17565b610ba9565b610b4a565b610aa0565b610a67565b6109f9565b6109a1565b610966565b610893565b6107a1565b610611565b610450565b6102cb565b346101ee575f7ffffffffffffffffffffffffffffffffffffffffffffffffffffffffffffffffc3601126101ee5760206040517fffffffff000000000000000000000000000000000000000000000000000000007f0000000000000000000000000000000000000000000000000000000000000000168152f35b5f80fd5b7f4e487b71000000000000000000000000000000000000000000000000000000005f52604160045260245ffd5b90601f7fffffffffffffffffffffffffffffffffffffffffffffffffffffffffffffffe0910116810190811067ffffffffffffffff82111761026057604052565b6101f2565b919091602081528251928360208301525f5b8481106102b55750507fffffffffffffffffffffffffffffffffffffffffffffffffffffffffffffffe0601f845f6040809697860101520116010190565b8060208092840101516040828601015201610277565b346101ee575f7ffffffffffffffffffffffffffffffffffffffffffffffffffffffffffffffffc3601126101ee576040515f6002548060011c9060018116908115610409575b6020831082146103dc5782855260208501919081156103a55750600114610353575b61034f846103438186038261021f565b60405191829182610265565b0390f35b60025f9081529250907f405787fa12a823e0f2b7631cc41b3ba8828b3321ca811111fa75cd3aa3bb5ace5b8184106103915750500161034382610333565b80548484015260209093019260010161037e565b7fffffffffffffffffffffffffffffffffffffffffffffffffffffffffffffff001682525090151560051b01905061034382610333565b7f4e487b71000000000000000000000000000000000000000000000000000000005f52602260045260245ffd5b91607f1691610311565b73ffffffffffffffffffffffffffffffffffffffff8116036101ee57565b602435906fffffffffffffffffffffffffffffffff821682036101ee57565b346101ee5760407ffffffffffffffffffffffffffffffffffffffffffffffffffffffffffffffffc3601126101ee5760043561048b81610413565b610493610431565b9061049c611487565b60035464ffffffffff811680151590816105ea575b50806105d5575b61057857506104fa6fffffffffffffffffffffffffffffffff8316827f00000000000000000000000000000000000000000000000000000000000000006114d9565b7f2e9d425ba8b27655048400b366d7b6a1f7180ebdb088e06bb7389704860ffe1f73ffffffffffffffffffffffffffffffffffffffff8061055060015473ffffffffffffffffffffffffffffffffffffffff1690565b6040516fffffffffffffffffffffffffffffffff9690961686529390911693921691602090a3005b7fe2e40a0c000000000000000000000000000000000000000000000000000000005f52426004527f000000000000000000000000000000000000000000000000000000000000000064ffffffffff9081166024521660445260645ffd5b506105e56105e16110a6565b1590565b6104b8565b62093a8091500164ffffffffff811161060c5764ffffffffff1642115f6104b1565b61144d565b346101ee5760607ffffffffffffffffffffffffffffffffffffffffffffffffffffffffffffffffc3601126101ee5760043561064c81610413565b610654610431565b9073ffffffffffffffffffffffffffffffffffffffff60443561067681610413565b16918215610779576fffffffffffffffffffffffffffffffff81168015610751576106eb90604051907f23b872dd0000000000000000000000000000000000000000000000000000000060208301523360248301528560448301526064820152606481526106e560848261021f565b83611b14565b7f5c3fcf40f5e26ff8e74068a6d3b372d00de14949e859fa20fb3616b2c7128b9b73ffffffffffffffffffffffffffffffffffffffff6040519316928061074c3394829190916fffffffffffffffffffffffffffffffff6020820193169052565b0390a4005b7f642ef277000000000000000000000000000000000000000000000000000000005f5260045ffd5b7f036fcd52000000000000000000000000000000000000000000000000000000005f5260045ffd5b346101ee575f7ffffffffffffffffffffffffffffffffffffffffffffffffffffffffffffffffc3601126101ee57600554604051907fb0fa59e8000000000000000000000000000000000000000000000000000000008252600482015260208160248173ffffffffffffffffffffffffffffffffffffffff7f0000000000000000000000000000000000000000000000000000000000000000165afa801561088e5761034f915f9161085f575b506040519081529081906020820190565b610881915060203d602011610887575b610879818361021f565b81019061108c565b5f61084e565b503d61086f565b61109b565b346101ee575f7ffffffffffffffffffffffffffffffffffffffffffffffffffffffffffffffffc3601126101ee576040515f6004548060011c906001811690811561095c575b6020831082146103dc5782855260208501919081156103a5575060011461090a5761034f846103438186038261021f565b60045f9081529250907f8a35acfbc15ff81a39ae7d344fd709f28e8600b4aa8c65c6b64bfe7fe36bd19b5b8184106109485750500161034382610333565b805484840152602090930192600101610935565b91607f16916108d9565b346101ee575f7ffffffffffffffffffffffffffffffffffffffffffffffffffffffffffffffffc3601126101ee576020600554604051908152f35b346101ee575f7ffffffffffffffffffffffffffffffffffffffffffffffffffffffffffffffffc3601126101ee5760206040517f00000000000000000000000000000000000000000000000000000000000000008152f35b346101ee575f7ffffffffffffffffffffffffffffffffffffffffffffffffffffffffffffffffc3601126101ee57602060405173ffffffffffffffffffffffffffffffffffffffff7f0000000000000000000000000000000000000000000000000000000000000000168152f35b346101ee575f7ffffffffffffffffffffffffffffffffffffffffffffffffffffffffffffffffc3601126101ee57602060405160018152f35b346101ee5760207ffffffffffffffffffffffffffffffffffffffffffffffffffffffffffffffffc3601126101ee5773ffffffffffffffffffffffffffffffffffffffff600435610af081610413565b610af8611487565b16807fffffffffffffffffffffffff00000000000000000000000000000000000000006001541617600155337fbdd36143ee09de60bdefca70680e0f71189b2ed7acee364b53917ad433fdaf805f80a3005b346101ee575f7ffffffffffffffffffffffffffffffffffffffffffffffffffffffffffffffffc3601126101ee57602060405164ffffffffff7f0000000000000000000000000000000000000000000000000000000000000000168152f35b346101ee575f7ffffffffffffffffffffffffffffffffffffffffffffffffffffffffffffffffc3601126101ee57602060405173ffffffffffffffffffffffffffffffffffffffff7f0000000000000000000000000000000000000000000000000000000000000000168152f35b346101ee575f7ffffffffffffffffffffffffffffffffffffffffffffffffffffffffffffffffc3601126101ee57602064ffffffffff60035416604051908152f35b346101ee5760207ffffffffffffffffffffffffffffffffffffffffffffffffffffffffffffffffc3601126101ee577f000000000000000000000000000000000000000000000000000000000000000073ffffffffffffffffffffffffffffffffffffffff16600435338203610d42576005549081811015610d13579081610d017fcafa56d109bc30839f1bad76f9d17abcbd6c936490d4ec0fbc6d331bf89f92af93600555565b604080519182526020820192909252a2005b907f173c9c82000000000000000000000000000000000000000000000000000000005f5260045260245260445ffd5b507fead08252000000000000000000000000000000000000000000000000000000005f526004523360245260445ffd5b346101ee575f7ffffffffffffffffffffffffffffffffffffffffffffffffffffffffffffffffc3601126101ee576020610daa6110a6565b6040519015158152f35b346101ee575f7ffffffffffffffffffffffffffffffffffffffffffffffffffffffffffffffffc3601126101ee57602060405164ffffffffff7f0000000000000000000000000000000000000000000000000000000000000000168152f35b346101ee575f7ffffffffffffffffffffffffffffffffffffffffffffffffffffffffffffffffc3601126101ee57602060405173ffffffffffffffffffffffffffffffffffffffff7f0000000000000000000000000000000000000000000000000000000000000000168152f35b346101ee5760207ffffffffffffffffffffffffffffffffffffffffffffffffffffffffffffffffc3601126101ee576020610daa60043560ff6001918060081c5f526006602052161b60405f205416151590565b9181601f840112156101ee5782359167ffffffffffffffff83116101ee57602083818601950101116101ee57565b60807ffffffffffffffffffffffffffffffffffffffffffffffffffffffffffffffffc3601126101ee57600435610f38610431565b9060443567ffffffffffffffff81116101ee57366023820112156101ee57806004013567ffffffffffffffff81116101ee573660248260051b840101116101ee576064359267ffffffffffffffff84116101ee57610faa94610fa06024953690600401610ed5565b95909401916110e3565b005b346101ee575f7ffffffffffffffffffffffffffffffffffffffffffffffffffffffffffffffffc3601126101ee577f0000000000000000000000000000000000000000000000000000000000000000604051600382101561100e576020918152f35b7f4e487b71000000000000000000000000000000000000000000000000000000005f52602160045260245ffd5b346101ee575f7ffffffffffffffffffffffffffffffffffffffffffffffffffffffffffffffffc3601126101ee57602073ffffffffffffffffffffffffffffffffffffffff60015416604051908152f35b908160209103126101ee575190565b6040513d5f823e3d90fd5b64ffffffffff7f00000000000000000000000000000000000000000000000000000000000000001680151590816110db575090565b905042101590565b93929491909460025f5414611391576111029160025f558633876115af565b6040517f70a082310000000000000000000000000000000000000000000000000000000081523060048201527f0000000000000000000000000000000000000000000000000000000000000000919073ffffffffffffffffffffffffffffffffffffffff831690602081602481855afa90811561088e575f91611372575b505f807f0000000000000000000000000000000000000000000000000000000000000000966111fc6112286fffffffffffffffffffffffffffffffff8c16976111ca898c8c611ab1565b60405192839160208301957f0000000000000000000000000000000000000000000000000000000000000000876113b9565b037fffffffffffffffffffffffffffffffffffffffffffffffffffffffffffffffe0810183528261021f565b519082895af16112366113f0565b901561136a57506040517f70a0823100000000000000000000000000000000000000000000000000000000815230600482015291602090839060249082905afa90811561088e5761128e925f92611349575b5061147a565b9081036113085750816112d77f18e40f70b522507ce410bb2616ee314c0dfb996abb5c4532f6fa007c8eec3b4c9373ffffffffffffffffffffffffffffffffffffffff93611964565b604080519485526fffffffffffffffffffffffffffffffff95909516602085015216923392a361130660015f55565b565b7f9c50ae93000000000000000000000000000000000000000000000000000000005f526004526fffffffffffffffffffffffffffffffff841660245260445ffd5b61136391925060203d60201161088757610879818361021f565b905f611288565b805190602001fd5b61138b915060203d60201161088757610879818361021f565b5f611180565b7f3ee5aeb5000000000000000000000000000000000000000000000000000000005f5260045ffd5b909280927fffffffff000000000000000000000000000000000000000000000000000000006004951683528483013701015f815290565b3d15611448573d9067ffffffffffffffff8211610260576040519161143d60207fffffffffffffffffffffffffffffffffffffffffffffffffffffffffffffffe0601f840116018461021f565b82523d5f602084013e565b606090565b7f4e487b71000000000000000000000000000000000000000000000000000000005f52601160045260245ffd5b9190820391821161060c57565b73ffffffffffffffffffffffffffffffffffffffff600154163381036114aa5750565b7fc6cce6a4000000000000000000000000000000000000000000000000000000005f526004523360245260445ffd5b6040517fa9059cbb00000000000000000000000000000000000000000000000000000000602082015273ffffffffffffffffffffffffffffffffffffffff9290921660248301526044808301939093529181526113069161153b60648361021f565b611b14565b906040519160208301526020825261130660408361021f565b9291909267ffffffffffffffff8411610260578360051b9060206040516115828285018261021f565b80968152019181019283116101ee57905b82821061159f57505050565b8135815260209182019101611593565b929193907f00000000000000000000000000000000000000000000000000000000000000004264ffffffffff82161161192e57506115eb6110a6565b6118d7576005546040517fb0fa59e800000000000000000000000000000000000000000000000000000000815260048101919091527f0000000000000000000000000000000000000000000000000000000000000000959060208160248173ffffffffffffffffffffffffffffffffffffffff8b165afa90811561088e575f916118b8575b50803410611889575061169a8560ff6001918060081c5f526006602052161b60405f205416151590565b61185c579161173a61170961173f95936111fc6117016105e19760405192839160208301958d8791604091949373ffffffffffffffffffffffffffffffffffffffff6fffffffffffffffffffffffffffffffff926060860197865216602085015216910152565b519020611540565b60208151910120927f0000000000000000000000000000000000000000000000000000000000000000923691611559565b611b9b565b611834576117809064ffffffffff61175d60035464ffffffffff1690565b16156117e6578060081c5f526006602052600160ff60405f2092161b8154179055565b346117885750565b5f80808034855af16117986113f0565b50156117a15750565b7fe57d366c000000000000000000000000000000000000000000000000000000005f5273ffffffffffffffffffffffffffffffffffffffff166004523460245260445ffd5b600380547fffffffffffffffffffffffffffffffffffffffffffffffffffffff0000000000164264ffffffffff161790558060081c5f526006602052600160ff60405f2092161b8154179055565b7fb4f06787000000000000000000000000000000000000000000000000000000005f5260045ffd5b7f02bf1aba000000000000000000000000000000000000000000000000000000005f52600485905260245ffd5b7fa164c6b4000000000000000000000000000000000000000000000000000000005f523460045260245260445ffd5b6118d1915060203d60201161088757610879818361021f565b5f611670565b7fdf4bae05000000000000000000000000000000000000000000000000000000005f524260045264ffffffffff7f00000000000000000000000000000000000000000000000000000000000000001660245260445ffd5b7f14659648000000000000000000000000000000000000000000000000000000005f524260045264ffffffffff1660245260445ffd5b6040519060205f8184017f095ea7b30000000000000000000000000000000000000000000000000000000081526119f2856119c68489602484016020909392919373ffffffffffffffffffffffffffffffffffffffff60408201951681520152565b037fffffffffffffffffffffffffffffffffffffffffffffffffffffffffffffffe0810187528661021f565b84519082855af15f51903d81611a78575b501590505b611a1157505050565b6040517f095ea7b300000000000000000000000000000000000000000000000000000000602082015273ffffffffffffffffffffffffffffffffffffffff90931660248401525f60448401526113069261153b90611a7281606481016111fc565b82611b14565b15159050611aa55750611a0873ffffffffffffffffffffffffffffffffffffffff82163b15155b5f611a03565b6001611a089114611a9f565b6040517f095ea7b300000000000000000000000000000000000000000000000000000000602082810191825273ffffffffffffffffffffffffffffffffffffffff851660248401526044830195909552929390925f906119f285606481016119c6565b905f602091828151910182855af11561109b575f513d611b92575073ffffffffffffffffffffffffffffffffffffffff81163b155b611b505750565b73ffffffffffffffffffffffffffffffffffffffff907f5274afe7000000000000000000000000000000000000000000000000000000005f521660045260245ffd5b60011415611b49565b929091905f915b8451831015611be45760208360051b86010151908181105f14611bd3575f52602052600160405f205b920191611ba2565b905f52602052600160405f20611bcb565b91509250149056fea2646970667358221220e3e5834098ef96028c5bbe91b12ff4fd4042f0b53e73caab72d1edfb2220495864736f6c634300081d0033",
    "linkReferences": {}
  },
  "methodIdentifiers": {
    "CAMPAIGN_START_TIME()": "7ca3944d",
    "CLAIM_TYPE()": "eb8cd775",
    "COMPTROLLER()": "5f82c67e",
    "EXPIRATION()": "bb4b5734",
    "IS_SABLIER_MERKLE()": "7423649b",
    "MERKLE_ROOT()": "51e75e8b",
    "SELECTOR()": "053c238d",
    "TARGET()": "cc1f2afa",
    "TOKEN()": "82bfefc8",
    "admin()": "f851a440",
    "calculateMinFeeWei()": "3a12a5bc",
    "campaignName()": "0724fda9",
    "claimAndExecute(uint256,uint128,bytes32[],bytes)": "d6df6ea0",
    "clawback(address,uint128)": "1686c909",
    "firstClaimTime()": "82d72f7f",
    "hasClaimed(uint256)": "ce516507",
    "hasExpired()": "90e64d13",
    "ipfsCID()": "49fc73dd",
    "lowerMinFeeUSD(uint256)": "8ec68869",
    "minFeeUSD()": "4e0bb8cc",
    "sponsor(address,uint128,address)": "2481a13a",
    "transferAdmin(address)": "75829def"
  },
  "id": 100
}