{
  "abi": [
    {
      "type": "constructor",
      "inputs": [
        {
          "name": "campaignParams",
          "type": "tuple",
          "internalType": "struct MerkleLT.ConstructorParams",
          "components": [
            {
              "name": "campaignName",
              "type": "string",
              "internalType": "string"
            },
            {
              "name": "campaignStartTime",
              "type": "uint40",
              "internalType": "uint40"
            },
            {
              "name": "cancelable",
              "type": "bool",
              "internalType": "bool"
            },
            {
              "name": "claimType",
              "type": "uint8",
              "internalType": "enum ClaimType"
            },
            {
              "name": "expiration",
              "type": "uint40",
              "internalType": "uint40"
            },
            {
              "name": "initialAdmin",
              "type": "address",
              "internalType": "address"
            },
            {
              "name": "ipfsCID",
              "type": "string",
              "internalType": "string"
            },
            {
              "name": "lockup",
              "type": "address",
              "internalType": "contract ISablierLockup"
            },
            {
              "name": "merkleRoot",
              "type": "bytes32",
              "internalType": "bytes32"
            },
            {
              "name": "shape",
              "type": "string",
              "internalType": "string"
            },
            {
              "name": "token",
              "type": "address",
              "internalType": "contract IERC20"
            },
            {
              "name": "tranchesWithPercentages",
              "type": "tuple[]",
              "internalType": "struct MerkleLT.TrancheWithPercentage[]",
              "components": [
                {
                  "name": "unlockPercentage",
                  "type": "uint64",
                  "internalType": "UD2x18"
                },
                {
                  "name": "duration",
                  "type": "uint40",
                  "internalType": "uint40"
                }
              ]
            },
            {
              "name": "transferable",
              "type": "bool",
              "internalType": "bool"
            },
            {
              "name": "vestingStartTime",
              "type": "uint40",
              "internalType": "uint40"
            }
          ]
        },
        {
          "name": "campaignCreator",
          "type": "address",
          "internalType": "address"
        },
        {
          "name": "comptroller",
          "type": "address",
          "internalType": "address"
        }
      ],
      "stateMutability": "nonpayable"
    },
    {
      "type": "function",
      "name": "CAMPAIGN_START_TIME",
      "inputs": [],
      "outputs": [
        {
          "name": "",
          "type": "uint40",
          "internalType": "uint40"
        }
      ],
      "stateMutability": "view"
    },
    {
      "type": "function",
      "name": "CLAIM_TYPE",
      "inputs": [],
      "outputs": [
        {
          "name": "",
          "type": "uint8",
          "internalType": "enum ClaimType"
        }
      ],
      "stateMutability": "view"
    },
    {
      "type": "function",
      "name": "COMPTROLLER",
      "inputs": [],
      "outputs": [
        {
          "name": "",
          "type": "address",
          "internalType": "address"
        }
      ],
      "stateMutability": "view"
    },
    {
      "type": "function",
      "name": "EXPIRATION",
      "inputs": [],
      "outputs": [
        {
          "name": "",
          "type": "uint40",
          "internalType": "uint40"
        }
      ],
      "stateMutability": "view"
    },
    {
      "type": "function",
      "name": "IS_SABLIER_MERKLE",
      "inputs": [],
      "outputs": [
        {
          "name": "",
          "type": "bool",
          "internalType": "bool"
        }
      ],
      "stateMutability": "view"
    },
    {
      "type": "function",
      "name": "MERKLE_ROOT",
      "inputs": [],
      "outputs": [
        {
          "name": "",
          "type": "bytes32",
          "internalType": "bytes32"
        }
      ],
      "stateMutability": "view"
    },
    {
      "type": "function",
      "name": "SABLIER_LOCKUP",
      "inputs": [],
      "outputs": [
        {
          "name": "",
          "type": "address",
          "internalType": "contract ISablierLockup"
        }
      ],
      "stateMutability": "view"
    },
    {
      "type": "function",
      "name": "STREAM_CANCELABLE",
      "inputs": [],
      "outputs": [
        {
          "name": "",
          "type": "bool",
          "internalType": "bool"
        }
      ],
      "stateMutability": "view"
    },
    {
      "type": "function",
      "name": "STREAM_TRANSFERABLE",
      "inputs": [],
      "outputs": [
        {
          "name": "",
          "type": "bool",
          "internalType": "bool"
        }
      ],
      "stateMutability": "view"
    },
    {
      "type": "function",
      "name": "TOKEN",
      "inputs": [],
      "outputs": [
        {
          "name": "",
          "type": "address",
          "internalType": "contract IERC20"
        }
      ],
      "stateMutability": "view"
    },
    {
      "type": "function",
      "name": "VESTING_START_TIME",
      "inputs": [],
      "outputs": [
        {
          "name": "",
          "type": "uint40",
          "internalType": "uint40"
        }
      ],
      "stateMutability": "view"
    },
    {
      "type": "function",
      "name": "admin",
      "inputs": [],
      "outputs": [
        {
          "name": "",
          "type": "address",
          "internalType": "address"
        }
      ],
      "stateMutability": "view"
    },
    {
      "type": "function",
      "name": "attestor",
      "inputs": [],
      "outputs": [
        {
          "name": "",
          "type": "address",
          "internalType": "address"
        }
      ],
      "stateMutability": "view"
    },
    {
      "type": "function",
      "name": "calculateMinFeeWei",
      "inputs": [],
      "outputs": [
        {
          "name": "",
          "type": "uint256",
          "internalType": "uint256"
        }
      ],
      "stateMutability": "view"
    },
    {
      "type": "function",
      "name": "campaignName",
      "inputs": [],
      "outputs": [
        {
          "name": "",
          "type": "string",
          "internalType": "string"
        }
      ],
      "stateMutability": "view"
    },
    {
      "type": "function",
      "name": "claim",
      "inputs": [
        {
          "name": "index",
          "type": "uint256",
          "internalType": "uint256"
        },
        {
          "name": "recipient",
          "type": "address",
          "internalType": "address"
        },
        {
          "name": "amount",
          "type": "uint128",
          "internalType": "uint128"
        },
        {
          "name": "merkleProof",
          "type": "bytes32[]",
          "internalType": "bytes32[]"
        }
      ],
      "outputs": [],
      "stateMutability": "payable"
    },
    {
      "type": "function",
      "name": "claimTo",
      "inputs": [
        {
          "name": "index",
          "type": "uint256",
          "internalType": "uint256"
        },
        {
          "name": "to",
          "type": "address",
          "internalType": "address"
        },
        {
          "name": "amount",
          "type": "uint128",
          "internalType": "uint128"
        },
        {
          "name": "merkleProof",
          "type": "bytes32[]",
          "internalType": "bytes32[]"
        }
      ],
      "outputs": [],
      "stateMutability": "payable"
    },
    {
      "type": "function",
      "name": "claimViaAttestation",
      "inputs": [
        {
          "name": "index",
          "type": "uint256",
          "internalType": "uint256"
        },
        {
          "name": "to",
          "type": "address",
          "internalType": "address"
        },
        {
          "name": "amount",
          "type": "uint128",
          "internalType": "uint128"
        },
        {
          "name": "expireAt",
          "type": "uint40",
          "internalType": "uint40"
        },
        {
          "name": "merkleProof",
          "type": "bytes32[]",
          "internalType": "bytes32[]"
        },
        {
          "name": "attestation",
          "type": "bytes",
          "internalType": "bytes"
        }
      ],
      "outputs": [],
      "stateMutability": "payable"
    },
    {
      "type": "function",
      "name": "claimViaSig",
      "inputs": [
        {
          "name": "index",
          "type": "uint256",
          "internalType": "uint256"
        },
        {
          "name": "recipient",
          "type": "address",
          "internalType": "address"
        },
        {
          "name": "to",
          "type": "address",
          "internalType": "address"
        },
        {
          "name": "amount",
          "type": "uint128",
          "internalType": "uint128"
        },
        {
          "name": "validFrom",
          "type": "uint40",
          "internalType": "uint40"
        },
        {
          "name": "merkleProof",
          "type": "bytes32[]",
          "internalType": "bytes32[]"
        },
        {
          "name": "signature",
          "type": "bytes",
          "internalType": "bytes"
        }
      ],
      "outputs": [],
      "stateMutability": "payable"
    },
    {
      "type": "function",
      "name": "claimedStreams",
      "inputs": [
        {
          "name": "recipient",
          "type": "address",
          "internalType": "address"
        }
      ],
      "outputs": [
        {
          "name": "",
          "type": "uint256[]",
          "internalType": "uint256[]"
        }
      ],
      "stateMutability": "view"
    },
    {
      "type": "function",
      "name": "clawback",
      "inputs": [
        {
          "name": "to",
          "type": "address",
          "internalType": "address"
        },
        {
          "name": "amount",
          "type": "uint128",
          "internalType": "uint128"
        }
      ],
      "outputs": [],
      "stateMutability": "nonpayable"
    },
    {
      "type": "function",
      "name": "domainSeparator",
      "inputs": [],
      "outputs": [
        {
          "name": "",
          "type": "bytes32",
          "internalType": "bytes32"
        }
      ],
      "stateMutability": "view"
    },
    {
      "type": "function",
      "name": "firstClaimTime",
      "inputs": [],
      "outputs": [
        {
          "name": "",
          "type": "uint40",
          "internalType": "uint40"
        }
      ],
      "stateMutability": "view"
    },
    {
      "type": "function",
      "name": "hasClaimed",
      "inputs": [
        {
          "name": "index",
          "type": "uint256",
          "internalType": "uint256"
        }
      ],
      "outputs": [
        {
          "name": "",
          "type": "bool",
          "internalType": "bool"
        }
      ],
      "stateMutability": "view"
    },
    {
      "type": "function",
      "name": "hasExpired",
      "inputs": [],
      "outputs": [
        {
          "name": "",
          "type": "bool",
          "internalType": "bool"
        }
      ],
      "stateMutability": "view"
    },
    {
      "type": "function",
      "name": "ipfsCID",
      "inputs": [],
      "outputs": [
        {
          "name": "",
          "type": "string",
          "internalType": "string"
        }
      ],
      "stateMutability": "view"
    },
    {
      "type": "function",
      "name": "lowerMinFeeUSD",
      "inputs": [
        {
          "name": "newMinFeeUSD",
          "type": "uint256",
          "internalType": "uint256"
        }
      ],
      "outputs": [],
      "stateMutability": "nonpayable"
    },
    {
      "type": "function",
      "name": "minFeeUSD",
      "inputs": [],
      "outputs": [
        {
          "name": "",
          "type": "uint256",
          "internalType": "uint256"
        }
      ],
      "stateMutability": "view"
    },
    {
      "type": "function",
      "name": "setAttestor",
      "inputs": [
        {
          "name": "newAttestor",
          "type": "address",
          "internalType": "address"
        }
      ],
      "outputs": [],
      "stateMutability": "nonpayable"
    },
    {
      "type": "function",
      "name": "sponsor",
      "inputs": [
        {
          "name": "token",
          "type": "address",
          "internalType": "contract IERC20"
        },
        {
          "name": "amount",
          "type": "uint128",
          "internalType": "uint128"
        },
        {
          "name": "biller",
          "type": "address",
          "internalType": "address"
        }
      ],
      "outputs": [],
      "stateMutability": "nonpayable"
    },
    {
      "type": "function",
      "name": "streamShape",
      "inputs": [],
      "outputs": [
        {
          "name": "",
          "type": "string",
          "internalType": "string"
        }
      ],
      "stateMutability": "view"
    },
    {
      "type": "function",
      "name": "tranchesWithPercentages",
      "inputs": [],
      "outputs": [
        {
          "name": "",
          "type": "tuple[]",
          "internalType": "struct MerkleLT.TrancheWithPercentage[]",
          "components": [
            {
              "name": "unlockPercentage",
              "type": "uint64",
              "internalType": "UD2x18"
            },
            {
              "name": "duration",
              "type": "uint40",
              "internalType": "uint40"
            }
          ]
        }
      ],
      "stateMutability": "view"
    },
    {
      "type": "function",
      "name": "transferAdmin",
      "inputs": [
        {
          "name": "newAdmin",
          "type": "address",
          "internalType": "address"
        }
      ],
      "outputs": [],
      "stateMutability": "nonpayable"
    },
    {
      "type": "event",
      "name": "ClaimLTWithTransfer",
      "inputs": [
        {
          "name": "index",
          "type": "uint256",
          "indexed": false,
          "internalType": "uint256"
        },
        {
          "name": "recipient",
          "type": "address",
          "indexed": true,
          "internalType": "address"
        },
        {
          "name": "amount",
          "type": "uint128",
          "indexed": false,
          "internalType": "uint128"
        },
        {
          "name": "to",
          "type": "address",
          "indexed": false,
          "internalType": "address"
        },
        {
          "name": "viaSig",
          "type": "bool",
          "indexed": false,
          "internalType": "bool"
        }
      ],
      "anonymous": false
    },
    {
      "type": "event",
      "name": "ClaimLTWithVesting",
      "inputs": [
        {
          "name": "index",
          "type": "uint256",
          "indexed": false,
          "internalType": "uint256"
        },
        {
          "name": "recipient",
          "type": "address",
          "indexed": true,
          "internalType": "address"
        },
        {
          "name": "amount",
          "type": "uint128",
          "indexed": false,
          "internalType": "uint128"
        },
        {
          "name": "streamId",
          "type": "uint256",
          "indexed": true,
          "internalType": "uint256"
        },
        {
          "name": "to",
          "type": "address",
          "indexed": false,
          "internalType": "address"
        },
        {
          "name": "viaSig",
          "type": "bool",
          "indexed": false,
          "internalType": "bool"
        }
      ],
      "anonymous": false
    },
    {
      "type": "event",
      "name": "Clawback",
      "inputs": [
        {
          "name": "admin",
          "type": "address",
          "indexed": true,
          "internalType": "address"
        },
        {
          "name": "to",
          "type": "address",
          "indexed": true,
          "internalType": "address"
        },
        {
          "name": "amount",
          "type": "uint128",
          "indexed": false,
          "internalType": "uint128"
        }
      ],
      "anonymous": false
    },
    {
      "type": "event",
      "name": "LowerMinFeeUSD",
      "inputs": [
        {
          "name": "comptroller",
          "type": "address",
          "indexed": true,
          "internalType": "address"
        },
        {
          "name": "newMinFeeUSD",
          "type": "uint256",
          "indexed": false,
          "internalType": "uint256"
        },
        {
          "name": "previousMinFeeUSD",
          "type": "uint256",
          "indexed": false,
          "internalType": "uint256"
        }
      ],
      "anonymous": false
    },
    {
      "type": "event",
      "name": "SetAttestor",
      "inputs": [
        {
          "name": "caller",
          "type": "address",
          "indexed": true,
          "internalType": "address"
        },
        {
          "name": "previousAttestor",
          "type": "address",
          "indexed": true,
          "internalType": "address"
        },
        {
          "name": "newAttestor",
          "type": "address",
          "indexed": true,
          "internalType": "address"
        }
      ],
      "anonymous": false
    },
    {
      "type": "event",
      "name": "Sponsor",
      "inputs": [
        {
          "name": "caller",
          "type": "address",
          "indexed": true,
          "internalType": "address"
        },
        {
          "name": "token",
          "type": "address",
          "indexed": true,
          "internalType": "contract IERC20"
        },
        {
          "name": "amount",
          "type": "uint128",
          "indexed": false,
          "internalType": "uint128"
        },
        {
          "name": "biller",
          "type": "address",
          "indexed": true,
          "internalType": "address"
        }
      ],
      "anonymous": false
    },
    {
      "type": "event",
      "name": "TransferAdmin",
      "inputs": [
        {
          "name": "oldAdmin",
          "type": "address",
          "indexed": true,
          "internalType": "address"
        },
        {
          "name": "newAdmin",
          "type": "address",
          "indexed": true,
          "internalType": "address"
        }
      ],
      "anonymous": false
    },
    {
      "type": "error",
      "name": "CallerNotAdmin",
      "inputs": [
        {
          "name": "admin",
          "type": "address",
          "internalType": "address"
        },
        {
          "name": "caller",
          "type": "address",
          "internalType": "address"
        }
      ]
    },
    {
      "type": "error",
      "name": "PRBMath_MulDiv18_Overflow",
      "inputs": [
        {
          "name": "x",
          "type": "uint256",
          "internalType": "uint256"
        },
        {
          "name": "y",
          "type": "uint256",
          "internalType": "uint256"
        }
      ]
    },
    {
      "type": "error",
      "name": "PRBMath_UD60x18_IntoUint128_Overflow",
      "inputs": [
        {
          "name": "x",
          "type": "uint256",
          "internalType": "UD60x18"
        }
      ]
    },
    {
      "type": "error",
      "name": "SablierMerkleBase_CallerNotComptroller",
      "inputs": [
        {
          "name": "comptroller",
          "type": "address",
          "internalType": "address"
        },
        {
          "name": "caller",
          "type": "address",
          "internalType": "address"
        }
      ]
    },
    {
      "type": "error",
      "name": "SablierMerkleBase_CampaignExpired",
      "inputs": [
        {
          "name": "blockTimestamp",
          "type": "uint256",
          "internalType": "uint256"
        },
        {
          "name": "expiration",
          "type": "uint40",
          "internalType": "uint40"
        }
      ]
    },
    {
      "type": "error",
      "name": "SablierMerkleBase_CampaignNotStarted",
      "inputs": [
        {
          "name": "blockTimestamp",
          "type": "uint256",
          "internalType": "uint256"
        },
        {
          "name": "campaignStartTime",
          "type": "uint40",
          "internalType": "uint40"
        }
      ]
    },
    {
      "type": "error",
      "name": "SablierMerkleBase_ClawbackNotAllowed",
      "inputs": [
        {
          "name": "blockTimestamp",
          "type": "uint256",
          "internalType": "uint256"
        },
        {
          "name": "expiration",
          "type": "uint40",
          "internalType": "uint40"
        },
        {
          "name": "firstClaimTime",
          "type": "uint40",
          "internalType": "uint40"
        }
      ]
    },
    {
      "type": "error",
      "name": "SablierMerkleBase_FeeTransferFailed",
      "inputs": [
        {
          "name": "feeRecipient",
          "type": "address",
          "internalType": "address"
        },
        {
          "name": "feeAmount",
          "type": "uint256",
          "internalType": "uint256"
        }
      ]
    },
    {
      "type": "error",
      "name": "SablierMerkleBase_IndexClaimed",
      "inputs": [
        {
          "name": "index",
          "type": "uint256",
          "internalType": "uint256"
        }
      ]
    },
    {
      "type": "error",
      "name": "SablierMerkleBase_InsufficientFeePayment",
      "inputs": [
        {
          "name": "feePaid",
          "type": "uint256",
          "internalType": "uint256"
        },
        {
          "name": "minFeeWei",
          "type": "uint256",
          "internalType": "uint256"
        }
      ]
    },
    {
      "type": "error",
      "name": "SablierMerkleBase_InvalidProof",
      "inputs": []
    },
    {
      "type": "error",
      "name": "SablierMerkleBase_NewMinFeeUSDNotLower",
      "inputs": [
        {
          "name": "currentMinFeeUSD",
          "type": "uint256",
          "internalType": "uint256"
        },
        {
          "name": "newMinFeeUSD",
          "type": "uint256",
          "internalType": "uint256"
        }
      ]
    },
    {
      "type": "error",
      "name": "SablierMerkleBase_SponsorAmountZero",
      "inputs": []
    },
    {
      "type": "error",
      "name": "SablierMerkleBase_ToZeroAddress",
      "inputs": []
    },
    {
      "type": "error",
      "name": "SablierMerkleBase_UnsupportedClaimType",
      "inputs": [
        {
          "name": "claimTypeRequired",
          "type": "uint8",
          "internalType": "enum ClaimType"
        },
        {
          "name": "claimTypeSupported",
          "type": "uint8",
          "internalType": "enum ClaimType"
        }
      ]
    },
    {
      "type": "error",
      "name": "SablierMerkleSignature_AttestationExpired",
      "inputs": [
        {
          "name": "expireAt",
          "type": "uint256",
          "internalType": "uint256"
        },
        {
          "name": "blockTimestamp",
          "type": "uint256",
          "internalType": "uint256"
        }
      ]
    },
    {
      "type": "error",
      "name": "SablierMerkleSignature_AttestorNotSet",
      "inputs": []
    },
    {
      "type": "error",
      "name": "SablierMerkleSignature_CallerNotAuthorized",
      "inputs": [
        {
          "name": "caller",
          "type": "address",
          "internalType": "address"
        },
        {
          "name": "campaignAdmin",
          "type": "address",
          "internalType": "address"
        },
        {
          "name": "comptroller",
          "type": "address",
          "internalType": "address"
        }
      ]
    },
    {
      "type": "error",
      "name": "SablierMerkleSignature_InvalidSignature",
      "inputs": []
    },
    {
      "type": "error",
      "name": "SablierMerkleSignature_SignatureNotYetValid",
      "inputs": [
        {
          "name": "validFrom",
          "type": "uint40",
          "internalType": "uint40"
        },
        {
          "name": "blockTimestamp",
          "type": "uint40",
          "internalType": "uint40"
        }
      ]
    },
    {
      "type": "error",
      "name": "SafeERC20FailedOperation",
      "inputs": [
        {
          "name": "token",
          "type": "address",
          "internalType": "address"
        }
      ]
    }
  ],
  "bytecode": {
    "object": "0x610200604052346109ed57613f5e803803809161001e82610200610c41565b61020039606081126109ed57610200516001600160401b0381116109ed576101c0818303126109ed576040516101c081016001600160401b03811182821017610856576040526102008201516001600160401b0381116109ed5761008d90846102000190846102000101610c64565b815261009c6102208301610cd1565b60208201908152916100b16102408201610ce3565b60408301908152610260820151929060038410156109ed57606082019384526100dd6102808401610cd1565b60808301908152936100f26102a08501610cf0565b60a084019081526102c08501519092906001600160401b0381116109ed5761012590896102000190876102000101610c64565b60c085019081526102e08601519092906001600160a01b03811681036109ed5760e08601526103008601516101008601526103208601516001600160401b0381116109ed5761017f908a6102000190886102000101610c64565b6101208601526103408601516001600160a01b03811681036109ed576101408601526103608601516001600160401b0381116109ed576102008a0161021f8883010112156109ed578681016102000151906001600160401b038211610856576040519a6101f260208460051b018d610c41565b828c526020808d019360061b838b6102000101010191816102000183116109ed57890161022001925b828410610be1575050505061016085019889526102536101a06102416103808901610ce3565b97886101808901526102000101610cd1565b6101a0860190815297610267610220610cf0565b91610273610240610cf0565b935160e0880151610120890151604051909b90996001600160a01b03909216989192151560808b018b81106001600160401b03821117610856576040528a5260208a0198895260408a019b8c5260608a019a15158b5264ffffffffff83519551169351906003821015610bcd575191519751610100840151610140948501516040519a92986001600160a01b0391821697929664ffffffffff96909616958c0193909116906001600160401b0384118c8510176108565760409384526001600160a01b039081168c5260208c01988952928b0191825260608b019384529890911660808a0190815260a08a0193845260c08a0189905260e08a019788526101008a019485526101208a019586525f80546001600160a01b0319168a178155909864ffffffffff92917fbdd36143ee09de60bdefca70680e0f71189b2ed7acee364b53917ad433fdaf808180a3511660805251906003821015610bcd5760a09190915285516001600160a01b0390811660c052905164ffffffffff1660e05290516101005290511661012052518051906001600160401b0382116108565760015490600182811c92168015610bc3575b60208310146109a55781601f849311610b55575b50602090601f8311600114610aef575f92610ae4575b50508160011b915f199060031b1c1916176001555b518051906001600160401b03821161085657600354600181811c91168015610ada575b60208210146109a557601f8111610a77575b50602090601f8311600114610a0f5760209392915f9183610a04575b50508160011b915f199060031b1c1916176003555b51915160405163111b863560e31b81525f60048201526001600160a01b0391821660248201529283916044918391165afa9081156109f9575f916109c3575b50600455516001600160a01b0316610140525115156101605251151561018052518051906001600160401b03821161085657600654600181811c911680156109b9575b60208210146109a557601f8111610942575b50602090601f83116001146108d65764ffffffffff9392915f91836108cb575b50508160011b915f199060031b1c1916176006555b60018060a01b03610120511660018060a01b036101405116906040519060205f81840163095ea7b360e01b815285602486015281196044860152604485526105d9606486610c41565b84519082855af15f513d826108af575b50501561086a575b505050466101a05260405160208101907f8cad95687ba82c2ce50e74f7b754645e5117c3a5bec8151c0726d5857980a86682527f13cd784591b49af6fc220be53013eaddf1dc15399ca43850d206ea319aca082160408201524660608201523060808201526080815261066560a082610c41565b5190206101c05251166101e052805151905f5b8281106107c6576040516132019081610d5d82396080518181816108ed0152611fc7015260a05181818161039a0152818161048401528181610d26015281816110460152611a29015260c0518181816102d0015281816103100152818161077e01528181610ae001528181610df701528181611ffd0152612c49015260e05181818161072d0152818161199101528181611f1c0152612368015261010051818181610b1b015261219d0152610120518181816108ac015281816112fa015281816113b6015281816118f6015281816125d601526126a7015261014051818181610364015281816115830152612874015261016051818181610677015281816113f301526126e40152610180518181816106eb0152818161141d015261270e01526101a05181612cce01526101c05181612cf401526101e051818181610a900152818161114601526123fb0152f35b81518051821015610842576020908260051b0101519060095491680100000000000000008310156108565760018301806009558310156108425760019260095f5260205f200190838060401b038151166cffffffffff00000000000000006020845493015160401b1691858060681b0319161717905501610678565b634e487b7160e01b5f52603260045260245ffd5b634e487b7160e01b5f52604160045260245ffd5b6108a26108a7936040519063095ea7b360e01b602083015260248201525f60448201526044815261089c606482610c41565b82610d04565b610d04565b5f80806105f1565b9091506108c35750803b15155b5f806105e9565b6001146108bc565b015190505f8061057b565b90601f1983169160065f52815f20925f5b81811061092a575091600193918564ffffffffff97969410610912575b505050811b01600655610590565b01515f1960f88460031b161c191690555f8080610904565b929360206001819287860151815501950193016108e7565b60065f527ff652222313e28459528d920b65115c16c04f3efc82aaedc97be59f3f377c0d3f601f840160051c8101916020851061099b575b601f0160051c01905b818110610990575061055b565b5f8155600101610983565b909150819061097a565b634e487b7160e01b5f52602260045260245ffd5b90607f1690610549565b90506020813d6020116109f1575b816109de60209383610c41565b810103126109ed57515f610506565b5f80fd5b3d91506109d1565b6040513d5f823e3d90fd5b015190505f806104b2565b90601f1983169160035f52815f20925f5b818110610a5f5750916001939185602097969410610a47575b505050811b016003556104c7565b01515f1960f88460031b161c191690555f8080610a39565b92936020600181928786015181550195019301610a20565b60035f527fc2575a0e9e593c00f959f8c92f12db2869c3395a3b0502d05e2516446f71f85b601f840160051c81019160208510610ad0575b601f0160051c01905b818110610ac55750610496565b5f8155600101610ab8565b9091508190610aaf565b90607f1690610484565b015190505f8061044c565b60015f9081528281209350601f198516905b818110610b3d5750908460019594939210610b25575b505050811b01600155610461565b01515f1960f88460031b161c191690555f8080610b17565b92936020600181928786015181550195019301610b01565b60015f529091507fb10e2d527612073b26eecdfd717e6a320cf44b4afac2b0732d9fcbe2b7fa0cf6601f840160051c81019160208510610bb9575b90601f859493920160051c01905b818110610bab5750610436565b5f8155849350600101610b9e565b9091508190610b90565b91607f1691610422565b634e487b7160e01b5f52602160045260245ffd5b604084836102000103126109ed5760408051919082016001600160401b03811183821017610856576040528451906001600160401b03821682036109ed578260209260409452610c32838801610cd1565b8382015281520193019261021b565b601f909101601f19168101906001600160401b0382119082101761085657604052565b81601f820112156109ed578051906001600160401b0382116108565760405192610c98601f8401601f191660200185610c41565b828452602083830101116109ed575f5b828110610cbc57505060205f918301015290565b80602080928401015182828701015201610ca8565b519064ffffffffff821682036109ed57565b519081151582036109ed57565b51906001600160a01b03821682036109ed57565b905f602091828151910182855af1156109f9575f513d610d5357506001600160a01b0381163b155b610d335750565b635274afe760e01b5f9081526001600160a01b0391909116600452602490fd5b60011415610d2c56fe60806040526004361015610011575f80fd5b5f3560e01c80630724fda914611a835780630854a79c14611a195780631686c909146118955780632074358314610fad57806323e5336714610f925780632481a13a14610e6f5780633a12a5bc14610d9b5780633f31ae3f14610d17578063496500a814610c9e57806349fc73dd14610b5b5780634e0bb8cc14610b3e57806351e75e8b14610b045780635f82c67e14610ab45780636c0b1e8c14610a735780637423649b14610a5857806375829def146109d257806376c30a95146109115780637ca3944d146108d057806382bfefc81461088057806382d72f7f1461085c5780638ec688691461076b57806390e64d1314610751578063bb4b573414610710578063bf44497a146106d4578063cada25c21461069c578063cbe9e5ef14610660578063ce51650714610620578063e74f822d146103f9578063eb8cd77514610388578063f3ffe13f14610338578063f5770b1f146101dc578063f698da25146101ba5763f851a44014610184575f80fd5b346101b6575f6003193601126101b657602073ffffffffffffffffffffffffffffffffffffffff5f5416604051908152f35b5f80fd5b346101b6575f6003193601126101b65760206101d4612ccb565b604051908152f35b346101b65760206003193601126101b6576101f5611d01565b73ffffffffffffffffffffffffffffffffffffffff5f541680331415806102f8575b61028f575073ffffffffffffffffffffffffffffffffffffffff8061023a612be7565b921691827fffffffffffffffffffffffff0000000000000000000000000000000000000000600854161760085516337fe12891ebe30d5f5d47856103adbbd7804332e875271e2903e5dd759badf2f42d5f80a4005b7f153cfb83000000000000000000000000000000000000000000000000000000005f523360045260245273ffffffffffffffffffffffffffffffffffffffff7f00000000000000000000000000000000000000000000000000000000000000001660445260645ffd5b5073ffffffffffffffffffffffffffffffffffffffff7f000000000000000000000000000000000000000000000000000000000000000016331415610217565b346101b6575f6003193601126101b657602060405173ffffffffffffffffffffffffffffffffffffffff7f0000000000000000000000000000000000000000000000000000000000000000168152f35b346101b6575f6003193601126101b6577f000000000000000000000000000000000000000000000000000000000000000060405160038210156103cc576020918152f35b7f4e487b71000000000000000000000000000000000000000000000000000000005f52602160045260245ffd5b60c06003193601126101b657600435610410611d24565b604435906fffffffffffffffffffffffffffffffff821682036101b6576064359264ffffffffff84168094036101b65760843567ffffffffffffffff81116101b657610460903690600401611d89565b9060a43567ffffffffffffffff81116101b657610481903690600401611e2c565b907f000000000000000000000000000000000000000000000000000000000000000060038110156103cc57600181036105ea575073ffffffffffffffffffffffffffffffffffffffff8616156105c2576104d9612be7565b73ffffffffffffffffffffffffffffffffffffffff81161561059a5742891061056a5791610559916105619594936105689a60405160208101917f219f32e1e2ac61bb8bf48019aeabd1a04366f69f4d9a4e73b315e56deb50c0438352336040830152606082015260608152610550608082611b77565b51902090612e0f565b853385611fba565b33906123e0565b005b887f820dbdf9000000000000000000000000000000000000000000000000000000005f526004524260245260445ffd5b7f91cce831000000000000000000000000000000000000000000000000000000005f5260045ffd5b7f036fcd52000000000000000000000000000000000000000000000000000000005f5260045ffd5b61061b907fcb0b66a3000000000000000000000000000000000000000000000000000000005f526001600452611e5a565b60445ffd5b346101b65760206003193601126101b657602061065660043560ff6001918060081c5f526005602052161b60405f205416151590565b6040519015158152f35b346101b6575f6003193601126101b65760206040517f000000000000000000000000000000000000000000000000000000000000000015158152f35b346101b6575f6003193601126101b65760206106b6612be7565b73ffffffffffffffffffffffffffffffffffffffff60405191168152f35b346101b6575f6003193601126101b65760206040517f000000000000000000000000000000000000000000000000000000000000000015158152f35b346101b6575f6003193601126101b657602060405164ffffffffff7f0000000000000000000000000000000000000000000000000000000000000000168152f35b346101b6575f6003193601126101b6576020610656611f14565b346101b65760206003193601126101b6577f000000000000000000000000000000000000000000000000000000000000000073ffffffffffffffffffffffffffffffffffffffff1660043533820361082c57600454808210156107fe57816040917fcafa56d109bc30839f1bad76f9d17abcbd6c936490d4ec0fbc6d331bf89f92af9360045582519182526020820152a2005b7f173c9c82000000000000000000000000000000000000000000000000000000005f5260045260245260445ffd5b507fead08252000000000000000000000000000000000000000000000000000000005f526004523360245260445ffd5b346101b6575f6003193601126101b657602064ffffffffff60025416604051908152f35b346101b6575f6003193601126101b657602060405173ffffffffffffffffffffffffffffffffffffffff7f0000000000000000000000000000000000000000000000000000000000000000168152f35b346101b6575f6003193601126101b657602060405164ffffffffff7f0000000000000000000000000000000000000000000000000000000000000000168152f35b346101b65760206003193601126101b65773ffffffffffffffffffffffffffffffffffffffff61093f611d01565b165f52600760205260405f20604051806020835491828152019081935f5260205f20905f5b8181106109bc575050508161097a910382611b77565b604051918291602083019060208452518091526040830191905f5b8181106109a3575050500390f35b8251845285945060209384019390920191600101610995565b8254845260209093019260019283019201610964565b346101b65760206003193601126101b65773ffffffffffffffffffffffffffffffffffffffff610a00611d01565b610a08612b39565b16807fffffffffffffffffffffffff00000000000000000000000000000000000000005f5416175f55337fbdd36143ee09de60bdefca70680e0f71189b2ed7acee364b53917ad433fdaf805f80a3005b346101b6575f6003193601126101b657602060405160018152f35b346101b6575f6003193601126101b657602060405164ffffffffff7f0000000000000000000000000000000000000000000000000000000000000000168152f35b346101b6575f6003193601126101b657602060405173ffffffffffffffffffffffffffffffffffffffff7f0000000000000000000000000000000000000000000000000000000000000000168152f35b346101b6575f6003193601126101b65760206040517f00000000000000000000000000000000000000000000000000000000000000008152f35b346101b6575f6003193601126101b6576020600454604051908152f35b346101b6575f6003193601126101b6576040515f6003548060011c90600181168015610c94575b602083108114610c6757828552908115610c255750600114610bc7575b610bc383610baf81850382611b77565b604051918291602083526020830190611ca4565b0390f35b60035f9081527fc2575a0e9e593c00f959f8c92f12db2869c3395a3b0502d05e2516446f71f85b939250905b808210610c0b57509091508101602001610baf610b9f565b919260018160209254838588010152019101909291610bf3565b7fffffffffffffffffffffffffffffffffffffffffffffffffffffffffffffff001660208086019190915291151560051b84019091019150610baf9050610b9f565b7f4e487b71000000000000000000000000000000000000000000000000000000005f52602260045260245ffd5b91607f1691610b82565b346101b6575f6003193601126101b657610cb6611e80565b6040518091602082016020835281518091526020604084019201905f5b818110610ce1575050500390f35b8251805167ffffffffffffffff16855260209081015164ffffffffff168186015286955060409094019390920191600101610cd3565b610d2036611dba565b909291927f000000000000000000000000000000000000000000000000000000000000000060038110156103cc5780610d6b575093610d66839261056896868585611fba565b6123e0565b61061b907fcb0b66a3000000000000000000000000000000000000000000000000000000005f525f600452611e5a565b346101b6575f6003193601126101b657600454604051907fb0fa59e8000000000000000000000000000000000000000000000000000000008252600482015260208160248173ffffffffffffffffffffffffffffffffffffffff7f0000000000000000000000000000000000000000000000000000000000000000165afa8015610e64575f90610e31575b602090604051908152f35b506020813d602011610e5c575b81610e4b60209383611b77565b810103126101b65760209051610e26565b3d9150610e3e565b6040513d5f823e3d90fd5b346101b65760606003193601126101b65760043573ffffffffffffffffffffffffffffffffffffffff81168082036101b657610ea9611d6a565b9173ffffffffffffffffffffffffffffffffffffffff610ec7611d47565b169283156105c2576fffffffffffffffffffffffffffffffff16908115610f6a57610f3c90604051907f23b872dd00000000000000000000000000000000000000000000000000000000602083015233602483015285604483015283606483015260648252610f37608483611b77565b612d88565b6040519081527f5c3fcf40f5e26ff8e74068a6d3b372d00de14949e859fa20fb3616b2c7128b9b60203392a4005b7f642ef277000000000000000000000000000000000000000000000000000000005f5260045ffd5b346101b6575f6003193601126101b657610bc3610baf611bb8565b60e06003193601126101b657600435610fc4611d24565b610fcc611d47565b91606435906fffffffffffffffffffffffffffffffff8216938483036101b65760843564ffffffffff81168091036101b65760a43567ffffffffffffffff81116101b65761101e903690600401611d89565b60c49691963567ffffffffffffffff81116101b657611041903690600401611e2c565b9790927f000000000000000000000000000000000000000000000000000000000000000060038110156103cc5780610d6b575073ffffffffffffffffffffffffffffffffffffffff86169384156105c2578a996111109160405160208101907fb0f12a3a6931229a836eaab08aeb1ebe2ddebad3bfd83f30d39f6c4a3b0f4f8182528b604082015273ffffffffffffffffffffffffffffffffffffffff86169d8e606083015289608083015260a08201528960c082015260c0815261110760e082611b77565b51902084612e0f565b64ffffffffff4216948581116118655750908761112e939288611fba565b6040519161113b83611b3e565b5f80845260208401527f000000000000000000000000000000000000000000000000000000000000000064ffffffffff811661185d5750915b61117c611e80565b9283519361118985611e68565b946111976040519687611b77565b8086527fffffffffffffffffffffffffffffffffffffffffffffffffffffffffffffffe06111c482611e68565b015f5b81811061183a5750506fffffffffffffffffffffffffffffffff6112086112038d67ffffffffffffffff6111fa876123bf565b51511690613035565b612eba565b169164ffffffffff80602061121c846123bf565b510151168501166040519061123082611b3e565b8482526020820152611241886123bf565b5261124b876123bf565b5060015b8c838210611779579050839291506fffffffffffffffffffffffffffffffff64ffffffffff95941610611727575b505016815264ffffffffff60206112b77fffffffffffffffffffffffffffffffffffffffffffffffffffffffffffffffff865101866123cc565b510151166020820181905242106113735750505060018161131e7ff46684b730cdfda57162147f36e667c94ecc144aa37e949cffe699e2f7c7f38d969761136e947f0000000000000000000000000000000000000000000000000000000000000000612b8a565b604051948594859273ffffffffffffffffffffffffffffffffffffffff906fffffffffffffffffffffffffffffffff60609497969397608087019887521660208601521660408401521515910152565b0390a2005b9190965f959493955473ffffffffffffffffffffffffffffffffffffffff1692604051936113a085611b5a565b84526020840198895260408401918252606084017f000000000000000000000000000000000000000000000000000000000000000073ffffffffffffffffffffffffffffffffffffffff168152608085017f00000000000000000000000000000000000000000000000000000000000000001515815260a08601917f00000000000000000000000000000000000000000000000000000000000000001515835260c0870193845261144f611bb8565b9460e088019586526040519c8d987f9d93ddd3000000000000000000000000000000000000000000000000000000008a5260048a01604090525173ffffffffffffffffffffffffffffffffffffffff1660448a01525173ffffffffffffffffffffffffffffffffffffffff166064890152516fffffffffffffffffffffffffffffffff1660848801525173ffffffffffffffffffffffffffffffffffffffff1660a487015251151560c486015251151560e485015251805164ffffffffff166101048501526020015164ffffffffff166101248401525161014483016101209052610164830161153e91611ca4565b82810360031901602484015281519081815260200191602001905f5b8181106116e957505050908060209203815f73ffffffffffffffffffffffffffffffffffffffff7f0000000000000000000000000000000000000000000000000000000000000000165af1948515610e64575f956116b5575b50835f52600760205260405f20805468010000000000000000811015611688576001810180835581101561165b575f91825260209182902001869055604080519283526fffffffffffffffffffffffffffffffff939093169082015273ffffffffffffffffffffffffffffffffffffffff9290921690820152600160608201527fc1a996f3693566bf333b8f07ae109766a59a6660dc05dadd5f419487f797f70b90608090a3005b7f4e487b71000000000000000000000000000000000000000000000000000000005f52603260045260245ffd5b7f4e487b71000000000000000000000000000000000000000000000000000000005f52604160045260245ffd5b9094506020813d6020116116e1575b816116d160209383611b77565b810103126101b6575193856115b3565b3d91506116c4565b825180516fffffffffffffffffffffffffffffffff16855260209081015164ffffffffff16818601528a95506040909401939092019160010161155a565b6fffffffffffffffffffffffffffffffff6117657fffffffffffffffffffffffffffffffffffffffffffffffffffffffffffffffff829301896123cc565b51928b031681835116011690528a8061127d565b906fffffffffffffffffffffffffffffffff6117a761120360019467ffffffffffffffff6111fa86896123cc565b958601169464ffffffffff8060206117e17fffffffffffffffffffffffffffffffffffffffffffffffffffffffffffffffff86018e6123cc565b510151168160206117f286896123cc565b5101511601166fffffffffffffffffffffffffffffffff6040519261181684611b3e565b1682526020820152611828828b6123cc565b52611833818a6123cc565b500161124f565b60209060405161184981611b3e565b5f81525f8382015282828b010152016111c7565b905091611174565b85907f663ab84b000000000000000000000000000000000000000000000000000000005f5260045260245260445ffd5b346101b65760406003193601126101b6576118ae611d01565b6118b6611d6a565b6118be612b39565b64ffffffffff60025416801515806119cb575b806119bc575b61196257506fffffffffffffffffffffffffffffffff169061191a82827f0000000000000000000000000000000000000000000000000000000000000000612b8a565b7f2e9d425ba8b27655048400b366d7b6a1f7180ebdb088e06bb7389704860ffe1f602073ffffffffffffffffffffffffffffffffffffffff805f5416936040519586521693a3005b7fe2e40a0c000000000000000000000000000000000000000000000000000000005f524260045264ffffffffff7f00000000000000000000000000000000000000000000000000000000000000001660245260445260645ffd5b506119c5611f14565b156118d7565b5062093a80810164ffffffffff81116119ec5764ffffffffff1642116118d1565b7f4e487b71000000000000000000000000000000000000000000000000000000005f52601160045260245ffd5b611a2236611dba565b93909291927f000000000000000000000000000000000000000000000000000000000000000060038110156103cc5780610d6b575073ffffffffffffffffffffffffffffffffffffffff8316156105c2576105689461056191853385611fba565b346101b6575f6003193601126101b6576040515f6001548060011c90600181168015611b34575b602083108114610c6757828552908115610c255750600114611ad657610bc383610baf81850382611b77565b60015f9081527fb10e2d527612073b26eecdfd717e6a320cf44b4afac2b0732d9fcbe2b7fa0cf6939250905b808210611b1a57509091508101602001610baf610b9f565b919260018160209254838588010152019101909291611b02565b91607f1691611aaa565b6040810190811067ffffffffffffffff82111761168857604052565b610100810190811067ffffffffffffffff82111761168857604052565b90601f7fffffffffffffffffffffffffffffffffffffffffffffffffffffffffffffffe0910116810190811067ffffffffffffffff82111761168857604052565b604051905f6006548060011c9160018216918215611c9a575b602084108314610c67578386528592908115611c5d5750600114611bfe575b611bfc92500383611b77565b565b5060065f90815290917ff652222313e28459528d920b65115c16c04f3efc82aaedc97be59f3f377c0d3f5b818310611c41575050906020611bfc92820101611bf0565b6020919350806001915483858901015201910190918492611c29565b60209250611bfc9491507fffffffffffffffffffffffffffffffffffffffffffffffffffffffffffffff001682840152151560051b820101611bf0565b92607f1692611bd1565b91908251928382525f5b848110611cec5750507fffffffffffffffffffffffffffffffffffffffffffffffffffffffffffffffe0601f845f6020809697860101520116010190565b80602080928401015182828601015201611cae565b6004359073ffffffffffffffffffffffffffffffffffffffff821682036101b657565b6024359073ffffffffffffffffffffffffffffffffffffffff821682036101b657565b6044359073ffffffffffffffffffffffffffffffffffffffff821682036101b657565b602435906fffffffffffffffffffffffffffffffff821682036101b657565b9181601f840112156101b65782359167ffffffffffffffff83116101b6576020808501948460051b0101116101b657565b9060806003198301126101b6576004359160243573ffffffffffffffffffffffffffffffffffffffff811681036101b657916044356fffffffffffffffffffffffffffffffff811681036101b657916064359067ffffffffffffffff82116101b657611e2891600401611d89565b9091565b9181601f840112156101b65782359167ffffffffffffffff83116101b657602083818601950101116101b657565b60038110156103cc57602452565b67ffffffffffffffff81116116885760051b60200190565b60095490611e8d82611e68565b91611e9b6040519384611b77565b80835260095f9081527f6e1540171b6c0c960b71a7020d9f60077f6af931a8bbf590da0223dacf75c7af602085015b838310611ed75750505050565b600160208192604051611ee981611b3e565b64ffffffffff865467ffffffffffffffff8116835260401c1683820152815201920192019190611eca565b64ffffffffff7f0000000000000000000000000000000000000000000000000000000000000000168015159081611f49575090565b905042101590565b67ffffffffffffffff811161168857601f017fffffffffffffffffffffffffffffffffffffffffffffffffffffffffffffffe01660200190565b3d15611fb5573d90611f9c82611f51565b91611faa6040519384611b77565b82523d5f602084013e565b606090565b939491909264ffffffffff7f0000000000000000000000000000000000000000000000000000000000000000164281116123905750611ff7611f14565b612339577f00000000000000000000000000000000000000000000000000000000000000009373ffffffffffffffffffffffffffffffffffffffff851692600454604051907fb0fa59e80000000000000000000000000000000000000000000000000000000082526004820152602081602481885afa908115610e64575f91612307575b508034106122d857506120a58760ff6001918060081c5f526005602052161b60405f205416151590565b6122ac576fffffffffffffffffffffffffffffffff6040519173ffffffffffffffffffffffffffffffffffffffff60208401948a8652166040840152166060820152606081526120f6608082611b77565b5190206040516020810191825260208152612112604082611b77565b5190209061211f87611e68565b9661212d6040519889611b77565b808852602088019060051b8201913683116101b657905b82821061229c57505050925f935b86518510156121945761216585886123cc565b519081811015612183575f52602052600160405f205b940193612152565b905f52602052600160405f2061217b565b919492955092507f0000000000000000000000000000000000000000000000000000000000000000036122745760025464ffffffffff811615612240575b508060081c5f526005602052600160ff60405f2092161b8154179055346121f7575050565b5f8080809334905af1612208611f8b565b50156122115750565b7fe57d366c000000000000000000000000000000000000000000000000000000005f526004523460245260445ffd5b7fffffffffffffffffffffffffffffffffffffffffffffffffffffff0000000000164264ffffffffff16176002555f6121d2565b7fb4f06787000000000000000000000000000000000000000000000000000000005f5260045ffd5b8135815260209182019101612144565b867f02bf1aba000000000000000000000000000000000000000000000000000000005f5260045260245ffd5b7fa164c6b4000000000000000000000000000000000000000000000000000000005f523460045260245260445ffd5b90506020813d602011612331575b8161232260209383611b77565b810103126101b657515f61207b565b3d9150612315565b7fdf4bae05000000000000000000000000000000000000000000000000000000005f524260045264ffffffffff7f00000000000000000000000000000000000000000000000000000000000000001660245260445ffd5b7f14659648000000000000000000000000000000000000000000000000000000005f524260045260245260445ffd5b80511561165b5760200190565b805182101561165b5760209160051b010190565b929190916040516123f081611b3e565b5f80825260208201527f000000000000000000000000000000000000000000000000000000000000000064ffffffffff8116612b33575064ffffffffff4216905b612439611e80565b6fffffffffffffffffffffffffffffffff84169281519161245983611e68565b926124676040519485611b77565b8084527fffffffffffffffffffffffffffffffffffffffffffffffffffffffffffffffe061249482611e68565b015f5b818110612b105750506fffffffffffffffffffffffffffffffff6124d261120367ffffffffffffffff6124c9866123bf565b51511689613035565b169164ffffffffff8060206124e6846123bf565b51015116850116604051906124fa82611b3e565b848252602082015261250b866123bf565b52612515856123bf565b5060015b828110612a475750509064ffffffffff9291866fffffffffffffffffffffffffffffffff8316106129f5575b505016825264ffffffffff602061257f7fffffffffffffffffffffffffffffffffffffffffffffffffffffffffffffffff845101846123cc565b510151166020830181905242106126515750505f837ff46684b730cdfda57162147f36e667c94ecc144aa37e949cffe699e2f7c7f38d95936125fa61264c9473ffffffffffffffffffffffffffffffffffffffff977f0000000000000000000000000000000000000000000000000000000000000000612b8a565b6040519586951697859273ffffffffffffffffffffffffffffffffffffffff906fffffffffffffffffffffffffffffffff60609497969397608087019887521660208601521660408401521515910152565b0390a2565b5f54604051929796939073ffffffffffffffffffffffffffffffffffffffff1661267a84611b5a565b8352602083019773ffffffffffffffffffffffffffffffffffffffff8716895260408401918252606084017f000000000000000000000000000000000000000000000000000000000000000073ffffffffffffffffffffffffffffffffffffffff168152608085017f00000000000000000000000000000000000000000000000000000000000000001515815260a08601917f00000000000000000000000000000000000000000000000000000000000000001515835260c08701938452612740611bb8565b9460e088019586526040519c8d987f9d93ddd3000000000000000000000000000000000000000000000000000000008a5260048a01604090525173ffffffffffffffffffffffffffffffffffffffff1660448a01525173ffffffffffffffffffffffffffffffffffffffff166064890152516fffffffffffffffffffffffffffffffff1660848801525173ffffffffffffffffffffffffffffffffffffffff1660a487015251151560c486015251151560e485015251805164ffffffffff166101048501526020015164ffffffffff166101248401525161014483016101209052610164830161282f91611ca4565b82810360031901602484015281519081815260200191602001905f5b8181106129b757505050908060209203815f73ffffffffffffffffffffffffffffffffffffffff7f0000000000000000000000000000000000000000000000000000000000000000165af1948515610e64575f9561296f575b5073ffffffffffffffffffffffffffffffffffffffff1692835f52600760205260405f20805468010000000000000000811015611688576001810180835581101561165b577fc1a996f3693566bf333b8f07ae109766a59a6660dc05dadd5f419487f797f70b94875f9261296a948452602084200155604051948594859273ffffffffffffffffffffffffffffffffffffffff906fffffffffffffffffffffffffffffffff60609497969397608087019887521660208601521660408401521515910152565b0390a3565b9094506020813d6020116129af575b8161298b60209383611b77565b810103126101b657519373ffffffffffffffffffffffffffffffffffffffff6128a4565b3d915061297e565b825180516fffffffffffffffffffffffffffffffff16855260209081015164ffffffffff16818601528a95506040909401939092019160010161284b565b6fffffffffffffffffffffffffffffffff612a337fffffffffffffffffffffffffffffffffffffffffffffffffffffffffffffffff829301876123cc565b519289031681835116011690525f80612545565b806fffffffffffffffffffffffffffffffff612a7d61120367ffffffffffffffff612a74600196886123cc565b5151168c613035565b809601169464ffffffffff806020612ab77fffffffffffffffffffffffffffffffffffffffffffffffffffffffffffffffff86018c6123cc565b51015116816020612ac886896123cc565b5101511601166fffffffffffffffffffffffffffffffff60405192612aec84611b3e565b1682526020820152612afe82896123cc565b52612b0981886123cc565b5001612519565b602090604051612b1f81611b3e565b5f81525f8382015282828901015201612497565b90612431565b73ffffffffffffffffffffffffffffffffffffffff5f5416338103612b5b5750565b7fc6cce6a4000000000000000000000000000000000000000000000000000000005f526004523360245260445ffd5b611bfc9273ffffffffffffffffffffffffffffffffffffffff604051937fa9059cbb000000000000000000000000000000000000000000000000000000006020860152166024840152604483015260448252610f37606483611b77565b73ffffffffffffffffffffffffffffffffffffffff6008541680612cc857506040517fcada25c200000000000000000000000000000000000000000000000000000000815260208160048173ffffffffffffffffffffffffffffffffffffffff7f0000000000000000000000000000000000000000000000000000000000000000165afa908115610e64575f91612c7c575090565b90506020813d602011612cc0575b81612c9760209383611b77565b810103126101b6575173ffffffffffffffffffffffffffffffffffffffff811681036101b65790565b3d9150612c8a565b90565b467f000000000000000000000000000000000000000000000000000000000000000003612d16577f000000000000000000000000000000000000000000000000000000000000000090565b60405160208101907f8cad95687ba82c2ce50e74f7b754645e5117c3a5bec8151c0726d5857980a86682527f13cd784591b49af6fc220be53013eaddf1dc15399ca43850d206ea319aca0821604082015246606082015230608082015260808152612d8260a082611b77565b51902090565b905f602091828151910182855af115610e64575f513d612e06575073ffffffffffffffffffffffffffffffffffffffff81163b155b612dc45750565b73ffffffffffffffffffffffffffffffffffffffff907f5274afe7000000000000000000000000000000000000000000000000000000005f521660045260245ffd5b60011415612dbd565b90604290939293612e1e612ccb565b90604051917f19010000000000000000000000000000000000000000000000000000000000008352600283015260228201522090612e5b83611f51565b92612e696040519485611b77565b80845236818601116101b6576020815f92612e8b978388013785010152612f11565b15612e9257565b7f45aa7fec000000000000000000000000000000000000000000000000000000005f5260045ffd5b6fffffffffffffffffffffffffffffffff8111612ee6576fffffffffffffffffffffffffffffffff1690565b7f4916adce000000000000000000000000000000000000000000000000000000005f5260045260245ffd5b9190823b612f595790612f2391613102565b5060048110156103cc57159182612f3957505090565b73ffffffffffffffffffffffffffffffffffffffff919250811691161490565b915f92612fa8612fd4859460405192839160208301957f1626ba7e0000000000000000000000000000000000000000000000000000000087526024840152604060448401526064830190611ca4565b037fffffffffffffffffffffffffffffffffffffffffffffffffffffffffffffffe08101835282611b77565b51915afa612fe0611f8b565b81613027575b81612fef575090565b90506020818051810103126101b657602001517f1626ba7e000000000000000000000000000000000000000000000000000000001490565b905060208151101590612fe6565b9190917fffffffffffffffffffffffffffffffffffffffffffffffffffffffffffffffff838209838202918280831092039180830392146130f157670de0b6b3a76400008210156130c1577faccb18165bd6fe31ae1cf318dc5b51eee0e1ba569b88cd74c1773b91fac106699394670de0b6b3a7640000910990828211900360ee1b910360121c170290565b84907f5173648d000000000000000000000000000000000000000000000000000000005f5260045260245260445ffd5b5050670de0b6b3a764000090049150565b81519190604183036131325761312b9250602082015190606060408401519301515f1a9061313c565b9192909190565b50505f9160029190565b91907f7fffffffffffffffffffffffffffffff5d576e7357a4501ddfe92f46681b20a084116131c0579160209360809260ff5f9560405194855216868401526040830152606082015282805260015afa15610e64575f5173ffffffffffffffffffffffffffffffffffffffff8116156131b657905f905f90565b505f906001905f90565b5050505f916003919056fea2646970667358221220be7bf7670daffb8e6389a4c8977564d087905635e826cfae2d48565ed8d87e9264736f6c634300081d0033",
    "linkReferences": {}
  },
  "methodIdentifiers": {
    "CAMPAIGN_START_TIME()": "7ca3944d",
    "CLAIM_TYPE()": "eb8cd775",
    "COMPTROLLER()": "5f82c67e",
    "EXPIRATION()": "bb4b5734",
    "IS_SABLIER_MERKLE()": "7423649b",
    "MERKLE_ROOT()": "51e75e8b",
    "SABLIER_LOCKUP()": "f3ffe13f",
    "STREAM_CANCELABLE()": "cbe9e5ef",
    "STREAM_TRANSFERABLE()": "bf44497a",
    "TOKEN()": "82bfefc8",
    "VESTING_START_TIME()": "6c0b1e8c",
    "admin()": "f851a440",
    "attestor()": "cada25c2",
    "calculateMinFeeWei()": "3a12a5bc",
    "campaignName()": "0724fda9",
    "claim(uint256,address,uint128,bytes32[])": "3f31ae3f",
    "claimTo(uint256,address,uint128,bytes32[])": "0854a79c",
    "claimViaAttestation(uint256,address,uint128,uint40,bytes32[],bytes)": "e74f822d",
    "claimViaSig(uint256,address,address,uint128,uint40,bytes32[],bytes)": "20743583",
    "claimedStreams(address)": "76c30a95",
    "clawback(address,uint128)": "1686c909",
    "domainSeparator()": "f698da25",
    "firstClaimTime()": "82d72f7f",
    "hasClaimed(uint256)": "ce516507",
    "hasExpired()": "90e64d13",
    "ipfsCID()": "49fc73dd",
    "lowerMinFeeUSD(uint256)": "8ec68869",
    "minFeeUSD()": "4e0bb8cc",
    "setAttestor(address)": "f5770b1f",
    "sponsor(address,uint128,address)": "2481a13a",
    "streamShape()": "23e53367",
    "tranchesWithPercentages()": "496500a8",
    "transferAdmin(address)": "75829def"
  },
  "id": 103
}