{
  "abi": [
    {
      "type": "function",
      "name": "CLAIM_TYPEHASH",
      "inputs": [],
      "outputs": [
        {
          "name": "",
          "type": "bytes32",
          "internalType": "bytes32"
        }
      ],
      "stateMutability": "view"
    },
    {
      "type": "function",
      "name": "DOMAIN_TYPEHASH",
      "inputs": [],
      "outputs": [
        {
          "name": "",
          "type": "bytes32",
          "internalType": "bytes32"
        }
      ],
      "stateMutability": "view"
    },
    {
      "type": "function",
      "name": "IDENTITY_TYPEHASH",
      "inputs": [],
      "outputs": [
        {
          "name": "",
          "type": "bytes32",
          "internalType": "bytes32"
        }
      ],
      "stateMutability": "view"
    },
    {
      "type": "function",
      "name": "PROTOCOL_NAME",
      "inputs": [],
      "outputs": [
        {
          "name": "",
          "type": "bytes32",
          "internalType": "bytes32"
        }
      ],
      "stateMutability": "view"
    }
  ],
  "bytecode": {
    "object": "0x608080604052346019576101cc908161001e823930815050f35b5f80fdfe6080806040526004361015610012575f80fd5b5f3560e01c90816320606b7014610145575080632860ff75146100f25780636b0509b11461009f5763f87f527514610048575f80fd5b5f7ffffffffffffffffffffffffffffffffffffffffffffffffffffffffffffffffc36011261009b5760206040517f219f32e1e2ac61bb8bf48019aeabd1a04366f69f4d9a4e73b315e56deb50c0438152f35b5f80fd5b5f7ffffffffffffffffffffffffffffffffffffffffffffffffffffffffffffffffc36011261009b5760206040517fb0f12a3a6931229a836eaab08aeb1ebe2ddebad3bfd83f30d39f6c4a3b0f4f818152f35b5f7ffffffffffffffffffffffffffffffffffffffffffffffffffffffffffffffffc36011261009b5760206040517f13cd784591b49af6fc220be53013eaddf1dc15399ca43850d206ea319aca08218152f35b5f7ffffffffffffffffffffffffffffffffffffffffffffffffffffffffffffffffc36011261009b57807f8cad95687ba82c2ce50e74f7b754645e5117c3a5bec8151c0726d5857980a86660209252f3fea2646970667358221220077276677ad11ab0afc70de675d67fc352011569486eac579374a1654cb2695d64736f6c634300081d0033",
    "linkReferences": {}
  },
  "methodIdentifiers": {
    "CLAIM_TYPEHASH()": "6b0509b1",
    "DOMAIN_TYPEHASH()": "20606b70",
    "IDENTITY_TYPEHASH()": "f87f5275",
    "PROTOCOL_NAME()": "2860ff75"
  },
  "id": 124
}