{
  "abi": [
    {
      "type": "constructor",
      "inputs": [
        {
          "name": "baseParams",
          "type": "tuple",
          "internalType": "struct MerkleBase.ConstructorParams",
          "components": [
            {
              "name": "token",
              "type": "address",
              "internalType": "contract IERC20"
            },
            {
              "name": "expiration",
              "type": "uint40",
              "internalType": "uint40"
            },
            {
              "name": "initialAdmin",
              "type": "address",
              "internalType": "address"
            },
            {
              "name": "ipfsCID",
              "type": "string",
              "internalType": "string"
            },
            {
              "name": "merkleRoot",
              "type": "bytes32",
              "internalType": "bytes32"
            },
            {
              "name": "campaignName",
              "type": "string",
              "internalType": "string"
            },
            {
              "name": "shape",
              "type": "string",
              "internalType": "string"
            }
          ]
        },
        {
          "name": "campaignCreator",
          "type": "address",
          "internalType": "address"
        },
        {
          "name": "lockup",
          "type": "address",
          "internalType": "contract ISablierLockup"
        },
        {
          "name": "cancelable",
          "type": "bool",
          "internalType": "bool"
        },
        {
          "name": "transferable",
          "type": "bool",
          "internalType": "bool"
        },
        {
          "name": "streamStartTime",
          "type": "uint40",
          "internalType": "uint40"
        },
        {
          "name": "tranchesWithPercentages",
          "type": "tuple[]",
          "internalType": "struct MerkleLT.TrancheWithPercentage[]",
          "components": [
            {
              "name": "unlockPercentage",
              "type": "uint64",
              "internalType": "UD2x18"
            },
            {
              "name": "duration",
              "type": "uint40",
              "internalType": "uint40"
            }
          ]
        }
      ],
      "stateMutability": "nonpayable"
    },
    {
      "type": "function",
      "name": "EXPIRATION",
      "inputs": [],
      "outputs": [
        {
          "name": "",
          "type": "uint40",
          "internalType": "uint40"
        }
      ],
      "stateMutability": "view"
    },
    {
      "type": "function",
      "name": "FACTORY",
      "inputs": [],
      "outputs": [
        {
          "name": "",
          "type": "address",
          "internalType": "address"
        }
      ],
      "stateMutability": "view"
    },
    {
      "type": "function",
      "name": "FEE",
      "inputs": [],
      "outputs": [
        {
          "name": "",
          "type": "uint256",
          "internalType": "uint256"
        }
      ],
      "stateMutability": "view"
    },
    {
      "type": "function",
      "name": "LOCKUP",
      "inputs": [],
      "outputs": [
        {
          "name": "",
          "type": "address",
          "internalType": "contract ISablierLockup"
        }
      ],
      "stateMutability": "view"
    },
    {
      "type": "function",
      "name": "MERKLE_ROOT",
      "inputs": [],
      "outputs": [
        {
          "name": "",
          "type": "bytes32",
          "internalType": "bytes32"
        }
      ],
      "stateMutability": "view"
    },
    {
      "type": "function",
      "name": "STREAM_CANCELABLE",
      "inputs": [],
      "outputs": [
        {
          "name": "",
          "type": "bool",
          "internalType": "bool"
        }
      ],
      "stateMutability": "view"
    },
    {
      "type": "function",
      "name": "STREAM_START_TIME",
      "inputs": [],
      "outputs": [
        {
          "name": "",
          "type": "uint40",
          "internalType": "uint40"
        }
      ],
      "stateMutability": "view"
    },
    {
      "type": "function",
      "name": "STREAM_TRANSFERABLE",
      "inputs": [],
      "outputs": [
        {
          "name": "",
          "type": "bool",
          "internalType": "bool"
        }
      ],
      "stateMutability": "view"
    },
    {
      "type": "function",
      "name": "TOKEN",
      "inputs": [],
      "outputs": [
        {
          "name": "",
          "type": "address",
          "internalType": "contract IERC20"
        }
      ],
      "stateMutability": "view"
    },
    {
      "type": "function",
      "name": "TOTAL_PERCENTAGE",
      "inputs": [],
      "outputs": [
        {
          "name": "",
          "type": "uint64",
          "internalType": "uint64"
        }
      ],
      "stateMutability": "view"
    },
    {
      "type": "function",
      "name": "admin",
      "inputs": [],
      "outputs": [
        {
          "name": "",
          "type": "address",
          "internalType": "address"
        }
      ],
      "stateMutability": "view"
    },
    {
      "type": "function",
      "name": "campaignName",
      "inputs": [],
      "outputs": [
        {
          "name": "",
          "type": "string",
          "internalType": "string"
        }
      ],
      "stateMutability": "view"
    },
    {
      "type": "function",
      "name": "claim",
      "inputs": [
        {
          "name": "index",
          "type": "uint256",
          "internalType": "uint256"
        },
        {
          "name": "recipient",
          "type": "address",
          "internalType": "address"
        },
        {
          "name": "amount",
          "type": "uint128",
          "internalType": "uint128"
        },
        {
          "name": "merkleProof",
          "type": "bytes32[]",
          "internalType": "bytes32[]"
        }
      ],
      "outputs": [],
      "stateMutability": "payable"
    },
    {
      "type": "function",
      "name": "clawback",
      "inputs": [
        {
          "name": "to",
          "type": "address",
          "internalType": "address"
        },
        {
          "name": "amount",
          "type": "uint128",
          "internalType": "uint128"
        }
      ],
      "outputs": [],
      "stateMutability": "nonpayable"
    },
    {
      "type": "function",
      "name": "collectFees",
      "inputs": [
        {
          "name": "factoryAdmin",
          "type": "address",
          "internalType": "address"
        }
      ],
      "outputs": [
        {
          "name": "feeAmount",
          "type": "uint256",
          "internalType": "uint256"
        }
      ],
      "stateMutability": "nonpayable"
    },
    {
      "type": "function",
      "name": "getFirstClaimTime",
      "inputs": [],
      "outputs": [
        {
          "name": "",
          "type": "uint40",
          "internalType": "uint40"
        }
      ],
      "stateMutability": "view"
    },
    {
      "type": "function",
      "name": "getTranchesWithPercentages",
      "inputs": [],
      "outputs": [
        {
          "name": "",
          "type": "tuple[]",
          "internalType": "struct MerkleLT.TrancheWithPercentage[]",
          "components": [
            {
              "name": "unlockPercentage",
              "type": "uint64",
              "internalType": "UD2x18"
            },
            {
              "name": "duration",
              "type": "uint40",
              "internalType": "uint40"
            }
          ]
        }
      ],
      "stateMutability": "view"
    },
    {
      "type": "function",
      "name": "hasClaimed",
      "inputs": [
        {
          "name": "index",
          "type": "uint256",
          "internalType": "uint256"
        }
      ],
      "outputs": [
        {
          "name": "",
          "type": "bool",
          "internalType": "bool"
        }
      ],
      "stateMutability": "view"
    },
    {
      "type": "function",
      "name": "hasExpired",
      "inputs": [],
      "outputs": [
        {
          "name": "",
          "type": "bool",
          "internalType": "bool"
        }
      ],
      "stateMutability": "view"
    },
    {
      "type": "function",
      "name": "ipfsCID",
      "inputs": [],
      "outputs": [
        {
          "name": "",
          "type": "string",
          "internalType": "string"
        }
      ],
      "stateMutability": "view"
    },
    {
      "type": "function",
      "name": "shape",
      "inputs": [],
      "outputs": [
        {
          "name": "",
          "type": "string",
          "internalType": "string"
        }
      ],
      "stateMutability": "view"
    },
    {
      "type": "function",
      "name": "transferAdmin",
      "inputs": [
        {
          "name": "newAdmin",
          "type": "address",
          "internalType": "address"
        }
      ],
      "outputs": [],
      "stateMutability": "nonpayable"
    },
    {
      "type": "event",
      "name": "Claim",
      "inputs": [
        {
          "name": "index",
          "type": "uint256",
          "indexed": false,
          "internalType": "uint256"
        },
        {
          "name": "recipient",
          "type": "address",
          "indexed": true,
          "internalType": "address"
        },
        {
          "name": "amount",
          "type": "uint128",
          "indexed": false,
          "internalType": "uint128"
        },
        {
          "name": "streamId",
          "type": "uint256",
          "indexed": true,
          "internalType": "uint256"
        }
      ],
      "anonymous": false
    },
    {
      "type": "event",
      "name": "Clawback",
      "inputs": [
        {
          "name": "admin",
          "type": "address",
          "indexed": true,
          "internalType": "address"
        },
        {
          "name": "to",
          "type": "address",
          "indexed": true,
          "internalType": "address"
        },
        {
          "name": "amount",
          "type": "uint128",
          "indexed": false,
          "internalType": "uint128"
        }
      ],
      "anonymous": false
    },
    {
      "type": "event",
      "name": "TransferAdmin",
      "inputs": [
        {
          "name": "oldAdmin",
          "type": "address",
          "indexed": true,
          "internalType": "address"
        },
        {
          "name": "newAdmin",
          "type": "address",
          "indexed": true,
          "internalType": "address"
        }
      ],
      "anonymous": false
    },
    {
      "type": "error",
      "name": "AddressEmptyCode",
      "inputs": [
        {
          "name": "target",
          "type": "address",
          "internalType": "address"
        }
      ]
    },
    {
      "type": "error",
      "name": "AddressInsufficientBalance",
      "inputs": [
        {
          "name": "account",
          "type": "address",
          "internalType": "address"
        }
      ]
    },
    {
      "type": "error",
      "name": "CallerNotAdmin",
      "inputs": [
        {
          "name": "admin",
          "type": "address",
          "internalType": "address"
        },
        {
          "name": "caller",
          "type": "address",
          "internalType": "address"
        }
      ]
    },
    {
      "type": "error",
      "name": "FailedInnerCall",
      "inputs": []
    },
    {
      "type": "error",
      "name": "PRBMath_MulDiv18_Overflow",
      "inputs": [
        {
          "name": "x",
          "type": "uint256",
          "internalType": "uint256"
        },
        {
          "name": "y",
          "type": "uint256",
          "internalType": "uint256"
        }
      ]
    },
    {
      "type": "error",
      "name": "PRBMath_UD60x18_IntoUint128_Overflow",
      "inputs": [
        {
          "name": "x",
          "type": "uint256",
          "internalType": "UD60x18"
        }
      ]
    },
    {
      "type": "error",
      "name": "SablierMerkleBase_CallerNotFactory",
      "inputs": [
        {
          "name": "factory",
          "type": "address",
          "internalType": "address"
        },
        {
          "name": "caller",
          "type": "address",
          "internalType": "address"
        }
      ]
    },
    {
      "type": "error",
      "name": "SablierMerkleBase_CampaignExpired",
      "inputs": [
        {
          "name": "blockTimestamp",
          "type": "uint256",
          "internalType": "uint256"
        },
        {
          "name": "expiration",
          "type": "uint40",
          "internalType": "uint40"
        }
      ]
    },
    {
      "type": "error",
      "name": "SablierMerkleBase_ClawbackNotAllowed",
      "inputs": [
        {
          "name": "blockTimestamp",
          "type": "uint256",
          "internalType": "uint256"
        },
        {
          "name": "expiration",
          "type": "uint40",
          "internalType": "uint40"
        },
        {
          "name": "firstClaimTime",
          "type": "uint40",
          "internalType": "uint40"
        }
      ]
    },
    {
      "type": "error",
      "name": "SablierMerkleBase_FeeTransferFail",
      "inputs": [
        {
          "name": "factoryAdmin",
          "type": "address",
          "internalType": "address"
        },
        {
          "name": "feeAmount",
          "type": "uint256",
          "internalType": "uint256"
        }
      ]
    },
    {
      "type": "error",
      "name": "SablierMerkleBase_InsufficientFeePayment",
      "inputs": [
        {
          "name": "feePaid",
          "type": "uint256",
          "internalType": "uint256"
        },
        {
          "name": "fee",
          "type": "uint256",
          "internalType": "uint256"
        }
      ]
    },
    {
      "type": "error",
      "name": "SablierMerkleBase_InvalidProof",
      "inputs": []
    },
    {
      "type": "error",
      "name": "SablierMerkleBase_StreamClaimed",
      "inputs": [
        {
          "name": "index",
          "type": "uint256",
          "internalType": "uint256"
        }
      ]
    },
    {
      "type": "error",
      "name": "SablierMerkleLT_TotalPercentageNotOneHundred",
      "inputs": [
        {
          "name": "totalPercentage",
          "type": "uint64",
          "internalType": "uint64"
        }
      ]
    },
    {
      "type": "error",
      "name": "SafeERC20FailedOperation",
      "inputs": [
        {
          "name": "token",
          "type": "address",
          "internalType": "address"
        }
      ]
    }
  ],
  "bytecode": {
    "object": "0x610200806040523461053557611fef803803809161001d82856107af565b833981019060e0818303126105355780516001600160401b0381116105355781019060e082840312610535576040519160e083016001600160401b038111848210176105ef5760405280516001600160a01b0381168103610535578352610086602082016107d2565b906020840191825261009a604082016107e4565b6040850190815260608201519094906001600160401b03811161053557866100c3918401610834565b6060820190815260808381015190830190815260a08401519192916001600160401b03811161053557886100f8918601610834565b60a0830190815260c085015190946001600160401b03821161053557610120918a9101610834565b60c08301908152610133602088016107e4565b6040880151969092906001600160a01b03881688036105355761015860608a01610879565b9661016560808b01610879565b9a61017260a08c016107d2565b60c08c0151909b6001600160401b03821161053557018d601f82011215610535578051906001600160401b0382116105ef576040519e8f8360051b6020016101ba90826107af565b8381526020019260061b82016020019181831161053557602001925b828410610753575050505064ffffffffff929161025a602061025f9360018060a01b039051168060018060a01b03195f5416175f556040519384915f7fbdd36143ee09de60bdefca70680e0f71189b2ed7acee364b53917ad433fdaf808180a35161024981518092858086019101610813565b81010301601f1981018352826107af565b61089a565b608052511660a0523360c05260405192631711922960e31b845260018060a01b03166004840152602083602481335afa8015610748575f90610714575b6102c6935060e05251610100525161025a6020604051836102498295518092858086019101610813565b61012052516001600160a01b031661014052518051906001600160401b0382116105ef5760015490600182811c9216801561070a575b60208310146106f65781601f849311610688575b50602090601f8311600114610622575f92610617575b50508160011b915f199060031b1c1916176001555b61018052610160526101a0526101c0528051905f915f915b81831061053957836101e05260018060a01b03610140511660018060a01b03610160511690604051905f806020840163095ea7b360e01b815285602486015281196044860152604485526103a86064866107af565b84519082855af16103b76108bc565b816104fe575b50806104f4575b156104af575b60405161163290816109bd823960805181611283015260a05181818161030001528181610f8b015281816111b30152611369015260c0518181816103470152610fd2015260e05181818161020b01526107870152610100518181816105a9015261088e015261012051818181610a6c015261123a0152610140518181816104b901528181610af101526110b30152610160518181816104760152610c910152610180518181816101cf0152610b2201526101a051818181610194015261091c01526101c0518181816102be0152610b4c01526101e05181818161041901526108ea0152f35b6104e76104ec936040519063095ea7b360e01b602083015260248201525f6044820152604481526104e16064826107af565b826108eb565b6108eb565b8080806103ca565b50803b15156103c4565b8051801592508215610513575b5050846103bd565b819250906020918101031261053557602061052e9101610879565b848061050b565b5f80fd5b91929091906001600160401b036105508584610886565b5151166001600160401b039182160190811161060357926105718183610886565b519060045491680100000000000000008310156105ef5760018301806004558310156105db5760019260045f5260205f200190838060401b038151166cffffffffff00000000000000006020845493015160401b1691858060681b03191617179055019190610353565b634e487b7160e01b5f52603260045260245ffd5b634e487b7160e01b5f52604160045260245ffd5b634e487b7160e01b5f52601160045260245ffd5b015190505f80610326565b60015f9081528281209350601f198516905b8181106106705750908460019594939210610658575b505050811b0160015561033b565b01515f1960f88460031b161c191690555f808061064a565b92936020600181928786015181550195019301610634565b60015f529091507fb10e2d527612073b26eecdfd717e6a320cf44b4afac2b0732d9fcbe2b7fa0cf6601f840160051c810191602085106106ec575b90601f859493920160051c01905b8181106106de5750610310565b5f81558493506001016106d1565b90915081906106c3565b634e487b7160e01b5f52602260045260245ffd5b91607f16916102fc565b506020833d602011610740575b8161072e602093836107af565b81010312610535576102c6925161029c565b3d9150610721565b6040513d5f823e3d90fd5b6040848303126105355760408051919082016001600160401b038111838210176105ef576040528451906001600160401b03821682036105355782602092604094526107a08388016107d2565b838201528152019301926101d6565b601f909101601f19168101906001600160401b038211908210176105ef57604052565b519064ffffffffff8216820361053557565b51906001600160a01b038216820361053557565b6001600160401b0381116105ef57601f01601f191660200190565b5f5b8381106108245750505f910152565b8181015183820152602001610815565b81601f8201121561053557805161084a816107f8565b9261085860405194856107af565b81845260208284010111610535576108769160208085019101610813565b90565b5190811515820361053557565b80518210156105db5760209160051b010190565b6020815191015190602081106108ae575090565b5f199060200360031b1b1690565b3d156108e6573d906108cd826107f8565b916108db60405193846107af565b82523d5f602084013e565b606090565b5f806109139260018060a01b03169360208151910182865af161090c6108bc565b908361095e565b805190811515918261093b575b50506109295750565b635274afe760e01b5f5260045260245ffd5b81925090602091810103126105355760206109569101610879565b155f80610920565b90610982575080511561097357805190602001fd5b630a12f52160e11b5f5260045ffd5b815115806109b3575b610993575090565b639996b31560e01b5f9081526001600160a01b0391909116600452602490fd5b50803b1561098b56fe6080806040526004361015610012575f80fd5b5f3560e01c9081630724fda91461126d575080630f7514a2146112225780631686c90914610ff65780632dd3100014610fb35780633f31ae3f146106fc57806349fc73dd146105f05780634e390d3e146105cc57806351e75e8b1461059257806375829def146104dd57806382bfefc81461049a578063845aef4b1461045757806390e64d131461043d578063936c63d9146103f9578063a480ca7914610324578063bb4b5734146102e3578063bf44497a146102a7578063bf4ed03f1461022e578063c57981b5146101f4578063cbe9e5ef146101b8578063ce36b33514610177578063ce516507146101375763f851a4401461010e575f80fd5b34610133575f3660031901126101335760206001600160a01b035f5416604051908152f35b5f80fd5b3461013357602036600319011261013357602061016d60043560ff6001918060081c5f526002602052161b60405f205416151590565b6040519015158152f35b34610133575f36600319011261013357602060405164ffffffffff7f0000000000000000000000000000000000000000000000000000000000000000168152f35b34610133575f3660031901126101335760206040517f000000000000000000000000000000000000000000000000000000000000000015158152f35b34610133575f3660031901126101335760206040517f00000000000000000000000000000000000000000000000000000000000000008152f35b34610133575f366003190112610133576102466113dd565b6040518091602082016020835281518091526020604084019201905f5b818110610271575050500390f35b8251805167ffffffffffffffff16855260209081015164ffffffffff168186015286955060409094019390920191600101610263565b34610133575f3660031901126101335760206040517f000000000000000000000000000000000000000000000000000000000000000015158152f35b34610133575f36600319011261013357602060405164ffffffffff7f0000000000000000000000000000000000000000000000000000000000000000168152f35b346101335760203660031901126101335761033d6112f5565b6001600160a01b037f0000000000000000000000000000000000000000000000000000000000000000168033036103ca575047905f80808085855af161038161139e565b501561039257602082604051908152f35b6001600160a01b03907f245bf0c0000000000000000000000000000000000000000000000000000000005f521660045260245260445ffd5b7f4e3ddeed000000000000000000000000000000000000000000000000000000005f526004523360245260445ffd5b34610133575f36600319011261013357602060405167ffffffffffffffff7f0000000000000000000000000000000000000000000000000000000000000000168152f35b34610133575f36600319011261013357602061016d611361565b34610133575f3660031901126101335760206040516001600160a01b037f0000000000000000000000000000000000000000000000000000000000000000168152f35b34610133575f3660031901126101335760206040516001600160a01b037f0000000000000000000000000000000000000000000000000000000000000000168152f35b34610133576020366003190112610133576104f66112f5565b5f546001600160a01b03811633810361056357506001600160a01b037fffffffffffffffffffffffff0000000000000000000000000000000000000000921691829116175f55337fbdd36143ee09de60bdefca70680e0f71189b2ed7acee364b53917ad433fdaf805f80a3005b7fc6cce6a4000000000000000000000000000000000000000000000000000000005f526004523360245260445ffd5b34610133575f3660031901126101335760206040517f00000000000000000000000000000000000000000000000000000000000000008152f35b34610133575f36600319011261013357602064ffffffffff60035416604051908152f35b34610133575f366003190112610133576040515f6001548060011c906001811680156106f2575b6020831081146106de578285529081156106ba575060011461065c575b6106588361064481850382611327565b6040519182916020835260208301906112b6565b0390f35b91905060015f527fb10e2d527612073b26eecdfd717e6a320cf44b4afac2b0732d9fcbe2b7fa0cf6915f905b8082106106a057509091508101602001610644610634565b919260018160209254838588010152019101909291610688565b60ff191660208086019190915291151560051b840190910191506106449050610634565b634e487b7160e01b5f52602260045260245ffd5b91607f1691610617565b608036600319011261013357600435602435906001600160a01b03821680920361013357604435906001600160801b03821691828103610133576064359367ffffffffffffffff851161013357366023860112156101335784600401359467ffffffffffffffff86116101335760248660051b82010136811161013357610781611361565b610f5c577f0000000000000000000000000000000000000000000000000000000000000000803410610f2d57506107cf8560ff6001918060081c5f526002602052161b60405f205416151590565b610f01576040516020810190868252846040820152876060820152606081526107f9608082611327565b5190206040516020810191825260208152610815604082611327565b5190209161082288611349565b97610830604051998a611327565b8852602401602088015b828210610ef157505050925f935b865185101561088a5761085b8588611492565b519081811015610879575f52602052600160405f205b940193610848565b905f52602052600160405f20610871565b85907f000000000000000000000000000000000000000000000000000000000000000003610ec95760035464ffffffffff811615610eaf575b508160081c5f52600260205260405f20600160ff84161b815417905567ffffffffffffffff7f000000000000000000000000000000000000000000000000000000000000000016670de0b6b3a76400008103610e8457507f000000000000000000000000000000000000000000000000000000000000000064ffffffffff8116610e7e575064ffffffffff4216935b61095a6113dd565b9081519161096783611349565b926109756040519485611327565b808452601f1961098482611349565b015f5b818110610e5b5750506109b66109b167ffffffffffffffff6109a885611471565b515116876114eb565b6114a6565b64ffffffffff8060206109c886611471565b510151168a0116906001600160801b03604051916109e58361130b565b169182825260208201526109f886611471565b52610a0285611471565b50916001905b828210610dc7575050846001600160801b03831610610d9c575b50505064ffffffffff6020610a3b5f1984510184611492565b51015116946001600160a01b035f54169564ffffffffff60405192610a5f8461130b565b16825260208201526040517f0000000000000000000000000000000000000000000000000000000000000000602082015260208152610a9f604082611327565b60405191610aac8361130b565b5f83525f602084015260405197610120890189811067ffffffffffffffff821117610d88576040999594939299528452602084019787895260408501868152606086017f00000000000000000000000000000000000000000000000000000000000000006001600160a01b0316815260808701907f00000000000000000000000000000000000000000000000000000000000000001515825260a08801927f00000000000000000000000000000000000000000000000000000000000000001515845260c0890194855260e0890195865261010089019687526040519c8d997f7ee21391000000000000000000000000000000000000000000000000000000008b5260048b0160409052516001600160a01b031660448b0152516001600160a01b031660648a0152516001600160801b03166084890152516001600160a01b031660a488015251151560c487015251151560e486015251805164ffffffffff166101048601526020015164ffffffffff1661012485015251610144840161016090526101a48401610c3c916112b6565b905180516001600160a01b03166101648501526020015161018484015260031983820301602484015281519081815260200191602001905f5b818110610d5357505050908060209203815f6001600160a01b037f0000000000000000000000000000000000000000000000000000000000000000165af1938415610d48575f94610cf4575b507f28b58397e03322f670d6b223cc863f8c148e368b8b615412e6798a641a22842d9160409182519182526020820152a3005b9093506020813d602011610d40575b81610d1060209383611327565b810103126101335751927f28b58397e03322f670d6b223cc863f8c148e368b8b615412e6798a641a22842d610cc1565b3d9150610d03565b6040513d5f823e3d90fd5b825180516001600160801b0316855260209081015164ffffffffff168186015289955060409094019390920191600101610c75565b634e487b7160e01b5f52604160045260245ffd5b6001600160801b0391610db383925f190186611492565b519303168183511601169052858080610a22565b90926001600160801b03600191610df66109b167ffffffffffffffff610ded8988611492565b5151168b6114eb565b9064ffffffffff806020610e0d5f198b018d611492565b51015116816020610e1e8b8a611492565b51015116011660405190610e318261130b565b84841682526020820152610e45888b611492565b52610e50878a611492565b500116930190610a08565b602090604051610e6a8161130b565b5f81525f8382015282828901015201610987565b93610952565b7f36d385ef000000000000000000000000000000000000000000000000000000005f5260045260245ffd5b64ffffffffff19164264ffffffffff1617600355846108c3565b7fb4f06787000000000000000000000000000000000000000000000000000000005f5260045ffd5b813581526020918201910161083a565b847febe6f30d000000000000000000000000000000000000000000000000000000005f5260045260245ffd5b7fa164c6b4000000000000000000000000000000000000000000000000000000005f523460045260245260445ffd5b7fdf4bae05000000000000000000000000000000000000000000000000000000005f524260045264ffffffffff7f00000000000000000000000000000000000000000000000000000000000000001660245260445ffd5b34610133575f3660031901126101335760206040516001600160a01b037f0000000000000000000000000000000000000000000000000000000000000000168152f35b346101335760403660031901126101335761100f6112f5565b6024356001600160801b038116809103610133576001600160a01b035f5416338103610563575064ffffffffff60035416801515806111ed575b806111de575b61118457506040516110e95f806001600160a01b0360208501967fa9059cbb0000000000000000000000000000000000000000000000000000000088521695866024860152856044860152604485526110a9606486611327565b6001600160a01b037f00000000000000000000000000000000000000000000000000000000000000001694519082865af16110e261139e565b9083611599565b8051908115159182611160575b505061113557507f2e9d425ba8b27655048400b366d7b6a1f7180ebdb088e06bb7389704860ffe1f60206001600160a01b035f541692604051908152a3005b7f5274afe7000000000000000000000000000000000000000000000000000000005f5260045260245ffd5b819250906020918101031261013357602001518015908115036101335784806110f6565b7fe2e40a0c000000000000000000000000000000000000000000000000000000005f524260045264ffffffffff7f00000000000000000000000000000000000000000000000000000000000000001660245260445260645ffd5b506111e7611361565b1561104f565b5062093a80810164ffffffffff811161120e5764ffffffffff164211611049565b634e487b7160e01b5f52601160045260245ffd5b34610133575f366003190112610133576106586040517f0000000000000000000000000000000000000000000000000000000000000000602082015260208152610644604082611327565b34610133575f36600319011261013357610658907f0000000000000000000000000000000000000000000000000000000000000000602082015260208152610644604082611327565b91908251928382525f5b8481106112e0575050825f602080949584010152601f8019910116010190565b806020809284010151828286010152016112c0565b600435906001600160a01b038216820361013357565b6040810190811067ffffffffffffffff821117610d8857604052565b90601f8019910116810190811067ffffffffffffffff821117610d8857604052565b67ffffffffffffffff8111610d885760051b60200190565b64ffffffffff7f0000000000000000000000000000000000000000000000000000000000000000168015159081611396575090565b905042101590565b3d156113d8573d9067ffffffffffffffff8211610d8857604051916113cd601f8201601f191660200184611327565b82523d5f602084013e565b606090565b600454906113ea82611349565b916113f86040519384611327565b80835260045f9081527f8a35acfbc15ff81a39ae7d344fd709f28e8600b4aa8c65c6b64bfe7fe36bd19b602085015b8383106114345750505050565b6001602081926040516114468161130b565b64ffffffffff865467ffffffffffffffff8116835260401c1683820152815201920192019190611427565b80511561147e5760200190565b634e487b7160e01b5f52603260045260245ffd5b805182101561147e5760209160051b010190565b6001600160801b0381116114c0576001600160801b031690565b7f4916adce000000000000000000000000000000000000000000000000000000005f5260045260245ffd5b9091905f198382098382029182808310920391808303921461158857670de0b6b3a7640000821015611558577faccb18165bd6fe31ae1cf318dc5b51eee0e1ba569b88cd74c1773b91fac106699394670de0b6b3a7640000910990828211900360ee1b910360121c170290565b84907f5173648d000000000000000000000000000000000000000000000000000000005f5260045260245260445ffd5b5050670de0b6b3a764000090049150565b906115d657508051156115ae57805190602001fd5b7f1425ea42000000000000000000000000000000000000000000000000000000005f5260045ffd5b8151158061161c575b6115e7575090565b6001600160a01b03907f9996b315000000000000000000000000000000000000000000000000000000005f521660045260245ffd5b50803b156115df56fea164736f6c634300081a000a",
    "linkReferences": {}
  },
  "methodIdentifiers": {
    "EXPIRATION()": "bb4b5734",
    "FACTORY()": "2dd31000",
    "FEE()": "c57981b5",
    "LOCKUP()": "845aef4b",
    "MERKLE_ROOT()": "51e75e8b",
    "STREAM_CANCELABLE()": "cbe9e5ef",
    "STREAM_START_TIME()": "ce36b335",
    "STREAM_TRANSFERABLE()": "bf44497a",
    "TOKEN()": "82bfefc8",
    "TOTAL_PERCENTAGE()": "936c63d9",
    "admin()": "f851a440",
    "campaignName()": "0724fda9",
    "claim(uint256,address,uint128,bytes32[])": "3f31ae3f",
    "clawback(address,uint128)": "1686c909",
    "collectFees(address)": "a480ca79",
    "getFirstClaimTime()": "4e390d3e",
    "getTranchesWithPercentages()": "bf4ed03f",
    "hasClaimed(uint256)": "ce516507",
    "hasExpired()": "90e64d13",
    "ipfsCID()": "49fc73dd",
    "shape()": "0f7514a2",
    "transferAdmin(address)": "75829def"
  },
  "id": 79
}