{
  "abi": [
    {
      "type": "constructor",
      "inputs": [
        {
          "name": "baseParams",
          "type": "tuple",
          "internalType": "struct MerkleBase.ConstructorParams",
          "components": [
            {
              "name": "token",
              "type": "address",
              "internalType": "contract IERC20"
            },
            {
              "name": "expiration",
              "type": "uint40",
              "internalType": "uint40"
            },
            {
              "name": "initialAdmin",
              "type": "address",
              "internalType": "address"
            },
            {
              "name": "ipfsCID",
              "type": "string",
              "internalType": "string"
            },
            {
              "name": "merkleRoot",
              "type": "bytes32",
              "internalType": "bytes32"
            },
            {
              "name": "campaignName",
              "type": "string",
              "internalType": "string"
            },
            {
              "name": "shape",
              "type": "string",
              "internalType": "string"
            }
          ]
        },
        {
          "name": "campaignCreator",
          "type": "address",
          "internalType": "address"
        },
        {
          "name": "lockup",
          "type": "address",
          "internalType": "contract ISablierLockup"
        },
        {
          "name": "cancelable",
          "type": "bool",
          "internalType": "bool"
        },
        {
          "name": "transferable",
          "type": "bool",
          "internalType": "bool"
        },
        {
          "name": "schedule",
          "type": "tuple",
          "internalType": "struct MerkleLL.Schedule",
          "components": [
            {
              "name": "startTime",
              "type": "uint40",
              "internalType": "uint40"
            },
            {
              "name": "startPercentage",
              "type": "uint64",
              "internalType": "UD2x18"
            },
            {
              "name": "cliffDuration",
              "type": "uint40",
              "internalType": "uint40"
            },
            {
              "name": "cliffPercentage",
              "type": "uint64",
              "internalType": "UD2x18"
            },
            {
              "name": "totalDuration",
              "type": "uint40",
              "internalType": "uint40"
            }
          ]
        }
      ],
      "stateMutability": "nonpayable"
    },
    {
      "type": "function",
      "name": "EXPIRATION",
      "inputs": [],
      "outputs": [
        {
          "name": "",
          "type": "uint40",
          "internalType": "uint40"
        }
      ],
      "stateMutability": "view"
    },
    {
      "type": "function",
      "name": "FACTORY",
      "inputs": [],
      "outputs": [
        {
          "name": "",
          "type": "address",
          "internalType": "address"
        }
      ],
      "stateMutability": "view"
    },
    {
      "type": "function",
      "name": "FEE",
      "inputs": [],
      "outputs": [
        {
          "name": "",
          "type": "uint256",
          "internalType": "uint256"
        }
      ],
      "stateMutability": "view"
    },
    {
      "type": "function",
      "name": "LOCKUP",
      "inputs": [],
      "outputs": [
        {
          "name": "",
          "type": "address",
          "internalType": "contract ISablierLockup"
        }
      ],
      "stateMutability": "view"
    },
    {
      "type": "function",
      "name": "MERKLE_ROOT",
      "inputs": [],
      "outputs": [
        {
          "name": "",
          "type": "bytes32",
          "internalType": "bytes32"
        }
      ],
      "stateMutability": "view"
    },
    {
      "type": "function",
      "name": "STREAM_CANCELABLE",
      "inputs": [],
      "outputs": [
        {
          "name": "",
          "type": "bool",
          "internalType": "bool"
        }
      ],
      "stateMutability": "view"
    },
    {
      "type": "function",
      "name": "STREAM_TRANSFERABLE",
      "inputs": [],
      "outputs": [
        {
          "name": "",
          "type": "bool",
          "internalType": "bool"
        }
      ],
      "stateMutability": "view"
    },
    {
      "type": "function",
      "name": "TOKEN",
      "inputs": [],
      "outputs": [
        {
          "name": "",
          "type": "address",
          "internalType": "contract IERC20"
        }
      ],
      "stateMutability": "view"
    },
    {
      "type": "function",
      "name": "admin",
      "inputs": [],
      "outputs": [
        {
          "name": "",
          "type": "address",
          "internalType": "address"
        }
      ],
      "stateMutability": "view"
    },
    {
      "type": "function",
      "name": "campaignName",
      "inputs": [],
      "outputs": [
        {
          "name": "",
          "type": "string",
          "internalType": "string"
        }
      ],
      "stateMutability": "view"
    },
    {
      "type": "function",
      "name": "claim",
      "inputs": [
        {
          "name": "index",
          "type": "uint256",
          "internalType": "uint256"
        },
        {
          "name": "recipient",
          "type": "address",
          "internalType": "address"
        },
        {
          "name": "amount",
          "type": "uint128",
          "internalType": "uint128"
        },
        {
          "name": "merkleProof",
          "type": "bytes32[]",
          "internalType": "bytes32[]"
        }
      ],
      "outputs": [],
      "stateMutability": "payable"
    },
    {
      "type": "function",
      "name": "clawback",
      "inputs": [
        {
          "name": "to",
          "type": "address",
          "internalType": "address"
        },
        {
          "name": "amount",
          "type": "uint128",
          "internalType": "uint128"
        }
      ],
      "outputs": [],
      "stateMutability": "nonpayable"
    },
    {
      "type": "function",
      "name": "collectFees",
      "inputs": [
        {
          "name": "factoryAdmin",
          "type": "address",
          "internalType": "address"
        }
      ],
      "outputs": [
        {
          "name": "feeAmount",
          "type": "uint256",
          "internalType": "uint256"
        }
      ],
      "stateMutability": "nonpayable"
    },
    {
      "type": "function",
      "name": "getFirstClaimTime",
      "inputs": [],
      "outputs": [
        {
          "name": "",
          "type": "uint40",
          "internalType": "uint40"
        }
      ],
      "stateMutability": "view"
    },
    {
      "type": "function",
      "name": "getSchedule",
      "inputs": [],
      "outputs": [
        {
          "name": "",
          "type": "tuple",
          "internalType": "struct MerkleLL.Schedule",
          "components": [
            {
              "name": "startTime",
              "type": "uint40",
              "internalType": "uint40"
            },
            {
              "name": "startPercentage",
              "type": "uint64",
              "internalType": "UD2x18"
            },
            {
              "name": "cliffDuration",
              "type": "uint40",
              "internalType": "uint40"
            },
            {
              "name": "cliffPercentage",
              "type": "uint64",
              "internalType": "UD2x18"
            },
            {
              "name": "totalDuration",
              "type": "uint40",
              "internalType": "uint40"
            }
          ]
        }
      ],
      "stateMutability": "view"
    },
    {
      "type": "function",
      "name": "hasClaimed",
      "inputs": [
        {
          "name": "index",
          "type": "uint256",
          "internalType": "uint256"
        }
      ],
      "outputs": [
        {
          "name": "",
          "type": "bool",
          "internalType": "bool"
        }
      ],
      "stateMutability": "view"
    },
    {
      "type": "function",
      "name": "hasExpired",
      "inputs": [],
      "outputs": [
        {
          "name": "",
          "type": "bool",
          "internalType": "bool"
        }
      ],
      "stateMutability": "view"
    },
    {
      "type": "function",
      "name": "ipfsCID",
      "inputs": [],
      "outputs": [
        {
          "name": "",
          "type": "string",
          "internalType": "string"
        }
      ],
      "stateMutability": "view"
    },
    {
      "type": "function",
      "name": "shape",
      "inputs": [],
      "outputs": [
        {
          "name": "",
          "type": "string",
          "internalType": "string"
        }
      ],
      "stateMutability": "view"
    },
    {
      "type": "function",
      "name": "transferAdmin",
      "inputs": [
        {
          "name": "newAdmin",
          "type": "address",
          "internalType": "address"
        }
      ],
      "outputs": [],
      "stateMutability": "nonpayable"
    },
    {
      "type": "event",
      "name": "Claim",
      "inputs": [
        {
          "name": "index",
          "type": "uint256",
          "indexed": false,
          "internalType": "uint256"
        },
        {
          "name": "recipient",
          "type": "address",
          "indexed": true,
          "internalType": "address"
        },
        {
          "name": "amount",
          "type": "uint128",
          "indexed": false,
          "internalType": "uint128"
        },
        {
          "name": "streamId",
          "type": "uint256",
          "indexed": true,
          "internalType": "uint256"
        }
      ],
      "anonymous": false
    },
    {
      "type": "event",
      "name": "Clawback",
      "inputs": [
        {
          "name": "admin",
          "type": "address",
          "indexed": true,
          "internalType": "address"
        },
        {
          "name": "to",
          "type": "address",
          "indexed": true,
          "internalType": "address"
        },
        {
          "name": "amount",
          "type": "uint128",
          "indexed": false,
          "internalType": "uint128"
        }
      ],
      "anonymous": false
    },
    {
      "type": "event",
      "name": "TransferAdmin",
      "inputs": [
        {
          "name": "oldAdmin",
          "type": "address",
          "indexed": true,
          "internalType": "address"
        },
        {
          "name": "newAdmin",
          "type": "address",
          "indexed": true,
          "internalType": "address"
        }
      ],
      "anonymous": false
    },
    {
      "type": "error",
      "name": "AddressEmptyCode",
      "inputs": [
        {
          "name": "target",
          "type": "address",
          "internalType": "address"
        }
      ]
    },
    {
      "type": "error",
      "name": "AddressInsufficientBalance",
      "inputs": [
        {
          "name": "account",
          "type": "address",
          "internalType": "address"
        }
      ]
    },
    {
      "type": "error",
      "name": "CallerNotAdmin",
      "inputs": [
        {
          "name": "admin",
          "type": "address",
          "internalType": "address"
        },
        {
          "name": "caller",
          "type": "address",
          "internalType": "address"
        }
      ]
    },
    {
      "type": "error",
      "name": "FailedInnerCall",
      "inputs": []
    },
    {
      "type": "error",
      "name": "PRBMath_MulDiv18_Overflow",
      "inputs": [
        {
          "name": "x",
          "type": "uint256",
          "internalType": "uint256"
        },
        {
          "name": "y",
          "type": "uint256",
          "internalType": "uint256"
        }
      ]
    },
    {
      "type": "error",
      "name": "PRBMath_UD60x18_IntoUint128_Overflow",
      "inputs": [
        {
          "name": "x",
          "type": "uint256",
          "internalType": "UD60x18"
        }
      ]
    },
    {
      "type": "error",
      "name": "SablierMerkleBase_CallerNotFactory",
      "inputs": [
        {
          "name": "factory",
          "type": "address",
          "internalType": "address"
        },
        {
          "name": "caller",
          "type": "address",
          "internalType": "address"
        }
      ]
    },
    {
      "type": "error",
      "name": "SablierMerkleBase_CampaignExpired",
      "inputs": [
        {
          "name": "blockTimestamp",
          "type": "uint256",
          "internalType": "uint256"
        },
        {
          "name": "expiration",
          "type": "uint40",
          "internalType": "uint40"
        }
      ]
    },
    {
      "type": "error",
      "name": "SablierMerkleBase_ClawbackNotAllowed",
      "inputs": [
        {
          "name": "blockTimestamp",
          "type": "uint256",
          "internalType": "uint256"
        },
        {
          "name": "expiration",
          "type": "uint40",
          "internalType": "uint40"
        },
        {
          "name": "firstClaimTime",
          "type": "uint40",
          "internalType": "uint40"
        }
      ]
    },
    {
      "type": "error",
      "name": "SablierMerkleBase_FeeTransferFail",
      "inputs": [
        {
          "name": "factoryAdmin",
          "type": "address",
          "internalType": "address"
        },
        {
          "name": "feeAmount",
          "type": "uint256",
          "internalType": "uint256"
        }
      ]
    },
    {
      "type": "error",
      "name": "SablierMerkleBase_InsufficientFeePayment",
      "inputs": [
        {
          "name": "feePaid",
          "type": "uint256",
          "internalType": "uint256"
        },
        {
          "name": "fee",
          "type": "uint256",
          "internalType": "uint256"
        }
      ]
    },
    {
      "type": "error",
      "name": "SablierMerkleBase_InvalidProof",
      "inputs": []
    },
    {
      "type": "error",
      "name": "SablierMerkleBase_StreamClaimed",
      "inputs": [
        {
          "name": "index",
          "type": "uint256",
          "internalType": "uint256"
        }
      ]
    },
    {
      "type": "error",
      "name": "SafeERC20FailedOperation",
      "inputs": [
        {
          "name": "token",
          "type": "address",
          "internalType": "address"
        }
      ]
    }
  ],
  "bytecode": {
    "object": "0x6101c080604052346105ac57611c55803803809161001d82856106fe565b833981019080820361014081126105ac5781516001600160401b0381116105ac5782019160e0838503126105ac576040519360e085016001600160401b038111868210176106ab5760405283516001600160a01b03811681036105ac57855261008860208501610721565b936020860194855261009c60408201610733565b6040870190815260608201519094906001600160401b0381116105ac57836100c5918401610783565b96606081019788526080830151926080820193845260a081015160018060401b0381116105ac57856100f8918301610783565b60a0830190815260c08201519095906001600160401b0381116105ac5761011f9201610783565b9060c0810191825261013360208701610733565b60408701516001600160a01b0381169a909290918b84036105ac5761015a60608a016107c8565b9460a061016960808c016107c8565b97609f1901126105ac576040519760a089016001600160401b0381118a8210176106ab5760405261019c60a08c01610721565b89526101aa60c08c016107d5565b60208a019081529c6101be60e08d01610721565b60408b019081529a6101d36101008e016107d5565b9c60608c019d8e52610120016101e890610721565b60808c019081529d515f80546001600160a01b0319166001600160a01b0392909216918217815560405192839290917fbdd36143ee09de60bdefca70680e0f71189b2ed7acee364b53917ad433fdaf808180a3518051908160208401916020019161025292610762565b81010380825261026590602001826106fe565b61026e906107e9565b6080525164ffffffffff1660a0523360c0819052604051631711922960e31b81526001600160a01b039094166004850152839081905a92602491602094fa80156106f3575f906106bf575b6102f9935060e0525161010052516102f46020604051836102e38295518092858086019101610762565b81010301601f1981018352826106fe565b6107e9565b61012052516001600160a01b031661014052518051906001600160401b0382116106ab57600154600181811c911680156106a1575b602082101461068d57601f811161062a575b50602090601f83116001146105bb5764ffffffffff9695949392915f91836105b0575b50508160011b915f199060031b1c1916176001555b61016052610180526101a05251169071ffffffffff000000000000000000000000006004549565010000000000600160681b03905160281b16915160681b1692600160901b600160d01b03905160901b169364ffffffffff60d01b905160d01b169464ffffffffff60d01b1992600160901b600160d01b03199160018060901b0319161716171617171760045560018060a01b036101405116604051905f806020840163095ea7b360e01b815285602486015281196044860152604485526104416064866106fe565b84519082855af161045061080b565b81610575575b508061056b575b15610526575b604051611349908161090c823960805181611043015260a05181818161023001528181610c9701528181610f73015261112d015260c0518181816102770152610cde015260e0518181816101b40152610673015261010051818181610495015261077301526101205181818161089d0152610ffa0152610140518181816103a50152818161091c0152610e730152610160518181816103620152610ab4015261018051818181610178015261094d01526101a0518181816101ee01526109770152f35b61055e610563936040519063095ea7b360e01b602083015260248201525f6044820152604481526105586064826106fe565b8261083a565b61083a565b5f8080610463565b50803b151561045d565b805180159250821561058a575b50505f610456565b81925090602091810103126105ac5760206105a591016107c8565b5f80610582565b5f80fd5b015190505f80610363565b90601f1983169160015f52815f20925f5b818110610612575091600193918564ffffffffff9a9998979694106105fa575b505050811b01600155610378565b01515f1960f88460031b161c191690555f80806105ec565b929360206001819287860151815501950193016105cc565b60015f527fb10e2d527612073b26eecdfd717e6a320cf44b4afac2b0732d9fcbe2b7fa0cf6601f840160051c81019160208510610683575b601f0160051c01905b8181106106785750610340565b5f815560010161066b565b9091508190610662565b634e487b7160e01b5f52602260045260245ffd5b90607f169061032e565b634e487b7160e01b5f52604160045260245ffd5b506020833d6020116106eb575b816106d9602093836106fe565b810103126105ac576102f992516102b9565b3d91506106cc565b6040513d5f823e3d90fd5b601f909101601f19168101906001600160401b038211908210176106ab57604052565b519064ffffffffff821682036105ac57565b51906001600160a01b03821682036105ac57565b6001600160401b0381116106ab57601f01601f191660200190565b5f5b8381106107735750505f910152565b8181015183820152602001610764565b81601f820112156105ac57805161079981610747565b926107a760405194856106fe565b818452602082840101116105ac576107c59160208085019101610762565b90565b519081151582036105ac57565b51906001600160401b03821682036105ac57565b6020815191015190602081106107fd575090565b5f199060200360031b1b1690565b3d15610835573d9061081c82610747565b9161082a60405193846106fe565b82523d5f602084013e565b606090565b5f806108629260018060a01b03169360208151910182865af161085b61080b565b90836108ad565b805190811515918261088a575b50506108785750565b635274afe760e01b5f5260045260245ffd5b81925090602091810103126105ac5760206108a591016107c8565b155f8061086f565b906108d157508051156108c257805190602001fd5b630a12f52160e11b5f5260045ffd5b81511580610902575b6108e2575090565b639996b31560e01b5f9081526001600160a01b0391909116600452602490fd5b50803b156108da56fe6080806040526004361015610012575f80fd5b5f3560e01c9081630724fda91461102d575080630f7514a214610fe25780631686c90914610db657806326fadbe214610d025780632dd3100014610cbf5780633f31ae3f146105e857806349fc73dd146104dc5780634e390d3e146104b857806351e75e8b1461047e57806375829def146103c957806382bfefc814610386578063845aef4b1461034357806390e64d1314610329578063a480ca7914610254578063bb4b573414610213578063bf44497a146101d7578063c57981b51461019d578063cbe9e5ef14610161578063ce516507146101215763f851a440146100f8575f80fd5b3461011d575f36600319011261011d5760206001600160a01b035f5416604051908152f35b5f80fd5b3461011d57602036600319011261011d57602061015760043560ff6001918060081c5f526002602052161b60405f205416151590565b6040519015158152f35b3461011d575f36600319011261011d5760206040517f000000000000000000000000000000000000000000000000000000000000000015158152f35b3461011d575f36600319011261011d5760206040517f00000000000000000000000000000000000000000000000000000000000000008152f35b3461011d575f36600319011261011d5760206040517f000000000000000000000000000000000000000000000000000000000000000015158152f35b3461011d575f36600319011261011d57602060405164ffffffffff7f0000000000000000000000000000000000000000000000000000000000000000168152f35b3461011d57602036600319011261011d5761026d6110b5565b6001600160a01b037f0000000000000000000000000000000000000000000000000000000000000000168033036102fa575047905f80808085855af16102b1611162565b50156102c257602082604051908152f35b6001600160a01b03907f245bf0c0000000000000000000000000000000000000000000000000000000005f521660045260245260445ffd5b7f4e3ddeed000000000000000000000000000000000000000000000000000000005f526004523360245260445ffd5b3461011d575f36600319011261011d576020610157611125565b3461011d575f36600319011261011d5760206040516001600160a01b037f0000000000000000000000000000000000000000000000000000000000000000168152f35b3461011d575f36600319011261011d5760206040516001600160a01b037f0000000000000000000000000000000000000000000000000000000000000000168152f35b3461011d57602036600319011261011d576103e26110b5565b5f546001600160a01b03811633810361044f57506001600160a01b037fffffffffffffffffffffffff0000000000000000000000000000000000000000921691829116175f55337fbdd36143ee09de60bdefca70680e0f71189b2ed7acee364b53917ad433fdaf805f80a3005b7fc6cce6a4000000000000000000000000000000000000000000000000000000005f526004523360245260445ffd5b3461011d575f36600319011261011d5760206040517f00000000000000000000000000000000000000000000000000000000000000008152f35b3461011d575f36600319011261011d57602064ffffffffff60035416604051908152f35b3461011d575f36600319011261011d576040515f6001548060011c906001811680156105de575b6020831081146105ca578285529081156105a65750600114610548575b6105448361053081850382611103565b604051918291602083526020830190611076565b0390f35b91905060015f527fb10e2d527612073b26eecdfd717e6a320cf44b4afac2b0732d9fcbe2b7fa0cf6915f905b80821061058c57509091508101602001610530610520565b919260018160209254838588010152019101909291610574565b60ff191660208086019190915291151560051b840190910191506105309050610520565b634e487b7160e01b5f52602260045260245ffd5b91607f1691610503565b608036600319011261011d57600435602435906001600160a01b03821680920361011d576044356001600160801b03811680910361011d576064359067ffffffffffffffff821161011d573660238301121561011d57816004013567ffffffffffffffff811161011d578060051b926024848201019036821161011d5761066d611125565b610c68577f0000000000000000000000000000000000000000000000000000000000000000803410610c3957506106bb8660ff6001918060081c5f526002602052161b60405f205416151590565b610c0d576040516020810190878252886040820152856060820152606081526106e5608082611103565b5190206040516020810191825260208152610701604082611103565b519020926107156020604051970187611103565b8552602401602085015b828210610bfd57505050935f945b835186101561076f5760208660051b85010151908181105f1461075e575f52602052600160405f205b95019461072d565b905f52602052600160405f20610756565b84907f000000000000000000000000000000000000000000000000000000000000000003610bd55760035464ffffffffff811615610bbb575b508060081c5f52600260205260405f20600160ff83161b8154179055604051926107d1846110e7565b5f808552602085015260045464ffffffffff811680610bb4575064ffffffffff421685525b5f9064ffffffffff8160681c1680610b99575b5064ffffffffff61082381885116828460d01c16906111a1565b16602087015261087a61086867ffffffffffffffff60405193610845856110e7565b5f85525f60208601526001600160801b0361086d610868848460281c168a611202565b6111bd565b16855260901c1685611202565b916001600160801b0360208301931683526001600160a01b035f541692604051927f00000000000000000000000000000000000000000000000000000000000000006020850152602084526108d0604085611103565b604051936108dd856110e7565b5f85525f602086015260405195610120870187811067ffffffffffffffff821117610b855760405286526020860199898b5260408701888152606088017f00000000000000000000000000000000000000000000000000000000000000006001600160a01b0316815260808901907f00000000000000000000000000000000000000000000000000000000000000001515825260a08a01927f00000000000000000000000000000000000000000000000000000000000000001515845260c08b0194855260e08b019586526101008b01998a526040519e8f9b7f7a695841000000000000000000000000000000000000000000000000000000008d5260048d0160809052516001600160a01b031660848d0152516001600160a01b031660a48c0152516001600160801b031660c48b0152516001600160a01b031660e48a015251151561010489015251151561012488015251805164ffffffffff166101448801526020015164ffffffffff1661016487015251610184860161016090526101e48601610a6991611076565b935180516001600160a01b03166101a4870152602001516101c4860152516001600160801b03166024850152516001600160801b0316604484015264ffffffffff16606483015203847f00000000000000000000000000000000000000000000000000000000000000006001600160a01b031691815a6020945f91f1938415610b7a575f94610b26575b507f28b58397e03322f670d6b223cc863f8c148e368b8b615412e6798a641a22842d9160409182519182526020820152a3005b9093506020813d602011610b72575b81610b4260209383611103565b8101031261011d5751927f28b58397e03322f670d6b223cc863f8c148e368b8b615412e6798a641a22842d610af3565b3d9150610b35565b6040513d5f823e3d90fd5b634e487b7160e01b5f52604160045260245ffd5b610bad91925064ffffffffff8751166111a1565b9086610809565b85526107f6565b64ffffffffff19164264ffffffffff1617600355836107a8565b7fb4f06787000000000000000000000000000000000000000000000000000000005f5260045ffd5b813581526020918201910161071f565b857febe6f30d000000000000000000000000000000000000000000000000000000005f5260045260245ffd5b7fa164c6b4000000000000000000000000000000000000000000000000000000005f523460045260245260445ffd5b7fdf4bae05000000000000000000000000000000000000000000000000000000005f524260045264ffffffffff7f00000000000000000000000000000000000000000000000000000000000000001660245260445ffd5b3461011d575f36600319011261011d5760206040516001600160a01b037f0000000000000000000000000000000000000000000000000000000000000000168152f35b3461011d575f36600319011261011d575f6080604051610d21816110cb565b828152826020820152826040820152826060820152015260a0604051610d46816110cb565b64ffffffffff60045467ffffffffffffffff828216938481528360208201838560281c168152836040840191838760681c1683528360806060870196848a60901c168852019760d01c16875260405198895251166020880152511660408601525116606084015251166080820152f35b3461011d57604036600319011261011d57610dcf6110b5565b6024356001600160801b03811680910361011d576001600160a01b035f541633810361044f575064ffffffffff6003541680151580610fad575b80610f9e575b610f445750604051610ea95f806001600160a01b0360208501967fa9059cbb000000000000000000000000000000000000000000000000000000008852169586602486015285604486015260448552610e69606486611103565b6001600160a01b037f00000000000000000000000000000000000000000000000000000000000000001694519082865af1610ea2611162565b90836112b0565b8051908115159182610f20575b5050610ef557507f2e9d425ba8b27655048400b366d7b6a1f7180ebdb088e06bb7389704860ffe1f60206001600160a01b035f541692604051908152a3005b7f5274afe7000000000000000000000000000000000000000000000000000000005f5260045260245ffd5b819250906020918101031261011d576020015180159081150361011d578480610eb6565b7fe2e40a0c000000000000000000000000000000000000000000000000000000005f524260045264ffffffffff7f00000000000000000000000000000000000000000000000000000000000000001660245260445260645ffd5b50610fa7611125565b15610e0f565b5062093a80810164ffffffffff8111610fce5764ffffffffff164211610e09565b634e487b7160e01b5f52601160045260245ffd5b3461011d575f36600319011261011d576105446040517f0000000000000000000000000000000000000000000000000000000000000000602082015260208152610530604082611103565b3461011d575f36600319011261011d57610544907f0000000000000000000000000000000000000000000000000000000000000000602082015260208152610530604082611103565b91908251928382525f5b8481106110a0575050825f602080949584010152601f8019910116010190565b80602080928401015182828601015201611080565b600435906001600160a01b038216820361011d57565b60a0810190811067ffffffffffffffff821117610b8557604052565b6040810190811067ffffffffffffffff821117610b8557604052565b90601f8019910116810190811067ffffffffffffffff821117610b8557604052565b64ffffffffff7f000000000000000000000000000000000000000000000000000000000000000016801515908161115a575090565b905042101590565b3d1561119c573d9067ffffffffffffffff8211610b855760405191611191601f8201601f191660200184611103565b82523d5f602084013e565b606090565b9064ffffffffff8091169116019064ffffffffff8211610fce57565b6001600160801b0381116111d7576001600160801b031690565b7f4916adce000000000000000000000000000000000000000000000000000000005f5260045260245ffd5b9091905f198382098382029182808310920391808303921461129f57670de0b6b3a764000082101561126f577faccb18165bd6fe31ae1cf318dc5b51eee0e1ba569b88cd74c1773b91fac106699394670de0b6b3a7640000910990828211900360ee1b910360121c170290565b84907f5173648d000000000000000000000000000000000000000000000000000000005f5260045260245260445ffd5b5050670de0b6b3a764000090049150565b906112ed57508051156112c557805190602001fd5b7f1425ea42000000000000000000000000000000000000000000000000000000005f5260045ffd5b81511580611333575b6112fe575090565b6001600160a01b03907f9996b315000000000000000000000000000000000000000000000000000000005f521660045260245ffd5b50803b156112f656fea164736f6c634300081a000a",
    "linkReferences": {}
  },
  "methodIdentifiers": {
    "EXPIRATION()": "bb4b5734",
    "FACTORY()": "2dd31000",
    "FEE()": "c57981b5",
    "LOCKUP()": "845aef4b",
    "MERKLE_ROOT()": "51e75e8b",
    "STREAM_CANCELABLE()": "cbe9e5ef",
    "STREAM_TRANSFERABLE()": "bf44497a",
    "TOKEN()": "82bfefc8",
    "admin()": "f851a440",
    "campaignName()": "0724fda9",
    "claim(uint256,address,uint128,bytes32[])": "3f31ae3f",
    "clawback(address,uint128)": "1686c909",
    "collectFees(address)": "a480ca79",
    "getFirstClaimTime()": "4e390d3e",
    "getSchedule()": "26fadbe2",
    "hasClaimed(uint256)": "ce516507",
    "hasExpired()": "90e64d13",
    "ipfsCID()": "49fc73dd",
    "shape()": "0f7514a2",
    "transferAdmin(address)": "75829def"
  },
  "id": 78
}