{
  "abi": [
    {
      "type": "constructor",
      "inputs": [
        {
          "name": "initialComptroller",
          "type": "address",
          "internalType": "address"
        }
      ],
      "stateMutability": "nonpayable"
    },
    {
      "type": "function",
      "name": "comptroller",
      "inputs": [],
      "outputs": [
        {
          "name": "",
          "type": "address",
          "internalType": "contract ISablierComptroller"
        }
      ],
      "stateMutability": "view"
    },
    {
      "type": "function",
      "name": "computeMerkleInstant",
      "inputs": [
        {
          "name": "campaignCreator",
          "type": "address",
          "internalType": "address"
        },
        {
          "name": "campaignParams",
          "type": "tuple",
          "internalType": "struct MerkleInstant.ConstructorParams",
          "components": [
            {
              "name": "campaignName",
              "type": "string",
              "internalType": "string"
            },
            {
              "name": "campaignStartTime",
              "type": "uint40",
              "internalType": "uint40"
            },
            {
              "name": "claimType",
              "type": "uint8",
              "internalType": "enum ClaimType"
            },
            {
              "name": "expiration",
              "type": "uint40",
              "internalType": "uint40"
            },
            {
              "name": "initialAdmin",
              "type": "address",
              "internalType": "address"
            },
            {
              "name": "ipfsCID",
              "type": "string",
              "internalType": "string"
            },
            {
              "name": "merkleRoot",
              "type": "bytes32",
              "internalType": "bytes32"
            },
            {
              "name": "token",
              "type": "address",
              "internalType": "contract IERC20"
            }
          ]
        }
      ],
      "outputs": [
        {
          "name": "merkleInstant",
          "type": "address",
          "internalType": "address"
        }
      ],
      "stateMutability": "view"
    },
    {
      "type": "function",
      "name": "createMerkleInstant",
      "inputs": [
        {
          "name": "campaignParams",
          "type": "tuple",
          "internalType": "struct MerkleInstant.ConstructorParams",
          "components": [
            {
              "name": "campaignName",
              "type": "string",
              "internalType": "string"
            },
            {
              "name": "campaignStartTime",
              "type": "uint40",
              "internalType": "uint40"
            },
            {
              "name": "claimType",
              "type": "uint8",
              "internalType": "enum ClaimType"
            },
            {
              "name": "expiration",
              "type": "uint40",
              "internalType": "uint40"
            },
            {
              "name": "initialAdmin",
              "type": "address",
              "internalType": "address"
            },
            {
              "name": "ipfsCID",
              "type": "string",
              "internalType": "string"
            },
            {
              "name": "merkleRoot",
              "type": "bytes32",
              "internalType": "bytes32"
            },
            {
              "name": "token",
              "type": "address",
              "internalType": "contract IERC20"
            }
          ]
        },
        {
          "name": "aggregateAmount",
          "type": "uint256",
          "internalType": "uint256"
        },
        {
          "name": "recipientCount",
          "type": "uint256",
          "internalType": "uint256"
        }
      ],
      "outputs": [
        {
          "name": "merkleInstant",
          "type": "address",
          "internalType": "contract ISablierMerkleInstant"
        }
      ],
      "stateMutability": "nonpayable"
    },
    {
      "type": "function",
      "name": "nativeToken",
      "inputs": [],
      "outputs": [
        {
          "name": "",
          "type": "address",
          "internalType": "address"
        }
      ],
      "stateMutability": "view"
    },
    {
      "type": "function",
      "name": "setComptroller",
      "inputs": [
        {
          "name": "newComptroller",
          "type": "address",
          "internalType": "contract ISablierComptroller"
        }
      ],
      "outputs": [],
      "stateMutability": "nonpayable"
    },
    {
      "type": "function",
      "name": "setNativeToken",
      "inputs": [
        {
          "name": "newNativeToken",
          "type": "address",
          "internalType": "address"
        }
      ],
      "outputs": [],
      "stateMutability": "nonpayable"
    },
    {
      "type": "function",
      "name": "transferFeesToComptroller",
      "inputs": [],
      "outputs": [],
      "stateMutability": "nonpayable"
    },
    {
      "type": "event",
      "name": "CreateMerkleInstant",
      "inputs": [
        {
          "name": "merkleInstant",
          "type": "address",
          "indexed": true,
          "internalType": "contract ISablierMerkleInstant"
        },
        {
          "name": "campaignParams",
          "type": "tuple",
          "indexed": false,
          "internalType": "struct MerkleInstant.ConstructorParams",
          "components": [
            {
              "name": "campaignName",
              "type": "string",
              "internalType": "string"
            },
            {
              "name": "campaignStartTime",
              "type": "uint40",
              "internalType": "uint40"
            },
            {
              "name": "claimType",
              "type": "uint8",
              "internalType": "enum ClaimType"
            },
            {
              "name": "expiration",
              "type": "uint40",
              "internalType": "uint40"
            },
            {
              "name": "initialAdmin",
              "type": "address",
              "internalType": "address"
            },
            {
              "name": "ipfsCID",
              "type": "string",
              "internalType": "string"
            },
            {
              "name": "merkleRoot",
              "type": "bytes32",
              "internalType": "bytes32"
            },
            {
              "name": "token",
              "type": "address",
              "internalType": "contract IERC20"
            }
          ]
        },
        {
          "name": "aggregateAmount",
          "type": "uint256",
          "indexed": false,
          "internalType": "uint256"
        },
        {
          "name": "recipientCount",
          "type": "uint256",
          "indexed": false,
          "internalType": "uint256"
        },
        {
          "name": "comptroller",
          "type": "address",
          "indexed": false,
          "internalType": "address"
        },
        {
          "name": "minFeeUSD",
          "type": "uint256",
          "indexed": false,
          "internalType": "uint256"
        }
      ],
      "anonymous": false
    },
    {
      "type": "event",
      "name": "SetComptroller",
      "inputs": [
        {
          "name": "oldComptroller",
          "type": "address",
          "indexed": false,
          "internalType": "contract ISablierComptroller"
        },
        {
          "name": "newComptroller",
          "type": "address",
          "indexed": false,
          "internalType": "contract ISablierComptroller"
        }
      ],
      "anonymous": false
    },
    {
      "type": "event",
      "name": "SetNativeToken",
      "inputs": [
        {
          "name": "comptroller",
          "type": "address",
          "indexed": true,
          "internalType": "address"
        },
        {
          "name": "nativeToken",
          "type": "address",
          "indexed": false,
          "internalType": "address"
        }
      ],
      "anonymous": false
    },
    {
      "type": "event",
      "name": "TransferFeesToComptroller",
      "inputs": [
        {
          "name": "comptroller",
          "type": "address",
          "indexed": true,
          "internalType": "address"
        },
        {
          "name": "feeAmount",
          "type": "uint256",
          "indexed": false,
          "internalType": "uint256"
        }
      ],
      "anonymous": false
    },
    {
      "type": "error",
      "name": "Comptrollerable_CallerNotComptroller",
      "inputs": [
        {
          "name": "comptroller",
          "type": "address",
          "internalType": "address"
        },
        {
          "name": "caller",
          "type": "address",
          "internalType": "address"
        }
      ]
    },
    {
      "type": "error",
      "name": "Comptrollerable_UnsupportedInterfaceId",
      "inputs": [
        {
          "name": "previousComptroller",
          "type": "address",
          "internalType": "address"
        },
        {
          "name": "newComptroller",
          "type": "address",
          "internalType": "address"
        },
        {
          "name": "minimalInterfaceId",
          "type": "bytes4",
          "internalType": "bytes4"
        }
      ]
    },
    {
      "type": "error",
      "name": "SablierFactoryMerkleBase_ForbidNativeToken",
      "inputs": [
        {
          "name": "nativeToken",
          "type": "address",
          "internalType": "address"
        }
      ]
    },
    {
      "type": "error",
      "name": "SablierFactoryMerkleBase_NativeTokenAlreadySet",
      "inputs": [
        {
          "name": "nativeToken",
          "type": "address",
          "internalType": "address"
        }
      ]
    },
    {
      "type": "error",
      "name": "SablierFactoryMerkleBase_NativeTokenZeroAddress",
      "inputs": []
    }
  ],
  "bytecode": {
    "object": "0x6080806040523461011a57602081613808803803809161001f8285610131565b83398101031261011a57516001600160a01b0381169081900361011a576040516301ffc9a760e01b8152630654439160e41b6004820152602081602481855afa908115610126575f916100e7575b50156100c6575f80546001600160a01b031916821781556040805191825260208201929092527ff45d882a72fce9d8d7a7e2e196a338d4d9d4057510b4b9ddf91a7066104d2eaf9190a160405161369f90816101698239f35b6364ca3de160e11b5f525f600452602452630654439160e41b60445260645ffd5b90506020813d60201161011e575b8161010260209383610131565b8101031261011a5751801515810361011a575f61006d565b5f80fd5b3d91506100f5565b6040513d5f823e3d90fd5b601f909101601f19168101906001600160401b0382119082101761015457604052565b634e487b7160e01b5f52604160045260245ffdfe60806040526004361015610011575f80fd5b5f3560e01c8063106dc4a01461075b5780635fe3b5671461070b5780636da1e102146105e757806378f82ce7146104bf5780638bad38dd14610274578063bf4aa528146100bb5763e1758bd814610066575f80fd5b346100b7575f7ffffffffffffffffffffffffffffffffffffffffffffffffffffffffffffffffc3601126100b757602073ffffffffffffffffffffffffffffffffffffffff60015416604051908152f35b5f80fd5b346100b75760407ffffffffffffffffffffffffffffffffffffffffffffffffffffffffffffffffc3601126100b7576100f261098d565b60243567ffffffffffffffff81116100b757806004016101007ffffffffffffffffffffffffffffffffffffffffffffffffffffffffffffffffc83360301126100b75760209261016373ffffffffffffffffffffffffffffffffffffffff61015d60e48296016109b0565b16610c37565b61018a610218845f5416926101ff60405188808201526101b68161018a604082018a610a71565b037fffffffffffffffffffffffffffffffffffffffffffffffffffffffffffffffe08101835282610b4f565b6040516101cc8161018a8c8201948a8887610bb9565b5190209561018a61299096604051976101e78c82018a610b4f565b808952610cda8c8a01396040519485938c8501610bfc565b6040519283916102128984018097610b90565b90610b90565b51902060405190848201927fff0000000000000000000000000000000000000000000000000000000000000084523060601b60218401526035830152605582015260558152610268607582610b4f565b51902016604051908152f35b346100b75760207ffffffffffffffffffffffffffffffffffffffffffffffffffffffffffffffffc3601126100b75760043573ffffffffffffffffffffffffffffffffffffffff81168091036100b7576102cc610c88565b5f549073ffffffffffffffffffffffffffffffffffffffff8216916040517fc34df33e000000000000000000000000000000000000000000000000000000008152602081600481875afa908115610459575f91610464575b507fffffffff00000000000000000000000000000000000000000000000000000000604051917f01ffc9a70000000000000000000000000000000000000000000000000000000083521690816004820152602081602481875afa908115610459575f9161041e575b50156103eb577ff45d882a72fce9d8d7a7e2e196a338d4d9d4057510b4b9ddf91a7066104d2eaf60408585807fffffffffffffffffffffffff00000000000000000000000000000000000000008716175f5582519182526020820152a1005b82847fc9947bc2000000000000000000000000000000000000000000000000000000005f5260045260245260445260645ffd5b90506020813d602011610451575b8161043960209383610b4f565b810103126100b7575180151581036100b7578561038c565b3d915061042c565b6040513d5f823e3d90fd5b90506020813d6020116104b7575b8161047f60209383610b4f565b810103126100b757517fffffffff00000000000000000000000000000000000000000000000000000000811681036100b75784610324565b3d9150610472565b346100b7575f7ffffffffffffffffffffffffffffffffffffffffffffffffffffffffffffffffc3601126100b75773ffffffffffffffffffffffffffffffffffffffff5f5416475f80808084865af1503d156105be573d67ffffffffffffffff8111610591577f56dedb874d4fc0f70753f281fa2c25e82085163206086fe826cf834b51701f6c916020916040519061057f847fffffffffffffffffffffffffffffffffffffffffffffffffffffffffffffffe0601f8401160183610b4f565b81525f833d92013e5b604051908152a2005b7f4e487b71000000000000000000000000000000000000000000000000000000005f52604160045260245ffd5b60207f56dedb874d4fc0f70753f281fa2c25e82085163206086fe826cf834b51701f6c91610588565b346100b75760207ffffffffffffffffffffffffffffffffffffffffffffffffffffffffffffffffc3601126100b75773ffffffffffffffffffffffffffffffffffffffff61063361098d565b61063b610c88565b1680156106e35760015473ffffffffffffffffffffffffffffffffffffffff8116806106b857507fffffffffffffffffffffffff0000000000000000000000000000000000000000829116176001556040519081527f7b0a5ae0a2e8f0dc2ec7555098e00dd4af1418ee3fd1bcf9bb14f6990c10fa9260203392a2005b7f6d9f7c38000000000000000000000000000000000000000000000000000000005f5260045260245ffd5b7f2f70e6c7000000000000000000000000000000000000000000000000000000005f5260045ffd5b346100b7575f7ffffffffffffffffffffffffffffffffffffffffffffffffffffffffffffffffc3601126100b757602073ffffffffffffffffffffffffffffffffffffffff5f5416604051908152f35b346100b75760607ffffffffffffffffffffffffffffffffffffffffffffffffffffffffffffffffc3601126100b75760043567ffffffffffffffff81116100b75780600401906101007ffffffffffffffffffffffffffffffffffffffffffffffffffffffffffffffffc82360301126100b75773ffffffffffffffffffffffffffffffffffffffff61015d60e46107f293016109b0565b73ffffffffffffffffffffffffffffffffffffffff5f54166040516020808201526108248161018a6040820186610a71565b60405161083b8161018a6020820194863387610bb9565b51902090604051906129908083019183831067ffffffffffffffff84111761059157839261087092610cda8539863391610bfc565b03905ff580156104595773ffffffffffffffffffffffffffffffffffffffff1673ffffffffffffffffffffffffffffffffffffffff5f541691604051927f88dc31a80000000000000000000000000000000000000000000000000000000084525f6004850152336024850152602084604481845afa938415610459575f94610957575b5061093283927fb76f209c78c48adfc06d5bc75d7266b1b649d96ccd4925ca63692066435a190a9260209660405193849360a0855260a0850190610a71565b91602435898501526044356040850152606084015260808301520390a2604051908152f35b93506020843d602011610985575b8161097260209383610b4f565b810103126100b7579251926109326108f3565b3d9150610965565b6004359073ffffffffffffffffffffffffffffffffffffffff821682036100b757565b3573ffffffffffffffffffffffffffffffffffffffff811681036100b75790565b90357fffffffffffffffffffffffffffffffffffffffffffffffffffffffffffffffe1823603018112156100b757016020813591019167ffffffffffffffff82116100b75781360383136100b757565b601f82602094937fffffffffffffffffffffffffffffffffffffffffffffffffffffffffffffffe093818652868601375f8582860101520116010190565b359064ffffffffff821682036100b757565b90610a8f610a7f83806109d1565b6101008452610100840191610a21565b64ffffffffff610aa160208501610a5f565b166020830152604083013560038110156100b757604083015264ffffffffff610acc60608501610a5f565b166060830152608083013573ffffffffffffffffffffffffffffffffffffffff81168091036100b75760e091610b1c916080850152610b0e60a08601866109d1565b9085830360a0870152610a21565b9260c081013560c084015201359073ffffffffffffffffffffffffffffffffffffffff82168092036100b75760e0015290565b90601f7fffffffffffffffffffffffffffffffffffffffffffffffffffffffffffffffe0910116810190811067ffffffffffffffff82111761059157604052565b908151915f5b838110610ba6575050015f815290565b8060208092840101518185015201610b96565b7fffffffffffffffffffffffffffffffffffffffff000000000000000000000000610bf994938160289460601b16835260601b1660148201520190610b90565b90565b91939273ffffffffffffffffffffffffffffffffffffffff9081610c2a604094606087526060870190610a71565b9616602085015216910152565b73ffffffffffffffffffffffffffffffffffffffff80600154169116908114610c5d5750565b7fb1c99895000000000000000000000000000000000000000000000000000000005f5260045260245ffd5b73ffffffffffffffffffffffffffffffffffffffff5f5416803303610caa5750565b7fa7e1519e000000000000000000000000000000000000000000000000000000005f526004523360245260445ffdfe61018080604052346104f657612990803803809161001d8285610704565b833981016060828203126104f65781516001600160401b0381116104f657820191610100838303126104f6576040519061010082016001600160401b038111838210176106015760405283516001600160401b0381116104f65783610083918601610727565b825261009160208501610794565b906020830191825260408501519060038210156104f657604084019182526100bb60608701610794565b94606085019586526100cf608088016107a6565b6080860190815260a088015190916001600160401b0382116104f6576100f6918901610727565b9560a0860196875260e060c08901519860c08801998a5201519260018060a01b03841684036104f65760e0870193845264ffffffffff610144604061013d602085016107a6565b93016107a6565b975196511694519160038310156106f057519251975198519351604051986001600160a01b039182169664ffffffffff909516946101408b01939092909116908a84106001600160401b038511176106015760409384526001600160a01b039081168b5260208b01988952928a0191825260608a01938452979091166080890190815260a0890193845260c0890188905260e08901998a52610100890194855261012089019586525f80546001600160a01b03191689178155909764ffffffffff92917fbdd36143ee09de60bdefca70680e0f71189b2ed7acee364b53917ad433fdaf808180a35116608052519060038210156106f05760a09190915284516001600160a01b0390811660c052905164ffffffffff1660e052905161010052905116610120525180519093906001600160401b03811161060157600154600181811c911680156106e6575b60208210146105e357601f8111610683575b50602094601f8211600114610620579481929394955f92610615575b50508160011b915f199060031b1c1916176001555b518051906001600160401b03821161060157600354600181811c911680156105f7575b60208210146105e357601f8111610580575b50602090601f83116001146105185760209392915f918361050d575b50508160011b915f199060031b1c1916176003555b51915160405163111b863560e31b81525f60048201526001600160a01b0391821660248201529283916044918391165afa908115610502575f916104cc575b50600455466101405260405160208101907f8cad95687ba82c2ce50e74f7b754645e5117c3a5bec8151c0726d5857980a86682527f13cd784591b49af6fc220be53013eaddf1dc15399ca43850d206ea319aca08216040820152466060820152306080820152608081526103ec60a082610704565b519020610160526040516121d590816107bb823960805181818161095e0152611798015260a0518181816103750152818161047d01528181610cd00152818161102f0152611362015260c0518181816102dd0152818161031d0152818161079501528181610aa901528181610dbf015281816117ce0152611d41015260e051818181610708015281816112ca015281816116ed0152611b42015261010051818181610b0201526119770152610120518181816108ff015281816111440152818161122f0152611bef01526101405181611dc601526101605181611dec0152f35b90506020813d6020116104fa575b816104e760209383610704565b810103126104f657515f610377565b5f80fd5b3d91506104da565b6040513d5f823e3d90fd5b015190505f80610323565b90601f1983169160035f52815f20925f5b8181106105685750916001939185602097969410610550575b505050811b01600355610338565b01515f1960f88460031b161c191690555f8080610542565b92936020600181928786015181550195019301610529565b60035f527fc2575a0e9e593c00f959f8c92f12db2869c3395a3b0502d05e2516446f71f85b601f840160051c810191602085106105d9575b601f0160051c01905b8181106105ce5750610307565b5f81556001016105c1565b90915081906105b8565b634e487b7160e01b5f52602260045260245ffd5b90607f16906102f5565b634e487b7160e01b5f52604160045260245ffd5b015190505f806102bd565b601f1982169560015f52805f20915f5b88811061066b57508360019596979810610653575b505050811b016001556102d2565b01515f1960f88460031b161c191690555f8080610645565b91926020600181928685015181550194019201610630565b60015f527fb10e2d527612073b26eecdfd717e6a320cf44b4afac2b0732d9fcbe2b7fa0cf6601f830160051c810191602084106106dc575b601f0160051c01905b8181106106d157506102a1565b5f81556001016106c4565b90915081906106bb565b90607f169061028f565b634e487b7160e01b5f52602160045260245ffd5b601f909101601f19168101906001600160401b0382119082101761060157604052565b81601f820112156104f6578051906001600160401b038211610601576040519261075b601f8401601f191660200185610704565b828452602083830101116104f6575f5b82811061077f57505060205f918301015290565b8060208092840101518282870101520161076b565b519064ffffffffff821682036104f657565b51906001600160a01b03821682036104f65756fe60806040526004361015610011575f80fd5b5f3560e01c80630724fda9146113bc5780630854a79c146113525780631686c909146111b05780632074358314610f785780632481a13a14610e375780633a12a5bc14610d455780633f31ae3f14610cc157806349fc73dd14610b605780634e0bb8cc14610b2557806351e75e8b14610acd5780635f82c67e14610a5f5780637423649b14610a2657806375829def146109825780637ca3944d1461092357806382bfefc8146108b557806382d72f7f146108735780638ec688691461076457806390e64d131461072c578063bb4b5734146106cd578063cada25c214610677578063ce51650714610619578063e74f822d146103d4578063eb8cd77514610345578063f5770b1f146101cb578063f698da251461018b5763f851a44014610137575f80fd5b34610187575f7ffffffffffffffffffffffffffffffffffffffffffffffffffffffffffffffffc36011261018757602073ffffffffffffffffffffffffffffffffffffffff5f5416604051908152f35b5f80fd5b34610187575f7ffffffffffffffffffffffffffffffffffffffffffffffffffffffffffffffffc3601126101875760206101c3611dc3565b604051908152f35b346101875760207ffffffffffffffffffffffffffffffffffffffffffffffffffffffffffffffffc36011261018757610202611560565b73ffffffffffffffffffffffffffffffffffffffff5f54168033141580610305575b61029c575073ffffffffffffffffffffffffffffffffffffffff80610247611cdf565b921691827fffffffffffffffffffffffff0000000000000000000000000000000000000000600654161760065516337fe12891ebe30d5f5d47856103adbbd7804332e875271e2903e5dd759badf2f42d5f80a4005b7f153cfb83000000000000000000000000000000000000000000000000000000005f523360045260245273ffffffffffffffffffffffffffffffffffffffff7f00000000000000000000000000000000000000000000000000000000000000001660445260645ffd5b5073ffffffffffffffffffffffffffffffffffffffff7f000000000000000000000000000000000000000000000000000000000000000016331415610224565b34610187575f7ffffffffffffffffffffffffffffffffffffffffffffffffffffffffffffffffc360112610187577f000000000000000000000000000000000000000000000000000000000000000060405160038210156103a7576020918152f35b7f4e487b71000000000000000000000000000000000000000000000000000000005f52602160045260245ffd5b60c07ffffffffffffffffffffffffffffffffffffffffffffffffffffffffffffffffc36011261018757600435610409611583565b604435906fffffffffffffffffffffffffffffffff82168203610187576064359264ffffffffff84168094036101875760843567ffffffffffffffff8111610187576104599036906004016115e8565b9060a43567ffffffffffffffff81116101875761047a9036906004016116a9565b907f000000000000000000000000000000000000000000000000000000000000000060038110156103a757600181036105e3575073ffffffffffffffffffffffffffffffffffffffff8616156105bb576104d2611cdf565b73ffffffffffffffffffffffffffffffffffffffff8116156105935742891061056357916105529161055a9594936105619a60405160208101917f219f32e1e2ac61bb8bf48019aeabd1a04366f69f4d9a4e73b315e56deb50c0438352336040830152606082015260608152610549608082611495565b51902090611f07565b85338561178b565b3390611b99565b005b887f820dbdf9000000000000000000000000000000000000000000000000000000005f526004524260245260445ffd5b7f91cce831000000000000000000000000000000000000000000000000000000005f5260045ffd5b7f036fcd52000000000000000000000000000000000000000000000000000000005f5260045ffd5b610614907fcb0b66a3000000000000000000000000000000000000000000000000000000005f5260016004526116d7565b60445ffd5b346101875760207ffffffffffffffffffffffffffffffffffffffffffffffffffffffffffffffffc36011261018757602061066d60043560ff6001918060081c5f526005602052161b60405f205416151590565b6040519015158152f35b34610187575f7ffffffffffffffffffffffffffffffffffffffffffffffffffffffffffffffffc3601126101875760206106af611cdf565b73ffffffffffffffffffffffffffffffffffffffff60405191168152f35b34610187575f7ffffffffffffffffffffffffffffffffffffffffffffffffffffffffffffffffc36011261018757602060405164ffffffffff7f0000000000000000000000000000000000000000000000000000000000000000168152f35b34610187575f7ffffffffffffffffffffffffffffffffffffffffffffffffffffffffffffffffc36011261018757602061066d6116e5565b346101875760207ffffffffffffffffffffffffffffffffffffffffffffffffffffffffffffffffc360112610187577f000000000000000000000000000000000000000000000000000000000000000073ffffffffffffffffffffffffffffffffffffffff16600435338203610843576004548082101561081557816040917fcafa56d109bc30839f1bad76f9d17abcbd6c936490d4ec0fbc6d331bf89f92af9360045582519182526020820152a2005b7f173c9c82000000000000000000000000000000000000000000000000000000005f5260045260245260445ffd5b507fead08252000000000000000000000000000000000000000000000000000000005f526004523360245260445ffd5b34610187575f7ffffffffffffffffffffffffffffffffffffffffffffffffffffffffffffffffc36011261018757602064ffffffffff60025416604051908152f35b34610187575f7ffffffffffffffffffffffffffffffffffffffffffffffffffffffffffffffffc36011261018757602060405173ffffffffffffffffffffffffffffffffffffffff7f0000000000000000000000000000000000000000000000000000000000000000168152f35b34610187575f7ffffffffffffffffffffffffffffffffffffffffffffffffffffffffffffffffc36011261018757602060405164ffffffffff7f0000000000000000000000000000000000000000000000000000000000000000168152f35b346101875760207ffffffffffffffffffffffffffffffffffffffffffffffffffffffffffffffffc3601126101875773ffffffffffffffffffffffffffffffffffffffff6109ce611560565b6109d6611c2f565b16807fffffffffffffffffffffffff00000000000000000000000000000000000000005f5416175f55337fbdd36143ee09de60bdefca70680e0f71189b2ed7acee364b53917ad433fdaf805f80a3005b34610187575f7ffffffffffffffffffffffffffffffffffffffffffffffffffffffffffffffffc36011261018757602060405160018152f35b34610187575f7ffffffffffffffffffffffffffffffffffffffffffffffffffffffffffffffffc36011261018757602060405173ffffffffffffffffffffffffffffffffffffffff7f0000000000000000000000000000000000000000000000000000000000000000168152f35b34610187575f7ffffffffffffffffffffffffffffffffffffffffffffffffffffffffffffffffc3601126101875760206040517f00000000000000000000000000000000000000000000000000000000000000008152f35b34610187575f7ffffffffffffffffffffffffffffffffffffffffffffffffffffffffffffffffc360112610187576020600454604051908152f35b34610187575f7ffffffffffffffffffffffffffffffffffffffffffffffffffffffffffffffffc360112610187576040515f6003548060011c90600181168015610cb7575b602083108114610c8a57828552908115610c485750600114610bea575b610be683610bd281850382611495565b604051918291602083526020830190611503565b0390f35b60035f9081527fc2575a0e9e593c00f959f8c92f12db2869c3395a3b0502d05e2516446f71f85b939250905b808210610c2e57509091508101602001610bd2610bc2565b919260018160209254838588010152019101909291610c16565b7fffffffffffffffffffffffffffffffffffffffffffffffffffffffffffffff001660208086019190915291151560051b84019091019150610bd29050610bc2565b7f4e487b71000000000000000000000000000000000000000000000000000000005f52602260045260245ffd5b91607f1691610ba5565b610cca36611619565b909291927f000000000000000000000000000000000000000000000000000000000000000060038110156103a75780610d15575093610d1083926105619686858561178b565b611b99565b610614907fcb0b66a3000000000000000000000000000000000000000000000000000000005f525f6004526116d7565b34610187575f7ffffffffffffffffffffffffffffffffffffffffffffffffffffffffffffffffc36011261018757600454604051907fb0fa59e8000000000000000000000000000000000000000000000000000000008252600482015260208160248173ffffffffffffffffffffffffffffffffffffffff7f0000000000000000000000000000000000000000000000000000000000000000165afa8015610e2c575f90610df9575b602090604051908152f35b506020813d602011610e24575b81610e1360209383611495565b810103126101875760209051610dee565b3d9150610e06565b6040513d5f823e3d90fd5b346101875760607ffffffffffffffffffffffffffffffffffffffffffffffffffffffffffffffffc3601126101875760043573ffffffffffffffffffffffffffffffffffffffff811680820361018757610e8f6115c9565b9173ffffffffffffffffffffffffffffffffffffffff610ead6115a6565b169283156105bb576fffffffffffffffffffffffffffffffff16908115610f5057610f2290604051907f23b872dd00000000000000000000000000000000000000000000000000000000602083015233602483015285604483015283606483015260648252610f1d608483611495565b611e80565b6040519081527f5c3fcf40f5e26ff8e74068a6d3b372d00de14949e859fa20fb3616b2c7128b9b60203392a4005b7f642ef277000000000000000000000000000000000000000000000000000000005f5260045ffd5b60e07ffffffffffffffffffffffffffffffffffffffffffffffffffffffffffffffffc36011261018757600435610fad611583565b90610fb66115a6565b91606435926fffffffffffffffffffffffffffffffff841690818503610187576084359464ffffffffff86168096036101875760a43567ffffffffffffffff8111610187576110099036906004016115e8565b9160c43567ffffffffffffffff81116101875761102a9036906004016116a9565b9690987f000000000000000000000000000000000000000000000000000000000000000060038110156103a75780610d15575073ffffffffffffffffffffffffffffffffffffffff86169788156105bb576110f9906040519b8c8c604060208301927fb0f12a3a6931229a836eaab08aeb1ebe2ddebad3bfd83f30d39f6c4a3b0f4f818452015273ffffffffffffffffffffffffffffffffffffffff86169d8e60608201528c60808201528b60a08201528560c082015260c081526110f060e082611495565b51902085611f07565b64ffffffffff421690818111611182578a7f2fb6e76f6c88eb31f43c986c9c81d4bb10dc0a4c3e9b3fe6e8664124fa32698060808c8c8c611168818e6111428f8f8f8f8a61178b565b7f0000000000000000000000000000000000000000000000000000000000000000611c80565b6040519283526020830152604082015260016060820152a2005b7f663ab84b000000000000000000000000000000000000000000000000000000005f5260045260245260445ffd5b346101875760407ffffffffffffffffffffffffffffffffffffffffffffffffffffffffffffffffc360112610187576111e7611560565b6111ef6115c9565b6111f7611c2f565b64ffffffffff6002541680151580611304575b806112f5575b61129b57506fffffffffffffffffffffffffffffffff169061125382827f0000000000000000000000000000000000000000000000000000000000000000611c80565b7f2e9d425ba8b27655048400b366d7b6a1f7180ebdb088e06bb7389704860ffe1f602073ffffffffffffffffffffffffffffffffffffffff805f5416936040519586521693a3005b7fe2e40a0c000000000000000000000000000000000000000000000000000000005f524260045264ffffffffff7f00000000000000000000000000000000000000000000000000000000000000001660245260445260645ffd5b506112fe6116e5565b15611210565b5062093a80810164ffffffffff81116113255764ffffffffff16421161120a565b7f4e487b71000000000000000000000000000000000000000000000000000000005f52601160045260245ffd5b61135b36611619565b93909291927f000000000000000000000000000000000000000000000000000000000000000060038110156103a75780610d15575073ffffffffffffffffffffffffffffffffffffffff8316156105bb576105619461055a9185338561178b565b34610187575f7ffffffffffffffffffffffffffffffffffffffffffffffffffffffffffffffffc360112610187576040515f6001548060011c9060018116801561148b575b602083108114610c8a57828552908115610c48575060011461142d57610be683610bd281850382611495565b60015f9081527fb10e2d527612073b26eecdfd717e6a320cf44b4afac2b0732d9fcbe2b7fa0cf6939250905b80821061147157509091508101602001610bd2610bc2565b919260018160209254838588010152019101909291611459565b91607f1691611401565b90601f7fffffffffffffffffffffffffffffffffffffffffffffffffffffffffffffffe0910116810190811067ffffffffffffffff8211176114d657604052565b7f4e487b71000000000000000000000000000000000000000000000000000000005f52604160045260245ffd5b91908251928382525f5b84811061154b5750507fffffffffffffffffffffffffffffffffffffffffffffffffffffffffffffffe0601f845f6020809697860101520116010190565b8060208092840101518282860101520161150d565b6004359073ffffffffffffffffffffffffffffffffffffffff8216820361018757565b6024359073ffffffffffffffffffffffffffffffffffffffff8216820361018757565b6044359073ffffffffffffffffffffffffffffffffffffffff8216820361018757565b602435906fffffffffffffffffffffffffffffffff8216820361018757565b9181601f840112156101875782359167ffffffffffffffff8311610187576020808501948460051b01011161018757565b9060807ffffffffffffffffffffffffffffffffffffffffffffffffffffffffffffffffc830112610187576004359160243573ffffffffffffffffffffffffffffffffffffffff8116810361018757916044356fffffffffffffffffffffffffffffffff8116810361018757916064359067ffffffffffffffff8211610187576116a5916004016115e8565b9091565b9181601f840112156101875782359167ffffffffffffffff8311610187576020838186019501011161018757565b60038110156103a757602452565b64ffffffffff7f000000000000000000000000000000000000000000000000000000000000000016801515908161171a575090565b905042101590565b67ffffffffffffffff81116114d657601f017fffffffffffffffffffffffffffffffffffffffffffffffffffffffffffffffe01660200190565b3d15611786573d9061176d82611722565b9161177b6040519384611495565b82523d5f602084013e565b606090565b939491909264ffffffffff7f000000000000000000000000000000000000000000000000000000000000000016428111611b6a57506117c86116e5565b611b13577f00000000000000000000000000000000000000000000000000000000000000009373ffffffffffffffffffffffffffffffffffffffff851692600454604051907fb0fa59e80000000000000000000000000000000000000000000000000000000082526004820152602081602481885afa908115610e2c575f91611ae1575b50803410611ab257506118768760ff6001918060081c5f526005602052161b60405f205416151590565b611a86576fffffffffffffffffffffffffffffffff6040519173ffffffffffffffffffffffffffffffffffffffff60208401948a8652166040840152166060820152606081526118c7608082611495565b51902060405160208101918252602081526118e3604082611495565b5190209067ffffffffffffffff87116114d6578660051b6040519761190b602083018a611495565b8852602088019082019136831161018757905b828210611a7657505050925f935b865185101561196e5760208560051b88010151908181105f1461195d575f52602052600160405f205b94019361192c565b905f52602052600160405f20611955565b919492955092507f000000000000000000000000000000000000000000000000000000000000000003611a4e5760025464ffffffffff811615611a1a575b508060081c5f526005602052600160ff60405f2092161b8154179055346119d1575050565b5f8080809334905af16119e261175c565b50156119eb5750565b7fe57d366c000000000000000000000000000000000000000000000000000000005f526004523460245260445ffd5b7fffffffffffffffffffffffffffffffffffffffffffffffffffffff0000000000164264ffffffffff16176002555f6119ac565b7fb4f06787000000000000000000000000000000000000000000000000000000005f5260045ffd5b813581526020918201910161191e565b867f02bf1aba000000000000000000000000000000000000000000000000000000005f5260045260245ffd5b7fa164c6b4000000000000000000000000000000000000000000000000000000005f523460045260245260445ffd5b90506020813d602011611b0b575b81611afc60209383611495565b8101031261018757515f61184c565b3d9150611aef565b7fdf4bae05000000000000000000000000000000000000000000000000000000005f524260045264ffffffffff7f00000000000000000000000000000000000000000000000000000000000000001660245260445ffd5b7f14659648000000000000000000000000000000000000000000000000000000005f524260045260245260445ffd5b9260809173ffffffffffffffffffffffffffffffffffffffff7f2fb6e76f6c88eb31f43c986c9c81d4bb10dc0a4c3e9b3fe6e8664124fa326980946fffffffffffffffffffffffffffffffff829416611c1381837f0000000000000000000000000000000000000000000000000000000000000000611c80565b60405197885260208801521660408601525f60608601521692a2565b73ffffffffffffffffffffffffffffffffffffffff5f5416338103611c515750565b7fc6cce6a4000000000000000000000000000000000000000000000000000000005f526004523360245260445ffd5b611cdd9273ffffffffffffffffffffffffffffffffffffffff604051937fa9059cbb000000000000000000000000000000000000000000000000000000006020860152166024840152604483015260448252610f1d606483611495565b565b73ffffffffffffffffffffffffffffffffffffffff6006541680611dc057506040517fcada25c200000000000000000000000000000000000000000000000000000000815260208160048173ffffffffffffffffffffffffffffffffffffffff7f0000000000000000000000000000000000000000000000000000000000000000165afa908115610e2c575f91611d74575090565b90506020813d602011611db8575b81611d8f60209383611495565b81010312610187575173ffffffffffffffffffffffffffffffffffffffff811681036101875790565b3d9150611d82565b90565b467f000000000000000000000000000000000000000000000000000000000000000003611e0e577f000000000000000000000000000000000000000000000000000000000000000090565b60405160208101907f8cad95687ba82c2ce50e74f7b754645e5117c3a5bec8151c0726d5857980a86682527f13cd784591b49af6fc220be53013eaddf1dc15399ca43850d206ea319aca0821604082015246606082015230608082015260808152611e7a60a082611495565b51902090565b905f602091828151910182855af115610e2c575f513d611efe575073ffffffffffffffffffffffffffffffffffffffff81163b155b611ebc5750565b73ffffffffffffffffffffffffffffffffffffffff907f5274afe7000000000000000000000000000000000000000000000000000000005f521660045260245ffd5b60011415611eb5565b90604290939293611f16611dc3565b90604051917f19010000000000000000000000000000000000000000000000000000000000008352600283015260228201522090611f5383611722565b92611f616040519485611495565b8084523681860111610187576020815f92611f83978388013785010152611fb2565b15611f8a57565b7f45aa7fec000000000000000000000000000000000000000000000000000000005f5260045ffd5b9190823b611ffa5790611fc4916120d6565b5060048110156103a757159182611fda57505090565b73ffffffffffffffffffffffffffffffffffffffff919250811691161490565b915f92612049612075859460405192839160208301957f1626ba7e0000000000000000000000000000000000000000000000000000000087526024840152604060448401526064830190611503565b037fffffffffffffffffffffffffffffffffffffffffffffffffffffffffffffffe08101835282611495565b51915afa61208161175c565b816120c8575b81612090575090565b905060208180518101031261018757602001517f1626ba7e000000000000000000000000000000000000000000000000000000001490565b905060208151101590612087565b8151919060418303612106576120ff9250602082015190606060408401519301515f1a90612110565b9192909190565b50505f9160029190565b91907f7fffffffffffffffffffffffffffffff5d576e7357a4501ddfe92f46681b20a08411612194579160209360809260ff5f9560405194855216868401526040830152606082015282805260015afa15610e2c575f5173ffffffffffffffffffffffffffffffffffffffff81161561218a57905f905f90565b505f906001905f90565b5050505f916003919056fea2646970667358221220d8c3bbd1352f65c06e41c631fda9421b4bdbf54b066d2d9f61e671a5d2b8280964736f6c634300081d0033a2646970667358221220b8973fe879a17eab1f92d0294a9e12735bf7d419589824813a8f9ddb432006a164736f6c634300081d0033",
    "linkReferences": {}
  },
  "methodIdentifiers": {
    "comptroller()": "5fe3b567",
    "computeMerkleInstant(address,(string,uint40,uint8,uint40,address,string,bytes32,address))": "bf4aa528",
    "createMerkleInstant((string,uint40,uint8,uint40,address,string,bytes32,address),uint256,uint256)": "106dc4a0",
    "nativeToken()": "e1758bd8",
    "setComptroller(address)": "8bad38dd",
    "setNativeToken(address)": "6da1e102",
    "transferFeesToComptroller()": "78f82ce7"
  },
  "id": 102
}