{
  "abi": [
    {
      "type": "constructor",
      "inputs": [
        {
          "name": "initialComptroller",
          "type": "address",
          "internalType": "address"
        },
        {
          "name": "initialNFTDescriptor",
          "type": "address",
          "internalType": "address"
        }
      ],
      "stateMutability": "nonpayable"
    },
    {
      "type": "function",
      "name": "adjustRatePerSecond",
      "inputs": [
        {
          "name": "streamId",
          "type": "uint256",
          "internalType": "uint256"
        },
        {
          "name": "newRatePerSecond",
          "type": "uint128",
          "internalType": "UD21x18"
        }
      ],
      "outputs": [],
      "stateMutability": "payable"
    },
    {
      "type": "function",
      "name": "aggregateAmount",
      "inputs": [
        {
          "name": "token",
          "type": "address",
          "internalType": "contract IERC20"
        }
      ],
      "outputs": [
        {
          "name": "amount",
          "type": "uint256",
          "internalType": "uint256"
        }
      ],
      "stateMutability": "view"
    },
    {
      "type": "function",
      "name": "approve",
      "inputs": [
        {
          "name": "to",
          "type": "address",
          "internalType": "address"
        },
        {
          "name": "tokenId",
          "type": "uint256",
          "internalType": "uint256"
        }
      ],
      "outputs": [],
      "stateMutability": "nonpayable"
    },
    {
      "type": "function",
      "name": "balanceOf",
      "inputs": [
        {
          "name": "owner",
          "type": "address",
          "internalType": "address"
        }
      ],
      "outputs": [
        {
          "name": "",
          "type": "uint256",
          "internalType": "uint256"
        }
      ],
      "stateMutability": "view"
    },
    {
      "type": "function",
      "name": "batch",
      "inputs": [
        {
          "name": "calls",
          "type": "bytes[]",
          "internalType": "bytes[]"
        }
      ],
      "outputs": [
        {
          "name": "results",
          "type": "bytes[]",
          "internalType": "bytes[]"
        }
      ],
      "stateMutability": "payable"
    },
    {
      "type": "function",
      "name": "calculateMinFeeWei",
      "inputs": [
        {
          "name": "streamId",
          "type": "uint256",
          "internalType": "uint256"
        }
      ],
      "outputs": [
        {
          "name": "minFeeWei",
          "type": "uint256",
          "internalType": "uint256"
        }
      ],
      "stateMutability": "view"
    },
    {
      "type": "function",
      "name": "comptroller",
      "inputs": [],
      "outputs": [
        {
          "name": "",
          "type": "address",
          "internalType": "contract ISablierComptroller"
        }
      ],
      "stateMutability": "view"
    },
    {
      "type": "function",
      "name": "coveredDebtOf",
      "inputs": [
        {
          "name": "streamId",
          "type": "uint256",
          "internalType": "uint256"
        }
      ],
      "outputs": [
        {
          "name": "coveredDebt",
          "type": "uint128",
          "internalType": "uint128"
        }
      ],
      "stateMutability": "view"
    },
    {
      "type": "function",
      "name": "create",
      "inputs": [
        {
          "name": "sender",
          "type": "address",
          "internalType": "address"
        },
        {
          "name": "recipient",
          "type": "address",
          "internalType": "address"
        },
        {
          "name": "ratePerSecond",
          "type": "uint128",
          "internalType": "UD21x18"
        },
        {
          "name": "startTime",
          "type": "uint40",
          "internalType": "uint40"
        },
        {
          "name": "token",
          "type": "address",
          "internalType": "contract IERC20"
        },
        {
          "name": "transferable",
          "type": "bool",
          "internalType": "bool"
        }
      ],
      "outputs": [
        {
          "name": "streamId",
          "type": "uint256",
          "internalType": "uint256"
        }
      ],
      "stateMutability": "payable"
    },
    {
      "type": "function",
      "name": "createAndDeposit",
      "inputs": [
        {
          "name": "sender",
          "type": "address",
          "internalType": "address"
        },
        {
          "name": "recipient",
          "type": "address",
          "internalType": "address"
        },
        {
          "name": "ratePerSecond",
          "type": "uint128",
          "internalType": "UD21x18"
        },
        {
          "name": "startTime",
          "type": "uint40",
          "internalType": "uint40"
        },
        {
          "name": "token",
          "type": "address",
          "internalType": "contract IERC20"
        },
        {
          "name": "transferable",
          "type": "bool",
          "internalType": "bool"
        },
        {
          "name": "amount",
          "type": "uint128",
          "internalType": "uint128"
        }
      ],
      "outputs": [
        {
          "name": "streamId",
          "type": "uint256",
          "internalType": "uint256"
        }
      ],
      "stateMutability": "payable"
    },
    {
      "type": "function",
      "name": "depletionTimeOf",
      "inputs": [
        {
          "name": "streamId",
          "type": "uint256",
          "internalType": "uint256"
        }
      ],
      "outputs": [
        {
          "name": "depletionTime",
          "type": "uint256",
          "internalType": "uint256"
        }
      ],
      "stateMutability": "view"
    },
    {
      "type": "function",
      "name": "deposit",
      "inputs": [
        {
          "name": "streamId",
          "type": "uint256",
          "internalType": "uint256"
        },
        {
          "name": "amount",
          "type": "uint128",
          "internalType": "uint128"
        },
        {
          "name": "sender",
          "type": "address",
          "internalType": "address"
        },
        {
          "name": "recipient",
          "type": "address",
          "internalType": "address"
        }
      ],
      "outputs": [],
      "stateMutability": "payable"
    },
    {
      "type": "function",
      "name": "depositAndPause",
      "inputs": [
        {
          "name": "streamId",
          "type": "uint256",
          "internalType": "uint256"
        },
        {
          "name": "amount",
          "type": "uint128",
          "internalType": "uint128"
        }
      ],
      "outputs": [],
      "stateMutability": "payable"
    },
    {
      "type": "function",
      "name": "getApproved",
      "inputs": [
        {
          "name": "tokenId",
          "type": "uint256",
          "internalType": "uint256"
        }
      ],
      "outputs": [
        {
          "name": "",
          "type": "address",
          "internalType": "address"
        }
      ],
      "stateMutability": "view"
    },
    {
      "type": "function",
      "name": "getBalance",
      "inputs": [
        {
          "name": "streamId",
          "type": "uint256",
          "internalType": "uint256"
        }
      ],
      "outputs": [
        {
          "name": "balance",
          "type": "uint128",
          "internalType": "uint128"
        }
      ],
      "stateMutability": "view"
    },
    {
      "type": "function",
      "name": "getRatePerSecond",
      "inputs": [
        {
          "name": "streamId",
          "type": "uint256",
          "internalType": "uint256"
        }
      ],
      "outputs": [
        {
          "name": "ratePerSecond",
          "type": "uint128",
          "internalType": "UD21x18"
        }
      ],
      "stateMutability": "view"
    },
    {
      "type": "function",
      "name": "getRecipient",
      "inputs": [
        {
          "name": "streamId",
          "type": "uint256",
          "internalType": "uint256"
        }
      ],
      "outputs": [
        {
          "name": "recipient",
          "type": "address",
          "internalType": "address"
        }
      ],
      "stateMutability": "view"
    },
    {
      "type": "function",
      "name": "getSender",
      "inputs": [
        {
          "name": "streamId",
          "type": "uint256",
          "internalType": "uint256"
        }
      ],
      "outputs": [
        {
          "name": "sender",
          "type": "address",
          "internalType": "address"
        }
      ],
      "stateMutability": "view"
    },
    {
      "type": "function",
      "name": "getSnapshotDebtScaled",
      "inputs": [
        {
          "name": "streamId",
          "type": "uint256",
          "internalType": "uint256"
        }
      ],
      "outputs": [
        {
          "name": "snapshotDebtScaled",
          "type": "uint256",
          "internalType": "uint256"
        }
      ],
      "stateMutability": "view"
    },
    {
      "type": "function",
      "name": "getSnapshotTime",
      "inputs": [
        {
          "name": "streamId",
          "type": "uint256",
          "internalType": "uint256"
        }
      ],
      "outputs": [
        {
          "name": "snapshotTime",
          "type": "uint40",
          "internalType": "uint40"
        }
      ],
      "stateMutability": "view"
    },
    {
      "type": "function",
      "name": "getStream",
      "inputs": [
        {
          "name": "streamId",
          "type": "uint256",
          "internalType": "uint256"
        }
      ],
      "outputs": [
        {
          "name": "stream",
          "type": "tuple",
          "internalType": "struct Flow.Stream",
          "components": [
            {
              "name": "balance",
              "type": "uint128",
              "internalType": "uint128"
            },
            {
              "name": "ratePerSecond",
              "type": "uint128",
              "internalType": "UD21x18"
            },
            {
              "name": "sender",
              "type": "address",
              "internalType": "address"
            },
            {
              "name": "snapshotTime",
              "type": "uint40",
              "internalType": "uint40"
            },
            {
              "name": "isStream",
              "type": "bool",
              "internalType": "bool"
            },
            {
              "name": "isTransferable",
              "type": "bool",
              "internalType": "bool"
            },
            {
              "name": "isVoided",
              "type": "bool",
              "internalType": "bool"
            },
            {
              "name": "token",
              "type": "address",
              "internalType": "contract IERC20"
            },
            {
              "name": "tokenDecimals",
              "type": "uint8",
              "internalType": "uint8"
            },
            {
              "name": "snapshotDebtScaled",
              "type": "uint256",
              "internalType": "uint256"
            }
          ]
        }
      ],
      "stateMutability": "view"
    },
    {
      "type": "function",
      "name": "getToken",
      "inputs": [
        {
          "name": "streamId",
          "type": "uint256",
          "internalType": "uint256"
        }
      ],
      "outputs": [
        {
          "name": "token",
          "type": "address",
          "internalType": "contract IERC20"
        }
      ],
      "stateMutability": "view"
    },
    {
      "type": "function",
      "name": "getTokenDecimals",
      "inputs": [
        {
          "name": "streamId",
          "type": "uint256",
          "internalType": "uint256"
        }
      ],
      "outputs": [
        {
          "name": "tokenDecimals",
          "type": "uint8",
          "internalType": "uint8"
        }
      ],
      "stateMutability": "view"
    },
    {
      "type": "function",
      "name": "isApprovedForAll",
      "inputs": [
        {
          "name": "owner",
          "type": "address",
          "internalType": "address"
        },
        {
          "name": "operator",
          "type": "address",
          "internalType": "address"
        }
      ],
      "outputs": [
        {
          "name": "",
          "type": "bool",
          "internalType": "bool"
        }
      ],
      "stateMutability": "view"
    },
    {
      "type": "function",
      "name": "isStream",
      "inputs": [
        {
          "name": "streamId",
          "type": "uint256",
          "internalType": "uint256"
        }
      ],
      "outputs": [
        {
          "name": "result",
          "type": "bool",
          "internalType": "bool"
        }
      ],
      "stateMutability": "view"
    },
    {
      "type": "function",
      "name": "isTransferable",
      "inputs": [
        {
          "name": "streamId",
          "type": "uint256",
          "internalType": "uint256"
        }
      ],
      "outputs": [
        {
          "name": "result",
          "type": "bool",
          "internalType": "bool"
        }
      ],
      "stateMutability": "view"
    },
    {
      "type": "function",
      "name": "isVoided",
      "inputs": [
        {
          "name": "streamId",
          "type": "uint256",
          "internalType": "uint256"
        }
      ],
      "outputs": [
        {
          "name": "result",
          "type": "bool",
          "internalType": "bool"
        }
      ],
      "stateMutability": "view"
    },
    {
      "type": "function",
      "name": "name",
      "inputs": [],
      "outputs": [
        {
          "name": "",
          "type": "string",
          "internalType": "string"
        }
      ],
      "stateMutability": "view"
    },
    {
      "type": "function",
      "name": "nativeToken",
      "inputs": [],
      "outputs": [
        {
          "name": "",
          "type": "address",
          "internalType": "address"
        }
      ],
      "stateMutability": "view"
    },
    {
      "type": "function",
      "name": "nextStreamId",
      "inputs": [],
      "outputs": [
        {
          "name": "",
          "type": "uint256",
          "internalType": "uint256"
        }
      ],
      "stateMutability": "view"
    },
    {
      "type": "function",
      "name": "nftDescriptor",
      "inputs": [],
      "outputs": [
        {
          "name": "",
          "type": "address",
          "internalType": "contract IFlowNFTDescriptor"
        }
      ],
      "stateMutability": "view"
    },
    {
      "type": "function",
      "name": "ongoingDebtScaledOf",
      "inputs": [
        {
          "name": "streamId",
          "type": "uint256",
          "internalType": "uint256"
        }
      ],
      "outputs": [
        {
          "name": "ongoingDebtScaled",
          "type": "uint256",
          "internalType": "uint256"
        }
      ],
      "stateMutability": "view"
    },
    {
      "type": "function",
      "name": "ownerOf",
      "inputs": [
        {
          "name": "tokenId",
          "type": "uint256",
          "internalType": "uint256"
        }
      ],
      "outputs": [
        {
          "name": "",
          "type": "address",
          "internalType": "address"
        }
      ],
      "stateMutability": "view"
    },
    {
      "type": "function",
      "name": "pause",
      "inputs": [
        {
          "name": "streamId",
          "type": "uint256",
          "internalType": "uint256"
        }
      ],
      "outputs": [],
      "stateMutability": "payable"
    },
    {
      "type": "function",
      "name": "recover",
      "inputs": [
        {
          "name": "token",
          "type": "address",
          "internalType": "contract IERC20"
        },
        {
          "name": "to",
          "type": "address",
          "internalType": "address"
        }
      ],
      "outputs": [],
      "stateMutability": "nonpayable"
    },
    {
      "type": "function",
      "name": "refund",
      "inputs": [
        {
          "name": "streamId",
          "type": "uint256",
          "internalType": "uint256"
        },
        {
          "name": "amount",
          "type": "uint128",
          "internalType": "uint128"
        }
      ],
      "outputs": [],
      "stateMutability": "payable"
    },
    {
      "type": "function",
      "name": "refundAndPause",
      "inputs": [
        {
          "name": "streamId",
          "type": "uint256",
          "internalType": "uint256"
        },
        {
          "name": "amount",
          "type": "uint128",
          "internalType": "uint128"
        }
      ],
      "outputs": [],
      "stateMutability": "payable"
    },
    {
      "type": "function",
      "name": "refundMax",
      "inputs": [
        {
          "name": "streamId",
          "type": "uint256",
          "internalType": "uint256"
        }
      ],
      "outputs": [
        {
          "name": "refundedAmount",
          "type": "uint128",
          "internalType": "uint128"
        }
      ],
      "stateMutability": "payable"
    },
    {
      "type": "function",
      "name": "refundableAmountOf",
      "inputs": [
        {
          "name": "streamId",
          "type": "uint256",
          "internalType": "uint256"
        }
      ],
      "outputs": [
        {
          "name": "refundableAmount",
          "type": "uint128",
          "internalType": "uint128"
        }
      ],
      "stateMutability": "view"
    },
    {
      "type": "function",
      "name": "restart",
      "inputs": [
        {
          "name": "streamId",
          "type": "uint256",
          "internalType": "uint256"
        },
        {
          "name": "ratePerSecond",
          "type": "uint128",
          "internalType": "UD21x18"
        }
      ],
      "outputs": [],
      "stateMutability": "payable"
    },
    {
      "type": "function",
      "name": "restartAndDeposit",
      "inputs": [
        {
          "name": "streamId",
          "type": "uint256",
          "internalType": "uint256"
        },
        {
          "name": "ratePerSecond",
          "type": "uint128",
          "internalType": "UD21x18"
        },
        {
          "name": "amount",
          "type": "uint128",
          "internalType": "uint128"
        }
      ],
      "outputs": [],
      "stateMutability": "payable"
    },
    {
      "type": "function",
      "name": "safeTransferFrom",
      "inputs": [
        {
          "name": "from",
          "type": "address",
          "internalType": "address"
        },
        {
          "name": "to",
          "type": "address",
          "internalType": "address"
        },
        {
          "name": "tokenId",
          "type": "uint256",
          "internalType": "uint256"
        }
      ],
      "outputs": [],
      "stateMutability": "nonpayable"
    },
    {
      "type": "function",
      "name": "safeTransferFrom",
      "inputs": [
        {
          "name": "from",
          "type": "address",
          "internalType": "address"
        },
        {
          "name": "to",
          "type": "address",
          "internalType": "address"
        },
        {
          "name": "tokenId",
          "type": "uint256",
          "internalType": "uint256"
        },
        {
          "name": "data",
          "type": "bytes",
          "internalType": "bytes"
        }
      ],
      "outputs": [],
      "stateMutability": "nonpayable"
    },
    {
      "type": "function",
      "name": "setApprovalForAll",
      "inputs": [
        {
          "name": "operator",
          "type": "address",
          "internalType": "address"
        },
        {
          "name": "approved",
          "type": "bool",
          "internalType": "bool"
        }
      ],
      "outputs": [],
      "stateMutability": "nonpayable"
    },
    {
      "type": "function",
      "name": "setComptroller",
      "inputs": [
        {
          "name": "newComptroller",
          "type": "address",
          "internalType": "contract ISablierComptroller"
        }
      ],
      "outputs": [],
      "stateMutability": "nonpayable"
    },
    {
      "type": "function",
      "name": "setNFTDescriptor",
      "inputs": [
        {
          "name": "newNFTDescriptor",
          "type": "address",
          "internalType": "contract IFlowNFTDescriptor"
        }
      ],
      "outputs": [],
      "stateMutability": "nonpayable"
    },
    {
      "type": "function",
      "name": "setNativeToken",
      "inputs": [
        {
          "name": "newNativeToken",
          "type": "address",
          "internalType": "address"
        }
      ],
      "outputs": [],
      "stateMutability": "nonpayable"
    },
    {
      "type": "function",
      "name": "statusOf",
      "inputs": [
        {
          "name": "streamId",
          "type": "uint256",
          "internalType": "uint256"
        }
      ],
      "outputs": [
        {
          "name": "status",
          "type": "uint8",
          "internalType": "enum Flow.Status"
        }
      ],
      "stateMutability": "view"
    },
    {
      "type": "function",
      "name": "supportsInterface",
      "inputs": [
        {
          "name": "interfaceId",
          "type": "bytes4",
          "internalType": "bytes4"
        }
      ],
      "outputs": [
        {
          "name": "",
          "type": "bool",
          "internalType": "bool"
        }
      ],
      "stateMutability": "view"
    },
    {
      "type": "function",
      "name": "symbol",
      "inputs": [],
      "outputs": [
        {
          "name": "",
          "type": "string",
          "internalType": "string"
        }
      ],
      "stateMutability": "view"
    },
    {
      "type": "function",
      "name": "tokenURI",
      "inputs": [
        {
          "name": "streamId",
          "type": "uint256",
          "internalType": "uint256"
        }
      ],
      "outputs": [
        {
          "name": "uri",
          "type": "string",
          "internalType": "string"
        }
      ],
      "stateMutability": "view"
    },
    {
      "type": "function",
      "name": "totalDebtOf",
      "inputs": [
        {
          "name": "streamId",
          "type": "uint256",
          "internalType": "uint256"
        }
      ],
      "outputs": [
        {
          "name": "totalDebt",
          "type": "uint256",
          "internalType": "uint256"
        }
      ],
      "stateMutability": "view"
    },
    {
      "type": "function",
      "name": "transferFeesToComptroller",
      "inputs": [],
      "outputs": [],
      "stateMutability": "nonpayable"
    },
    {
      "type": "function",
      "name": "transferFrom",
      "inputs": [
        {
          "name": "from",
          "type": "address",
          "internalType": "address"
        },
        {
          "name": "to",
          "type": "address",
          "internalType": "address"
        },
        {
          "name": "tokenId",
          "type": "uint256",
          "internalType": "uint256"
        }
      ],
      "outputs": [],
      "stateMutability": "nonpayable"
    },
    {
      "type": "function",
      "name": "transferFromPayable",
      "inputs": [
        {
          "name": "from",
          "type": "address",
          "internalType": "address"
        },
        {
          "name": "to",
          "type": "address",
          "internalType": "address"
        },
        {
          "name": "streamId",
          "type": "uint256",
          "internalType": "uint256"
        }
      ],
      "outputs": [],
      "stateMutability": "payable"
    },
    {
      "type": "function",
      "name": "transferTokens",
      "inputs": [
        {
          "name": "token",
          "type": "address",
          "internalType": "contract IERC20"
        },
        {
          "name": "to",
          "type": "address",
          "internalType": "address"
        },
        {
          "name": "amount",
          "type": "uint128",
          "internalType": "uint128"
        }
      ],
      "outputs": [],
      "stateMutability": "payable"
    },
    {
      "type": "function",
      "name": "uncoveredDebtOf",
      "inputs": [
        {
          "name": "streamId",
          "type": "uint256",
          "internalType": "uint256"
        }
      ],
      "outputs": [
        {
          "name": "uncoveredDebt",
          "type": "uint256",
          "internalType": "uint256"
        }
      ],
      "stateMutability": "view"
    },
    {
      "type": "function",
      "name": "void",
      "inputs": [
        {
          "name": "streamId",
          "type": "uint256",
          "internalType": "uint256"
        }
      ],
      "outputs": [],
      "stateMutability": "payable"
    },
    {
      "type": "function",
      "name": "withdraw",
      "inputs": [
        {
          "name": "streamId",
          "type": "uint256",
          "internalType": "uint256"
        },
        {
          "name": "to",
          "type": "address",
          "internalType": "address"
        },
        {
          "name": "amount",
          "type": "uint128",
          "internalType": "uint128"
        }
      ],
      "outputs": [],
      "stateMutability": "payable"
    },
    {
      "type": "function",
      "name": "withdrawMax",
      "inputs": [
        {
          "name": "streamId",
          "type": "uint256",
          "internalType": "uint256"
        },
        {
          "name": "to",
          "type": "address",
          "internalType": "address"
        }
      ],
      "outputs": [
        {
          "name": "withdrawnAmount",
          "type": "uint128",
          "internalType": "uint128"
        }
      ],
      "stateMutability": "payable"
    },
    {
      "type": "function",
      "name": "withdrawableAmountOf",
      "inputs": [
        {
          "name": "streamId",
          "type": "uint256",
          "internalType": "uint256"
        }
      ],
      "outputs": [
        {
          "name": "withdrawableAmount",
          "type": "uint128",
          "internalType": "uint128"
        }
      ],
      "stateMutability": "view"
    },
    {
      "type": "event",
      "name": "AdjustFlowStream",
      "inputs": [
        {
          "name": "streamId",
          "type": "uint256",
          "indexed": true,
          "internalType": "uint256"
        },
        {
          "name": "totalDebt",
          "type": "uint256",
          "indexed": false,
          "internalType": "uint256"
        },
        {
          "name": "oldRatePerSecond",
          "type": "uint128",
          "indexed": false,
          "internalType": "UD21x18"
        },
        {
          "name": "newRatePerSecond",
          "type": "uint128",
          "indexed": false,
          "internalType": "UD21x18"
        }
      ],
      "anonymous": false
    },
    {
      "type": "event",
      "name": "Approval",
      "inputs": [
        {
          "name": "owner",
          "type": "address",
          "indexed": true,
          "internalType": "address"
        },
        {
          "name": "approved",
          "type": "address",
          "indexed": true,
          "internalType": "address"
        },
        {
          "name": "tokenId",
          "type": "uint256",
          "indexed": true,
          "internalType": "uint256"
        }
      ],
      "anonymous": false
    },
    {
      "type": "event",
      "name": "ApprovalForAll",
      "inputs": [
        {
          "name": "owner",
          "type": "address",
          "indexed": true,
          "internalType": "address"
        },
        {
          "name": "operator",
          "type": "address",
          "indexed": true,
          "internalType": "address"
        },
        {
          "name": "approved",
          "type": "bool",
          "indexed": false,
          "internalType": "bool"
        }
      ],
      "anonymous": false
    },
    {
      "type": "event",
      "name": "BatchMetadataUpdate",
      "inputs": [
        {
          "name": "_fromTokenId",
          "type": "uint256",
          "indexed": false,
          "internalType": "uint256"
        },
        {
          "name": "_toTokenId",
          "type": "uint256",
          "indexed": false,
          "internalType": "uint256"
        }
      ],
      "anonymous": false
    },
    {
      "type": "event",
      "name": "CreateFlowStream",
      "inputs": [
        {
          "name": "streamId",
          "type": "uint256",
          "indexed": false,
          "internalType": "uint256"
        },
        {
          "name": "creator",
          "type": "address",
          "indexed": false,
          "internalType": "address"
        },
        {
          "name": "sender",
          "type": "address",
          "indexed": true,
          "internalType": "address"
        },
        {
          "name": "recipient",
          "type": "address",
          "indexed": true,
          "internalType": "address"
        },
        {
          "name": "ratePerSecond",
          "type": "uint128",
          "indexed": false,
          "internalType": "UD21x18"
        },
        {
          "name": "snapshotTime",
          "type": "uint40",
          "indexed": false,
          "internalType": "uint40"
        },
        {
          "name": "token",
          "type": "address",
          "indexed": true,
          "internalType": "contract IERC20"
        },
        {
          "name": "transferable",
          "type": "bool",
          "indexed": false,
          "internalType": "bool"
        }
      ],
      "anonymous": false
    },
    {
      "type": "event",
      "name": "DepositFlowStream",
      "inputs": [
        {
          "name": "streamId",
          "type": "uint256",
          "indexed": true,
          "internalType": "uint256"
        },
        {
          "name": "funder",
          "type": "address",
          "indexed": true,
          "internalType": "address"
        },
        {
          "name": "amount",
          "type": "uint128",
          "indexed": false,
          "internalType": "uint128"
        }
      ],
      "anonymous": false
    },
    {
      "type": "event",
      "name": "MetadataUpdate",
      "inputs": [
        {
          "name": "_tokenId",
          "type": "uint256",
          "indexed": false,
          "internalType": "uint256"
        }
      ],
      "anonymous": false
    },
    {
      "type": "event",
      "name": "PauseFlowStream",
      "inputs": [
        {
          "name": "streamId",
          "type": "uint256",
          "indexed": true,
          "internalType": "uint256"
        },
        {
          "name": "sender",
          "type": "address",
          "indexed": true,
          "internalType": "address"
        },
        {
          "name": "recipient",
          "type": "address",
          "indexed": true,
          "internalType": "address"
        },
        {
          "name": "totalDebt",
          "type": "uint256",
          "indexed": false,
          "internalType": "uint256"
        }
      ],
      "anonymous": false
    },
    {
      "type": "event",
      "name": "RefundFromFlowStream",
      "inputs": [
        {
          "name": "streamId",
          "type": "uint256",
          "indexed": true,
          "internalType": "uint256"
        },
        {
          "name": "sender",
          "type": "address",
          "indexed": true,
          "internalType": "address"
        },
        {
          "name": "amount",
          "type": "uint128",
          "indexed": false,
          "internalType": "uint128"
        }
      ],
      "anonymous": false
    },
    {
      "type": "event",
      "name": "RestartFlowStream",
      "inputs": [
        {
          "name": "streamId",
          "type": "uint256",
          "indexed": true,
          "internalType": "uint256"
        },
        {
          "name": "sender",
          "type": "address",
          "indexed": true,
          "internalType": "address"
        },
        {
          "name": "ratePerSecond",
          "type": "uint128",
          "indexed": false,
          "internalType": "UD21x18"
        }
      ],
      "anonymous": false
    },
    {
      "type": "event",
      "name": "SetComptroller",
      "inputs": [
        {
          "name": "oldComptroller",
          "type": "address",
          "indexed": false,
          "internalType": "contract ISablierComptroller"
        },
        {
          "name": "newComptroller",
          "type": "address",
          "indexed": false,
          "internalType": "contract ISablierComptroller"
        }
      ],
      "anonymous": false
    },
    {
      "type": "event",
      "name": "SetNFTDescriptor",
      "inputs": [
        {
          "name": "comptroller",
          "type": "address",
          "indexed": true,
          "internalType": "contract ISablierComptroller"
        },
        {
          "name": "oldNFTDescriptor",
          "type": "address",
          "indexed": false,
          "internalType": "contract IFlowNFTDescriptor"
        },
        {
          "name": "newNFTDescriptor",
          "type": "address",
          "indexed": false,
          "internalType": "contract IFlowNFTDescriptor"
        }
      ],
      "anonymous": false
    },
    {
      "type": "event",
      "name": "SetNativeToken",
      "inputs": [
        {
          "name": "comptroller",
          "type": "address",
          "indexed": true,
          "internalType": "contract ISablierComptroller"
        },
        {
          "name": "nativeToken",
          "type": "address",
          "indexed": false,
          "internalType": "address"
        }
      ],
      "anonymous": false
    },
    {
      "type": "event",
      "name": "Transfer",
      "inputs": [
        {
          "name": "from",
          "type": "address",
          "indexed": true,
          "internalType": "address"
        },
        {
          "name": "to",
          "type": "address",
          "indexed": true,
          "internalType": "address"
        },
        {
          "name": "tokenId",
          "type": "uint256",
          "indexed": true,
          "internalType": "uint256"
        }
      ],
      "anonymous": false
    },
    {
      "type": "event",
      "name": "TransferFeesToComptroller",
      "inputs": [
        {
          "name": "comptroller",
          "type": "address",
          "indexed": true,
          "internalType": "address"
        },
        {
          "name": "feeAmount",
          "type": "uint256",
          "indexed": false,
          "internalType": "uint256"
        }
      ],
      "anonymous": false
    },
    {
      "type": "event",
      "name": "VoidFlowStream",
      "inputs": [
        {
          "name": "streamId",
          "type": "uint256",
          "indexed": true,
          "internalType": "uint256"
        },
        {
          "name": "sender",
          "type": "address",
          "indexed": true,
          "internalType": "address"
        },
        {
          "name": "recipient",
          "type": "address",
          "indexed": true,
          "internalType": "address"
        },
        {
          "name": "caller",
          "type": "address",
          "indexed": false,
          "internalType": "address"
        },
        {
          "name": "newTotalDebt",
          "type": "uint256",
          "indexed": false,
          "internalType": "uint256"
        },
        {
          "name": "writtenOffDebt",
          "type": "uint256",
          "indexed": false,
          "internalType": "uint256"
        }
      ],
      "anonymous": false
    },
    {
      "type": "event",
      "name": "WithdrawFromFlowStream",
      "inputs": [
        {
          "name": "streamId",
          "type": "uint256",
          "indexed": true,
          "internalType": "uint256"
        },
        {
          "name": "to",
          "type": "address",
          "indexed": true,
          "internalType": "address"
        },
        {
          "name": "token",
          "type": "address",
          "indexed": true,
          "internalType": "contract IERC20"
        },
        {
          "name": "caller",
          "type": "address",
          "indexed": false,
          "internalType": "address"
        },
        {
          "name": "withdrawAmount",
          "type": "uint128",
          "indexed": false,
          "internalType": "uint128"
        }
      ],
      "anonymous": false
    },
    {
      "type": "error",
      "name": "Comptrollerable_CallerNotComptroller",
      "inputs": [
        {
          "name": "comptroller",
          "type": "address",
          "internalType": "address"
        },
        {
          "name": "caller",
          "type": "address",
          "internalType": "address"
        }
      ]
    },
    {
      "type": "error",
      "name": "Comptrollerable_UnsupportedInterfaceId",
      "inputs": [
        {
          "name": "previousComptroller",
          "type": "address",
          "internalType": "address"
        },
        {
          "name": "newComptroller",
          "type": "address",
          "internalType": "address"
        },
        {
          "name": "minimalInterfaceId",
          "type": "bytes4",
          "internalType": "bytes4"
        }
      ]
    },
    {
      "type": "error",
      "name": "DelegateCall",
      "inputs": []
    },
    {
      "type": "error",
      "name": "ERC721IncorrectOwner",
      "inputs": [
        {
          "name": "sender",
          "type": "address",
          "internalType": "address"
        },
        {
          "name": "tokenId",
          "type": "uint256",
          "internalType": "uint256"
        },
        {
          "name": "owner",
          "type": "address",
          "internalType": "address"
        }
      ]
    },
    {
      "type": "error",
      "name": "ERC721InsufficientApproval",
      "inputs": [
        {
          "name": "operator",
          "type": "address",
          "internalType": "address"
        },
        {
          "name": "tokenId",
          "type": "uint256",
          "internalType": "uint256"
        }
      ]
    },
    {
      "type": "error",
      "name": "ERC721InvalidApprover",
      "inputs": [
        {
          "name": "approver",
          "type": "address",
          "internalType": "address"
        }
      ]
    },
    {
      "type": "error",
      "name": "ERC721InvalidOperator",
      "inputs": [
        {
          "name": "operator",
          "type": "address",
          "internalType": "address"
        }
      ]
    },
    {
      "type": "error",
      "name": "ERC721InvalidOwner",
      "inputs": [
        {
          "name": "owner",
          "type": "address",
          "internalType": "address"
        }
      ]
    },
    {
      "type": "error",
      "name": "ERC721InvalidReceiver",
      "inputs": [
        {
          "name": "receiver",
          "type": "address",
          "internalType": "address"
        }
      ]
    },
    {
      "type": "error",
      "name": "ERC721InvalidSender",
      "inputs": [
        {
          "name": "sender",
          "type": "address",
          "internalType": "address"
        }
      ]
    },
    {
      "type": "error",
      "name": "ERC721NonexistentToken",
      "inputs": [
        {
          "name": "tokenId",
          "type": "uint256",
          "internalType": "uint256"
        }
      ]
    },
    {
      "type": "error",
      "name": "SablierFlowState_Null",
      "inputs": [
        {
          "name": "streamId",
          "type": "uint256",
          "internalType": "uint256"
        }
      ]
    },
    {
      "type": "error",
      "name": "SablierFlowState_StreamPaused",
      "inputs": [
        {
          "name": "streamId",
          "type": "uint256",
          "internalType": "uint256"
        }
      ]
    },
    {
      "type": "error",
      "name": "SablierFlowState_StreamVoided",
      "inputs": [
        {
          "name": "streamId",
          "type": "uint256",
          "internalType": "uint256"
        }
      ]
    },
    {
      "type": "error",
      "name": "SablierFlowState_Unauthorized",
      "inputs": [
        {
          "name": "streamId",
          "type": "uint256",
          "internalType": "uint256"
        },
        {
          "name": "caller",
          "type": "address",
          "internalType": "address"
        }
      ]
    },
    {
      "type": "error",
      "name": "SablierFlow_CreateNativeToken",
      "inputs": [
        {
          "name": "nativeToken",
          "type": "address",
          "internalType": "address"
        }
      ]
    },
    {
      "type": "error",
      "name": "SablierFlow_CreateRatePerSecondZero",
      "inputs": []
    },
    {
      "type": "error",
      "name": "SablierFlow_DepositAmountZero",
      "inputs": [
        {
          "name": "streamId",
          "type": "uint256",
          "internalType": "uint256"
        }
      ]
    },
    {
      "type": "error",
      "name": "SablierFlow_InsufficientFeePayment",
      "inputs": [
        {
          "name": "feePaid",
          "type": "uint256",
          "internalType": "uint256"
        },
        {
          "name": "minFeeWei",
          "type": "uint256",
          "internalType": "uint256"
        }
      ]
    },
    {
      "type": "error",
      "name": "SablierFlow_InvalidCalculation",
      "inputs": [
        {
          "name": "streamId",
          "type": "uint256",
          "internalType": "uint256"
        },
        {
          "name": "availableAmount",
          "type": "uint128",
          "internalType": "uint128"
        },
        {
          "name": "amount",
          "type": "uint128",
          "internalType": "uint128"
        }
      ]
    },
    {
      "type": "error",
      "name": "SablierFlow_InvalidTokenDecimals",
      "inputs": [
        {
          "name": "token",
          "type": "address",
          "internalType": "address"
        }
      ]
    },
    {
      "type": "error",
      "name": "SablierFlow_NativeTokenAlreadySet",
      "inputs": [
        {
          "name": "nativeToken",
          "type": "address",
          "internalType": "address"
        }
      ]
    },
    {
      "type": "error",
      "name": "SablierFlow_NativeTokenZeroAddress",
      "inputs": []
    },
    {
      "type": "error",
      "name": "SablierFlow_NewRatePerSecondZero",
      "inputs": [
        {
          "name": "streamId",
          "type": "uint256",
          "internalType": "uint256"
        }
      ]
    },
    {
      "type": "error",
      "name": "SablierFlow_NotStreamRecipient",
      "inputs": [
        {
          "name": "recipient",
          "type": "address",
          "internalType": "address"
        },
        {
          "name": "streamRecipient",
          "type": "address",
          "internalType": "address"
        }
      ]
    },
    {
      "type": "error",
      "name": "SablierFlow_NotStreamSender",
      "inputs": [
        {
          "name": "sender",
          "type": "address",
          "internalType": "address"
        },
        {
          "name": "streamSender",
          "type": "address",
          "internalType": "address"
        }
      ]
    },
    {
      "type": "error",
      "name": "SablierFlow_NotTransferable",
      "inputs": [
        {
          "name": "streamId",
          "type": "uint256",
          "internalType": "uint256"
        }
      ]
    },
    {
      "type": "error",
      "name": "SablierFlow_Overdraw",
      "inputs": [
        {
          "name": "streamId",
          "type": "uint256",
          "internalType": "uint256"
        },
        {
          "name": "amount",
          "type": "uint128",
          "internalType": "uint128"
        },
        {
          "name": "withdrawableAmount",
          "type": "uint128",
          "internalType": "uint128"
        }
      ]
    },
    {
      "type": "error",
      "name": "SablierFlow_RatePerSecondNotDifferent",
      "inputs": [
        {
          "name": "streamId",
          "type": "uint256",
          "internalType": "uint256"
        },
        {
          "name": "ratePerSecond",
          "type": "uint128",
          "internalType": "UD21x18"
        }
      ]
    },
    {
      "type": "error",
      "name": "SablierFlow_RefundAmountZero",
      "inputs": [
        {
          "name": "streamId",
          "type": "uint256",
          "internalType": "uint256"
        }
      ]
    },
    {
      "type": "error",
      "name": "SablierFlow_RefundOverflow",
      "inputs": [
        {
          "name": "streamId",
          "type": "uint256",
          "internalType": "uint256"
        },
        {
          "name": "refundAmount",
          "type": "uint128",
          "internalType": "uint128"
        },
        {
          "name": "refundableAmount",
          "type": "uint128",
          "internalType": "uint128"
        }
      ]
    },
    {
      "type": "error",
      "name": "SablierFlow_SenderZeroAddress",
      "inputs": []
    },
    {
      "type": "error",
      "name": "SablierFlow_StreamBalanceZero",
      "inputs": [
        {
          "name": "streamId",
          "type": "uint256",
          "internalType": "uint256"
        }
      ]
    },
    {
      "type": "error",
      "name": "SablierFlow_StreamNotPaused",
      "inputs": [
        {
          "name": "streamId",
          "type": "uint256",
          "internalType": "uint256"
        }
      ]
    },
    {
      "type": "error",
      "name": "SablierFlow_StreamPending",
      "inputs": [
        {
          "name": "streamId",
          "type": "uint256",
          "internalType": "uint256"
        },
        {
          "name": "snapshotTime",
          "type": "uint40",
          "internalType": "uint40"
        }
      ]
    },
    {
      "type": "error",
      "name": "SablierFlow_Unauthorized",
      "inputs": [
        {
          "name": "streamId",
          "type": "uint256",
          "internalType": "uint256"
        },
        {
          "name": "caller",
          "type": "address",
          "internalType": "address"
        }
      ]
    },
    {
      "type": "error",
      "name": "SablierFlow_WithdrawAmountZero",
      "inputs": [
        {
          "name": "streamId",
          "type": "uint256",
          "internalType": "uint256"
        }
      ]
    },
    {
      "type": "error",
      "name": "SablierFlow_WithdrawToZeroAddress",
      "inputs": [
        {
          "name": "streamId",
          "type": "uint256",
          "internalType": "uint256"
        }
      ]
    },
    {
      "type": "error",
      "name": "SablierFlow_WithdrawalAddressNotRecipient",
      "inputs": [
        {
          "name": "streamId",
          "type": "uint256",
          "internalType": "uint256"
        },
        {
          "name": "caller",
          "type": "address",
          "internalType": "address"
        },
        {
          "name": "to",
          "type": "address",
          "internalType": "address"
        }
      ]
    },
    {
      "type": "error",
      "name": "SafeCastOverflowedUintDowncast",
      "inputs": [
        {
          "name": "bits",
          "type": "uint8",
          "internalType": "uint8"
        },
        {
          "name": "value",
          "type": "uint256",
          "internalType": "uint256"
        }
      ]
    },
    {
      "type": "error",
      "name": "SafeERC20FailedOperation",
      "inputs": [
        {
          "name": "token",
          "type": "address",
          "internalType": "address"
        }
      ]
    }
  ],
  "bytecode": {
    "object": "0x60a0806040523461044657604081615bf0803803809161001f828561045d565b8339810103126104465761003e602061003783610480565b9201610480565b906040519161004e60408461045d565b601083526f14d8589b1a595c88119b1bddc813919560821b60208401526040519161007a60408461045d565b60088352675341422d464c4f5760c01b602084015260018060a01b03166040516301ffc9a760e01b8152630654439160e41b6004820152602081602481855afa908115610452575f91610413575b50156103f2575f80546001600160a01b031916821781556040805191825260208201929092527ff45d882a72fce9d8d7a7e2e196a338d4d9d4057510b4b9ddf91a7066104d2eaf9190a182516001600160401b03811161030357600154600181811c911680156103e8575b60208210146102e557601f8111610385575b506020601f821160011461032257819293945f92610317575b50508160011b915f199060031b1c1916176001555b81516001600160401b03811161030357600254600181811c911680156102f9575b60208210146102e557601f8111610282575b50602092601f821160011461022157928192935f92610216575b50508160011b915f199060031b1c1916176002555b306080526001600955600a80546001600160a01b0319166001600160a01b039290921691909117905560405161575b9081610495823960805181613d1a0152f35b015190505f806101c0565b601f1982169360025f52805f20915f5b86811061026a5750836001959610610252575b505050811b016002556101d5565b01515f1960f88460031b161c191690555f8080610244565b91926020600181928685015181550194019201610231565b60025f527f405787fa12a823e0f2b7631cc41b3ba8828b3321ca811111fa75cd3aa3bb5ace601f830160051c810191602084106102db575b601f0160051c01905b8181106102d057506101a6565b5f81556001016102c3565b90915081906102ba565b634e487b7160e01b5f52602260045260245ffd5b90607f1690610194565b634e487b7160e01b5f52604160045260245ffd5b015190505f8061015e565b601f1982169060015f52805f20915f5b81811061036d57509583600195969710610355575b505050811b01600155610173565b01515f1960f88460031b161c191690555f8080610347565b9192602060018192868b015181550194019201610332565b60015f527fb10e2d527612073b26eecdfd717e6a320cf44b4afac2b0732d9fcbe2b7fa0cf6601f830160051c810191602084106103de575b601f0160051c01905b8181106103d35750610145565b5f81556001016103c6565b90915081906103bd565b90607f1690610133565b6364ca3de160e11b5f525f600452602452630654439160e41b60445260645ffd5b90506020813d60201161044a575b8161042e6020938361045d565b8101031261044657518015158103610446575f6100c8565b5f80fd5b3d9150610421565b6040513d5f823e3d90fd5b601f909101601f19168101906001600160401b0382119082101761030357604052565b51906001600160a01b03821682036104465756fe60806040526004361015610011575f80fd5b5f3560e01c806301ffc9a7146103df57806306fdde03146103da578063081812fc146103d557806308b87923146103d0578063095ea7b3146103cb5780630c699624146103c6578063136439dd146103c15780631400ecec146103bc5780631e010439146103b75780631e897afb146103b25780631e99d569146103ad5780631f0cce58146103a857806323b872dd146103a357806328f8b77d1461039e57806336af277f14610399578063379d871a1461039457806342842e0e1461038f57806342e3e23d146102e0578063442675701461038a578063450ac90814610385578063569f4c59146103805780635ea2145b1461037b5780635f2a0beb146103765780635fe3b567146103715780636352211e1461036c578063648bf774146103675780636d0cee75146103625780636da1e1021461035d57806370a082311461035857806378f82ce7146103535780637cad6cd11461034e5780637ddf92281461034957806380448da31461034457806381632a861461033f578063894e9a0d1461033a5780638bad38dd1461033557806395d89b4114610330578063a22cb4651461032b578063a7de07cd14610326578063a8a482a614610321578063ad35efd41461031c578063b256456914610317578063b61f758314610312578063b88d4fde1461030d578063b8a3be6614610308578063b971302a14610303578063bc7a2d6c146102fe578063bcbd019e146102f9578063c87b56dd146102f4578063cca138e5146102ef578063d4b80884146102ea578063d90e27d7146102e5578063d975dfed146102e0578063e1758bd8146102db578063e4b50cb8146102d6578063e985e9c5146102d1578063ea5ead19146102cc578063eb5710d8146102c7578063ebb6f79a146102c2578063ec01da3b146102bd5763fdd46d60146102b8575f80fd5b6134ad565b613446565b61335c565b6132fe565b61325b565b6131bd565b613153565b613102565b61120f565b6130f6565b613092565b612f77565b612e4d565b612d94565b612d4f565b612ce5565b612c92565b612be4565b6128e7565b61288b565b612808565b6126a8565b61264e565b61251f565b61244c565b6121cf565b611f15565b611e71565b611e05565b611dc0565b611c96565b611c11565b611b78565b6119dd565b611998565b611897565b61183d565b6117ed565b611777565b611355565b6112f9565b6112a5565b611254565b6111e6565b6110c8565b61102f565b610fa6565b610f8f565b610e14565b610dbf565b610c7f565b610b9f565b610b40565b610a60565b610962565b6107c9565b61075e565b6106f6565b6105ae565b610412565b7fffffffff0000000000000000000000000000000000000000000000000000000081160361040e57565b5f80fd5b3461040e5760207ffffffffffffffffffffffffffffffffffffffffffffffffffffffffffffffffc36011261040e577fffffffff0000000000000000000000000000000000000000000000000000000060043561046e816103e4565b167f490649060000000000000000000000000000000000000000000000000000000081149081156104a8575b506040519015158152602090f35b7f80ac58cd0000000000000000000000000000000000000000000000000000000081149150811561050c575b81156104e2575b505f61049a565b7f01ffc9a7000000000000000000000000000000000000000000000000000000009150145f6104db565b7f5b5e139f00000000000000000000000000000000000000000000000000000000811491506104d4565b5f5b8381106105475750505f910152565b8181015183820152602001610538565b907fffffffffffffffffffffffffffffffffffffffffffffffffffffffffffffffe0601f60209361059381518092818752878088019101610536565b0116010190565b9060206105ab928181520190610557565b90565b3461040e575f7ffffffffffffffffffffffffffffffffffffffffffffffffffffffffffffffffc36011261040e576040515f6001548060011c90600181169081156106ec575b6020831082146106bf5782855260208501919081156106885750600114610636575b6106328461062681860382612b57565b6040519182918261059a565b0390f35b60015f9081529250907fb10e2d527612073b26eecdfd717e6a320cf44b4afac2b0732d9fcbe2b7fa0cf65b8184106106745750500161062682610616565b805484840152602090930192600101610661565b7fffffffffffffffffffffffffffffffffffffffffffffffffffffffffffffff001682525090151560051b01905061062682610616565b7f4e487b71000000000000000000000000000000000000000000000000000000005f52602260045260245ffd5b91607f16916105f4565b3461040e5760207ffffffffffffffffffffffffffffffffffffffffffffffffffffffffffffffffc36011261040e5760043561073181613c20565b505f526005602052602073ffffffffffffffffffffffffffffffffffffffff60405f205416604051908152f35b3461040e5760207ffffffffffffffffffffffffffffffffffffffffffffffffffffffffffffffffc36011261040e5760206107a360043561079e81613c79565b613cc2565b604051908152f35b73ffffffffffffffffffffffffffffffffffffffff81160361040e57565b3461040e5760407ffffffffffffffffffffffffffffffffffffffffffffffffffffffffffffffffc36011261040e57600435610804816107ab565b6024359061081182613c20565b33151580610942575b806108e8575b6108bb57826108b9936108799273ffffffffffffffffffffffffffffffffffffffff80861691167f8c5be1e5ebec7d5bd14f71427d1e84f3dd0314c0f7b2291e5b200ac8c7c3b9255f80a45f52600560205260405f2090565b9073ffffffffffffffffffffffffffffffffffffffff167fffffffffffffffffffffffff0000000000000000000000000000000000000000825416179055565b005b7fa9fbf51f000000000000000000000000000000000000000000000000000000005f523360045260245b5ffd5b5060ff61093a336109178473ffffffffffffffffffffffffffffffffffffffff165f52600660205260405f2090565b9073ffffffffffffffffffffffffffffffffffffffff165f5260205260405f2090565b541615610820565b503373ffffffffffffffffffffffffffffffffffffffff8216141561081a565b60207ffffffffffffffffffffffffffffffffffffffffffffffffffffffffffffffffc36011261040e57600435610997613d03565b6109a081613c79565b805f52600b60205273ffffffffffffffffffffffffffffffffffffffff600160405f200154163303610a3157807ff8e1a15aba9398e019f0b49df1a4fde98ee17ae345cb5f6b5e2c27f5033e8ce760206109fc61063294613d9c565b92610a078482613dce565b604051908152a16040516fffffffffffffffffffffffffffffffff90911681529081906020820190565b7f87cca8a8000000000000000000000000000000000000000000000000000000005f526004523360245260445ffd5b60207ffffffffffffffffffffffffffffffffffffffffffffffffffffffffffffffffc36011261040e57600435610a95613d03565b610a9e81613c79565b805f52600b60205260405f205460801c15610b1557805f52600b60205273ffffffffffffffffffffffffffffffffffffffff600160405f200154163303610a3157602081610b0c7ff8e1a15aba9398e019f0b49df1a4fde98ee17ae345cb5f6b5e2c27f5033e8ce793614048565b604051908152a1005b7f28a1df1c000000000000000000000000000000000000000000000000000000005f5260045260245ffd5b3461040e5760207ffffffffffffffffffffffffffffffffffffffffffffffffffffffffffffffffc36011261040e576020610b85600435610b8081613c79565b613d9c565b6fffffffffffffffffffffffffffffffff60405191168152f35b3461040e5760207ffffffffffffffffffffffffffffffffffffffffffffffffffffffffffffffffc36011261040e57600435610bda81613c79565b5f52600b60205260206fffffffffffffffffffffffffffffffff60405f205416604051908152f35b602081016020825282518091526040820191602060408360051b8301019401925f915b838310610c3457505050505090565b9091929394602080610c70837fffffffffffffffffffffffffffffffffffffffffffffffffffffffffffffffc086600196030187528951610557565b97019301930191939290610c25565b60207ffffffffffffffffffffffffffffffffffffffffffffffffffffffffffffffffc36011261040e5760043567ffffffffffffffff811161040e573660238201121561040e5780600401359067ffffffffffffffff821161040e576024810190602436918460051b01011161040e57610cf882613530565b91610d066040519384612b57565b8083527fffffffffffffffffffffffffffffffffffffffffffffffffffffffffffffffe0610d3382613530565b015f5b818110610dae5750505f5b818110610d5657604051806106328682610c02565b5f80610d63838587613575565b90610d73604051809381936135da565b0390305af4610d806135e7565b9015610da65790600191610d948287613616565b52610d9f8186613616565b5001610d41565b805190602001fd5b806060602080938801015201610d36565b3461040e575f7ffffffffffffffffffffffffffffffffffffffffffffffffffffffffffffffffc36011261040e576020600954604051908152f35b6fffffffffffffffffffffffffffffffff81160361040e57565b60607ffffffffffffffffffffffffffffffffffffffffffffffffffffffffffffffffc36011261040e57600435602435610e4d81610dfa565b60443590610e5a82610dfa565b610e62613d03565b610e6b83613c79565b825f52600b60205260ff600160405f20015460d81c16610f1957825f52600b60205273ffffffffffffffffffffffffffffffffffffffff600160405f200154163303610ee95791610b0c602092610ee37ff8e1a15aba9398e019f0b49df1a4fde98ee17ae345cb5f6b5e2c27f5033e8ce79584614151565b826141de565b827f87cca8a8000000000000000000000000000000000000000000000000000000005f526004523360245260445ffd5b827f271c0f9d000000000000000000000000000000000000000000000000000000005f5260045260245ffd5b7ffffffffffffffffffffffffffffffffffffffffffffffffffffffffffffffffc606091011261040e57600435610f7b816107ab565b90602435610f88816107ab565b9060443590565b3461040e576108b9610fa036610f45565b9161362a565b60607ffffffffffffffffffffffffffffffffffffffffffffffffffffffffffffffffc36011261040e576108b9600435610fdf816107ab565b602435610feb816107ab565b6fffffffffffffffffffffffffffffffff60443561100881610dfa565b16913390614340565b6064359064ffffffffff8216820361040e57565b8015150361040e57565b60e07ffffffffffffffffffffffffffffffffffffffffffffffffffffffffffffffffc36011261040e576020600435611067816107ab565b6107a36110c1602435611079816107ab565b60443561108581610dfa565b61108d611011565b6084359161109a836107ab565b60a435936110a785611025565b60c435976110b489610dfa565b6110bc613d03565b6146db565b91826141de565b60407ffffffffffffffffffffffffffffffffffffffffffffffffffffffffffffffffc36011261040e5760043560243561110181610dfa565b611109613d03565b61111282613c79565b815f52600b60205260405f205460801c156111ba57815f52600b60205273ffffffffffffffffffffffffffffffffffffffff600160405f20015416330361118a57816111816020927ff8e1a15aba9398e019f0b49df1a4fde98ee17ae345cb5f6b5e2c27f5033e8ce794613dce565b610b0c81614048565b507f87cca8a8000000000000000000000000000000000000000000000000000000005f526004523360245260445ffd5b507f28a1df1c000000000000000000000000000000000000000000000000000000005f5260045260245ffd5b3461040e576108b96111f736610f45565b9060405192611207602085612b57565b5f84526138fa565b3461040e5760207ffffffffffffffffffffffffffffffffffffffffffffffffffffffffffffffffc36011261040e576020610b8560043561124f81613c79565b614a21565b3461040e575f7ffffffffffffffffffffffffffffffffffffffffffffffffffffffffffffffffc36011261040e57602073ffffffffffffffffffffffffffffffffffffffff600a5416604051908152f35b3461040e5760207ffffffffffffffffffffffffffffffffffffffffffffffffffffffffffffffffc36011261040e576004356112e081613c79565b5f52600b6020526020600360405f200154604051908152f35b3461040e5760207ffffffffffffffffffffffffffffffffffffffffffffffffffffffffffffffffc36011261040e5760043561133481613c79565b5f52600b602052602060ff600160405f20015460d81c166040519015158152f35b60207ffffffffffffffffffffffffffffffffffffffffffffffffffffffffffffffffc36011261040e5760043561138a613d03565b61139381613c79565b805f52600b60205260ff600160405f20015460d81c1661174c576113fb6113e260016113c7845f52600b60205260405f2090565b015473ffffffffffffffffffffffffffffffffffffffff1690565b73ffffffffffffffffffffffffffffffffffffffff1690565b33141580611721575b6116f257611642816114367ff8e1a15aba9398e019f0b49df1a4fde98ee17ae345cb5f6b5e2c27f5033e8ce793614c8f565b8061166f5761144482614b19565b80611647575b505b6114b664ffffffffff4216600161146b855f52600b60205260405f2090565b01907fffffffffffffff0000000000ffffffffffffffffffffffffffffffffffffffff78ffffffffff000000000000000000000000000000000000000083549260a01b169116179055565b61150d5f6114cc845f52600b60205260405f2090565b906fffffffffffffffffffffffffffffffff7fffffffffffffffffffffffffffffffff0000000000000000000000000000000083549260801b169116179055565b61156b6001611524845f52600b60205260405f2090565b017b010000000000000000000000000000000000000000000000000000007fffffffff00ffffffffffffffffffffffffffffffffffffffffffffffffffffff825416179055565b61158260016113c7845f52600b60205260405f2090565b90827fa8e3d71a6c0c719305004b430f6d17f12536f7b803db23a4d7016f5b52699a8c73ffffffffffffffffffffffffffffffffffffffff6115e96115cf845f52600360205260405f2090565b5473ffffffffffffffffffffffffffffffffffffffff1690565b61162f6115f585613cc2565b958360405194859416981696338460409194939273ffffffffffffffffffffffffffffffffffffffff606083019616825260208201520152565b0390a46040519081529081906020820190565b0390a1005b611667600361165e855f52600b60205260405f2090565b01918254613a89565b90555f61144a565b6116d761169d611687845f52600b60205260405f2090565b546fffffffffffffffffffffffffffffffff1690565b6fffffffffffffffffffffffffffffffff6116d060026116c5875f52600b60205260405f2090565b015460a01c60ff1690565b9116614d24565b60036116eb845f52600b60205260405f2090565b015561144c565b7fa9ad2a22000000000000000000000000000000000000000000000000000000005f526004523360245260445ffd5b5061174761174361173d6115cf845f52600360205260405f2090565b8361564b565b1590565b611404565b7f271c0f9d000000000000000000000000000000000000000000000000000000005f5260045260245ffd5b60c07ffffffffffffffffffffffffffffffffffffffffffffffffffffffffffffffffc36011261040e5760206107a36004356117b2816107ab565b6024356117be816107ab565b6044356117ca81610dfa565b6117d2611011565b90608435926117e0846107ab565b60a435946110b486611025565b3461040e575f7ffffffffffffffffffffffffffffffffffffffffffffffffffffffffffffffffc36011261040e57602073ffffffffffffffffffffffffffffffffffffffff5f5416604051908152f35b3461040e5760207ffffffffffffffffffffffffffffffffffffffffffffffffffffffffffffffffc36011261040e576020611879600435613c20565b73ffffffffffffffffffffffffffffffffffffffff60405191168152f35b3461040e5760407ffffffffffffffffffffffffffffffffffffffffffffffffffffffffffffffffc36011261040e576004356118d2816107ab565b602435906118df826107ab565b6118e7614a6b565b73ffffffffffffffffffffffffffffffffffffffff8116916040517f70a08231000000000000000000000000000000000000000000000000000000008152306004820152602081602481875afa8015611993576108b99461195c925f92611962575b505f52600760205260405f205490613801565b91614abc565b61198591925060203d60201161198c575b61197d8183612b57565b810190613788565b905f611949565b503d611973565b613797565b3461040e5760207ffffffffffffffffffffffffffffffffffffffffffffffffffffffffffffffffc36011261040e5760206118796004356119d881613c79565b613c20565b3461040e5760207ffffffffffffffffffffffffffffffffffffffffffffffffffffffffffffffffc36011261040e57600435611a18816107ab565b611a20614a6b565b73ffffffffffffffffffffffffffffffffffffffff811615611b505773ffffffffffffffffffffffffffffffffffffffff6008541680611b255750611aa08173ffffffffffffffffffffffffffffffffffffffff167fffffffffffffffffffffffff00000000000000000000000000000000000000006008541617600855565b7f7b0a5ae0a2e8f0dc2ec7555098e00dd4af1418ee3fd1bcf9bb14f6990c10fa92611b2073ffffffffffffffffffffffffffffffffffffffff611af75f5473ffffffffffffffffffffffffffffffffffffffff1690565b60405173ffffffffffffffffffffffffffffffffffffffff909516855216929081906020820190565b0390a2005b7f25139c2b000000000000000000000000000000000000000000000000000000005f5260045260245ffd5b7fa20dc5d2000000000000000000000000000000000000000000000000000000005f5260045ffd5b3461040e5760207ffffffffffffffffffffffffffffffffffffffffffffffffffffffffffffffffc36011261040e5773ffffffffffffffffffffffffffffffffffffffff600435611bc8816107ab565b168015611be5575f526004602052602060405f2054604051908152f35b7f89c62b64000000000000000000000000000000000000000000000000000000005f525f60045260245ffd5b3461040e575f7ffffffffffffffffffffffffffffffffffffffffffffffffffffffffffffffffc36011261040e5773ffffffffffffffffffffffffffffffffffffffff5f54167f56dedb874d4fc0f70753f281fa2c25e82085163206086fe826cf834b51701f6c6020475f80808084885af150611c8c6135e7565b50604051908152a2005b3461040e5760207ffffffffffffffffffffffffffffffffffffffffffffffffffffffffffffffffc36011261040e57600435611cd1816107ab565b611cd9614a6b565b7fa2548bd4b805e907c1558a47b5858324fe8bb4a2e1ddfca647eecbf65610eebc604073ffffffffffffffffffffffffffffffffffffffff600a54931692837fffffffffffffffffffffffff0000000000000000000000000000000000000000821617600a5573ffffffffffffffffffffffffffffffffffffffff5f54169373ffffffffffffffffffffffffffffffffffffffff8351921682526020820152a27f6bd5c950a8d8df17f772f5af37cb3655737899cbf903264b9795592da439661c611642611da86009546137cf565b60405191829182919060206040840193600181520152565b3461040e5760207ffffffffffffffffffffffffffffffffffffffffffffffffffffffffffffffffc36011261040e5760206107a3600435611e0081613c79565b614b19565b3461040e5760207ffffffffffffffffffffffffffffffffffffffffffffffffffffffffffffffffc36011261040e57600435611e4081613c79565b5f52600b60205260405f205460801c60405180916fffffffffffffffffffffffffffffffff60208301911682520390f35b60407ffffffffffffffffffffffffffffffffffffffffffffffffffffffffffffffffc36011261040e57600435602435611eaa81610dfa565b611eb2613d03565b611ebb82613c79565b815f52600b60205273ffffffffffffffffffffffffffffffffffffffff600160405f20015416330361118a5781610b0c6020927ff8e1a15aba9398e019f0b49df1a4fde98ee17ae345cb5f6b5e2c27f5033e8ce794613dce565b3461040e5760207ffffffffffffffffffffffffffffffffffffffffffffffffffffffffffffffffc36011261040e576004355f610120604051611f5781612b35565b8281528260208201528260408201528260608201528260808201528260a08201528260c08201528260e0820152826101008201520152611f9681613c79565b5f52600b60205261063260405f206003611fae612b98565b91612008611fef8254611fe9611fd3826fffffffffffffffffffffffffffffffff1690565b6fffffffffffffffffffffffffffffffff168752565b60801c90565b6fffffffffffffffffffffffffffffffff166020850152565b61209b61209260018301546120506120338273ffffffffffffffffffffffffffffffffffffffff1690565b73ffffffffffffffffffffffffffffffffffffffff166040880152565b64ffffffffff60a082901c16606087015261207560c882901c60ff1615156080880152565b61208960d082901c60ff16151560a0880152565b60d81c60ff1690565b151560c0850152565b6120f76120ec60028301546120e36120c68273ffffffffffffffffffffffffffffffffffffffff1690565b73ffffffffffffffffffffffffffffffffffffffff1660e0880152565b60a01c60ff1690565b60ff16610100850152565b01546101208201526040519182918281516fffffffffffffffffffffffffffffffff168152610140810192916101209081906020818101516fffffffffffffffffffffffffffffffff169085015260408181015173ffffffffffffffffffffffffffffffffffffffff169085015260608181015164ffffffffff169085015260808181015115159085015260a08181015115159085015260c08181015115159085015260e08181015173ffffffffffffffffffffffffffffffffffffffff16908501526101008181015160ff16908501520151910152565b3461040e5760207ffffffffffffffffffffffffffffffffffffffffffffffffffffffffffffffffc36011261040e5760043561220a816107ab565b612212614a6b565b73ffffffffffffffffffffffffffffffffffffffff5f5416906040517fc34df33e000000000000000000000000000000000000000000000000000000008152602081600481865afa908115611993575f9161241d575b506040517f01ffc9a70000000000000000000000000000000000000000000000000000000081527fffffffff000000000000000000000000000000000000000000000000000000008216600482015273ffffffffffffffffffffffffffffffffffffffff831690602081602481855afa908115611993575f916123ee575b5015612382577ff45d882a72fce9d8d7a7e2e196a338d4d9d4057510b4b9ddf91a7066104d2eaf83856123528273ffffffffffffffffffffffffffffffffffffffff167fffffffffffffffffffffffff00000000000000000000000000000000000000005f5416175f55565b6040805173ffffffffffffffffffffffffffffffffffffffff928316815292909116602083015281908101611642565b7fc9947bc2000000000000000000000000000000000000000000000000000000005f5273ffffffffffffffffffffffffffffffffffffffff808516600452166024527fffffffff000000000000000000000000000000000000000000000000000000001660445260645ffd5b612410915060203d602011612416575b6124088183612b57565b810190614b79565b5f6122e6565b503d6123fe565b61243f915060203d602011612445575b6124378183612b57565b81019061380e565b5f612268565b503d61242d565b3461040e575f7ffffffffffffffffffffffffffffffffffffffffffffffffffffffffffffffffc36011261040e576040515f6002548060011c9060018116908115612515575b6020831082146106bf57828552602085019190811561068857506001146124c3576106328461062681860382612b57565b60025f9081529250907f405787fa12a823e0f2b7631cc41b3ba8828b3321ca811111fa75cd3aa3bb5ace5b8184106125015750500161062682610616565b8054848401526020909301926001016124ee565b91607f1691612492565b3461040e5760407ffffffffffffffffffffffffffffffffffffffffffffffffffffffffffffffffc36011261040e5760043561255a816107ab565b60243561256681611025565b73ffffffffffffffffffffffffffffffffffffffff8216918215612622576125b790335f52600660205260405f209073ffffffffffffffffffffffffffffffffffffffff165f5260205260405f2090565b7fffffffffffffffffffffffffffffffffffffffffffffffffffffffffffffff0081541660ff831515161790557f17307eab39ab6107e8899845ad3d59bd9653f200f220920489ca2b5937696c316040518061261d339482919091602081019215159052565b0390a3005b827f5b08ba18000000000000000000000000000000000000000000000000000000005f5260045260245ffd5b3461040e5760207ffffffffffffffffffffffffffffffffffffffffffffffffffffffffffffffffc36011261040e5760043561268981613c79565b5f52600b602052602060ff600260405f20015460a01c16604051908152f35b60407ffffffffffffffffffffffffffffffffffffffffffffffffffffffffffffffffc36011261040e576004356024356126e181610dfa565b6126e9613d03565b6126f282613c79565b815f52600b60205260405f205460801c156111ba57815f52600b60205273ffffffffffffffffffffffffffffffffffffffff600160405f20015416330361118a576fffffffffffffffffffffffffffffffff811680156127dc5791807ffddf01d0842635e80929251f6862b3baf136a29f2b2fb148968e8b236d5785fe6060611642947ff8e1a15aba9398e019f0b49df1a4fde98ee17ae345cb5f6b5e2c27f5033e8ce796845f52600b6020526127b160405f205460801c9286614b8e565b6127ba85613cc2565b9160405192835260208301526040820152a26040519081529081906020820190565b827f4513d390000000000000000000000000000000000000000000000000000000005f5260045260245ffd5b3461040e5760207ffffffffffffffffffffffffffffffffffffffffffffffffffffffffffffffffc36011261040e5761284b60043561284681613c79565b613823565b604051600682101561285e576020918152f35b7f4e487b71000000000000000000000000000000000000000000000000000000005f52602160045260245ffd5b3461040e5760207ffffffffffffffffffffffffffffffffffffffffffffffffffffffffffffffffc36011261040e576004356128c681613c79565b5f52600b602052602060ff600160405f20015460d01c166040519015158152f35b60807ffffffffffffffffffffffffffffffffffffffffffffffffffffffffffffffffc36011261040e5760043560243561292081610dfa565b60443561292c816107ab565b60643590612939826107ab565b612941613d03565b61294a84613c79565b835f52600b60205260ff600160405f20015460d81c16612adc57835f52600b60205273ffffffffffffffffffffffffffffffffffffffff600160405f2001541673ffffffffffffffffffffffffffffffffffffffff821603612a7a57506129bf6113e26115cf855f52600360205260405f2090565b73ffffffffffffffffffffffffffffffffffffffff821603612a1a577ff8e1a15aba9398e019f0b49df1a4fde98ee17ae345cb5f6b5e2c27f5033e8ce761164284612a0a85826141de565b6040519081529081906020820190565b6108e590612a336115cf855f52600360205260405f2090565b7f5bdb8ad7000000000000000000000000000000000000000000000000000000005f5273ffffffffffffffffffffffffffffffffffffffff91821660045216602452604490565b6108e590612a9560016113c7875f52600b60205260405f2090565b7fc8bac88d000000000000000000000000000000000000000000000000000000005f5273ffffffffffffffffffffffffffffffffffffffff91821660045216602452604490565b837f271c0f9d000000000000000000000000000000000000000000000000000000005f5260045260245ffd5b7f4e487b71000000000000000000000000000000000000000000000000000000005f52604160045260245ffd5b610140810190811067ffffffffffffffff821117612b5257604052565b612b08565b90601f7fffffffffffffffffffffffffffffffffffffffffffffffffffffffffffffffe0910116810190811067ffffffffffffffff821117612b5257604052565b60405190612ba861014083612b57565b565b67ffffffffffffffff8111612b5257601f017fffffffffffffffffffffffffffffffffffffffffffffffffffffffffffffffe01660200190565b3461040e5760807ffffffffffffffffffffffffffffffffffffffffffffffffffffffffffffffffc36011261040e57600435612c1f816107ab565b60243590612c2c826107ab565b6044356064359267ffffffffffffffff841161040e573660238501121561040e57836004013592612c5c84612baa565b93612c6a6040519586612b57565b808552366024828801011161040e576020815f9260246108b9990183890137860101526138fa565b3461040e5760207ffffffffffffffffffffffffffffffffffffffffffffffffffffffffffffffffc36011261040e576004355f52600b602052602060ff600160405f20015460c81c166040519015158152f35b3461040e5760207ffffffffffffffffffffffffffffffffffffffffffffffffffffffffffffffffc36011261040e57600435612d2081613c79565b5f52600b602052602073ffffffffffffffffffffffffffffffffffffffff600160405f20015416604051908152f35b3461040e5760207ffffffffffffffffffffffffffffffffffffffffffffffffffffffffffffffffc36011261040e5760206107a3600435612d8f81613c79565b614c8f565b60407ffffffffffffffffffffffffffffffffffffffffffffffffffffffffffffffffc36011261040e57600435602435612dcd81610dfa565b612dd5613d03565b612dde82613c79565b815f52600b60205260405f205460801c156111ba57815f52600b60205273ffffffffffffffffffffffffffffffffffffffff600160405f20015416330361118a57816111816020927ff8e1a15aba9398e019f0b49df1a4fde98ee17ae345cb5f6b5e2c27f5033e8ce7946141de565b3461040e5760207ffffffffffffffffffffffffffffffffffffffffffffffffffffffffffffffffc36011261040e57600435612e8881613c20565b505f73ffffffffffffffffffffffffffffffffffffffff600a5416916044604051809481937fe9dc637500000000000000000000000000000000000000000000000000000000835230600484015260248301525afa8015611993575f90612efa575b610632906040519182918261059a565b503d805f833e612f0a8183612b57565b81019060208183031261040e5780519067ffffffffffffffff821161040e57019080601f8301121561040e57815191612f4283612baa565b91612f506040519384612b57565b8383526020848301011161040e5761063292612f729160208085019101610536565b612eea565b3461040e5760207ffffffffffffffffffffffffffffffffffffffffffffffffffffffffffffffffc36011261040e5761304d6020600435612fb781613c79565b73ffffffffffffffffffffffffffffffffffffffff5f5416905f52600b825273ffffffffffffffffffffffffffffffffffffffff600160405f200154169060405180809581947f419d289d00000000000000000000000000000000000000000000000000000000835260048301919091602073ffffffffffffffffffffffffffffffffffffffff60408301946001845216910152565b03915afa801561199357610632915f91613073575b506040519081529081906020820190565b61308c915060203d60201161198c5761197d8183612b57565b5f613062565b3461040e5760207ffffffffffffffffffffffffffffffffffffffffffffffffffffffffffffffffc36011261040e576004356130cd81613c79565b805f52600b60205260405f205460801c15610b15576130eb90613adc565b604051908152602090f35b6108b9610fa036610f45565b3461040e575f7ffffffffffffffffffffffffffffffffffffffffffffffffffffffffffffffffc36011261040e57602073ffffffffffffffffffffffffffffffffffffffff60085416604051908152f35b3461040e5760207ffffffffffffffffffffffffffffffffffffffffffffffffffffffffffffffffc36011261040e5760043561318e81613c79565b5f52600b602052602073ffffffffffffffffffffffffffffffffffffffff600260405f20015416604051908152f35b3461040e5760407ffffffffffffffffffffffffffffffffffffffffffffffffffffffffffffffffc36011261040e57602060ff61324f6004356131ff816107ab565b73ffffffffffffffffffffffffffffffffffffffff60243591613221836107ab565b165f526006845260405f209073ffffffffffffffffffffffffffffffffffffffff165f5260205260405f2090565b54166040519015158152f35b60407ffffffffffffffffffffffffffffffffffffffffffffffffffffffffffffffffc36011261040e5760206024357ff8e1a15aba9398e019f0b49df1a4fde98ee17ae345cb5f6b5e2c27f5033e8ce7826004356132b8846107ab565b6132c0613d03565b6132c981613c79565b6132dd6132d582614a21565b809583614d71565b604051908152a16fffffffffffffffffffffffffffffffff60405191168152f35b3461040e5760207ffffffffffffffffffffffffffffffffffffffffffffffffffffffffffffffffc36011261040e5760043561333981613c79565b5f52600b602052602064ffffffffff600160405f20015460a01c16604051908152f35b60407ffffffffffffffffffffffffffffffffffffffffffffffffffffffffffffffffc36011261040e5760043560243561339581610dfa565b61339d613d03565b6133a682613c79565b815f52600b60205260ff600160405f20015460d81c1661341a57815f52600b60205273ffffffffffffffffffffffffffffffffffffffff600160405f20015416330361118a5781610b0c6020927ff8e1a15aba9398e019f0b49df1a4fde98ee17ae345cb5f6b5e2c27f5033e8ce794614151565b507f271c0f9d000000000000000000000000000000000000000000000000000000005f5260045260245ffd5b3461040e5760207ffffffffffffffffffffffffffffffffffffffffffffffffffffffffffffffffc36011261040e5773ffffffffffffffffffffffffffffffffffffffff600435613496816107ab565b165f526007602052602060405f2054604051908152f35b60607ffffffffffffffffffffffffffffffffffffffffffffffffffffffffffffffffc36011261040e577ff8e1a15aba9398e019f0b49df1a4fde98ee17ae345cb5f6b5e2c27f5033e8ce76020600435610b0c60243561350c816107ab565b6044359061351982610dfa565b613521613d03565b61352a84613c79565b83614d71565b67ffffffffffffffff8111612b525760051b60200190565b7f4e487b71000000000000000000000000000000000000000000000000000000005f52603260045260245ffd5b91908110156135d55760051b810135907fffffffffffffffffffffffffffffffffffffffffffffffffffffffffffffffe18136030182121561040e57019081359167ffffffffffffffff831161040e57602001823603811361040e579190565b613548565b908092918237015f815290565b3d15613611573d906135f882612baa565b916136066040519384612b57565b82523d5f602084013e565b606090565b80518210156135d55760209160051b010190565b919073ffffffffffffffffffffffffffffffffffffffff81161561375c57815f52600360205273ffffffffffffffffffffffffffffffffffffffff60405f20541615158061373f575b6137125773ffffffffffffffffffffffffffffffffffffffff613699819284339161528f565b937ff8e1a15aba9398e019f0b49df1a4fde98ee17ae345cb5f6b5e2c27f5033e8ce7604051806136ce87829190602083019252565b0390a1169216918083036136e157505050565b7f64283d7b000000000000000000000000000000000000000000000000000000005f5260045260245260445260645ffd5b7ff53e751a000000000000000000000000000000000000000000000000000000005f52600482905260245ffd5b50815f52600b60205260ff600160405f20015460d01c1615613673565b7f64a0ae92000000000000000000000000000000000000000000000000000000005f525f60045260245ffd5b9081602091031261040e575190565b6040513d5f823e3d90fd5b7f4e487b71000000000000000000000000000000000000000000000000000000005f52601160045260245ffd5b907fffffffffffffffffffffffffffffffffffffffffffffffffffffffffffffffff82019182116137fc57565b6137a2565b919082039182116137fc57565b9081602091031261040e57516105ab816103e4565b613849600161383a835f52600b60205260405f2090565b015460a01c64ffffffffff1690565b64ffffffffff429116116138f557613879600161386e835f52600b60205260405f2090565b015460d81c60ff1690565b6138ef576fffffffffffffffffffffffffffffffff6138cd6138b86138b16138a085614c8f565b1515945f52600b60205260405f2090565b5460801c90565b6fffffffffffffffffffffffffffffffff1690565b16156138e1576138dc57600190565b600290565b6138ea57600390565b600490565b50600590565b505f90565b90929161390881858461362a565b833b613915575b50505050565b60209161395060405194859384937f150b7a020000000000000000000000000000000000000000000000000000000085523360048601614ccc565b03815f73ffffffffffffffffffffffffffffffffffffffff87165af15f9181613a68575b506139d457506139826135e7565b80519190826139cd577f64a0ae92000000000000000000000000000000000000000000000000000000005f5273ffffffffffffffffffffffffffffffffffffffff821660045260245ffd5b9050602001fd5b7fffffffff000000000000000000000000000000000000000000000000000000007f150b7a0200000000000000000000000000000000000000000000000000000000911603613a2757505f80808061390f565b7f64a0ae92000000000000000000000000000000000000000000000000000000005f5273ffffffffffffffffffffffffffffffffffffffff1660045260245ffd5b613a8291925060203d602011612445576124378183612b57565b905f613974565b919082018092116137fc57565b7f4e487b71000000000000000000000000000000000000000000000000000000005f52601260045260245ffd5b8115613acd570490565b613a96565b8115613acd570690565b6fffffffffffffffffffffffffffffffff613b02611687835f52600b60205260405f2090565b16908115613bf557613b2b613b2460026116c5845f52600b60205260405f2090565b8093614d24565b91613b4b6003613b43845f52600b60205260405f2090565b015491614d07565b613b5d613b5784614b19565b83613a89565b613b678286613a89565b1115613bed57613ba091613b8c6138b86138b86138b1875f52600b60205260405f2090565b94030192613b9a8185613ac3565b93613ad2565b613bcc57613bbe600161383a613bc8935f52600b60205260405f2090565b64ffffffffff1690565b0190565b90613be8613bbe600161383a81955f52600b60205260405f2090565b010190565b505050505f90565b7f0f04b2a1000000000000000000000000000000000000000000000000000000005f5260045260245ffd5b805f52600360205273ffffffffffffffffffffffffffffffffffffffff60405f205416908115613c4e575090565b7f7e273289000000000000000000000000000000000000000000000000000000005f5260045260245ffd5b805f52600b60205260ff600160405f20015460c81c1615613c975750565b7f92c38434000000000000000000000000000000000000000000000000000000005f5260045260245ffd5b613ccb81614b19565b815f52600b602052600360405f20015481018091116137fc576105ab915f52600b60205260ff600260405f20015460a01c1690615235565b73ffffffffffffffffffffffffffffffffffffffff7f0000000000000000000000000000000000000000000000000000000000000000163003613d4257565b7fa1c0d6e5000000000000000000000000000000000000000000000000000000005f5260045ffd5b906fffffffffffffffffffffffffffffffff809116911603906fffffffffffffffffffffffffffffffff82116137fc57565b6105ab90805f52600b602052613dc86fffffffffffffffffffffffffffffffff60405f20541691614a21565b90613d6a565b6fffffffffffffffffffffffffffffffff8216801561401b57613df082613d9c565b6fffffffffffffffffffffffffffffffff811690818311613fd35750613e246138b8611687855f52600b60205260405f2090565b10613f705773ffffffffffffffffffffffffffffffffffffffff7fe31f2d40d5780915b1e656a67e11bdf09b0a4a925ec42bbeae220c8ca937ab4991613f4a613e7a60016113c7875f52600b60205260405f2090565b9182613e9360026113c7895f52600b60205260405f2090565b613f17613ea8895f52600b60205260405f2090565b613edc8b613ec683546fffffffffffffffffffffffffffffffff1690565b036fffffffffffffffffffffffffffffffff1690565b6fffffffffffffffffffffffffffffffff167fffffffffffffffffffffffffffffffff00000000000000000000000000000000825416179055565b613f3f8173ffffffffffffffffffffffffffffffffffffffff165f52600760205260405f2090565b838154039055614abc565b6040516fffffffffffffffffffffffffffffffff9095168552169280602081015b0390a3565b6108e58383613f8a611687825f52600b60205260405f2090565b907fcb5f605f000000000000000000000000000000000000000000000000000000005f5292916fffffffffffffffffffffffffffffffff80926064956004521660245216604452565b7fe9771401000000000000000000000000000000000000000000000000000000005f5260048490526fffffffffffffffffffffffffffffffff8086166024521660445260645ffd5b7fea66b871000000000000000000000000000000000000000000000000000000005f52600482905260245ffd5b805f52600b60205264ffffffffff600160405f20015460a01c1664ffffffffff429116116140fe5761407a5f82614b8e565b61409160016113c7835f52600b60205260405f2090565b906140a76115cf825f52600360205260405f2090565b907fda83bf669c651406e02062769e01d14cccb5625ea685fd95e0e56d29597dac4773ffffffffffffffffffffffffffffffffffffffff6140e783613cc2565b60405190815293811694169280602081015b0390a4565b80614119600161383a6108e5945f52600b60205260405f2090565b7f54ae995a000000000000000000000000000000000000000000000000000000005f5260049190915264ffffffffff16602452604490565b805f52600b60205260405f205460801c6141b35761416f8282614b8e565b6040516fffffffffffffffffffffffffffffffff92909216825233917fc2a543cfadbf862642247e28711aaa30e3460384be5712be6557fee3384454fd90602090a3565b7fdc6fbbbc000000000000000000000000000000000000000000000000000000005f5260045260245ffd5b6fffffffffffffffffffffffffffffffff82168015614314575f828152600b60205260409020600281015473ffffffffffffffffffffffffffffffffffffffff16919091816fffffffffffffffffffffffffffffffff808554161601926fffffffffffffffffffffffffffffffff84116137fc576142cd9361429691906fffffffffffffffffffffffffffffffff167fffffffffffffffffffffffffffffffff00000000000000000000000000000000825416179055565b6142be8173ffffffffffffffffffffffffffffffffffffffff165f52600760205260405f2090565b82815401905530903390614340565b6040516fffffffffffffffffffffffffffffffff909216825233917fa06c1466b3c9751408a5ac337a2e8808e5ee0ceed1fd70635d041b21174eb6b4908060208101613f6b565b507f33f2df5a000000000000000000000000000000000000000000000000000000005f5260045260245ffd5b90919273ffffffffffffffffffffffffffffffffffffffff612ba89481604051957f23b872dd0000000000000000000000000000000000000000000000000000000060208801521660248601521660448401526064830152606482526143a7608483612b57565b615474565b9081602091031261040e575160ff8116810361040e5790565b906101206003916144266143e982516fffffffffffffffffffffffffffffffff1690565b85906fffffffffffffffffffffffffffffffff167fffffffffffffffffffffffffffffffff00000000000000000000000000000000825416179055565b61448761444660208301516fffffffffffffffffffffffffffffffff1690565b85546fffffffffffffffffffffffffffffffff1660809190911b7fffffffffffffffffffffffffffffffff0000000000000000000000000000000016178555565b61465d600185016144f36144b2604085015173ffffffffffffffffffffffffffffffffffffffff1690565b829073ffffffffffffffffffffffffffffffffffffffff167fffffffffffffffffffffffff0000000000000000000000000000000000000000825416179055565b614552614508606085015164ffffffffff1690565b82547fffffffffffffff0000000000ffffffffffffffffffffffffffffffffffffffff1660a09190911b78ffffffffff000000000000000000000000000000000000000016178255565b6145ad6145626080850151151590565b82547fffffffffffff00ffffffffffffffffffffffffffffffffffffffffffffffffff1690151560c81b79ff0000000000000000000000000000000000000000000000000016178255565b6146096145bd60a0850151151590565b82547fffffffffff00ffffffffffffffffffffffffffffffffffffffffffffffffffff1690151560d01b7aff000000000000000000000000000000000000000000000000000016178255565b60c0830151151581547fffffffff00ffffffffffffffffffffffffffffffffffffffffffffffffffffff1690151560d81b7bff00000000000000000000000000000000000000000000000000000016179055565b6146d4600285016146886144b260e085015173ffffffffffffffffffffffffffffffffffffffff1690565b61010083015181547fffffffffffffffffffffff00ffffffffffffffffffffffffffffffffffffffff1660a09190911b74ff000000000000000000000000000000000000000016179055565b0151910155565b9395949073ffffffffffffffffffffffffffffffffffffffff85169283156149f95773ffffffffffffffffffffffffffffffffffffffff88169561473460085473ffffffffffffffffffffffffffffffffffffffff1690565b73ffffffffffffffffffffffffffffffffffffffff811688146149b85750604051957f313ce5670000000000000000000000000000000000000000000000000000000087526020876004818b5afa968715611993575f97614987575b50601260ff8816116149455764ffffffffff42169064ffffffffff81168281118061492b575b614903576148fb5750955b600954996147cd612b98565b5f81526fffffffffffffffffffffffffffffffff851660208201529273ffffffffffffffffffffffffffffffffffffffff16604084015264ffffffffff881660608401526001608084015285151560a08401525f60c084015273ffffffffffffffffffffffffffffffffffffffff1660e083015260ff1661010082015261012081015f9052614864895f52600b60205260405f2090565b9061486e916143c5565b61487888836154fb565b60018801600955604080518981523360208201526fffffffffffffffffffffffffffffffff929092169082015264ffffffffff949094166060850152901515608084015273ffffffffffffffffffffffffffffffffffffffff16917fedec8afa4eeca64243a519c152eab5c4f9da1bded6fbb72cba74cd128de683699060a090a4565b9050956147c1565b7fd6d8693d000000000000000000000000000000000000000000000000000000005f5260045ffd5b506fffffffffffffffffffffffffffffffff8516156147b6565b7fc9f55392000000000000000000000000000000000000000000000000000000005f5273ffffffffffffffffffffffffffffffffffffffff881660045260245ffd5b6149aa91975060203d6020116149b1575b6149a28183612b57565b8101906143ac565b955f614790565b503d614998565b7f987f5489000000000000000000000000000000000000000000000000000000005f5273ffffffffffffffffffffffffffffffffffffffff1660045260245ffd5b7ff9bb0fb3000000000000000000000000000000000000000000000000000000005f5260045ffd5b805f52600b6020526fffffffffffffffffffffffffffffffff60405f205416908115614a6557614a5090613cc2565b808210614a61576105ab91506155ef565b5090565b50505f90565b73ffffffffffffffffffffffffffffffffffffffff5f5416803303614a8d5750565b7fa7e1519e000000000000000000000000000000000000000000000000000000005f526004523360245260445ffd5b612ba89273ffffffffffffffffffffffffffffffffffffffff604051937fa9059cbb0000000000000000000000000000000000000000000000000000000060208601521660248401526044830152604482526143a7606483612b57565b805f52600b60205264ffffffffff600160405f20015460a01c169042821015614a65575f52600b6020526fffffffffffffffffffffffffffffffff60405f205460801c16908115614a655742038181029181830414901517156137fc5790565b9081602091031261040e57516105ab81611025565b614ba66138b86138b1835f52600b60205260405f2090565b6fffffffffffffffffffffffffffffffff831614614c4f57906114cc612ba89264ffffffffff42168064ffffffffff614bec600161383a865f52600b60205260405f2090565b1610614c02575b505f52600b60205260405f2090565b614c2a90614c0f83614b19565b80614c30575b50600161146b845f52600b60205260405f2090565b5f614bf3565b614c47600361165e865f52600b60205260405f2090565b90555f614c15565b7fd2657d5a000000000000000000000000000000000000000000000000000000005f526004526fffffffffffffffffffffffffffffffff1660245260445ffd5b805f52600b602052614cb76fffffffffffffffffffffffffffffffff60405f20541691613cc2565b9081811015614a655781039081116137fc5790565b909273ffffffffffffffffffffffffffffffffffffffff608093816105ab979616845216602083015260408201528160608201520190610557565b601260ff821614614d1e5760120360ff16600a0a90565b50600190565b90601260ff821614614a615760120360ff16600a0a0290565b15614d4457565b7f4e487b71000000000000000000000000000000000000000000000000000000005f52600160045260245ffd5b614e076020614d976113e25f5473ffffffffffffffffffffffffffffffffffffffff1690565b614dae60016113c7865f52600b60205260405f2090565b9060405180809581947f419d289d00000000000000000000000000000000000000000000000000000000835260048301919091602073ffffffffffffffffffffffffffffffffffffffff60408301946001845216910152565b03915afa908115611993575f91615216575b508034106151e757506fffffffffffffffffffffffffffffffff83169182156151ba5773ffffffffffffffffffffffffffffffffffffffff811692831561518d57614e6f6115cf845f52600360205260405f2090565b8373ffffffffffffffffffffffffffffffffffffffff82168614159182615175575b505061512957614eae60026116c5855f52600b60205260405f2090565b90614ed7614ebb85614b19565b6003614ecf875f52600b60205260405f2090565b015490613a89565b90614ee28383615235565b91614ef8611687875f52600b60205260405f2090565b93836fffffffffffffffffffffffffffffffff8616105f1461511b57845b6fffffffffffffffffffffffffffffffff811684116150d357506138b861504f7f864d728834a993d067a518141636724c1196e5f004565e5b2a7b174b7f74f99797956150408661500b60028f8e614ffd6113c79273ffffffffffffffffffffffffffffffffffffffff9f9c614f9361506b9f9d6150659e614d24565b906003614fa8865f52600b60205260405f2090565b0154821161509857506003614fc5855f52600b60205260405f2090565b019081540390555b613edc614fe2845f52600b60205260405f2090565b91613ec683546fffffffffffffffffffffffffffffffff1690565b5f52600b60205260405f2090565b986150348a73ffffffffffffffffffffffffffffffffffffffff165f52600760205260405f2090565b82815403905589614abc565b6150498a613cc2565b90613801565b92613dc86116878a5f52600b60205260405f2090565b14614d3d565b604080513381526fffffffffffffffffffffffffffffffff909716602088015291169490819081016140f9565b0360036150ad855f52600b60205260405f2090565b01556150ce64ffffffffff4216600161146b865f52600b60205260405f2090565b614fcd565b7ff9f29859000000000000000000000000000000000000000000000000000000005f5260048890526fffffffffffffffffffffffffffffffff808b166024521660445260645ffd5b615124846155ef565b614f16565b507f4208ab4c000000000000000000000000000000000000000000000000000000005f526004919091523360245273ffffffffffffffffffffffffffffffffffffffff1660445260645ffd5b615186925090611743913390615652565b835f614e91565b7f9f32c858000000000000000000000000000000000000000000000000000000005f52600483905260245ffd5b7fb4855052000000000000000000000000000000000000000000000000000000005f52600482905260245ffd5b7f026dd37d000000000000000000000000000000000000000000000000000000005f523460045260245260445ffd5b61522f915060203d60201161198c5761197d8183612b57565b5f614e19565b90601260ff821614614a615760120360ff16600a0a908115613acd570490565b615267905f52600560205260405f2090565b80547fffffffffffffffffffffffff0000000000000000000000000000000000000000169055565b815f52600360205273ffffffffffffffffffffffffffffffffffffffff60405f2054169273ffffffffffffffffffffffffffffffffffffffff81166153d7575b5073ffffffffffffffffffffffffffffffffffffffff83168061537b575b61532073ffffffffffffffffffffffffffffffffffffffff83169283615347575b610879855f52600360205260405f2090565b7fddf252ad1be2c89b69c2b068fc378daa952ba7f163c4a11628f55a4df523b3ef5f80a490565b61536f8173ffffffffffffffffffffffffffffffffffffffff165f52600460205260405f2090565b6001815401905561530e565b61538483615255565b6153ac8473ffffffffffffffffffffffffffffffffffffffff165f52600460205260405f2090565b7fffffffffffffffffffffffffffffffffffffffffffffffffffffffffffffffff81540190556152ed565b6153e2838286615652565b6152cf57905073ffffffffffffffffffffffffffffffffffffffff831661542f57507f7e273289000000000000000000000000000000000000000000000000000000005f5260045260245ffd5b73ffffffffffffffffffffffffffffffffffffffff907f177e802f000000000000000000000000000000000000000000000000000000005f521660045260245260445ffd5b905f602091828151910182855af115613797575f513d6154f2575073ffffffffffffffffffffffffffffffffffffffff81163b155b6154b05750565b73ffffffffffffffffffffffffffffffffffffffff907f5274afe7000000000000000000000000000000000000000000000000000000005f521660045260245ffd5b600114156154a9565b73ffffffffffffffffffffffffffffffffffffffff81161561375c57815f52600360205273ffffffffffffffffffffffffffffffffffffffff60405f2054161515806155d2575b61371257907ff8e1a15aba9398e019f0b49df1a4fde98ee17ae345cb5f6b5e2c27f5033e8ce761559c61558b5f8473ffffffffffffffffffffffffffffffffffffffff9661528f565b604051938452929081906020820190565b0390a1166155a657565b7f73c6ac6e000000000000000000000000000000000000000000000000000000005f525f60045260245ffd5b50815f52600b60205260ff600160405f20015460d01c1615615542565b6fffffffffffffffffffffffffffffffff811161561b576fffffffffffffffffffffffffffffffff1690565b7f6dfcc650000000000000000000000000000000000000000000000000000000005f52608060045260245260445ffd5b6105ab9133905b9173ffffffffffffffffffffffffffffffffffffffff821690811515938461567c575b5050505090565b73ffffffffffffffffffffffffffffffffffffffff1680831494509192909184156156e3575b505082156156b6575b50505f808080615675565b9091505f52600560205273ffffffffffffffffffffffffffffffffffffffff60405f205416145f806156ab565b60ff9294509061571b915f52600660205260405f209073ffffffffffffffffffffffffffffffffffffffff165f5260205260405f2090565b5416915f806156a256fea26469706673582212201606a0ac71f0440d2bebdfe0e500e20aebd053118ecdaf0d67ef007c6ddfe3a664736f6c634300081d0033",
    "linkReferences": {}
  },
  "methodIdentifiers": {
    "adjustRatePerSecond(uint256,uint128)": "a8a482a6",
    "aggregateAmount(address)": "ec01da3b",
    "approve(address,uint256)": "095ea7b3",
    "balanceOf(address)": "70a08231",
    "batch(bytes[])": "1e897afb",
    "calculateMinFeeWei(uint256)": "cca138e5",
    "comptroller()": "5fe3b567",
    "coveredDebtOf(uint256)": "42e3e23d",
    "create(address,address,uint128,uint40,address,bool)": "5f2a0beb",
    "createAndDeposit(address,address,uint128,uint40,address,bool,uint128)": "36af277f",
    "depletionTimeOf(uint256)": "d4b80884",
    "deposit(uint256,uint128,address,address)": "b61f7583",
    "depositAndPause(uint256,uint128)": "bcbd019e",
    "getApproved(uint256)": "081812fc",
    "getBalance(uint256)": "1e010439",
    "getRatePerSecond(uint256)": "80448da3",
    "getRecipient(uint256)": "6d0cee75",
    "getSender(uint256)": "b971302a",
    "getSnapshotDebtScaled(uint256)": "450ac908",
    "getSnapshotTime(uint256)": "eb5710d8",
    "getStream(uint256)": "894e9a0d",
    "getToken(uint256)": "e4b50cb8",
    "getTokenDecimals(uint256)": "a7de07cd",
    "isApprovedForAll(address,address)": "e985e9c5",
    "isStream(uint256)": "b8a3be66",
    "isTransferable(uint256)": "b2564569",
    "isVoided(uint256)": "569f4c59",
    "name()": "06fdde03",
    "nativeToken()": "e1758bd8",
    "nextStreamId()": "1e99d569",
    "nftDescriptor()": "44267570",
    "ongoingDebtScaledOf(uint256)": "7ddf9228",
    "ownerOf(uint256)": "6352211e",
    "pause(uint256)": "136439dd",
    "recover(address,address)": "648bf774",
    "refund(uint256,uint128)": "81632a86",
    "refundAndPause(uint256,uint128)": "379d871a",
    "refundMax(uint256)": "0c699624",
    "refundableAmountOf(uint256)": "1400ecec",
    "restart(uint256,uint128)": "ebb6f79a",
    "restartAndDeposit(uint256,uint128,uint128)": "1f0cce58",
    "safeTransferFrom(address,address,uint256)": "42842e0e",
    "safeTransferFrom(address,address,uint256,bytes)": "b88d4fde",
    "setApprovalForAll(address,bool)": "a22cb465",
    "setComptroller(address)": "8bad38dd",
    "setNFTDescriptor(address)": "7cad6cd1",
    "setNativeToken(address)": "6da1e102",
    "statusOf(uint256)": "ad35efd4",
    "supportsInterface(bytes4)": "01ffc9a7",
    "symbol()": "95d89b41",
    "tokenURI(uint256)": "c87b56dd",
    "totalDebtOf(uint256)": "08b87923",
    "transferFeesToComptroller()": "78f82ce7",
    "transferFrom(address,address,uint256)": "23b872dd",
    "transferFromPayable(address,address,uint256)": "d90e27d7",
    "transferTokens(address,address,uint128)": "28f8b77d",
    "uncoveredDebtOf(uint256)": "bc7a2d6c",
    "void(uint256)": "5ea2145b",
    "withdraw(uint256,address,uint128)": "fdd46d60",
    "withdrawMax(uint256,address)": "ea5ead19",
    "withdrawableAmountOf(uint256)": "d975dfed"
  },
  "id": 83
}