{
  "abi": [
    {
      "type": "constructor",
      "inputs": [
        {
          "name": "initialComptroller",
          "type": "address",
          "internalType": "address"
        },
        {
          "name": "initialNFTDescriptor",
          "type": "address",
          "internalType": "address"
        }
      ],
      "stateMutability": "nonpayable"
    },
    {
      "type": "function",
      "name": "aggregateAmount",
      "inputs": [
        {
          "name": "token",
          "type": "address",
          "internalType": "contract IERC20"
        }
      ],
      "outputs": [
        {
          "name": "amount",
          "type": "uint256",
          "internalType": "uint256"
        }
      ],
      "stateMutability": "view"
    },
    {
      "type": "function",
      "name": "allowToHook",
      "inputs": [
        {
          "name": "recipient",
          "type": "address",
          "internalType": "address"
        }
      ],
      "outputs": [],
      "stateMutability": "nonpayable"
    },
    {
      "type": "function",
      "name": "approve",
      "inputs": [
        {
          "name": "to",
          "type": "address",
          "internalType": "address"
        },
        {
          "name": "tokenId",
          "type": "uint256",
          "internalType": "uint256"
        }
      ],
      "outputs": [],
      "stateMutability": "nonpayable"
    },
    {
      "type": "function",
      "name": "balanceOf",
      "inputs": [
        {
          "name": "owner",
          "type": "address",
          "internalType": "address"
        }
      ],
      "outputs": [
        {
          "name": "",
          "type": "uint256",
          "internalType": "uint256"
        }
      ],
      "stateMutability": "view"
    },
    {
      "type": "function",
      "name": "batch",
      "inputs": [
        {
          "name": "calls",
          "type": "bytes[]",
          "internalType": "bytes[]"
        }
      ],
      "outputs": [
        {
          "name": "results",
          "type": "bytes[]",
          "internalType": "bytes[]"
        }
      ],
      "stateMutability": "payable"
    },
    {
      "type": "function",
      "name": "burn",
      "inputs": [
        {
          "name": "streamId",
          "type": "uint256",
          "internalType": "uint256"
        }
      ],
      "outputs": [],
      "stateMutability": "payable"
    },
    {
      "type": "function",
      "name": "calculateMinFeeWei",
      "inputs": [
        {
          "name": "streamId",
          "type": "uint256",
          "internalType": "uint256"
        }
      ],
      "outputs": [
        {
          "name": "minFeeWei",
          "type": "uint256",
          "internalType": "uint256"
        }
      ],
      "stateMutability": "view"
    },
    {
      "type": "function",
      "name": "cancel",
      "inputs": [
        {
          "name": "streamId",
          "type": "uint256",
          "internalType": "uint256"
        }
      ],
      "outputs": [
        {
          "name": "refundedAmount",
          "type": "uint128",
          "internalType": "uint128"
        }
      ],
      "stateMutability": "payable"
    },
    {
      "type": "function",
      "name": "cancelMultiple",
      "inputs": [
        {
          "name": "streamIds",
          "type": "uint256[]",
          "internalType": "uint256[]"
        }
      ],
      "outputs": [
        {
          "name": "refundedAmounts",
          "type": "uint128[]",
          "internalType": "uint128[]"
        }
      ],
      "stateMutability": "payable"
    },
    {
      "type": "function",
      "name": "comptroller",
      "inputs": [],
      "outputs": [
        {
          "name": "",
          "type": "address",
          "internalType": "contract ISablierComptroller"
        }
      ],
      "stateMutability": "view"
    },
    {
      "type": "function",
      "name": "createWithDurationsLD",
      "inputs": [
        {
          "name": "params",
          "type": "tuple",
          "internalType": "struct Lockup.CreateWithDurations",
          "components": [
            {
              "name": "sender",
              "type": "address",
              "internalType": "address"
            },
            {
              "name": "recipient",
              "type": "address",
              "internalType": "address"
            },
            {
              "name": "depositAmount",
              "type": "uint128",
              "internalType": "uint128"
            },
            {
              "name": "token",
              "type": "address",
              "internalType": "contract IERC20"
            },
            {
              "name": "cancelable",
              "type": "bool",
              "internalType": "bool"
            },
            {
              "name": "transferable",
              "type": "bool",
              "internalType": "bool"
            },
            {
              "name": "shape",
              "type": "string",
              "internalType": "string"
            }
          ]
        },
        {
          "name": "segmentsWithDuration",
          "type": "tuple[]",
          "internalType": "struct LockupDynamic.SegmentWithDuration[]",
          "components": [
            {
              "name": "amount",
              "type": "uint128",
              "internalType": "uint128"
            },
            {
              "name": "exponent",
              "type": "uint64",
              "internalType": "UD2x18"
            },
            {
              "name": "duration",
              "type": "uint40",
              "internalType": "uint40"
            }
          ]
        }
      ],
      "outputs": [
        {
          "name": "streamId",
          "type": "uint256",
          "internalType": "uint256"
        }
      ],
      "stateMutability": "payable"
    },
    {
      "type": "function",
      "name": "createWithDurationsLL",
      "inputs": [
        {
          "name": "params",
          "type": "tuple",
          "internalType": "struct Lockup.CreateWithDurations",
          "components": [
            {
              "name": "sender",
              "type": "address",
              "internalType": "address"
            },
            {
              "name": "recipient",
              "type": "address",
              "internalType": "address"
            },
            {
              "name": "depositAmount",
              "type": "uint128",
              "internalType": "uint128"
            },
            {
              "name": "token",
              "type": "address",
              "internalType": "contract IERC20"
            },
            {
              "name": "cancelable",
              "type": "bool",
              "internalType": "bool"
            },
            {
              "name": "transferable",
              "type": "bool",
              "internalType": "bool"
            },
            {
              "name": "shape",
              "type": "string",
              "internalType": "string"
            }
          ]
        },
        {
          "name": "unlockAmounts",
          "type": "tuple",
          "internalType": "struct LockupLinear.UnlockAmounts",
          "components": [
            {
              "name": "start",
              "type": "uint128",
              "internalType": "uint128"
            },
            {
              "name": "cliff",
              "type": "uint128",
              "internalType": "uint128"
            }
          ]
        },
        {
          "name": "granularity",
          "type": "uint40",
          "internalType": "uint40"
        },
        {
          "name": "durations",
          "type": "tuple",
          "internalType": "struct LockupLinear.Durations",
          "components": [
            {
              "name": "cliff",
              "type": "uint40",
              "internalType": "uint40"
            },
            {
              "name": "total",
              "type": "uint40",
              "internalType": "uint40"
            }
          ]
        }
      ],
      "outputs": [
        {
          "name": "streamId",
          "type": "uint256",
          "internalType": "uint256"
        }
      ],
      "stateMutability": "payable"
    },
    {
      "type": "function",
      "name": "createWithDurationsLT",
      "inputs": [
        {
          "name": "params",
          "type": "tuple",
          "internalType": "struct Lockup.CreateWithDurations",
          "components": [
            {
              "name": "sender",
              "type": "address",
              "internalType": "address"
            },
            {
              "name": "recipient",
              "type": "address",
              "internalType": "address"
            },
            {
              "name": "depositAmount",
              "type": "uint128",
              "internalType": "uint128"
            },
            {
              "name": "token",
              "type": "address",
              "internalType": "contract IERC20"
            },
            {
              "name": "cancelable",
              "type": "bool",
              "internalType": "bool"
            },
            {
              "name": "transferable",
              "type": "bool",
              "internalType": "bool"
            },
            {
              "name": "shape",
              "type": "string",
              "internalType": "string"
            }
          ]
        },
        {
          "name": "tranchesWithDuration",
          "type": "tuple[]",
          "internalType": "struct LockupTranched.TrancheWithDuration[]",
          "components": [
            {
              "name": "amount",
              "type": "uint128",
              "internalType": "uint128"
            },
            {
              "name": "duration",
              "type": "uint40",
              "internalType": "uint40"
            }
          ]
        }
      ],
      "outputs": [
        {
          "name": "streamId",
          "type": "uint256",
          "internalType": "uint256"
        }
      ],
      "stateMutability": "payable"
    },
    {
      "type": "function",
      "name": "createWithTimestampsLD",
      "inputs": [
        {
          "name": "params",
          "type": "tuple",
          "internalType": "struct Lockup.CreateWithTimestamps",
          "components": [
            {
              "name": "sender",
              "type": "address",
              "internalType": "address"
            },
            {
              "name": "recipient",
              "type": "address",
              "internalType": "address"
            },
            {
              "name": "depositAmount",
              "type": "uint128",
              "internalType": "uint128"
            },
            {
              "name": "token",
              "type": "address",
              "internalType": "contract IERC20"
            },
            {
              "name": "cancelable",
              "type": "bool",
              "internalType": "bool"
            },
            {
              "name": "transferable",
              "type": "bool",
              "internalType": "bool"
            },
            {
              "name": "timestamps",
              "type": "tuple",
              "internalType": "struct Lockup.Timestamps",
              "components": [
                {
                  "name": "start",
                  "type": "uint40",
                  "internalType": "uint40"
                },
                {
                  "name": "end",
                  "type": "uint40",
                  "internalType": "uint40"
                }
              ]
            },
            {
              "name": "shape",
              "type": "string",
              "internalType": "string"
            }
          ]
        },
        {
          "name": "segments",
          "type": "tuple[]",
          "internalType": "struct LockupDynamic.Segment[]",
          "components": [
            {
              "name": "amount",
              "type": "uint128",
              "internalType": "uint128"
            },
            {
              "name": "exponent",
              "type": "uint64",
              "internalType": "UD2x18"
            },
            {
              "name": "timestamp",
              "type": "uint40",
              "internalType": "uint40"
            }
          ]
        }
      ],
      "outputs": [
        {
          "name": "streamId",
          "type": "uint256",
          "internalType": "uint256"
        }
      ],
      "stateMutability": "payable"
    },
    {
      "type": "function",
      "name": "createWithTimestampsLL",
      "inputs": [
        {
          "name": "params",
          "type": "tuple",
          "internalType": "struct Lockup.CreateWithTimestamps",
          "components": [
            {
              "name": "sender",
              "type": "address",
              "internalType": "address"
            },
            {
              "name": "recipient",
              "type": "address",
              "internalType": "address"
            },
            {
              "name": "depositAmount",
              "type": "uint128",
              "internalType": "uint128"
            },
            {
              "name": "token",
              "type": "address",
              "internalType": "contract IERC20"
            },
            {
              "name": "cancelable",
              "type": "bool",
              "internalType": "bool"
            },
            {
              "name": "transferable",
              "type": "bool",
              "internalType": "bool"
            },
            {
              "name": "timestamps",
              "type": "tuple",
              "internalType": "struct Lockup.Timestamps",
              "components": [
                {
                  "name": "start",
                  "type": "uint40",
                  "internalType": "uint40"
                },
                {
                  "name": "end",
                  "type": "uint40",
                  "internalType": "uint40"
                }
              ]
            },
            {
              "name": "shape",
              "type": "string",
              "internalType": "string"
            }
          ]
        },
        {
          "name": "unlockAmounts",
          "type": "tuple",
          "internalType": "struct LockupLinear.UnlockAmounts",
          "components": [
            {
              "name": "start",
              "type": "uint128",
              "internalType": "uint128"
            },
            {
              "name": "cliff",
              "type": "uint128",
              "internalType": "uint128"
            }
          ]
        },
        {
          "name": "granularity",
          "type": "uint40",
          "internalType": "uint40"
        },
        {
          "name": "cliffTime",
          "type": "uint40",
          "internalType": "uint40"
        }
      ],
      "outputs": [
        {
          "name": "streamId",
          "type": "uint256",
          "internalType": "uint256"
        }
      ],
      "stateMutability": "payable"
    },
    {
      "type": "function",
      "name": "createWithTimestampsLPG",
      "inputs": [
        {
          "name": "params",
          "type": "tuple",
          "internalType": "struct Lockup.CreateWithTimestamps",
          "components": [
            {
              "name": "sender",
              "type": "address",
              "internalType": "address"
            },
            {
              "name": "recipient",
              "type": "address",
              "internalType": "address"
            },
            {
              "name": "depositAmount",
              "type": "uint128",
              "internalType": "uint128"
            },
            {
              "name": "token",
              "type": "address",
              "internalType": "contract IERC20"
            },
            {
              "name": "cancelable",
              "type": "bool",
              "internalType": "bool"
            },
            {
              "name": "transferable",
              "type": "bool",
              "internalType": "bool"
            },
            {
              "name": "timestamps",
              "type": "tuple",
              "internalType": "struct Lockup.Timestamps",
              "components": [
                {
                  "name": "start",
                  "type": "uint40",
                  "internalType": "uint40"
                },
                {
                  "name": "end",
                  "type": "uint40",
                  "internalType": "uint40"
                }
              ]
            },
            {
              "name": "shape",
              "type": "string",
              "internalType": "string"
            }
          ]
        },
        {
          "name": "unlockParams",
          "type": "tuple",
          "internalType": "struct LockupPriceGated.UnlockParams",
          "components": [
            {
              "name": "oracle",
              "type": "address",
              "internalType": "contract AggregatorV3Interface"
            },
            {
              "name": "targetPrice",
              "type": "uint128",
              "internalType": "uint128"
            }
          ]
        }
      ],
      "outputs": [
        {
          "name": "streamId",
          "type": "uint256",
          "internalType": "uint256"
        }
      ],
      "stateMutability": "payable"
    },
    {
      "type": "function",
      "name": "createWithTimestampsLT",
      "inputs": [
        {
          "name": "params",
          "type": "tuple",
          "internalType": "struct Lockup.CreateWithTimestamps",
          "components": [
            {
              "name": "sender",
              "type": "address",
              "internalType": "address"
            },
            {
              "name": "recipient",
              "type": "address",
              "internalType": "address"
            },
            {
              "name": "depositAmount",
              "type": "uint128",
              "internalType": "uint128"
            },
            {
              "name": "token",
              "type": "address",
              "internalType": "contract IERC20"
            },
            {
              "name": "cancelable",
              "type": "bool",
              "internalType": "bool"
            },
            {
              "name": "transferable",
              "type": "bool",
              "internalType": "bool"
            },
            {
              "name": "timestamps",
              "type": "tuple",
              "internalType": "struct Lockup.Timestamps",
              "components": [
                {
                  "name": "start",
                  "type": "uint40",
                  "internalType": "uint40"
                },
                {
                  "name": "end",
                  "type": "uint40",
                  "internalType": "uint40"
                }
              ]
            },
            {
              "name": "shape",
              "type": "string",
              "internalType": "string"
            }
          ]
        },
        {
          "name": "tranches",
          "type": "tuple[]",
          "internalType": "struct LockupTranched.Tranche[]",
          "components": [
            {
              "name": "amount",
              "type": "uint128",
              "internalType": "uint128"
            },
            {
              "name": "timestamp",
              "type": "uint40",
              "internalType": "uint40"
            }
          ]
        }
      ],
      "outputs": [
        {
          "name": "streamId",
          "type": "uint256",
          "internalType": "uint256"
        }
      ],
      "stateMutability": "payable"
    },
    {
      "type": "function",
      "name": "getApproved",
      "inputs": [
        {
          "name": "tokenId",
          "type": "uint256",
          "internalType": "uint256"
        }
      ],
      "outputs": [
        {
          "name": "",
          "type": "address",
          "internalType": "address"
        }
      ],
      "stateMutability": "view"
    },
    {
      "type": "function",
      "name": "getCliffTime",
      "inputs": [
        {
          "name": "streamId",
          "type": "uint256",
          "internalType": "uint256"
        }
      ],
      "outputs": [
        {
          "name": "cliffTime",
          "type": "uint40",
          "internalType": "uint40"
        }
      ],
      "stateMutability": "view"
    },
    {
      "type": "function",
      "name": "getDepositedAmount",
      "inputs": [
        {
          "name": "streamId",
          "type": "uint256",
          "internalType": "uint256"
        }
      ],
      "outputs": [
        {
          "name": "depositedAmount",
          "type": "uint128",
          "internalType": "uint128"
        }
      ],
      "stateMutability": "view"
    },
    {
      "type": "function",
      "name": "getEndTime",
      "inputs": [
        {
          "name": "streamId",
          "type": "uint256",
          "internalType": "uint256"
        }
      ],
      "outputs": [
        {
          "name": "endTime",
          "type": "uint40",
          "internalType": "uint40"
        }
      ],
      "stateMutability": "view"
    },
    {
      "type": "function",
      "name": "getGranularity",
      "inputs": [
        {
          "name": "streamId",
          "type": "uint256",
          "internalType": "uint256"
        }
      ],
      "outputs": [
        {
          "name": "granularity",
          "type": "uint40",
          "internalType": "uint40"
        }
      ],
      "stateMutability": "view"
    },
    {
      "type": "function",
      "name": "getLockupModel",
      "inputs": [
        {
          "name": "streamId",
          "type": "uint256",
          "internalType": "uint256"
        }
      ],
      "outputs": [
        {
          "name": "lockupModel",
          "type": "uint8",
          "internalType": "enum Lockup.Model"
        }
      ],
      "stateMutability": "view"
    },
    {
      "type": "function",
      "name": "getPriceGatedUnlockParams",
      "inputs": [
        {
          "name": "streamId",
          "type": "uint256",
          "internalType": "uint256"
        }
      ],
      "outputs": [
        {
          "name": "unlockParams",
          "type": "tuple",
          "internalType": "struct LockupPriceGated.UnlockParams",
          "components": [
            {
              "name": "oracle",
              "type": "address",
              "internalType": "contract AggregatorV3Interface"
            },
            {
              "name": "targetPrice",
              "type": "uint128",
              "internalType": "uint128"
            }
          ]
        }
      ],
      "stateMutability": "view"
    },
    {
      "type": "function",
      "name": "getRecipient",
      "inputs": [
        {
          "name": "streamId",
          "type": "uint256",
          "internalType": "uint256"
        }
      ],
      "outputs": [
        {
          "name": "recipient",
          "type": "address",
          "internalType": "address"
        }
      ],
      "stateMutability": "view"
    },
    {
      "type": "function",
      "name": "getRefundedAmount",
      "inputs": [
        {
          "name": "streamId",
          "type": "uint256",
          "internalType": "uint256"
        }
      ],
      "outputs": [
        {
          "name": "refundedAmount",
          "type": "uint128",
          "internalType": "uint128"
        }
      ],
      "stateMutability": "view"
    },
    {
      "type": "function",
      "name": "getSegments",
      "inputs": [
        {
          "name": "streamId",
          "type": "uint256",
          "internalType": "uint256"
        }
      ],
      "outputs": [
        {
          "name": "segments",
          "type": "tuple[]",
          "internalType": "struct LockupDynamic.Segment[]",
          "components": [
            {
              "name": "amount",
              "type": "uint128",
              "internalType": "uint128"
            },
            {
              "name": "exponent",
              "type": "uint64",
              "internalType": "UD2x18"
            },
            {
              "name": "timestamp",
              "type": "uint40",
              "internalType": "uint40"
            }
          ]
        }
      ],
      "stateMutability": "view"
    },
    {
      "type": "function",
      "name": "getSender",
      "inputs": [
        {
          "name": "streamId",
          "type": "uint256",
          "internalType": "uint256"
        }
      ],
      "outputs": [
        {
          "name": "sender",
          "type": "address",
          "internalType": "address"
        }
      ],
      "stateMutability": "view"
    },
    {
      "type": "function",
      "name": "getStartTime",
      "inputs": [
        {
          "name": "streamId",
          "type": "uint256",
          "internalType": "uint256"
        }
      ],
      "outputs": [
        {
          "name": "startTime",
          "type": "uint40",
          "internalType": "uint40"
        }
      ],
      "stateMutability": "view"
    },
    {
      "type": "function",
      "name": "getTranches",
      "inputs": [
        {
          "name": "streamId",
          "type": "uint256",
          "internalType": "uint256"
        }
      ],
      "outputs": [
        {
          "name": "tranches",
          "type": "tuple[]",
          "internalType": "struct LockupTranched.Tranche[]",
          "components": [
            {
              "name": "amount",
              "type": "uint128",
              "internalType": "uint128"
            },
            {
              "name": "timestamp",
              "type": "uint40",
              "internalType": "uint40"
            }
          ]
        }
      ],
      "stateMutability": "view"
    },
    {
      "type": "function",
      "name": "getUnderlyingToken",
      "inputs": [
        {
          "name": "streamId",
          "type": "uint256",
          "internalType": "uint256"
        }
      ],
      "outputs": [
        {
          "name": "token",
          "type": "address",
          "internalType": "contract IERC20"
        }
      ],
      "stateMutability": "view"
    },
    {
      "type": "function",
      "name": "getUnlockAmounts",
      "inputs": [
        {
          "name": "streamId",
          "type": "uint256",
          "internalType": "uint256"
        }
      ],
      "outputs": [
        {
          "name": "unlockAmounts",
          "type": "tuple",
          "internalType": "struct LockupLinear.UnlockAmounts",
          "components": [
            {
              "name": "start",
              "type": "uint128",
              "internalType": "uint128"
            },
            {
              "name": "cliff",
              "type": "uint128",
              "internalType": "uint128"
            }
          ]
        }
      ],
      "stateMutability": "view"
    },
    {
      "type": "function",
      "name": "getWithdrawnAmount",
      "inputs": [
        {
          "name": "streamId",
          "type": "uint256",
          "internalType": "uint256"
        }
      ],
      "outputs": [
        {
          "name": "withdrawnAmount",
          "type": "uint128",
          "internalType": "uint128"
        }
      ],
      "stateMutability": "view"
    },
    {
      "type": "function",
      "name": "isAllowedToHook",
      "inputs": [
        {
          "name": "recipient",
          "type": "address",
          "internalType": "address"
        }
      ],
      "outputs": [
        {
          "name": "result",
          "type": "bool",
          "internalType": "bool"
        }
      ],
      "stateMutability": "view"
    },
    {
      "type": "function",
      "name": "isApprovedForAll",
      "inputs": [
        {
          "name": "owner",
          "type": "address",
          "internalType": "address"
        },
        {
          "name": "operator",
          "type": "address",
          "internalType": "address"
        }
      ],
      "outputs": [
        {
          "name": "",
          "type": "bool",
          "internalType": "bool"
        }
      ],
      "stateMutability": "view"
    },
    {
      "type": "function",
      "name": "isCancelable",
      "inputs": [
        {
          "name": "streamId",
          "type": "uint256",
          "internalType": "uint256"
        }
      ],
      "outputs": [
        {
          "name": "result",
          "type": "bool",
          "internalType": "bool"
        }
      ],
      "stateMutability": "view"
    },
    {
      "type": "function",
      "name": "isCold",
      "inputs": [
        {
          "name": "streamId",
          "type": "uint256",
          "internalType": "uint256"
        }
      ],
      "outputs": [
        {
          "name": "result",
          "type": "bool",
          "internalType": "bool"
        }
      ],
      "stateMutability": "view"
    },
    {
      "type": "function",
      "name": "isDepleted",
      "inputs": [
        {
          "name": "streamId",
          "type": "uint256",
          "internalType": "uint256"
        }
      ],
      "outputs": [
        {
          "name": "result",
          "type": "bool",
          "internalType": "bool"
        }
      ],
      "stateMutability": "view"
    },
    {
      "type": "function",
      "name": "isStream",
      "inputs": [
        {
          "name": "streamId",
          "type": "uint256",
          "internalType": "uint256"
        }
      ],
      "outputs": [
        {
          "name": "result",
          "type": "bool",
          "internalType": "bool"
        }
      ],
      "stateMutability": "view"
    },
    {
      "type": "function",
      "name": "isTransferable",
      "inputs": [
        {
          "name": "streamId",
          "type": "uint256",
          "internalType": "uint256"
        }
      ],
      "outputs": [
        {
          "name": "result",
          "type": "bool",
          "internalType": "bool"
        }
      ],
      "stateMutability": "view"
    },
    {
      "type": "function",
      "name": "isWarm",
      "inputs": [
        {
          "name": "streamId",
          "type": "uint256",
          "internalType": "uint256"
        }
      ],
      "outputs": [
        {
          "name": "result",
          "type": "bool",
          "internalType": "bool"
        }
      ],
      "stateMutability": "view"
    },
    {
      "type": "function",
      "name": "name",
      "inputs": [],
      "outputs": [
        {
          "name": "",
          "type": "string",
          "internalType": "string"
        }
      ],
      "stateMutability": "view"
    },
    {
      "type": "function",
      "name": "nativeToken",
      "inputs": [],
      "outputs": [
        {
          "name": "",
          "type": "address",
          "internalType": "address"
        }
      ],
      "stateMutability": "view"
    },
    {
      "type": "function",
      "name": "nextStreamId",
      "inputs": [],
      "outputs": [
        {
          "name": "",
          "type": "uint256",
          "internalType": "uint256"
        }
      ],
      "stateMutability": "view"
    },
    {
      "type": "function",
      "name": "nftDescriptor",
      "inputs": [],
      "outputs": [
        {
          "name": "",
          "type": "address",
          "internalType": "contract ILockupNFTDescriptor"
        }
      ],
      "stateMutability": "view"
    },
    {
      "type": "function",
      "name": "ownerOf",
      "inputs": [
        {
          "name": "tokenId",
          "type": "uint256",
          "internalType": "uint256"
        }
      ],
      "outputs": [
        {
          "name": "",
          "type": "address",
          "internalType": "address"
        }
      ],
      "stateMutability": "view"
    },
    {
      "type": "function",
      "name": "recover",
      "inputs": [
        {
          "name": "token",
          "type": "address",
          "internalType": "contract IERC20"
        },
        {
          "name": "to",
          "type": "address",
          "internalType": "address"
        }
      ],
      "outputs": [],
      "stateMutability": "nonpayable"
    },
    {
      "type": "function",
      "name": "refundableAmountOf",
      "inputs": [
        {
          "name": "streamId",
          "type": "uint256",
          "internalType": "uint256"
        }
      ],
      "outputs": [
        {
          "name": "refundableAmount",
          "type": "uint128",
          "internalType": "uint128"
        }
      ],
      "stateMutability": "view"
    },
    {
      "type": "function",
      "name": "renounce",
      "inputs": [
        {
          "name": "streamId",
          "type": "uint256",
          "internalType": "uint256"
        }
      ],
      "outputs": [],
      "stateMutability": "payable"
    },
    {
      "type": "function",
      "name": "safeTransferFrom",
      "inputs": [
        {
          "name": "from",
          "type": "address",
          "internalType": "address"
        },
        {
          "name": "to",
          "type": "address",
          "internalType": "address"
        },
        {
          "name": "tokenId",
          "type": "uint256",
          "internalType": "uint256"
        }
      ],
      "outputs": [],
      "stateMutability": "nonpayable"
    },
    {
      "type": "function",
      "name": "safeTransferFrom",
      "inputs": [
        {
          "name": "from",
          "type": "address",
          "internalType": "address"
        },
        {
          "name": "to",
          "type": "address",
          "internalType": "address"
        },
        {
          "name": "tokenId",
          "type": "uint256",
          "internalType": "uint256"
        },
        {
          "name": "data",
          "type": "bytes",
          "internalType": "bytes"
        }
      ],
      "outputs": [],
      "stateMutability": "nonpayable"
    },
    {
      "type": "function",
      "name": "setApprovalForAll",
      "inputs": [
        {
          "name": "operator",
          "type": "address",
          "internalType": "address"
        },
        {
          "name": "approved",
          "type": "bool",
          "internalType": "bool"
        }
      ],
      "outputs": [],
      "stateMutability": "nonpayable"
    },
    {
      "type": "function",
      "name": "setComptroller",
      "inputs": [
        {
          "name": "newComptroller",
          "type": "address",
          "internalType": "contract ISablierComptroller"
        }
      ],
      "outputs": [],
      "stateMutability": "nonpayable"
    },
    {
      "type": "function",
      "name": "setNFTDescriptor",
      "inputs": [
        {
          "name": "newNFTDescriptor",
          "type": "address",
          "internalType": "contract ILockupNFTDescriptor"
        }
      ],
      "outputs": [],
      "stateMutability": "nonpayable"
    },
    {
      "type": "function",
      "name": "setNativeToken",
      "inputs": [
        {
          "name": "newNativeToken",
          "type": "address",
          "internalType": "address"
        }
      ],
      "outputs": [],
      "stateMutability": "nonpayable"
    },
    {
      "type": "function",
      "name": "statusOf",
      "inputs": [
        {
          "name": "streamId",
          "type": "uint256",
          "internalType": "uint256"
        }
      ],
      "outputs": [
        {
          "name": "status",
          "type": "uint8",
          "internalType": "enum Lockup.Status"
        }
      ],
      "stateMutability": "view"
    },
    {
      "type": "function",
      "name": "streamedAmountOf",
      "inputs": [
        {
          "name": "streamId",
          "type": "uint256",
          "internalType": "uint256"
        }
      ],
      "outputs": [
        {
          "name": "streamedAmount",
          "type": "uint128",
          "internalType": "uint128"
        }
      ],
      "stateMutability": "view"
    },
    {
      "type": "function",
      "name": "supportsInterface",
      "inputs": [
        {
          "name": "interfaceId",
          "type": "bytes4",
          "internalType": "bytes4"
        }
      ],
      "outputs": [
        {
          "name": "",
          "type": "bool",
          "internalType": "bool"
        }
      ],
      "stateMutability": "view"
    },
    {
      "type": "function",
      "name": "symbol",
      "inputs": [],
      "outputs": [
        {
          "name": "",
          "type": "string",
          "internalType": "string"
        }
      ],
      "stateMutability": "view"
    },
    {
      "type": "function",
      "name": "tokenURI",
      "inputs": [
        {
          "name": "streamId",
          "type": "uint256",
          "internalType": "uint256"
        }
      ],
      "outputs": [
        {
          "name": "uri",
          "type": "string",
          "internalType": "string"
        }
      ],
      "stateMutability": "view"
    },
    {
      "type": "function",
      "name": "transferFeesToComptroller",
      "inputs": [],
      "outputs": [],
      "stateMutability": "nonpayable"
    },
    {
      "type": "function",
      "name": "transferFrom",
      "inputs": [
        {
          "name": "from",
          "type": "address",
          "internalType": "address"
        },
        {
          "name": "to",
          "type": "address",
          "internalType": "address"
        },
        {
          "name": "tokenId",
          "type": "uint256",
          "internalType": "uint256"
        }
      ],
      "outputs": [],
      "stateMutability": "nonpayable"
    },
    {
      "type": "function",
      "name": "wasCanceled",
      "inputs": [
        {
          "name": "streamId",
          "type": "uint256",
          "internalType": "uint256"
        }
      ],
      "outputs": [
        {
          "name": "result",
          "type": "bool",
          "internalType": "bool"
        }
      ],
      "stateMutability": "view"
    },
    {
      "type": "function",
      "name": "withdraw",
      "inputs": [
        {
          "name": "streamId",
          "type": "uint256",
          "internalType": "uint256"
        },
        {
          "name": "to",
          "type": "address",
          "internalType": "address"
        },
        {
          "name": "amount",
          "type": "uint128",
          "internalType": "uint128"
        }
      ],
      "outputs": [],
      "stateMutability": "payable"
    },
    {
      "type": "function",
      "name": "withdrawMax",
      "inputs": [
        {
          "name": "streamId",
          "type": "uint256",
          "internalType": "uint256"
        },
        {
          "name": "to",
          "type": "address",
          "internalType": "address"
        }
      ],
      "outputs": [
        {
          "name": "withdrawnAmount",
          "type": "uint128",
          "internalType": "uint128"
        }
      ],
      "stateMutability": "payable"
    },
    {
      "type": "function",
      "name": "withdrawMaxAndTransfer",
      "inputs": [
        {
          "name": "streamId",
          "type": "uint256",
          "internalType": "uint256"
        },
        {
          "name": "newRecipient",
          "type": "address",
          "internalType": "address"
        }
      ],
      "outputs": [
        {
          "name": "withdrawnAmount",
          "type": "uint128",
          "internalType": "uint128"
        }
      ],
      "stateMutability": "payable"
    },
    {
      "type": "function",
      "name": "withdrawMultiple",
      "inputs": [
        {
          "name": "streamIds",
          "type": "uint256[]",
          "internalType": "uint256[]"
        },
        {
          "name": "amounts",
          "type": "uint128[]",
          "internalType": "uint128[]"
        }
      ],
      "outputs": [],
      "stateMutability": "payable"
    },
    {
      "type": "function",
      "name": "withdrawableAmountOf",
      "inputs": [
        {
          "name": "streamId",
          "type": "uint256",
          "internalType": "uint256"
        }
      ],
      "outputs": [
        {
          "name": "withdrawableAmount",
          "type": "uint128",
          "internalType": "uint128"
        }
      ],
      "stateMutability": "view"
    },
    {
      "type": "event",
      "name": "AllowToHook",
      "inputs": [
        {
          "name": "comptroller",
          "type": "address",
          "indexed": true,
          "internalType": "contract ISablierComptroller"
        },
        {
          "name": "recipient",
          "type": "address",
          "indexed": true,
          "internalType": "address"
        }
      ],
      "anonymous": false
    },
    {
      "type": "event",
      "name": "Approval",
      "inputs": [
        {
          "name": "owner",
          "type": "address",
          "indexed": true,
          "internalType": "address"
        },
        {
          "name": "approved",
          "type": "address",
          "indexed": true,
          "internalType": "address"
        },
        {
          "name": "tokenId",
          "type": "uint256",
          "indexed": true,
          "internalType": "uint256"
        }
      ],
      "anonymous": false
    },
    {
      "type": "event",
      "name": "ApprovalForAll",
      "inputs": [
        {
          "name": "owner",
          "type": "address",
          "indexed": true,
          "internalType": "address"
        },
        {
          "name": "operator",
          "type": "address",
          "indexed": true,
          "internalType": "address"
        },
        {
          "name": "approved",
          "type": "bool",
          "indexed": false,
          "internalType": "bool"
        }
      ],
      "anonymous": false
    },
    {
      "type": "event",
      "name": "BatchMetadataUpdate",
      "inputs": [
        {
          "name": "_fromTokenId",
          "type": "uint256",
          "indexed": false,
          "internalType": "uint256"
        },
        {
          "name": "_toTokenId",
          "type": "uint256",
          "indexed": false,
          "internalType": "uint256"
        }
      ],
      "anonymous": false
    },
    {
      "type": "event",
      "name": "CancelLockupStream",
      "inputs": [
        {
          "name": "streamId",
          "type": "uint256",
          "indexed": false,
          "internalType": "uint256"
        },
        {
          "name": "sender",
          "type": "address",
          "indexed": true,
          "internalType": "address"
        },
        {
          "name": "recipient",
          "type": "address",
          "indexed": true,
          "internalType": "address"
        },
        {
          "name": "token",
          "type": "address",
          "indexed": true,
          "internalType": "contract IERC20"
        },
        {
          "name": "senderAmount",
          "type": "uint128",
          "indexed": false,
          "internalType": "uint128"
        },
        {
          "name": "recipientAmount",
          "type": "uint128",
          "indexed": false,
          "internalType": "uint128"
        }
      ],
      "anonymous": false
    },
    {
      "type": "event",
      "name": "CreateLockupDynamicStream",
      "inputs": [
        {
          "name": "streamId",
          "type": "uint256",
          "indexed": true,
          "internalType": "uint256"
        },
        {
          "name": "commonParams",
          "type": "tuple",
          "indexed": false,
          "internalType": "struct Lockup.CreateEventCommon",
          "components": [
            {
              "name": "funder",
              "type": "address",
              "internalType": "address"
            },
            {
              "name": "sender",
              "type": "address",
              "internalType": "address"
            },
            {
              "name": "recipient",
              "type": "address",
              "internalType": "address"
            },
            {
              "name": "depositAmount",
              "type": "uint128",
              "internalType": "uint128"
            },
            {
              "name": "token",
              "type": "address",
              "internalType": "contract IERC20"
            },
            {
              "name": "cancelable",
              "type": "bool",
              "internalType": "bool"
            },
            {
              "name": "transferable",
              "type": "bool",
              "internalType": "bool"
            },
            {
              "name": "timestamps",
              "type": "tuple",
              "internalType": "struct Lockup.Timestamps",
              "components": [
                {
                  "name": "start",
                  "type": "uint40",
                  "internalType": "uint40"
                },
                {
                  "name": "end",
                  "type": "uint40",
                  "internalType": "uint40"
                }
              ]
            },
            {
              "name": "shape",
              "type": "string",
              "internalType": "string"
            }
          ]
        },
        {
          "name": "segments",
          "type": "tuple[]",
          "indexed": false,
          "internalType": "struct LockupDynamic.Segment[]",
          "components": [
            {
              "name": "amount",
              "type": "uint128",
              "internalType": "uint128"
            },
            {
              "name": "exponent",
              "type": "uint64",
              "internalType": "UD2x18"
            },
            {
              "name": "timestamp",
              "type": "uint40",
              "internalType": "uint40"
            }
          ]
        }
      ],
      "anonymous": false
    },
    {
      "type": "event",
      "name": "CreateLockupLinearStream",
      "inputs": [
        {
          "name": "streamId",
          "type": "uint256",
          "indexed": true,
          "internalType": "uint256"
        },
        {
          "name": "commonParams",
          "type": "tuple",
          "indexed": false,
          "internalType": "struct Lockup.CreateEventCommon",
          "components": [
            {
              "name": "funder",
              "type": "address",
              "internalType": "address"
            },
            {
              "name": "sender",
              "type": "address",
              "internalType": "address"
            },
            {
              "name": "recipient",
              "type": "address",
              "internalType": "address"
            },
            {
              "name": "depositAmount",
              "type": "uint128",
              "internalType": "uint128"
            },
            {
              "name": "token",
              "type": "address",
              "internalType": "contract IERC20"
            },
            {
              "name": "cancelable",
              "type": "bool",
              "internalType": "bool"
            },
            {
              "name": "transferable",
              "type": "bool",
              "internalType": "bool"
            },
            {
              "name": "timestamps",
              "type": "tuple",
              "internalType": "struct Lockup.Timestamps",
              "components": [
                {
                  "name": "start",
                  "type": "uint40",
                  "internalType": "uint40"
                },
                {
                  "name": "end",
                  "type": "uint40",
                  "internalType": "uint40"
                }
              ]
            },
            {
              "name": "shape",
              "type": "string",
              "internalType": "string"
            }
          ]
        },
        {
          "name": "cliffTime",
          "type": "uint40",
          "indexed": false,
          "internalType": "uint40"
        },
        {
          "name": "granularity",
          "type": "uint40",
          "indexed": false,
          "internalType": "uint40"
        },
        {
          "name": "unlockAmounts",
          "type": "tuple",
          "indexed": false,
          "internalType": "struct LockupLinear.UnlockAmounts",
          "components": [
            {
              "name": "start",
              "type": "uint128",
              "internalType": "uint128"
            },
            {
              "name": "cliff",
              "type": "uint128",
              "internalType": "uint128"
            }
          ]
        }
      ],
      "anonymous": false
    },
    {
      "type": "event",
      "name": "CreateLockupPriceGatedStream",
      "inputs": [
        {
          "name": "streamId",
          "type": "uint256",
          "indexed": true,
          "internalType": "uint256"
        },
        {
          "name": "oracle",
          "type": "address",
          "indexed": true,
          "internalType": "contract AggregatorV3Interface"
        },
        {
          "name": "targetPrice",
          "type": "uint128",
          "indexed": false,
          "internalType": "uint128"
        }
      ],
      "anonymous": false
    },
    {
      "type": "event",
      "name": "CreateLockupTranchedStream",
      "inputs": [
        {
          "name": "streamId",
          "type": "uint256",
          "indexed": true,
          "internalType": "uint256"
        },
        {
          "name": "commonParams",
          "type": "tuple",
          "indexed": false,
          "internalType": "struct Lockup.CreateEventCommon",
          "components": [
            {
              "name": "funder",
              "type": "address",
              "internalType": "address"
            },
            {
              "name": "sender",
              "type": "address",
              "internalType": "address"
            },
            {
              "name": "recipient",
              "type": "address",
              "internalType": "address"
            },
            {
              "name": "depositAmount",
              "type": "uint128",
              "internalType": "uint128"
            },
            {
              "name": "token",
              "type": "address",
              "internalType": "contract IERC20"
            },
            {
              "name": "cancelable",
              "type": "bool",
              "internalType": "bool"
            },
            {
              "name": "transferable",
              "type": "bool",
              "internalType": "bool"
            },
            {
              "name": "timestamps",
              "type": "tuple",
              "internalType": "struct Lockup.Timestamps",
              "components": [
                {
                  "name": "start",
                  "type": "uint40",
                  "internalType": "uint40"
                },
                {
                  "name": "end",
                  "type": "uint40",
                  "internalType": "uint40"
                }
              ]
            },
            {
              "name": "shape",
              "type": "string",
              "internalType": "string"
            }
          ]
        },
        {
          "name": "tranches",
          "type": "tuple[]",
          "indexed": false,
          "internalType": "struct LockupTranched.Tranche[]",
          "components": [
            {
              "name": "amount",
              "type": "uint128",
              "internalType": "uint128"
            },
            {
              "name": "timestamp",
              "type": "uint40",
              "internalType": "uint40"
            }
          ]
        }
      ],
      "anonymous": false
    },
    {
      "type": "event",
      "name": "InvalidStreamInCancelMultiple",
      "inputs": [
        {
          "name": "streamId",
          "type": "uint256",
          "indexed": true,
          "internalType": "uint256"
        },
        {
          "name": "revertData",
          "type": "bytes",
          "indexed": false,
          "internalType": "bytes"
        }
      ],
      "anonymous": false
    },
    {
      "type": "event",
      "name": "InvalidWithdrawalInWithdrawMultiple",
      "inputs": [
        {
          "name": "streamId",
          "type": "uint256",
          "indexed": true,
          "internalType": "uint256"
        },
        {
          "name": "revertData",
          "type": "bytes",
          "indexed": false,
          "internalType": "bytes"
        }
      ],
      "anonymous": false
    },
    {
      "type": "event",
      "name": "MetadataUpdate",
      "inputs": [
        {
          "name": "_tokenId",
          "type": "uint256",
          "indexed": false,
          "internalType": "uint256"
        }
      ],
      "anonymous": false
    },
    {
      "type": "event",
      "name": "RenounceLockupStream",
      "inputs": [
        {
          "name": "streamId",
          "type": "uint256",
          "indexed": true,
          "internalType": "uint256"
        }
      ],
      "anonymous": false
    },
    {
      "type": "event",
      "name": "SetComptroller",
      "inputs": [
        {
          "name": "oldComptroller",
          "type": "address",
          "indexed": false,
          "internalType": "contract ISablierComptroller"
        },
        {
          "name": "newComptroller",
          "type": "address",
          "indexed": false,
          "internalType": "contract ISablierComptroller"
        }
      ],
      "anonymous": false
    },
    {
      "type": "event",
      "name": "SetNFTDescriptor",
      "inputs": [
        {
          "name": "comptroller",
          "type": "address",
          "indexed": true,
          "internalType": "contract ISablierComptroller"
        },
        {
          "name": "oldNFTDescriptor",
          "type": "address",
          "indexed": true,
          "internalType": "contract ILockupNFTDescriptor"
        },
        {
          "name": "newNFTDescriptor",
          "type": "address",
          "indexed": true,
          "internalType": "contract ILockupNFTDescriptor"
        }
      ],
      "anonymous": false
    },
    {
      "type": "event",
      "name": "Transfer",
      "inputs": [
        {
          "name": "from",
          "type": "address",
          "indexed": true,
          "internalType": "address"
        },
        {
          "name": "to",
          "type": "address",
          "indexed": true,
          "internalType": "address"
        },
        {
          "name": "tokenId",
          "type": "uint256",
          "indexed": true,
          "internalType": "uint256"
        }
      ],
      "anonymous": false
    },
    {
      "type": "event",
      "name": "TransferFeesToComptroller",
      "inputs": [
        {
          "name": "comptroller",
          "type": "address",
          "indexed": true,
          "internalType": "address"
        },
        {
          "name": "feeAmount",
          "type": "uint256",
          "indexed": false,
          "internalType": "uint256"
        }
      ],
      "anonymous": false
    },
    {
      "type": "event",
      "name": "WithdrawFromLockupStream",
      "inputs": [
        {
          "name": "streamId",
          "type": "uint256",
          "indexed": true,
          "internalType": "uint256"
        },
        {
          "name": "to",
          "type": "address",
          "indexed": true,
          "internalType": "address"
        },
        {
          "name": "token",
          "type": "address",
          "indexed": true,
          "internalType": "contract IERC20"
        },
        {
          "name": "amount",
          "type": "uint128",
          "indexed": false,
          "internalType": "uint128"
        }
      ],
      "anonymous": false
    },
    {
      "type": "error",
      "name": "Comptrollerable_CallerNotComptroller",
      "inputs": [
        {
          "name": "comptroller",
          "type": "address",
          "internalType": "address"
        },
        {
          "name": "caller",
          "type": "address",
          "internalType": "address"
        }
      ]
    },
    {
      "type": "error",
      "name": "Comptrollerable_UnsupportedInterfaceId",
      "inputs": [
        {
          "name": "previousComptroller",
          "type": "address",
          "internalType": "address"
        },
        {
          "name": "newComptroller",
          "type": "address",
          "internalType": "address"
        },
        {
          "name": "minimalInterfaceId",
          "type": "bytes4",
          "internalType": "bytes4"
        }
      ]
    },
    {
      "type": "error",
      "name": "DelegateCall",
      "inputs": []
    },
    {
      "type": "error",
      "name": "ERC721IncorrectOwner",
      "inputs": [
        {
          "name": "sender",
          "type": "address",
          "internalType": "address"
        },
        {
          "name": "tokenId",
          "type": "uint256",
          "internalType": "uint256"
        },
        {
          "name": "owner",
          "type": "address",
          "internalType": "address"
        }
      ]
    },
    {
      "type": "error",
      "name": "ERC721InsufficientApproval",
      "inputs": [
        {
          "name": "operator",
          "type": "address",
          "internalType": "address"
        },
        {
          "name": "tokenId",
          "type": "uint256",
          "internalType": "uint256"
        }
      ]
    },
    {
      "type": "error",
      "name": "ERC721InvalidApprover",
      "inputs": [
        {
          "name": "approver",
          "type": "address",
          "internalType": "address"
        }
      ]
    },
    {
      "type": "error",
      "name": "ERC721InvalidOperator",
      "inputs": [
        {
          "name": "operator",
          "type": "address",
          "internalType": "address"
        }
      ]
    },
    {
      "type": "error",
      "name": "ERC721InvalidOwner",
      "inputs": [
        {
          "name": "owner",
          "type": "address",
          "internalType": "address"
        }
      ]
    },
    {
      "type": "error",
      "name": "ERC721InvalidReceiver",
      "inputs": [
        {
          "name": "receiver",
          "type": "address",
          "internalType": "address"
        }
      ]
    },
    {
      "type": "error",
      "name": "ERC721InvalidSender",
      "inputs": [
        {
          "name": "sender",
          "type": "address",
          "internalType": "address"
        }
      ]
    },
    {
      "type": "error",
      "name": "ERC721NonexistentToken",
      "inputs": [
        {
          "name": "tokenId",
          "type": "uint256",
          "internalType": "uint256"
        }
      ]
    },
    {
      "type": "error",
      "name": "SablierLockupState_NotExpectedModel",
      "inputs": [
        {
          "name": "actualLockupModel",
          "type": "uint8",
          "internalType": "enum Lockup.Model"
        },
        {
          "name": "expectedLockupModel",
          "type": "uint8",
          "internalType": "enum Lockup.Model"
        }
      ]
    },
    {
      "type": "error",
      "name": "SablierLockupState_Null",
      "inputs": [
        {
          "name": "streamId",
          "type": "uint256",
          "internalType": "uint256"
        }
      ]
    },
    {
      "type": "error",
      "name": "SablierLockup_AllowToHookUnsupportedInterface",
      "inputs": [
        {
          "name": "recipient",
          "type": "address",
          "internalType": "address"
        }
      ]
    },
    {
      "type": "error",
      "name": "SablierLockup_InsufficientFeePayment",
      "inputs": [
        {
          "name": "feePaid",
          "type": "uint256",
          "internalType": "uint256"
        },
        {
          "name": "minFeeWei",
          "type": "uint256",
          "internalType": "uint256"
        }
      ]
    },
    {
      "type": "error",
      "name": "SablierLockup_InvalidHookSelector",
      "inputs": [
        {
          "name": "recipient",
          "type": "address",
          "internalType": "address"
        }
      ]
    },
    {
      "type": "error",
      "name": "SablierLockup_NativeTokenAlreadySet",
      "inputs": [
        {
          "name": "nativeToken",
          "type": "address",
          "internalType": "address"
        }
      ]
    },
    {
      "type": "error",
      "name": "SablierLockup_NotTransferable",
      "inputs": [
        {
          "name": "tokenId",
          "type": "uint256",
          "internalType": "uint256"
        }
      ]
    },
    {
      "type": "error",
      "name": "SablierLockup_Overdraw",
      "inputs": [
        {
          "name": "streamId",
          "type": "uint256",
          "internalType": "uint256"
        },
        {
          "name": "amount",
          "type": "uint128",
          "internalType": "uint128"
        },
        {
          "name": "withdrawableAmount",
          "type": "uint128",
          "internalType": "uint128"
        }
      ]
    },
    {
      "type": "error",
      "name": "SablierLockup_StreamCanceled",
      "inputs": [
        {
          "name": "streamId",
          "type": "uint256",
          "internalType": "uint256"
        }
      ]
    },
    {
      "type": "error",
      "name": "SablierLockup_StreamDepleted",
      "inputs": [
        {
          "name": "streamId",
          "type": "uint256",
          "internalType": "uint256"
        }
      ]
    },
    {
      "type": "error",
      "name": "SablierLockup_StreamNotCancelable",
      "inputs": [
        {
          "name": "streamId",
          "type": "uint256",
          "internalType": "uint256"
        }
      ]
    },
    {
      "type": "error",
      "name": "SablierLockup_StreamNotDepleted",
      "inputs": [
        {
          "name": "streamId",
          "type": "uint256",
          "internalType": "uint256"
        }
      ]
    },
    {
      "type": "error",
      "name": "SablierLockup_StreamSettled",
      "inputs": [
        {
          "name": "streamId",
          "type": "uint256",
          "internalType": "uint256"
        }
      ]
    },
    {
      "type": "error",
      "name": "SablierLockup_Unauthorized",
      "inputs": [
        {
          "name": "streamId",
          "type": "uint256",
          "internalType": "uint256"
        },
        {
          "name": "caller",
          "type": "address",
          "internalType": "address"
        }
      ]
    },
    {
      "type": "error",
      "name": "SablierLockup_WithdrawAmountNotEqualWithdrawableAmount",
      "inputs": [
        {
          "name": "streamId",
          "type": "uint256",
          "internalType": "uint256"
        },
        {
          "name": "amount",
          "type": "uint128",
          "internalType": "uint128"
        },
        {
          "name": "withdrawableAmount",
          "type": "uint128",
          "internalType": "uint128"
        }
      ]
    },
    {
      "type": "error",
      "name": "SablierLockup_WithdrawAmountZero",
      "inputs": [
        {
          "name": "streamId",
          "type": "uint256",
          "internalType": "uint256"
        }
      ]
    },
    {
      "type": "error",
      "name": "SablierLockup_WithdrawArrayCountsNotEqual",
      "inputs": [
        {
          "name": "streamIdsCount",
          "type": "uint256",
          "internalType": "uint256"
        },
        {
          "name": "amountsCount",
          "type": "uint256",
          "internalType": "uint256"
        }
      ]
    },
    {
      "type": "error",
      "name": "SablierLockup_WithdrawToZeroAddress",
      "inputs": [
        {
          "name": "streamId",
          "type": "uint256",
          "internalType": "uint256"
        }
      ]
    },
    {
      "type": "error",
      "name": "SablierLockup_WithdrawalAddressNotRecipient",
      "inputs": [
        {
          "name": "streamId",
          "type": "uint256",
          "internalType": "uint256"
        },
        {
          "name": "caller",
          "type": "address",
          "internalType": "address"
        },
        {
          "name": "to",
          "type": "address",
          "internalType": "address"
        }
      ]
    },
    {
      "type": "error",
      "name": "SafeERC20FailedOperation",
      "inputs": [
        {
          "name": "token",
          "type": "address",
          "internalType": "address"
        }
      ]
    }
  ],
  "bytecode": {
    "object": "0x60a0806040523461044a5760408161643a803803809161001f8285610461565b83398101031261044a5761003e602061003783610484565b9201610484565b906040519161004e604084610461565b601283527114d8589b1a595c88131bd8dadd5c0813919560721b60208401526040519161007c604084610461565b600a83526905341422d4c4f434b55560b41b602084015260018060a01b03166040516301ffc9a760e01b8152630654439160e41b6004820152602081602481855afa908115610456575f91610417575b50156103f6575f80546001600160a01b031916821781556040805191825260208201929092527ff45d882a72fce9d8d7a7e2e196a338d4d9d4057510b4b9ddf91a7066104d2eaf9190a182516001600160401b03811161030757600154600181811c911680156103ec575b60208210146102e957601f8111610389575b506020601f821160011461032657819293945f9261031b575b50508160011b915f199060031b1c1916176001555b81516001600160401b03811161030757600254600181811c911680156102fd575b60208210146102e957601f8111610286575b50602092601f821160011461022557928192935f9261021a575b50508160011b915f199060031b1c1916176002555b306080526001600955600a80546001600160a01b0319166001600160a01b0392909216919091179055604051615fa190816104998239608051816145a50152f35b015190505f806101c4565b601f1982169360025f52805f20915f5b86811061026e5750836001959610610256575b505050811b016002556101d9565b01515f1960f88460031b161c191690555f8080610248565b91926020600181928685015181550194019201610235565b60025f527f405787fa12a823e0f2b7631cc41b3ba8828b3321ca811111fa75cd3aa3bb5ace601f830160051c810191602084106102df575b601f0160051c01905b8181106102d457506101aa565b5f81556001016102c7565b90915081906102be565b634e487b7160e01b5f52602260045260245ffd5b90607f1690610198565b634e487b7160e01b5f52604160045260245ffd5b015190505f80610162565b601f1982169060015f52805f20915f5b81811061037157509583600195969710610359575b505050811b01600155610177565b01515f1960f88460031b161c191690555f808061034b565b9192602060018192868b015181550194019201610336565b60015f527fb10e2d527612073b26eecdfd717e6a320cf44b4afac2b0732d9fcbe2b7fa0cf6601f830160051c810191602084106103e2575b601f0160051c01905b8181106103d75750610149565b5f81556001016103ca565b90915081906103c1565b90607f1690610137565b6364ca3de160e11b5f525f600452602452630654439160e41b60445260645ffd5b90506020813d60201161044e575b8161043260209383610461565b8101031261044a5751801515810361044a575f6100cc565b5f80fd5b3d9150610425565b6040513d5f823e3d90fd5b601f909101601f19168101906001600160401b0382119082101761030757604052565b51906001600160a01b038216820361044a5756fe60806040526004361015610011575f80fd5b5f3560e01c806301ffc9a71461044f57806306fdde031461044a578063081812fc14610445578063095ea7b3146104405780631400ecec1461043b5780631c1cdd4c146104365780631e897afb146104315780631e99d5691461042c57806323b872dd14610427578063253c6162146104225780632fb2b3a81461041d578063303acc8514610418578063406887cb1461041357806340e58ee51461040e578063425d30dd1461040957806342842e0e1461040457806342966c68146103ff57806344267570146103fa5780634857501f146103f55780634869e12d146103f05780634cc55e11146103eb5780635c61ce95146103e65780635fe3b567146103e15780636201fd66146103dc5780636352211e146103d2578063648bf774146103d75780636d0cee75146103d25780636da1e102146103cd57806370a08231146103c8578063780a82c8146103c357806378f82ce7146103be5780637aab211a146103b95780637b4dae9e146103b45780637cad6cd1146103af5780637de6b1db146103aa5780637ee44729146103a55780637f5799f9146103a05780638659c2701461039b5780638bad38dd146103965780638f69b993146103915780639067b6771461038c57806395d89b41146103875780639d93ddd314610382578063a22cb4651461037d578063a477577214610378578063a80fc07114610373578063ad35efd41461036e578063b256456914610369578063b637b86514610364578063b88d4fde1461035f578063b8a3be661461035a578063b971302a14610355578063bc2be1be14610350578063c156a11d1461034b578063c87b56dd14610346578063c9ad007c14610341578063cca138e51461033c578063d4dbd20b14610337578063d511609f14610332578063d975dfed1461032d578063df2a848c14610328578063e1758bd814610323578063e6c417eb1461031e578063e985e9c514610319578063ea5ead1914610314578063ec01da3b1461030f578063f590c1761461030a5763fdd46d6014610305575f80fd5b613402565b6133b9565b61337e565b613110565b6130ac565b613067565b613027565b612f89565b612f62565b612f29565b612eeb565b612e3e565b612cc4565b612bdb565b6128f7565b6128ba565b61287f565b61284b565b6127e4565b612612565b612554565b612521565b6124c0565b612482565b6123cb565b612272565b6121bd565b612180565b612116565b611f9c565b611eb4565b611db3565b611bc4565b611a60565b611996565b611832565b6116af565b611626565b6115ce565b611579565b611512565b611429565b611459565b611247565b611220565b6111c8565b61104c565b611013565b610fb4565b610f8c565b610f09565b610ee0565b610ea2565b610daf565b610c9e565b610c5e565b610bbd565b610ac2565b610a6b565b610a22565b610966565b610850565b6107a3565b610697565b61064a565b610557565b61046a565b6001600160e01b031981160361046657565b5f80fd5b346104665760203660031901126104665760043561048781610454565b63ffffffff60e01b16632483248360e11b81149081156104b0575b506040519015158152602090f35b6380ac58cd60e01b8114915081156104e2575b81156104d1575b505f6104a2565b6301ffc9a760e01b1490505f6104ca565b635b5e139f60e01b811491506104c3565b5f91031261046657565b5f5b83811061050e5750505f910152565b81810151838201526020016104ff565b90602091610537815180928185528580860191016104fd565b601f01601f1916010190565b90602061055492818152019061051e565b90565b34610466575f366003190112610466576040515f6001548060011c9060018116908115610640575b60208310821461062c57828552602085019190811561061357506001146105c1575b6105bd846105b181860382612732565b60405191829182610543565b0390f35b60015f9081529250907fb10e2d527612073b26eecdfd717e6a320cf44b4afac2b0732d9fcbe2b7fa0cf65b8184106105ff575050016105b1826105a1565b8054848401526020909301926001016105ec565b60ff191682525090151560051b0190506105b1826105a1565b634e487b7160e01b5f52602260045260245ffd5b91607f169161057f565b346104665760203660031901126104665760043561066781613d9b565b505f526005602052602060018060a01b0360405f205416604051908152f35b6001600160a01b0381160361046657565b34610466576040366003190112610466576004356106b481610686565b602435906106c182613d9b565b33151580610790575b80610752575b61073e5761073c9261071d9181906001600160a01b0385811691167f8c5be1e5ebec7d5bd14f71427d1e84f3dd0314c0f7b2291e5b200ac8c7c3b9255f80a45f52600560205260405f2090565b80546001600160a01b0319166001600160a01b03909216919091179055565b005b63a9fbf51f60e01b5f523360045260245b5ffd5b5060ff610788336107738460018060a01b03165f52600660205260405f2090565b9060018060a01b03165f5260205260405f2090565b5416156106d0565b506001600160a01b0381163314156106ca565b34610466576020366003190112610466576105bd6004356107c381613dcf565b5f90805f52601060205260ff60405f205460f01c1680610833575b6107fe575b506040516001600160801b0390911681529081906020820190565b5f8181526010602052604090206002015461082d9250610827906001600160801b03169161405c565b90613669565b5f6107e3565b50805f52601060205260ff600160405f20015460a01c16156107de565b3461046657602036600319011261046657602061087760043561087281613dcf565b614439565b61088081612512565b8015908115610895575b506040519015158152f35b600191506108a281612512565b145f61088a565b9181601f84011215610466578235916001600160401b038311610466576020808501948460051b01011161046657565b602060031982011261046657600435906001600160401b03821161046657610903916004016108a9565b9091565b602081016020825282518091526040820191602060408360051b8301019401925f915b83831061093957505050505090565b9091929394602080610957600193603f19868203018752895161051e565b9701930193019193929061092a565b61096f366108d9565b9061097982613682565b916109876040519384612732565b808352601f1961099682613682565b015f5b818110610a115750505f5b8181106109b957604051806105bd8682610907565b5f806109c68385876136df565b906109d6604051809381936136fb565b0390305af46109e3613708565b9015610a0957906001916109f78287613737565b52610a028186613737565b50016109a4565b805190602001fd5b806060602080938801015201610999565b34610466575f366003190112610466576020600954604051908152f35b606090600319011261046657600435610a5781610686565b90602435610a6481610686565b9060443590565b346104665761073c610a7c36610a3f565b9161374b565b90816101209103126104665790565b604090602319011261046657602490565b604090608319011261046657608490565b64ffffffffff81160361046657565b60a0366003190112610466576004356001600160401b03811161046657610bad610af36105bd923690600401610a82565b610afc36610a91565b60643591610b0983610ab3565b608435610b1581610ab3565b610b1d6145a3565b608082013592610b2c846123c1565b604083013592610b3b846133f1565b6020810135610b4981610686565b813590610b5582610686565b610b636101008401846136ad565b969095610ba7610b9f610b94606088013599610b7e8b610686565b60a08901359b610b8d8d6123c1565b36916127ae565b9660c0369101613863565b96369061389d565b9861480b565b6040519081529081906020820190565b3461046657602036600319011261046657600435610bd96138d3565b50610be381613dcf565b805f526010602052610c0160ff600160405f20015460b01c166149d4565b5f52600e6020526105bd60405f2060405190610c1c826126f7565b80546001600160a01b03168083526001909101546001600160801b03908116602093840190815260408051938452905190911692820192909252918291820190565b3461046657602036600319011261046657600435610c7b81610686565b60018060a01b03165f52600b602052602060ff60405f2054166040519015158152f35b3461046657602036600319011261046657600435610cbb81610686565b610cc3614a94565b6040516301ffc9a760e01b815263f8ee98d360e01b60048201526001600160a01b0382169190602081602481865afa908115610daa575f91610d7b575b5015610d60576001600160a01b03165f908152600b60205260409020610d2d90805460ff19166001179055565b5f80546001600160a01b0316907fb4378d4e289cb3f40f4f75a99c9cafa76e3df1c4dc31309babc23dc91bd728019080a3005b63f1dc125d60e01b5f526001600160a01b031660045260245ffd5b610d9d915060203d602011610da3575b610d958183612732565b8101906138eb565b5f610d00565b503d610d8b565b613900565b602036600319011261046657600435610dc66145a3565b610dcf81613dcf565b5f8181526010602052604090206001015460a01c60ff1615610dfd576315efa0f360e11b5f5260045260245ffd5b610e19610e12825f52601060205260405f2090565b5460f81c90565b610e9057610e4e610e42610e35835f52601060205260405f2090565b546001600160a01b031690565b6001600160a01b031690565b3303610e7a57610e606105bd91614ac0565b6040516001600160801b0390911681529081906020820190565b632082501160e01b5f526004523360245260445ffd5b63d0a172b360e01b5f5260045260245ffd5b3461046657602036600319011261046657600435610ebf81613dcf565b5f526010602052602060ff600160405f20015460a01c166040519015158152f35b346104665761073c610ef136610a3f565b9060405192610f01602085612732565b5f8452613af8565b602036600319011261046657600435610f206145a3565b610f2981613dcf565b805f52601060205260ff600160405f20015460a01c1615610f7a575f81815260036020526040902054610f6d90610f69906001600160a01b031683614de3565b1590565b610e7a5761073c90614dee565b633090f59b60e11b5f5260045260245ffd5b34610466575f36600319011261046657600a546040516001600160a01b039091168152602090f35b3461046657602036600319011261046657600435610fd181613dcf565b5f6002610fdd83614439565b610fe681612512565b03610ff9575b6020906040519015158152f35b505f526010602052602060ff60405f205460f01c16610fec565b3461046657602036600319011261046657602061103a60043561103581613dcf565b61405c565b6040516001600160801b039091168152f35b6040366003190112610466576004356001600160401b038111610466576110779036906004016108a9565b6024356001600160401b038111610466576110969036906004016108a9565b92906110a06145a3565b8383036111af575f5b8381106110b257005b805f806110c2600194888861390b565b356110ec6110d1858a8a61390b565b355f908152600360205260409020546001600160a01b031690565b61114e6111026110fd878d8b61390b565b61384f565b6040516307eea36b60e51b6020820190815260248201959095526001600160a01b0390931660448401526001600160801b0316606483015281608481015b03601f198101835282612732565b5190305af461115b613708565b9015611169575b50016110a9565b7f36b7a9a3f5bfe69ad6ae04107796a967de5c92c761b4d7a4c34e9856706664196111a661119884898961390b565b359260405191829182610543565b0390a25f611162565b6352f6a1f360e11b5f526004839052602484905260445ffd5b34610466576020366003190112610466576004356111e581613dcf565b805f52601060205261120360ff600160405f20015460b01c16614a05565b5f52600d602052602064ffffffffff60405f205416604051908152f35b34610466575f366003190112610466575f546040516001600160a01b039091168152602090f35b6060366003190112610466576004356001600160401b03811161046657611272903690600401610a82565b61127b36610a91565b6112836145a3565b73__$a1a81d4b7b1556f2fa87d9e6aae7b51d16$__906112a283613859565b9260c0810160408201916112b58361384f565b9460608201956112c7610e4288613859565b6008549091906001600160a01b0316986112e56101008601866136ad565b853b156104665789916040519c8d96879663b9a939cd60e01b88528b600489019761130f98614eb4565b03815a935f94f4928315610daa576105bd9661139c9461140f575b50600954809661134b87611346845f52600e60205260405f2090565b614f4e565b61136061135a60808601613845565b9361384f565b61136c60208601613859565b9061139661138e60a06113876113818a613859565b96613859565b9801613845565b973690613863565b94615bdb565b817f41ca86a07a1919c0989f29573d44ded33c23a7dcc0403e9b86dc1c1a7b0968126113fc6113d660206113cf86613859565b950161384f565b6040516001600160801b0390911681526001600160a01b03909416939081906020820190565b0390a36040519081529081906020820190565b8061141d5f61142393612732565b806104f3565b5f61132a565b34610466576020366003190112610466576020611447600435613d9b565b6040516001600160a01b039091168152f35b346104665760403660031901126104665760043561147681610686565b6024359061148382610686565b61148b614a94565b6040516370a0823160e01b81523060048201526001600160a01b0382169290602081602481875afa8015610daa5761073c946114db925f926114e1575b505f52600760205260405f205490613938565b91614f8c565b61150491925060203d60201161150b575b6114fc8183612732565b81019061391b565b905f6114c8565b503d6114f2565b346104665760203660031901126104665760043561152f81610686565b611537614a94565b600854906001600160a01b0382168061156757506001600160a01b03166001600160a01b03199190911617600855005b6373f4d8a760e11b5f5260045260245ffd5b346104665760203660031901126104665760043561159681610686565b6001600160a01b031680156115bb575f526004602052602060405f2054604051908152f35b6322718ad960e21b5f525f60045260245ffd5b34610466576020366003190112610466576004356115eb81613dcf565b805f52601060205261160960ff600160405f20015460b01c16614a05565b5f52600c602052602064ffffffffff60405f205416604051908152f35b34610466575f3660031901126104665760018060a01b035f54167f56dedb874d4fc0f70753f281fa2c25e82085163206086fe826cf834b51701f6c6020475f80808084885af150611675613708565b50604051908152a2005b9181601f84011215610466578235916001600160401b038311610466576020808501946060850201011161046657565b6040366003190112610466576004356001600160401b038111610466576116da903690600401610a82565b6024356001600160401b038111610466576116f990369060040161167f565b916117026145a3565b608081013590611711826123c1565b604081013592611720846133f1565b60208201359061172f82610686565b82359161173b83610686565b6117496101008501856136ad565b969060608601359761175a89610686565b60a0870135996117698b6123c1565b61177281613682565b956117806040519788612732565b818752606060208801920281019036821161046657915b8183106117cd57506105bd610bad8d8d8d8d8d8d8d8d6117c76117bc8f8f36916127ae565b9560c0369101613863565b9561514b565b6060833603126104665760206060916040516117e881612717565b85356117f3816133f1565b81528286013561180281613945565b83820152604086013561181481610ab3565b6040820152815201920191611797565b908160e09103126104665790565b60c0366003190112610466576004356001600160401b03811161046657610bad6118636105bd923690600401611824565b61186c36610a91565b906064359161187a83610ab3565b61188336610aa2565b9161188c6145a3565b611894612753565b4264ffffffffff16815260208101925f84525f936118be6118b487613956565b64ffffffffff1690565b611965575b6118fb906118f061195d96976118ea60206118e3885164ffffffffff1690565b9201613956565b90613960565b64ffffffffff169052565b61190760808401613845565b946119146040850161384f565b61192060208601613859565b9061192a86613859565b92610ba761193b60c08901896136ad565b999061195560a061194e60608d01613859565b9b01613845565b9a36916127ae565b95369061389d565b61195d94506118fb906118f061198c611983865164ffffffffff1690565b6118ea8a613956565b96505090506118c3565b34610466576020366003190112610466576004356119b381610686565b6119bb614a94565b600a80546001600160a01b039283166001600160a01b0319821681179092555f8054929391821692909116907fa2548bd4b805e907c1558a47b5858324fe8bb4a2e1ddfca647eecbf65610eebc9080a46009545f198101908111611a5b57611a567f6bd5c950a8d8df17f772f5af37cb3655737899cbf903264b9795592da439661c9160405191829182919060206040840193600181520152565b0390a1005b613655565b602036600319011261046657600435611a776145a3565b611a8081613dcf565b611a8981614439565b611a9281612512565b60048103611aae576315efa0f360e11b5f52600482905260245ffd5b611ab781612512565b60038103611ad35763d0a172b360e01b5f52600482905260245ffd5b80611adf600292612512565b14611b8257611afc610e42610e35835f52601060205260405f2090565b3303610e7a57611b24610f69611b1a835f52601060205260405f2090565b5460f01c60ff1690565b611b7057611b4a611b3d825f52601060205260405f2090565b805460ff60f01b19169055565b7f0eb069207093cd3e51cd1370d2d369770057fbe29947e577e5fb428c6c6fc78f5f80a2005b635dd950cb60e11b5f5260045260245ffd5b6308aca53f60e21b5f5260045260245ffd5b9181601f84011215610466578235916001600160401b038311610466576020808501948460061b01011161046657565b6040366003190112610466576004356001600160401b03811161046657611bef903690600401611824565b6024356001600160401b03811161046657611c0e903690600401611b94565b90611c176145a3565b5f64ffffffffff4216928392611c416040519586938493631441207960e01b855260048501613a2a565b038173__$a1a81d4b7b1556f2fa87d9e6aae7b51d16$__5af48015610daa576105bd93610bad935f92611d26575b508192611cc3611c9d6020611c90611c8a611d20975161392a565b88613737565b51015164ffffffffff1690565b611cb5611ca8612753565b64ffffffffff9094168452565b64ffffffffff166020830152565b611ccf60808301613845565b611cdb6040840161384f565b611ce760208501613859565b611cf085613859565b91611cfe60c08701876136ad565b9790611d1860a0611d1160608b01613859565b9901613845565b9836916127ae565b93615450565b611d209250611d46903d805f833e611d3e8183612732565b81019061397c565b91611c6f565b90602080835192838152019201905f5b818110611d695750505090565b9091926020604082611d97600194885164ffffffffff6020809260018060801b038151168552015116910152565b019401929101611d5c565b906020610554928181520190611d4c565b3461046657602036600319011261046657600435611dd081613dcf565b805f526010602052611dee60ff600160405f20015460b01c16614a32565b5f52601160205260405f208054611e0481613682565b91611e126040519384612732565b81835260208301905f5260205f205f915b838310611e3857604051806105bd8782611da2565b600160208192604051611e4a816126f7565b64ffffffffff8654858060801b038116835260801c1683820152815201920192019190611e23565b60206040818301928281528451809452019201905f5b818110611e955750505090565b82516001600160801b0316845260209384019390920191600101611e88565b611ebd366108d9565b90611ec66145a3565b611ecf82613a9c565b915f5b818110611ee757604051806105bd8682611e72565b805f80611ef7600194868861390b565b6040516340e58ee560e01b6020820190815291356024820152611f1d8160448101611140565b5190305af4611f2a613708565b90611f68577f93fea6715d28b8667a24abd06acf5a526d08244c3ba06ce7e896e26199470d6c611f5e61119884878961390b565b0390a25b01611ed2565b611f7e81602080611f9794518301019101613ace565b611f888388613737565b6001600160801b039091169052565b611f62565b3461046657602036600319011261046657600435611fb981610686565b611fc1614a94565b5f546040516361a6f99f60e11b81526001600160a01b039091169190602081600481865afa908115610daa575f916120e7575b506040516301ffc9a760e01b81526001600160e01b0319821660048201526001600160a01b03831690602081602481855afa908115610daa575f916120c8575b501561209a575f80546001600160a01b0319166001600160a01b0385161790557ff45d882a72fce9d8d7a7e2e196a338d4d9d4057510b4b9ddf91a7066104d2eaf8385604080516001600160a01b03928316815292909116602083015281908101611a56565b6364ca3de160e11b5f526001600160a01b03808516600452166024526001600160e01b03191660445260645ffd5b6120e1915060203d602011610da357610d958183612732565b5f612034565b612109915060203d60201161210f575b6121018183612732565b810190613ae3565b5f611ff4565b503d6120f7565b3461046657602036600319011261046657602061213860043561087281613dcf565b61214181612512565b6002811490811561216b575b811561215e57506040519015158152f35b600491506108a281612512565b905061217681612512565b600381149061214d565b346104665760203660031901126104665760043561219d81613dcf565b5f526010602052602064ffffffffff60405f205460c81c16604051908152f35b34610466575f366003190112610466576040515f6002548060011c9060018116908115612268575b60208310821461062c5782855260208501919081156106135750600114612216576105bd846105b181860382612732565b60025f9081529250907f405787fa12a823e0f2b7631cc41b3ba8828b3321ca811111fa75cd3aa3bb5ace5b818410612254575050016105b1826105a1565b805484840152602090930192600101612241565b91607f16916121e5565b6040366003190112610466576004356001600160401b0381116104665761229d903690600401610a82565b6024356001600160401b038111610466576122bc903690600401611b94565b6122c79291926145a3565b6080820135906122d6826123c1565b6040830135926122e5846133f1565b60208101356122f381610686565b8135906122ff82610686565b61230d6101008401846136ad565b9690956123346117bc6060870135986123258a610686565b60a08801359a610b8d8c6123c1565b9561233e81613682565b9961234c6040519b8c612732565b818b5260208b019160061b81019036821161046657915b81831061237e576105bd610bad8d8d8d8d8d8d8d8d8d615450565b6040833603126104665760206040918251612398816126f7565b85356123a3816133f1565b8152828601356123b281610ab3565b83820152815201920191612363565b8015150361046657565b34610466576040366003190112610466576004356123e881610686565b6024356123f4816123c1565b6001600160a01b03821691821561246f578161242e61243f92335f52600660205260405f209060018060a01b03165f5260205260405f2090565b9060ff801983541691151516179055565b60405190151581527f17307eab39ab6107e8899845ad3d59bd9653f200f220920489ca2b5937696c3160203392a3005b82630b61174360e31b5f5260045260245ffd5b346104665760203660031901126104665760043561249f81613dcf565b5f526010602052602060018060a01b03600160405f20015416604051908152f35b34610466576020366003190112610466576004356124dd81613dcf565b5f526010602052602060018060801b03600260405f20015416604051908152f35b634e487b7160e01b5f52602160045260245ffd5b6005111561251c57565b6124fe565b3461046657602036600319011261046657602061254360043561087281613dcf565b6040519061255081612512565b8152f35b346104665760203660031901126104665760043561257181613dcf565b5f526010602052602060ff600160405f20015460a81c166040519015158152f35b80516001600160801b031682526020808201516001600160401b03169083015260409081015164ffffffffff16910152565b90602080835192838152019201905f5b8181106125e15750505090565b90919260206060826125f66001948851612592565b0194019291016125d4565b9060206105549281815201906125c4565b346104665760203660031901126104665760043561262f81613dcf565b805f52601060205261264d60ff600160405f20015460b01c16614a63565b5f52600f60205260405f20805461266381613682565b916126716040519384612732565b81835260208301905f5260205f205f915b83831061269757604051806105bd8782612601565b6001602081926040516126a981612717565b64ffffffffff8654858060801b03811683526001600160401b038160801c168584015260c01c166040820152815201920192019190612682565b634e487b7160e01b5f52604160045260245ffd5b604081019081106001600160401b0382111761271257604052565b6126e3565b606081019081106001600160401b0382111761271257604052565b90601f801991011681019081106001600160401b0382111761271257604052565b60405190612762604083612732565b565b6040519061276261014083612732565b6040519061276261012083612732565b60405190612762606083612732565b6001600160401b03811161271257601f01601f191660200190565b9291926127ba82612793565b916127c86040519384612732565b829481845281830111610466578281602093845f960137010152565b346104665760803660031901126104665760043561280181610686565b6024359061280e82610686565b604435606435926001600160401b03841161046657366023850112156104665761284561073c9436906024816004013591016127ae565b92613af8565b34610466576020366003190112610466576004355f526010602052602060018060a01b0360405f2054161515604051908152f35b346104665760203660031901126104665760043561289c81613dcf565b5f526010602052602060018060a01b0360405f205416604051908152f35b34610466576020366003190112610466576004356128d781613dcf565b5f526010602052602064ffffffffff60405f205460a01c16604051908152f35b60403660031901126104665760043560243561291281610686565b61291a6145a3565b61292382613dcf565b5f828152600360205260409020546001600160a01b031690612946833384615dd6565b15612bc457612954836155d1565b916001600160801b03831680158015612977575b6105bd85610e608887876155f7565b61297f6145a3565b61298886613dcf565b6129aa600161299f885f52601060205260405f2090565b015460a01c60ff1690565b612bb0578215612b9c576129c9610e35875f52600360205260405f2090565b916001600160a01b038316918483141580612b88575b612b7357612b5f576129f0876155d1565b906003612a156001612a0a8b5f52601060205260405f2090565b015460b01c60ff1690565b612a1e8161304f565b03612b35576001600160801b03821603612b2057505b612a3f858488615668565b6040518681525f516020615f4c5f395f51905f5290602090a18033141580612af7575b15612968576040516392b9102b60e01b8152906020908290815f81612a8d8b8a338f60048601613d6b565b03925af1908115610daa575f91612ad8575b506001600160e01b031916636d46efd560e01b01612abd5780612968565b636ade251160e01b5f526001600160a01b031660045260245ffd5b612af1915060203d60201161210f576121018183612732565b5f612a9f565b506001600160a01b0382165f908152600b60205260409020612b1b905b5460ff1690565b612a62565b63774ab4ff60e11b5f5261074f908688613d51565b6001600160801b03821610612b4a5750612a34565b63066920d760e01b5f5261074f908688613d51565b63b2ae763360e01b5f52600487905260245ffd5b63350b320360e11b5f5261074f85338a613d37565b50612b97610f69893387615dd6565b6129df565b632da33e5b60e01b5f52600486905260245ffd5b6315efa0f360e11b5f52600486905260245ffd5b82632082501160e01b5f526004523360245260445ffd5b3461046657602036600319011261046657600435612bf881613d9b565b50600a5460405163e9dc637560e01b815230600482015260248101929092525f90829060449082906001600160a01b03165afa8015610daa575f90612c48575b6105bd9060405191829182610543565b503d805f833e612c588183612732565b810190602081830312610466578051906001600160401b03821161046657019080601f8301121561046657815191612c8f83612793565b91612c9d6040519384612732565b83835260208483010111610466576105bd92612cbf91602080850191016104fd565b612c38565b6040366003190112610466576004356001600160401b03811161046657612cef903690600401611824565b6024356001600160401b03811161046657612d0e90369060040161167f565b9190612d186145a3565b5f64ffffffffff4216938492612d42604051948593849363f0b95e0960e01b855260048501613ca5565b038173__$a1a81d4b7b1556f2fa87d9e6aae7b51d16$__5af4918215610daa576105bd93610bad93612e16935f91612e1c575b50612db7612d916040611c90612d8b855161392a565b85613737565b612da9612d9c612753565b64ffffffffff9095168552565b64ffffffffff166020840152565b612dc360808401613845565b90612dd06040850161384f565b90612ddd60208601613859565b612de686613859565b92612df460c08801886136ad565b9890612e0e60a0612e0760608c01613859565b9a01613845565b9936916127ae565b9461514b565b612e3891503d805f833e612e308183612732565b810190613be3565b5f612d75565b3461046657602036600319011261046657612ea66020600435612e6081613dcf565b5f80549181526010835260409081902054905163419d289d60e01b8152600260048201526001600160a01b03918216602482015293849290911690829081906044820190565b03915afa8015610daa576105bd915f91612ecc575b506040519081529081906020820190565b612ee5915060203d60201161150b576114fc8183612732565b5f612ebb565b3461046657602036600319011261046657600435612f0881613dcf565b5f526010602052602060018060801b03600360405f20015416604051908152f35b3461046657602036600319011261046657600435612f4681613dcf565b5f5260106020526020600260405f20015460801c604051908152f35b3461046657602036600319011261046657602061103a600435612f8481613dcf565b6155d1565b3461046657602036600319011261046657600435612fa56138d3565b50612faf81613dcf565b805f526010602052612fcd60ff600160405f20015460b01c16614a05565b5f5260126020526105bd60405f2060405190612fe8826126f7565b546001600160801b038116825260801c60208201526040519182918281516001600160801b039081168252602092830151169181019190915260400190565b34610466575f366003190112610466576008546040516001600160a01b039091168152602090f35b6004111561251c57565b600481101561251c57600452565b346104665760203660031901126104665760043561308481613dcf565b5f52601060205260ff600160405f20015460b01c16604051600482101561251c576020918152f35b3461046657604036600319011261046657602060ff6131046004356130d081610686565b602435906130dd82610686565b60018060a01b03165f526006845260405f209060018060a01b03165f5260205260405f2090565b54166040519015158152f35b60403660031901126104665760243560043561312b82610686565b613134816155d1565b9161313d6145a3565b61314682613dcf565b61315d600161299f845f52601060205260405f2090565b61336a576001600160a01b03811690811561335657613187610e35845f52600360205260405f2090565b926001600160a01b0384169283141580613342575b61332c576001600160801b0385168015613318576131b9826155d1565b9060036131d36001612a0a865f52601060205260405f2090565b6131dc8161304f565b036132ee576001600160801b038216036132d957505b6131fd858383615668565b6040518181525f516020615f4c5f395f51905f5290602090a182331415806132b3575b613239575b6040516001600160801b0386168152602090f35b613262926020925f8793604051968795869485936392b9102b60e01b8552339060048601613d6b565b03925af1908115610daa575f91613294575b506001600160e01b031916636d46efd560e01b01612abd57808080613225565b6132ad915060203d60201161210f576121018183612732565b5f613274565b506001600160a01b0384165f908152600b602052604090206132d490612b14565b613220565b63774ab4ff60e11b5f5261074f918690613d51565b6001600160801b0382161061330357506131f2565b63066920d760e01b5f5261074f918690613d51565b63b2ae763360e01b5f52600482905260245ffd5b63350b320360e11b5f5261074f92503390613d37565b50613351610f69823387615dd6565b61319c565b632da33e5b60e01b5f52600483905260245ffd5b6315efa0f360e11b5f52600482905260245ffd5b346104665760203660031901126104665760043561339b81610686565b60018060a01b03165f526007602052602060405f2054604051908152f35b34610466576020366003190112610466576004356133d681613dcf565b5f526010602052602060405f205460f81c6040519015158152f35b6001600160801b0381160361046657565b60603660031901126104665760043560243561341d81610686565b6044359161342a836133f1565b6134326145a3565b61343b81613dcf565b613452600161299f835f52601060205260405f2090565b613643576001600160a01b03821692831561362f5761347c610e35835f52600360205260405f2090565b936001600160a01b038516908114158061361b575b613606576001600160801b03821680156135f2576134ae846155d1565b9060036134c86001612a0a885f52601060205260405f2090565b6134d18161304f565b036135c8576001600160801b038216036135b357505b6134f2828585615668565b6040518381525f516020615f4c5f395f51905f5290602090a1803314158061358d575b61351b57005b613542935f602094604051968795869485936392b9102b60e01b8552339060048601613d6b565b03925af1908115610daa575f9161356e575b506001600160e01b031916636d46efd560e01b01612abd57005b613587915060203d60201161210f576121018183612732565b5f613554565b506001600160a01b0385165f908152600b602052604090206135ae90612b14565b613515565b63774ab4ff60e11b5f5261074f908385613d51565b6001600160801b038216106135dd57506134e7565b63066920d760e01b5f5261074f908385613d51565b63b2ae763360e01b5f52600484905260245ffd5b63350b320360e11b5f5261074f843385613d37565b5061362a610f69843388615dd6565b613491565b632da33e5b60e01b5f52600482905260245ffd5b6315efa0f360e11b5f5260045260245ffd5b634e487b7160e01b5f52601160045260245ffd5b6001600160801b039182169082160391908211611a5b57565b6001600160401b0381116127125760051b60200190565b634e487b7160e01b5f52603260045260245ffd5b903590601e198136030182121561046657018035906001600160401b0382116104665760200191813603831361046657565b908210156136f6576109039160051b8101906136ad565b613699565b908092918237015f815290565b3d15613732573d9061371982612793565b916137276040519384612732565b82523d5f602084013e565b606090565b80518210156136f65760209160051b010190565b91906001600160a01b03811615613832575f828152600360205260409020546001600160a01b031615158061382a575b806137ff575b6137eb576040518281526137ab91905f516020615f4c5f395f51905f5290602090a18233916158c0565b916001600160a01b03808216908416036137c457505050565b6364283d7b60e01b5f526001600160a01b039081166004526024919091521660445260645ffd5b634274c8e160e11b5f52600482905260245ffd5b50613825610f69600161381a855f52601060205260405f2090565b015460a81c60ff1690565b613781565b50600161377b565b633250574960e11b5f525f60045260245ffd5b35610554816123c1565b35610554816133f1565b3561055481610686565b91908260409103126104665760405161387b816126f7565b6020808294803561388b81610ab3565b845201359161389983610ab3565b0152565b9190826040910312610466576040516138b5816126f7565b602080829480356138c5816133f1565b8452013591613899836133f1565b604051906138e0826126f7565b5f6020838281520152565b908160209103126104665751610554816123c1565b6040513d5f823e3d90fd5b91908110156136f65760051b0190565b90816020910312610466575190565b5f19810191908211611a5b57565b91908203918211611a5b57565b6001600160401b0381160361046657565b3561055481610ab3565b9064ffffffffff8091169116019064ffffffffff8211611a5b57565b602081830312610466578051906001600160401b038211610466570181601f82011215610466578051906139af82613682565b926139bd6040519485612732565b82845260208085019360061b8301019181831161046657602001925b8284106139e7575050505090565b6040848303126104665760206040918251613a01816126f7565b8651613a0c816133f1565b815282870151613a1b81610ab3565b838201528152019301926139d9565b91939293806040840160408552526060830191905f5b818110613a5a5750505064ffffffffff6020919416910152565b9091926040806001928635613a6e816133f1565b848060801b0316815264ffffffffff6020880135613a8b81610ab3565b166020820152019401929101613a40565b90613aa682613682565b613ab36040519182612732565b8281528092613ac4601f1991613682565b0190602036910137565b908160209103126104665751610554816133f1565b90816020910312610466575161055481610454565b909291613b0681858461374b565b833b613b13575b50505050565b602091613b356040519485938493630a85bd0160e11b855233600486016155a0565b03815f6001600160a01b0387165af15f9181613bc2575b50613b865750613b5a613708565b8051919082613b7f57633250574960e11b5f526001600160a01b03821660045260245ffd5b9050602001fd5b6001600160e01b03191663757a42ff60e11b01613ba757505f808080613b0d565b633250574960e11b5f526001600160a01b031660045260245ffd5b613bdc91925060203d60201161210f576121018183612732565b905f613b4c565b602081830312610466578051906001600160401b038211610466570181601f8201121561046657805190613c1682613682565b92613c246040519485612732565b8284526020606081860194028301019181831161046657602001925b828410613c4e575050505090565b606084830312610466576020606091604051613c6981612717565b8651613c74816133f1565b815282870151613c8381613945565b838201526040870151613c9581610ab3565b6040820152815201930192613c40565b939291806040860160408752526060850191905f5b818110613cd9575050509060206127629294019064ffffffffff169052565b9091926060806001928635613ced816133f1565b848060801b031681526001600160401b036020880135613d0c81613945565b16602082015264ffffffffff6040880135613d2681610ab3565b166040820152019401929101613cba565b6004526001600160a01b0390811660245216604452606490565b6004526001600160801b0390811660245216604452606490565b9081526001600160a01b039182166020820152911660408201526001600160801b03909116606082015260800190565b5f818152600360205260409020546001600160a01b0316908115613dbd575090565b637e27328960e01b5f5260045260245ffd5b5f818152601060205260409020546001600160a01b031615613dee5750565b62763a5b60e91b5f5260045260245ffd5b600482101561251c5752565b90604051613e1881612717565b82546001600160801b03808216835260809190911c60208301526001909301549092166040830152565b90604051613e5261014082612732565b610120613f3260028395613ed5613ecc8254613e83613e768260018060a01b031690565b6001600160a01b03168952565b613ea160a082901c64ffffffffff165b64ffffffffff1660208a0152565b64ffffffffff60c882901c166040890152613ec660f082901c60ff16151560608a0152565b60f81c90565b15156080870152565b60018101546001600160a01b03811660a0870152613f2c90613f2290613f0560a082901c60ff16151560c08a0152565b613f1960a882901c60ff16151560e08a0152565b60b01c60ff1690565b6101008701613dff565b01613e0b565b910152565b909264ffffffffff908160a094608085019660018060801b0316855216602084015216604082015260806060820152835480935201915f5260205f20905f5b818110613f835750505090565b82546001600160801b038116855260801c64ffffffffff16602085015260409093019260019283019201613f76565b929164ffffffffff909695949660a085019260018060801b0316855216602084015260a06040840152815480915260c08301915f5260205f20905f5b81811061401a5750505064ffffffffff9490941660608201526001600160801b03909116608090910152565b82546001600160801b0381168552608081901c6001600160401b0316602086015260c01c64ffffffffff16604085015260609093019260019283019201613fee565b5f90614078614073825f52601060205260405f2090565b613e42565b9161408660c0840151151590565b156140a25750506101200151602001516001600160801b031690565b608083015161440b576101008301600181516140bd8161304f565b6140c68161304f565b036141a05750506101208201805151602092919061414d906001600160801b031691614131856141218161411461410560408c015164ffffffffff1690565b985f52600f60205260405f2090565b99015164ffffffffff1690565b925101516001600160801b031690565b906040519687958695631efe300360e21b875260048701613fb2565b038173__$50c25247757e62846d50a95ffb6bac620d$__5af4908115610daa575f91614177575090565b610554915060203d602011614199575b6141918183612732565b810190613ace565b503d614187565b80516141ab8161304f565b6141b48161304f565b6142bd575050906020906141de6141d3845f52600c60205260405f2090565b5464ffffffffff1690565b6101208201805151909261414d916001600160801b031693614208604083015164ffffffffff1690565b9661425587614245614236826142296141d3875f52600d60205260405f2090565b97015164ffffffffff1690565b935f52601260205260405f2090565b935101516001600160801b031690565b6040516321d4831d60e01b815264ffffffffff96871660048201526001600160801b03978816602482015298861660448a015292851660648901529093166084870152915480841660a487015260801c60c4860152911660e484015282908190610104820190565b600381516142ca8161304f565b6142d38161304f565b03614389575050610120820151516020919061431690614307906040906001600160801b03165b95015164ffffffffff1690565b915f52600e60205260405f2090565b60405162e81c2d60e71b81526001600160801b03948516600482015264ffffffffff92909216602483015280546001600160a01b031660448301526001015490921660648301528160848173__$50c25247757e62846d50a95ffb6bac620d$__5af4908115610daa575f91614177575090565b600290949391945161439a8161304f565b6143a38161304f565b146143ac575050565b610120810151519293509091602091906001600160801b031661414d6143f06143e1856142fa604087015164ffffffffff1690565b955f52601160205260405f2090565b604051633796f97b60e01b8152958694859460048601613f37565b5050610120015180516105549190610827906040906001600160801b03165b9201516001600160801b031690565b614450600161299f835f52601060205260405f2090565b1561445b5750600490565b614470610e12825f52601060205260405f2090565b6144fd5761449a6118b461448c835f52601060205260405f2090565b5460a01c64ffffffffff1690565b42106144f8576144dd6144d160026144c36144b48561405c565b945f52601060205260405f2090565b01546001600160801b031690565b6001600160801b031690565b6001600160801b0390911610156144f357600190565b600290565b505f90565b50600390565b5f828152600360205260409020546001600160a01b0316151580614591575b8061456e575b61455b57610554915f915f516020615f4c5f395f51905f526040518061455385829190602083019252565b0390a16158c0565b50634274c8e160e11b5f5260045260245ffd5b5060ff6001614585845f52601060205260405f2090565b015460a81c1615614528565b506001600160a01b0381161515614522565b7f00000000000000000000000000000000000000000000000000000000000000006001600160a01b031630036145d557565b63a1c0d6e560e01b5f5260045ffd5b64ffffffffff91821681526001600160801b0390921660208301529190911660408201526001600160a01b0391821660608201529116608082015261016060a082018190529295946127629490936101209361466591614647919085019061051e565b9760c084019064ffffffffff60208092828151168552015116910152565b6001600160a01b031661010082015282516001600160801b039081169290910191825260209283015116910152565b634e487b7160e01b5f525f60045260245ffd5b80546001600160801b0319166001600160801b03909216919091179055565b815161276292906146e0906001600160801b0316836146a7565b6020015181546001600160801b031660809190911b6001600160801b031916179055565b80516001600160a01b03168252610554919061014090610100906020818101516001600160a01b0316908501526040818101516001600160a01b0316908501526060818101516001600160801b0316908501526080818101516001600160a01b03169085015260a08181015115159085015260c0818101511515908501526147a760e082015160e086019064ffffffffff60208092828151168552015116910152565b01519181610120820152019061051e565b64ffffffffff61276294816147db6060959998969960a0865260a0860190614704565b98166020848101919091529116604083015283516001600160801b03908116939092019283529283015116910152565b90969a9997919a98949395929864ffffffffff8916156149cb575b6008546001600160a01b031673__$a1a81d4b7b1556f2fa87d9e6aae7b51d16$__803b15610466578a5f918f856148828c8f8f8e8e916040519b8c9a8b998a9963f9193aa560e01b8b5260018060a01b03169660048b016145e4565b03915af48015610daa576149b7575b506009549b8c9a896148ab8d5f52600c60205260405f2090565b906148c7919064ffffffffff1664ffffffffff19825416179055565b8a6148da8d5f52600d60205260405f2090565b906148f6919064ffffffffff1664ffffffffff19825416179055565b8b8584888b61490d855f52601260205260405f2090565b90614917916146c6565b614924938d86888b615d06565b61492c612774565b338152986001600160a01b031660208a01526001600160a01b031660408901526001600160801b031660608801526001600160a01b03166080870152151560a0860152151560c085015260e084015261010083015260405193849361499193856147b8565b037fbc42cec3f2bd75ce97894dacc83ec6c4b682220d349b5a52d5743e7b46eba2d091a2565b8061141d5f6149c593612732565b5f614891565b60019850614826565b600481101561251c57600381036149e85750565b63319dec3f60e01b5f526149fb90613059565b600360245260445ffd5b600481101561251c5780614a165750565b63319dec3f60e01b5f52614a2990613059565b5f60245260445ffd5b600481101561251c5760028103614a465750565b63319dec3f60e01b5f52614a5990613059565b600260245260445ffd5b600481101561251c5760018103614a775750565b63319dec3f60e01b5f52614a8a90613059565b600160245260445ffd5b5f546001600160a01b031633819003614aaa5750565b6353f0a8cf60e11b5f526004523360245260445ffd5b90614aca8261405c565b91614ae26002613f2c835f52601060205260405f2090565b8051909390614af9906001600160801b03166144d1565b6001600160801b0382161015614dcf57614b21610f69611b1a845f52601060205260405f2090565b614dbb57806108276020614b4f614b5e94614b42895160018060801b031690565b036001600160801b031690565b9601516001600160801b031690565b614b88614b73835f52601060205260405f2090565b80546001600160f81b0316600160f81b179055565b614b9d611b3d835f52601060205260405f2090565b6001600160801b03811615614d8b575b614bcb846003614bc5855f52601060205260405f2090565b016146a7565b614be0610e35835f52601060205260405f2090565b9184614bf7610e35835f52600360205260405f2090565b93614c1d6001614c0f855f52601060205260405f2090565b01546001600160a01b031690565b6001600160a01b0381165f908152600760205260409020909190614c53906001600160801b038516908181540390558284614f8c565b604080518581526001600160801b0385811660208301528716918101919091526001600160a01b038781169381169184918416907f5edb27d6c1a327513b90a792050debf074b7194444885e3144d4decc5caaaa5090606090a46040518481525f516020615f4c5f395f51905f5290602090a16001600160a01b0386165f908152600b60205260409020614ce690612b14565b614cf3575b505050505050565b604051630d4af11f60e31b815260048101949094526001600160a01b031660248401526001600160801b0391821660448401529216606482015290602090829060849082905f905af1908115610daa575f91614d6c575b506001600160e01b0319166312b50ee160e31b01612abd578080848180614ceb565b614d85915060203d60201161210f576121018183612732565b5f614d4a565b614db66001614da2845f52601060205260405f2090565b01805460ff60a01b1916600160a01b179055565b614bad565b635dd950cb60e11b5f52600482905260245ffd5b6308aca53f60e21b5f52600482905260245ffd5b610554913390615dd6565b5f818152600360205260409020546001600160a01b0316151580614e7a575b80614e5c575b614e4a575f516020615f4c5f395f51905f526020604051838152a1614e395f82816158c0565b6001600160a01b031615613dbd5750565b634274c8e160e11b5f5260045260245ffd5b50614e74600161381a835f52601060205260405f2090565b15614e13565b505f614e0d565b602080918035614e9081610686565b6001600160a01b031684520135614ea6816133f1565b6001600160801b0316910152565b989795929360209464ffffffffff866127629a958d60e09a9660018060a01b031690528d82848335614ee581610ab3565b169101520135614ef481610ab3565b1660408c01526001600160801b031660608b01526001600160a01b0390811660808b01521660a089015261012060c08901819052808901828152928291858b0101375f828201840152601f01601f19160101940190614e81565b6001602061276293614f808135614f6481610686565b85546001600160a01b0319166001600160a01b03909116178555565b013591614bc5836133f1565b60405163a9059cbb60e01b60208201526001600160a01b03909216602483015260448083019390935291815261276291614fc7606483612732565b615e72565b93959796949290916150059061010086019360018060a01b03168652602086019064ffffffffff60208092828151168552015116910152565b6001600160801b031660608401526101006080840152845190819052610120830194602001905f5b81811061506e575050506001600160a01b031660a082015292936105549390615061905b6001600160a01b031660c0830152565b60e081840391015261051e565b90919560206060826150836001948b51612592565b01970192910161502d565b80548210156136f6575f5260205f2001905f90565b8054600160401b811015612712576150c09160018201815561508e565b9190916151215780516150dc906001600160801b0316836146a7565b60208101518254604090920151600160801b600160e81b031990921660809190911b67ffffffffffffffff60801b161760c09190911b64ffffffffff60c01b16179055565b614694565b909161513d61055493604084526040840190614704565b9160208184039101526125c4565b9296919897939895949573__$a1a81d4b7b1556f2fa87d9e6aae7b51d16$__61517b60085460018060a01b031690565b90803b1561046657835f9189878f8d8f976151b692604051998a9889978897630bce559f60e11b895260018060a01b03169360048901614fcc565b03915af48015610daa576152f4575b5098959493929190600954998a9789515f5b8181106152b1575050936152808461527085615260868e9f9d9b987f0e7eb51bad11fb6392e8e6cfd568e0750bbaf84bca8bf4dceb9bcae5b46a33119f9b61523360209f9d6152929d8f8e92856152899f8f9861525099615d4b565b61523b612774565b3381529e8f6001600160a01b03909216910152565b6001600160a01b031660408d0152565b6001600160801b031660608b0152565b6001600160a01b03166080890152565b151560a0870152565b151560c0850152565b60e08301526101008201526152ac60405192839283615126565b0390a2565b6152e38c6152dc836152d66001969798999a9b9c9d9e9f5f52600f60205260405f2090565b92613737565b51906150a3565b01908c9998979695949392916151d7565b8061141d5f61530293612732565b5f6151c5565b93959796949290916153419061010086019360018060a01b03168652602086019064ffffffffff60208092828151168552015116910152565b6001600160801b031660608401526101006080840152845190819052610120830194602001905f5b818110615391575050506001600160a01b031660a08201529293610554939061506190615051565b90919560206040826153bf6001948b5164ffffffffff6020809260018060801b038151168552015116910152565b019701929101615369565b8054600160401b811015612712576153e79160018201815561508e565b91909161512157805160209190615407906001600160801b0316846146a7565b0151815464ffffffffff60801b191660809190911b64ffffffffff60801b16179055565b909161544261055493604084526040840190614704565b916020818403910152611d4c565b9298979693959173__$a1a81d4b7b1556f2fa87d9e6aae7b51d16$__61547d60085460018060a01b031690565b90803b1561046657835f9189878f8d8f976154b892604051998a988997889763038720af60e21b895260018060a01b03169360048901615308565b03915af48015610daa5761558c575b5098959493929190600954998a9789515f5b81811061554f575050936152808461527085615260868e9f9d9b987fb5286ba059f8139658108ff5a9617e2ba55bd80fb2dd93063f9f9bc0e65c4c2a9f9b61523360209f9d6155359d8f8e92856152899f8f9861525099615d90565b60e08301526101008201526152ac6040519283928361542b565b61557b8c615574836152d66001969798999a9b9c9d9e9f5f52601160205260405f2090565b51906153ca565b01908c9998979695949392916154d9565b8061141d5f61559a93612732565b5f6154c7565b6001600160a01b0391821681529116602082015260408101919091526080606082018190526105549291019061051e565b610554906155de8161405c565b905f526010602052600260405f20015460801c90613669565b919291906001600160a01b03811615613832578361561491614503565b906001600160a01b038216806156375784637e27328960e01b5f5260045260245ffd5b929391926001600160a01b038216036137c457505050565b6001600160801b039182169082160191908211611a5b57565b5f549192916156ce90602090615686906001600160a01b0316610e42565b61569b610e35855f52601060205260405f2090565b60405163419d289d60e01b8152600260048201526001600160a01b03909116602482015292839190829081906044820190565b03915afa908115610daa575f9161587f575b50803410615869575061574c6157148361570f6002615707865f52601060205260405f2090565b015460801c90565b61564f565b6002615728845f52601060205260405f2090565b0180546001600160801b031660809290921b6001600160801b031916919091179055565b6157636002613f2c835f52601060205260405f2090565b602081015181516001600160801b039182169261578b926144d192610827916040911661442a565b6001600160801b039091161015615838575b7f40b88e5c41c5a97ffb7b6ef88a0a2d505aa0c634cf8a0275cb236ea7dd87ed4d6158336157d86001614c0f855f52601060205260405f2090565b6001600160a01b0381165f90815260076020526040902061580b906001600160801b038716908181540390558783614f8c565b6040516001600160801b0390951685526001600160a01b039081169516939081906020820190565b0390a4565b61584f6001614da2835f52601060205260405f2090565b615864611b3d825f52601060205260405f2090565b61579d565b634fc1eeff60e01b5f523460045260245260445ffd5b615898915060203d60201161150b576114fc8183612732565b5f6156e0565b6158b0905f52600560205260405f2090565b80546001600160a01b0319169055565b5f828152600360205260409020546001600160a01b0390811693908116615990575b506001600160a01b03831680615964575b6001600160a01b0382169161591a9083615941575b61071d855f52600360205260405f2090565b7fddf252ad1be2c89b69c2b068fc378daa952ba7f163c4a11628f55a4df523b3ef5f80a490565b6001600160a01b0381165f90815260046020526040902060018154019055615908565b61596d8361589e565b6001600160a01b0384165f90815260046020526040902080545f190190556158f3565b61599b838286615dd6565b6158e25790506001600160a01b0383166159c25750637e27328960e01b5f5260045260245ffd5b63177e802f60e01b5f5260018060a01b031660045260245260445ffd5b90600481101561251c57815460ff60b01b191660b09190911b60ff60b01b16179055565b815161276292600191615a1f906001600160801b0316846146a7565b602081015183546001600160801b0316608084811b859003928316901b6001600160801b0319161784556040909101511691016146a7565b8151612762926002916101209190615a77906001600160a01b0316614f64565b615aae615a8c602083015164ffffffffff1690565b855464ffffffffff60a01b191660a09190911b64ffffffffff60a01b16178555565b615ae5615ac3604083015164ffffffffff1690565b855464ffffffffff60c81b191660c89190911b64ffffffffff60c81b16178555565b615b0f615af56060830151151590565b855460ff60f01b191690151560f01b60ff60f01b16178555565b615b3f615b1f6080830151151590565b85546001600160f81b031690151560f81b6001600160f81b031916178555565b60a08101516001850180546001600160a01b0319166001600160a01b03909216919091178155615bd290615b93615b7960c0850151151590565b825460ff60a01b191690151560a01b60ff60a01b16178255565b615bbd615ba360e0850151151590565b825460ff60a81b191690151560a81b60ff60a81b16178255565b61010083015190615bcd8261304f565b6159df565b01519101615a03565b938092615cc760019584615c9b6127629c615c77615cd29b615c6e615ccc9a9e615c60615c1f6020615c12845164ffffffffff1690565b93015164ffffffffff1690565b91615c3a615c2b612784565b6001600160801b03909a168a52565b5f60208a01525f60408a0152613e93615c51612764565b6001600160a01b03909b168b52565b64ffffffffff166040880152565b15156060860152565b5f60808501526001600160a01b038d1660a08501525f60c0850152151560e0840152565b615caa60036101008401613dff565b610120820152615cc2845f52601060205260405f2090565b615a57565b615eca565b01600955565b6001600160a01b0382165f9081526007602052604090206001600160801b0391909116919082815401905530903390615f07565b938092615cc760019584615d3d6127629c615c77615cd29b615c6e615ccc9a9e615c60615c1f6020615c12845164ffffffffff1690565b615caa5f6101008401613dff565b938092615cc760019584615d826127629c615c77615cd29b615c6e615ccc9a9e615c60615c1f6020615c12845164ffffffffff1690565b615caa886101008401613dff565b938092615cc760019584615dc76127629c615c77615cd29b615c6e615ccc9a9e615c60615c1f6020615c12845164ffffffffff1690565b615caa60026101008401613dff565b6001600160a01b03821680151593909184615df3575b5050505090565b6001600160a01b03168083149450919290918415615e42575b50508215615e20575b50505f808080615dec565b5f908152600560205260408120546001600160a01b0316909114915080615e15565b5f9081526006602090815260408083206001600160a01b039490941683529290529081205460ff16935080615e0c565b905f602091828151910182855af115613900575f513d615ec157506001600160a01b0381163b155b615ea15750565b635274afe760e01b5f9081526001600160a01b0391909116600452602490fd5b60011415615e9a565b906001600160a01b03821615613832576001600160a01b0391615eed9190614503565b16615ef457565b6339e3563760e11b5f525f60045260245ffd5b6040516323b872dd60e01b60208201526001600160a01b03928316602482015292909116604483015260648083019390935291815261276291614fc760848361273256fef8e1a15aba9398e019f0b49df1a4fde98ee17ae345cb5f6b5e2c27f5033e8ce7a2646970667358221220c47a6d4c25affd3599b19425ddb36e1c198e81f6acaf3395ecb0d33174f9803764736f6c634300081d0033",
    "linkReferences": {
      "src/libraries/LockupHelpers.sol": {
        "LockupHelpers": [
          {
            "start": 5918,
            "length": 20
          },
          {
            "start": 8414,
            "length": 20
          },
          {
            "start": 12767,
            "length": 20
          },
          {
            "start": 19661,
            "length": 20
          },
          {
            "start": 22000,
            "length": 20
          },
          {
            "start": 22770,
            "length": 20
          }
        ]
      },
      "src/libraries/LockupMath.sol": {
        "LockupMath": [
          {
            "start": 17898,
            "length": 20
          },
          {
            "start": 18428,
            "length": 20
          }
        ]
      }
    }
  },
  "methodIdentifiers": {
    "aggregateAmount(address)": "ec01da3b",
    "allowToHook(address)": "406887cb",
    "approve(address,uint256)": "095ea7b3",
    "balanceOf(address)": "70a08231",
    "batch(bytes[])": "1e897afb",
    "burn(uint256)": "42966c68",
    "calculateMinFeeWei(uint256)": "cca138e5",
    "cancel(uint256)": "40e58ee5",
    "cancelMultiple(uint256[])": "8659c270",
    "comptroller()": "5fe3b567",
    "createWithDurationsLD((address,address,uint128,address,bool,bool,string),(uint128,uint64,uint40)[])": "c9ad007c",
    "createWithDurationsLL((address,address,uint128,address,bool,bool,string),(uint128,uint128),uint40,(uint40,uint40))": "7b4dae9e",
    "createWithDurationsLT((address,address,uint128,address,bool,bool,string),(uint128,uint40)[])": "7ee44729",
    "createWithTimestampsLD((address,address,uint128,address,bool,bool,(uint40,uint40),string),(uint128,uint64,uint40)[])": "7aab211a",
    "createWithTimestampsLL((address,address,uint128,address,bool,bool,(uint40,uint40),string),(uint128,uint128),uint40,uint40)": "253c6162",
    "createWithTimestampsLPG((address,address,uint128,address,bool,bool,(uint40,uint40),string),(address,uint128))": "6201fd66",
    "createWithTimestampsLT((address,address,uint128,address,bool,bool,(uint40,uint40),string),(uint128,uint40)[])": "9d93ddd3",
    "getApproved(uint256)": "081812fc",
    "getCliffTime(uint256)": "780a82c8",
    "getDepositedAmount(uint256)": "a80fc071",
    "getEndTime(uint256)": "9067b677",
    "getGranularity(uint256)": "5c61ce95",
    "getLockupModel(uint256)": "e6c417eb",
    "getPriceGatedUnlockParams(uint256)": "2fb2b3a8",
    "getRecipient(uint256)": "6d0cee75",
    "getRefundedAmount(uint256)": "d4dbd20b",
    "getSegments(uint256)": "b637b865",
    "getSender(uint256)": "b971302a",
    "getStartTime(uint256)": "bc2be1be",
    "getTranches(uint256)": "7f5799f9",
    "getUnderlyingToken(uint256)": "a4775772",
    "getUnlockAmounts(uint256)": "df2a848c",
    "getWithdrawnAmount(uint256)": "d511609f",
    "isAllowedToHook(address)": "303acc85",
    "isApprovedForAll(address,address)": "e985e9c5",
    "isCancelable(uint256)": "4857501f",
    "isCold(uint256)": "8f69b993",
    "isDepleted(uint256)": "425d30dd",
    "isStream(uint256)": "b8a3be66",
    "isTransferable(uint256)": "b2564569",
    "isWarm(uint256)": "1c1cdd4c",
    "name()": "06fdde03",
    "nativeToken()": "e1758bd8",
    "nextStreamId()": "1e99d569",
    "nftDescriptor()": "44267570",
    "ownerOf(uint256)": "6352211e",
    "recover(address,address)": "648bf774",
    "refundableAmountOf(uint256)": "1400ecec",
    "renounce(uint256)": "7de6b1db",
    "safeTransferFrom(address,address,uint256)": "42842e0e",
    "safeTransferFrom(address,address,uint256,bytes)": "b88d4fde",
    "setApprovalForAll(address,bool)": "a22cb465",
    "setComptroller(address)": "8bad38dd",
    "setNFTDescriptor(address)": "7cad6cd1",
    "setNativeToken(address)": "6da1e102",
    "statusOf(uint256)": "ad35efd4",
    "streamedAmountOf(uint256)": "4869e12d",
    "supportsInterface(bytes4)": "01ffc9a7",
    "symbol()": "95d89b41",
    "tokenURI(uint256)": "c87b56dd",
    "transferFeesToComptroller()": "78f82ce7",
    "transferFrom(address,address,uint256)": "23b872dd",
    "wasCanceled(uint256)": "f590c176",
    "withdraw(uint256,address,uint128)": "fdd46d60",
    "withdrawMax(uint256,address)": "ea5ead19",
    "withdrawMaxAndTransfer(uint256,address)": "c156a11d",
    "withdrawMultiple(uint256[],uint128[])": "4cc55e11",
    "withdrawableAmountOf(uint256)": "d975dfed"
  },
  "id": 91
}