{
  "abi": [
    {
      "type": "function",
      "name": "createWithDurationsLD",
      "inputs": [
        {
          "name": "lockup",
          "type": "address",
          "internalType": "contract ISablierLockup"
        },
        {
          "name": "token",
          "type": "address",
          "internalType": "contract IERC20"
        },
        {
          "name": "batch",
          "type": "tuple[]",
          "internalType": "struct BatchLockup.CreateWithDurationsLD[]",
          "components": [
            {
              "name": "sender",
              "type": "address",
              "internalType": "address"
            },
            {
              "name": "recipient",
              "type": "address",
              "internalType": "address"
            },
            {
              "name": "depositAmount",
              "type": "uint128",
              "internalType": "uint128"
            },
            {
              "name": "cancelable",
              "type": "bool",
              "internalType": "bool"
            },
            {
              "name": "transferable",
              "type": "bool",
              "internalType": "bool"
            },
            {
              "name": "segmentsWithDuration",
              "type": "tuple[]",
              "internalType": "struct LockupDynamic.SegmentWithDuration[]",
              "components": [
                {
                  "name": "amount",
                  "type": "uint128",
                  "internalType": "uint128"
                },
                {
                  "name": "exponent",
                  "type": "uint64",
                  "internalType": "UD2x18"
                },
                {
                  "name": "duration",
                  "type": "uint40",
                  "internalType": "uint40"
                }
              ]
            },
            {
              "name": "shape",
              "type": "string",
              "internalType": "string"
            }
          ]
        }
      ],
      "outputs": [
        {
          "name": "streamIds",
          "type": "uint256[]",
          "internalType": "uint256[]"
        }
      ],
      "stateMutability": "nonpayable"
    },
    {
      "type": "function",
      "name": "createWithDurationsLL",
      "inputs": [
        {
          "name": "lockup",
          "type": "address",
          "internalType": "contract ISablierLockup"
        },
        {
          "name": "token",
          "type": "address",
          "internalType": "contract IERC20"
        },
        {
          "name": "batch",
          "type": "tuple[]",
          "internalType": "struct BatchLockup.CreateWithDurationsLL[]",
          "components": [
            {
              "name": "sender",
              "type": "address",
              "internalType": "address"
            },
            {
              "name": "recipient",
              "type": "address",
              "internalType": "address"
            },
            {
              "name": "depositAmount",
              "type": "uint128",
              "internalType": "uint128"
            },
            {
              "name": "cancelable",
              "type": "bool",
              "internalType": "bool"
            },
            {
              "name": "transferable",
              "type": "bool",
              "internalType": "bool"
            },
            {
              "name": "durations",
              "type": "tuple",
              "internalType": "struct LockupLinear.Durations",
              "components": [
                {
                  "name": "cliff",
                  "type": "uint40",
                  "internalType": "uint40"
                },
                {
                  "name": "total",
                  "type": "uint40",
                  "internalType": "uint40"
                }
              ]
            },
            {
              "name": "unlockAmounts",
              "type": "tuple",
              "internalType": "struct LockupLinear.UnlockAmounts",
              "components": [
                {
                  "name": "start",
                  "type": "uint128",
                  "internalType": "uint128"
                },
                {
                  "name": "cliff",
                  "type": "uint128",
                  "internalType": "uint128"
                }
              ]
            },
            {
              "name": "granularity",
              "type": "uint40",
              "internalType": "uint40"
            },
            {
              "name": "shape",
              "type": "string",
              "internalType": "string"
            }
          ]
        }
      ],
      "outputs": [
        {
          "name": "streamIds",
          "type": "uint256[]",
          "internalType": "uint256[]"
        }
      ],
      "stateMutability": "nonpayable"
    },
    {
      "type": "function",
      "name": "createWithDurationsLT",
      "inputs": [
        {
          "name": "lockup",
          "type": "address",
          "internalType": "contract ISablierLockup"
        },
        {
          "name": "token",
          "type": "address",
          "internalType": "contract IERC20"
        },
        {
          "name": "batch",
          "type": "tuple[]",
          "internalType": "struct BatchLockup.CreateWithDurationsLT[]",
          "components": [
            {
              "name": "sender",
              "type": "address",
              "internalType": "address"
            },
            {
              "name": "recipient",
              "type": "address",
              "internalType": "address"
            },
            {
              "name": "depositAmount",
              "type": "uint128",
              "internalType": "uint128"
            },
            {
              "name": "cancelable",
              "type": "bool",
              "internalType": "bool"
            },
            {
              "name": "transferable",
              "type": "bool",
              "internalType": "bool"
            },
            {
              "name": "tranchesWithDuration",
              "type": "tuple[]",
              "internalType": "struct LockupTranched.TrancheWithDuration[]",
              "components": [
                {
                  "name": "amount",
                  "type": "uint128",
                  "internalType": "uint128"
                },
                {
                  "name": "duration",
                  "type": "uint40",
                  "internalType": "uint40"
                }
              ]
            },
            {
              "name": "shape",
              "type": "string",
              "internalType": "string"
            }
          ]
        }
      ],
      "outputs": [
        {
          "name": "streamIds",
          "type": "uint256[]",
          "internalType": "uint256[]"
        }
      ],
      "stateMutability": "nonpayable"
    },
    {
      "type": "function",
      "name": "createWithTimestampsLD",
      "inputs": [
        {
          "name": "lockup",
          "type": "address",
          "internalType": "contract ISablierLockup"
        },
        {
          "name": "token",
          "type": "address",
          "internalType": "contract IERC20"
        },
        {
          "name": "batch",
          "type": "tuple[]",
          "internalType": "struct BatchLockup.CreateWithTimestampsLD[]",
          "components": [
            {
              "name": "sender",
              "type": "address",
              "internalType": "address"
            },
            {
              "name": "recipient",
              "type": "address",
              "internalType": "address"
            },
            {
              "name": "depositAmount",
              "type": "uint128",
              "internalType": "uint128"
            },
            {
              "name": "cancelable",
              "type": "bool",
              "internalType": "bool"
            },
            {
              "name": "transferable",
              "type": "bool",
              "internalType": "bool"
            },
            {
              "name": "startTime",
              "type": "uint40",
              "internalType": "uint40"
            },
            {
              "name": "segments",
              "type": "tuple[]",
              "internalType": "struct LockupDynamic.Segment[]",
              "components": [
                {
                  "name": "amount",
                  "type": "uint128",
                  "internalType": "uint128"
                },
                {
                  "name": "exponent",
                  "type": "uint64",
                  "internalType": "UD2x18"
                },
                {
                  "name": "timestamp",
                  "type": "uint40",
                  "internalType": "uint40"
                }
              ]
            },
            {
              "name": "shape",
              "type": "string",
              "internalType": "string"
            }
          ]
        }
      ],
      "outputs": [
        {
          "name": "streamIds",
          "type": "uint256[]",
          "internalType": "uint256[]"
        }
      ],
      "stateMutability": "nonpayable"
    },
    {
      "type": "function",
      "name": "createWithTimestampsLL",
      "inputs": [
        {
          "name": "lockup",
          "type": "address",
          "internalType": "contract ISablierLockup"
        },
        {
          "name": "token",
          "type": "address",
          "internalType": "contract IERC20"
        },
        {
          "name": "batch",
          "type": "tuple[]",
          "internalType": "struct BatchLockup.CreateWithTimestampsLL[]",
          "components": [
            {
              "name": "sender",
              "type": "address",
              "internalType": "address"
            },
            {
              "name": "recipient",
              "type": "address",
              "internalType": "address"
            },
            {
              "name": "depositAmount",
              "type": "uint128",
              "internalType": "uint128"
            },
            {
              "name": "cancelable",
              "type": "bool",
              "internalType": "bool"
            },
            {
              "name": "transferable",
              "type": "bool",
              "internalType": "bool"
            },
            {
              "name": "timestamps",
              "type": "tuple",
              "internalType": "struct Lockup.Timestamps",
              "components": [
                {
                  "name": "start",
                  "type": "uint40",
                  "internalType": "uint40"
                },
                {
                  "name": "end",
                  "type": "uint40",
                  "internalType": "uint40"
                }
              ]
            },
            {
              "name": "cliffTime",
              "type": "uint40",
              "internalType": "uint40"
            },
            {
              "name": "unlockAmounts",
              "type": "tuple",
              "internalType": "struct LockupLinear.UnlockAmounts",
              "components": [
                {
                  "name": "start",
                  "type": "uint128",
                  "internalType": "uint128"
                },
                {
                  "name": "cliff",
                  "type": "uint128",
                  "internalType": "uint128"
                }
              ]
            },
            {
              "name": "granularity",
              "type": "uint40",
              "internalType": "uint40"
            },
            {
              "name": "shape",
              "type": "string",
              "internalType": "string"
            }
          ]
        }
      ],
      "outputs": [
        {
          "name": "streamIds",
          "type": "uint256[]",
          "internalType": "uint256[]"
        }
      ],
      "stateMutability": "nonpayable"
    },
    {
      "type": "function",
      "name": "createWithTimestampsLPG",
      "inputs": [
        {
          "name": "lockup",
          "type": "address",
          "internalType": "contract ISablierLockup"
        },
        {
          "name": "token",
          "type": "address",
          "internalType": "contract IERC20"
        },
        {
          "name": "batch",
          "type": "tuple[]",
          "internalType": "struct BatchLockup.CreateWithTimestampsLPG[]",
          "components": [
            {
              "name": "sender",
              "type": "address",
              "internalType": "address"
            },
            {
              "name": "recipient",
              "type": "address",
              "internalType": "address"
            },
            {
              "name": "depositAmount",
              "type": "uint128",
              "internalType": "uint128"
            },
            {
              "name": "cancelable",
              "type": "bool",
              "internalType": "bool"
            },
            {
              "name": "transferable",
              "type": "bool",
              "internalType": "bool"
            },
            {
              "name": "timestamps",
              "type": "tuple",
              "internalType": "struct Lockup.Timestamps",
              "components": [
                {
                  "name": "start",
                  "type": "uint40",
                  "internalType": "uint40"
                },
                {
                  "name": "end",
                  "type": "uint40",
                  "internalType": "uint40"
                }
              ]
            },
            {
              "name": "unlockParams",
              "type": "tuple",
              "internalType": "struct LockupPriceGated.UnlockParams",
              "components": [
                {
                  "name": "oracle",
                  "type": "address",
                  "internalType": "contract AggregatorV3Interface"
                },
                {
                  "name": "targetPrice",
                  "type": "uint128",
                  "internalType": "uint128"
                }
              ]
            },
            {
              "name": "shape",
              "type": "string",
              "internalType": "string"
            }
          ]
        }
      ],
      "outputs": [
        {
          "name": "streamIds",
          "type": "uint256[]",
          "internalType": "uint256[]"
        }
      ],
      "stateMutability": "nonpayable"
    },
    {
      "type": "function",
      "name": "createWithTimestampsLT",
      "inputs": [
        {
          "name": "lockup",
          "type": "address",
          "internalType": "contract ISablierLockup"
        },
        {
          "name": "token",
          "type": "address",
          "internalType": "contract IERC20"
        },
        {
          "name": "batch",
          "type": "tuple[]",
          "internalType": "struct BatchLockup.CreateWithTimestampsLT[]",
          "components": [
            {
              "name": "sender",
              "type": "address",
              "internalType": "address"
            },
            {
              "name": "recipient",
              "type": "address",
              "internalType": "address"
            },
            {
              "name": "depositAmount",
              "type": "uint128",
              "internalType": "uint128"
            },
            {
              "name": "cancelable",
              "type": "bool",
              "internalType": "bool"
            },
            {
              "name": "transferable",
              "type": "bool",
              "internalType": "bool"
            },
            {
              "name": "startTime",
              "type": "uint40",
              "internalType": "uint40"
            },
            {
              "name": "tranches",
              "type": "tuple[]",
              "internalType": "struct LockupTranched.Tranche[]",
              "components": [
                {
                  "name": "amount",
                  "type": "uint128",
                  "internalType": "uint128"
                },
                {
                  "name": "timestamp",
                  "type": "uint40",
                  "internalType": "uint40"
                }
              ]
            },
            {
              "name": "shape",
              "type": "string",
              "internalType": "string"
            }
          ]
        }
      ],
      "outputs": [
        {
          "name": "streamIds",
          "type": "uint256[]",
          "internalType": "uint256[]"
        }
      ],
      "stateMutability": "nonpayable"
    },
    {
      "type": "event",
      "name": "CreateLockupBatch",
      "inputs": [
        {
          "name": "funder",
          "type": "address",
          "indexed": true,
          "internalType": "address"
        },
        {
          "name": "lockup",
          "type": "address",
          "indexed": true,
          "internalType": "contract ISablierLockup"
        },
        {
          "name": "streamIds",
          "type": "uint256[]",
          "indexed": false,
          "internalType": "uint256[]"
        }
      ],
      "anonymous": false
    },
    {
      "type": "error",
      "name": "SablierBatchLockup_BatchSizeZero",
      "inputs": []
    },
    {
      "type": "error",
      "name": "SafeERC20FailedOperation",
      "inputs": [
        {
          "name": "token",
          "type": "address",
          "internalType": "address"
        }
      ]
    }
  ],
  "bytecode": {
    "object": "0x608080604052346015576117dc908161001a8239f35b5f80fdfe60806040526004361015610011575f80fd5b5f3560e01c80630577cd1314610e4357806370bc61e814610b7d57806376c46e9514610933578063a4446174146106f0578063ad4ef0c014610545578063bca87966146102ef5763c9b5b2c714610066575f80fd5b3461027c5761007436611018565b92909183156102e057925f915f5b8281106102b557506001600160a01b03169161009f9085846115c1565b6100a88161119f565b6001600160a01b0390941693925f5b8281106100f4576100f085856040515f5160206117875f395f51905f523391806100e18682611092565b0390a360405191829182611092565b0390f35b8061010b61010661020693868661157c565b611218565b6101c6610124602061011e85898961157c565b01611218565b61013a6040610134868a8a61157c565b016110ed565b610150606061014a878b8b61157c565b0161122c565b610160608061014a888c8c61157c565b9061017961016f888c8c61157c565b60c0810190611239565b939094604051976101898961114c565b6001600160a01b0390811689521660208801526001600160801b03166040870152606086018d905215156080860152151560a0850152369161126b565b60c08201526101e36101d983878761157c565b60a08101906113ee565b602060405195869463326b401f60e21b86526040600487015260448601906114e2565b8481036003190160248601528281520191905f905b80821061029357505050908060209203815f895af18015610288575f90610252575b6001925061024b82886113da565b52016100b7565b506020823d8211610280575b8161026b60209383611167565b8101031261027c576001915161023d565b5f80fd5b3d915061025e565b6040513d5f823e3d90fd5b91935091606080826102a760019488611423565b01940192018593929161021b565b919491926001906001600160801b036102d46040610134888b8b61157c565b16019301949194610082565b630d86189d60e21b5f5260045ffd5b3461027c576102fd36611018565b9182939193156102e0575f915f5b84811061052057506001600160a01b0316916103289082846115c1565b6103318361119f565b926001600160a01b03909116905f5b81811061036a576100f085856040515f5160206117875f395f51905f523391806100e18682611092565b8060206104af6103816101066104ba95878c61159e565b6104488a6103a46040610134888b61039e8a61011e84848a61159e565b9561159e565b61043c8d8a6103b9606061014a8c848661159e565b6103f06103e58c6103d0608061014a83888a61159e565b9460a06103de83838a61159e565b019661159e565b610160810190611239565b959096604051996104008b611130565b6001600160a01b039081168b52168b8a01526001600160801b03166040890152606088018e905215156080880152151560a08701523690611489565b60c0850152369161126b565b60e082015261010061045b85888d61159e565b0164ffffffffff8b8161048b60e061047f8a8d61048561014061047f84848b61159e565b01611206565b9661159e565b91604051998a97889763129e30b160e11b895260a060048a015260a48901906112ef565b956024880190611551565b16606485015216608483015203815f895af18015610288575f906104ee575b600192506104e782886113da565b5201610340565b506020823d8211610518575b8161050760209383611167565b8101031261027c57600191516104d9565b3d91506104fa565b926001906001600160801b0361053c6040610134888a8c61159e565b1601930161030b565b3461027c5761055336611018565b92909183156102e057925f915f5b8281106106c557506001600160a01b03169161057e9085846115c1565b6105878161119f565b6001600160a01b0390941693925f5b8281106105c0576100f085856040515f5160206117875f395f51905f523391806100e18682611092565b806105d261010661062593868661157c565b6105e5610124602061011e85898961157c565b60c08201526106026105f883878761157c565b60a08101906111d1565b6020604051958694637ee4472960e01b86526040600487015260448601906114e2565b8481036003190160248601528281520191905f905b8082106106a357505050908060209203815f895af18015610288575f90610671575b6001925061066a82886113da565b5201610596565b506020823d821161069b575b8161068a60209383611167565b8101031261027c576001915161065c565b3d915061067d565b91935091604080826106b7600194886113aa565b01940192018593929161063a565b919491926001906001600160801b036106e46040610134888b8b61157c565b16019301949194610561565b3461027c576106fe36611018565b9182939193156102e0575f915f5b84811061090e57506001600160a01b0316916107299082846115c1565b6107328361119f565b926001600160a01b03909116905f5b81811061076b576100f085856040515f5160206117875f395f51905f523391806100e18682611092565b80602061088461078261010661088f95878c6114bf565b6108258a6107a56040610134888b61079f8a61011e84848a6114bf565b956114bf565b8c6107b6606061014a8a8d856114bf565b6107d96107ce8a8d61079f608061014a84848a6114bf565b610140810190611239565b939094604051976107e98961114c565b6001600160a01b03908116895216898801526001600160801b03166040870152606086018c905215156080860152151560a0850152369161126b565b60c082015260e061083785888d6114bf565b0164ffffffffff6108ae60c08d836108618a8d61085b61012061047f8484896114bf565b946114bf565b916040519b8c998a99633da6d74f60e11b8b528660048c015260c48b01906114e2565b9760248a0190611551565b166064870152836108a260a08301611398565b16608487015201611398565b1660a483015203815f895af18015610288575f906108dc575b600192506108d582886113da565b5201610741565b506020823d8211610906575b816108f560209383611167565b8101031261027c57600191516108c7565b3d91506108e8565b926001906001600160801b0361092a6040610134888a8c6114bf565b1601930161070c565b3461027c5761094136611018565b92909183156102e057925f915f5b828110610b5257506001600160a01b03169161096c9085846115c1565b6109758161119f565b6001600160a01b0390941693925f5b8281106109ae576100f085856040515f5160206117875f395f51905f523391806100e18682611092565b6109bc610106828585611466565b90610a846109d0602061011e848888611466565b6109e06040610134858989611466565b610a786109f3606061014a878b8b611466565b610a03608061014a888c8c611466565b60a0610a10888c8c611466565b0191610a2b610a20898d8d611466565b610120810190611239565b9590966040519a610a3b8c611130565b6001600160a01b039081168c521660208b01526001600160801b031660408a0152606089018e905215156080890152151560a08801523690611489565b60c0860152369161126b565b60e0830152610a94818585611466565b604051633100feb360e11b81526060600482015292610ab79060648501906112ef565b9060e08101356001600160a01b0381169081900361027c57602485015260209184918291906001600160801b0390610af29061010001611384565b16604483015203815f895af18015610288575f90610b20575b60019250610b1982886113da565b5201610984565b506020823d8211610b4a575b81610b3960209383611167565b8101031261027c5760019151610b0b565b3d9150610b2c565b919491926001906001600160801b03610b716040610134888b8b611466565b1601930194919461094f565b3461027c57610b8b36611018565b92909183156102e057925f915f5b828110610e1857506001600160a01b031691610bb69085846115c1565b610bbf8161119f565b6001600160a01b0390941693925f5b828110610bf8576100f085856040515f5160206117875f395f51905f523391806100e18682611092565b610c10610c068285856110cb565b60c08101906113ee565b610c1e610c068487876110cb565b5f1901918210159050610e04576040610d6493926060610c4093020101611206565b610d2e610c516101068488886110cb565b91610c62602061011e868a8a6110cb565b90610c736040610134878b8b6110cb565b90878964ffffffffff610cac60a061047f8b610c95606061014a83898b6110cb565b95610ca6608061014a84848c6110cb565b976110cb565b938160405195610cbb87611101565b168552166020840152610cdc610cd2898d8d6110cb565b60e0810190611239565b94909560405198610cec8a611130565b6001600160a01b039081168a521660208901526001600160801b03166040880152606087018e905215156080870152151560a086015260c0850152369161126b565b60e0820152610d41610c068387876110cb565b6020604051958694633d55908d60e11b86526040600487015260448601906112ef565b8481036003190160248601528281520191905f905b808210610de257505050908060209203815f895af18015610288575f90610db0575b60019250610da982886113da565b5201610bce565b506020823d8211610dda575b81610dc960209383611167565b8101031261027c5760019151610d9b565b3d9150610dbc565b9193509160608082610df660019488611423565b019401920185939291610d79565b634e487b7160e01b5f52603260045260245ffd5b919491926001906001600160801b03610e376040610134888b8b6110cb565b16019301949194610b99565b3461027c57610e5136611018565b92909183156102e057925f915f5b828110610fed57506001600160a01b031691610e7c9085846115c1565b610e858161119f565b6001600160a01b0390941693925f5b828110610ebe576100f085856040515f5160206117875f395f51905f523391806100e18682611092565b610ed6610ecc8285856110cb565b60c08101906111d1565b610ee4610ecc8487876110cb565b5f1901918210159050610e04576020610f4d9392610f069260061b0101611206565b610f17610c516101068488886110cb565b60e0820152610f2a610ecc8387876110cb565b6020604051958694639d93ddd360e01b86526040600487015260448601906112ef565b8481036003190160248601528281520191905f905b808210610fcb57505050908060209203815f895af18015610288575f90610f99575b60019250610f9282886113da565b5201610e94565b506020823d8211610fc3575b81610fb260209383611167565b8101031261027c5760019151610f84565b3d9150610fa5565b9193509160408082610fdf600194886113aa565b019401920185939291610f62565b919491926001906001600160801b0361100c6040610134888b8b6110cb565b16019301949194610e5f565b90606060031983011261027c576004356001600160a01b038116810361027c57916024356001600160a01b038116810361027c57916044356001600160401b03811161027c5760040182601f8201121561027c578035926001600160401b03841161027c576020808301928560051b01011161027c579190565b60206040818301928281528451809452019201905f5b8181106110b55750505090565b82518452602093840193909201916001016110a8565b9190811015610e045760051b8101359060fe198136030182121561027c570190565b356001600160801b038116810361027c5790565b604081019081106001600160401b0382111761111c57604052565b634e487b7160e01b5f52604160045260245ffd5b61010081019081106001600160401b0382111761111c57604052565b60e081019081106001600160401b0382111761111c57604052565b90601f801991011681019081106001600160401b0382111761111c57604052565b6001600160401b03811161111c5760051b60200190565b906111a982611188565b6111b66040519182611167565b82815280926111c7601f1991611188565b0190602036910137565b903590601e198136030182121561027c57018035906001600160401b03821161027c57602001918160061b3603831361027c57565b3564ffffffffff8116810361027c5790565b356001600160a01b038116810361027c5790565b35801515810361027c5790565b903590601e198136030182121561027c57018035906001600160401b03821161027c5760200191813603831361027c57565b9291926001600160401b03821161111c5760405191611294601f8201601f191660200184611167565b82948184528183011161027c578281602093845f960137010152565b91908251928382525f5b8481106112da575050825f602080949584010152601f8019910116010190565b806020809284010151828286010152016112ba565b9061012060e06113819360018060a01b03815116845260018060a01b03602082015116602085015260018060801b03604082015116604085015260018060a01b03606082015116606085015260808101511515608085015260a0810151151560a085015264ffffffffff602060c08301518281511660c0880152015116828501520151918161010082015201906112b0565b90565b35906001600160801b038216820361027c57565b359064ffffffffff8216820361027c57565b60209064ffffffffff906113d49083906001600160801b036113cb82611384565b16865201611398565b16910152565b8051821015610e045760209160051b010190565b903590601e198136030182121561027c57018035906001600160401b03821161027c5760200191606082023603831361027c57565b6001600160801b0361143482611384565b16825260208101356001600160401b03811680910361027c576113d46040809364ffffffffff93602087015201611398565b9190811015610e045760051b8101359061013e198136030182121561027c570190565b919082604091031261027c576040516114a181611101565b60206114ba8183956114b281611398565b855201611398565b910152565b9190811015610e045760051b8101359061015e198136030182121561027c570190565b80516001600160a01b0390811683526020808301518216908401526040808301516001600160801b0316908401526060808301519091169083015260808082015115159083015260a08082015115159083015260c09081015160e09183018290526113819291909101906112b0565b6020906001600160801b0361156582611384565b1683526001600160801b03906113d4908301611384565b9190811015610e045760051b8101359060de198136030182121561027c570190565b9190811015610e045760051b8101359061017e198136030182121561027c570190565b91906115fd6040516323b872dd60e01b6020820152336024820152306044820152836064820152606481526115f7608482611167565b8261172e565b604051636eb1769f60e11b81523060048201526001600160a01b039384166024820181905293821690602081604481855afa80156102885784915f916116f9575b501061164b575b50505050565b60205f604051948286019063095ea7b360e01b825287602488015260448701526044865261167a606487611167565b85519082865af1903d5f5190836116da575b5050501561169b575b80611645565b6116cd6116d2936040519063095ea7b360e01b602083015260248201525f6044820152604481526115f7606482611167565b61172e565b5f8080611695565b919250906116ef57503b15155b5f808061168c565b60019150146116e7565b9150506020813d602011611726575b8161171560209383611167565b8101031261027c578390515f61163e565b3d9150611708565b905f602091828151910182855af115610288575f513d61177d57506001600160a01b0381163b155b61175d5750565b635274afe760e01b5f9081526001600160a01b0391909116600452602490fd5b6001141561175656fe730ba4cef0d228f6a65abf3647fb35ee36a79b6189151a2f55696352cf060f77a264697066735822122069d895e2cc047d20a74c578ca6fa5adec3bbbb7da2c1478eee919dafc1ba82e964736f6c634300081d0033",
    "linkReferences": {}
  },
  "methodIdentifiers": {
    "createWithDurationsLD(address,address,(address,address,uint128,bool,bool,(uint128,uint64,uint40)[],string)[])": "c9b5b2c7",
    "createWithDurationsLL(address,address,(address,address,uint128,bool,bool,(uint40,uint40),(uint128,uint128),uint40,string)[])": "a4446174",
    "createWithDurationsLT(address,address,(address,address,uint128,bool,bool,(uint128,uint40)[],string)[])": "ad4ef0c0",
    "createWithTimestampsLD(address,address,(address,address,uint128,bool,bool,uint40,(uint128,uint64,uint40)[],string)[])": "70bc61e8",
    "createWithTimestampsLL(address,address,(address,address,uint128,bool,bool,(uint40,uint40),uint40,(uint128,uint128),uint40,string)[])": "bca87966",
    "createWithTimestampsLPG(address,address,(address,address,uint128,bool,bool,(uint40,uint40),(address,uint128),string)[])": "76c46e95",
    "createWithTimestampsLT(address,address,(address,address,uint128,bool,bool,uint40,(uint128,uint40)[],string)[])": "0577cd13"
  },
  "id": 90
}