{
  "abi": [
    {
      "type": "constructor",
      "inputs": [
        {
          "name": "initialAdmin",
          "type": "address",
          "internalType": "address"
        }
      ],
      "stateMutability": "nonpayable"
    },
    {
      "type": "receive",
      "stateMutability": "payable"
    },
    {
      "type": "function",
      "name": "ATTESTOR_MANAGER_ROLE",
      "inputs": [],
      "outputs": [
        {
          "name": "",
          "type": "bytes32",
          "internalType": "bytes32"
        }
      ],
      "stateMutability": "view"
    },
    {
      "type": "function",
      "name": "FEE_COLLECTOR_ROLE",
      "inputs": [],
      "outputs": [
        {
          "name": "",
          "type": "bytes32",
          "internalType": "bytes32"
        }
      ],
      "stateMutability": "view"
    },
    {
      "type": "function",
      "name": "FEE_MANAGEMENT_ROLE",
      "inputs": [],
      "outputs": [
        {
          "name": "",
          "type": "bytes32",
          "internalType": "bytes32"
        }
      ],
      "stateMutability": "view"
    },
    {
      "type": "function",
      "name": "MAX_FEE_USD",
      "inputs": [],
      "outputs": [
        {
          "name": "",
          "type": "uint256",
          "internalType": "uint256"
        }
      ],
      "stateMutability": "view"
    },
    {
      "type": "function",
      "name": "MINIMAL_INTERFACE_ID",
      "inputs": [],
      "outputs": [
        {
          "name": "",
          "type": "bytes4",
          "internalType": "bytes4"
        }
      ],
      "stateMutability": "view"
    },
    {
      "type": "function",
      "name": "UPGRADE_INTERFACE_VERSION",
      "inputs": [],
      "outputs": [
        {
          "name": "",
          "type": "string",
          "internalType": "string"
        }
      ],
      "stateMutability": "view"
    },
    {
      "type": "function",
      "name": "VERSION",
      "inputs": [],
      "outputs": [
        {
          "name": "",
          "type": "string",
          "internalType": "string"
        }
      ],
      "stateMutability": "view"
    },
    {
      "type": "function",
      "name": "admin",
      "inputs": [],
      "outputs": [
        {
          "name": "",
          "type": "address",
          "internalType": "address"
        }
      ],
      "stateMutability": "view"
    },
    {
      "type": "function",
      "name": "attestor",
      "inputs": [],
      "outputs": [
        {
          "name": "",
          "type": "address",
          "internalType": "address"
        }
      ],
      "stateMutability": "view"
    },
    {
      "type": "function",
      "name": "calculateMinFeeWei",
      "inputs": [
        {
          "name": "protocol",
          "type": "uint8",
          "internalType": "enum ISablierComptroller.Protocol"
        }
      ],
      "outputs": [
        {
          "name": "",
          "type": "uint256",
          "internalType": "uint256"
        }
      ],
      "stateMutability": "view"
    },
    {
      "type": "function",
      "name": "calculateMinFeeWeiFor",
      "inputs": [
        {
          "name": "protocol",
          "type": "uint8",
          "internalType": "enum ISablierComptroller.Protocol"
        },
        {
          "name": "user",
          "type": "address",
          "internalType": "address"
        }
      ],
      "outputs": [
        {
          "name": "",
          "type": "uint256",
          "internalType": "uint256"
        }
      ],
      "stateMutability": "view"
    },
    {
      "type": "function",
      "name": "convertUSDFeeToWei",
      "inputs": [
        {
          "name": "feeUSD",
          "type": "uint256",
          "internalType": "uint256"
        }
      ],
      "outputs": [
        {
          "name": "",
          "type": "uint256",
          "internalType": "uint256"
        }
      ],
      "stateMutability": "view"
    },
    {
      "type": "function",
      "name": "disableCustomFeeUSDFor",
      "inputs": [
        {
          "name": "protocol",
          "type": "uint8",
          "internalType": "enum ISablierComptroller.Protocol"
        },
        {
          "name": "user",
          "type": "address",
          "internalType": "address"
        }
      ],
      "outputs": [],
      "stateMutability": "nonpayable"
    },
    {
      "type": "function",
      "name": "execute",
      "inputs": [
        {
          "name": "target",
          "type": "address",
          "internalType": "address"
        },
        {
          "name": "targetCallData",
          "type": "bytes",
          "internalType": "bytes"
        }
      ],
      "outputs": [
        {
          "name": "result",
          "type": "bytes",
          "internalType": "bytes"
        }
      ],
      "stateMutability": "nonpayable"
    },
    {
      "type": "function",
      "name": "getMinFeeUSD",
      "inputs": [
        {
          "name": "protocol",
          "type": "uint8",
          "internalType": "enum ISablierComptroller.Protocol"
        }
      ],
      "outputs": [
        {
          "name": "",
          "type": "uint256",
          "internalType": "uint256"
        }
      ],
      "stateMutability": "view"
    },
    {
      "type": "function",
      "name": "getMinFeeUSDFor",
      "inputs": [
        {
          "name": "protocol",
          "type": "uint8",
          "internalType": "enum ISablierComptroller.Protocol"
        },
        {
          "name": "user",
          "type": "address",
          "internalType": "address"
        }
      ],
      "outputs": [
        {
          "name": "",
          "type": "uint256",
          "internalType": "uint256"
        }
      ],
      "stateMutability": "view"
    },
    {
      "type": "function",
      "name": "grantRole",
      "inputs": [
        {
          "name": "role",
          "type": "bytes32",
          "internalType": "bytes32"
        },
        {
          "name": "account",
          "type": "address",
          "internalType": "address"
        }
      ],
      "outputs": [],
      "stateMutability": "nonpayable"
    },
    {
      "type": "function",
      "name": "hasRoleOrIsAdmin",
      "inputs": [
        {
          "name": "role",
          "type": "bytes32",
          "internalType": "bytes32"
        },
        {
          "name": "account",
          "type": "address",
          "internalType": "address"
        }
      ],
      "outputs": [
        {
          "name": "",
          "type": "bool",
          "internalType": "bool"
        }
      ],
      "stateMutability": "view"
    },
    {
      "type": "function",
      "name": "initialize",
      "inputs": [
        {
          "name": "initialAdmin",
          "type": "address",
          "internalType": "address"
        },
        {
          "name": "initialAirdropMinFeeUSD",
          "type": "uint256",
          "internalType": "uint256"
        },
        {
          "name": "initialBobMinFeeUSD",
          "type": "uint256",
          "internalType": "uint256"
        },
        {
          "name": "initialFlowMinFeeUSD",
          "type": "uint256",
          "internalType": "uint256"
        },
        {
          "name": "initialLockupMinFeeUSD",
          "type": "uint256",
          "internalType": "uint256"
        },
        {
          "name": "initialOracle",
          "type": "address",
          "internalType": "address"
        }
      ],
      "outputs": [],
      "stateMutability": "nonpayable"
    },
    {
      "type": "function",
      "name": "lowerMinFeeUSDForCampaign",
      "inputs": [
        {
          "name": "campaign",
          "type": "address",
          "internalType": "address"
        },
        {
          "name": "newMinFeeUSD",
          "type": "uint256",
          "internalType": "uint256"
        }
      ],
      "outputs": [],
      "stateMutability": "nonpayable"
    },
    {
      "type": "function",
      "name": "oracle",
      "inputs": [],
      "outputs": [
        {
          "name": "",
          "type": "address",
          "internalType": "address"
        }
      ],
      "stateMutability": "view"
    },
    {
      "type": "function",
      "name": "proxiableUUID",
      "inputs": [],
      "outputs": [
        {
          "name": "",
          "type": "bytes32",
          "internalType": "bytes32"
        }
      ],
      "stateMutability": "view"
    },
    {
      "type": "function",
      "name": "revokeRole",
      "inputs": [
        {
          "name": "role",
          "type": "bytes32",
          "internalType": "bytes32"
        },
        {
          "name": "account",
          "type": "address",
          "internalType": "address"
        }
      ],
      "outputs": [],
      "stateMutability": "nonpayable"
    },
    {
      "type": "function",
      "name": "setAttestor",
      "inputs": [
        {
          "name": "newAttestor",
          "type": "address",
          "internalType": "address"
        }
      ],
      "outputs": [],
      "stateMutability": "nonpayable"
    },
    {
      "type": "function",
      "name": "setAttestorForCampaign",
      "inputs": [
        {
          "name": "campaign",
          "type": "address",
          "internalType": "address"
        },
        {
          "name": "newAttestor",
          "type": "address",
          "internalType": "address"
        }
      ],
      "outputs": [],
      "stateMutability": "nonpayable"
    },
    {
      "type": "function",
      "name": "setCustomFeeUSDFor",
      "inputs": [
        {
          "name": "protocol",
          "type": "uint8",
          "internalType": "enum ISablierComptroller.Protocol"
        },
        {
          "name": "user",
          "type": "address",
          "internalType": "address"
        },
        {
          "name": "customFeeUSD",
          "type": "uint256",
          "internalType": "uint256"
        }
      ],
      "outputs": [],
      "stateMutability": "nonpayable"
    },
    {
      "type": "function",
      "name": "setMinFeeUSD",
      "inputs": [
        {
          "name": "protocol",
          "type": "uint8",
          "internalType": "enum ISablierComptroller.Protocol"
        },
        {
          "name": "newMinFeeUSD",
          "type": "uint256",
          "internalType": "uint256"
        }
      ],
      "outputs": [],
      "stateMutability": "nonpayable"
    },
    {
      "type": "function",
      "name": "setOracle",
      "inputs": [
        {
          "name": "newOracle",
          "type": "address",
          "internalType": "address"
        }
      ],
      "outputs": [],
      "stateMutability": "nonpayable"
    },
    {
      "type": "function",
      "name": "supportsInterface",
      "inputs": [
        {
          "name": "interfaceId",
          "type": "bytes4",
          "internalType": "bytes4"
        }
      ],
      "outputs": [
        {
          "name": "",
          "type": "bool",
          "internalType": "bool"
        }
      ],
      "stateMutability": "view"
    },
    {
      "type": "function",
      "name": "transferAdmin",
      "inputs": [
        {
          "name": "newAdmin",
          "type": "address",
          "internalType": "address"
        }
      ],
      "outputs": [],
      "stateMutability": "nonpayable"
    },
    {
      "type": "function",
      "name": "transferFees",
      "inputs": [
        {
          "name": "protocolAddresses",
          "type": "address[]",
          "internalType": "address[]"
        },
        {
          "name": "feeRecipient",
          "type": "address",
          "internalType": "address"
        }
      ],
      "outputs": [],
      "stateMutability": "nonpayable"
    },
    {
      "type": "function",
      "name": "upgradeToAndCall",
      "inputs": [
        {
          "name": "newImplementation",
          "type": "address",
          "internalType": "address"
        },
        {
          "name": "data",
          "type": "bytes",
          "internalType": "bytes"
        }
      ],
      "outputs": [],
      "stateMutability": "payable"
    },
    {
      "type": "function",
      "name": "withdrawERC20Token",
      "inputs": [
        {
          "name": "token",
          "type": "address",
          "internalType": "contract IERC20"
        },
        {
          "name": "to",
          "type": "address",
          "internalType": "address"
        }
      ],
      "outputs": [],
      "stateMutability": "nonpayable"
    },
    {
      "type": "event",
      "name": "Execute",
      "inputs": [
        {
          "name": "target",
          "type": "address",
          "indexed": true,
          "internalType": "address"
        },
        {
          "name": "targetCallData",
          "type": "bytes",
          "indexed": false,
          "internalType": "bytes"
        },
        {
          "name": "result",
          "type": "bytes",
          "indexed": false,
          "internalType": "bytes"
        }
      ],
      "anonymous": false
    },
    {
      "type": "event",
      "name": "GrantRole",
      "inputs": [
        {
          "name": "admin",
          "type": "address",
          "indexed": true,
          "internalType": "address"
        },
        {
          "name": "account",
          "type": "address",
          "indexed": true,
          "internalType": "address"
        },
        {
          "name": "role",
          "type": "bytes32",
          "indexed": true,
          "internalType": "bytes32"
        }
      ],
      "anonymous": false
    },
    {
      "type": "event",
      "name": "Initialized",
      "inputs": [
        {
          "name": "version",
          "type": "uint64",
          "indexed": false,
          "internalType": "uint64"
        }
      ],
      "anonymous": false
    },
    {
      "type": "event",
      "name": "RoleRevoked",
      "inputs": [
        {
          "name": "admin",
          "type": "address",
          "indexed": true,
          "internalType": "address"
        },
        {
          "name": "account",
          "type": "address",
          "indexed": true,
          "internalType": "address"
        },
        {
          "name": "role",
          "type": "bytes32",
          "indexed": true,
          "internalType": "bytes32"
        }
      ],
      "anonymous": false
    },
    {
      "type": "event",
      "name": "SetAttestor",
      "inputs": [
        {
          "name": "caller",
          "type": "address",
          "indexed": true,
          "internalType": "address"
        },
        {
          "name": "previousAttestor",
          "type": "address",
          "indexed": true,
          "internalType": "address"
        },
        {
          "name": "newAttestor",
          "type": "address",
          "indexed": true,
          "internalType": "address"
        }
      ],
      "anonymous": false
    },
    {
      "type": "event",
      "name": "SetMinFeeUSD",
      "inputs": [
        {
          "name": "protocol",
          "type": "uint8",
          "indexed": true,
          "internalType": "enum ISablierComptroller.Protocol"
        },
        {
          "name": "caller",
          "type": "address",
          "indexed": false,
          "internalType": "address"
        },
        {
          "name": "previousMinFeeUSD",
          "type": "uint256",
          "indexed": false,
          "internalType": "uint256"
        },
        {
          "name": "newMinFeeUSD",
          "type": "uint256",
          "indexed": false,
          "internalType": "uint256"
        }
      ],
      "anonymous": false
    },
    {
      "type": "event",
      "name": "SetOracle",
      "inputs": [
        {
          "name": "admin",
          "type": "address",
          "indexed": true,
          "internalType": "address"
        },
        {
          "name": "previousOracle",
          "type": "address",
          "indexed": false,
          "internalType": "address"
        },
        {
          "name": "newOracle",
          "type": "address",
          "indexed": false,
          "internalType": "address"
        }
      ],
      "anonymous": false
    },
    {
      "type": "event",
      "name": "TransferAdmin",
      "inputs": [
        {
          "name": "oldAdmin",
          "type": "address",
          "indexed": true,
          "internalType": "address"
        },
        {
          "name": "newAdmin",
          "type": "address",
          "indexed": true,
          "internalType": "address"
        }
      ],
      "anonymous": false
    },
    {
      "type": "event",
      "name": "TransferFees",
      "inputs": [
        {
          "name": "feeRecipient",
          "type": "address",
          "indexed": true,
          "internalType": "address"
        },
        {
          "name": "feeAmount",
          "type": "uint256",
          "indexed": false,
          "internalType": "uint256"
        }
      ],
      "anonymous": false
    },
    {
      "type": "event",
      "name": "UpdateCustomFeeUSD",
      "inputs": [
        {
          "name": "protocol",
          "type": "uint8",
          "indexed": true,
          "internalType": "enum ISablierComptroller.Protocol"
        },
        {
          "name": "caller",
          "type": "address",
          "indexed": false,
          "internalType": "address"
        },
        {
          "name": "user",
          "type": "address",
          "indexed": true,
          "internalType": "address"
        },
        {
          "name": "previousMinFeeUSD",
          "type": "uint256",
          "indexed": false,
          "internalType": "uint256"
        },
        {
          "name": "newMinFeeUSD",
          "type": "uint256",
          "indexed": false,
          "internalType": "uint256"
        }
      ],
      "anonymous": false
    },
    {
      "type": "event",
      "name": "Upgraded",
      "inputs": [
        {
          "name": "implementation",
          "type": "address",
          "indexed": true,
          "internalType": "address"
        }
      ],
      "anonymous": false
    },
    {
      "type": "event",
      "name": "WithdrawERC20Token",
      "inputs": [
        {
          "name": "admin",
          "type": "address",
          "indexed": true,
          "internalType": "address"
        },
        {
          "name": "token",
          "type": "address",
          "indexed": true,
          "internalType": "contract IERC20"
        },
        {
          "name": "to",
          "type": "address",
          "indexed": true,
          "internalType": "address"
        },
        {
          "name": "amount",
          "type": "uint256",
          "indexed": false,
          "internalType": "uint256"
        }
      ],
      "anonymous": false
    },
    {
      "type": "error",
      "name": "AccountAlreadyHasRole",
      "inputs": [
        {
          "name": "role",
          "type": "bytes32",
          "internalType": "bytes32"
        },
        {
          "name": "account",
          "type": "address",
          "internalType": "address"
        }
      ]
    },
    {
      "type": "error",
      "name": "AccountDoesNotHaveRole",
      "inputs": [
        {
          "name": "role",
          "type": "bytes32",
          "internalType": "bytes32"
        },
        {
          "name": "account",
          "type": "address",
          "internalType": "address"
        }
      ]
    },
    {
      "type": "error",
      "name": "AddressEmptyCode",
      "inputs": [
        {
          "name": "target",
          "type": "address",
          "internalType": "address"
        }
      ]
    },
    {
      "type": "error",
      "name": "CallerNotAdmin",
      "inputs": [
        {
          "name": "admin",
          "type": "address",
          "internalType": "address"
        },
        {
          "name": "caller",
          "type": "address",
          "internalType": "address"
        }
      ]
    },
    {
      "type": "error",
      "name": "ERC1967InvalidImplementation",
      "inputs": [
        {
          "name": "implementation",
          "type": "address",
          "internalType": "address"
        }
      ]
    },
    {
      "type": "error",
      "name": "ERC1967NonPayable",
      "inputs": []
    },
    {
      "type": "error",
      "name": "FailedCall",
      "inputs": []
    },
    {
      "type": "error",
      "name": "InvalidInitialization",
      "inputs": []
    },
    {
      "type": "error",
      "name": "NotInitializing",
      "inputs": []
    },
    {
      "type": "error",
      "name": "SablierComptroller_ExecutionFailedSilently",
      "inputs": []
    },
    {
      "type": "error",
      "name": "SablierComptroller_FeeRecipientNotAdmin",
      "inputs": [
        {
          "name": "feeRecipient",
          "type": "address",
          "internalType": "address"
        },
        {
          "name": "admin",
          "type": "address",
          "internalType": "address"
        }
      ]
    },
    {
      "type": "error",
      "name": "SablierComptroller_FeeRecipientZero",
      "inputs": []
    },
    {
      "type": "error",
      "name": "SablierComptroller_FeeTransferFailed",
      "inputs": [
        {
          "name": "feeRecipient",
          "type": "address",
          "internalType": "address"
        },
        {
          "name": "feeAmount",
          "type": "uint256",
          "internalType": "uint256"
        }
      ]
    },
    {
      "type": "error",
      "name": "SablierComptroller_MaxFeeUSDExceeded",
      "inputs": [
        {
          "name": "newFeeUSD",
          "type": "uint256",
          "internalType": "uint256"
        },
        {
          "name": "maxFeeUSD",
          "type": "uint256",
          "internalType": "uint256"
        }
      ]
    },
    {
      "type": "error",
      "name": "SablierComptroller_ToZeroAddress",
      "inputs": []
    },
    {
      "type": "error",
      "name": "SablierComptroller_TokenBalanceZero",
      "inputs": [
        {
          "name": "token",
          "type": "address",
          "internalType": "address"
        }
      ]
    },
    {
      "type": "error",
      "name": "SafeERC20FailedOperation",
      "inputs": [
        {
          "name": "token",
          "type": "address",
          "internalType": "address"
        }
      ]
    },
    {
      "type": "error",
      "name": "UUPSUnauthorizedCallContext",
      "inputs": []
    },
    {
      "type": "error",
      "name": "UUPSUnsupportedProxiableUUID",
      "inputs": [
        {
          "name": "slot",
          "type": "bytes32",
          "internalType": "bytes32"
        }
      ]
    },
    {
      "type": "error",
      "name": "UnauthorizedAccess",
      "inputs": [
        {
          "name": "caller",
          "type": "address",
          "internalType": "address"
        },
        {
          "name": "neededRole",
          "type": "bytes32",
          "internalType": "bytes32"
        }
      ]
    }
  ],
  "bytecode": {
    "object": "0x60a03461014357601f612c1e38819003918201601f19168301916001600160401b038311848410176101475780849260209460405283398101031261014357516001600160a01b03811690819003610143575f80546001600160a01b0319168217815560405191907fbdd36143ee09de60bdefca70680e0f71189b2ed7acee364b53917ad433fdaf808180a3306080525f516020612bfe5f395f51905f525460ff8160401c16610134576002600160401b03196001600160401b038216016100e1575b604051612aa2908161015c823960805181818161096a01526122170152f35b6001600160401b0319166001600160401b039081175f516020612bfe5f395f51905f525581527fc7f505b2f371ae2175ee4913f4499e1f2633a7b5936321eed1cdaeb6115181d290602090a15f806100c2565b63f92ee8a960e01b5f5260045ffd5b5f80fd5b634e487b7160e01b5f52604160045260245ffdfe6080604052600436101561001a575b3615610018575f80fd5b005b5f3560e01c806301ffc9a7146102295780631cff79cd14610224578063294323b71461021f5780632f2ff15d1461021a5780632fa32f4a14610215578063419d289d146102105780634f1ef2861461020b57806352d1902d1461020657806356ad7460146102015780635a051198146101fc5780635df5f96f146101f757806362a2a47c146101f257806375829def146101ed57806378ef7aea146101e85780637adbf973146101e35780637dc0d1d0146101de57806388dc31a8146101d95780638afaa8b8146101d45780639f467352146101cf578063ad3cb1cc146101ca578063b0fa59e8146101c5578063b9fbe2f8146101c0578063baf8f4b9146101bb578063c34df33e146101b6578063cada25c2146101b1578063d09e86d9146101ac578063d547741f146101a7578063e1678c6e146101a2578063ecfbe70c1461019d578063f2fc84b714610198578063f5770b1f14610193578063f851a4401461018e5763ffa1ad740361000e57611866565b611816565b611767565b6116df565b611532565b61150f565b6113e1565b6112b3565b611262565b611209565b6111c4565b61117a565b61113e565b6110c1565b61101d565b610fc5565b610f89565b610f38565b610e9d565b610e60565b610db8565b610d60565b610ac2565b610a6a565b6109e2565b610925565b610882565b610777565b610650565b610511565b610414565b61037b565b346102e85760207ffffffffffffffffffffffffffffffffffffffffffffffffffffffffffffffffc3601126102e8576004357fffffffff0000000000000000000000000000000000000000000000000000000081168091036102e857807f01ffc9a700000000000000000000000000000000000000000000000000000000602092149081156102be575b506040519015158152f35b90507f6544391000000000000000000000000000000000000000000000000000000000145f6102b3565b5f80fd5b73ffffffffffffffffffffffffffffffffffffffff8116036102e857565b91908251928382525f5b8481106103525750507fffffffffffffffffffffffffffffffffffffffffffffffffffffffffffffffe0601f845f6020809697860101520116010190565b80602080928401015182828601015201610314565b90602061037892818152019061030a565b90565b346102e85760407ffffffffffffffffffffffffffffffffffffffffffffffffffffffffffffffffc3601126102e8576004356103b6816102ec565b60243567ffffffffffffffff81116102e857366023820112156102e857806004013567ffffffffffffffff81116102e85736602482840101116102e8576104109260246104049301906118e3565b60405191829182610367565b0390f35b346102e85760407ffffffffffffffffffffffffffffffffffffffffffffffffffffffffffffffffc3601126102e8575f80600435610451816102ec565b60243561045d816102ec565b610465611f9f565b8260405173ffffffffffffffffffffffffffffffffffffffff60208201937ff5770b1f000000000000000000000000000000000000000000000000000000008552166024820152602481526104bb604482610802565b51925af16104c76119e5565b90156104cf57005b805190602001fd5b7ffffffffffffffffffffffffffffffffffffffffffffffffffffffffffffffffc60409101126102e85760043590602435610378816102ec565b346102e85761051f366104d7565b610527611f4e565b815f52600160205260ff61055c8260405f209073ffffffffffffffffffffffffffffffffffffffff165f5260205260405f2090565b54166105fc5773ffffffffffffffffffffffffffffffffffffffff90825f5260016020526105ab8160405f209073ffffffffffffffffffffffffffffffffffffffff165f5260205260405f2090565b60017fffffffffffffffffffffffffffffffffffffffffffffffffffffffffffffff0082541617905516337fe7442843a65013dba5eebc77d5a00f5fafa588af0da4bf39250936d4783bb5535f80a4005b73ffffffffffffffffffffffffffffffffffffffff917fcbb4ac0d000000000000000000000000000000000000000000000000000000005f526004521660245260445ffd5b6004359060058210156102e857565b346102e85760407ffffffffffffffffffffffffffffffffffffffffffffffffffffffffffffffffc3601126102e857610687610641565b60243590610694826102ec565b61069c612020565b6106a682826120a1565b915f60016106dc83826106b887611a1e565b019073ffffffffffffffffffffffffffffffffffffffff165f5260205260405f2090565b82815501556106ea82611a1e565b54600583101561074a5760408051338152602081019590955284015273ffffffffffffffffffffffffffffffffffffffff16917fb7f8dab0a3f2f478718a38c5863cbbab82c45cb4ce52eb7bad5c4f04048a156f9080606081015b0390a3005b7f4e487b71000000000000000000000000000000000000000000000000000000005f52602160045260245ffd5b346102e85760407ffffffffffffffffffffffffffffffffffffffffffffffffffffffffffffffffc3601126102e85760206107cd6107c86107b6610641565b602435906107c3826102ec565b6120a1565b612163565b604051908152f35b7f4e487b71000000000000000000000000000000000000000000000000000000005f52604160045260245ffd5b90601f7fffffffffffffffffffffffffffffffffffffffffffffffffffffffffffffffe0910116810190811067ffffffffffffffff82111761084357604052565b6107d5565b67ffffffffffffffff811161084357601f017fffffffffffffffffffffffffffffffffffffffffffffffffffffffffffffffe01660200190565b60407ffffffffffffffffffffffffffffffffffffffffffffffffffffffffffffffffc3601126102e8576004356108b8816102ec565b6024359067ffffffffffffffff82116102e857366023830112156102e8578160040135906108e582610848565b916108f36040519384610802565b80835236602482860101116102e8576020815f92602461001897018387013784010152611a35565b5f9103126102e857565b346102e8575f7ffffffffffffffffffffffffffffffffffffffffffffffffffffffffffffffffc3601126102e85773ffffffffffffffffffffffffffffffffffffffff7f00000000000000000000000000000000000000000000000000000000000000001630036109ba5760206040517f360894a13ba1a3210667c828492db98dca3e2076cc3735a920a3ca505d382bbc8152f35b7fe07c8dba000000000000000000000000000000000000000000000000000000005f5260045ffd5b346102e85760407ffffffffffffffffffffffffffffffffffffffffffffffffffffffffffffffffc3601126102e8575f80600435610a1f816102ec565b602435610a2a612020565b8260405160208101927f8ec688690000000000000000000000000000000000000000000000000000000084526024820152602481526104bb604482610802565b346102e8575f7ffffffffffffffffffffffffffffffffffffffffffffffffffffffffffffffffc3601126102e85760206040517fb14660b418a31c41c49910ea4e1ea1db721d1282b2cfaf9895cf50eab055bd8d8152f35b346102e85760c07ffffffffffffffffffffffffffffffffffffffffffffffffffffffffffffffffc3601126102e857600435610afd816102ec565b6024359060a435608435606435604435610b16846102ec565b7ff0c57e16840df040f15088dc2f81fe391c3923bec73e23a9662efc9c229c6a00549567ffffffffffffffff610b6560ff60408a901c1615610b57565b1590565b9867ffffffffffffffff1690565b1680159081610d58575b6001149081610d4e575b159081610d45575b50610d1d57610c029587610bf960017fffffffffffffffffffffffffffffffffffffffffffffffff00000000000000007ff0c57e16840df040f15088dc2f81fe391c3923bec73e23a9662efc9c229c6a005416177ff0c57e16840df040f15088dc2f81fe391c3923bec73e23a9662efc9c229c6a0055565b610ca257611b73565b610c0857005b610c737fffffffffffffffffffffffffffffffffffffffffffffff00ffffffffffffffff7ff0c57e16840df040f15088dc2f81fe391c3923bec73e23a9662efc9c229c6a0054167ff0c57e16840df040f15088dc2f81fe391c3923bec73e23a9662efc9c229c6a0055565b604051600181527fc7f505b2f371ae2175ee4913f4499e1f2633a7b5936321eed1cdaeb6115181d290602090a1005b610d18680100000000000000007fffffffffffffffffffffffffffffffffffffffffffffff00ffffffffffffffff7ff0c57e16840df040f15088dc2f81fe391c3923bec73e23a9662efc9c229c6a005416177ff0c57e16840df040f15088dc2f81fe391c3923bec73e23a9662efc9c229c6a0055565b611b73565b7ff92ee8a9000000000000000000000000000000000000000000000000000000005f5260045ffd5b9050155f610b81565b303b159150610b79565b889150610b6f565b346102e8575f7ffffffffffffffffffffffffffffffffffffffffffffffffffffffffffffffffc3601126102e85760206040517f2dca0f5ce7e75a4b43fe2b0d6f5d0b7a2bf92ecf89f8f0aa17b8308b670388218152f35b346102e85760207ffffffffffffffffffffffffffffffffffffffffffffffffffffffffffffffffc3601126102e85773ffffffffffffffffffffffffffffffffffffffff600435610e08816102ec565b610e10611f4e565b16807fffffffffffffffffffffffff00000000000000000000000000000000000000005f5416175f55337fbdd36143ee09de60bdefca70680e0f71189b2ed7acee364b53917ad433fdaf805f80a3005b346102e8575f7ffffffffffffffffffffffffffffffffffffffffffffffffffffffffffffffffc3601126102e85760206040516402540be4008152f35b346102e85760207ffffffffffffffffffffffffffffffffffffffffffffffffffffffffffffffffc3601126102e857600435610ed8816102ec565b610ee0611f4e565b73ffffffffffffffffffffffffffffffffffffffff806002541691610f04816122d4565b6040519283521660208201527f8a2921926cceeec9c87402055ba6edb6a752234970f3b7b8f99183b622b3e01460403392a2005b346102e8575f7ffffffffffffffffffffffffffffffffffffffffffffffffffffffffffffffffc3601126102e857602073ffffffffffffffffffffffffffffffffffffffff60025416604051908152f35b346102e85760407ffffffffffffffffffffffffffffffffffffffffffffffffffffffffffffffffc3601126102e85760206107cd6107b6610641565b346102e8575f7ffffffffffffffffffffffffffffffffffffffffffffffffffffffffffffffffc3601126102e85760206040517fdafa4310f27470d00421df39e0238302b93ed6cf97d700cc8956ff2876e7b1e78152f35b346102e85760407ffffffffffffffffffffffffffffffffffffffffffffffffffffffffffffffffc3601126102e857611054610641565b60243561105f612020565b6110688161238c565b61107182611a1e565b54908061107d84611a1e565b55600583101561074a576040805133815260208101939093528201527ff4cb1d2734c9a8fc58614adae67ed933bf35438b252c7f51fbfcb6fff0bab8be90606090a2005b346102e8575f7ffffffffffffffffffffffffffffffffffffffffffffffffffffffffffffffffc3601126102e857610410604051611100604082610802565b600581527f352e302e30000000000000000000000000000000000000000000000000000000602082015260405191829160208352602083019061030a565b346102e85760207ffffffffffffffffffffffffffffffffffffffffffffffffffffffffffffffffc3601126102e85760206107cd600435612163565b346102e85760207ffffffffffffffffffffffffffffffffffffffffffffffffffffffffffffffffc3601126102e85760206111bb6111b6610641565b611a1e565b54604051908152f35b346102e85760207ffffffffffffffffffffffffffffffffffffffffffffffffffffffffffffffffc3601126102e85760206107cd6112036111b6610641565b54612163565b346102e8575f7ffffffffffffffffffffffffffffffffffffffffffffffffffffffffffffffffc3601126102e85760207f6544391000000000000000000000000000000000000000000000000000000000604051908152f35b346102e8575f7ffffffffffffffffffffffffffffffffffffffffffffffffffffffffffffffffc3601126102e857602073ffffffffffffffffffffffffffffffffffffffff60045416604051908152f35b346102e85760607ffffffffffffffffffffffffffffffffffffffffffffffffffffffffffffffffc3601126102e8576112ea610641565b602435906112f7826102ec565b7fb7f8dab0a3f2f478718a38c5863cbbab82c45cb4ce52eb7bad5c4f04048a156f73ffffffffffffffffffffffffffffffffffffffff60443593611339612020565b6113428561238c565b61074561134f82866120a1565b9560ff6113618460016106b88a611a1e565b5416156113a4575b80600161137a85826106b88b611a1e565b015561138586611a14565b6040805133815260208101989098528701529116939081906060820190565b6113b38360016106b889611a1e565b60017fffffffffffffffffffffffffffffffffffffffffffffffffffffffffffffff00825416179055611369565b346102e8576113ef366104d7565b6113f7611f4e565b815f52600160205260ff61142c8260405f209073ffffffffffffffffffffffffffffffffffffffff165f5260205260405f2090565b5416156114ca5773ffffffffffffffffffffffffffffffffffffffff90825f52600160205261147c8160405f209073ffffffffffffffffffffffffffffffffffffffff165f5260205260405f2090565b7fffffffffffffffffffffffffffffffffffffffffffffffffffffffffffffff00815416905516337fd1c3e214f7584ab57912c23f3cead20e310547c9823c8bc891ba162e356227345f80a4005b73ffffffffffffffffffffffffffffffffffffffff917f6514a824000000000000000000000000000000000000000000000000000000005f526004521660245260445ffd5b346102e8576020611528611522366104d7565b90612462565b6040519015158152f35b346102e85760407ffffffffffffffffffffffffffffffffffffffffffffffffffffffffffffffffc3601126102e85760043561156d816102ec565b602435611579816102ec565b611581611f4e565b73ffffffffffffffffffffffffffffffffffffffff81169182156116b7576040517f70a0823100000000000000000000000000000000000000000000000000000000815230600482015273ffffffffffffffffffffffffffffffffffffffff8216929091602083602481875afa9283156116b2575f93611681575b50821561163e5761160e9183916124e5565b60405190815233907f54e738f5d652d49c5aab44c5db8d93b5991df1fa4eadaae8cf2717951497e6ac90602090a4005b7fd5006a2e000000000000000000000000000000000000000000000000000000005f5273ffffffffffffffffffffffffffffffffffffffff841660045260245b5ffd5b6116a491935060203d6020116116ab575b61169c8183610802565b810190611ccb565b915f6115fc565b503d611692565b611cda565b7f0424f44c000000000000000000000000000000000000000000000000000000005f5260045ffd5b346102e85760407ffffffffffffffffffffffffffffffffffffffffffffffffffffffffffffffffc3601126102e85760043567ffffffffffffffff81116102e857366023820112156102e85780600401359067ffffffffffffffff82116102e8573660248360051b830101116102e857610018916024803592611761846102ec565b01611d2c565b346102e85760207ffffffffffffffffffffffffffffffffffffffffffffffffffffffffffffffffc3601126102e8576004356117a2816102ec565b6117aa611f9f565b73ffffffffffffffffffffffffffffffffffffffff80600454921691827fffffffffffffffffffffffff000000000000000000000000000000000000000082161760045516337fe12891ebe30d5f5d47856103adbbd7804332e875271e2903e5dd759badf2f42d5f80a4005b346102e8575f7ffffffffffffffffffffffffffffffffffffffffffffffffffffffffffffffffc3601126102e857602073ffffffffffffffffffffffffffffffffffffffff5f5416604051908152f35b346102e8575f7ffffffffffffffffffffffffffffffffffffffffffffffffffffffffffffffffc3601126102e8576104106040516118a5604082610802565b600481527f76312e3100000000000000000000000000000000000000000000000000000000602082015260405191829160208352602083019061030a565b90916118ed611f4e565b5f806040518386823780848101838152039082865af19261190c6119e5565b93156119ac57907fb24ebe141c5f2a744b103bea65fce6c40e0dc65d7341d092c09b160f40447990916119a6606073ffffffffffffffffffffffffffffffffffffffff7fffffffffffffffffffffffffffffffffffffffffffffffffffffffffffffffe0601f86604051978897604089528160408a0152868901375f8582890101520116840196828589030160208601521695018661030a565b0390a290565b83518490156119bd57602081519101fd5b7fa25f61e6000000000000000000000000000000000000000000000000000000005f5260045ffd5b3d15611a0f573d906119f682610848565b91611a046040519384610802565b82523d5f602084013e565b606090565b6005111561074a57565b600581101561074a575f52600360205260405f2090565b9091611a3f612200565b611a47611f4e565b604051927f52d1902d00000000000000000000000000000000000000000000000000000000845260208460048173ffffffffffffffffffffffffffffffffffffffff87165afa5f9481611b3f575b50611adc577f4c9c8ce3000000000000000000000000000000000000000000000000000000005f5273ffffffffffffffffffffffffffffffffffffffff831660045260245ffd5b90917f360894a13ba1a3210667c828492db98dca3e2076cc3735a920a3ca505d382bbc8403611b1257611b109293506127a5565b565b7faa1d49a4000000000000000000000000000000000000000000000000000000005f52600484905260245ffd5b9094506020813d602011611b6b575b81611b5b60209383610802565b810103126102e85751935f611a95565b3d9150611b4e565b73ffffffffffffffffffffffffffffffffffffffff90611b91612200565b611b996128d6565b611ba16128d6565b16807fffffffffffffffffffffffff00000000000000000000000000000000000000005f5416175f555f7fbdd36143ee09de60bdefca70680e0f71189b2ed7acee364b53917ad433fdaf808180a3611bf88161238c565b611c018261238c565b611c0a8361238c565b611c138461238c565b60036020527f3617319a054d772f909f7c479a2cebe5066e836a939412e32403c99029b92eff557f83ec6a1f0257b830b5e016457c9cf1435391bf56cc98f369a58a54fe93772465557fa15bc60c955c405d20d9149c709e2460f1c2d9a497496a7f46004d1772c3054c5560025f527fc3a24b0501bd2c13a7e57f2db4369ec4c223447539fc0724a9d55ac4a06ebd4d5573ffffffffffffffffffffffffffffffffffffffff8116611cc25750565b611b10906122d4565b908160209103126102e8575190565b6040513d5f823e3d90fd5b9190811015611cf55760051b0190565b7f4e487b71000000000000000000000000000000000000000000000000000000005f52603260045260245ffd5b35610378816102ec565b73ffffffffffffffffffffffffffffffffffffffff831692918315611f2657611d57610b53336123cf565b80611efc575b611e93575f5b818110611df85750505047905f80808085855af1611d7f6119e5565b5015611db457506040519081527f471c95db9ae5c6f902bc9bf9d1b68834d1fd11d37ae3c127387693cb5317f72790602090a2565b7fd54ea680000000000000000000000000000000000000000000000000000000005f5273ffffffffffffffffffffffffffffffffffffffff1660045260245260445ffd5b611e2a611e11611e11611e0c848688611ce5565b611d22565b73ffffffffffffffffffffffffffffffffffffffff1690565b90813b156102e8575f80926004604051809581937f78f82ce70000000000000000000000000000000000000000000000000000000083525af19182156116b257600192611e79575b5001611d63565b80611e875f611e8d93610802565b8061091b565b5f611e72565b61167e83611eb55f5473ffffffffffffffffffffffffffffffffffffffff1690565b7fac045a20000000000000000000000000000000000000000000000000000000005f5273ffffffffffffffffffffffffffffffffffffffff91821660045216602452604490565b50611f1e611e115f5473ffffffffffffffffffffffffffffffffffffffff1690565b841415611d5d565b7f16650253000000000000000000000000000000000000000000000000000000005f5260045ffd5b73ffffffffffffffffffffffffffffffffffffffff5f5416338103611f705750565b7fc6cce6a4000000000000000000000000000000000000000000000000000000005f526004523360245260445ffd5b611fc9337fb14660b418a31c41c49910ea4e1ea1db721d1282b2cfaf9895cf50eab055bd8d612462565b15611fd057565b7f6e6c2928000000000000000000000000000000000000000000000000000000005f52336004527fb14660b418a31c41c49910ea4e1ea1db721d1282b2cfaf9895cf50eab055bd8d60245260445ffd5b61204a337fdafa4310f27470d00421df39e0238302b93ed6cf97d700cc8956ff2876e7b1e7612462565b1561205157565b7f6e6c2928000000000000000000000000000000000000000000000000000000005f52336004527fdafa4310f27470d00421df39e0238302b93ed6cf97d700cc8956ff2876e7b1e760245260445ffd5b906120b19060016106b884611a1e565b90604051916040830183811067ffffffffffffffff821117610843576040526020600160ff835416151592838652015493019283525f146120f157505190565b6120fb9150611a1e565b5490565b7f4e487b71000000000000000000000000000000000000000000000000000000005f52601160045260245ffd5b8115612136570490565b7f4e487b71000000000000000000000000000000000000000000000000000000005f52601260045260245ffd5b73ffffffffffffffffffffffffffffffffffffffff6002541680156121e15781156121e1576121a26fffffffffffffffffffffffffffffffff916125e2565b92919050169081159081156121e7575b506121e157670de0b6b3a76400008202918204670de0b6b3a7640000036121dc576103789161212c565b6120ff565b50505f90565b905062015180018062015180116121dc5742115f6121b2565b73ffffffffffffffffffffffffffffffffffffffff7f000000000000000000000000000000000000000000000000000000000000000016803014908115612249575b506109ba57565b905073ffffffffffffffffffffffffffffffffffffffff7f360894a13ba1a3210667c828492db98dca3e2076cc3735a920a3ca505d382bbc541614155f612242565b519069ffffffffffffffffffff821682036102e857565b908160a09103126102e8576122b68161228b565b9160208201519160408101519161037860806060840151930161228b565b73ffffffffffffffffffffffffffffffffffffffff168061231b575b7fffffffffffffffffffffffff00000000000000000000000000000000000000006002541617600255565b6040517ffeaf968c00000000000000000000000000000000000000000000000000000000815260a081600481855afa80156116b25761235b575b506122f0565b61237c9060a03d60a011612385575b6123748183610802565b8101906122a2565b50505050612355565b503d61236a565b6402540be400811161239b5750565b7f330ce9f1000000000000000000000000000000000000000000000000000000005f526004526402540be40060245260445ffd5b73ffffffffffffffffffffffffffffffffffffffff5f541673ffffffffffffffffffffffffffffffffffffffff821614908115612415575b50612410575f90565b600190565b73ffffffffffffffffffffffffffffffffffffffff165f9081527fee26f1166c4c8567cc04a3db2deb224bdd71a3e5856b681622ab37d6fb0806a2602052604081205460ff169150612407565b9073ffffffffffffffffffffffffffffffffffffffff5f541673ffffffffffffffffffffffffffffffffffffffff8216149182156124a5575b5050612410575f90565b60ff9250906124dc915f52600160205260405f209073ffffffffffffffffffffffffffffffffffffffff165f5260205260405f2090565b54165f8061249b565b6040517fa9059cbb00000000000000000000000000000000000000000000000000000000602080830191825273ffffffffffffffffffffffffffffffffffffffff94909416602483015260448083019590955293815290925f9161254a606482610802565b519082855af115611cda575f513d6125c0575073ffffffffffffffffffffffffffffffffffffffff81163b155b61257e5750565b73ffffffffffffffffffffffffffffffffffffffff907f5274afe7000000000000000000000000000000000000000000000000000000005f521660045260245ffd5b60011415612577565b908160209103126102e8575160ff811681036102e85790565b73ffffffffffffffffffffffffffffffffffffffff16801561279c57604051907f313ce567000000000000000000000000000000000000000000000000000000008252602082600481845afa5f928161276b575b506126455750505f905f905f90565b60ff821660248111908115612762575b506127585760a060049291604051938480927ffeaf968c0000000000000000000000000000000000000000000000000000000082525afa91825f915f94612730575b506126a7575050505f905f905f90565b5f81131561272857824210612728576fffffffffffffffffffffffffffffffff81116127285780600860ff8416036126f5575b506fffffffffffffffffffffffffffffffff16926008929150565b6127019150829061293e565b906fffffffffffffffffffffffffffffffff82116127205781906126da565b5f9390929150565b50915f929190565b90935061274c915060a03d60a011612385576123748183610802565b5092505090925f612697565b50505f905f905f90565b9050155f612655565b61278e91935060203d602011612795575b6127868183610802565b8101906125c9565b915f612636565b503d61277c565b505f905f905f90565b90813b156128945773ffffffffffffffffffffffffffffffffffffffff8216807fffffffffffffffffffffffff00000000000000000000000000000000000000007f360894a13ba1a3210667c828492db98dca3e2076cc3735a920a3ca505d382bbc5416177f360894a13ba1a3210667c828492db98dca3e2076cc3735a920a3ca505d382bbc557fbc7cd75a20ee27fd9adebab32041f755214dbc6bffa90cc0225b39da2e5c2d3b5f80a280511561286357612860916129bb565b50565b50503461286c57565b7fb398979f000000000000000000000000000000000000000000000000000000005f5260045ffd5b73ffffffffffffffffffffffffffffffffffffffff827f4c9c8ce3000000000000000000000000000000000000000000000000000000005f521660045260245ffd5b60ff7ff0c57e16840df040f15088dc2f81fe391c3923bec73e23a9662efc9c229c6a005460401c161561290557565b7fd7e6bcf8000000000000000000000000000000000000000000000000000000005f5260045ffd5b60ff16604d81116121dc57600a0a90565b9060ff166008811161297e5760088110612956575090565b60080360ff81116121dc5761296a9061292d565b908181029181830414901517156121dc5790565b7ffffffffffffffffffffffffffffffffffffffffffffffffffffffffffffffff8019060ff82116121dc576129b56103789261292d565b9061212c565b5f8061037893602081519101845af46129d26119e5565b9190612a1057508051156129e857805190602001fd5b7fd6bda275000000000000000000000000000000000000000000000000000000005f5260045ffd5b81511580612a63575b612a21575090565b73ffffffffffffffffffffffffffffffffffffffff907f9996b315000000000000000000000000000000000000000000000000000000005f521660045260245ffd5b50803b15612a1956fea26469706673582212206630eb26a678aa5dd85a56a2665e0fdfa3ea784b1e4ea88c3fecebc583410ce964736f6c634300081d0033f0c57e16840df040f15088dc2f81fe391c3923bec73e23a9662efc9c229c6a00",
    "linkReferences": {}
  },
  "methodIdentifiers": {
    "ATTESTOR_MANAGER_ROLE()": "5a051198",
    "FEE_COLLECTOR_ROLE()": "62a2a47c",
    "FEE_MANAGEMENT_ROLE()": "8afaa8b8",
    "MAX_FEE_USD()": "78ef7aea",
    "MINIMAL_INTERFACE_ID()": "c34df33e",
    "UPGRADE_INTERFACE_VERSION()": "ad3cb1cc",
    "VERSION()": "ffa1ad74",
    "admin()": "f851a440",
    "attestor()": "cada25c2",
    "calculateMinFeeWei(uint8)": "baf8f4b9",
    "calculateMinFeeWeiFor(uint8,address)": "419d289d",
    "convertUSDFeeToWei(uint256)": "b0fa59e8",
    "disableCustomFeeUSDFor(uint8,address)": "2fa32f4a",
    "execute(address,bytes)": "1cff79cd",
    "getMinFeeUSD(uint8)": "b9fbe2f8",
    "getMinFeeUSDFor(uint8,address)": "88dc31a8",
    "grantRole(bytes32,address)": "2f2ff15d",
    "hasRoleOrIsAdmin(bytes32,address)": "e1678c6e",
    "initialize(address,uint256,uint256,uint256,uint256,address)": "5df5f96f",
    "lowerMinFeeUSDForCampaign(address,uint256)": "56ad7460",
    "oracle()": "7dc0d1d0",
    "proxiableUUID()": "52d1902d",
    "revokeRole(bytes32,address)": "d547741f",
    "setAttestor(address)": "f5770b1f",
    "setAttestorForCampaign(address,address)": "294323b7",
    "setCustomFeeUSDFor(uint8,address,uint256)": "d09e86d9",
    "setMinFeeUSD(uint8,uint256)": "9f467352",
    "setOracle(address)": "7adbf973",
    "supportsInterface(bytes4)": "01ffc9a7",
    "transferAdmin(address)": "75829def",
    "transferFees(address[],address)": "f2fc84b7",
    "upgradeToAndCall(address,bytes)": "4f1ef286",
    "withdrawERC20Token(address,address)": "ecfbe70c"
  },
  "storageLayout": {
    "storage": [
      {
        "astId": 62566,
        "contract": "src/SablierComptroller.sol:SablierComptroller",
        "label": "admin",
        "offset": 0,
        "slot": "0",
        "type": "t_address"
      },
      {
        "astId": 62992,
        "contract": "src/SablierComptroller.sol:SablierComptroller",
        "label": "_roles",
        "offset": 0,
        "slot": "1",
        "type": "t_mapping(t_bytes32,t_mapping(t_address,t_bool))"
      },
      {
        "astId": 63231,
        "contract": "src/SablierComptroller.sol:SablierComptroller",
        "label": "oracle",
        "offset": 0,
        "slot": "2",
        "type": "t_address"
      },
      {
        "astId": 63238,
        "contract": "src/SablierComptroller.sol:SablierComptroller",
        "label": "_protocolFees",
        "offset": 0,
        "slot": "3",
        "type": "t_mapping(t_enum(Protocol)64332,t_struct(ProtocolFees)64341_storage)"
      },
      {
        "astId": 63242,
        "contract": "src/SablierComptroller.sol:SablierComptroller",
        "label": "attestor",
        "offset": 0,
        "slot": "4",
        "type": "t_address"
      },
      {
        "astId": 63247,
        "contract": "src/SablierComptroller.sol:SablierComptroller",
        "label": "__gap",
        "offset": 0,
        "slot": "5",
        "type": "t_array(t_uint256)45_storage"
      }
    ],
    "types": {
      "t_address": {
        "encoding": "inplace",
        "label": "address",
        "numberOfBytes": "20"
      },
      "t_array(t_uint256)45_storage": {
        "encoding": "inplace",
        "label": "uint256[45]",
        "numberOfBytes": "1440",
        "base": "t_uint256"
      },
      "t_bool": {
        "encoding": "inplace",
        "label": "bool",
        "numberOfBytes": "1"
      },
      "t_bytes32": {
        "encoding": "inplace",
        "label": "bytes32",
        "numberOfBytes": "32"
      },
      "t_enum(Protocol)64332": {
        "encoding": "inplace",
        "label": "enum ISablierComptroller.Protocol",
        "numberOfBytes": "1"
      },
      "t_mapping(t_address,t_bool)": {
        "encoding": "mapping",
        "key": "t_address",
        "label": "mapping(address => bool)",
        "numberOfBytes": "32",
        "value": "t_bool"
      },
      "t_mapping(t_address,t_struct(CustomFeeUSD)64325_storage)": {
        "encoding": "mapping",
        "key": "t_address",
        "label": "mapping(address => struct ISablierComptroller.CustomFeeUSD)",
        "numberOfBytes": "32",
        "value": "t_struct(CustomFeeUSD)64325_storage"
      },
      "t_mapping(t_bytes32,t_mapping(t_address,t_bool))": {
        "encoding": "mapping",
        "key": "t_bytes32",
        "label": "mapping(bytes32 => mapping(address => bool))",
        "numberOfBytes": "32",
        "value": "t_mapping(t_address,t_bool)"
      },
      "t_mapping(t_enum(Protocol)64332,t_struct(ProtocolFees)64341_storage)": {
        "encoding": "mapping",
        "key": "t_enum(Protocol)64332",
        "label": "mapping(enum ISablierComptroller.Protocol => struct ISablierComptroller.ProtocolFees)",
        "numberOfBytes": "32",
        "value": "t_struct(ProtocolFees)64341_storage"
      },
      "t_struct(CustomFeeUSD)64325_storage": {
        "encoding": "inplace",
        "label": "struct ISablierComptroller.CustomFeeUSD",
        "numberOfBytes": "64",
        "members": [
          {
            "astId": 64322,
            "contract": "src/SablierComptroller.sol:SablierComptroller",
            "label": "enabled",
            "offset": 0,
            "slot": "0",
            "type": "t_bool"
          },
          {
            "astId": 64324,
            "contract": "src/SablierComptroller.sol:SablierComptroller",
            "label": "fee",
            "offset": 0,
            "slot": "1",
            "type": "t_uint256"
          }
        ]
      },
      "t_struct(ProtocolFees)64341_storage": {
        "encoding": "inplace",
        "label": "struct ISablierComptroller.ProtocolFees",
        "numberOfBytes": "64",
        "members": [
          {
            "astId": 64335,
            "contract": "src/SablierComptroller.sol:SablierComptroller",
            "label": "minFeeUSD",
            "offset": 0,
            "slot": "0",
            "type": "t_uint256"
          },
          {
            "astId": 64340,
            "contract": "src/SablierComptroller.sol:SablierComptroller",
            "label": "customFeesUSD",
            "offset": 0,
            "slot": "1",
            "type": "t_mapping(t_address,t_struct(CustomFeeUSD)64325_storage)"
          }
        ]
      },
      "t_uint256": {
        "encoding": "inplace",
        "label": "uint256",
        "numberOfBytes": "32"
      }
    }
  },
  "id": 73
}