{
  "abi": [
    {
      "type": "constructor",
      "inputs": [
        {
          "name": "name_",
          "type": "string",
          "internalType": "string"
        },
        {
          "name": "symbol_",
          "type": "string",
          "internalType": "string"
        },
        {
          "name": "decimals_",
          "type": "uint8",
          "internalType": "uint8"
        },
        {
          "name": "sablierBob",
          "type": "address",
          "internalType": "address"
        },
        {
          "name": "vaultId",
          "type": "uint256",
          "internalType": "uint256"
        }
      ],
      "stateMutability": "nonpayable"
    },
    {
      "type": "function",
      "name": "SABLIER_BOB",
      "inputs": [],
      "outputs": [
        {
          "name": "",
          "type": "address",
          "internalType": "address"
        }
      ],
      "stateMutability": "view"
    },
    {
      "type": "function",
      "name": "VAULT_ID",
      "inputs": [],
      "outputs": [
        {
          "name": "",
          "type": "uint256",
          "internalType": "uint256"
        }
      ],
      "stateMutability": "view"
    },
    {
      "type": "function",
      "name": "allowance",
      "inputs": [
        {
          "name": "owner",
          "type": "address",
          "internalType": "address"
        },
        {
          "name": "spender",
          "type": "address",
          "internalType": "address"
        }
      ],
      "outputs": [
        {
          "name": "",
          "type": "uint256",
          "internalType": "uint256"
        }
      ],
      "stateMutability": "view"
    },
    {
      "type": "function",
      "name": "approve",
      "inputs": [
        {
          "name": "spender",
          "type": "address",
          "internalType": "address"
        },
        {
          "name": "value",
          "type": "uint256",
          "internalType": "uint256"
        }
      ],
      "outputs": [
        {
          "name": "",
          "type": "bool",
          "internalType": "bool"
        }
      ],
      "stateMutability": "nonpayable"
    },
    {
      "type": "function",
      "name": "balanceOf",
      "inputs": [
        {
          "name": "account",
          "type": "address",
          "internalType": "address"
        }
      ],
      "outputs": [
        {
          "name": "",
          "type": "uint256",
          "internalType": "uint256"
        }
      ],
      "stateMutability": "view"
    },
    {
      "type": "function",
      "name": "burn",
      "inputs": [
        {
          "name": "vaultId",
          "type": "uint256",
          "internalType": "uint256"
        },
        {
          "name": "from",
          "type": "address",
          "internalType": "address"
        },
        {
          "name": "amount",
          "type": "uint256",
          "internalType": "uint256"
        }
      ],
      "outputs": [],
      "stateMutability": "nonpayable"
    },
    {
      "type": "function",
      "name": "decimals",
      "inputs": [],
      "outputs": [
        {
          "name": "",
          "type": "uint8",
          "internalType": "uint8"
        }
      ],
      "stateMutability": "view"
    },
    {
      "type": "function",
      "name": "mint",
      "inputs": [
        {
          "name": "vaultId",
          "type": "uint256",
          "internalType": "uint256"
        },
        {
          "name": "to",
          "type": "address",
          "internalType": "address"
        },
        {
          "name": "amount",
          "type": "uint256",
          "internalType": "uint256"
        }
      ],
      "outputs": [],
      "stateMutability": "nonpayable"
    },
    {
      "type": "function",
      "name": "name",
      "inputs": [],
      "outputs": [
        {
          "name": "",
          "type": "string",
          "internalType": "string"
        }
      ],
      "stateMutability": "view"
    },
    {
      "type": "function",
      "name": "symbol",
      "inputs": [],
      "outputs": [
        {
          "name": "",
          "type": "string",
          "internalType": "string"
        }
      ],
      "stateMutability": "view"
    },
    {
      "type": "function",
      "name": "totalSupply",
      "inputs": [],
      "outputs": [
        {
          "name": "",
          "type": "uint256",
          "internalType": "uint256"
        }
      ],
      "stateMutability": "view"
    },
    {
      "type": "function",
      "name": "transfer",
      "inputs": [
        {
          "name": "to",
          "type": "address",
          "internalType": "address"
        },
        {
          "name": "value",
          "type": "uint256",
          "internalType": "uint256"
        }
      ],
      "outputs": [
        {
          "name": "",
          "type": "bool",
          "internalType": "bool"
        }
      ],
      "stateMutability": "nonpayable"
    },
    {
      "type": "function",
      "name": "transferFrom",
      "inputs": [
        {
          "name": "from",
          "type": "address",
          "internalType": "address"
        },
        {
          "name": "to",
          "type": "address",
          "internalType": "address"
        },
        {
          "name": "value",
          "type": "uint256",
          "internalType": "uint256"
        }
      ],
      "outputs": [
        {
          "name": "",
          "type": "bool",
          "internalType": "bool"
        }
      ],
      "stateMutability": "nonpayable"
    },
    {
      "type": "event",
      "name": "Approval",
      "inputs": [
        {
          "name": "owner",
          "type": "address",
          "indexed": true,
          "internalType": "address"
        },
        {
          "name": "spender",
          "type": "address",
          "indexed": true,
          "internalType": "address"
        },
        {
          "name": "value",
          "type": "uint256",
          "indexed": false,
          "internalType": "uint256"
        }
      ],
      "anonymous": false
    },
    {
      "type": "event",
      "name": "Transfer",
      "inputs": [
        {
          "name": "from",
          "type": "address",
          "indexed": true,
          "internalType": "address"
        },
        {
          "name": "to",
          "type": "address",
          "indexed": true,
          "internalType": "address"
        },
        {
          "name": "value",
          "type": "uint256",
          "indexed": false,
          "internalType": "uint256"
        }
      ],
      "anonymous": false
    },
    {
      "type": "error",
      "name": "BobVaultShare_OnlySablierBob",
      "inputs": [
        {
          "name": "caller",
          "type": "address",
          "internalType": "address"
        },
        {
          "name": "expectedCaller",
          "type": "address",
          "internalType": "address"
        }
      ]
    },
    {
      "type": "error",
      "name": "BobVaultShare_VaultIdMismatch",
      "inputs": [
        {
          "name": "providedVaultId",
          "type": "uint256",
          "internalType": "uint256"
        },
        {
          "name": "expectedVaultId",
          "type": "uint256",
          "internalType": "uint256"
        }
      ]
    },
    {
      "type": "error",
      "name": "ERC20InsufficientAllowance",
      "inputs": [
        {
          "name": "spender",
          "type": "address",
          "internalType": "address"
        },
        {
          "name": "allowance",
          "type": "uint256",
          "internalType": "uint256"
        },
        {
          "name": "needed",
          "type": "uint256",
          "internalType": "uint256"
        }
      ]
    },
    {
      "type": "error",
      "name": "ERC20InsufficientBalance",
      "inputs": [
        {
          "name": "sender",
          "type": "address",
          "internalType": "address"
        },
        {
          "name": "balance",
          "type": "uint256",
          "internalType": "uint256"
        },
        {
          "name": "needed",
          "type": "uint256",
          "internalType": "uint256"
        }
      ]
    },
    {
      "type": "error",
      "name": "ERC20InvalidApprover",
      "inputs": [
        {
          "name": "approver",
          "type": "address",
          "internalType": "address"
        }
      ]
    },
    {
      "type": "error",
      "name": "ERC20InvalidReceiver",
      "inputs": [
        {
          "name": "receiver",
          "type": "address",
          "internalType": "address"
        }
      ]
    },
    {
      "type": "error",
      "name": "ERC20InvalidSender",
      "inputs": [
        {
          "name": "sender",
          "type": "address",
          "internalType": "address"
        }
      ]
    },
    {
      "type": "error",
      "name": "ERC20InvalidSpender",
      "inputs": [
        {
          "name": "spender",
          "type": "address",
          "internalType": "address"
        }
      ]
    }
  ],
  "bytecode": {
    "object": "0x60e06040523461039e5761121b80380380610019816103a2565b928339810160a08282031261039e5781516001600160401b03811161039e57816100449184016103c7565b602083015190916001600160401b03821161039e576100649184016103c7565b91604081015160ff8116810361039e576060820151916001600160a01b038316830361039e5760800151835190936001600160401b0382116102a15760035490600182811c92168015610394575b60208310146102835781601f849311610326575b50602090601f83116001146102c0575f926102b5575b50508160011b915f199060031b1c1916176003555b83516001600160401b0381116102a157600454600181811c91168015610297575b602082101461028357601f8111610220575b50602094601f82116001146101bd579481929394955f926101b2575b50508160011b915f199060031b1c1916176004555b60c05260805260a052604051610dea908161043182396080518181816101850152818161021e015281816105200152610cc8015260a0518181816102480152818161054a015281816106d60152610d23015260c051816107300152f35b015190505f80610140565b601f1982169560045f52805f20915f5b888110610208575083600195969798106101f0575b505050811b01600455610155565b01515f1960f88460031b161c191690555f80806101e2565b919260206001819286850151815501940192016101cd565b60045f527f8a35acfbc15ff81a39ae7d344fd709f28e8600b4aa8c65c6b64bfe7fe36bd19b601f830160051c81019160208410610279575b601f0160051c01905b81811061026e5750610124565b5f8155600101610261565b9091508190610258565b634e487b7160e01b5f52602260045260245ffd5b90607f1690610112565b634e487b7160e01b5f52604160045260245ffd5b015190505f806100dc565b60035f9081528281209350601f198516905b81811061030e57509084600195949392106102f6575b505050811b016003556100f1565b01515f1960f88460031b161c191690555f80806102e8565b929360206001819287860151815501950193016102d2565b60035f529091507fc2575a0e9e593c00f959f8c92f12db2869c3395a3b0502d05e2516446f71f85b601f840160051c8101916020851061038a575b90601f859493920160051c01905b81811061037c57506100c6565b5f815584935060010161036f565b9091508190610361565b91607f16916100b2565b5f80fd5b6040519190601f01601f191682016001600160401b038111838210176102a157604052565b81601f8201121561039e578051906001600160401b0382116102a1576103f6601f8301601f19166020016103a2565b928284526020838301011161039e575f5b82811061041b57505060205f918301015290565b8060208092840101518282870101520161040756fe6080806040526004361015610012575f80fd5b5f3560e01c90816306fdde03146109d057508063095ea7b31461092357806318160ddd146108e857806323b872dd14610754578063313ce567146106f9578063540acabc146106a157806370a082311461063f578063836a1040146104fa57806395d89b41146103a15780639eea5f66146101f8578063a9059cbb146101a9578063aa2e3b981461013b5763dd62ed3e146100ab575f80fd5b346101375760407ffffffffffffffffffffffffffffffffffffffffffffffffffffffffffffffffc360112610137576100e2610b0c565b73ffffffffffffffffffffffffffffffffffffffff6100ff610b2f565b91165f52600160205273ffffffffffffffffffffffffffffffffffffffff60405f2091165f52602052602060405f2054604051908152f35b5f80fd5b34610137575f7ffffffffffffffffffffffffffffffffffffffffffffffffffffffffffffffffc36011261013757602060405173ffffffffffffffffffffffffffffffffffffffff7f0000000000000000000000000000000000000000000000000000000000000000168152f35b346101375760407ffffffffffffffffffffffffffffffffffffffffffffffffffffffffffffffffc360112610137576101ed6101e3610b0c565b6024359033610c15565b602060405160018152f35b346101375761020636610b52565b9173ffffffffffffffffffffffffffffffffffffffff7f00000000000000000000000000000000000000000000000000000000000000001680330361037257507f000000000000000000000000000000000000000000000000000000000000000090818103610344578373ffffffffffffffffffffffffffffffffffffffff84168015610318575f818152602081905260409020548281106102e6576020835f947fddf252ad1be2c89b69c2b068fc378daa952ba7f163c4a11628f55a4df523b3ef938587528684520360408620558060025403600255604051908152a3005b907fe450d38c000000000000000000000000000000000000000000000000000000005f5260045260245260445260645ffd5b7f96c6fd1e000000000000000000000000000000000000000000000000000000005f525f60045260245ffd5b7f900604d5000000000000000000000000000000000000000000000000000000005f5260045260245260445ffd5b7fdb702112000000000000000000000000000000000000000000000000000000005f523360045260245260445ffd5b34610137575f7ffffffffffffffffffffffffffffffffffffffffffffffffffffffffffffffffc360112610137576040515f6004548060011c906001811680156104f0575b6020831081146104c3578285529081156104815750600114610423575b61041f8361041381850382610ba7565b60405191829182610aa6565b0390f35b91905060045f527f8a35acfbc15ff81a39ae7d344fd709f28e8600b4aa8c65c6b64bfe7fe36bd19b915f905b80821061046757509091508101602001610413610403565b91926001816020925483858801015201910190929161044f565b7fffffffffffffffffffffffffffffffffffffffffffffffffffffffffffffff001660208086019190915291151560051b840190910191506104139050610403565b7f4e487b71000000000000000000000000000000000000000000000000000000005f52602260045260245ffd5b91607f16916103e6565b346101375761050836610b52565b9173ffffffffffffffffffffffffffffffffffffffff7f00000000000000000000000000000000000000000000000000000000000000001680330361037257507f0000000000000000000000000000000000000000000000000000000000000000908181036103445773ffffffffffffffffffffffffffffffffffffffff8316848115610613575f80525f602052600254908082018092116105e65760207fddf252ad1be2c89b69c2b068fc378daa952ba7f163c4a11628f55a4df523b3ef915f9360025584845283825260408420818154019055604051908152a3005b7f4e487b71000000000000000000000000000000000000000000000000000000005f52601160045260245ffd5b7fec442f05000000000000000000000000000000000000000000000000000000005f525f60045260245ffd5b346101375760207ffffffffffffffffffffffffffffffffffffffffffffffffffffffffffffffffc3601126101375773ffffffffffffffffffffffffffffffffffffffff61068b610b0c565b165f525f602052602060405f2054604051908152f35b34610137575f7ffffffffffffffffffffffffffffffffffffffffffffffffffffffffffffffffc3601126101375760206040517f00000000000000000000000000000000000000000000000000000000000000008152f35b34610137575f7ffffffffffffffffffffffffffffffffffffffffffffffffffffffffffffffffc36011261013757602060405160ff7f0000000000000000000000000000000000000000000000000000000000000000168152f35b346101375760607ffffffffffffffffffffffffffffffffffffffffffffffffffffffffffffffffc3601126101375761078b610b0c565b610793610b2f565b6044359073ffffffffffffffffffffffffffffffffffffffff831692835f52600160205260405f2073ffffffffffffffffffffffffffffffffffffffff33165f5260205260405f20547fffffffffffffffffffffffffffffffffffffffffffffffffffffffffffffffff811061080f575b506101ed9350610c15565b8381106108b457841561088857331561085c576101ed945f52600160205260405f2073ffffffffffffffffffffffffffffffffffffffff33165f526020528360405f209103905584610804565b7f94280d62000000000000000000000000000000000000000000000000000000005f525f60045260245ffd5b7fe602df05000000000000000000000000000000000000000000000000000000005f525f60045260245ffd5b83907ffb8f41b2000000000000000000000000000000000000000000000000000000005f523360045260245260445260645ffd5b34610137575f7ffffffffffffffffffffffffffffffffffffffffffffffffffffffffffffffffc360112610137576020600254604051908152f35b346101375760407ffffffffffffffffffffffffffffffffffffffffffffffffffffffffffffffffc3601126101375761095a610b0c565b6024359033156108885773ffffffffffffffffffffffffffffffffffffffff1690811561085c57335f52600160205260405f20825f526020528060405f20556040519081527f8c5be1e5ebec7d5bd14f71427d1e84f3dd0314c0f7b2291e5b200ac8c7c3b92560203392a3602060405160018152f35b34610137575f7ffffffffffffffffffffffffffffffffffffffffffffffffffffffffffffffffc360112610137575f6003548060011c90600181168015610a9c575b6020831081146104c3578285529081156104815750600114610a3e5761041f8361041381850382610ba7565b91905060035f527fc2575a0e9e593c00f959f8c92f12db2869c3395a3b0502d05e2516446f71f85b915f905b808210610a8257509091508101602001610413610403565b919260018160209254838588010152019101909291610a6a565b91607f1691610a12565b919091602081528251928360208301525f5b848110610af65750507fffffffffffffffffffffffffffffffffffffffffffffffffffffffffffffffe0601f845f6040809697860101520116010190565b8060208092840101516040828601015201610ab8565b6004359073ffffffffffffffffffffffffffffffffffffffff8216820361013757565b6024359073ffffffffffffffffffffffffffffffffffffffff8216820361013757565b7ffffffffffffffffffffffffffffffffffffffffffffffffffffffffffffffffc6060910112610137576004359060243573ffffffffffffffffffffffffffffffffffffffff81168103610137579060443590565b90601f7fffffffffffffffffffffffffffffffffffffffffffffffffffffffffffffffe0910116810190811067ffffffffffffffff821117610be857604052565b7f4e487b71000000000000000000000000000000000000000000000000000000005f52604160045260245ffd5b73ffffffffffffffffffffffffffffffffffffffff169081156103185773ffffffffffffffffffffffffffffffffffffffff168015610613575f828152602081905260409020549182848110610d81578490825f525f6020520360405f2055815f525f60205260405f2084815401905581817fddf252ad1be2c89b69c2b068fc378daa952ba7f163c4a11628f55a4df523b3ef6020604051888152a373ffffffffffffffffffffffffffffffffffffffff7f00000000000000000000000000000000000000000000000000000000000000001690813b15610137575f60a492819560405197889687957f801837f60000000000000000000000000000000000000000000000000000000087527f0000000000000000000000000000000000000000000000000000000000000000600488015260248701526044860152606485015260848401525af18015610d7657610d6a5750565b5f610d7491610ba7565b565b6040513d5f823e3d90fd5b84917fe450d38c000000000000000000000000000000000000000000000000000000005f5260045260245260445260645ffdfea26469706673582212209d9157574f918237d0f86bc15bd26f4e8242fc01bb0c89f3e8e245bcd077060164736f6c634300081d0033",
    "linkReferences": {}
  },
  "methodIdentifiers": {
    "SABLIER_BOB()": "aa2e3b98",
    "VAULT_ID()": "540acabc",
    "allowance(address,address)": "dd62ed3e",
    "approve(address,uint256)": "095ea7b3",
    "balanceOf(address)": "70a08231",
    "burn(uint256,address,uint256)": "9eea5f66",
    "decimals()": "313ce567",
    "mint(uint256,address,uint256)": "836a1040",
    "name()": "06fdde03",
    "symbol()": "95d89b41",
    "totalSupply()": "18160ddd",
    "transfer(address,uint256)": "a9059cbb",
    "transferFrom(address,address,uint256)": "23b872dd"
  },
  "id": 77
}