{
  "abi": [
    {
      "type": "constructor",
      "inputs": [
        {
          "name": "initialComptroller",
          "type": "address",
          "internalType": "address"
        }
      ],
      "stateMutability": "nonpayable"
    },
    {
      "type": "function",
      "name": "calculateMinFeeWei",
      "inputs": [
        {
          "name": "vaultId",
          "type": "uint256",
          "internalType": "uint256"
        }
      ],
      "outputs": [
        {
          "name": "minFeeWei",
          "type": "uint256",
          "internalType": "uint256"
        }
      ],
      "stateMutability": "view"
    },
    {
      "type": "function",
      "name": "comptroller",
      "inputs": [],
      "outputs": [
        {
          "name": "",
          "type": "address",
          "internalType": "contract ISablierComptroller"
        }
      ],
      "stateMutability": "view"
    },
    {
      "type": "function",
      "name": "createVault",
      "inputs": [
        {
          "name": "token",
          "type": "address",
          "internalType": "contract IERC20"
        },
        {
          "name": "oracle",
          "type": "address",
          "internalType": "contract AggregatorV3Interface"
        },
        {
          "name": "expiry",
          "type": "uint40",
          "internalType": "uint40"
        },
        {
          "name": "targetPrice",
          "type": "uint128",
          "internalType": "uint128"
        }
      ],
      "outputs": [
        {
          "name": "vaultId",
          "type": "uint256",
          "internalType": "uint256"
        }
      ],
      "stateMutability": "nonpayable"
    },
    {
      "type": "function",
      "name": "enter",
      "inputs": [
        {
          "name": "vaultId",
          "type": "uint256",
          "internalType": "uint256"
        },
        {
          "name": "amount",
          "type": "uint128",
          "internalType": "uint128"
        }
      ],
      "outputs": [],
      "stateMutability": "nonpayable"
    },
    {
      "type": "function",
      "name": "enterWithNativeToken",
      "inputs": [
        {
          "name": "vaultId",
          "type": "uint256",
          "internalType": "uint256"
        }
      ],
      "outputs": [],
      "stateMutability": "payable"
    },
    {
      "type": "function",
      "name": "getAdapter",
      "inputs": [
        {
          "name": "vaultId",
          "type": "uint256",
          "internalType": "uint256"
        }
      ],
      "outputs": [
        {
          "name": "adapter",
          "type": "address",
          "internalType": "contract ISablierBobAdapter"
        }
      ],
      "stateMutability": "view"
    },
    {
      "type": "function",
      "name": "getDefaultAdapterFor",
      "inputs": [
        {
          "name": "token",
          "type": "address",
          "internalType": "contract IERC20"
        }
      ],
      "outputs": [
        {
          "name": "adapter",
          "type": "address",
          "internalType": "contract ISablierBobAdapter"
        }
      ],
      "stateMutability": "view"
    },
    {
      "type": "function",
      "name": "getExpiry",
      "inputs": [
        {
          "name": "vaultId",
          "type": "uint256",
          "internalType": "uint256"
        }
      ],
      "outputs": [
        {
          "name": "expiry",
          "type": "uint40",
          "internalType": "uint40"
        }
      ],
      "stateMutability": "view"
    },
    {
      "type": "function",
      "name": "getLastSyncedAt",
      "inputs": [
        {
          "name": "vaultId",
          "type": "uint256",
          "internalType": "uint256"
        }
      ],
      "outputs": [
        {
          "name": "lastSyncedAt",
          "type": "uint40",
          "internalType": "uint40"
        }
      ],
      "stateMutability": "view"
    },
    {
      "type": "function",
      "name": "getLastSyncedPrice",
      "inputs": [
        {
          "name": "vaultId",
          "type": "uint256",
          "internalType": "uint256"
        }
      ],
      "outputs": [
        {
          "name": "lastSyncedPrice",
          "type": "uint128",
          "internalType": "uint128"
        }
      ],
      "stateMutability": "view"
    },
    {
      "type": "function",
      "name": "getOracle",
      "inputs": [
        {
          "name": "vaultId",
          "type": "uint256",
          "internalType": "uint256"
        }
      ],
      "outputs": [
        {
          "name": "oracle",
          "type": "address",
          "internalType": "contract AggregatorV3Interface"
        }
      ],
      "stateMutability": "view"
    },
    {
      "type": "function",
      "name": "getShareToken",
      "inputs": [
        {
          "name": "vaultId",
          "type": "uint256",
          "internalType": "uint256"
        }
      ],
      "outputs": [
        {
          "name": "shareToken",
          "type": "address",
          "internalType": "contract IBobVaultShare"
        }
      ],
      "stateMutability": "view"
    },
    {
      "type": "function",
      "name": "getTargetPrice",
      "inputs": [
        {
          "name": "vaultId",
          "type": "uint256",
          "internalType": "uint256"
        }
      ],
      "outputs": [
        {
          "name": "targetPrice",
          "type": "uint128",
          "internalType": "uint128"
        }
      ],
      "stateMutability": "view"
    },
    {
      "type": "function",
      "name": "getUnderlyingToken",
      "inputs": [
        {
          "name": "vaultId",
          "type": "uint256",
          "internalType": "uint256"
        }
      ],
      "outputs": [
        {
          "name": "token",
          "type": "address",
          "internalType": "contract IERC20"
        }
      ],
      "stateMutability": "view"
    },
    {
      "type": "function",
      "name": "isStakedInAdapter",
      "inputs": [
        {
          "name": "vaultId",
          "type": "uint256",
          "internalType": "uint256"
        }
      ],
      "outputs": [
        {
          "name": "stakedInAdapter",
          "type": "bool",
          "internalType": "bool"
        }
      ],
      "stateMutability": "view"
    },
    {
      "type": "function",
      "name": "nativeToken",
      "inputs": [],
      "outputs": [
        {
          "name": "",
          "type": "address",
          "internalType": "address"
        }
      ],
      "stateMutability": "view"
    },
    {
      "type": "function",
      "name": "nextVaultId",
      "inputs": [],
      "outputs": [
        {
          "name": "",
          "type": "uint256",
          "internalType": "uint256"
        }
      ],
      "stateMutability": "view"
    },
    {
      "type": "function",
      "name": "onShareTransfer",
      "inputs": [
        {
          "name": "vaultId",
          "type": "uint256",
          "internalType": "uint256"
        },
        {
          "name": "from",
          "type": "address",
          "internalType": "address"
        },
        {
          "name": "to",
          "type": "address",
          "internalType": "address"
        },
        {
          "name": "amount",
          "type": "uint256",
          "internalType": "uint256"
        },
        {
          "name": "fromBalanceBefore",
          "type": "uint256",
          "internalType": "uint256"
        }
      ],
      "outputs": [],
      "stateMutability": "nonpayable"
    },
    {
      "type": "function",
      "name": "redeem",
      "inputs": [
        {
          "name": "vaultId",
          "type": "uint256",
          "internalType": "uint256"
        }
      ],
      "outputs": [
        {
          "name": "transferAmount",
          "type": "uint128",
          "internalType": "uint128"
        },
        {
          "name": "feeAmountDeductedFromYield",
          "type": "uint128",
          "internalType": "uint128"
        }
      ],
      "stateMutability": "payable"
    },
    {
      "type": "function",
      "name": "setComptroller",
      "inputs": [
        {
          "name": "newComptroller",
          "type": "address",
          "internalType": "contract ISablierComptroller"
        }
      ],
      "outputs": [],
      "stateMutability": "nonpayable"
    },
    {
      "type": "function",
      "name": "setDefaultAdapter",
      "inputs": [
        {
          "name": "token",
          "type": "address",
          "internalType": "contract IERC20"
        },
        {
          "name": "newAdapter",
          "type": "address",
          "internalType": "contract ISablierBobAdapter"
        }
      ],
      "outputs": [],
      "stateMutability": "nonpayable"
    },
    {
      "type": "function",
      "name": "setNativeToken",
      "inputs": [
        {
          "name": "newNativeToken",
          "type": "address",
          "internalType": "address"
        }
      ],
      "outputs": [],
      "stateMutability": "nonpayable"
    },
    {
      "type": "function",
      "name": "statusOf",
      "inputs": [
        {
          "name": "vaultId",
          "type": "uint256",
          "internalType": "uint256"
        }
      ],
      "outputs": [
        {
          "name": "status",
          "type": "uint8",
          "internalType": "enum Bob.Status"
        }
      ],
      "stateMutability": "view"
    },
    {
      "type": "function",
      "name": "syncPriceFromOracle",
      "inputs": [
        {
          "name": "vaultId",
          "type": "uint256",
          "internalType": "uint256"
        }
      ],
      "outputs": [
        {
          "name": "latestPrice",
          "type": "uint128",
          "internalType": "uint128"
        }
      ],
      "stateMutability": "nonpayable"
    },
    {
      "type": "function",
      "name": "transferFeesToComptroller",
      "inputs": [],
      "outputs": [],
      "stateMutability": "nonpayable"
    },
    {
      "type": "function",
      "name": "unstakeTokensViaAdapter",
      "inputs": [
        {
          "name": "vaultId",
          "type": "uint256",
          "internalType": "uint256"
        }
      ],
      "outputs": [
        {
          "name": "amountReceivedFromAdapter",
          "type": "uint128",
          "internalType": "uint128"
        }
      ],
      "stateMutability": "nonpayable"
    },
    {
      "type": "event",
      "name": "CreateVault",
      "inputs": [
        {
          "name": "vaultId",
          "type": "uint256",
          "indexed": true,
          "internalType": "uint256"
        },
        {
          "name": "token",
          "type": "address",
          "indexed": true,
          "internalType": "contract IERC20"
        },
        {
          "name": "oracle",
          "type": "address",
          "indexed": true,
          "internalType": "contract AggregatorV3Interface"
        },
        {
          "name": "adapter",
          "type": "address",
          "indexed": false,
          "internalType": "contract ISablierBobAdapter"
        },
        {
          "name": "shareToken",
          "type": "address",
          "indexed": false,
          "internalType": "contract IBobVaultShare"
        },
        {
          "name": "targetPrice",
          "type": "uint128",
          "indexed": false,
          "internalType": "uint128"
        },
        {
          "name": "expiry",
          "type": "uint40",
          "indexed": false,
          "internalType": "uint40"
        }
      ],
      "anonymous": false
    },
    {
      "type": "event",
      "name": "Enter",
      "inputs": [
        {
          "name": "vaultId",
          "type": "uint256",
          "indexed": true,
          "internalType": "uint256"
        },
        {
          "name": "user",
          "type": "address",
          "indexed": true,
          "internalType": "address"
        },
        {
          "name": "amountReceived",
          "type": "uint128",
          "indexed": false,
          "internalType": "uint128"
        },
        {
          "name": "sharesMinted",
          "type": "uint128",
          "indexed": false,
          "internalType": "uint128"
        }
      ],
      "anonymous": false
    },
    {
      "type": "event",
      "name": "Redeem",
      "inputs": [
        {
          "name": "vaultId",
          "type": "uint256",
          "indexed": true,
          "internalType": "uint256"
        },
        {
          "name": "user",
          "type": "address",
          "indexed": true,
          "internalType": "address"
        },
        {
          "name": "amountReceived",
          "type": "uint128",
          "indexed": false,
          "internalType": "uint128"
        },
        {
          "name": "sharesBurned",
          "type": "uint128",
          "indexed": false,
          "internalType": "uint128"
        },
        {
          "name": "fee",
          "type": "uint256",
          "indexed": false,
          "internalType": "uint256"
        }
      ],
      "anonymous": false
    },
    {
      "type": "event",
      "name": "SetComptroller",
      "inputs": [
        {
          "name": "oldComptroller",
          "type": "address",
          "indexed": false,
          "internalType": "contract ISablierComptroller"
        },
        {
          "name": "newComptroller",
          "type": "address",
          "indexed": false,
          "internalType": "contract ISablierComptroller"
        }
      ],
      "anonymous": false
    },
    {
      "type": "event",
      "name": "SetDefaultAdapter",
      "inputs": [
        {
          "name": "token",
          "type": "address",
          "indexed": true,
          "internalType": "contract IERC20"
        },
        {
          "name": "adapter",
          "type": "address",
          "indexed": true,
          "internalType": "contract ISablierBobAdapter"
        }
      ],
      "anonymous": false
    },
    {
      "type": "event",
      "name": "SetNativeToken",
      "inputs": [
        {
          "name": "comptroller",
          "type": "address",
          "indexed": true,
          "internalType": "address"
        },
        {
          "name": "nativeToken",
          "type": "address",
          "indexed": false,
          "internalType": "address"
        }
      ],
      "anonymous": false
    },
    {
      "type": "event",
      "name": "SyncPriceFromOracle",
      "inputs": [
        {
          "name": "vaultId",
          "type": "uint256",
          "indexed": true,
          "internalType": "uint256"
        },
        {
          "name": "oracle",
          "type": "address",
          "indexed": true,
          "internalType": "contract AggregatorV3Interface"
        },
        {
          "name": "latestPrice",
          "type": "uint128",
          "indexed": false,
          "internalType": "uint128"
        },
        {
          "name": "syncedAt",
          "type": "uint40",
          "indexed": false,
          "internalType": "uint40"
        }
      ],
      "anonymous": false
    },
    {
      "type": "event",
      "name": "TransferFeesToComptroller",
      "inputs": [
        {
          "name": "comptroller",
          "type": "address",
          "indexed": true,
          "internalType": "address"
        },
        {
          "name": "feeAmount",
          "type": "uint256",
          "indexed": false,
          "internalType": "uint256"
        }
      ],
      "anonymous": false
    },
    {
      "type": "event",
      "name": "UnstakeFromAdapter",
      "inputs": [
        {
          "name": "vaultId",
          "type": "uint256",
          "indexed": true,
          "internalType": "uint256"
        },
        {
          "name": "adapter",
          "type": "address",
          "indexed": true,
          "internalType": "contract ISablierBobAdapter"
        },
        {
          "name": "wrappedTokenUnstakedAmount",
          "type": "uint128",
          "indexed": false,
          "internalType": "uint128"
        },
        {
          "name": "amountReceivedFromAdapter",
          "type": "uint128",
          "indexed": false,
          "internalType": "uint128"
        }
      ],
      "anonymous": false
    },
    {
      "type": "error",
      "name": "Comptrollerable_CallerNotComptroller",
      "inputs": [
        {
          "name": "comptroller",
          "type": "address",
          "internalType": "address"
        },
        {
          "name": "caller",
          "type": "address",
          "internalType": "address"
        }
      ]
    },
    {
      "type": "error",
      "name": "Comptrollerable_UnsupportedInterfaceId",
      "inputs": [
        {
          "name": "previousComptroller",
          "type": "address",
          "internalType": "address"
        },
        {
          "name": "newComptroller",
          "type": "address",
          "internalType": "address"
        },
        {
          "name": "minimalInterfaceId",
          "type": "bytes4",
          "internalType": "bytes4"
        }
      ]
    },
    {
      "type": "error",
      "name": "ReentrancyGuardReentrantCall",
      "inputs": []
    },
    {
      "type": "error",
      "name": "SablierBobState_Null",
      "inputs": [
        {
          "name": "vaultId",
          "type": "uint256",
          "internalType": "uint256"
        }
      ]
    },
    {
      "type": "error",
      "name": "SablierBob_CallerNotShareToken",
      "inputs": [
        {
          "name": "vaultId",
          "type": "uint256",
          "internalType": "uint256"
        },
        {
          "name": "caller",
          "type": "address",
          "internalType": "address"
        }
      ]
    },
    {
      "type": "error",
      "name": "SablierBob_DepositAmountZero",
      "inputs": [
        {
          "name": "vaultId",
          "type": "uint256",
          "internalType": "uint256"
        },
        {
          "name": "user",
          "type": "address",
          "internalType": "address"
        }
      ]
    },
    {
      "type": "error",
      "name": "SablierBob_ExpiryNotInFuture",
      "inputs": [
        {
          "name": "expiry",
          "type": "uint40",
          "internalType": "uint40"
        },
        {
          "name": "currentTime",
          "type": "uint40",
          "internalType": "uint40"
        }
      ]
    },
    {
      "type": "error",
      "name": "SablierBob_ForbidNativeToken",
      "inputs": [
        {
          "name": "nativeToken",
          "type": "address",
          "internalType": "address"
        }
      ]
    },
    {
      "type": "error",
      "name": "SablierBob_InsufficientFeePayment",
      "inputs": [
        {
          "name": "feePaid",
          "type": "uint256",
          "internalType": "uint256"
        },
        {
          "name": "feeRequired",
          "type": "uint256",
          "internalType": "uint256"
        }
      ]
    },
    {
      "type": "error",
      "name": "SablierBob_MsgValueNotZero",
      "inputs": [
        {
          "name": "vaultId",
          "type": "uint256",
          "internalType": "uint256"
        }
      ]
    },
    {
      "type": "error",
      "name": "SablierBob_NativeFeeTransferFailed",
      "inputs": []
    },
    {
      "type": "error",
      "name": "SablierBob_NativeTokenAlreadySet",
      "inputs": [
        {
          "name": "nativeToken",
          "type": "address",
          "internalType": "address"
        }
      ]
    },
    {
      "type": "error",
      "name": "SablierBob_NativeTokenZeroAddress",
      "inputs": []
    },
    {
      "type": "error",
      "name": "SablierBob_NewAdapterMissesInterface",
      "inputs": [
        {
          "name": "adapter",
          "type": "address",
          "internalType": "address"
        }
      ]
    },
    {
      "type": "error",
      "name": "SablierBob_NoSharesToRedeem",
      "inputs": [
        {
          "name": "vaultId",
          "type": "uint256",
          "internalType": "uint256"
        },
        {
          "name": "user",
          "type": "address",
          "internalType": "address"
        }
      ]
    },
    {
      "type": "error",
      "name": "SablierBob_TargetPriceTooLow",
      "inputs": [
        {
          "name": "targetPrice",
          "type": "uint128",
          "internalType": "uint128"
        },
        {
          "name": "currentPrice",
          "type": "uint128",
          "internalType": "uint128"
        }
      ]
    },
    {
      "type": "error",
      "name": "SablierBob_TargetPriceZero",
      "inputs": []
    },
    {
      "type": "error",
      "name": "SablierBob_TokenAddressZero",
      "inputs": []
    },
    {
      "type": "error",
      "name": "SablierBob_UnstakeAmountZero",
      "inputs": [
        {
          "name": "vaultId",
          "type": "uint256",
          "internalType": "uint256"
        }
      ]
    },
    {
      "type": "error",
      "name": "SablierBob_VaultAlreadyUnstaked",
      "inputs": [
        {
          "name": "vaultId",
          "type": "uint256",
          "internalType": "uint256"
        }
      ]
    },
    {
      "type": "error",
      "name": "SablierBob_VaultHasNoAdapter",
      "inputs": [
        {
          "name": "vaultId",
          "type": "uint256",
          "internalType": "uint256"
        }
      ]
    },
    {
      "type": "error",
      "name": "SablierBob_VaultNotActive",
      "inputs": [
        {
          "name": "vaultId",
          "type": "uint256",
          "internalType": "uint256"
        }
      ]
    },
    {
      "type": "error",
      "name": "SablierBob_VaultStillActive",
      "inputs": [
        {
          "name": "vaultId",
          "type": "uint256",
          "internalType": "uint256"
        }
      ]
    },
    {
      "type": "error",
      "name": "SafeCastOverflowedUintDowncast",
      "inputs": [
        {
          "name": "bits",
          "type": "uint8",
          "internalType": "uint8"
        },
        {
          "name": "value",
          "type": "uint256",
          "internalType": "uint256"
        }
      ]
    },
    {
      "type": "error",
      "name": "SafeERC20FailedOperation",
      "inputs": [
        {
          "name": "token",
          "type": "address",
          "internalType": "address"
        }
      ]
    },
    {
      "type": "error",
      "name": "SafeOracle_DecimalsTooHigh",
      "inputs": [
        {
          "name": "oracle",
          "type": "address",
          "internalType": "address"
        },
        {
          "name": "decimals",
          "type": "uint8",
          "internalType": "uint8"
        }
      ]
    },
    {
      "type": "error",
      "name": "SafeOracle_DecimalsZero",
      "inputs": [
        {
          "name": "oracle",
          "type": "address",
          "internalType": "address"
        }
      ]
    },
    {
      "type": "error",
      "name": "SafeOracle_MissesInterface",
      "inputs": [
        {
          "name": "oracle",
          "type": "address",
          "internalType": "address"
        }
      ]
    },
    {
      "type": "error",
      "name": "SafeOracle_NotPositivePrice",
      "inputs": [
        {
          "name": "oracle",
          "type": "address",
          "internalType": "address"
        }
      ]
    }
  ],
  "bytecode": {
    "object": "0x6080806040523461012357602081614956803803809161001f828561013a565b83398101031261012357516001600160a01b03811690819003610123576040516301ffc9a760e01b8152630654439160e41b6004820152602081602481855afa90811561012f575f916100f0575b50156100cf575f80546001600160a01b031916821781556040805191825260208201929092527ff45d882a72fce9d8d7a7e2e196a338d4d9d4057510b4b9ddf91a7066104d2eaf9190a16001805560016004556040516147e490816101728239f35b6364ca3de160e11b5f525f600452602452630654439160e41b60445260645ffd5b90506020813d602011610127575b8161010b6020938361013a565b8101031261012357518015158103610123575f61006d565b5f80fd5b3d91506100fe565b6040513d5f823e3d90fd5b601f909101601f19168101906001600160401b0382119082101761015d57604052565b634e487b7160e01b5f52604160045260245ffdfe60806040526004361015610011575f80fd5b5f5f3560e01c80629dd14f1461225957806310a9de60146121ef57806312ac1763146121b457806313c726081461215957806346de071d146120f357806350129dff1461163d5780635645ed77146115e75780635fe3b5671461159657806365957bf51461153e5780636da1e1021461141857806378f82ce7146113915780637aca734b14611110578063801837f614610f835780638bad38dd14610d4c5780638f4f896814610cf0578063a06da63014610c7b578063a153803914610c16578063a477577214610baf578063ad35efd414610b29578063b18c0adb1461098d578063c8d293b7146108f5578063cca138e5146108a7578063db006a75146102e4578063ddeadbb61461027a578063e1758bd8146102285763ef96122914610137575f80fd5b60207ffffffffffffffffffffffffffffffffffffffffffffffffffffffffffffffffc3601126102255760043561016c612984565b61017581612512565b61017e81612c54565b808252600560205273ffffffffffffffffffffffffffffffffffffffff604083205416803b1561021657826040517fd0e30db0000000000000000000000000000000000000000000000000000000008152818160048134875af1801561021a57610201575b50506101fa916101f234612f3c565b903090612cc5565b6001805580f35b8161020b916122d7565b61021657825f6101e3565b8280fd5b6040513d84823e3d90fd5b80fd5b503461022557807ffffffffffffffffffffffffffffffffffffffffffffffffffffffffffffffffc36011261022557602073ffffffffffffffffffffffffffffffffffffffff60035416604051908152f35b50346102255760207ffffffffffffffffffffffffffffffffffffffffffffffffffffffffffffffffc3601126102255773ffffffffffffffffffffffffffffffffffffffff600360406020936004356102d281612512565b81526005855220015416604051908152f35b5060207ffffffffffffffffffffffffffffffffffffffffffffffffffffffffffffffffc3601126102255760043561031a612984565b61032381612512565b8161032d826129bd565b600381101561087a571561082e575b818352600560205273ffffffffffffffffffffffffffffffffffffffff60036040852001541691808452600560205273ffffffffffffffffffffffffffffffffffffffff60016040862001541691818552600560205273ffffffffffffffffffffffffffffffffffffffff604086205416926040517f70a08231000000000000000000000000000000000000000000000000000000008152336004820152602081602481855afa80156108235787906107ef575b6103fa9150612f3c565b946fffffffffffffffffffffffffffffffff86169283156107bf578115610692575034610666579060408792858452600560205260ff6003838620015460a01c16610622575b60648251809a81937fe5eefedd0000000000000000000000000000000000000000000000000000000083528960048401523360248401528860448401525af195861561021a57829783976105eb575b506fffffffffffffffffffffffffffffffff87989716806105c3575b505b813b15610216576040517f9eea5f66000000000000000000000000000000000000000000000000000000008152600481018690523360248201526fffffffffffffffffffffffffffffffff9190911660448201529082908290606490829084905af1801561021a576105ae575b505061053b6fffffffffffffffffffffffffffffffff851680943390612f98565b60405192835260208301526fffffffffffffffffffffffffffffffff841660408301527f66263a58856c3e57dbd58eff9f6ca2879ceeee962dd9036291613ddb9a1d444360603393a360018055604080516fffffffffffffffffffffffffffffffff928316815292909116602083015290f35b6105b98280926122d7565b610225578061051a565b6105e59073ffffffffffffffffffffffffffffffffffffffff85541688612f98565b5f6104ab565b90965061061191975060403d60401161061b575b61060981836122d7565b8101906124ee565b969096955f61048f565b503d6105ff565b85845260056020526003828520017fffffffffffffffffffffff00ffffffffffffffffffffffffffffffffffffffff81541690556106608187612b62565b50610440565b602487857f2327fe21000000000000000000000000000000000000000000000000000000008252600452fd5b9691905073ffffffffffffffffffffffffffffffffffffffff8254166040517fbaf8f4b9000000000000000000000000000000000000000000000000000000008152600480820152602081602481855afa9081156107b457849161077e575b5080341061074f575082903461070a575b5050856104ad565b8180809234905af161071a6123cf565b501561072757815f610702565b6004827ff0623c63000000000000000000000000000000000000000000000000000000008152fd5b7fb96cf21700000000000000000000000000000000000000000000000000000000845234600452602452604483fd5b90506020813d6020116107ac575b81610799602093836122d7565b810103126107a857515f6106f1565b5f80fd5b3d915061078c565b6040513d86823e3d90fd5b604488867f7305a0a700000000000000000000000000000000000000000000000000000000825260045233602452fd5b506020813d60201161081b575b81610809602093836122d7565b810103126107a8576103fa90516103f0565b3d91506107fc565b6040513d89823e3d90fd5b61083782612a1a565b50610841826129bd565b600381101561087a5761033c57602483837f865b93d0000000000000000000000000000000000000000000000000000000008252600452fd5b6024847f4e487b710000000000000000000000000000000000000000000000000000000081526021600452fd5b50346102255760207ffffffffffffffffffffffffffffffffffffffffffffffffffffffffffffffffc3601126102255760206108ed6004356108e881612512565b612433565b604051908152f35b50346102255760407ffffffffffffffffffffffffffffffffffffffffffffffffffffffffffffffffc360112610225576024356004356fffffffffffffffffffffffffffffffff82168203610216576101fa91610950612984565b61095982612512565b61096282612c54565b818452600560205273ffffffffffffffffffffffffffffffffffffffff604085205416913390612cc5565b50346102255760407ffffffffffffffffffffffffffffffffffffffffffffffffffffffffffffffffc360112610225576109c56122b4565b6024359073ffffffffffffffffffffffffffffffffffffffff8216809203610216576109ef612933565b81610a66575b73ffffffffffffffffffffffffffffffffffffffff16808352600260205260408320827fffffffffffffffffffffffff00000000000000000000000000000000000000008254161790557f2cabb75a6cee74a6a503e79266a06a9a1c337edaad59e67075ac7325e35226bf8380a380f35b6040517f01ffc9a70000000000000000000000000000000000000000000000000000000081527f178fe656000000000000000000000000000000000000000000000000000000006004820152602081602481865afa9081156107b4578491610afa575b506109f557602483837fd06b68b9000000000000000000000000000000000000000000000000000000008252600452fd5b610b1c915060203d602011610b22575b610b1481836122d7565b81019061241b565b5f610ac9565b503d610b0a565b50346102255760207ffffffffffffffffffffffffffffffffffffffffffffffffffffffffffffffffc36011261022557610b6d600435610b6881612512565b6129bd565b604051906003811015610b8257602092508152f35b6024837f4e487b710000000000000000000000000000000000000000000000000000000081526021600452fd5b50346102255760207ffffffffffffffffffffffffffffffffffffffffffffffffffffffffffffffffc3601126102255773ffffffffffffffffffffffffffffffffffffffff6040602092600435610c0581612512565b815260058452205416604051908152f35b50346102255760207ffffffffffffffffffffffffffffffffffffffffffffffffffffffffffffffffc3601126102255773ffffffffffffffffffffffffffffffffffffffff604060209282610c696122b4565b16815260028452205416604051908152f35b50346102255760207ffffffffffffffffffffffffffffffffffffffffffffffffffffffffffffffffc360112610225576020610cd2600435610cbb612984565b610cc481612512565b610ccd81612c54565b612a1a565b600180556fffffffffffffffffffffffffffffffff60405191168152f35b50346102255760207ffffffffffffffffffffffffffffffffffffffffffffffffffffffffffffffffc3601126102255760ff60036040602093600435610d3581612512565b81526005855220015460a01c166040519015158152f35b50346102255760207ffffffffffffffffffffffffffffffffffffffffffffffffffffffffffffffffc360112610225576004359073ffffffffffffffffffffffffffffffffffffffff821680920361022557610da6612933565b80549173ffffffffffffffffffffffffffffffffffffffff8316906040517fc34df33e000000000000000000000000000000000000000000000000000000008152602081600481865afa9081156107b4578491610f24575b507fffffffff00000000000000000000000000000000000000000000000000000000604051917f01ffc9a70000000000000000000000000000000000000000000000000000000083521690816004820152602081602481865afa908115610f19578591610efa575b5015610ec757507ff45d882a72fce9d8d7a7e2e196a338d4d9d4057510b4b9ddf91a7066104d2eaf91816040927fffffffffffffffffffffffff0000000000000000000000000000000000000000871617855582519182526020820152a180f35b91606494507fc9947bc2000000000000000000000000000000000000000000000000000000008452600452602452604452fd5b610f13915060203d602011610b2257610b1481836122d7565b5f610e66565b6040513d87823e3d90fd5b90506020813d602011610f7b575b81610f3f602093836122d7565b81010312610f7757517fffffffff0000000000000000000000000000000000000000000000000000000081168103610f77575f610dfe565b8380fd5b3d9150610f32565b50346102255760a07ffffffffffffffffffffffffffffffffffffffffffffffffffffffffffffffffc360112610225576004359060243573ffffffffffffffffffffffffffffffffffffffff811680910361110c576044359073ffffffffffffffffffffffffffffffffffffffff821680920361021657838352600560205273ffffffffffffffffffffffffffffffffffffffff60016040852001541633036110dc57928293818452600560205273ffffffffffffffffffffffffffffffffffffffff60036040862001541680611058578480f35b803b156110d85784928360a49260405196879586947f3527687f000000000000000000000000000000000000000000000000000000008652600486015260248501526044840152606435606484015260843560848401525af1801561021a576110c3575b8080808480f35b816110cd916122d7565b61022557805f6110bc565b8480fd5b604483857f0c8fb31600000000000000000000000000000000000000000000000000000000825260045233602452fd5b5080fd5b50346102255760207ffffffffffffffffffffffffffffffffffffffffffffffffffffffffffffffffc3601126102255760043561114b612984565b61115481612512565b808252600560205273ffffffffffffffffffffffffffffffffffffffff60036040842001541691821561136657818152600560205260ff600360408320015460a01c161561133b576040517fa59c665d000000000000000000000000000000000000000000000000000000008152826004820152602081602481875afa801561021a5782906112f2575b6fffffffffffffffffffffffffffffffff915016156112c757611200826129bd565b600381101561129a571561124f575b91816003604085610cd295602097526005875220017fffffffffffffffffffffff00ffffffffffffffffffffffffffffffffffffffff8154169055612b62565b61125882612a1a565b50611262826129bd565b600381101561129a5761120f576024917f865b93d0000000000000000000000000000000000000000000000000000000008252600452fd5b6024827f4e487b710000000000000000000000000000000000000000000000000000000081526021600452fd5b6024917fab5331fc000000000000000000000000000000000000000000000000000000008252600452fd5b506020813d602011611333575b8161130c602093836122d7565b8101031261110c5761132e6fffffffffffffffffffffffffffffffff916123fe565b6111de565b3d91506112ff565b6024917f8b3dc224000000000000000000000000000000000000000000000000000000008252600452fd5b6024917f9b1c71a5000000000000000000000000000000000000000000000000000000008252600452fd5b503461022557807ffffffffffffffffffffffffffffffffffffffffffffffffffffffffffffffffc3601126102255773ffffffffffffffffffffffffffffffffffffffff8154167f56dedb874d4fc0f70753f281fa2c25e82085163206086fe826cf834b51701f6c6020478480808084885af15061140d6123cf565b50604051908152a280f35b50346102255760207ffffffffffffffffffffffffffffffffffffffffffffffffffffffffffffffffc3601126102255773ffffffffffffffffffffffffffffffffffffffff6114656122b4565b61146d612933565b1680156115165760035473ffffffffffffffffffffffffffffffffffffffff8116806114eb57507fffffffffffffffffffffffff0000000000000000000000000000000000000000829116176003556040519081527f7b0a5ae0a2e8f0dc2ec7555098e00dd4af1418ee3fd1bcf9bb14f6990c10fa9260203392a280f35b7f72516324000000000000000000000000000000000000000000000000000000008452600452602483fd5b6004827f0e21018b000000000000000000000000000000000000000000000000000000008152fd5b50346102255760207ffffffffffffffffffffffffffffffffffffffffffffffffffffffffffffffffc3601126102255773ffffffffffffffffffffffffffffffffffffffff600160406020936004356102d281612512565b503461022557807ffffffffffffffffffffffffffffffffffffffffffffffffffffffffffffffffc3601126102255773ffffffffffffffffffffffffffffffffffffffff6020915416604051908152f35b50346102255760207ffffffffffffffffffffffffffffffffffffffffffffffffffffffffffffffffc3601126102255760046040602092823561162981612512565b81526005845220015460801c604051908152f35b50346107a85760807ffffffffffffffffffffffffffffffffffffffffffffffffffffffffffffffffc3601126107a8576116756122b4565b6024359173ffffffffffffffffffffffffffffffffffffffff83168093036107a8576044359164ffffffffff83168093036107a857606435906fffffffffffffffffffffffffffffffff82168092036107a85773ffffffffffffffffffffffffffffffffffffffff169081156120cb5773ffffffffffffffffffffffffffffffffffffffff60035416821461209f5764ffffffffff4216938481111561206f57811561204757851561201b576040517f313ce5670000000000000000000000000000000000000000000000000000000081526020816004818a5afa5f9181611ffa575b5061178957867fa3bef8ba000000000000000000000000000000000000000000000000000000005f5260045260245ffd5b60ff81168015611fce5760248111611f9f57506040517ffeaf968c00000000000000000000000000000000000000000000000000000000815260a0816004818b5afa5f9181611f69575b5061180457877fa3bef8ba000000000000000000000000000000000000000000000000000000005f5260045260245ffd5b5f81989697981315611f3d5761182e6fffffffffffffffffffffffffffffffff926118339261303a565b612f3c565b169182811115611f0d576004549560018701600455611851856125b1565b6040517f313ce5670000000000000000000000000000000000000000000000000000000081526020816004818a5afa908115611ea6575f91611ede575b5061189889612752565b9060405192602084017f5361626c69657220426f62200000000000000000000000000000000000000000905283815193602083019480602c8401906118dd9188612331565b8201602c81017f205661756c74202300000000000000000000000000000000000000000000000090528151918260348301916020019161191c92612331565b01602c01036008017fffffffffffffffffffffffffffffffffffffffffffffffffffffffffffffffe08101855261195390856122d7565b61195c86612752565b61196588612752565b61196e8d612752565b916040519586945190816020870161198592612331565b8401602081017f2d000000000000000000000000000000000000000000000000000000000000009052815191826021830191602001916119c492612331565b01602001600181017f2d00000000000000000000000000000000000000000000000000000000000000905281519182600283019160200191611a0592612331565b01600101600181017f2d00000000000000000000000000000000000000000000000000000000000000905281519182600283019160200191611a4692612331565b01600101036001017fffffffffffffffffffffffffffffffffffffffffffffffffffffffffffffffe081018352611a7d90836122d7565b6040519261121b9283850185811067ffffffffffffffff821117611eb15760ff611acc6080938f95611abe908a996135948b3960a0865260a0860190612352565b908482036020860152612352565b94166040820152306060820152015203905ff08015611ea65773ffffffffffffffffffffffffffffffffffffffff1697855f52600260205273ffffffffffffffffffffffffffffffffffffffff60405f2054169460405161012081019281841067ffffffffffffffff851117611eb1578a936040528882526020820187815260408301918252606083018d815260808401908c825260a08501938b855260c08601935f855260e08701988b8a5261010088019889525f52600560205260405f20965173ffffffffffffffffffffffffffffffffffffffff1673ffffffffffffffffffffffffffffffffffffffff1687547fffffffffffffffffffffffff0000000000000000000000000000000000000000161787555186549060a01b78ffffffffff000000000000000000000000000000000000000016907fffffffffffffff0000000000ffffffffffffffffffffffffffffffffffffffff161786555164ffffffffff16611c859086907fffff0000000000ffffffffffffffffffffffffffffffffffffffffffffffffff7dffffffffff0000000000000000000000000000000000000000000000000083549260c81b169116179055565b516001850180547fffffffffffffffffffffffff000000000000000000000000000000000000000090811673ffffffffffffffffffffffffffffffffffffffff93841617909155915160028601805490931690821617909155915160038401805492517fffffffffffffffffffffff000000000000000000000000000000000000000000909316919093161774ff000000000000000000000000000000000000000091151560a01b919091161790559151905160801b7fffffffffffffffffffffffffffffffff00000000000000000000000000000000166fffffffffffffffffffffffffffffffff9091161760049091015583611dc6575b5085927fa0670297fed6c7cac880cea5539b84fba742dbb4cb249f7c1ef7758bfe7ecf57926080926020996040519384528a84015260408301526060820152a4604051908152f35b92803b156107a857604051927fc6405ffb0000000000000000000000000000000000000000000000000000000084528760048501525f8460248183865af1928315611ea65760209989967fa0670297fed6c7cac880cea5539b84fba742dbb4cb249f7c1ef7758bfe7ecf5796608096611e92575b50604081896003935260058e522001740100000000000000000000000000000000000000007fffffffffffffffffffffff00ffffffffffffffffffffffffffffffffffffffff82541617905599509250925092611d7e565b611e9e91505f906122d7565b5f6040611e3a565b6040513d5f823e3d90fd5b7f4e487b71000000000000000000000000000000000000000000000000000000005f52604160045260245ffd5b611f00915060203d602011611f06575b611ef881836122d7565b810190612318565b5f61188e565b503d611eee565b90507fd44a31e2000000000000000000000000000000000000000000000000000000005f5260045260245260445ffd5b857f7d0e789a000000000000000000000000000000000000000000000000000000005f5260045260245ffd5b611f8c91925060a03d60a011611f98575b611f8481836122d7565b81019061257f565b5050509050905f6117d3565b503d611f7a565b877fab5a00c1000000000000000000000000000000000000000000000000000000005f5260045260245260445ffd5b877fa3195fc9000000000000000000000000000000000000000000000000000000005f5260045260245ffd5b61201491925060203d602011611f0657611ef881836122d7565b905f611758565b857fa3bef8ba000000000000000000000000000000000000000000000000000000005f5260045260245ffd5b7f53f36828000000000000000000000000000000000000000000000000000000005f5260045ffd5b84907f1a114464000000000000000000000000000000000000000000000000000000005f5260045260245260445ffd5b507ff3e6b0cd000000000000000000000000000000000000000000000000000000005f5260045260245ffd5b7fbf8c68d2000000000000000000000000000000000000000000000000000000005f5260045ffd5b346107a85760207ffffffffffffffffffffffffffffffffffffffffffffffffffffffffffffffffc3601126107a85760043561212e81612512565b5f52600560205260206fffffffffffffffffffffffffffffffff600460405f20015416604051908152f35b346107a85760207ffffffffffffffffffffffffffffffffffffffffffffffffffffffffffffffffc3601126107a85760043561219481612512565b5f526005602052602064ffffffffff60405f205460a01c16604051908152f35b346107a8575f7ffffffffffffffffffffffffffffffffffffffffffffffffffffffffffffffffc3601126107a8576020600454604051908152f35b346107a85760207ffffffffffffffffffffffffffffffffffffffffffffffffffffffffffffffffc3601126107a85760043561222a81612512565b5f526005602052602073ffffffffffffffffffffffffffffffffffffffff600260405f20015416604051908152f35b346107a85760207ffffffffffffffffffffffffffffffffffffffffffffffffffffffffffffffffc3601126107a85760043561229481612512565b5f526005602052602064ffffffffff60405f205460c81c16604051908152f35b6004359073ffffffffffffffffffffffffffffffffffffffff821682036107a857565b90601f7fffffffffffffffffffffffffffffffffffffffffffffffffffffffffffffffe0910116810190811067ffffffffffffffff821117611eb157604052565b908160209103126107a8575160ff811681036107a85790565b5f5b8381106123425750505f910152565b8181015183820152602001612333565b907fffffffffffffffffffffffffffffffffffffffffffffffffffffffffffffffe0601f60209361238e81518092818752878088019101612331565b0116010190565b67ffffffffffffffff8111611eb157601f017fffffffffffffffffffffffffffffffffffffffffffffffffffffffffffffffe01660200190565b3d156123f9573d906123e082612395565b916123ee60405193846122d7565b82523d5f602084013e565b606090565b51906fffffffffffffffffffffffffffffffff821682036107a857565b908160209103126107a8575180151581036107a85790565b5f52600560205273ffffffffffffffffffffffffffffffffffffffff600360405f200154166124ea576024602073ffffffffffffffffffffffffffffffffffffffff5f5416604051928380927fbaf8f4b90000000000000000000000000000000000000000000000000000000082526004808301525afa908115611ea6575f916124bb575090565b90506020813d6020116124e2575b816124d6602093836122d7565b810103126107a8575190565b3d91506124c9565b5f90565b91908260409103126107a85761250f6020612508846123fe565b93016123fe565b90565b805f52600560205273ffffffffffffffffffffffffffffffffffffffff60405f2054161561253d5750565b7f71dc5162000000000000000000000000000000000000000000000000000000005f5260045260245ffd5b519069ffffffffffffffffffff821682036107a857565b908160a09103126107a85761259381612568565b9160208201519160408101519161250f608060608401519301612568565b5f809160405160208101907f95d89b41000000000000000000000000000000000000000000000000000000008252600481526125ee6024826122d7565b51915afa906125fb6123cf565b91158015612746575b6127095781518201916020818185019403126107a85760208101519067ffffffffffffffff82116107a8570182603f820112156107a857602081015161264981612395565b9361265760405195866122d7565b818552604083830101116107a857612676916040602086019101612331565b601e8251116126cc57612688826130e5565b1561268f57565b905060405161269f6040826122d7565b601281527f556e737570706f727465642053796d626f6c0000000000000000000000000000602082015290565b90506040516126dc6040826122d7565b600b81527f4c6f6e672053796d626f6c000000000000000000000000000000000000000000602082015290565b90506040516127196040826122d7565b600581527f4552433230000000000000000000000000000000000000000000000000000000602082015290565b50604082511115612604565b805f917a184f03e93ff9f4daa797ed6e38ed64bf6a1f01000000000000000082101561290b575b806d04ee2d6d415b85acef8100000000600a9210156128f0575b662386f26fc100008110156128dc575b6305f5e1008110156128cb575b6127108110156128bc575b60648110156128ae575b10156128a3575b600a7fffffffffffffffffffffffffffffffffffffffffffffffffffffffffffffffff602160018501947fffffffffffffffffffffffffffffffffffffffffffffffffffffffffffffffe061283961282388612395565b97612831604051998a6122d7565b808952612395565b013660208801378501015b01917f30313233343536373839616263646566000000000000000000000000000000008282061a835304801561289e577fffffffffffffffffffffffffffffffffffffffffffffffffffffffffffffffff600a9192612844565b505090565b6001909101906127cc565b6064600291049301926127c5565b612710600491049301926127bb565b6305f5e100600891049301926127b0565b662386f26fc10000601091049301926127a3565b6d04ee2d6d415b85acef810000000060209104930192612793565b50604091507a184f03e93ff9f4daa797ed6e38ed64bf6a1f0100000000000000008104612779565b73ffffffffffffffffffffffffffffffffffffffff5f54168033036129555750565b7fa7e1519e000000000000000000000000000000000000000000000000000000005f526004523360245260445ffd5b600260015414612995576002600155565b7f3ee5aeb5000000000000000000000000000000000000000000000000000000005f5260045ffd5b805f52600560205264ffffffffff60405f205460a01c16421015612a14575f90815260056020526040902060040154608081901c6fffffffffffffffffffffffffffffffff9091161115612a0f575f90565b600290565b50600190565b90815f52600560205273ffffffffffffffffffffffffffffffffffffffff600260405f20015416612a4a816132f2565b5050926fffffffffffffffffffffffffffffffff841615612b5b577ff91870972a027f9d8d73d000b8a900240e180d1773aeaae0c3373197b6c213c4604064ffffffffff4216835f526005602052612ae3876004845f2001906fffffffffffffffffffffffffffffffff7fffffffffffffffffffffffffffffffff0000000000000000000000000000000083549260801b169116179055565b5f848152600560205282902080547fffff0000000000ffffffffffffffffffffffffffffffffffffffffffffffffff1660c883901b7dffffffffff00000000000000000000000000000000000000000000000000161790558151906fffffffffffffffffffffffffffffffff881682526020820152a3565b505f925050565b919073ffffffffffffffffffffffffffffffffffffffff16604051927fd0ff74fa0000000000000000000000000000000000000000000000000000000084528060048501526040846024815f865af18015611ea6575f945f91612c11575b50604080516fffffffffffffffffffffffffffffffff9687168152958216602087015290947f763332fd885bef5f1a349d9b6b52de9b437c3e17a1704be2630b8c3f5856972691819081015b0390a3565b7f763332fd885bef5f1a349d9b6b52de9b437c3e17a1704be2630b8c3f585697269550612c4d915060403d60401161061b5761060981836122d7565b9094612bc0565b612c5d816129bd565b6003811015612c9857612c6d5750565b7fddd4dca0000000000000000000000000000000000000000000000000000000005f5260045260245ffd5b7f4e487b71000000000000000000000000000000000000000000000000000000005f52602160045260245ffd5b9192905f916fffffffffffffffffffffffffffffffff85168015612f0c57612cec85612a1a565b50612cf685612c54565b5f8581526005602052604090206003015473ffffffffffffffffffffffffffffffffffffffff16928315612ed057839073ffffffffffffffffffffffffffffffffffffffff81163003612ec25750612d4d92612f98565b803b156107a8576040517f6e9c931c000000000000000000000000000000000000000000000000000000008152600481018490523360248201526fffffffffffffffffffffffffffffffff85166044820152905f908290606490829084905af18015611ea657612eaf575b505b818152600560205273ffffffffffffffffffffffffffffffffffffffff600160408320015416803b1561110c576040517f836a1040000000000000000000000000000000000000000000000000000000008152600481018490523360248201526fffffffffffffffffffffffffffffffff851660448201529082908290606490829084905af1801561021a57612e9a575b5050604080516fffffffffffffffffffffffffffffffff909316808452602084015233927f5311e04f453e88deaf1f1811907b38edfe7f4630e06d0575ce175899f90e670a9181908101612c0c565b612ea58280926122d7565b6102255780612e4b565b612ebb91505f906122d7565b5f5f612db8565b612ecb936134a5565b612d4d565b9250903373ffffffffffffffffffffffffffffffffffffffff841614612ef9575b505050612dba565b612f049230916134a5565b5f8080612ef1565b847f87c30df5000000000000000000000000000000000000000000000000000000005f526004523360245260445ffd5b6fffffffffffffffffffffffffffffffff8111612f68576fffffffffffffffffffffffffffffffff1690565b7f6dfcc650000000000000000000000000000000000000000000000000000000005f52608060045260245260445ffd5b612ffa9273ffffffffffffffffffffffffffffffffffffffff604051937fa9059cbb000000000000000000000000000000000000000000000000000000006020860152166024840152604483015260448252612ff56064836122d7565b61350c565b565b60ff16604d811161300d57600a0a90565b7f4e487b71000000000000000000000000000000000000000000000000000000005f52601160045260245ffd5b9060ff166008811161307a5760088110613052575090565b60080360ff811161300d5761306690612ffc565b9081810291818304149015171561300d5790565b7ffffffffffffffffffffffffffffffffffffffffffffffffffffffffffffffff80160ff811161300d576130ad90612ffc565b9081156130b8570490565b7f4e487b71000000000000000000000000000000000000000000000000000000005f52601260045260245ffd5b8051905f5b8281106130f957505050600190565b81518110156132c5577fff0000000000000000000000000000000000000000000000000000000000000060208284010151167f20000000000000000000000000000000000000000000000000000000000000008114907f30000000000000000000000000000000000000000000000000000000000000008110158061329b575b7f41000000000000000000000000000000000000000000000000000000000000008210159081613270575b7f61000000000000000000000000000000000000000000000000000000000000008310159283613245575b841561321b575b508315613213575b50821561320b575b508115613203575b50156131fc576001016130ea565b5050505f90565b90505f6131ee565b91505f6131e6565b92505f6131de565b7f2d000000000000000000000000000000000000000000000000000000000000001493505f6131d6565b7f7a0000000000000000000000000000000000000000000000000000000000000081111593506131cf565b7f5a0000000000000000000000000000000000000000000000000000000000000083111591506131a4565b507f3900000000000000000000000000000000000000000000000000000000000000811115613179565b7f4e487b71000000000000000000000000000000000000000000000000000000005f52603260045260245ffd5b73ffffffffffffffffffffffffffffffffffffffff16801561349c57604051907f313ce567000000000000000000000000000000000000000000000000000000008252602082600481845afa5f928161347b575b506133555750505f905f905f90565b60ff821660248111908115613472575b506134685760a060049291604051938480927ffeaf968c0000000000000000000000000000000000000000000000000000000082525afa91825f915f94613440575b506133b7575050505f905f905f90565b5f81131561343857824210613438576fffffffffffffffffffffffffffffffff81116134385780600860ff841603613405575b506fffffffffffffffffffffffffffffffff16926008929150565b6134119150829061303a565b906fffffffffffffffffffffffffffffffff82116134305781906133ea565b5f9390929150565b50915f929190565b90935061345c915060a03d60a011611f9857611f8481836122d7565b5092505090925f6133a7565b50505f905f905f90565b9050155f613365565b61349591935060203d602011611f0657611ef881836122d7565b915f613346565b505f905f905f90565b90919273ffffffffffffffffffffffffffffffffffffffff612ffa9481604051957f23b872dd000000000000000000000000000000000000000000000000000000006020880152166024860152166044840152606483015260648252612ff56084836122d7565b905f602091828151910182855af115611ea6575f513d61358a575073ffffffffffffffffffffffffffffffffffffffff81163b155b6135485750565b73ffffffffffffffffffffffffffffffffffffffff907f5274afe7000000000000000000000000000000000000000000000000000000005f521660045260245ffd5b6001141561354156fe60e06040523461039e5761121b80380380610019816103a2565b928339810160a08282031261039e5781516001600160401b03811161039e57816100449184016103c7565b602083015190916001600160401b03821161039e576100649184016103c7565b91604081015160ff8116810361039e576060820151916001600160a01b038316830361039e5760800151835190936001600160401b0382116102a15760035490600182811c92168015610394575b60208310146102835781601f849311610326575b50602090601f83116001146102c0575f926102b5575b50508160011b915f199060031b1c1916176003555b83516001600160401b0381116102a157600454600181811c91168015610297575b602082101461028357601f8111610220575b50602094601f82116001146101bd579481929394955f926101b2575b50508160011b915f199060031b1c1916176004555b60c05260805260a052604051610dea908161043182396080518181816101850152818161021e015281816105200152610cc8015260a0518181816102480152818161054a015281816106d60152610d23015260c051816107300152f35b015190505f80610140565b601f1982169560045f52805f20915f5b888110610208575083600195969798106101f0575b505050811b01600455610155565b01515f1960f88460031b161c191690555f80806101e2565b919260206001819286850151815501940192016101cd565b60045f527f8a35acfbc15ff81a39ae7d344fd709f28e8600b4aa8c65c6b64bfe7fe36bd19b601f830160051c81019160208410610279575b601f0160051c01905b81811061026e5750610124565b5f8155600101610261565b9091508190610258565b634e487b7160e01b5f52602260045260245ffd5b90607f1690610112565b634e487b7160e01b5f52604160045260245ffd5b015190505f806100dc565b60035f9081528281209350601f198516905b81811061030e57509084600195949392106102f6575b505050811b016003556100f1565b01515f1960f88460031b161c191690555f80806102e8565b929360206001819287860151815501950193016102d2565b60035f529091507fc2575a0e9e593c00f959f8c92f12db2869c3395a3b0502d05e2516446f71f85b601f840160051c8101916020851061038a575b90601f859493920160051c01905b81811061037c57506100c6565b5f815584935060010161036f565b9091508190610361565b91607f16916100b2565b5f80fd5b6040519190601f01601f191682016001600160401b038111838210176102a157604052565b81601f8201121561039e578051906001600160401b0382116102a1576103f6601f8301601f19166020016103a2565b928284526020838301011161039e575f5b82811061041b57505060205f918301015290565b8060208092840101518282870101520161040756fe6080806040526004361015610012575f80fd5b5f3560e01c90816306fdde03146109d057508063095ea7b31461092357806318160ddd146108e857806323b872dd14610754578063313ce567146106f9578063540acabc146106a157806370a082311461063f578063836a1040146104fa57806395d89b41146103a15780639eea5f66146101f8578063a9059cbb146101a9578063aa2e3b981461013b5763dd62ed3e146100ab575f80fd5b346101375760407ffffffffffffffffffffffffffffffffffffffffffffffffffffffffffffffffc360112610137576100e2610b0c565b73ffffffffffffffffffffffffffffffffffffffff6100ff610b2f565b91165f52600160205273ffffffffffffffffffffffffffffffffffffffff60405f2091165f52602052602060405f2054604051908152f35b5f80fd5b34610137575f7ffffffffffffffffffffffffffffffffffffffffffffffffffffffffffffffffc36011261013757602060405173ffffffffffffffffffffffffffffffffffffffff7f0000000000000000000000000000000000000000000000000000000000000000168152f35b346101375760407ffffffffffffffffffffffffffffffffffffffffffffffffffffffffffffffffc360112610137576101ed6101e3610b0c565b6024359033610c15565b602060405160018152f35b346101375761020636610b52565b9173ffffffffffffffffffffffffffffffffffffffff7f00000000000000000000000000000000000000000000000000000000000000001680330361037257507f000000000000000000000000000000000000000000000000000000000000000090818103610344578373ffffffffffffffffffffffffffffffffffffffff84168015610318575f818152602081905260409020548281106102e6576020835f947fddf252ad1be2c89b69c2b068fc378daa952ba7f163c4a11628f55a4df523b3ef938587528684520360408620558060025403600255604051908152a3005b907fe450d38c000000000000000000000000000000000000000000000000000000005f5260045260245260445260645ffd5b7f96c6fd1e000000000000000000000000000000000000000000000000000000005f525f60045260245ffd5b7f900604d5000000000000000000000000000000000000000000000000000000005f5260045260245260445ffd5b7fdb702112000000000000000000000000000000000000000000000000000000005f523360045260245260445ffd5b34610137575f7ffffffffffffffffffffffffffffffffffffffffffffffffffffffffffffffffc360112610137576040515f6004548060011c906001811680156104f0575b6020831081146104c3578285529081156104815750600114610423575b61041f8361041381850382610ba7565b60405191829182610aa6565b0390f35b91905060045f527f8a35acfbc15ff81a39ae7d344fd709f28e8600b4aa8c65c6b64bfe7fe36bd19b915f905b80821061046757509091508101602001610413610403565b91926001816020925483858801015201910190929161044f565b7fffffffffffffffffffffffffffffffffffffffffffffffffffffffffffffff001660208086019190915291151560051b840190910191506104139050610403565b7f4e487b71000000000000000000000000000000000000000000000000000000005f52602260045260245ffd5b91607f16916103e6565b346101375761050836610b52565b9173ffffffffffffffffffffffffffffffffffffffff7f00000000000000000000000000000000000000000000000000000000000000001680330361037257507f0000000000000000000000000000000000000000000000000000000000000000908181036103445773ffffffffffffffffffffffffffffffffffffffff8316848115610613575f80525f602052600254908082018092116105e65760207fddf252ad1be2c89b69c2b068fc378daa952ba7f163c4a11628f55a4df523b3ef915f9360025584845283825260408420818154019055604051908152a3005b7f4e487b71000000000000000000000000000000000000000000000000000000005f52601160045260245ffd5b7fec442f05000000000000000000000000000000000000000000000000000000005f525f60045260245ffd5b346101375760207ffffffffffffffffffffffffffffffffffffffffffffffffffffffffffffffffc3601126101375773ffffffffffffffffffffffffffffffffffffffff61068b610b0c565b165f525f602052602060405f2054604051908152f35b34610137575f7ffffffffffffffffffffffffffffffffffffffffffffffffffffffffffffffffc3601126101375760206040517f00000000000000000000000000000000000000000000000000000000000000008152f35b34610137575f7ffffffffffffffffffffffffffffffffffffffffffffffffffffffffffffffffc36011261013757602060405160ff7f0000000000000000000000000000000000000000000000000000000000000000168152f35b346101375760607ffffffffffffffffffffffffffffffffffffffffffffffffffffffffffffffffc3601126101375761078b610b0c565b610793610b2f565b6044359073ffffffffffffffffffffffffffffffffffffffff831692835f52600160205260405f2073ffffffffffffffffffffffffffffffffffffffff33165f5260205260405f20547fffffffffffffffffffffffffffffffffffffffffffffffffffffffffffffffff811061080f575b506101ed9350610c15565b8381106108b457841561088857331561085c576101ed945f52600160205260405f2073ffffffffffffffffffffffffffffffffffffffff33165f526020528360405f209103905584610804565b7f94280d62000000000000000000000000000000000000000000000000000000005f525f60045260245ffd5b7fe602df05000000000000000000000000000000000000000000000000000000005f525f60045260245ffd5b83907ffb8f41b2000000000000000000000000000000000000000000000000000000005f523360045260245260445260645ffd5b34610137575f7ffffffffffffffffffffffffffffffffffffffffffffffffffffffffffffffffc360112610137576020600254604051908152f35b346101375760407ffffffffffffffffffffffffffffffffffffffffffffffffffffffffffffffffc3601126101375761095a610b0c565b6024359033156108885773ffffffffffffffffffffffffffffffffffffffff1690811561085c57335f52600160205260405f20825f526020528060405f20556040519081527f8c5be1e5ebec7d5bd14f71427d1e84f3dd0314c0f7b2291e5b200ac8c7c3b92560203392a3602060405160018152f35b34610137575f7ffffffffffffffffffffffffffffffffffffffffffffffffffffffffffffffffc360112610137575f6003548060011c90600181168015610a9c575b6020831081146104c3578285529081156104815750600114610a3e5761041f8361041381850382610ba7565b91905060035f527fc2575a0e9e593c00f959f8c92f12db2869c3395a3b0502d05e2516446f71f85b915f905b808210610a8257509091508101602001610413610403565b919260018160209254838588010152019101909291610a6a565b91607f1691610a12565b919091602081528251928360208301525f5b848110610af65750507fffffffffffffffffffffffffffffffffffffffffffffffffffffffffffffffe0601f845f6040809697860101520116010190565b8060208092840101516040828601015201610ab8565b6004359073ffffffffffffffffffffffffffffffffffffffff8216820361013757565b6024359073ffffffffffffffffffffffffffffffffffffffff8216820361013757565b7ffffffffffffffffffffffffffffffffffffffffffffffffffffffffffffffffc6060910112610137576004359060243573ffffffffffffffffffffffffffffffffffffffff81168103610137579060443590565b90601f7fffffffffffffffffffffffffffffffffffffffffffffffffffffffffffffffe0910116810190811067ffffffffffffffff821117610be857604052565b7f4e487b71000000000000000000000000000000000000000000000000000000005f52604160045260245ffd5b73ffffffffffffffffffffffffffffffffffffffff169081156103185773ffffffffffffffffffffffffffffffffffffffff168015610613575f828152602081905260409020549182848110610d81578490825f525f6020520360405f2055815f525f60205260405f2084815401905581817fddf252ad1be2c89b69c2b068fc378daa952ba7f163c4a11628f55a4df523b3ef6020604051888152a373ffffffffffffffffffffffffffffffffffffffff7f00000000000000000000000000000000000000000000000000000000000000001690813b15610137575f60a492819560405197889687957f801837f60000000000000000000000000000000000000000000000000000000087527f0000000000000000000000000000000000000000000000000000000000000000600488015260248701526044860152606485015260848401525af18015610d7657610d6a5750565b5f610d7491610ba7565b565b6040513d5f823e3d90fd5b84917fe450d38c000000000000000000000000000000000000000000000000000000005f5260045260245260445260645ffdfea26469706673582212209d9157574f918237d0f86bc15bd26f4e8242fc01bb0c89f3e8e245bcd077060164736f6c634300081d0033a2646970667358221220376accacda190f92d7a93aff83e7223edf1fb475a80c5d0218e16a152fc2ce3b64736f6c634300081d0033",
    "linkReferences": {}
  },
  "methodIdentifiers": {
    "calculateMinFeeWei(uint256)": "cca138e5",
    "comptroller()": "5fe3b567",
    "createVault(address,address,uint40,uint128)": "50129dff",
    "enter(uint256,uint128)": "c8d293b7",
    "enterWithNativeToken(uint256)": "ef961229",
    "getAdapter(uint256)": "ddeadbb6",
    "getDefaultAdapterFor(address)": "a1538039",
    "getExpiry(uint256)": "13c72608",
    "getLastSyncedAt(uint256)": "009dd14f",
    "getLastSyncedPrice(uint256)": "5645ed77",
    "getOracle(uint256)": "10a9de60",
    "getShareToken(uint256)": "65957bf5",
    "getTargetPrice(uint256)": "46de071d",
    "getUnderlyingToken(uint256)": "a4775772",
    "isStakedInAdapter(uint256)": "8f4f8968",
    "nativeToken()": "e1758bd8",
    "nextVaultId()": "12ac1763",
    "onShareTransfer(uint256,address,address,uint256,uint256)": "801837f6",
    "redeem(uint256)": "db006a75",
    "setComptroller(address)": "8bad38dd",
    "setDefaultAdapter(address,address)": "b18c0adb",
    "setNativeToken(address)": "6da1e102",
    "statusOf(uint256)": "ad35efd4",
    "syncPriceFromOracle(uint256)": "a06da630",
    "transferFeesToComptroller()": "78f82ce7",
    "unstakeTokensViaAdapter(uint256)": "7aca734b"
  },
  "id": 78
}