{
  "abi": [
    {
      "type": "constructor",
      "inputs": [
        {
          "name": "initialComptroller",
          "type": "address",
          "internalType": "address"
        },
        {
          "name": "initialTradeFee",
          "type": "uint256",
          "internalType": "UD60x18"
        }
      ],
      "stateMutability": "nonpayable"
    },
    {
      "type": "function",
      "name": "MAX_TRADE_FEE",
      "inputs": [],
      "outputs": [
        {
          "name": "",
          "type": "uint256",
          "internalType": "UD60x18"
        }
      ],
      "stateMutability": "view"
    },
    {
      "type": "function",
      "name": "cancelOrder",
      "inputs": [
        {
          "name": "orderId",
          "type": "uint256",
          "internalType": "uint256"
        }
      ],
      "outputs": [],
      "stateMutability": "nonpayable"
    },
    {
      "type": "function",
      "name": "comptroller",
      "inputs": [],
      "outputs": [
        {
          "name": "",
          "type": "address",
          "internalType": "contract ISablierComptroller"
        }
      ],
      "stateMutability": "view"
    },
    {
      "type": "function",
      "name": "createOrder",
      "inputs": [
        {
          "name": "sellToken",
          "type": "address",
          "internalType": "contract IERC20"
        },
        {
          "name": "sellAmount",
          "type": "uint128",
          "internalType": "uint128"
        },
        {
          "name": "buyToken",
          "type": "address",
          "internalType": "contract IERC20"
        },
        {
          "name": "minBuyAmount",
          "type": "uint128",
          "internalType": "uint128"
        },
        {
          "name": "buyer",
          "type": "address",
          "internalType": "address"
        },
        {
          "name": "expiryTime",
          "type": "uint40",
          "internalType": "uint40"
        }
      ],
      "outputs": [
        {
          "name": "orderId",
          "type": "uint256",
          "internalType": "uint256"
        }
      ],
      "stateMutability": "nonpayable"
    },
    {
      "type": "function",
      "name": "fillOrder",
      "inputs": [
        {
          "name": "orderId",
          "type": "uint256",
          "internalType": "uint256"
        },
        {
          "name": "buyAmount",
          "type": "uint128",
          "internalType": "uint128"
        }
      ],
      "outputs": [
        {
          "name": "amountToTransferToSeller",
          "type": "uint128",
          "internalType": "uint128"
        },
        {
          "name": "amountToTransferToBuyer",
          "type": "uint128",
          "internalType": "uint128"
        },
        {
          "name": "feeDeductedFromBuyerAmount",
          "type": "uint128",
          "internalType": "uint128"
        },
        {
          "name": "feeDeductedFromSellerAmount",
          "type": "uint128",
          "internalType": "uint128"
        }
      ],
      "stateMutability": "nonpayable"
    },
    {
      "type": "function",
      "name": "getBuyToken",
      "inputs": [
        {
          "name": "orderId",
          "type": "uint256",
          "internalType": "uint256"
        }
      ],
      "outputs": [
        {
          "name": "buyToken",
          "type": "address",
          "internalType": "contract IERC20"
        }
      ],
      "stateMutability": "view"
    },
    {
      "type": "function",
      "name": "getBuyer",
      "inputs": [
        {
          "name": "orderId",
          "type": "uint256",
          "internalType": "uint256"
        }
      ],
      "outputs": [
        {
          "name": "buyer",
          "type": "address",
          "internalType": "address"
        }
      ],
      "stateMutability": "view"
    },
    {
      "type": "function",
      "name": "getExpiryTime",
      "inputs": [
        {
          "name": "orderId",
          "type": "uint256",
          "internalType": "uint256"
        }
      ],
      "outputs": [
        {
          "name": "expiryTime",
          "type": "uint40",
          "internalType": "uint40"
        }
      ],
      "stateMutability": "view"
    },
    {
      "type": "function",
      "name": "getMinBuyAmount",
      "inputs": [
        {
          "name": "orderId",
          "type": "uint256",
          "internalType": "uint256"
        }
      ],
      "outputs": [
        {
          "name": "minBuyAmount",
          "type": "uint128",
          "internalType": "uint128"
        }
      ],
      "stateMutability": "view"
    },
    {
      "type": "function",
      "name": "getSellAmount",
      "inputs": [
        {
          "name": "orderId",
          "type": "uint256",
          "internalType": "uint256"
        }
      ],
      "outputs": [
        {
          "name": "sellAmount",
          "type": "uint128",
          "internalType": "uint128"
        }
      ],
      "stateMutability": "view"
    },
    {
      "type": "function",
      "name": "getSellToken",
      "inputs": [
        {
          "name": "orderId",
          "type": "uint256",
          "internalType": "uint256"
        }
      ],
      "outputs": [
        {
          "name": "sellToken",
          "type": "address",
          "internalType": "contract IERC20"
        }
      ],
      "stateMutability": "view"
    },
    {
      "type": "function",
      "name": "getSeller",
      "inputs": [
        {
          "name": "orderId",
          "type": "uint256",
          "internalType": "uint256"
        }
      ],
      "outputs": [
        {
          "name": "seller",
          "type": "address",
          "internalType": "address"
        }
      ],
      "stateMutability": "view"
    },
    {
      "type": "function",
      "name": "nativeToken",
      "inputs": [],
      "outputs": [
        {
          "name": "",
          "type": "address",
          "internalType": "address"
        }
      ],
      "stateMutability": "view"
    },
    {
      "type": "function",
      "name": "nextOrderId",
      "inputs": [],
      "outputs": [
        {
          "name": "",
          "type": "uint256",
          "internalType": "uint256"
        }
      ],
      "stateMutability": "view"
    },
    {
      "type": "function",
      "name": "setComptroller",
      "inputs": [
        {
          "name": "newComptroller",
          "type": "address",
          "internalType": "contract ISablierComptroller"
        }
      ],
      "outputs": [],
      "stateMutability": "nonpayable"
    },
    {
      "type": "function",
      "name": "setNativeToken",
      "inputs": [
        {
          "name": "newNativeToken",
          "type": "address",
          "internalType": "address"
        }
      ],
      "outputs": [],
      "stateMutability": "nonpayable"
    },
    {
      "type": "function",
      "name": "setTradeFee",
      "inputs": [
        {
          "name": "newTradeFee",
          "type": "uint256",
          "internalType": "UD60x18"
        }
      ],
      "outputs": [],
      "stateMutability": "nonpayable"
    },
    {
      "type": "function",
      "name": "statusOf",
      "inputs": [
        {
          "name": "orderId",
          "type": "uint256",
          "internalType": "uint256"
        }
      ],
      "outputs": [
        {
          "name": "status",
          "type": "uint8",
          "internalType": "enum Escrow.Status"
        }
      ],
      "stateMutability": "view"
    },
    {
      "type": "function",
      "name": "tradeFee",
      "inputs": [],
      "outputs": [
        {
          "name": "",
          "type": "uint256",
          "internalType": "UD60x18"
        }
      ],
      "stateMutability": "view"
    },
    {
      "type": "function",
      "name": "transferFeesToComptroller",
      "inputs": [],
      "outputs": [],
      "stateMutability": "nonpayable"
    },
    {
      "type": "function",
      "name": "wasCanceled",
      "inputs": [
        {
          "name": "orderId",
          "type": "uint256",
          "internalType": "uint256"
        }
      ],
      "outputs": [
        {
          "name": "result",
          "type": "bool",
          "internalType": "bool"
        }
      ],
      "stateMutability": "view"
    },
    {
      "type": "function",
      "name": "wasFilled",
      "inputs": [
        {
          "name": "orderId",
          "type": "uint256",
          "internalType": "uint256"
        }
      ],
      "outputs": [
        {
          "name": "result",
          "type": "bool",
          "internalType": "bool"
        }
      ],
      "stateMutability": "view"
    },
    {
      "type": "event",
      "name": "CancelOrder",
      "inputs": [
        {
          "name": "orderId",
          "type": "uint256",
          "indexed": true,
          "internalType": "uint256"
        },
        {
          "name": "seller",
          "type": "address",
          "indexed": true,
          "internalType": "address"
        },
        {
          "name": "sellAmount",
          "type": "uint128",
          "indexed": false,
          "internalType": "uint128"
        }
      ],
      "anonymous": false
    },
    {
      "type": "event",
      "name": "CreateOrder",
      "inputs": [
        {
          "name": "orderId",
          "type": "uint256",
          "indexed": true,
          "internalType": "uint256"
        },
        {
          "name": "seller",
          "type": "address",
          "indexed": true,
          "internalType": "address"
        },
        {
          "name": "buyer",
          "type": "address",
          "indexed": true,
          "internalType": "address"
        },
        {
          "name": "sellToken",
          "type": "address",
          "indexed": false,
          "internalType": "contract IERC20"
        },
        {
          "name": "buyToken",
          "type": "address",
          "indexed": false,
          "internalType": "contract IERC20"
        },
        {
          "name": "sellAmount",
          "type": "uint128",
          "indexed": false,
          "internalType": "uint128"
        },
        {
          "name": "minBuyAmount",
          "type": "uint128",
          "indexed": false,
          "internalType": "uint128"
        },
        {
          "name": "expiryTime",
          "type": "uint40",
          "indexed": false,
          "internalType": "uint40"
        }
      ],
      "anonymous": false
    },
    {
      "type": "event",
      "name": "FillOrder",
      "inputs": [
        {
          "name": "orderId",
          "type": "uint256",
          "indexed": true,
          "internalType": "uint256"
        },
        {
          "name": "buyer",
          "type": "address",
          "indexed": true,
          "internalType": "address"
        },
        {
          "name": "seller",
          "type": "address",
          "indexed": true,
          "internalType": "address"
        },
        {
          "name": "sellAmount",
          "type": "uint128",
          "indexed": false,
          "internalType": "uint128"
        },
        {
          "name": "buyAmount",
          "type": "uint128",
          "indexed": false,
          "internalType": "uint128"
        },
        {
          "name": "feeDeductedFromBuyerAmount",
          "type": "uint128",
          "indexed": false,
          "internalType": "uint128"
        },
        {
          "name": "feeDeductedFromSellerAmount",
          "type": "uint128",
          "indexed": false,
          "internalType": "uint128"
        }
      ],
      "anonymous": false
    },
    {
      "type": "event",
      "name": "SetComptroller",
      "inputs": [
        {
          "name": "oldComptroller",
          "type": "address",
          "indexed": false,
          "internalType": "contract ISablierComptroller"
        },
        {
          "name": "newComptroller",
          "type": "address",
          "indexed": false,
          "internalType": "contract ISablierComptroller"
        }
      ],
      "anonymous": false
    },
    {
      "type": "event",
      "name": "SetNativeToken",
      "inputs": [
        {
          "name": "comptroller",
          "type": "address",
          "indexed": true,
          "internalType": "address"
        },
        {
          "name": "nativeToken",
          "type": "address",
          "indexed": false,
          "internalType": "address"
        }
      ],
      "anonymous": false
    },
    {
      "type": "event",
      "name": "SetTradeFee",
      "inputs": [
        {
          "name": "caller",
          "type": "address",
          "indexed": true,
          "internalType": "address"
        },
        {
          "name": "previousTradeFee",
          "type": "uint256",
          "indexed": false,
          "internalType": "UD60x18"
        },
        {
          "name": "newTradeFee",
          "type": "uint256",
          "indexed": false,
          "internalType": "UD60x18"
        }
      ],
      "anonymous": false
    },
    {
      "type": "event",
      "name": "TransferFeesToComptroller",
      "inputs": [
        {
          "name": "comptroller",
          "type": "address",
          "indexed": true,
          "internalType": "address"
        },
        {
          "name": "feeAmount",
          "type": "uint256",
          "indexed": false,
          "internalType": "uint256"
        }
      ],
      "anonymous": false
    },
    {
      "type": "error",
      "name": "Comptrollerable_CallerNotComptroller",
      "inputs": [
        {
          "name": "comptroller",
          "type": "address",
          "internalType": "address"
        },
        {
          "name": "caller",
          "type": "address",
          "internalType": "address"
        }
      ]
    },
    {
      "type": "error",
      "name": "Comptrollerable_UnsupportedInterfaceId",
      "inputs": [
        {
          "name": "previousComptroller",
          "type": "address",
          "internalType": "address"
        },
        {
          "name": "newComptroller",
          "type": "address",
          "internalType": "address"
        },
        {
          "name": "minimalInterfaceId",
          "type": "bytes4",
          "internalType": "bytes4"
        }
      ]
    },
    {
      "type": "error",
      "name": "PRBMath_MulDiv18_Overflow",
      "inputs": [
        {
          "name": "x",
          "type": "uint256",
          "internalType": "uint256"
        },
        {
          "name": "y",
          "type": "uint256",
          "internalType": "uint256"
        }
      ]
    },
    {
      "type": "error",
      "name": "PRBMath_UD60x18_IntoUint128_Overflow",
      "inputs": [
        {
          "name": "x",
          "type": "uint256",
          "internalType": "UD60x18"
        }
      ]
    },
    {
      "type": "error",
      "name": "SablierEscrowState_NewTradeFeeTooHigh",
      "inputs": [
        {
          "name": "newTradeFee",
          "type": "uint256",
          "internalType": "UD60x18"
        },
        {
          "name": "maxTradeFee",
          "type": "uint256",
          "internalType": "UD60x18"
        }
      ]
    },
    {
      "type": "error",
      "name": "SablierEscrowState_Null",
      "inputs": [
        {
          "name": "orderId",
          "type": "uint256",
          "internalType": "uint256"
        }
      ]
    },
    {
      "type": "error",
      "name": "SablierEscrow_BuyTokenZero",
      "inputs": []
    },
    {
      "type": "error",
      "name": "SablierEscrow_CallerNotAuthorized",
      "inputs": [
        {
          "name": "orderId",
          "type": "uint256",
          "internalType": "uint256"
        },
        {
          "name": "caller",
          "type": "address",
          "internalType": "address"
        },
        {
          "name": "expectedCaller",
          "type": "address",
          "internalType": "address"
        }
      ]
    },
    {
      "type": "error",
      "name": "SablierEscrow_ExpiryTimeInPast",
      "inputs": [
        {
          "name": "expiryTime",
          "type": "uint40",
          "internalType": "uint40"
        },
        {
          "name": "currentTime",
          "type": "uint40",
          "internalType": "uint40"
        }
      ]
    },
    {
      "type": "error",
      "name": "SablierEscrow_ForbidNativeToken",
      "inputs": [
        {
          "name": "nativeToken",
          "type": "address",
          "internalType": "address"
        }
      ]
    },
    {
      "type": "error",
      "name": "SablierEscrow_InsufficientBuyAmount",
      "inputs": [
        {
          "name": "buyAmount",
          "type": "uint128",
          "internalType": "uint128"
        },
        {
          "name": "minBuyAmount",
          "type": "uint128",
          "internalType": "uint128"
        }
      ]
    },
    {
      "type": "error",
      "name": "SablierEscrow_MinBuyAmountZero",
      "inputs": []
    },
    {
      "type": "error",
      "name": "SablierEscrow_NativeTokenAlreadySet",
      "inputs": [
        {
          "name": "nativeToken",
          "type": "address",
          "internalType": "address"
        }
      ]
    },
    {
      "type": "error",
      "name": "SablierEscrow_NativeTokenZeroAddress",
      "inputs": []
    },
    {
      "type": "error",
      "name": "SablierEscrow_OrderCancelled",
      "inputs": [
        {
          "name": "orderId",
          "type": "uint256",
          "internalType": "uint256"
        }
      ]
    },
    {
      "type": "error",
      "name": "SablierEscrow_OrderFilled",
      "inputs": [
        {
          "name": "orderId",
          "type": "uint256",
          "internalType": "uint256"
        }
      ]
    },
    {
      "type": "error",
      "name": "SablierEscrow_OrderNotOpen",
      "inputs": [
        {
          "name": "orderId",
          "type": "uint256",
          "internalType": "uint256"
        },
        {
          "name": "status",
          "type": "uint8",
          "internalType": "enum Escrow.Status"
        }
      ]
    },
    {
      "type": "error",
      "name": "SablierEscrow_SameToken",
      "inputs": [
        {
          "name": "token",
          "type": "address",
          "internalType": "contract IERC20"
        }
      ]
    },
    {
      "type": "error",
      "name": "SablierEscrow_SellAmountZero",
      "inputs": []
    },
    {
      "type": "error",
      "name": "SablierEscrow_SellTokenZero",
      "inputs": []
    },
    {
      "type": "error",
      "name": "SafeERC20FailedOperation",
      "inputs": [
        {
          "name": "token",
          "type": "address",
          "internalType": "address"
        }
      ]
    }
  ],
  "bytecode": {
    "object": "0x6080806040523461015657604081611d24803803809161001f828561016d565b8339810103126101565780516001600160a01b0381169190829003610156576020908101516040516301ffc9a760e01b8152630654439160e41b600482015290929181602481855afa908115610162575f91610123575b5015610102575f80546001600160a01b031916821781556040805191825260208201929092527ff45d882a72fce9d8d7a7e2e196a338d4d9d4057510b4b9ddf91a7066104d2eaf9190a166470de4df82000081116100e5576001600255600355604051611b7f90816101a58239f35b63612bbd5160e01b5f5260045266470de4df82000060245260445ffd5b6364ca3de160e11b5f525f600452602452630654439160e41b60445260645ffd5b90506020813d60201161015a575b8161013e6020938361016d565b8101031261015657518015158103610156575f610076565b5f80fd5b3d9150610131565b6040513d5f823e3d90fd5b601f909101601f19168101906001600160401b0382119082101761019057604052565b634e487b7160e01b5f52604160045260245ffdfe6080806040526004361015610012575f80fd5b5f3560e01c9081630a87f1481461169a5750806310603023146115e157806324bcdfbd146115a65780632a58b3301461156b5780633cb2334814610f88578063514fcac714610dd25780635bf608b814610d685780635fe3b56714610d185780636da1e10214610bf4578063768713f514610b8e57806378f82ce714610a6657806379ce78e314610a0d5780638bad38dd146107c2578063ad35efd41461076c578063b5e176b2146103a9578063bdbf970b1461033f578063d4d577c4146102d5578063d6a9de511461026e578063d831a7c614610213578063e1758bd8146101c2578063f590c176146101695763fa0aaf851461010e575f80fd5b346101655760207ffffffffffffffffffffffffffffffffffffffffffffffffffffffffffffffffc3601126101655760043561014981611878565b5f5260046020526020600460405f20015460801c604051908152f35b5f80fd5b346101655760207ffffffffffffffffffffffffffffffffffffffffffffffffffffffffffffffffc360112610165576004356101a481611878565b5f526004602052602060ff60405f205460c81c166040519015158152f35b34610165575f7ffffffffffffffffffffffffffffffffffffffffffffffffffffffffffffffffc36011261016557602073ffffffffffffffffffffffffffffffffffffffff60015416604051908152f35b346101655760207ffffffffffffffffffffffffffffffffffffffffffffffffffffffffffffffffc3601126101655760043561024e81611878565b5f526004602052602064ffffffffff60405f205460a01c16604051908152f35b346101655760207ffffffffffffffffffffffffffffffffffffffffffffffffffffffffffffffffc360112610165576004356102a981611878565b5f526004602052602073ffffffffffffffffffffffffffffffffffffffff60405f205416604051908152f35b346101655760207ffffffffffffffffffffffffffffffffffffffffffffffffffffffffffffffffc3601126101655760043561031081611878565b5f526004602052602073ffffffffffffffffffffffffffffffffffffffff600360405f20015416604051908152f35b346101655760207ffffffffffffffffffffffffffffffffffffffffffffffffffffffffffffffffc3601126101655760043561037a81611878565b5f526004602052602073ffffffffffffffffffffffffffffffffffffffff600260405f20015416604051908152f35b346101655760407ffffffffffffffffffffffffffffffffffffffffffffffffffffffffffffffffc360112610165576004356103e36116fa565b6103ec82611878565b5f5f6103f78461192b565b600481101561073f57600381036107105750835f52600460205260405f209173ffffffffffffffffffffffffffffffffffffffff60018401541680151580610706575b6106d357506004830154928360801c946fffffffffffffffffffffffffffffffff8116958087106106a457507a0100000000000000000000000000000000000000000000000000007fffffffffff00ffffffffffffffffffffffffffffffffffffffffffffffffffff835416178255600354906fffffffffffffffffffffffffffffffff81961696826105d0575b505050846105cc94959661053673ffffffffffffffffffffffffffffffffffffffff600281865416956105188b886fffffffffffffffffffffffffffffffff86600386015416921691339061180a565b0154166fffffffffffffffffffffffffffffffff84169033906118ce565b604080516fffffffffffffffffffffffffffffffff9384168152888416602082015285841691810191909152918516606083015233917f0534e9b60aea6096251816533c2c92b5ff79cc5e2b9d4f9274e9585dcef6e2aa90608090a4604080516fffffffffffffffffffffffffffffffff9586168152958516602087015290841690850152909116606083015281906080820190565b0390f35b919796935093506105cc94506106106106096105f56106016105fa6105f58c89611a7c565b61199e565b809761175a565b998a94611a7c565b809561175a565b9561069b73ffffffffffffffffffffffffffffffffffffffff5f541661066673ffffffffffffffffffffffffffffffffffffffff600387015416826fffffffffffffffffffffffffffffffff8a1691339061180a565b73ffffffffffffffffffffffffffffffffffffffff600286015416906fffffffffffffffffffffffffffffffff8716916118ce565b969594886104c8565b867fb8281554000000000000000000000000000000000000000000000000000000005f5260045260245260445ffd5b857f10cce84e000000000000000000000000000000000000000000000000000000005f526004523360245260445260645ffd5b508033141561043a565b847fe53c424c000000000000000000000000000000000000000000000000000000005f5260045260245260445ffd5b7f4e487b71000000000000000000000000000000000000000000000000000000005f52602160045260245ffd5b346101655760207ffffffffffffffffffffffffffffffffffffffffffffffffffffffffffffffffc360112610165576107af6004356107aa81611878565b61192b565b604051600482101561073f576020918152f35b346101655760207ffffffffffffffffffffffffffffffffffffffffffffffffffffffffffffffffc3601126101655760043573ffffffffffffffffffffffffffffffffffffffff81168091036101655761081a6117b9565b5f549073ffffffffffffffffffffffffffffffffffffffff8216916040517fc34df33e000000000000000000000000000000000000000000000000000000008152602081600481875afa9081156109a7575f916109b2575b507fffffffff00000000000000000000000000000000000000000000000000000000604051917f01ffc9a70000000000000000000000000000000000000000000000000000000083521690816004820152602081602481875afa9081156109a7575f9161096c575b5015610939577ff45d882a72fce9d8d7a7e2e196a338d4d9d4057510b4b9ddf91a7066104d2eaf60408585807fffffffffffffffffffffffff00000000000000000000000000000000000000008716175f5582519182526020820152a1005b82847fc9947bc2000000000000000000000000000000000000000000000000000000005f5260045260245260445260645ffd5b90506020813d60201161099f575b8161098760209383611719565b810103126101655751801515810361016557856108da565b3d915061097a565b6040513d5f823e3d90fd5b90506020813d602011610a05575b816109cd60209383611719565b8101031261016557517fffffffff00000000000000000000000000000000000000000000000000000000811681036101655784610872565b3d91506109c0565b346101655760207ffffffffffffffffffffffffffffffffffffffffffffffffffffffffffffffffc36011261016557600435610a4881611878565b5f526004602052602060ff60405f205460d01c166040519015158152f35b34610165575f7ffffffffffffffffffffffffffffffffffffffffffffffffffffffffffffffffc3601126101655773ffffffffffffffffffffffffffffffffffffffff5f5416475f80808084865af1503d15610b65573d67ffffffffffffffff8111610b38577f56dedb874d4fc0f70753f281fa2c25e82085163206086fe826cf834b51701f6c9160209160405190610b26847fffffffffffffffffffffffffffffffffffffffffffffffffffffffffffffffe0601f8401160183611719565b81525f833d92013e5b604051908152a2005b7f4e487b71000000000000000000000000000000000000000000000000000000005f52604160045260245ffd5b60207f56dedb874d4fc0f70753f281fa2c25e82085163206086fe826cf834b51701f6c91610b2f565b346101655760207ffffffffffffffffffffffffffffffffffffffffffffffffffffffffffffffffc36011261016557600435610bc981611878565b5f52600460205260206fffffffffffffffffffffffffffffffff600460405f20015416604051908152f35b346101655760207ffffffffffffffffffffffffffffffffffffffffffffffffffffffffffffffffc3601126101655773ffffffffffffffffffffffffffffffffffffffff610c406116d7565b610c486117b9565b168015610cf05760015473ffffffffffffffffffffffffffffffffffffffff811680610cc557507fffffffffffffffffffffffff0000000000000000000000000000000000000000829116176001556040519081527f7b0a5ae0a2e8f0dc2ec7555098e00dd4af1418ee3fd1bcf9bb14f6990c10fa9260203392a2005b7fbf956f9c000000000000000000000000000000000000000000000000000000005f5260045260245ffd5b7f01d7d174000000000000000000000000000000000000000000000000000000005f5260045ffd5b34610165575f7ffffffffffffffffffffffffffffffffffffffffffffffffffffffffffffffffc36011261016557602073ffffffffffffffffffffffffffffffffffffffff5f5416604051908152f35b346101655760207ffffffffffffffffffffffffffffffffffffffffffffffffffffffffffffffffc36011261016557600435610da381611878565b5f526004602052602073ffffffffffffffffffffffffffffffffffffffff600160405f20015416604051908152f35b346101655760207ffffffffffffffffffffffffffffffffffffffffffffffffffffffffffffffffc36011261016557600435610e0d81611878565b805f52600460205260405f2090815473ffffffffffffffffffffffffffffffffffffffff8116803303610f55575060ff8160d01c16610f295760ff8160c81c16610efd577fffffffffffff00ffffffffffffffffffffffffffffffffffffffffffffffffff7901000000000000000000000000000000000000000000000000009116178255610ecf6fffffffffffffffffffffffffffffffff600484015416809373ffffffffffffffffffffffffffffffffffffffff600233920154166118ce565b6040519182527f42cc8ce254a398b8f866d690328eff5c66875442a05b16950f89c0520ed1cc3260203393a3005b507fb79a9b0a000000000000000000000000000000000000000000000000000000005f5260045260245ffd5b507fbea907a1000000000000000000000000000000000000000000000000000000005f5260045260245ffd5b827f10cce84e000000000000000000000000000000000000000000000000000000005f526004523360245260445260645ffd5b346101655760c07ffffffffffffffffffffffffffffffffffffffffffffffffffffffffffffffffc36011261016557610fbf6116d7565b610fc76116fa565b6044359073ffffffffffffffffffffffffffffffffffffffff821680920361016557606435916fffffffffffffffffffffffffffffffff8316809303610165576084359273ffffffffffffffffffffffffffffffffffffffff84168094036101655760a4359164ffffffffff83168093036101655773ffffffffffffffffffffffffffffffffffffffff86169384156115435773ffffffffffffffffffffffffffffffffffffffff600154168086146115175782156114ef5782146114c357818514611497576fffffffffffffffffffffffffffffffff1690811561146f578215611447578315158061143d575b611406576002549660018801600255604051610120810181811067ffffffffffffffff821117610b38576040523381528860208201878152604083015f8152606084015f8152608085018c815260a08601918c835260c087019389855260e08801958b87526101008901978d89525f52600460205260405f20985173ffffffffffffffffffffffffffffffffffffffff1673ffffffffffffffffffffffffffffffffffffffff1689547fffffffffffffffffffffffff0000000000000000000000000000000000000000161789555188549060a01b78ffffffffff000000000000000000000000000000000000000016907fffffffffffffff0000000000ffffffffffffffffffffffffffffffffffffffff1617885551151587549060c81b79ff0000000000000000000000000000000000000000000000000016907fffffffffffff00ffffffffffffffffffffffffffffffffffffffffffffffffff1617875551151586549060d01b7aff000000000000000000000000000000000000000000000000000016907fffffffffff00ffffffffffffffffffffffffffffffffffffffffffffffffffff161786555173ffffffffffffffffffffffffffffffffffffffff16600186019073ffffffffffffffffffffffffffffffffffffffff1681547fffffffffffffffffffffffff0000000000000000000000000000000000000000161790555173ffffffffffffffffffffffffffffffffffffffff16600285019073ffffffffffffffffffffffffffffffffffffffff1681547fffffffffffffffffffffffff0000000000000000000000000000000000000000161790555173ffffffffffffffffffffffffffffffffffffffff16600384019073ffffffffffffffffffffffffffffffffffffffff1681547fffffffffffffffffffffffff000000000000000000000000000000000000000016179055516fffffffffffffffffffffffffffffffff16905160801b7fffffffffffffffffffffffffffffffff00000000000000000000000000000000161790600401558230336113b99361180a565b604051948552602085015260408401526060830152608082015282339160a07ffd4cef0d6adf620d18212ef684168d80731193afc195ff0258508069d228dd5e91a4604051908152602090f35b837f01b26a5c000000000000000000000000000000000000000000000000000000005f5260045264ffffffffff421660245260445ffd5b50428411156110b5565b7f075e08e8000000000000000000000000000000000000000000000000000000005f5260045ffd5b7f68e79bef000000000000000000000000000000000000000000000000000000005f5260045ffd5b847f2677e845000000000000000000000000000000000000000000000000000000005f5260045260245ffd5b507fec51e460000000000000000000000000000000000000000000000000000000005f5260045260245ffd5b7fb4871e93000000000000000000000000000000000000000000000000000000005f5260045ffd5b857fec51e460000000000000000000000000000000000000000000000000000000005f5260045260245ffd5b7f86397f84000000000000000000000000000000000000000000000000000000005f5260045ffd5b34610165575f7ffffffffffffffffffffffffffffffffffffffffffffffffffffffffffffffffc360112610165576020600254604051908152f35b34610165575f7ffffffffffffffffffffffffffffffffffffffffffffffffffffffffffffffffc360112610165576020600354604051908152f35b346101655760207ffffffffffffffffffffffffffffffffffffffffffffffffffffffffffffffffc3601126101655760043561161b6117b9565b66470de4df820000811161166457600354908060035560405191825260208201527ff67a7dd03b08d58188350c6ecfc080b80076c44c35e384795e150f3dc08a3c4060403392a2005b7f612bbd51000000000000000000000000000000000000000000000000000000005f5260045266470de4df82000060245260445ffd5b34610165575f7ffffffffffffffffffffffffffffffffffffffffffffffffffffffffffffffffc360112610165578066470de4df82000060209252f35b6004359073ffffffffffffffffffffffffffffffffffffffff8216820361016557565b602435906fffffffffffffffffffffffffffffffff8216820361016557565b90601f7fffffffffffffffffffffffffffffffffffffffffffffffffffffffffffffffe0910116810190811067ffffffffffffffff821117610b3857604052565b906fffffffffffffffffffffffffffffffff809116911603906fffffffffffffffffffffffffffffffff821161178c57565b7f4e487b71000000000000000000000000000000000000000000000000000000005f52601160045260245ffd5b73ffffffffffffffffffffffffffffffffffffffff5f54168033036117db5750565b7fa7e1519e000000000000000000000000000000000000000000000000000000005f526004523360245260445ffd5b90919273ffffffffffffffffffffffffffffffffffffffff6118769481604051957f23b872dd000000000000000000000000000000000000000000000000000000006020880152166024860152166044840152606483015260648252611871608483611719565b6119f5565b565b805f52600460205273ffffffffffffffffffffffffffffffffffffffff60405f205416156118a35750565b7f2a3105f6000000000000000000000000000000000000000000000000000000005f5260045260245ffd5b6118769273ffffffffffffffffffffffffffffffffffffffff604051937fa9059cbb000000000000000000000000000000000000000000000000000000006020860152166024840152604483015260448252611871606483611719565b805f52600460205260ff60405f205460d01c1661199857805f52600460205260ff60405f205460c81c16611993575f52600460205264ffffffffff60405f205460a01c168015159081611988575b5061198357600390565b600190565b90504210155f611979565b505f90565b50600290565b6fffffffffffffffffffffffffffffffff81116119ca576fffffffffffffffffffffffffffffffff1690565b7f4916adce000000000000000000000000000000000000000000000000000000005f5260045260245ffd5b905f602091828151910182855af1156109a7575f513d611a73575073ffffffffffffffffffffffffffffffffffffffff81163b155b611a315750565b73ffffffffffffffffffffffffffffffffffffffff907f5274afe7000000000000000000000000000000000000000000000000000000005f521660045260245ffd5b60011415611a2a565b9190917fffffffffffffffffffffffffffffffffffffffffffffffffffffffffffffffff83820983820291828083109203918083039214611b3857670de0b6b3a7640000821015611b08577faccb18165bd6fe31ae1cf318dc5b51eee0e1ba569b88cd74c1773b91fac106699394670de0b6b3a7640000910990828211900360ee1b910360121c170290565b84907f5173648d000000000000000000000000000000000000000000000000000000005f5260045260245260445ffd5b5050670de0b6b3a76400009004915056fea264697066735822122012c3b247b4fdbf3d929cbc027db5f980c72979052b5a107eab6d05fdfeb824ce64736f6c634300081d0033",
    "linkReferences": {}
  },
  "methodIdentifiers": {
    "MAX_TRADE_FEE()": "0a87f148",
    "cancelOrder(uint256)": "514fcac7",
    "comptroller()": "5fe3b567",
    "createOrder(address,uint128,address,uint128,address,uint40)": "3cb23348",
    "fillOrder(uint256,uint128)": "b5e176b2",
    "getBuyToken(uint256)": "d4d577c4",
    "getBuyer(uint256)": "5bf608b8",
    "getExpiryTime(uint256)": "d831a7c6",
    "getMinBuyAmount(uint256)": "fa0aaf85",
    "getSellAmount(uint256)": "768713f5",
    "getSellToken(uint256)": "bdbf970b",
    "getSeller(uint256)": "d6a9de51",
    "nativeToken()": "e1758bd8",
    "nextOrderId()": "2a58b330",
    "setComptroller(address)": "8bad38dd",
    "setNativeToken(address)": "6da1e102",
    "setTradeFee(uint256)": "10603023",
    "statusOf(uint256)": "ad35efd4",
    "tradeFee()": "24bcdfbd",
    "transferFeesToComptroller()": "78f82ce7",
    "wasCanceled(uint256)": "f590c176",
    "wasFilled(uint256)": "79ce78e3"
  },
  "id": 79
}