{
  "abi": [
    {
      "type": "constructor",
      "inputs": [
        {
          "name": "initialComptroller",
          "type": "address",
          "internalType": "address"
        },
        {
          "name": "sablierBob",
          "type": "address",
          "internalType": "address"
        },
        {
          "name": "curvePool",
          "type": "address",
          "internalType": "address"
        },
        {
          "name": "lidoWithdrawalQueue",
          "type": "address",
          "internalType": "address"
        },
        {
          "name": "steth",
          "type": "address",
          "internalType": "address"
        },
        {
          "name": "stethEthOracle",
          "type": "address",
          "internalType": "address"
        },
        {
          "name": "weth",
          "type": "address",
          "internalType": "address"
        },
        {
          "name": "wsteth",
          "type": "address",
          "internalType": "address"
        },
        {
          "name": "initialSlippageTolerance",
          "type": "uint256",
          "internalType": "UD60x18"
        },
        {
          "name": "initialYieldFee",
          "type": "uint256",
          "internalType": "UD60x18"
        }
      ],
      "stateMutability": "nonpayable"
    },
    {
      "type": "receive",
      "stateMutability": "payable"
    },
    {
      "type": "function",
      "name": "CURVE_POOL",
      "inputs": [],
      "outputs": [
        {
          "name": "",
          "type": "address",
          "internalType": "address"
        }
      ],
      "stateMutability": "view"
    },
    {
      "type": "function",
      "name": "LIDO_WITHDRAWAL_QUEUE",
      "inputs": [],
      "outputs": [
        {
          "name": "",
          "type": "address",
          "internalType": "address"
        }
      ],
      "stateMutability": "view"
    },
    {
      "type": "function",
      "name": "MAX_FEE",
      "inputs": [],
      "outputs": [
        {
          "name": "",
          "type": "uint256",
          "internalType": "UD60x18"
        }
      ],
      "stateMutability": "view"
    },
    {
      "type": "function",
      "name": "MAX_SLIPPAGE_TOLERANCE",
      "inputs": [],
      "outputs": [
        {
          "name": "",
          "type": "uint256",
          "internalType": "UD60x18"
        }
      ],
      "stateMutability": "view"
    },
    {
      "type": "function",
      "name": "SABLIER_BOB",
      "inputs": [],
      "outputs": [
        {
          "name": "",
          "type": "address",
          "internalType": "address"
        }
      ],
      "stateMutability": "view"
    },
    {
      "type": "function",
      "name": "STETH",
      "inputs": [],
      "outputs": [
        {
          "name": "",
          "type": "address",
          "internalType": "address"
        }
      ],
      "stateMutability": "view"
    },
    {
      "type": "function",
      "name": "STETH_ETH_ORACLE",
      "inputs": [],
      "outputs": [
        {
          "name": "",
          "type": "address",
          "internalType": "address"
        }
      ],
      "stateMutability": "view"
    },
    {
      "type": "function",
      "name": "WETH",
      "inputs": [],
      "outputs": [
        {
          "name": "",
          "type": "address",
          "internalType": "address"
        }
      ],
      "stateMutability": "view"
    },
    {
      "type": "function",
      "name": "WSTETH",
      "inputs": [],
      "outputs": [
        {
          "name": "",
          "type": "address",
          "internalType": "address"
        }
      ],
      "stateMutability": "view"
    },
    {
      "type": "function",
      "name": "comptroller",
      "inputs": [],
      "outputs": [
        {
          "name": "",
          "type": "address",
          "internalType": "contract ISablierComptroller"
        }
      ],
      "stateMutability": "view"
    },
    {
      "type": "function",
      "name": "feeOnYield",
      "inputs": [],
      "outputs": [
        {
          "name": "",
          "type": "uint256",
          "internalType": "UD60x18"
        }
      ],
      "stateMutability": "view"
    },
    {
      "type": "function",
      "name": "getLidoWithdrawalRequestIds",
      "inputs": [
        {
          "name": "vaultId",
          "type": "uint256",
          "internalType": "uint256"
        }
      ],
      "outputs": [
        {
          "name": "",
          "type": "uint256[]",
          "internalType": "uint256[]"
        }
      ],
      "stateMutability": "view"
    },
    {
      "type": "function",
      "name": "getTotalYieldBearingTokenBalance",
      "inputs": [
        {
          "name": "vaultId",
          "type": "uint256",
          "internalType": "uint256"
        }
      ],
      "outputs": [
        {
          "name": "",
          "type": "uint128",
          "internalType": "uint128"
        }
      ],
      "stateMutability": "view"
    },
    {
      "type": "function",
      "name": "getVaultYieldFee",
      "inputs": [
        {
          "name": "vaultId",
          "type": "uint256",
          "internalType": "uint256"
        }
      ],
      "outputs": [
        {
          "name": "",
          "type": "uint256",
          "internalType": "UD60x18"
        }
      ],
      "stateMutability": "view"
    },
    {
      "type": "function",
      "name": "getWethReceivedAfterUnstaking",
      "inputs": [
        {
          "name": "vaultId",
          "type": "uint256",
          "internalType": "uint256"
        }
      ],
      "outputs": [
        {
          "name": "",
          "type": "uint256",
          "internalType": "uint256"
        }
      ],
      "stateMutability": "view"
    },
    {
      "type": "function",
      "name": "getYieldBearingTokenBalanceFor",
      "inputs": [
        {
          "name": "vaultId",
          "type": "uint256",
          "internalType": "uint256"
        },
        {
          "name": "user",
          "type": "address",
          "internalType": "address"
        }
      ],
      "outputs": [
        {
          "name": "",
          "type": "uint128",
          "internalType": "uint128"
        }
      ],
      "stateMutability": "view"
    },
    {
      "type": "function",
      "name": "processRedemption",
      "inputs": [
        {
          "name": "vaultId",
          "type": "uint256",
          "internalType": "uint256"
        },
        {
          "name": "user",
          "type": "address",
          "internalType": "address"
        },
        {
          "name": "shareBalance",
          "type": "uint128",
          "internalType": "uint128"
        }
      ],
      "outputs": [
        {
          "name": "transferAmount",
          "type": "uint128",
          "internalType": "uint128"
        },
        {
          "name": "feeAmountDeductedFromYield",
          "type": "uint128",
          "internalType": "uint128"
        }
      ],
      "stateMutability": "nonpayable"
    },
    {
      "type": "function",
      "name": "registerVault",
      "inputs": [
        {
          "name": "vaultId",
          "type": "uint256",
          "internalType": "uint256"
        }
      ],
      "outputs": [],
      "stateMutability": "nonpayable"
    },
    {
      "type": "function",
      "name": "requestLidoWithdrawal",
      "inputs": [
        {
          "name": "vaultId",
          "type": "uint256",
          "internalType": "uint256"
        }
      ],
      "outputs": [],
      "stateMutability": "nonpayable"
    },
    {
      "type": "function",
      "name": "setComptroller",
      "inputs": [
        {
          "name": "newComptroller",
          "type": "address",
          "internalType": "contract ISablierComptroller"
        }
      ],
      "outputs": [],
      "stateMutability": "nonpayable"
    },
    {
      "type": "function",
      "name": "setSlippageTolerance",
      "inputs": [
        {
          "name": "newTolerance",
          "type": "uint256",
          "internalType": "UD60x18"
        }
      ],
      "outputs": [],
      "stateMutability": "nonpayable"
    },
    {
      "type": "function",
      "name": "setYieldFee",
      "inputs": [
        {
          "name": "newFee",
          "type": "uint256",
          "internalType": "UD60x18"
        }
      ],
      "outputs": [],
      "stateMutability": "nonpayable"
    },
    {
      "type": "function",
      "name": "slippageTolerance",
      "inputs": [],
      "outputs": [
        {
          "name": "",
          "type": "uint256",
          "internalType": "UD60x18"
        }
      ],
      "stateMutability": "view"
    },
    {
      "type": "function",
      "name": "stake",
      "inputs": [
        {
          "name": "vaultId",
          "type": "uint256",
          "internalType": "uint256"
        },
        {
          "name": "user",
          "type": "address",
          "internalType": "address"
        },
        {
          "name": "amount",
          "type": "uint256",
          "internalType": "uint256"
        }
      ],
      "outputs": [],
      "stateMutability": "nonpayable"
    },
    {
      "type": "function",
      "name": "supportsInterface",
      "inputs": [
        {
          "name": "interfaceId",
          "type": "bytes4",
          "internalType": "bytes4"
        }
      ],
      "outputs": [
        {
          "name": "",
          "type": "bool",
          "internalType": "bool"
        }
      ],
      "stateMutability": "view"
    },
    {
      "type": "function",
      "name": "transferFeesToComptroller",
      "inputs": [],
      "outputs": [],
      "stateMutability": "nonpayable"
    },
    {
      "type": "function",
      "name": "unstakeFullAmount",
      "inputs": [
        {
          "name": "vaultId",
          "type": "uint256",
          "internalType": "uint256"
        }
      ],
      "outputs": [
        {
          "name": "totalWstETH",
          "type": "uint128",
          "internalType": "uint128"
        },
        {
          "name": "amountReceivedFromUnstaking",
          "type": "uint128",
          "internalType": "uint128"
        }
      ],
      "stateMutability": "nonpayable"
    },
    {
      "type": "function",
      "name": "updateStakedTokenBalance",
      "inputs": [
        {
          "name": "vaultId",
          "type": "uint256",
          "internalType": "uint256"
        },
        {
          "name": "from",
          "type": "address",
          "internalType": "address"
        },
        {
          "name": "to",
          "type": "address",
          "internalType": "address"
        },
        {
          "name": "shareAmountTransferred",
          "type": "uint256",
          "internalType": "uint256"
        },
        {
          "name": "userShareBalanceBeforeTransfer",
          "type": "uint256",
          "internalType": "uint256"
        }
      ],
      "outputs": [],
      "stateMutability": "nonpayable"
    },
    {
      "type": "event",
      "name": "RequestLidoWithdrawal",
      "inputs": [
        {
          "name": "vaultId",
          "type": "uint256",
          "indexed": true,
          "internalType": "uint256"
        },
        {
          "name": "comptroller",
          "type": "address",
          "indexed": true,
          "internalType": "address"
        },
        {
          "name": "wstETHAmount",
          "type": "uint256",
          "indexed": false,
          "internalType": "uint256"
        },
        {
          "name": "stETHAmount",
          "type": "uint256",
          "indexed": false,
          "internalType": "uint256"
        },
        {
          "name": "withdrawalRequestIds",
          "type": "uint256[]",
          "indexed": false,
          "internalType": "uint256[]"
        }
      ],
      "anonymous": false
    },
    {
      "type": "event",
      "name": "SetComptroller",
      "inputs": [
        {
          "name": "oldComptroller",
          "type": "address",
          "indexed": false,
          "internalType": "contract ISablierComptroller"
        },
        {
          "name": "newComptroller",
          "type": "address",
          "indexed": false,
          "internalType": "contract ISablierComptroller"
        }
      ],
      "anonymous": false
    },
    {
      "type": "event",
      "name": "SetSlippageTolerance",
      "inputs": [
        {
          "name": "previousTolerance",
          "type": "uint256",
          "indexed": false,
          "internalType": "UD60x18"
        },
        {
          "name": "newTolerance",
          "type": "uint256",
          "indexed": false,
          "internalType": "UD60x18"
        }
      ],
      "anonymous": false
    },
    {
      "type": "event",
      "name": "SetYieldFee",
      "inputs": [
        {
          "name": "previousFee",
          "type": "uint256",
          "indexed": false,
          "internalType": "UD60x18"
        },
        {
          "name": "newFee",
          "type": "uint256",
          "indexed": false,
          "internalType": "UD60x18"
        }
      ],
      "anonymous": false
    },
    {
      "type": "event",
      "name": "Stake",
      "inputs": [
        {
          "name": "vaultId",
          "type": "uint256",
          "indexed": true,
          "internalType": "uint256"
        },
        {
          "name": "user",
          "type": "address",
          "indexed": true,
          "internalType": "address"
        },
        {
          "name": "depositAmount",
          "type": "uint256",
          "indexed": false,
          "internalType": "uint256"
        },
        {
          "name": "wrappedStakedAmount",
          "type": "uint256",
          "indexed": false,
          "internalType": "uint256"
        }
      ],
      "anonymous": false
    },
    {
      "type": "event",
      "name": "TransferFeesToComptroller",
      "inputs": [
        {
          "name": "comptroller",
          "type": "address",
          "indexed": true,
          "internalType": "address"
        },
        {
          "name": "feeAmount",
          "type": "uint256",
          "indexed": false,
          "internalType": "uint256"
        }
      ],
      "anonymous": false
    },
    {
      "type": "event",
      "name": "TransferStakedTokens",
      "inputs": [
        {
          "name": "vaultId",
          "type": "uint256",
          "indexed": true,
          "internalType": "uint256"
        },
        {
          "name": "from",
          "type": "address",
          "indexed": true,
          "internalType": "address"
        },
        {
          "name": "to",
          "type": "address",
          "indexed": true,
          "internalType": "address"
        },
        {
          "name": "amount",
          "type": "uint256",
          "indexed": false,
          "internalType": "uint256"
        }
      ],
      "anonymous": false
    },
    {
      "type": "event",
      "name": "UnstakeFullAmount",
      "inputs": [
        {
          "name": "vaultId",
          "type": "uint256",
          "indexed": true,
          "internalType": "uint256"
        },
        {
          "name": "totalStakedAmount",
          "type": "uint128",
          "indexed": false,
          "internalType": "uint128"
        },
        {
          "name": "amountReceivedFromUnstaking",
          "type": "uint128",
          "indexed": false,
          "internalType": "uint128"
        }
      ],
      "anonymous": false
    },
    {
      "type": "error",
      "name": "Comptrollerable_CallerNotComptroller",
      "inputs": [
        {
          "name": "comptroller",
          "type": "address",
          "internalType": "address"
        },
        {
          "name": "caller",
          "type": "address",
          "internalType": "address"
        }
      ]
    },
    {
      "type": "error",
      "name": "Comptrollerable_UnsupportedInterfaceId",
      "inputs": [
        {
          "name": "previousComptroller",
          "type": "address",
          "internalType": "address"
        },
        {
          "name": "newComptroller",
          "type": "address",
          "internalType": "address"
        },
        {
          "name": "minimalInterfaceId",
          "type": "bytes4",
          "internalType": "bytes4"
        }
      ]
    },
    {
      "type": "error",
      "name": "PRBMath_MulDiv18_Overflow",
      "inputs": [
        {
          "name": "x",
          "type": "uint256",
          "internalType": "uint256"
        },
        {
          "name": "y",
          "type": "uint256",
          "internalType": "uint256"
        }
      ]
    },
    {
      "type": "error",
      "name": "PRBMath_UD60x18_IntoUint128_Overflow",
      "inputs": [
        {
          "name": "x",
          "type": "uint256",
          "internalType": "UD60x18"
        }
      ]
    },
    {
      "type": "error",
      "name": "SablierLidoAdapter_LidoWithdrawalAlreadyRequested",
      "inputs": [
        {
          "name": "vaultId",
          "type": "uint256",
          "internalType": "uint256"
        }
      ]
    },
    {
      "type": "error",
      "name": "SablierLidoAdapter_NoWstETHToWithdraw",
      "inputs": [
        {
          "name": "vaultId",
          "type": "uint256",
          "internalType": "uint256"
        }
      ]
    },
    {
      "type": "error",
      "name": "SablierLidoAdapter_OnlySablierBob",
      "inputs": [
        {
          "name": "caller",
          "type": "address",
          "internalType": "address"
        },
        {
          "name": "expectedCaller",
          "type": "address",
          "internalType": "address"
        }
      ]
    },
    {
      "type": "error",
      "name": "SablierLidoAdapter_OraclePriceZero",
      "inputs": []
    },
    {
      "type": "error",
      "name": "SablierLidoAdapter_SlippageExceeded",
      "inputs": [
        {
          "name": "expected",
          "type": "uint256",
          "internalType": "uint256"
        },
        {
          "name": "actual",
          "type": "uint256",
          "internalType": "uint256"
        }
      ]
    },
    {
      "type": "error",
      "name": "SablierLidoAdapter_SlippageToleranceTooHigh",
      "inputs": [
        {
          "name": "tolerance",
          "type": "uint256",
          "internalType": "UD60x18"
        },
        {
          "name": "maxTolerance",
          "type": "uint256",
          "internalType": "UD60x18"
        }
      ]
    },
    {
      "type": "error",
      "name": "SablierLidoAdapter_UserBalanceZero",
      "inputs": [
        {
          "name": "vaultId",
          "type": "uint256",
          "internalType": "uint256"
        },
        {
          "name": "user",
          "type": "address",
          "internalType": "address"
        }
      ]
    },
    {
      "type": "error",
      "name": "SablierLidoAdapter_VaultActive",
      "inputs": [
        {
          "name": "vaultId",
          "type": "uint256",
          "internalType": "uint256"
        }
      ]
    },
    {
      "type": "error",
      "name": "SablierLidoAdapter_VaultAlreadyUnstaked",
      "inputs": [
        {
          "name": "vaultId",
          "type": "uint256",
          "internalType": "uint256"
        }
      ]
    },
    {
      "type": "error",
      "name": "SablierLidoAdapter_WithdrawalAmountBelowMinimum",
      "inputs": [
        {
          "name": "vaultId",
          "type": "uint256",
          "internalType": "uint256"
        },
        {
          "name": "totalAmount",
          "type": "uint256",
          "internalType": "uint256"
        },
        {
          "name": "minimumAmountPerRequest",
          "type": "uint256",
          "internalType": "uint256"
        }
      ]
    },
    {
      "type": "error",
      "name": "SablierLidoAdapter_WstETHTransferAmountZero",
      "inputs": [
        {
          "name": "vaultId",
          "type": "uint256",
          "internalType": "uint256"
        },
        {
          "name": "from",
          "type": "address",
          "internalType": "address"
        },
        {
          "name": "to",
          "type": "address",
          "internalType": "address"
        }
      ]
    },
    {
      "type": "error",
      "name": "SablierLidoAdapter_YieldFeeTooHigh",
      "inputs": [
        {
          "name": "fee",
          "type": "uint256",
          "internalType": "UD60x18"
        },
        {
          "name": "maxFee",
          "type": "uint256",
          "internalType": "UD60x18"
        }
      ]
    },
    {
      "type": "error",
      "name": "SafeCastOverflowedUintDowncast",
      "inputs": [
        {
          "name": "bits",
          "type": "uint8",
          "internalType": "uint8"
        },
        {
          "name": "value",
          "type": "uint256",
          "internalType": "uint256"
        }
      ]
    },
    {
      "type": "error",
      "name": "SafeERC20FailedOperation",
      "inputs": [
        {
          "name": "token",
          "type": "address",
          "internalType": "address"
        }
      ]
    }
  ],
  "bytecode": {
    "object": "0x61016080604052346103a2576101408161343c803803809161002182856103a6565b8339810103126103a257610034816103dd565b90610041602082016103dd565b61004d604083016103dd565b9161005a606082016103dd565b92610067608083016103dd565b9361007460a084016103dd565b9061008160c085016103dd565b9261008e60e086016103dd565b610100860151610120909601516040516301ffc9a760e01b8152630654439160e41b600482015290999197916001600160a01b031690602081602481855afa9081156102fd575f91610383575b5015610362575f80546001600160a01b031916821781556040805191825260208201929092527ff45d882a72fce9d8d7a7e2e196a338d4d9d4057510b4b9ddf91a7066104d2eaf9190a166b1a2bc2ec500008611610344576702c68af0bb1400008911610325576101405260805260a05260c085905260e0526101005261012082905260025560019290925560405163095ea7b360e01b81526001600160a01b0392831660048201526001600160801b03602482015291602091839160449183915f91165af180156102fd57610308575b5060c05160805160405163095ea7b360e01b81526001600160a01b0391821660048201526001600160801b03602482015291602091839160449183915f91165af180156102fd576102ce575b604051613032908161040a8239608051818181610ac40152611bea015260a0518181816104d901528181610ec501526117c1015260c0518181816102a4015281816110f00152611f0a015260e0518181816109fe01526123150152610100518181816106460152818161070f01528181610b1e015281816118300152611e890152610120518181816103a9015281816109a201528181610e9201526120150152610140518181816101c30152818161040301528181610d53015281816116890152818161189f01528181611e4a01526123af0152f35b6102ef9060203d6020116102f6575b6102e781836103a6565b8101906103f1565b505f6101f8565b503d6102dd565b6040513d5f823e3d90fd5b6103209060203d6020116102f6576102e781836103a6565b6101ac565b88636731be1560e01b5f526004526702c68af0bb14000060245260445ffd5b856385d766ab60e01b5f5260045266b1a2bc2ec5000060245260445ffd5b6364ca3de160e11b5f525f600452602452630654439160e41b60445260645ffd5b61039c915060203d6020116102f6576102e781836103a6565b5f6100db565b5f80fd5b601f909101601f19168101906001600160401b038211908210176103c957604052565b634e487b7160e01b5f52604160045260245ffd5b51906001600160a01b03821682036103a257565b908160209103126103a2575180151581036103a2579056fe6080604052600436101561001a575b3615610018575f80fd5b005b5f5f3560e01c80624e8a46146127c157806301ffc9a7146126d1578063117da1ee1461261a57806311f8a8b5146125df5780633527687f1461233957806359abff0e146122cb5780635fe3b5671461227b578063642c07c7146122335780636e9c931c14611df357806378f82ce714611cc9578063794b8e0214611c0e57806386a8b4b514611b9f5780638bad38dd146119775780639a00a9341461191d578063a59c665d146118c3578063aa2e3b9814611854578063ad5c4648146117e5578063b8c7777414611776578063bc063e1a14611735578063c30e659b146116f5578063c6405ffb14611642578063cc8d9e8714610d00578063d03153aa14610cc4578063d0ff74fa146103cd578063d9fb643a1461035e578063de9629d1146102c8578063e00bfe50146102595763e5eefedd14610158575061000e565b346102565760607ffffffffffffffffffffffffffffffffffffffffffffffffffffffffffffffffc3601126102565761018f612843565b604435906fffffffffffffffffffffffffffffffff821682036102545773ffffffffffffffffffffffffffffffffffffffff7f00000000000000000000000000000000000000000000000000000000000000001692833303610224576101f88383600435612ada565b604080516fffffffffffffffffffffffffffffffff9384168152929091166020830152819081015b0390f35b80847fba220f62000000000000000000000000000000000000000000000000000000006044935233600452602452fd5b825b80fd5b503461025657807ffffffffffffffffffffffffffffffffffffffffffffffffffffffffffffffffc36011261025657602060405173ffffffffffffffffffffffffffffffffffffffff7f0000000000000000000000000000000000000000000000000000000000000000168152f35b50346102565760207ffffffffffffffffffffffffffffffffffffffffffffffffffffffffffffffffc360112610256576004358152600360205260408120604051918260208354918281520192825260208220915b818110610348576102208561033481870382612974565b604051918291602083526020830190612866565b825484526020909301926001928301920161031d565b503461025657807ffffffffffffffffffffffffffffffffffffffffffffffffffffffffffffffffc36011261025657602060405173ffffffffffffffffffffffffffffffffffffffff7f0000000000000000000000000000000000000000000000000000000000000000168152f35b50346102565760207ffffffffffffffffffffffffffffffffffffffffffffffffffffffffffffffffc36011261025657600435907f00000000000000000000000000000000000000000000000000000000000000009173ffffffffffffffffffffffffffffffffffffffff8316803303610c95575080825260056020526fffffffffffffffffffffffffffffffff604083205416918181526003602052604081205415155f14610958578181526003602052604081206040518082602082945493848152019085526020852092855b81811061093f5750506104b192500382612974565b6040517f526eae3e0000000000000000000000000000000000000000000000000000000081527f000000000000000000000000000000000000000000000000000000000000000073ffffffffffffffffffffffffffffffffffffffff16602082600481845afa9182156108fc578492610907575b50836040518080947f62abe3fa000000000000000000000000000000000000000000000000000000008252606060048301526105646064830188612866565b906001602484015260448301520381845afa9182156108fc5784926108d8575b504792813b156108d4579184916105d78361060795604051968795869485937fe3afe0a3000000000000000000000000000000000000000000000000000000008552604060048601526044850190612866565b907ffffffffffffffffffffffffffffffffffffffffffffffffffffffffffffffffc848303016024850152612866565b03925af180156108b0579083916108bf575b50506106259047612a53565b61062e81612cfb565b9073ffffffffffffffffffffffffffffffffffffffff7f000000000000000000000000000000000000000000000000000000000000000016803b156108bb5783906004604051809481937fd0e30db00000000000000000000000000000000000000000000000000000000083525af180156108b057908391610897575b5050935b8282526007602052604082206fffffffffffffffffffffffffffffffff86167fffffffffffffffffffffffffffffffff0000000000000000000000000000000082541617905560208273ffffffffffffffffffffffffffffffffffffffff7f000000000000000000000000000000000000000000000000000000000000000016926040516107cd816107a1868201947fa9059cbb0000000000000000000000000000000000000000000000000000000086526fffffffffffffffffffffffffffffffff8d1690602484016020909392919373ffffffffffffffffffffffffffffffffffffffff60408201951681520152565b037fffffffffffffffffffffffffffffffffffffffffffffffffffffffffffffffe08101835282612974565b519082855af11561088a5781513d6108815750803b155b610855575050604080516fffffffffffffffffffffffffffffffff8481168252851660208201527f6be1946d4094162fd334e8b31dcfdff5db068065b8cb19e4136cdf2199a9eccc9190a2604080516fffffffffffffffffffffffffffffffff928316815292909116602083015290f35b602492507f5274afe7000000000000000000000000000000000000000000000000000000008252600452fd5b600114156107e4565b50604051903d90823e3d90fd5b816108a191612974565b6108ac57815f6106ab565b5080fd5b6040513d85823e3d90fd5b8380fd5b816108c991612974565b6108ac57815f610619565b8480fd5b6108f59192503d8086833e6108ed8183612974565b810190612a60565b905f610584565b6040513d86823e3d90fd5b9091506020813d602011610937575b8161092360209383612974565b810103126109335751905f610525565b5f80fd5b3d9150610916565b845483526001948501948694506020909301920161049c565b6040517fde0e9a3e0000000000000000000000000000000000000000000000000000000081528360048201526020816024818573ffffffffffffffffffffffffffffffffffffffff7f0000000000000000000000000000000000000000000000000000000000000000165af1908115610c8a578291610c58575b506fffffffffffffffffffffffffffffffff610a2373ffffffffffffffffffffffffffffffffffffffff7f000000000000000000000000000000000000000000000000000000000000000016612d6e565b5050168015610c3057610a3f670de0b6b3a76400009183612899565b04600254670de0b6b3a76400000390670de0b6b3a76400008211610c035790610a6791612f2f565b604051917f3df021240000000000000000000000000000000000000000000000000000000083526001600484015283602484015260448301528060648301526020826084818673ffffffffffffffffffffffffffffffffffffffff7f0000000000000000000000000000000000000000000000000000000000000000165af19182156108b0578392610bcf575b50808210610ba05750610b0681612cfb565b9073ffffffffffffffffffffffffffffffffffffffff7f000000000000000000000000000000000000000000000000000000000000000016803b156108bb5783906004604051809481937fd0e30db00000000000000000000000000000000000000000000000000000000083525af180156108b057908391610b8b575b5050936106af565b81610b9591612974565b6108ac57815f610b83565b604493507f0aa9276e000000000000000000000000000000000000000000000000000000008352600452602452fd5b9091506020813d602011610bfb575b81610beb60209383612974565b810103126109335751905f610af4565b3d9150610bde565b6024847f4e487b710000000000000000000000000000000000000000000000000000000081526011600452fd5b6004837f7c59e954000000000000000000000000000000000000000000000000000000008152fd5b90506020813d602011610c82575b81610c7360209383612974565b8101031261093357515f6109d2565b3d9150610c66565b6040513d84823e3d90fd5b7fba220f6200000000000000000000000000000000000000000000000000000000835233600452602452604482fd5b503461025657807ffffffffffffffffffffffffffffffffffffffffffffffffffffffffffffffffc360112610256576020600254604051908152f35b50346102565760207ffffffffffffffffffffffffffffffffffffffffffffffffffffffffffffffffc3601126102565760043590610d3c612caa565b73ffffffffffffffffffffffffffffffffffffffff7f0000000000000000000000000000000000000000000000000000000000000000166040517fad35efd4000000000000000000000000000000000000000000000000000000008152836004820152602081602481855afa9081156108b0578391611607575b5060038110156115da57156115ae576020602491604051928380927f8f4f89680000000000000000000000000000000000000000000000000000000082528760048301525afa908115610c8a57829161158f575b501561156457818152600360205260408120546115395781815260056020526fffffffffffffffffffffffffffffffff60408220541691821561150d57604051927fde0e9a3e0000000000000000000000000000000000000000000000000000000084528060048501526020846024818673ffffffffffffffffffffffffffffffffffffffff7f0000000000000000000000000000000000000000000000000000000000000000165af19384156108b05783946114d9575b507f00000000000000000000000000000000000000000000000000000000000000009373ffffffffffffffffffffffffffffffffffffffff8516604051957fdb2296cd000000000000000000000000000000000000000000000000000000008752602087600481855afa9687156114ce57869761149a575b50604051967f0d25a957000000000000000000000000000000000000000000000000000000008852602088600481865afa9788156112d5578798611466575b5087841061143257808411156113cb5780840180851161139e577fffffffffffffffffffffffffffffffffffffffffffffffffffffffffffffffff810190811161139e5781610fc7916128d9565b90610fd1826129fa565b610fde6040519182612974565b8281527fffffffffffffffffffffffffffffffffffffffffffffffffffffffffffffffe061100b846129fa565b0136602083013780997fffffffffffffffffffffffffffffffffffffffffffffffffffffffffffffffff84019284841161135957838b5b81811061138657506110579061105d92612899565b88612a53565b938185106112e0575b50508899936110d6959361107d6020948994612a12565b525b60405195869283927f095ea7b3000000000000000000000000000000000000000000000000000000008452600484016020909392919373ffffffffffffffffffffffffffffffffffffffff60408201951681520152565b03818a73ffffffffffffffffffffffffffffffffffffffff7f0000000000000000000000000000000000000000000000000000000000000000165af19182156112d5578793611162936112a8575b506040519788809481937fd6681042000000000000000000000000000000000000000000000000000000008352604060048401526044830190612866565b30602483015203925af193841561129d578594611281575b5082855260036020526040852084519067ffffffffffffffff82116112545768010000000000000000821161125457805482825580831061122e575b506020860190875260208720875b83811061121a5750505050907f037d629cb3ed2b13f116b8d3c28cb4b6658bbf4466b6841033b4b2a99d2b4eb5916040519182526020820152606060408201528061121433956060830190612866565b0390a380f35b6001906020845194019381840155016111c4565b818852826020892091820191015b81811061124957506111b6565b88815560010161123c565b6024877f4e487b710000000000000000000000000000000000000000000000000000000081526041600452fd5b6112969194503d8087833e6108ed8183612974565b925f61117a565b6040513d87823e3d90fd5b6112c99060203d6020116112ce575b6112c18183612974565b8101906129e2565b611124565b503d6112b7565b6040513d89823e3d90fd5b90919361130e7ffffffffffffffffffffffffffffffffffffffffffffffffffffffffffffffffe9184612a53565b910190838211611359579361107d6020948994848e9f99956113416110d69c9a61133b6113489389612a12565b51612a53565b9186612a12565b529698509450509181959b50611066565b60248b7f4e487b710000000000000000000000000000000000000000000000000000000081526011600452fd5b60019150826113958287612a12565b52018490611042565b6024887f4e487b710000000000000000000000000000000000000000000000000000000081526011600452fd5b509550604051956113dd604088612974565b60018752602080880190368237875115611405579160208488999381866110d697505261107f565b6024877f4e487b710000000000000000000000000000000000000000000000000000000081526032600452fd5b6064878986897f22d1d48c000000000000000000000000000000000000000000000000000000008452600452602452604452fd5b9097506020813d602011611492575b8161148260209383612974565b810103126109335751965f610f79565b3d9150611475565b9096506020813d6020116114c6575b816114b660209383612974565b810103126109335751955f610f3a565b3d91506114a9565b6040513d88823e3d90fd5b9093506020813d602011611505575b816114f560209383612974565b810103126109335751925f610ec2565b3d91506114e8565b602492507f5b2ede93000000000000000000000000000000000000000000000000000000008252600452fd5b6024917fa6cdd2a1000000000000000000000000000000000000000000000000000000008252600452fd5b6024917f43c65dae000000000000000000000000000000000000000000000000000000008252600452fd5b6115a8915060203d6020116112ce576112c18183612974565b5f610e0a565b506024917f4ed4d55b000000000000000000000000000000000000000000000000000000008252600452fd5b6024837f4e487b710000000000000000000000000000000000000000000000000000000081526021600452fd5b90506020813d60201161163a575b8161162260209383612974565b8101031261025457516003811015610254575f610db6565b3d9150611615565b50346102565760207ffffffffffffffffffffffffffffffffffffffffffffffffffffffffffffffffc3601126102565773ffffffffffffffffffffffffffffffffffffffff7f0000000000000000000000000000000000000000000000000000000000000000168033036116c6575060015460043582526006602052604082205580f35b7fba220f6200000000000000000000000000000000000000000000000000000000825233600452602452604490fd5b503461025657807ffffffffffffffffffffffffffffffffffffffffffffffffffffffffffffffffc36011261025657602060405166b1a2bc2ec500008152f35b503461025657807ffffffffffffffffffffffffffffffffffffffffffffffffffffffffffffffffc3601126102565760206040516702c68af0bb1400008152f35b503461025657807ffffffffffffffffffffffffffffffffffffffffffffffffffffffffffffffffc36011261025657602060405173ffffffffffffffffffffffffffffffffffffffff7f0000000000000000000000000000000000000000000000000000000000000000168152f35b503461025657807ffffffffffffffffffffffffffffffffffffffffffffffffffffffffffffffffc36011261025657602060405173ffffffffffffffffffffffffffffffffffffffff7f0000000000000000000000000000000000000000000000000000000000000000168152f35b503461025657807ffffffffffffffffffffffffffffffffffffffffffffffffffffffffffffffffc36011261025657602060405173ffffffffffffffffffffffffffffffffffffffff7f0000000000000000000000000000000000000000000000000000000000000000168152f35b50346102565760207ffffffffffffffffffffffffffffffffffffffffffffffffffffffffffffffffc360112610256576fffffffffffffffffffffffffffffffff6040602092600435815260058452205416604051908152f35b50346102565760207ffffffffffffffffffffffffffffffffffffffffffffffffffffffffffffffffc360112610256576fffffffffffffffffffffffffffffffff6040602092600435815260078452205416604051908152f35b50346102565760207ffffffffffffffffffffffffffffffffffffffffffffffffffffffffffffffffc360112610256576004359073ffffffffffffffffffffffffffffffffffffffff8216809203610256576119d1612caa565b80549173ffffffffffffffffffffffffffffffffffffffff8316906040517fc34df33e000000000000000000000000000000000000000000000000000000008152602081600481865afa9081156108fc578491611b44575b507fffffffff00000000000000000000000000000000000000000000000000000000604051917f01ffc9a70000000000000000000000000000000000000000000000000000000083521690816004820152602081602481865afa90811561129d578591611b25575b5015611af257507ff45d882a72fce9d8d7a7e2e196a338d4d9d4057510b4b9ddf91a7066104d2eaf91816040927fffffffffffffffffffffffff0000000000000000000000000000000000000000871617855582519182526020820152a180f35b91606494507fc9947bc2000000000000000000000000000000000000000000000000000000008452600452602452604452fd5b611b3e915060203d6020116112ce576112c18183612974565b5f611a91565b90506020813d602011611b97575b81611b5f60209383612974565b810103126108bb57517fffffffff00000000000000000000000000000000000000000000000000000000811681036108bb575f611a29565b3d9150611b52565b503461025657807ffffffffffffffffffffffffffffffffffffffffffffffffffffffffffffffffc36011261025657602060405173ffffffffffffffffffffffffffffffffffffffff7f0000000000000000000000000000000000000000000000000000000000000000168152f35b50346102565760207ffffffffffffffffffffffffffffffffffffffffffffffffffffffffffffffffc36011261025657600435611c49612caa565b6702c68af0bb1400008111611c925760407ff7e62f782a7c501ec6fa1a183cbe78542fbf3b2875df4298e7e12ff416c1857b91600154908060015582519182526020820152a180f35b7f6731be150000000000000000000000000000000000000000000000000000000082526004526702c68af0bb140000602452604490fd5b503461025657807ffffffffffffffffffffffffffffffffffffffffffffffffffffffffffffffffc3601126102565773ffffffffffffffffffffffffffffffffffffffff815416478280808084865af1503d15611dca573d67ffffffffffffffff8111611d9d577f56dedb874d4fc0f70753f281fa2c25e82085163206086fe826cf834b51701f6c9160209160405190611d8a847fffffffffffffffffffffffffffffffffffffffffffffffffffffffffffffffe0601f8401160183612974565b815285833d92013e5b604051908152a280f35b6024847f4e487b710000000000000000000000000000000000000000000000000000000081526041600452fd5b60207f56dedb874d4fc0f70753f281fa2c25e82085163206086fe826cf834b51701f6c91611d93565b50346109335760607ffffffffffffffffffffffffffffffffffffffffffffffffffffffffffffffffc36011261093357600435611e2e612843565b906044359173ffffffffffffffffffffffffffffffffffffffff7f000000000000000000000000000000000000000000000000000000000000000016803303612204575073ffffffffffffffffffffffffffffffffffffffff7f000000000000000000000000000000000000000000000000000000000000000016803b15610933575f80916024604051809481937f2e1a7d4d0000000000000000000000000000000000000000000000000000000083528960048401525af180156121f9576121e4575b5073ffffffffffffffffffffffffffffffffffffffff7f0000000000000000000000000000000000000000000000000000000000000000169073ffffffffffffffffffffffffffffffffffffffff855416604051907fa1903eab000000000000000000000000000000000000000000000000000000008252600482015260208160248188875af180156114ce576121b3575b506020602492604051938480927f70a082310000000000000000000000000000000000000000000000000000000082523060048301525afa91821561129d57859261217f575b50604051917fea598cb000000000000000000000000000000000000000000000000000000000835260048301526020826024818873ffffffffffffffffffffffffffffffffffffffff7f0000000000000000000000000000000000000000000000000000000000000000165af191821561129d578592612137575b5073ffffffffffffffffffffffffffffffffffffffff6040916fffffffffffffffffffffffffffffffff6120997f507ac39eb33610191cd8fd54286e91c5cc464c262861643be3978f5a9f18ab0295612cfb565b86895260046020528489208484165f52602052845f20826120bd8382845416612942565b167fffffffffffffffffffffffffffffffff000000000000000000000000000000008254161790558689526005602052848920826120fe8382845416612942565b167fffffffffffffffffffffffffffffffff0000000000000000000000000000000082541617905584519788521660208701521693a380f35b91506020823d602011612177575b8161215260209383612974565b810103126109335790519073ffffffffffffffffffffffffffffffffffffffff612045565b3d9150612145565b9091506020813d6020116121ab575b8161219b60209383612974565b810103126109335751905f611fca565b3d915061218e565b6020813d6020116121dc575b816121cc60209383612974565b8101031261093357506020611f84565b3d91506121bf565b6121f19194505f90612974565b5f925f611ef2565b6040513d5f823e3d90fd5b7fba220f62000000000000000000000000000000000000000000000000000000005f523360045260245260445ffd5b346109335760207ffffffffffffffffffffffffffffffffffffffffffffffffffffffffffffffffc360112610933576004355f526006602052602060405f2054604051908152f35b34610933575f7ffffffffffffffffffffffffffffffffffffffffffffffffffffffffffffffffc36011261093357602073ffffffffffffffffffffffffffffffffffffffff5f5416604051908152f35b34610933575f7ffffffffffffffffffffffffffffffffffffffffffffffffffffffffffffffffc36011261093357602060405173ffffffffffffffffffffffffffffffffffffffff7f0000000000000000000000000000000000000000000000000000000000000000168152f35b346109335760a07ffffffffffffffffffffffffffffffffffffffffffffffffffffffffffffffffc36011261093357600435612373612843565b6044359173ffffffffffffffffffffffffffffffffffffffff83168093036109335760843573ffffffffffffffffffffffffffffffffffffffff7f000000000000000000000000000000000000000000000000000000000000000016803303612204575080156125995761243461243991835f52600460205260405f2073ffffffffffffffffffffffffffffffffffffffff86165f5260205261242f60405f206fffffffffffffffffffffffffffffffff606435915416612899565b6128d9565b612cfb565b916fffffffffffffffffffffffffffffffff831692831561254f5773ffffffffffffffffffffffffffffffffffffffff7feb5f0d320140bc354dfa8b414bb0e39df6df3a9641882808783c7acacf5d7aa992602092855f526004845260405f208383165f52845260405f206fffffffffffffffffffffffffffffffff6124c28382845416612910565b167fffffffffffffffffffffffffffffffff00000000000000000000000000000000825416179055855f526004845260405f20885f5284526fffffffffffffffffffffffffffffffff61251c60405f209282845416612942565b167fffffffffffffffffffffffffffffffff000000000000000000000000000000008254161790556040519586521693a4005b8473ffffffffffffffffffffffffffffffffffffffff83857f5d964501000000000000000000000000000000000000000000000000000000005f526004521660245260445260645ffd5b73ffffffffffffffffffffffffffffffffffffffff83837f2963d542000000000000000000000000000000000000000000000000000000005f526004521660245260445ffd5b34610933575f7ffffffffffffffffffffffffffffffffffffffffffffffffffffffffffffffffc360112610933576020600154604051908152f35b346109335760207ffffffffffffffffffffffffffffffffffffffffffffffffffffffffffffffffc36011261093357600435612654612caa565b66b1a2bc2ec50000811161269b5760407f3c4502904c20aedcb6ae60f22f07767af705ceee8fbf08b6847b9113750a921391600254908060025582519182526020820152a1005b7f85d766ab000000000000000000000000000000000000000000000000000000005f5260045266b1a2bc2ec5000060245260445ffd5b346109335760207ffffffffffffffffffffffffffffffffffffffffffffffffffffffffffffffffc360112610933576004357fffffffff00000000000000000000000000000000000000000000000000000000811680910361093357807f178fe6560000000000000000000000000000000000000000000000000000000060209214908115612797575b811561276d575b506040519015158152f35b7f01ffc9a70000000000000000000000000000000000000000000000000000000091501482612762565b7f79316950000000000000000000000000000000000000000000000000000000008114915061275b565b346109335760407ffffffffffffffffffffffffffffffffffffffffffffffffffffffffffffffffc360112610933576127f8612843565b6004355f52600460205273ffffffffffffffffffffffffffffffffffffffff60405f2091165f5260205260206fffffffffffffffffffffffffffffffff60405f205416604051908152f35b6024359073ffffffffffffffffffffffffffffffffffffffff8216820361093357565b90602080835192838152019201905f5b8181106128835750505090565b8251845260209384019390920191600101612876565b818102929181159184041417156128ac57565b7f4e487b71000000000000000000000000000000000000000000000000000000005f52601160045260245ffd5b81156128e3570490565b7f4e487b71000000000000000000000000000000000000000000000000000000005f52601260045260245ffd5b906fffffffffffffffffffffffffffffffff809116911603906fffffffffffffffffffffffffffffffff82116128ac57565b906fffffffffffffffffffffffffffffffff809116911601906fffffffffffffffffffffffffffffffff82116128ac57565b90601f7fffffffffffffffffffffffffffffffffffffffffffffffffffffffffffffffe0910116810190811067ffffffffffffffff8211176129b557604052565b7f4e487b71000000000000000000000000000000000000000000000000000000005f52604160045260245ffd5b90816020910312610933575180151581036109335790565b67ffffffffffffffff81116129b55760051b60200190565b8051821015612a265760209160051b010190565b7f4e487b71000000000000000000000000000000000000000000000000000000005f52603260045260245ffd5b919082039182116128ac57565b6020818303126109335780519067ffffffffffffffff821161093357019080601f83011215610933578151612a94816129fa565b92612aa26040519485612974565b81845260208085019260051b82010192831161093357602001905b828210612aca5750505090565b8151815260209182019101612abd565b92905f92845f5260056020526fffffffffffffffffffffffffffffffff60405f205416855f5260076020526fffffffffffffffffffffffffffffffff60405f20541681158015612ca2575b612c9657612b789161242f61243492895f52600460205260405f2073ffffffffffffffffffffffffffffffffffffffff88165f526020526fffffffffffffffffffffffffffffffff60405f205416612899565b936fffffffffffffffffffffffffffffffff82166fffffffffffffffffffffffffffffffff8616115f14612c8d57506fffffffffffffffffffffffffffffffff612bc5612bd99286612910565b16855f52600660205260405f205490612f2f565b6fffffffffffffffffffffffffffffffff8111612c62576fffffffffffffffffffffffffffffffff612c0d91168094612910565b935b5f52600460205273ffffffffffffffffffffffffffffffffffffffff60405f2091165f5260205260405f207fffffffffffffffffffffffffffffffff000000000000000000000000000000008154169055565b7f4916adce000000000000000000000000000000000000000000000000000000005f5260045260245ffd5b93905093612c0f565b505f9550859450505050565b508015612b25565b73ffffffffffffffffffffffffffffffffffffffff5f5416803303612ccc5750565b7fa7e1519e000000000000000000000000000000000000000000000000000000005f526004523360245260445ffd5b6fffffffffffffffffffffffffffffffff8111612d27576fffffffffffffffffffffffffffffffff1690565b7f6dfcc650000000000000000000000000000000000000000000000000000000005f52608060045260245260445ffd5b519069ffffffffffffffffffff8216820361093357565b73ffffffffffffffffffffffffffffffffffffffff5f91168015612f25576040517f313ce567000000000000000000000000000000000000000000000000000000008152602081600481855afa5f9181612ee7575b50612dd3575050505f905f905f90565b60ff811660248111908115612ede575b50612ed35760a060049192604051928380927ffeaf968c0000000000000000000000000000000000000000000000000000000082525afa90815f915f93612e7d575b50612e335750505080918190565b9092505f819492941315612e7657824210612e76576fffffffffffffffffffffffffffffffff8111612e76576fffffffffffffffffffffffffffffffff16929190565b505f929190565b9150915060a0813d60a011612ecb575b81612e9a60a09383612974565b8101031261093357612eab81612d57565b506020810151612ec2608060608401519301612d57565b5090915f612e25565b3d9150612e8d565b5050505f905f905f90565b9050155f612de3565b9091506020813d602011612f1d575b81612f0360209383612974565b81010312610933575160ff8116810361093357905f612dc3565b3d9150612ef6565b50505f905f905f90565b9190917fffffffffffffffffffffffffffffffffffffffffffffffffffffffffffffffff83820983820291828083109203918083039214612feb57670de0b6b3a7640000821015612fbb577faccb18165bd6fe31ae1cf318dc5b51eee0e1ba569b88cd74c1773b91fac106699394670de0b6b3a7640000910990828211900360ee1b910360121c170290565b84907f5173648d000000000000000000000000000000000000000000000000000000005f5260045260245260445ffd5b5050670de0b6b3a76400009004915056fea2646970667358221220af2339f8d976eb4945e6747c2eb14eeb5f6b6560c81db739ac5f935f8241dd8664736f6c634300081d0033",
    "linkReferences": {}
  },
  "methodIdentifiers": {
    "CURVE_POOL()": "86a8b4b5",
    "LIDO_WITHDRAWAL_QUEUE()": "b8c77774",
    "MAX_FEE()": "bc063e1a",
    "MAX_SLIPPAGE_TOLERANCE()": "c30e659b",
    "SABLIER_BOB()": "aa2e3b98",
    "STETH()": "e00bfe50",
    "STETH_ETH_ORACLE()": "59abff0e",
    "WETH()": "ad5c4648",
    "WSTETH()": "d9fb643a",
    "comptroller()": "5fe3b567",
    "feeOnYield()": "11f8a8b5",
    "getLidoWithdrawalRequestIds(uint256)": "de9629d1",
    "getTotalYieldBearingTokenBalance(uint256)": "a59c665d",
    "getVaultYieldFee(uint256)": "642c07c7",
    "getWethReceivedAfterUnstaking(uint256)": "9a00a934",
    "getYieldBearingTokenBalanceFor(uint256,address)": "004e8a46",
    "processRedemption(uint256,address,uint128)": "e5eefedd",
    "registerVault(uint256)": "c6405ffb",
    "requestLidoWithdrawal(uint256)": "cc8d9e87",
    "setComptroller(address)": "8bad38dd",
    "setSlippageTolerance(uint256)": "117da1ee",
    "setYieldFee(uint256)": "794b8e02",
    "slippageTolerance()": "d03153aa",
    "stake(uint256,address,uint256)": "6e9c931c",
    "supportsInterface(bytes4)": "01ffc9a7",
    "transferFeesToComptroller()": "78f82ce7",
    "unstakeFullAmount(uint256)": "d0ff74fa",
    "updateStakedTokenBalance(uint256,address,address,uint256,uint256)": "3527687f"
  },
  "id": 80
}